{
	"LoanManager.sol": {
		"LoanManager": {
			"abi": [
				{
					"inputs": [
						{
							"internalType": "contract ERC20",
							"name": "_cusdToken",
							"type": "address"
						},
						{
							"internalType": "address",
							"name": "_collateralManager",
							"type": "address"
						}
					],
					"stateMutability": "nonpayable",
					"type": "constructor"
				},
				{
					"inputs": [
						{
							"internalType": "address",
							"name": "owner",
							"type": "address"
						}
					],
					"name": "OwnableInvalidOwner",
					"type": "error"
				},
				{
					"inputs": [
						{
							"internalType": "address",
							"name": "account",
							"type": "address"
						}
					],
					"name": "OwnableUnauthorizedAccount",
					"type": "error"
				},
				{
					"inputs": [],
					"name": "ReentrancyGuardReentrantCall",
					"type": "error"
				},
				{
					"anonymous": false,
					"inputs": [
						{
							"indexed": true,
							"internalType": "address",
							"name": "user",
							"type": "address"
						},
						{
							"indexed": false,
							"internalType": "uint256",
							"name": "collateralLiquidated",
							"type": "uint256"
						}
					],
					"name": "LoanDefaulted",
					"type": "event"
				},
				{
					"anonymous": false,
					"inputs": [
						{
							"indexed": true,
							"internalType": "address",
							"name": "user",
							"type": "address"
						},
						{
							"indexed": false,
							"internalType": "uint256",
							"name": "amount",
							"type": "uint256"
						},
						{
							"indexed": false,
							"internalType": "uint256",
							"name": "collateral",
							"type": "uint256"
						}
					],
					"name": "LoanIssued",
					"type": "event"
				},
				{
					"anonymous": false,
					"inputs": [
						{
							"indexed": true,
							"internalType": "address",
							"name": "user",
							"type": "address"
						},
						{
							"indexed": false,
							"internalType": "uint256",
							"name": "amount",
							"type": "uint256"
						},
						{
							"indexed": false,
							"internalType": "uint256",
							"name": "collateralReturned",
							"type": "uint256"
						}
					],
					"name": "LoanRepaid",
					"type": "event"
				},
				{
					"anonymous": false,
					"inputs": [
						{
							"indexed": true,
							"internalType": "address",
							"name": "previousOwner",
							"type": "address"
						},
						{
							"indexed": true,
							"internalType": "address",
							"name": "newOwner",
							"type": "address"
						}
					],
					"name": "OwnershipTransferred",
					"type": "event"
				},
				{
					"inputs": [
						{
							"internalType": "uint256",
							"name": "_amount",
							"type": "uint256"
						}
					],
					"name": "addFundToPool",
					"outputs": [],
					"stateMutability": "nonpayable",
					"type": "function"
				},
				{
					"inputs": [],
					"name": "cUSDToken",
					"outputs": [
						{
							"internalType": "contract ERC20",
							"name": "",
							"type": "address"
						}
					],
					"stateMutability": "view",
					"type": "function"
				},
				{
					"inputs": [
						{
							"internalType": "address",
							"name": "_user",
							"type": "address"
						}
					],
					"name": "checkDefault",
					"outputs": [],
					"stateMutability": "nonpayable",
					"type": "function"
				},
				{
					"inputs": [],
					"name": "collateralManager",
					"outputs": [
						{
							"internalType": "contract CollateralManager",
							"name": "",
							"type": "address"
						}
					],
					"stateMutability": "view",
					"type": "function"
				},
				{
					"inputs": [],
					"name": "collateralToLoanRatio",
					"outputs": [
						{
							"internalType": "uint256",
							"name": "",
							"type": "uint256"
						}
					],
					"stateMutability": "view",
					"type": "function"
				},
				{
					"inputs": [],
					"name": "defaultDuration",
					"outputs": [
						{
							"internalType": "uint256",
							"name": "",
							"type": "uint256"
						}
					],
					"stateMutability": "view",
					"type": "function"
				},
				{
					"inputs": [],
					"name": "fundPool",
					"outputs": [
						{
							"internalType": "uint256",
							"name": "",
							"type": "uint256"
						}
					],
					"stateMutability": "view",
					"type": "function"
				},
				{
					"inputs": [
						{
							"internalType": "address",
							"name": "_user",
							"type": "address"
						}
					],
					"name": "getCollateralBalanceinUSD",
					"outputs": [
						{
							"internalType": "uint256",
							"name": "",
							"type": "uint256"
						}
					],
					"stateMutability": "view",
					"type": "function"
				},
				{
					"inputs": [
						{
							"internalType": "address",
							"name": "_user",
							"type": "address"
						}
					],
					"name": "getLoanBalancewithInterest",
					"outputs": [
						{
							"internalType": "uint256",
							"name": "",
							"type": "uint256"
						}
					],
					"stateMutability": "view",
					"type": "function"
				},
				{
					"inputs": [],
					"name": "getMaxLoanAmount",
					"outputs": [
						{
							"internalType": "uint256",
							"name": "",
							"type": "uint256"
						}
					],
					"stateMutability": "view",
					"type": "function"
				},
				{
					"inputs": [],
					"name": "getNativePrice",
					"outputs": [
						{
							"internalType": "int256",
							"name": "",
							"type": "int256"
						}
					],
					"stateMutability": "view",
					"type": "function"
				},
				{
					"inputs": [],
					"name": "getStablePrice",
					"outputs": [
						{
							"internalType": "int256",
							"name": "",
							"type": "int256"
						}
					],
					"stateMutability": "view",
					"type": "function"
				},
				{
					"inputs": [
						{
							"internalType": "address",
							"name": "_user",
							"type": "address"
						}
					],
					"name": "liquidateCollateral",
					"outputs": [],
					"stateMutability": "nonpayable",
					"type": "function"
				},
				{
					"inputs": [],
					"name": "loanDuration",
					"outputs": [
						{
							"internalType": "uint256",
							"name": "",
							"type": "uint256"
						}
					],
					"stateMutability": "view",
					"type": "function"
				},
				{
					"inputs": [],
					"name": "owner",
					"outputs": [
						{
							"internalType": "address",
							"name": "",
							"type": "address"
						}
					],
					"stateMutability": "view",
					"type": "function"
				},
				{
					"inputs": [],
					"name": "renounceOwnership",
					"outputs": [],
					"stateMutability": "nonpayable",
					"type": "function"
				},
				{
					"inputs": [
						{
							"internalType": "uint256",
							"name": "_repayAmount",
							"type": "uint256"
						}
					],
					"name": "repayLoan",
					"outputs": [],
					"stateMutability": "nonpayable",
					"type": "function"
				},
				{
					"inputs": [
						{
							"internalType": "uint256",
							"name": "_loanAmount",
							"type": "uint256"
						}
					],
					"name": "requestLoan",
					"outputs": [],
					"stateMutability": "nonpayable",
					"type": "function"
				},
				{
					"inputs": [
						{
							"internalType": "address",
							"name": "newOwner",
							"type": "address"
						}
					],
					"name": "transferOwnership",
					"outputs": [],
					"stateMutability": "nonpayable",
					"type": "function"
				},
				{
					"inputs": [
						{
							"internalType": "uint256",
							"name": "_newRatio",
							"type": "uint256"
						}
					],
					"name": "updateCollateralToLoanRatio",
					"outputs": [],
					"stateMutability": "nonpayable",
					"type": "function"
				},
				{
					"inputs": [
						{
							"internalType": "uint256",
							"name": "_newDuration",
							"type": "uint256"
						}
					],
					"name": "updateDefaultDuration",
					"outputs": [],
					"stateMutability": "nonpayable",
					"type": "function"
				},
				{
					"inputs": [
						{
							"internalType": "uint256",
							"name": "_newDuration",
							"type": "uint256"
						}
					],
					"name": "updateLoanDuration",
					"outputs": [],
					"stateMutability": "nonpayable",
					"type": "function"
				},
				{
					"inputs": [
						{
							"internalType": "address",
							"name": "",
							"type": "address"
						}
					],
					"name": "userLoans",
					"outputs": [
						{
							"internalType": "uint256",
							"name": "amount",
							"type": "uint256"
						},
						{
							"internalType": "uint256",
							"name": "interestRate",
							"type": "uint256"
						},
						{
							"internalType": "uint256",
							"name": "startTime",
							"type": "uint256"
						},
						{
							"internalType": "uint256",
							"name": "collateral",
							"type": "uint256"
						},
						{
							"internalType": "bool",
							"name": "isRepaid",
							"type": "bool"
						},
						{
							"internalType": "bool",
							"name": "isDefaulted",
							"type": "bool"
						}
					],
					"stateMutability": "view",
					"type": "function"
				}
			],
			"devdoc": {
				"errors": {
					"OwnableInvalidOwner(address)": [
						{
							"details": "The owner is not a valid owner account. (eg. `address(0)`)"
						}
					],
					"OwnableUnauthorizedAccount(address)": [
						{
							"details": "The caller account is not authorized to perform an operation."
						}
					],
					"ReentrancyGuardReentrantCall()": [
						{
							"details": "Unauthorized reentrant call."
						}
					]
				},
				"kind": "dev",
				"methods": {
					"owner()": {
						"details": "Returns the address of the current owner."
					},
					"renounceOwnership()": {
						"details": "Leaves the contract without owner. It will not be possible to call `onlyOwner` functions. Can only be called by the current owner. NOTE: Renouncing ownership will leave the contract without an owner, thereby disabling any functionality that is only available to the owner."
					},
					"transferOwnership(address)": {
						"details": "Transfers ownership of the contract to a new account (`newOwner`). Can only be called by the current owner."
					}
				},
				"version": 1
			},
			"evm": {
				"assembly": "    /* \"LoanManager.sol\":470:8271  contract LoanManager is ReentrancyGuard, Ownable {... */\n  mstore(0x40, 0x80)\n    /* \"LoanManager.sol\":789:792  150 */\n  0x96\n    /* \"LoanManager.sol\":750:792  uint256 public collateralToLoanRatio = 150 */\n  0x05\n  sstore\n    /* \"LoanManager.sol\":891:898  30 days */\n  0x278d00\n    /* \"LoanManager.sol\":861:898  uint256 public loanDuration = 30 days */\n  0x06\n  sstore\n    /* \"LoanManager.sol\":937:944  15 days */\n  0x13c680\n    /* \"LoanManager.sol\":904:944  uint256 public defaultDuration = 15 days */\n  0x07\n  sstore\n    /* \"LoanManager.sol\":1586:1955  constructor(ERC20 _cusdToken,address _collateralManager) Ownable(msg.sender) {... */\n  callvalue\n  dup1\n  iszero\n  tag_1\n  jumpi\n  0x00\n  dup1\n  revert\ntag_1:\n  pop\n  mload(0x40)\n  sub(codesize, bytecodeSize)\n  dup1\n  bytecodeSize\n  dup4\n  codecopy\n  dup2\n  dup2\n  add\n  0x40\n  mstore\n  dup2\n  add\n  swap1\n  tag_2\n  swap2\n  swap1\n  tag_3\n  jump\t// in\ntag_2:\n    /* \"LoanManager.sol\":1651:1661  msg.sender */\n  caller\n    /* \"@openzeppelin/contracts/utils/ReentrancyGuard.sol\":1713:1714  1 */\n  0x01\n    /* \"@openzeppelin/contracts/utils/ReentrancyGuard.sol\":1917:1924  _status */\n  0x00\n    /* \"@openzeppelin/contracts/utils/ReentrancyGuard.sol\":1917:1938  _status = NOT_ENTERED */\n  dup2\n  swap1\n  sstore\n  pop\n    /* \"@openzeppelin/contracts/access/Ownable.sol\":1297:1298  0 */\n  0x00\n    /* \"@openzeppelin/contracts/access/Ownable.sol\":1273:1299  initialOwner == address(0) */\n  0xffffffffffffffffffffffffffffffffffffffff\n  and\n    /* \"@openzeppelin/contracts/access/Ownable.sol\":1273:1285  initialOwner */\n  dup2\n    /* \"@openzeppelin/contracts/access/Ownable.sol\":1273:1299  initialOwner == address(0) */\n  0xffffffffffffffffffffffffffffffffffffffff\n  and\n  sub\n    /* \"@openzeppelin/contracts/access/Ownable.sol\":1269:1364  if (initialOwner == address(0)) {... */\n  tag_9\n  jumpi\n    /* \"@openzeppelin/contracts/access/Ownable.sol\":1350:1351  0 */\n  0x00\n    /* \"@openzeppelin/contracts/access/Ownable.sol\":1322:1353  OwnableInvalidOwner(address(0)) */\n  mload(0x40)\n  0x1e4fbdf700000000000000000000000000000000000000000000000000000000\n  dup2\n  mstore\n  0x04\n  add\n  tag_10\n  swap2\n  swap1\n  tag_11\n  jump\t// in\ntag_10:\n  mload(0x40)\n  dup1\n  swap2\n  sub\n  swap1\n  revert\n    /* \"@openzeppelin/contracts/access/Ownable.sol\":1269:1364  if (initialOwner == address(0)) {... */\ntag_9:\n    /* \"@openzeppelin/contracts/access/Ownable.sol\":1373:1405  _transferOwnership(initialOwner) */\n  tag_12\n    /* \"@openzeppelin/contracts/access/Ownable.sol\":1392:1404  initialOwner */\n  dup2\n    /* \"@openzeppelin/contracts/access/Ownable.sol\":1373:1391  _transferOwnership */\n  shl(0x20, tag_13)\n    /* \"@openzeppelin/contracts/access/Ownable.sol\":1373:1405  _transferOwnership(initialOwner) */\n  0x20\n  shr\n  jump\t// in\ntag_12:\n    /* \"@openzeppelin/contracts/access/Ownable.sol\":1225:1412  constructor(address initialOwner) {... */\n  pop\n    /* \"LoanManager.sol\":1685:1695  _cusdToken */\n  dup2\n    /* \"LoanManager.sol\":1673:1682  cUSDToken */\n  0x02\n  0x00\n    /* \"LoanManager.sol\":1673:1695  cUSDToken = _cusdToken */\n  0x0100\n  exp\n  dup2\n  sload\n  dup2\n  0xffffffffffffffffffffffffffffffffffffffff\n  mul\n  not\n  and\n  swap1\n  dup4\n  0xffffffffffffffffffffffffffffffffffffffff\n  and\n  mul\n  or\n  swap1\n  sstore\n  pop\n    /* \"LoanManager.sol\":1743:1761  _collateralManager */\n  dup1\n    /* \"LoanManager.sol\":1705:1722  collateralManager */\n  0x03\n  0x00\n    /* \"LoanManager.sol\":1705:1762  collateralManager = CollateralManager(_collateralManager) */\n  0x0100\n  exp\n  dup2\n  sload\n  dup2\n  0xffffffffffffffffffffffffffffffffffffffff\n  mul\n  not\n  and\n  swap1\n  dup4\n  0xffffffffffffffffffffffffffffffffffffffff\n  and\n  mul\n  or\n  swap1\n  sstore\n  pop\n    /* \"LoanManager.sol\":1812:1854  0x3c65e28D357a37589e1C7C86044a9f44dDC17134 */\n  0x3c65e28d357a37589e1c7c86044a9f44ddc17134\n    /* \"LoanManager.sol\":1772:1787  nativePriceFeed */\n  0x08\n  0x00\n    /* \"LoanManager.sol\":1772:1855  nativePriceFeed = AggregatorV3Interface(0x3c65e28D357a37589e1C7C86044a9f44dDC17134) */\n  0x0100\n  exp\n  dup2\n  sload\n  dup2\n  0xffffffffffffffffffffffffffffffffffffffff\n  mul\n  not\n  and\n  swap1\n  dup4\n  0xffffffffffffffffffffffffffffffffffffffff\n  and\n  mul\n  or\n  swap1\n  sstore\n  pop\n    /* \"LoanManager.sol\":1905:1947  0x3ec8593F930EA45ea58c968260e6e9FF53FC934f */\n  0x3ec8593f930ea45ea58c968260e6e9ff53fc934f\n    /* \"LoanManager.sol\":1865:1880  stablePriceFeed */\n  0x09\n  0x00\n    /* \"LoanManager.sol\":1865:1948  stablePriceFeed = AggregatorV3Interface(0x3ec8593F930EA45ea58c968260e6e9FF53FC934f) */\n  0x0100\n  exp\n  dup2\n  sload\n  dup2\n  0xffffffffffffffffffffffffffffffffffffffff\n  mul\n  not\n  and\n  swap1\n  dup4\n  0xffffffffffffffffffffffffffffffffffffffff\n  and\n  mul\n  or\n  swap1\n  sstore\n  pop\n    /* \"LoanManager.sol\":1586:1955  constructor(ERC20 _cusdToken,address _collateralManager) Ownable(msg.sender) {... */\n  pop\n  pop\n    /* \"LoanManager.sol\":470:8271  contract LoanManager is ReentrancyGuard, Ownable {... */\n  jump(tag_15)\n    /* \"@openzeppelin/contracts/access/Ownable.sol\":2912:3099  function _transferOwnership(address newOwner) internal virtual {... */\ntag_13:\n    /* \"@openzeppelin/contracts/access/Ownable.sol\":2985:3001  address oldOwner */\n  0x00\n    /* \"@openzeppelin/contracts/access/Ownable.sol\":3004:3010  _owner */\n  0x01\n  0x00\n  swap1\n  sload\n  swap1\n  0x0100\n  exp\n  swap1\n  div\n  0xffffffffffffffffffffffffffffffffffffffff\n  and\n    /* \"@openzeppelin/contracts/access/Ownable.sol\":2985:3010  address oldOwner = _owner */\n  swap1\n  pop\n    /* \"@openzeppelin/contracts/access/Ownable.sol\":3029:3037  newOwner */\n  dup2\n    /* \"@openzeppelin/contracts/access/Ownable.sol\":3020:3026  _owner */\n  0x01\n  0x00\n    /* \"@openzeppelin/contracts/access/Ownable.sol\":3020:3037  _owner = newOwner */\n  0x0100\n  exp\n  dup2\n  sload\n  dup2\n  0xffffffffffffffffffffffffffffffffffffffff\n  mul\n  not\n  and\n  swap1\n  dup4\n  0xffffffffffffffffffffffffffffffffffffffff\n  and\n  mul\n  or\n  swap1\n  sstore\n  pop\n    /* \"@openzeppelin/contracts/access/Ownable.sol\":3083:3091  newOwner */\n  dup2\n    /* \"@openzeppelin/contracts/access/Ownable.sol\":3052:3092  OwnershipTransferred(oldOwner, newOwner) */\n  0xffffffffffffffffffffffffffffffffffffffff\n  and\n    /* \"@openzeppelin/contracts/access/Ownable.sol\":3073:3081  oldOwner */\n  dup2\n    /* \"@openzeppelin/contracts/access/Ownable.sol\":3052:3092  OwnershipTransferred(oldOwner, newOwner) */\n  0xffffffffffffffffffffffffffffffffffffffff\n  and\n  0x8be0079c531659141344cd1fd0a4f28419497f9722a3daafe3b4186f6b6457e0\n  mload(0x40)\n  mload(0x40)\n  dup1\n  swap2\n  sub\n  swap1\n  log3\n    /* \"@openzeppelin/contracts/access/Ownable.sol\":2975:3099  {... */\n  pop\n    /* \"@openzeppelin/contracts/access/Ownable.sol\":2912:3099  function _transferOwnership(address newOwner) internal virtual {... */\n  pop\n  jump\t// out\n    /* \"#utility.yul\":88:205   */\ntag_18:\n    /* \"#utility.yul\":197:198   */\n  0x00\n    /* \"#utility.yul\":194:195   */\n  dup1\n    /* \"#utility.yul\":187:199   */\n  revert\n    /* \"#utility.yul\":334:460   */\ntag_20:\n    /* \"#utility.yul\":371:378   */\n  0x00\n    /* \"#utility.yul\":411:453   */\n  0xffffffffffffffffffffffffffffffffffffffff\n    /* \"#utility.yul\":404:409   */\n  dup3\n    /* \"#utility.yul\":400:454   */\n  and\n    /* \"#utility.yul\":389:454   */\n  swap1\n  pop\n    /* \"#utility.yul\":334:460   */\n  swap2\n  swap1\n  pop\n  jump\t// out\n    /* \"#utility.yul\":466:562   */\ntag_21:\n    /* \"#utility.yul\":503:510   */\n  0x00\n    /* \"#utility.yul\":532:556   */\n  tag_34\n    /* \"#utility.yul\":550:555   */\n  dup3\n    /* \"#utility.yul\":532:556   */\n  tag_20\n  jump\t// in\ntag_34:\n    /* \"#utility.yul\":521:556   */\n  swap1\n  pop\n    /* \"#utility.yul\":466:562   */\n  swap2\n  swap1\n  pop\n  jump\t// out\n    /* \"#utility.yul\":568:677   */\ntag_22:\n    /* \"#utility.yul\":618:625   */\n  0x00\n    /* \"#utility.yul\":647:671   */\n  tag_36\n    /* \"#utility.yul\":665:670   */\n  dup3\n    /* \"#utility.yul\":647:671   */\n  tag_21\n  jump\t// in\ntag_36:\n    /* \"#utility.yul\":636:671   */\n  swap1\n  pop\n    /* \"#utility.yul\":568:677   */\n  swap2\n  swap1\n  pop\n  jump\t// out\n    /* \"#utility.yul\":683:831   */\ntag_23:\n    /* \"#utility.yul\":769:806   */\n  tag_38\n    /* \"#utility.yul\":800:805   */\n  dup2\n    /* \"#utility.yul\":769:806   */\n  tag_22\n  jump\t// in\ntag_38:\n    /* \"#utility.yul\":762:767   */\n  dup2\n    /* \"#utility.yul\":759:807   */\n  eq\n    /* \"#utility.yul\":749:825   */\n  tag_39\n  jumpi\n    /* \"#utility.yul\":821:822   */\n  0x00\n    /* \"#utility.yul\":818:819   */\n  dup1\n    /* \"#utility.yul\":811:823   */\n  revert\n    /* \"#utility.yul\":749:825   */\ntag_39:\n    /* \"#utility.yul\":683:831   */\n  pop\n  jump\t// out\n    /* \"#utility.yul\":837:1006   */\ntag_24:\n    /* \"#utility.yul\":907:912   */\n  0x00\n    /* \"#utility.yul\":938:944   */\n  dup2\n    /* \"#utility.yul\":932:945   */\n  mload\n    /* \"#utility.yul\":923:945   */\n  swap1\n  pop\n    /* \"#utility.yul\":954:1000   */\n  tag_41\n    /* \"#utility.yul\":994:999   */\n  dup2\n    /* \"#utility.yul\":954:1000   */\n  tag_23\n  jump\t// in\ntag_41:\n    /* \"#utility.yul\":837:1006   */\n  swap3\n  swap2\n  pop\n  pop\n  jump\t// out\n    /* \"#utility.yul\":1012:1134   */\ntag_25:\n    /* \"#utility.yul\":1085:1109   */\n  tag_43\n    /* \"#utility.yul\":1103:1108   */\n  dup2\n    /* \"#utility.yul\":1085:1109   */\n  tag_21\n  jump\t// in\ntag_43:\n    /* \"#utility.yul\":1078:1083   */\n  dup2\n    /* \"#utility.yul\":1075:1110   */\n  eq\n    /* \"#utility.yul\":1065:1128   */\n  tag_44\n  jumpi\n    /* \"#utility.yul\":1124:1125   */\n  0x00\n    /* \"#utility.yul\":1121:1122   */\n  dup1\n    /* \"#utility.yul\":1114:1126   */\n  revert\n    /* \"#utility.yul\":1065:1128   */\ntag_44:\n    /* \"#utility.yul\":1012:1134   */\n  pop\n  jump\t// out\n    /* \"#utility.yul\":1140:1283   */\ntag_26:\n    /* \"#utility.yul\":1197:1202   */\n  0x00\n    /* \"#utility.yul\":1228:1234   */\n  dup2\n    /* \"#utility.yul\":1222:1235   */\n  mload\n    /* \"#utility.yul\":1213:1235   */\n  swap1\n  pop\n    /* \"#utility.yul\":1244:1277   */\n  tag_46\n    /* \"#utility.yul\":1271:1276   */\n  dup2\n    /* \"#utility.yul\":1244:1277   */\n  tag_25\n  jump\t// in\ntag_46:\n    /* \"#utility.yul\":1140:1283   */\n  swap3\n  swap2\n  pop\n  pop\n  jump\t// out\n    /* \"#utility.yul\":1289:1822   */\ntag_3:\n    /* \"#utility.yul\":1381:1387   */\n  0x00\n    /* \"#utility.yul\":1389:1395   */\n  dup1\n    /* \"#utility.yul\":1438:1440   */\n  0x40\n    /* \"#utility.yul\":1426:1435   */\n  dup4\n    /* \"#utility.yul\":1417:1424   */\n  dup6\n    /* \"#utility.yul\":1413:1436   */\n  sub\n    /* \"#utility.yul\":1409:1441   */\n  slt\n    /* \"#utility.yul\":1406:1525   */\n  iszero\n  tag_48\n  jumpi\n    /* \"#utility.yul\":1444:1523   */\n  tag_49\n  tag_18\n  jump\t// in\ntag_49:\n    /* \"#utility.yul\":1406:1525   */\ntag_48:\n    /* \"#utility.yul\":1564:1565   */\n  0x00\n    /* \"#utility.yul\":1589:1666   */\n  tag_50\n    /* \"#utility.yul\":1658:1665   */\n  dup6\n    /* \"#utility.yul\":1649:1655   */\n  dup3\n    /* \"#utility.yul\":1638:1647   */\n  dup7\n    /* \"#utility.yul\":1634:1656   */\n  add\n    /* \"#utility.yul\":1589:1666   */\n  tag_24\n  jump\t// in\ntag_50:\n    /* \"#utility.yul\":1579:1666   */\n  swap3\n  pop\n    /* \"#utility.yul\":1535:1676   */\n  pop\n    /* \"#utility.yul\":1715:1717   */\n  0x20\n    /* \"#utility.yul\":1741:1805   */\n  tag_51\n    /* \"#utility.yul\":1797:1804   */\n  dup6\n    /* \"#utility.yul\":1788:1794   */\n  dup3\n    /* \"#utility.yul\":1777:1786   */\n  dup7\n    /* \"#utility.yul\":1773:1795   */\n  add\n    /* \"#utility.yul\":1741:1805   */\n  tag_26\n  jump\t// in\ntag_51:\n    /* \"#utility.yul\":1731:1805   */\n  swap2\n  pop\n    /* \"#utility.yul\":1686:1815   */\n  pop\n    /* \"#utility.yul\":1289:1822   */\n  swap3\n  pop\n  swap3\n  swap1\n  pop\n  jump\t// out\n    /* \"#utility.yul\":1828:1946   */\ntag_27:\n    /* \"#utility.yul\":1915:1939   */\n  tag_53\n    /* \"#utility.yul\":1933:1938   */\n  dup2\n    /* \"#utility.yul\":1915:1939   */\n  tag_21\n  jump\t// in\ntag_53:\n    /* \"#utility.yul\":1910:1913   */\n  dup3\n    /* \"#utility.yul\":1903:1940   */\n  mstore\n    /* \"#utility.yul\":1828:1946   */\n  pop\n  pop\n  jump\t// out\n    /* \"#utility.yul\":1952:2174   */\ntag_11:\n    /* \"#utility.yul\":2045:2049   */\n  0x00\n    /* \"#utility.yul\":2083:2085   */\n  0x20\n    /* \"#utility.yul\":2072:2081   */\n  dup3\n    /* \"#utility.yul\":2068:2086   */\n  add\n    /* \"#utility.yul\":2060:2086   */\n  swap1\n  pop\n    /* \"#utility.yul\":2096:2167   */\n  tag_55\n    /* \"#utility.yul\":2164:2165   */\n  0x00\n    /* \"#utility.yul\":2153:2162   */\n  dup4\n    /* \"#utility.yul\":2149:2166   */\n  add\n    /* \"#utility.yul\":2140:2146   */\n  dup5\n    /* \"#utility.yul\":2096:2167   */\n  tag_27\n  jump\t// in\ntag_55:\n    /* \"#utility.yul\":1952:2174   */\n  swap3\n  swap2\n  pop\n  pop\n  jump\t// out\n    /* \"LoanManager.sol\":470:8271  contract LoanManager is ReentrancyGuard, Ownable {... */\ntag_15:\n  dataSize(sub_0)\n  dup1\n  dataOffset(sub_0)\n  0x00\n  codecopy\n  0x00\n  return\nstop\n\nsub_0: assembly {\n        /* \"LoanManager.sol\":470:8271  contract LoanManager is ReentrancyGuard, Ownable {... */\n      mstore(0x40, 0x80)\n      callvalue\n      dup1\n      iszero\n      tag_1\n      jumpi\n      0x00\n      dup1\n      revert\n    tag_1:\n      pop\n      jumpi(tag_2, lt(calldatasize, 0x04))\n      shr(0xe0, calldataload(0x00))\n      dup1\n      0x8d5d3429\n      gt\n      tag_26\n      jumpi\n      dup1\n      0xc000bc60\n      gt\n      tag_27\n      jumpi\n      dup1\n      0xc000bc60\n      eq\n      tag_20\n      jumpi\n      dup1\n      0xe9e190a3\n      eq\n      tag_21\n      jumpi\n      dup1\n      0xebbb7de9\n      eq\n      tag_22\n      jumpi\n      dup1\n      0xec9e0393\n      eq\n      tag_23\n      jumpi\n      dup1\n      0xf2fde38b\n      eq\n      tag_24\n      jumpi\n      dup1\n      0xf5521bf1\n      eq\n      tag_25\n      jumpi\n      jump(tag_2)\n    tag_27:\n      dup1\n      0x8d5d3429\n      eq\n      tag_14\n      jumpi\n      dup1\n      0x8da5cb5b\n      eq\n      tag_15\n      jumpi\n      dup1\n      0x97ed71eb\n      eq\n      tag_16\n      jumpi\n      dup1\n      0xab7b1c89\n      eq\n      tag_17\n      jumpi\n      dup1\n      0xade8d29e\n      eq\n      tag_18\n      jumpi\n      dup1\n      0xba43a922\n      eq\n      tag_19\n      jumpi\n      jump(tag_2)\n    tag_26:\n      dup1\n      0x2af7e2ea\n      gt\n      tag_28\n      jumpi\n      dup1\n      0x2af7e2ea\n      eq\n      tag_8\n      jumpi\n      dup1\n      0x650dfa18\n      eq\n      tag_9\n      jumpi\n      dup1\n      0x656f9ba4\n      eq\n      tag_10\n      jumpi\n      dup1\n      0x688aef48\n      eq\n      tag_11\n      jumpi\n      dup1\n      0x70f37d27\n      eq\n      tag_12\n      jumpi\n      dup1\n      0x715018a6\n      eq\n      tag_13\n      jumpi\n      jump(tag_2)\n    tag_28:\n      dup1\n      0x09b8aafd\n      eq\n      tag_3\n      jumpi\n      dup1\n      0x0ea86ad8\n      eq\n      tag_4\n      jumpi\n      dup1\n      0x17430c9e\n      eq\n      tag_5\n      jumpi\n      dup1\n      0x1fea5a6b\n      eq\n      tag_6\n      jumpi\n      dup1\n      0x23be345c\n      eq\n      tag_7\n      jumpi\n    tag_2:\n      0x00\n      dup1\n      revert\n        /* \"LoanManager.sol\":7780:8264  function getCollateralBalanceinUSD(address _user) external view returns (uint256) {... */\n    tag_3:\n      tag_29\n      0x04\n      dup1\n      calldatasize\n      sub\n      dup2\n      add\n      swap1\n      tag_30\n      swap2\n      swap1\n      tag_31\n      jump\t// in\n    tag_30:\n      tag_32\n      jump\t// in\n    tag_29:\n      mload(0x40)\n      tag_33\n      swap2\n      swap1\n      tag_34\n      jump\t// in\n    tag_33:\n      mload(0x40)\n      dup1\n      swap2\n      sub\n      swap1\n      return\n        /* \"LoanManager.sol\":527:549  ERC20 public cUSDToken */\n    tag_4:\n      tag_35\n      tag_36\n      jump\t// in\n    tag_35:\n      mload(0x40)\n      tag_37\n      swap2\n      swap1\n      tag_38\n      jump\t// in\n    tag_37:\n      mload(0x40)\n      dup1\n      swap2\n      sub\n      swap1\n      return\n        /* \"LoanManager.sol\":2027:2209  function getNativePrice() public view returns (int) {... */\n    tag_5:\n      tag_39\n      tag_40\n      jump\t// in\n    tag_39:\n      mload(0x40)\n      tag_41\n      swap2\n      swap1\n      tag_42\n      jump\t// in\n    tag_41:\n      mload(0x40)\n      dup1\n      swap2\n      sub\n      swap1\n      return\n        /* \"LoanManager.sol\":6282:6701  function liquidateCollateral(address _user) external nonReentrant {... */\n    tag_6:\n      tag_43\n      0x04\n      dup1\n      calldatasize\n      sub\n      dup2\n      add\n      swap1\n      tag_44\n      swap2\n      swap1\n      tag_31\n      jump\t// in\n    tag_44:\n      tag_45\n      jump\t// in\n    tag_43:\n      stop\n        /* \"LoanManager.sol\":589:631  CollateralManager public collateralManager */\n    tag_7:\n      tag_46\n      tag_47\n      jump\t// in\n    tag_46:\n      mload(0x40)\n      tag_48\n      swap2\n      swap1\n      tag_49\n      jump\t// in\n    tag_48:\n      mload(0x40)\n      dup1\n      swap2\n      sub\n      swap1\n      return\n        /* \"LoanManager.sol\":904:944  uint256 public defaultDuration = 15 days */\n    tag_8:\n      tag_50\n      tag_51\n      jump\t// in\n    tag_50:\n      mload(0x40)\n      tag_52\n      swap2\n      swap1\n      tag_34\n      jump\t// in\n    tag_52:\n      mload(0x40)\n      dup1\n      swap2\n      sub\n      swap1\n      return\n        /* \"LoanManager.sol\":6788:6968  function updateCollateralToLoanRatio(uint256 _newRatio) external {... */\n    tag_9:\n      tag_53\n      0x04\n      dup1\n      calldatasize\n      sub\n      dup2\n      add\n      swap1\n      tag_54\n      swap2\n      swap1\n      tag_55\n      jump\t// in\n    tag_54:\n      tag_56\n      jump\t// in\n    tag_53:\n      stop\n        /* \"LoanManager.sol\":4032:4498  function getMaxLoanAmount() external view returns (uint256) {... */\n    tag_10:\n      tag_57\n      tag_58\n      jump\t// in\n    tag_57:\n      mload(0x40)\n      tag_59\n      swap2\n      swap1\n      tag_34\n      jump\t// in\n    tag_59:\n      mload(0x40)\n      dup1\n      swap2\n      sub\n      swap1\n      return\n        /* \"LoanManager.sol\":750:792  uint256 public collateralToLoanRatio = 150 */\n    tag_11:\n      tag_60\n      tag_61\n      jump\t// in\n    tag_60:\n      mload(0x40)\n      tag_62\n      swap2\n      swap1\n      tag_34\n      jump\t// in\n    tag_62:\n      mload(0x40)\n      dup1\n      swap2\n      sub\n      swap1\n      return\n        /* \"LoanManager.sol\":685:708  uint256 public fundPool */\n    tag_12:\n      tag_63\n      tag_64\n      jump\t// in\n    tag_63:\n      mload(0x40)\n      tag_65\n      swap2\n      swap1\n      tag_34\n      jump\t// in\n    tag_65:\n      mload(0x40)\n      dup1\n      swap2\n      sub\n      swap1\n      return\n        /* \"@openzeppelin/contracts/access/Ownable.sol\":2293:2394  function renounceOwnership() public virtual onlyOwner {... */\n    tag_13:\n      tag_66\n      tag_67\n      jump\t// in\n    tag_66:\n      stop\n        /* \"LoanManager.sol\":2521:3974  function requestLoan(uint256 _loanAmount) external nonReentrant {... */\n    tag_14:\n      tag_68\n      0x04\n      dup1\n      calldatasize\n      sub\n      dup2\n      add\n      swap1\n      tag_69\n      swap2\n      swap1\n      tag_55\n      jump\t// in\n    tag_69:\n      tag_70\n      jump\t// in\n    tag_68:\n      stop\n        /* \"@openzeppelin/contracts/access/Ownable.sol\":1638:1723  function owner() public view virtual returns (address) {... */\n    tag_15:\n      tag_71\n      tag_72\n      jump\t// in\n    tag_71:\n      mload(0x40)\n      tag_73\n      swap2\n      swap1\n      tag_74\n      jump\t// in\n    tag_73:\n      mload(0x40)\n      dup1\n      swap2\n      sub\n      swap1\n      return\n        /* \"LoanManager.sol\":7354:7563  function addFundToPool(uint256 _amount) external onlyOwner {... */\n    tag_16:\n      tag_75\n      0x04\n      dup1\n      calldatasize\n      sub\n      dup2\n      add\n      swap1\n      tag_76\n      swap2\n      swap1\n      tag_55\n      jump\t// in\n    tag_76:\n      tag_77\n      jump\t// in\n    tag_75:\n      stop\n        /* \"LoanManager.sol\":4549:5494  function repayLoan(uint256 _repayAmount) external nonReentrant {... */\n    tag_17:\n      tag_78\n      0x04\n      dup1\n      calldatasize\n      sub\n      dup2\n      add\n      swap1\n      tag_79\n      swap2\n      swap1\n      tag_55\n      jump\t// in\n    tag_79:\n      tag_80\n      jump\t// in\n    tag_78:\n      stop\n        /* \"LoanManager.sol\":7569:7774  function getLoanBalancewithInterest(address _user) external view returns (uint256) {... */\n    tag_18:\n      tag_81\n      0x04\n      dup1\n      calldatasize\n      sub\n      dup2\n      add\n      swap1\n      tag_82\n      swap2\n      swap1\n      tag_31\n      jump\t// in\n    tag_82:\n      tag_83\n      jump\t// in\n    tag_81:\n      mload(0x40)\n      tag_84\n      swap2\n      swap1\n      tag_34\n      jump\t// in\n    tag_84:\n      mload(0x40)\n      dup1\n      swap2\n      sub\n      swap1\n      return\n        /* \"LoanManager.sol\":6974:7155  function updateLoanDuration(uint256 _newDuration) external onlyOwner {... */\n    tag_19:\n      tag_85\n      0x04\n      dup1\n      calldatasize\n      sub\n      dup2\n      add\n      swap1\n      tag_86\n      swap2\n      swap1\n      tag_55\n      jump\t// in\n    tag_86:\n      tag_87\n      jump\t// in\n    tag_85:\n      stop\n        /* \"LoanManager.sol\":7161:7348  function updateDefaultDuration(uint256 _newDuration) external onlyOwner {... */\n    tag_20:\n      tag_88\n      0x04\n      dup1\n      calldatasize\n      sub\n      dup2\n      add\n      swap1\n      tag_89\n      swap2\n      swap1\n      tag_55\n      jump\t// in\n    tag_89:\n      tag_90\n      jump\t// in\n    tag_88:\n      stop\n        /* \"LoanManager.sol\":1292:1333  mapping(address => Loan) public userLoans */\n    tag_21:\n      tag_91\n      0x04\n      dup1\n      calldatasize\n      sub\n      dup2\n      add\n      swap1\n      tag_92\n      swap2\n      swap1\n      tag_31\n      jump\t// in\n    tag_92:\n      tag_93\n      jump\t// in\n    tag_91:\n      mload(0x40)\n      tag_94\n      swap7\n      swap6\n      swap5\n      swap4\n      swap3\n      swap2\n      swap1\n      tag_95\n      jump\t// in\n    tag_94:\n      mload(0x40)\n      dup1\n      swap2\n      sub\n      swap1\n      return\n        /* \"LoanManager.sol\":5562:6224  function checkDefault(address _user) external nonReentrant {... */\n    tag_22:\n      tag_96\n      0x04\n      dup1\n      calldatasize\n      sub\n      dup2\n      add\n      swap1\n      tag_97\n      swap2\n      swap1\n      tag_31\n      jump\t// in\n    tag_97:\n      tag_98\n      jump\t// in\n    tag_96:\n      stop\n        /* \"LoanManager.sol\":2281:2462  function getStablePrice() public view returns (int) {... */\n    tag_23:\n      tag_99\n      tag_100\n      jump\t// in\n    tag_99:\n      mload(0x40)\n      tag_101\n      swap2\n      swap1\n      tag_42\n      jump\t// in\n    tag_101:\n      mload(0x40)\n      dup1\n      swap2\n      sub\n      swap1\n      return\n        /* \"@openzeppelin/contracts/access/Ownable.sol\":2543:2758  function transferOwnership(address newOwner) public virtual onlyOwner {... */\n    tag_24:\n      tag_102\n      0x04\n      dup1\n      calldatasize\n      sub\n      dup2\n      add\n      swap1\n      tag_103\n      swap2\n      swap1\n      tag_31\n      jump\t// in\n    tag_103:\n      tag_104\n      jump\t// in\n    tag_102:\n      stop\n        /* \"LoanManager.sol\":861:898  uint256 public loanDuration = 30 days */\n    tag_25:\n      tag_105\n      tag_106\n      jump\t// in\n    tag_105:\n      mload(0x40)\n      tag_107\n      swap2\n      swap1\n      tag_34\n      jump\t// in\n    tag_107:\n      mload(0x40)\n      dup1\n      swap2\n      sub\n      swap1\n      return\n        /* \"LoanManager.sol\":7780:8264  function getCollateralBalanceinUSD(address _user) external view returns (uint256) {... */\n    tag_32:\n        /* \"LoanManager.sol\":7853:7860  uint256 */\n      0x00\n        /* \"LoanManager.sol\":7873:7894  uint256 userColNative */\n      dup1\n        /* \"LoanManager.sol\":7896:7917  uint256 userColStable */\n      0x00\n        /* \"LoanManager.sol\":7921:7938  collateralManager */\n      0x03\n      0x00\n      swap1\n      sload\n      swap1\n      0x0100\n      exp\n      swap1\n      div\n      0xffffffffffffffffffffffffffffffffffffffff\n      and\n        /* \"LoanManager.sol\":7921:7959  collateralManager.getCollateralBalance */\n      0xffffffffffffffffffffffffffffffffffffffff\n      and\n      0x2703ee85\n        /* \"LoanManager.sol\":7960:7965  _user */\n      dup6\n        /* \"LoanManager.sol\":7921:7966  collateralManager.getCollateralBalance(_user) */\n      mload(0x40)\n      dup3\n      0xffffffff\n      and\n      0xe0\n      shl\n      dup2\n      mstore\n      0x04\n      add\n      tag_109\n      swap2\n      swap1\n      tag_74\n      jump\t// in\n    tag_109:\n      0x40\n      dup1\n      mload\n      dup1\n      dup4\n      sub\n      dup2\n      dup7\n      gas\n      staticcall\n      iszero\n      dup1\n      iszero\n      tag_111\n      jumpi\n      returndatasize\n      0x00\n      dup1\n      returndatacopy\n      revert(0x00, returndatasize)\n    tag_111:\n      pop\n      pop\n      pop\n      pop\n      mload(0x40)\n      returndatasize\n      not(0x1f)\n      0x1f\n      dup3\n      add\n      and\n      dup3\n      add\n      dup1\n      0x40\n      mstore\n      pop\n      dup2\n      add\n      swap1\n      tag_112\n      swap2\n      swap1\n      tag_113\n      jump\t// in\n    tag_112:\n        /* \"LoanManager.sol\":7872:7966  (uint256 userColNative, uint256 userColStable) = collateralManager.getCollateralBalance(_user) */\n      swap2\n      pop\n      swap2\n      pop\n        /* \"LoanManager.sol\":7976:8000  uint256 nativePriceInUSD */\n      0x00\n        /* \"LoanManager.sol\":8011:8027  getNativePrice() */\n      tag_114\n        /* \"LoanManager.sol\":8011:8025  getNativePrice */\n      tag_40\n        /* \"LoanManager.sol\":8011:8027  getNativePrice() */\n      jump\t// in\n    tag_114:\n        /* \"LoanManager.sol\":7976:8028  uint256 nativePriceInUSD = uint256(getNativePrice()) */\n      swap1\n      pop\n        /* \"LoanManager.sol\":8038:8062  uint256 stablePriceInUSD */\n      0x00\n        /* \"LoanManager.sol\":8073:8089  getStablePrice() */\n      tag_115\n        /* \"LoanManager.sol\":8073:8087  getStablePrice */\n      tag_100\n        /* \"LoanManager.sol\":8073:8089  getStablePrice() */\n      jump\t// in\n    tag_115:\n        /* \"LoanManager.sol\":8038:8090  uint256 stablePriceInUSD = uint256(getStablePrice()) */\n      swap1\n      pop\n        /* \"LoanManager.sol\":8100:8128  uint256 totalCollateralInUSD */\n      0x00\n        /* \"LoanManager.sol\":8215:8219  1e18 */\n      0x0de0b6b3a7640000\n        /* \"LoanManager.sol\":8195:8211  stablePriceInUSD */\n      dup3\n        /* \"LoanManager.sol\":8179:8192  userColStable */\n      dup6\n        /* \"LoanManager.sol\":8179:8211  userColStable * stablePriceInUSD */\n      tag_116\n      swap2\n      swap1\n      tag_117\n      jump\t// in\n    tag_116:\n        /* \"LoanManager.sol\":8178:8219  (userColStable * stablePriceInUSD) / 1e18 */\n      tag_118\n      swap2\n      swap1\n      tag_119\n      jump\t// in\n    tag_118:\n        /* \"LoanManager.sol\":8169:8173  1e18 */\n      0x0de0b6b3a7640000\n        /* \"LoanManager.sol\":8149:8165  nativePriceInUSD */\n      dup5\n        /* \"LoanManager.sol\":8133:8146  userColNative */\n      dup8\n        /* \"LoanManager.sol\":8133:8165  userColNative * nativePriceInUSD */\n      tag_120\n      swap2\n      swap1\n      tag_117\n      jump\t// in\n    tag_120:\n        /* \"LoanManager.sol\":8132:8173  (userColNative * nativePriceInUSD) / 1e18 */\n      tag_121\n      swap2\n      swap1\n      tag_119\n      jump\t// in\n    tag_121:\n        /* \"LoanManager.sol\":8131:8220  ((userColNative * nativePriceInUSD) / 1e18) + ((userColStable * stablePriceInUSD) / 1e18) */\n      tag_122\n      swap2\n      swap1\n      tag_123\n      jump\t// in\n    tag_122:\n        /* \"LoanManager.sol\":8100:8220  uint256 totalCollateralInUSD = ((userColNative * nativePriceInUSD) / 1e18) + ((userColStable * stablePriceInUSD) / 1e18) */\n      swap1\n      pop\n        /* \"LoanManager.sol\":8237:8257  totalCollateralInUSD */\n      dup1\n        /* \"LoanManager.sol\":8230:8257  return totalCollateralInUSD */\n      swap6\n      pop\n      pop\n      pop\n      pop\n      pop\n      pop\n        /* \"LoanManager.sol\":7780:8264  function getCollateralBalanceinUSD(address _user) external view returns (uint256) {... */\n      swap2\n      swap1\n      pop\n      jump\t// out\n        /* \"LoanManager.sol\":527:549  ERC20 public cUSDToken */\n    tag_36:\n      0x02\n      0x00\n      swap1\n      sload\n      swap1\n      0x0100\n      exp\n      swap1\n      div\n      0xffffffffffffffffffffffffffffffffffffffff\n      and\n      dup2\n      jump\t// out\n        /* \"LoanManager.sol\":2027:2209  function getNativePrice() public view returns (int) {... */\n    tag_40:\n        /* \"LoanManager.sol\":2074:2077  int */\n      0x00\n        /* \"LoanManager.sol\":2092:2101  int price */\n      dup1\n        /* \"LoanManager.sol\":2108:2123  nativePriceFeed */\n      0x08\n      0x00\n      swap1\n      sload\n      swap1\n      0x0100\n      exp\n      swap1\n      div\n      0xffffffffffffffffffffffffffffffffffffffff\n      and\n        /* \"LoanManager.sol\":2108:2139  nativePriceFeed.latestRoundData */\n      0xffffffffffffffffffffffffffffffffffffffff\n      and\n      0xfeaf968c\n        /* \"LoanManager.sol\":2108:2141  nativePriceFeed.latestRoundData() */\n      mload(0x40)\n      dup2\n      0xffffffff\n      and\n      0xe0\n      shl\n      dup2\n      mstore\n      0x04\n      add\n      0xa0\n      mload(0x40)\n      dup1\n      dup4\n      sub\n      dup2\n      dup7\n      gas\n      staticcall\n      iszero\n      dup1\n      iszero\n      tag_126\n      jumpi\n      returndatasize\n      0x00\n      dup1\n      returndatacopy\n      revert(0x00, returndatasize)\n    tag_126:\n      pop\n      pop\n      pop\n      pop\n      mload(0x40)\n      returndatasize\n      not(0x1f)\n      0x1f\n      dup3\n      add\n      and\n      dup3\n      add\n      dup1\n      0x40\n      mstore\n      pop\n      dup2\n      add\n      swap1\n      tag_127\n      swap2\n      swap1\n      tag_128\n      jump\t// in\n    tag_127:\n        /* \"LoanManager.sol\":2089:2141  (, int price,,,) = nativePriceFeed.latestRoundData() */\n      pop\n      pop\n      pop\n      swap2\n      pop\n      pop\n        /* \"LoanManager.sol\":2158:2163  price */\n      dup1\n        /* \"LoanManager.sol\":2151:2163  return price */\n      swap2\n      pop\n      pop\n        /* \"LoanManager.sol\":2027:2209  function getNativePrice() public view returns (int) {... */\n      swap1\n      jump\t// out\n        /* \"LoanManager.sol\":6282:6701  function liquidateCollateral(address _user) external nonReentrant {... */\n    tag_45:\n        /* \"@openzeppelin/contracts/utils/ReentrancyGuard.sol\":2356:2377  _nonReentrantBefore() */\n      tag_130\n        /* \"@openzeppelin/contracts/utils/ReentrancyGuard.sol\":2356:2375  _nonReentrantBefore */\n      tag_131\n        /* \"@openzeppelin/contracts/utils/ReentrancyGuard.sol\":2356:2377  _nonReentrantBefore() */\n      jump\t// in\n    tag_130:\n        /* \"LoanManager.sol\":6358:6375  Loan storage loan */\n      0x00\n        /* \"LoanManager.sol\":6378:6387  userLoans */\n      0x0a\n        /* \"LoanManager.sol\":6378:6394  userLoans[_user] */\n      0x00\n        /* \"LoanManager.sol\":6388:6393  _user */\n      dup4\n        /* \"LoanManager.sol\":6378:6394  userLoans[_user] */\n      0xffffffffffffffffffffffffffffffffffffffff\n      and\n      0xffffffffffffffffffffffffffffffffffffffff\n      and\n      dup2\n      mstore\n      0x20\n      add\n      swap1\n      dup2\n      mstore\n      0x20\n      add\n      0x00\n      keccak256\n        /* \"LoanManager.sol\":6358:6394  Loan storage loan = userLoans[_user] */\n      swap1\n      pop\n        /* \"LoanManager.sol\":6426:6427  0 */\n      0x00\n        /* \"LoanManager.sol\":6412:6416  loan */\n      dup2\n        /* \"LoanManager.sol\":6412:6423  loan.amount */\n      0x00\n      add\n      sload\n        /* \"LoanManager.sol\":6412:6427  loan.amount > 0 */\n      gt\n        /* \"LoanManager.sol\":6404:6459  require(loan.amount > 0, \"LoanManager: No active loan\") */\n      tag_133\n      jumpi\n      mload(0x40)\n      0x08c379a000000000000000000000000000000000000000000000000000000000\n      dup2\n      mstore\n      0x04\n      add\n      tag_134\n      swap1\n      tag_135\n      jump\t// in\n    tag_134:\n      mload(0x40)\n      dup1\n      swap2\n      sub\n      swap1\n      revert\n    tag_133:\n        /* \"LoanManager.sol\":6477:6481  loan */\n      dup1\n        /* \"LoanManager.sol\":6477:6493  loan.isDefaulted */\n      0x04\n      add\n      0x01\n      swap1\n      sload\n      swap1\n      0x0100\n      exp\n      swap1\n      div\n      0xff\n      and\n        /* \"LoanManager.sol\":6469:6529  require(loan.isDefaulted, \"LoanManager: Loan not defaulted\") */\n      tag_136\n      jumpi\n      mload(0x40)\n      0x08c379a000000000000000000000000000000000000000000000000000000000\n      dup2\n      mstore\n      0x04\n      add\n      tag_137\n      swap1\n      tag_138\n      jump\t// in\n    tag_137:\n      mload(0x40)\n      dup1\n      swap2\n      sub\n      swap1\n      revert\n    tag_136:\n        /* \"LoanManager.sol\":6587:6604  collateralManager */\n      0x03\n      0x00\n      swap1\n      sload\n      swap1\n      0x0100\n      exp\n      swap1\n      div\n      0xffffffffffffffffffffffffffffffffffffffff\n      and\n        /* \"LoanManager.sol\":6587:6624  collateralManager.liquidateCollateral */\n      0xffffffffffffffffffffffffffffffffffffffff\n      and\n      0x1fea5a6b\n        /* \"LoanManager.sol\":6625:6630  _user */\n      dup4\n        /* \"LoanManager.sol\":6587:6631  collateralManager.liquidateCollateral(_user) */\n      mload(0x40)\n      dup3\n      0xffffffff\n      and\n      0xe0\n      shl\n      dup2\n      mstore\n      0x04\n      add\n      tag_139\n      swap2\n      swap1\n      tag_74\n      jump\t// in\n    tag_139:\n      0x00\n      mload(0x40)\n      dup1\n      dup4\n      sub\n      dup2\n      0x00\n      dup8\n      dup1\n      extcodesize\n      iszero\n      dup1\n      iszero\n      tag_140\n      jumpi\n      0x00\n      dup1\n      revert\n    tag_140:\n      pop\n      gas\n      call\n      iszero\n      dup1\n      iszero\n      tag_142\n      jumpi\n      returndatasize\n      0x00\n      dup1\n      returndatacopy\n      revert(0x00, returndatasize)\n    tag_142:\n      pop\n      pop\n      pop\n      pop\n        /* \"LoanManager.sol\":6678:6687  userLoans */\n      0x0a\n        /* \"LoanManager.sol\":6678:6694  userLoans[_user] */\n      0x00\n        /* \"LoanManager.sol\":6688:6693  _user */\n      dup4\n        /* \"LoanManager.sol\":6678:6694  userLoans[_user] */\n      0xffffffffffffffffffffffffffffffffffffffff\n      and\n      0xffffffffffffffffffffffffffffffffffffffff\n      and\n      dup2\n      mstore\n      0x20\n      add\n      swap1\n      dup2\n      mstore\n      0x20\n      add\n      0x00\n      keccak256\n      0x00\n        /* \"LoanManager.sol\":6671:6694  delete userLoans[_user] */\n      dup1\n      dup3\n      add\n      0x00\n      swap1\n      sstore\n      0x01\n      dup3\n      add\n      0x00\n      swap1\n      sstore\n      0x02\n      dup3\n      add\n      0x00\n      swap1\n      sstore\n      0x03\n      dup3\n      add\n      0x00\n      swap1\n      sstore\n      0x04\n      dup3\n      add\n      exp(0x0100, 0x00)\n      dup2\n      sload\n      swap1\n      0xff\n      mul\n      not\n      and\n      swap1\n      sstore\n      0x04\n      dup3\n      add\n      exp(0x0100, 0x01)\n      dup2\n      sload\n      swap1\n      0xff\n      mul\n      not\n      and\n      swap1\n      sstore\n      pop\n      pop\n        /* \"LoanManager.sol\":6348:6701  {... */\n      pop\n        /* \"@openzeppelin/contracts/utils/ReentrancyGuard.sol\":2398:2418  _nonReentrantAfter() */\n      tag_143\n        /* \"@openzeppelin/contracts/utils/ReentrancyGuard.sol\":2398:2416  _nonReentrantAfter */\n      tag_144\n        /* \"@openzeppelin/contracts/utils/ReentrancyGuard.sol\":2398:2418  _nonReentrantAfter() */\n      jump\t// in\n    tag_143:\n        /* \"LoanManager.sol\":6282:6701  function liquidateCollateral(address _user) external nonReentrant {... */\n      pop\n      jump\t// out\n        /* \"LoanManager.sol\":589:631  CollateralManager public collateralManager */\n    tag_47:\n      0x03\n      0x00\n      swap1\n      sload\n      swap1\n      0x0100\n      exp\n      swap1\n      div\n      0xffffffffffffffffffffffffffffffffffffffff\n      and\n      dup2\n      jump\t// out\n        /* \"LoanManager.sol\":904:944  uint256 public defaultDuration = 15 days */\n    tag_51:\n      sload(0x07)\n      dup2\n      jump\t// out\n        /* \"LoanManager.sol\":6788:6968  function updateCollateralToLoanRatio(uint256 _newRatio) external {... */\n    tag_56:\n        /* \"LoanManager.sol\":6884:6887  100 */\n      0x64\n        /* \"LoanManager.sol\":6871:6880  _newRatio */\n      dup2\n        /* \"LoanManager.sol\":6871:6887  _newRatio >= 100 */\n      lt\n      iszero\n        /* \"LoanManager.sol\":6863:6918  require(_newRatio >= 100, \"LoanManager: Invalid ratio\") */\n      tag_146\n      jumpi\n      mload(0x40)\n      0x08c379a000000000000000000000000000000000000000000000000000000000\n      dup2\n      mstore\n      0x04\n      add\n      tag_147\n      swap1\n      tag_148\n      jump\t// in\n    tag_147:\n      mload(0x40)\n      dup1\n      swap2\n      sub\n      swap1\n      revert\n    tag_146:\n        /* \"LoanManager.sol\":6952:6961  _newRatio */\n      dup1\n        /* \"LoanManager.sol\":6928:6949  collateralToLoanRatio */\n      0x05\n        /* \"LoanManager.sol\":6928:6961  collateralToLoanRatio = _newRatio */\n      dup2\n      swap1\n      sstore\n      pop\n        /* \"LoanManager.sol\":6788:6968  function updateCollateralToLoanRatio(uint256 _newRatio) external {... */\n      pop\n      jump\t// out\n        /* \"LoanManager.sol\":4032:4498  function getMaxLoanAmount() external view returns (uint256) {... */\n    tag_58:\n        /* \"LoanManager.sol\":4083:4090  uint256 */\n      0x00\n        /* \"LoanManager.sol\":4103:4124  uint256 userColNative */\n      dup1\n        /* \"LoanManager.sol\":4126:4147  uint256 userColStable */\n      0x00\n        /* \"LoanManager.sol\":4152:4169  collateralManager */\n      0x03\n      0x00\n      swap1\n      sload\n      swap1\n      0x0100\n      exp\n      swap1\n      div\n      0xffffffffffffffffffffffffffffffffffffffff\n      and\n        /* \"LoanManager.sol\":4152:4190  collateralManager.getCollateralBalance */\n      0xffffffffffffffffffffffffffffffffffffffff\n      and\n      0x2703ee85\n        /* \"LoanManager.sol\":4191:4201  msg.sender */\n      caller\n        /* \"LoanManager.sol\":4152:4202  collateralManager.getCollateralBalance(msg.sender) */\n      mload(0x40)\n      dup3\n      0xffffffff\n      and\n      0xe0\n      shl\n      dup2\n      mstore\n      0x04\n      add\n      tag_150\n      swap2\n      swap1\n      tag_74\n      jump\t// in\n    tag_150:\n      0x40\n      dup1\n      mload\n      dup1\n      dup4\n      sub\n      dup2\n      dup7\n      gas\n      staticcall\n      iszero\n      dup1\n      iszero\n      tag_152\n      jumpi\n      returndatasize\n      0x00\n      dup1\n      returndatacopy\n      revert(0x00, returndatasize)\n    tag_152:\n      pop\n      pop\n      pop\n      pop\n      mload(0x40)\n      returndatasize\n      not(0x1f)\n      0x1f\n      dup3\n      add\n      and\n      dup3\n      add\n      dup1\n      0x40\n      mstore\n      pop\n      dup2\n      add\n      swap1\n      tag_153\n      swap2\n      swap1\n      tag_113\n      jump\t// in\n    tag_153:\n        /* \"LoanManager.sol\":4102:4202  (uint256 userColNative, uint256 userColStable ) = collateralManager.getCollateralBalance(msg.sender) */\n      swap2\n      pop\n      swap2\n      pop\n        /* \"LoanManager.sol\":4212:4236  uint256 NativePriceInUSD */\n      0x00\n        /* \"LoanManager.sol\":4247:4263  getNativePrice() */\n      tag_154\n        /* \"LoanManager.sol\":4247:4261  getNativePrice */\n      tag_40\n        /* \"LoanManager.sol\":4247:4263  getNativePrice() */\n      jump\t// in\n    tag_154:\n        /* \"LoanManager.sol\":4212:4264  uint256 NativePriceInUSD = uint256(getNativePrice()) */\n      swap1\n      pop\n        /* \"LoanManager.sol\":4274:4298  uint256 StablePriceInUSD */\n      0x00\n        /* \"LoanManager.sol\":4309:4325  getStablePrice() */\n      tag_155\n        /* \"LoanManager.sol\":4309:4323  getStablePrice */\n      tag_100\n        /* \"LoanManager.sol\":4309:4325  getStablePrice() */\n      jump\t// in\n    tag_155:\n        /* \"LoanManager.sol\":4274:4326  uint256 StablePriceInUSD = uint256(getStablePrice()) */\n      swap1\n      pop\n        /* \"LoanManager.sol\":4336:4364  uint256 totalCollateralInUSD */\n      0x00\n        /* \"LoanManager.sol\":4449:4453  1e18 */\n      0x0de0b6b3a7640000\n        /* \"LoanManager.sol\":4428:4444  StablePriceInUSD */\n      dup3\n        /* \"LoanManager.sol\":4412:4425  userColStable */\n      dup6\n        /* \"LoanManager.sol\":4412:4444  userColStable * StablePriceInUSD */\n      tag_156\n      swap2\n      swap1\n      tag_117\n      jump\t// in\n    tag_156:\n        /* \"LoanManager.sol\":4411:4454  (userColStable * StablePriceInUSD) / (1e18) */\n      tag_157\n      swap2\n      swap1\n      tag_119\n      jump\t// in\n    tag_157:\n        /* \"LoanManager.sol\":4404:4408  1e18 */\n      0x0de0b6b3a7640000\n        /* \"LoanManager.sol\":4384:4400  NativePriceInUSD */\n      dup5\n        /* \"LoanManager.sol\":4368:4381  userColNative */\n      dup8\n        /* \"LoanManager.sol\":4368:4400  userColNative * NativePriceInUSD */\n      tag_158\n      swap2\n      swap1\n      tag_117\n      jump\t// in\n    tag_158:\n        /* \"LoanManager.sol\":4367:4408  (userColNative * NativePriceInUSD) / 1e18 */\n      tag_159\n      swap2\n      swap1\n      tag_119\n      jump\t// in\n    tag_159:\n        /* \"LoanManager.sol\":4367:4454  (userColNative * NativePriceInUSD) / 1e18 + (userColStable * StablePriceInUSD) / (1e18) */\n      tag_160\n      swap2\n      swap1\n      tag_123\n      jump\t// in\n    tag_160:\n        /* \"LoanManager.sol\":4336:4454  uint256 totalCollateralInUSD = (userColNative * NativePriceInUSD) / 1e18 + (userColStable * StablePriceInUSD) / (1e18) */\n      swap1\n      pop\n        /* \"LoanManager.sol\":4471:4491  totalCollateralInUSD */\n      dup1\n        /* \"LoanManager.sol\":4464:4491  return totalCollateralInUSD */\n      swap6\n      pop\n      pop\n      pop\n      pop\n      pop\n      pop\n        /* \"LoanManager.sol\":4032:4498  function getMaxLoanAmount() external view returns (uint256) {... */\n      swap1\n      jump\t// out\n        /* \"LoanManager.sol\":750:792  uint256 public collateralToLoanRatio = 150 */\n    tag_61:\n      sload(0x05)\n      dup2\n      jump\t// out\n        /* \"LoanManager.sol\":685:708  uint256 public fundPool */\n    tag_64:\n      sload(0x04)\n      dup2\n      jump\t// out\n        /* \"@openzeppelin/contracts/access/Ownable.sol\":2293:2394  function renounceOwnership() public virtual onlyOwner {... */\n    tag_67:\n        /* \"@openzeppelin/contracts/access/Ownable.sol\":1531:1544  _checkOwner() */\n      tag_162\n        /* \"@openzeppelin/contracts/access/Ownable.sol\":1531:1542  _checkOwner */\n      tag_163\n        /* \"@openzeppelin/contracts/access/Ownable.sol\":1531:1544  _checkOwner() */\n      jump\t// in\n    tag_162:\n        /* \"@openzeppelin/contracts/access/Ownable.sol\":2357:2387  _transferOwnership(address(0)) */\n      tag_165\n        /* \"@openzeppelin/contracts/access/Ownable.sol\":2384:2385  0 */\n      0x00\n        /* \"@openzeppelin/contracts/access/Ownable.sol\":2357:2375  _transferOwnership */\n      tag_166\n        /* \"@openzeppelin/contracts/access/Ownable.sol\":2357:2387  _transferOwnership(address(0)) */\n      jump\t// in\n    tag_165:\n        /* \"@openzeppelin/contracts/access/Ownable.sol\":2293:2394  function renounceOwnership() public virtual onlyOwner {... */\n      jump\t// out\n        /* \"LoanManager.sol\":2521:3974  function requestLoan(uint256 _loanAmount) external nonReentrant {... */\n    tag_70:\n        /* \"@openzeppelin/contracts/utils/ReentrancyGuard.sol\":2356:2377  _nonReentrantBefore() */\n      tag_168\n        /* \"@openzeppelin/contracts/utils/ReentrancyGuard.sol\":2356:2375  _nonReentrantBefore */\n      tag_131\n        /* \"@openzeppelin/contracts/utils/ReentrancyGuard.sol\":2356:2377  _nonReentrantBefore() */\n      jump\t// in\n    tag_168:\n        /* \"LoanManager.sol\":2617:2618  0 */\n      0x00\n        /* \"LoanManager.sol\":2603:2614  _loanAmount */\n      dup2\n        /* \"LoanManager.sol\":2603:2618  _loanAmount > 0 */\n      gt\n        /* \"LoanManager.sol\":2595:2670  require(_loanAmount > 0, \"LoanManager: Loan amount must be greater than 0\") */\n      tag_170\n      jumpi\n      mload(0x40)\n      0x08c379a000000000000000000000000000000000000000000000000000000000\n      dup2\n      mstore\n      0x04\n      add\n      tag_171\n      swap1\n      tag_172\n      jump\t// in\n    tag_171:\n      mload(0x40)\n      dup1\n      swap2\n      sub\n      swap1\n      revert\n    tag_170:\n        /* \"LoanManager.sol\":2720:2721  0 */\n      0x00\n        /* \"LoanManager.sol\":2688:2697  userLoans */\n      0x0a\n        /* \"LoanManager.sol\":2688:2709  userLoans[msg.sender] */\n      0x00\n        /* \"LoanManager.sol\":2698:2708  msg.sender */\n      caller\n        /* \"LoanManager.sol\":2688:2709  userLoans[msg.sender] */\n      0xffffffffffffffffffffffffffffffffffffffff\n      and\n      0xffffffffffffffffffffffffffffffffffffffff\n      and\n      dup2\n      mstore\n      0x20\n      add\n      swap1\n      dup2\n      mstore\n      0x20\n      add\n      0x00\n      keccak256\n        /* \"LoanManager.sol\":2688:2716  userLoans[msg.sender].amount */\n      0x00\n      add\n      sload\n        /* \"LoanManager.sol\":2688:2721  userLoans[msg.sender].amount == 0 */\n      eq\n        /* \"LoanManager.sol\":2680:2773  require(userLoans[msg.sender].amount == 0, \"LoanManager: Existing loan must be repaid first\") */\n      tag_173\n      jumpi\n      mload(0x40)\n      0x08c379a000000000000000000000000000000000000000000000000000000000\n      dup2\n      mstore\n      0x04\n      add\n      tag_174\n      swap1\n      tag_175\n      jump\t// in\n    tag_174:\n      mload(0x40)\n      dup1\n      swap2\n      sub\n      swap1\n      revert\n    tag_173:\n        /* \"LoanManager.sol\":2831:2852  uint256 userColNative */\n      0x00\n        /* \"LoanManager.sol\":2854:2875  uint256 userColStable */\n      dup1\n        /* \"LoanManager.sol\":2879:2896  collateralManager */\n      0x03\n      0x00\n      swap1\n      sload\n      swap1\n      0x0100\n      exp\n      swap1\n      div\n      0xffffffffffffffffffffffffffffffffffffffff\n      and\n        /* \"LoanManager.sol\":2879:2917  collateralManager.getCollateralBalance */\n      0xffffffffffffffffffffffffffffffffffffffff\n      and\n      0x2703ee85\n        /* \"LoanManager.sol\":2918:2928  msg.sender */\n      caller\n        /* \"LoanManager.sol\":2879:2929  collateralManager.getCollateralBalance(msg.sender) */\n      mload(0x40)\n      dup3\n      0xffffffff\n      and\n      0xe0\n      shl\n      dup2\n      mstore\n      0x04\n      add\n      tag_176\n      swap2\n      swap1\n      tag_74\n      jump\t// in\n    tag_176:\n      0x40\n      dup1\n      mload\n      dup1\n      dup4\n      sub\n      dup2\n      dup7\n      gas\n      staticcall\n      iszero\n      dup1\n      iszero\n      tag_178\n      jumpi\n      returndatasize\n      0x00\n      dup1\n      returndatacopy\n      revert(0x00, returndatasize)\n    tag_178:\n      pop\n      pop\n      pop\n      pop\n      mload(0x40)\n      returndatasize\n      not(0x1f)\n      0x1f\n      dup3\n      add\n      and\n      dup3\n      add\n      dup1\n      0x40\n      mstore\n      pop\n      dup2\n      add\n      swap1\n      tag_179\n      swap2\n      swap1\n      tag_113\n      jump\t// in\n    tag_179:\n        /* \"LoanManager.sol\":2830:2929  (uint256 userColNative, uint256 userColStable) = collateralManager.getCollateralBalance(msg.sender) */\n      swap2\n      pop\n      swap2\n      pop\n        /* \"LoanManager.sol\":2939:2963  uint256 nativePriceInUSD */\n      0x00\n        /* \"LoanManager.sol\":2974:2990  getNativePrice() */\n      tag_180\n        /* \"LoanManager.sol\":2974:2988  getNativePrice */\n      tag_40\n        /* \"LoanManager.sol\":2974:2990  getNativePrice() */\n      jump\t// in\n    tag_180:\n        /* \"LoanManager.sol\":2939:2991  uint256 nativePriceInUSD = uint256(getNativePrice()) */\n      swap1\n      pop\n        /* \"LoanManager.sol\":3001:3025  uint256 stablePriceInUSD */\n      0x00\n        /* \"LoanManager.sol\":3036:3052  getStablePrice() */\n      tag_181\n        /* \"LoanManager.sol\":3036:3050  getStablePrice */\n      tag_100\n        /* \"LoanManager.sol\":3036:3052  getStablePrice() */\n      jump\t// in\n    tag_181:\n        /* \"LoanManager.sol\":3001:3053  uint256 stablePriceInUSD = uint256(getStablePrice()) */\n      swap1\n      pop\n        /* \"LoanManager.sol\":3063:3092  uint256 nativeCollateralInUSD */\n      0x00\n        /* \"LoanManager.sol\":3132:3136  1e18 */\n      0x0de0b6b3a7640000\n        /* \"LoanManager.sol\":3112:3128  nativePriceInUSD */\n      dup4\n        /* \"LoanManager.sol\":3096:3109  userColNative */\n      dup7\n        /* \"LoanManager.sol\":3096:3128  userColNative * nativePriceInUSD */\n      tag_182\n      swap2\n      swap1\n      tag_117\n      jump\t// in\n    tag_182:\n        /* \"LoanManager.sol\":3095:3136  (userColNative * nativePriceInUSD) / 1e18 */\n      tag_183\n      swap2\n      swap1\n      tag_119\n      jump\t// in\n    tag_183:\n        /* \"LoanManager.sol\":3063:3136  uint256 nativeCollateralInUSD = (userColNative * nativePriceInUSD) / 1e18 */\n      swap1\n      pop\n        /* \"LoanManager.sol\":3146:3175  uint256 stableCollateralInUSD */\n      0x00\n        /* \"LoanManager.sol\":3215:3219  1e18 */\n      0x0de0b6b3a7640000\n        /* \"LoanManager.sol\":3195:3211  stablePriceInUSD */\n      dup4\n        /* \"LoanManager.sol\":3179:3192  userColStable */\n      dup7\n        /* \"LoanManager.sol\":3179:3211  userColStable * stablePriceInUSD */\n      tag_184\n      swap2\n      swap1\n      tag_117\n      jump\t// in\n    tag_184:\n        /* \"LoanManager.sol\":3178:3219  (userColStable * stablePriceInUSD) / 1e18 */\n      tag_185\n      swap2\n      swap1\n      tag_119\n      jump\t// in\n    tag_185:\n        /* \"LoanManager.sol\":3146:3219  uint256 stableCollateralInUSD = (userColStable * stablePriceInUSD) / 1e18 */\n      swap1\n      pop\n        /* \"LoanManager.sol\":3229:3254  uint256 userTotalColinUSD */\n      0x00\n        /* \"LoanManager.sol\":3281:3302  stableCollateralInUSD */\n      dup2\n        /* \"LoanManager.sol\":3257:3278  nativeCollateralInUSD */\n      dup4\n        /* \"LoanManager.sol\":3257:3302  nativeCollateralInUSD + stableCollateralInUSD */\n      tag_186\n      swap2\n      swap1\n      tag_123\n      jump\t// in\n    tag_186:\n        /* \"LoanManager.sol\":3229:3302  uint256 userTotalColinUSD = nativeCollateralInUSD + stableCollateralInUSD */\n      swap1\n      pop\n        /* \"LoanManager.sol\":3449:3468  Loan memory newLoan */\n      0x00\n        /* \"LoanManager.sol\":3471:3723  Loan({... */\n      mload(0x40)\n      dup1\n      0xc0\n      add\n      0x40\n      mstore\n      dup1\n        /* \"LoanManager.sol\":3498:3509  _loanAmount */\n      dup11\n        /* \"LoanManager.sol\":3471:3723  Loan({... */\n      dup2\n      mstore\n      0x20\n      add\n        /* \"LoanManager.sol\":3537:3538  5 */\n      0x05\n        /* \"LoanManager.sol\":3471:3723  Loan({... */\n      dup2\n      mstore\n      0x20\n      add\n        /* \"LoanManager.sol\":3593:3608  block.timestamp */\n      timestamp\n        /* \"LoanManager.sol\":3471:3723  Loan({... */\n      dup2\n      mstore\n      0x20\n      add\n        /* \"LoanManager.sol\":3634:3651  userTotalColinUSD */\n      dup4\n        /* \"LoanManager.sol\":3471:3723  Loan({... */\n      dup2\n      mstore\n      0x20\n      add\n        /* \"LoanManager.sol\":3675:3680  false */\n      0x00\n        /* \"LoanManager.sol\":3471:3723  Loan({... */\n      iszero\n      iszero\n      dup2\n      mstore\n      0x20\n      add\n        /* \"LoanManager.sol\":3707:3712  false */\n      0x00\n        /* \"LoanManager.sol\":3471:3723  Loan({... */\n      iszero\n      iszero\n      dup2\n      mstore\n      pop\n        /* \"LoanManager.sol\":3449:3723  Loan memory newLoan = Loan({... */\n      swap1\n      pop\n        /* \"LoanManager.sol\":3757:3764  newLoan */\n      dup1\n        /* \"LoanManager.sol\":3733:3742  userLoans */\n      0x0a\n        /* \"LoanManager.sol\":3733:3754  userLoans[msg.sender] */\n      0x00\n        /* \"LoanManager.sol\":3743:3753  msg.sender */\n      caller\n        /* \"LoanManager.sol\":3733:3754  userLoans[msg.sender] */\n      0xffffffffffffffffffffffffffffffffffffffff\n      and\n      0xffffffffffffffffffffffffffffffffffffffff\n      and\n      dup2\n      mstore\n      0x20\n      add\n      swap1\n      dup2\n      mstore\n      0x20\n      add\n      0x00\n      keccak256\n        /* \"LoanManager.sol\":3733:3764  userLoans[msg.sender] = newLoan */\n      0x00\n      dup3\n      add\n      mload\n      dup2\n      0x00\n      add\n      sstore\n      0x20\n      dup3\n      add\n      mload\n      dup2\n      0x01\n      add\n      sstore\n      0x40\n      dup3\n      add\n      mload\n      dup2\n      0x02\n      add\n      sstore\n      0x60\n      dup3\n      add\n      mload\n      dup2\n      0x03\n      add\n      sstore\n      0x80\n      dup3\n      add\n      mload\n      dup2\n      0x04\n      add\n      exp(0x0100, 0x00)\n      dup2\n      sload\n      dup2\n      0xff\n      mul\n      not\n      and\n      swap1\n      dup4\n      iszero\n      iszero\n      mul\n      or\n      swap1\n      sstore\n      pop\n      0xa0\n      dup3\n      add\n      mload\n      dup2\n      0x04\n      add\n      exp(0x0100, 0x01)\n      dup2\n      sload\n      dup2\n      0xff\n      mul\n      not\n      and\n      swap1\n      dup4\n      iszero\n      iszero\n      mul\n      or\n      swap1\n      sstore\n      pop\n      swap1\n      pop\n      pop\n        /* \"LoanManager.sol\":3816:3825  cUSDToken */\n      0x02\n      0x00\n      swap1\n      sload\n      swap1\n      0x0100\n      exp\n      swap1\n      div\n      0xffffffffffffffffffffffffffffffffffffffff\n      and\n        /* \"LoanManager.sol\":3816:3834  cUSDToken.transfer */\n      0xffffffffffffffffffffffffffffffffffffffff\n      and\n      0xa9059cbb\n        /* \"LoanManager.sol\":3835:3845  msg.sender */\n      caller\n        /* \"LoanManager.sol\":3847:3858  _loanAmount */\n      dup12\n        /* \"LoanManager.sol\":3816:3859  cUSDToken.transfer(msg.sender, _loanAmount) */\n      mload(0x40)\n      dup4\n      0xffffffff\n      and\n      0xe0\n      shl\n      dup2\n      mstore\n      0x04\n      add\n      tag_187\n      swap3\n      swap2\n      swap1\n      tag_188\n      jump\t// in\n    tag_187:\n      0x20\n      mload(0x40)\n      dup1\n      dup4\n      sub\n      dup2\n      0x00\n      dup8\n      gas\n      call\n      iszero\n      dup1\n      iszero\n      tag_190\n      jumpi\n      returndatasize\n      0x00\n      dup1\n      returndatacopy\n      revert(0x00, returndatasize)\n    tag_190:\n      pop\n      pop\n      pop\n      pop\n      mload(0x40)\n      returndatasize\n      not(0x1f)\n      0x1f\n      dup3\n      add\n      and\n      dup3\n      add\n      dup1\n      0x40\n      mstore\n      pop\n      dup2\n      add\n      swap1\n      tag_191\n      swap2\n      swap1\n      tag_192\n      jump\t// in\n    tag_191:\n        /* \"LoanManager.sol\":3808:3897  require(cUSDToken.transfer(msg.sender, _loanAmount), \"LoanManager: Loan transfer failed\") */\n      tag_193\n      jumpi\n      mload(0x40)\n      0x08c379a000000000000000000000000000000000000000000000000000000000\n      dup2\n      mstore\n      0x04\n      add\n      tag_194\n      swap1\n      tag_195\n      jump\t// in\n    tag_194:\n      mload(0x40)\n      dup1\n      swap2\n      sub\n      swap1\n      revert\n    tag_193:\n        /* \"LoanManager.sol\":3924:3934  msg.sender */\n      caller\n        /* \"LoanManager.sol\":3913:3967  LoanIssued(msg.sender, _loanAmount, userTotalColinUSD) */\n      0xffffffffffffffffffffffffffffffffffffffff\n      and\n      0x1c793c0fda4a6b2b79dd68d91d9f7fde8f7aa0878615c36a4624e6ccdbb1ead1\n        /* \"LoanManager.sol\":3936:3947  _loanAmount */\n      dup11\n        /* \"LoanManager.sol\":3949:3966  userTotalColinUSD */\n      dup5\n        /* \"LoanManager.sol\":3913:3967  LoanIssued(msg.sender, _loanAmount, userTotalColinUSD) */\n      mload(0x40)\n      tag_196\n      swap3\n      swap2\n      swap1\n      tag_197\n      jump\t// in\n    tag_196:\n      mload(0x40)\n      dup1\n      swap2\n      sub\n      swap1\n      log2\n        /* \"LoanManager.sol\":2585:3974  {... */\n      pop\n      pop\n      pop\n      pop\n      pop\n      pop\n      pop\n      pop\n        /* \"@openzeppelin/contracts/utils/ReentrancyGuard.sol\":2398:2418  _nonReentrantAfter() */\n      tag_198\n        /* \"@openzeppelin/contracts/utils/ReentrancyGuard.sol\":2398:2416  _nonReentrantAfter */\n      tag_144\n        /* \"@openzeppelin/contracts/utils/ReentrancyGuard.sol\":2398:2418  _nonReentrantAfter() */\n      jump\t// in\n    tag_198:\n        /* \"LoanManager.sol\":2521:3974  function requestLoan(uint256 _loanAmount) external nonReentrant {... */\n      pop\n      jump\t// out\n        /* \"@openzeppelin/contracts/access/Ownable.sol\":1638:1723  function owner() public view virtual returns (address) {... */\n    tag_72:\n        /* \"@openzeppelin/contracts/access/Ownable.sol\":1684:1691  address */\n      0x00\n        /* \"@openzeppelin/contracts/access/Ownable.sol\":1710:1716  _owner */\n      0x01\n      0x00\n      swap1\n      sload\n      swap1\n      0x0100\n      exp\n      swap1\n      div\n      0xffffffffffffffffffffffffffffffffffffffff\n      and\n        /* \"@openzeppelin/contracts/access/Ownable.sol\":1703:1716  return _owner */\n      swap1\n      pop\n        /* \"@openzeppelin/contracts/access/Ownable.sol\":1638:1723  function owner() public view virtual returns (address) {... */\n      swap1\n      jump\t// out\n        /* \"LoanManager.sol\":7354:7563  function addFundToPool(uint256 _amount) external onlyOwner {... */\n    tag_77:\n        /* \"@openzeppelin/contracts/access/Ownable.sol\":1531:1544  _checkOwner() */\n      tag_201\n        /* \"@openzeppelin/contracts/access/Ownable.sol\":1531:1542  _checkOwner */\n      tag_163\n        /* \"@openzeppelin/contracts/access/Ownable.sol\":1531:1544  _checkOwner() */\n      jump\t// in\n    tag_201:\n        /* \"LoanManager.sol\":7431:7440  cUSDToken */\n      0x02\n      0x00\n      swap1\n      sload\n      swap1\n      0x0100\n      exp\n      swap1\n      div\n      0xffffffffffffffffffffffffffffffffffffffff\n      and\n        /* \"LoanManager.sol\":7431:7453  cUSDToken.transferFrom */\n      0xffffffffffffffffffffffffffffffffffffffff\n      and\n      0x23b872dd\n        /* \"LoanManager.sol\":7454:7464  msg.sender */\n      caller\n        /* \"LoanManager.sol\":7474:7478  this */\n      address\n        /* \"LoanManager.sol\":7481:7488  _amount */\n      dup5\n        /* \"LoanManager.sol\":7431:7489  cUSDToken.transferFrom(msg.sender, address(this), _amount) */\n      mload(0x40)\n      dup5\n      0xffffffff\n      and\n      0xe0\n      shl\n      dup2\n      mstore\n      0x04\n      add\n      tag_203\n      swap4\n      swap3\n      swap2\n      swap1\n      tag_204\n      jump\t// in\n    tag_203:\n      0x20\n      mload(0x40)\n      dup1\n      dup4\n      sub\n      dup2\n      0x00\n      dup8\n      gas\n      call\n      iszero\n      dup1\n      iszero\n      tag_206\n      jumpi\n      returndatasize\n      0x00\n      dup1\n      returndatacopy\n      revert(0x00, returndatasize)\n    tag_206:\n      pop\n      pop\n      pop\n      pop\n      mload(0x40)\n      returndatasize\n      not(0x1f)\n      0x1f\n      dup3\n      add\n      and\n      dup3\n      add\n      dup1\n      0x40\n      mstore\n      pop\n      dup2\n      add\n      swap1\n      tag_207\n      swap2\n      swap1\n      tag_192\n      jump\t// in\n    tag_207:\n        /* \"LoanManager.sol\":7423:7527  require(cUSDToken.transferFrom(msg.sender, address(this), _amount), \"LoanManager: Fund transfer failed\") */\n      tag_208\n      jumpi\n      mload(0x40)\n      0x08c379a000000000000000000000000000000000000000000000000000000000\n      dup2\n      mstore\n      0x04\n      add\n      tag_209\n      swap1\n      tag_210\n      jump\t// in\n    tag_209:\n      mload(0x40)\n      dup1\n      swap2\n      sub\n      swap1\n      revert\n    tag_208:\n        /* \"LoanManager.sol\":7549:7556  _amount */\n      dup1\n        /* \"LoanManager.sol\":7537:7545  fundPool */\n      0x04\n      0x00\n        /* \"LoanManager.sol\":7537:7556  fundPool += _amount */\n      dup3\n      dup3\n      sload\n      tag_211\n      swap2\n      swap1\n      tag_123\n      jump\t// in\n    tag_211:\n      swap3\n      pop\n      pop\n      dup2\n      swap1\n      sstore\n      pop\n        /* \"LoanManager.sol\":7354:7563  function addFundToPool(uint256 _amount) external onlyOwner {... */\n      pop\n      jump\t// out\n        /* \"LoanManager.sol\":4549:5494  function repayLoan(uint256 _repayAmount) external nonReentrant {... */\n    tag_80:\n        /* \"@openzeppelin/contracts/utils/ReentrancyGuard.sol\":2356:2377  _nonReentrantBefore() */\n      tag_213\n        /* \"@openzeppelin/contracts/utils/ReentrancyGuard.sol\":2356:2375  _nonReentrantBefore */\n      tag_131\n        /* \"@openzeppelin/contracts/utils/ReentrancyGuard.sol\":2356:2377  _nonReentrantBefore() */\n      jump\t// in\n    tag_213:\n        /* \"LoanManager.sol\":4622:4639  Loan storage loan */\n      0x00\n        /* \"LoanManager.sol\":4642:4651  userLoans */\n      0x0a\n        /* \"LoanManager.sol\":4642:4663  userLoans[msg.sender] */\n      0x00\n        /* \"LoanManager.sol\":4652:4662  msg.sender */\n      caller\n        /* \"LoanManager.sol\":4642:4663  userLoans[msg.sender] */\n      0xffffffffffffffffffffffffffffffffffffffff\n      and\n      0xffffffffffffffffffffffffffffffffffffffff\n      and\n      dup2\n      mstore\n      0x20\n      add\n      swap1\n      dup2\n      mstore\n      0x20\n      add\n      0x00\n      keccak256\n        /* \"LoanManager.sol\":4622:4663  Loan storage loan = userLoans[msg.sender] */\n      swap1\n      pop\n        /* \"LoanManager.sol\":4695:4696  0 */\n      0x00\n        /* \"LoanManager.sol\":4681:4685  loan */\n      dup2\n        /* \"LoanManager.sol\":4681:4692  loan.amount */\n      0x00\n      add\n      sload\n        /* \"LoanManager.sol\":4681:4696  loan.amount > 0 */\n      gt\n        /* \"LoanManager.sol\":4673:4728  require(loan.amount > 0, \"LoanManager: No active loan\") */\n      tag_215\n      jumpi\n      mload(0x40)\n      0x08c379a000000000000000000000000000000000000000000000000000000000\n      dup2\n      mstore\n      0x04\n      add\n      tag_216\n      swap1\n      tag_135\n      jump\t// in\n    tag_216:\n      mload(0x40)\n      dup1\n      swap2\n      sub\n      swap1\n      revert\n    tag_215:\n        /* \"LoanManager.sol\":4747:4751  loan */\n      dup1\n        /* \"LoanManager.sol\":4747:4760  loan.isRepaid */\n      0x04\n      add\n      0x00\n      swap1\n      sload\n      swap1\n      0x0100\n      exp\n      swap1\n      div\n      0xff\n      and\n        /* \"LoanManager.sol\":4746:4760  !loan.isRepaid */\n      iszero\n        /* \"LoanManager.sol\":4738:4800  require(!loan.isRepaid, \"LoanManager: Loan is already repaid\") */\n      tag_217\n      jumpi\n      mload(0x40)\n      0x08c379a000000000000000000000000000000000000000000000000000000000\n      dup2\n      mstore\n      0x04\n      add\n      tag_218\n      swap1\n      tag_219\n      jump\t// in\n    tag_218:\n      mload(0x40)\n      dup1\n      swap2\n      sub\n      swap1\n      revert\n    tag_217:\n        /* \"LoanManager.sol\":4868:4892  uint256 loanWithInterest */\n      0x00\n        /* \"LoanManager.sol\":4944:4947  100 */\n      0x64\n        /* \"LoanManager.sol\":4924:4928  loan */\n      dup3\n        /* \"LoanManager.sol\":4924:4941  loan.interestRate */\n      0x01\n      add\n      sload\n        /* \"LoanManager.sol\":4910:4914  loan */\n      dup4\n        /* \"LoanManager.sol\":4910:4921  loan.amount */\n      0x00\n      add\n      sload\n        /* \"LoanManager.sol\":4910:4941  loan.amount * loan.interestRate */\n      tag_220\n      swap2\n      swap1\n      tag_117\n      jump\t// in\n    tag_220:\n        /* \"LoanManager.sol\":4910:4947  loan.amount * loan.interestRate / 100 */\n      tag_221\n      swap2\n      swap1\n      tag_119\n      jump\t// in\n    tag_221:\n        /* \"LoanManager.sol\":4895:4899  loan */\n      dup3\n        /* \"LoanManager.sol\":4895:4906  loan.amount */\n      0x00\n      add\n      sload\n        /* \"LoanManager.sol\":4895:4948  loan.amount + (loan.amount * loan.interestRate / 100) */\n      tag_222\n      swap2\n      swap1\n      tag_123\n      jump\t// in\n    tag_222:\n        /* \"LoanManager.sol\":4868:4948  uint256 loanWithInterest = loan.amount + (loan.amount * loan.interestRate / 100) */\n      swap1\n      pop\n        /* \"LoanManager.sol\":4982:4998  loanWithInterest */\n      dup1\n        /* \"LoanManager.sol\":4966:4978  _repayAmount */\n      dup4\n        /* \"LoanManager.sol\":4966:4998  _repayAmount >= loanWithInterest */\n      lt\n      iszero\n        /* \"LoanManager.sol\":4958:5045  require(_repayAmount >= loanWithInterest, \"LoanManager: Insufficient repayment amount\") */\n      tag_223\n      jumpi\n      mload(0x40)\n      0x08c379a000000000000000000000000000000000000000000000000000000000\n      dup2\n      mstore\n      0x04\n      add\n      tag_224\n      swap1\n      tag_225\n      jump\t// in\n    tag_224:\n      mload(0x40)\n      dup1\n      swap2\n      sub\n      swap1\n      revert\n    tag_223:\n        /* \"LoanManager.sol\":5117:5126  cUSDToken */\n      0x02\n      0x00\n      swap1\n      sload\n      swap1\n      0x0100\n      exp\n      swap1\n      div\n      0xffffffffffffffffffffffffffffffffffffffff\n      and\n        /* \"LoanManager.sol\":5117:5139  cUSDToken.transferFrom */\n      0xffffffffffffffffffffffffffffffffffffffff\n      and\n      0x23b872dd\n        /* \"LoanManager.sol\":5140:5150  msg.sender */\n      caller\n        /* \"LoanManager.sol\":5160:5164  this */\n      address\n        /* \"LoanManager.sol\":5167:5179  _repayAmount */\n      dup7\n        /* \"LoanManager.sol\":5117:5180  cUSDToken.transferFrom(msg.sender, address(this), _repayAmount) */\n      mload(0x40)\n      dup5\n      0xffffffff\n      and\n      0xe0\n      shl\n      dup2\n      mstore\n      0x04\n      add\n      tag_226\n      swap4\n      swap3\n      swap2\n      swap1\n      tag_204\n      jump\t// in\n    tag_226:\n      0x20\n      mload(0x40)\n      dup1\n      dup4\n      sub\n      dup2\n      0x00\n      dup8\n      gas\n      call\n      iszero\n      dup1\n      iszero\n      tag_228\n      jumpi\n      returndatasize\n      0x00\n      dup1\n      returndatacopy\n      revert(0x00, returndatasize)\n    tag_228:\n      pop\n      pop\n      pop\n      pop\n      mload(0x40)\n      returndatasize\n      not(0x1f)\n      0x1f\n      dup3\n      add\n      and\n      dup3\n      add\n      dup1\n      0x40\n      mstore\n      pop\n      dup2\n      add\n      swap1\n      tag_229\n      swap2\n      swap1\n      tag_192\n      jump\t// in\n    tag_229:\n        /* \"LoanManager.sol\":5109:5223  require(cUSDToken.transferFrom(msg.sender, address(this), _repayAmount), \"LoanManager: Repayment transfer failed\") */\n      tag_230\n      jumpi\n      mload(0x40)\n      0x08c379a000000000000000000000000000000000000000000000000000000000\n      dup2\n      mstore\n      0x04\n      add\n      tag_231\n      swap1\n      tag_232\n      jump\t// in\n    tag_231:\n      mload(0x40)\n      dup1\n      swap2\n      sub\n      swap1\n      revert\n    tag_230:\n        /* \"LoanManager.sol\":5280:5284  true */\n      0x01\n        /* \"LoanManager.sol\":5264:5268  loan */\n      dup3\n        /* \"LoanManager.sol\":5264:5277  loan.isRepaid */\n      0x04\n      add\n      0x00\n        /* \"LoanManager.sol\":5264:5284  loan.isRepaid = true */\n      0x0100\n      exp\n      dup2\n      sload\n      dup2\n      0xff\n      mul\n      not\n      and\n      swap1\n      dup4\n      iszero\n      iszero\n      mul\n      or\n      swap1\n      sstore\n      pop\n        /* \"LoanManager.sol\":5336:5353  collateralManager */\n      0x03\n      0x00\n      swap1\n      sload\n      swap1\n      0x0100\n      exp\n      swap1\n      div\n      0xffffffffffffffffffffffffffffffffffffffff\n      and\n        /* \"LoanManager.sol\":5336:5366  collateralManager.releaseFunds */\n      0xffffffffffffffffffffffffffffffffffffffff\n      and\n      0x192e7a7b\n        /* \"LoanManager.sol\":5367:5377  msg.sender */\n      caller\n        /* \"LoanManager.sol\":5336:5378  collateralManager.releaseFunds(msg.sender) */\n      mload(0x40)\n      dup3\n      0xffffffff\n      and\n      0xe0\n      shl\n      dup2\n      mstore\n      0x04\n      add\n      tag_233\n      swap2\n      swap1\n      tag_74\n      jump\t// in\n    tag_233:\n      0x00\n      mload(0x40)\n      dup1\n      dup4\n      sub\n      dup2\n      0x00\n      dup8\n      dup1\n      extcodesize\n      iszero\n      dup1\n      iszero\n      tag_234\n      jumpi\n      0x00\n      dup1\n      revert\n    tag_234:\n      pop\n      gas\n      call\n      iszero\n      dup1\n      iszero\n      tag_236\n      jumpi\n      returndatasize\n      0x00\n      dup1\n      returndatacopy\n      revert(0x00, returndatasize)\n    tag_236:\n      pop\n      pop\n      pop\n      pop\n        /* \"LoanManager.sol\":5419:5420  0 */\n      0x00\n        /* \"LoanManager.sol\":5388:5397  userLoans */\n      0x0a\n        /* \"LoanManager.sol\":5388:5409  userLoans[msg.sender] */\n      0x00\n        /* \"LoanManager.sol\":5398:5408  msg.sender */\n      caller\n        /* \"LoanManager.sol\":5388:5409  userLoans[msg.sender] */\n      0xffffffffffffffffffffffffffffffffffffffff\n      and\n      0xffffffffffffffffffffffffffffffffffffffff\n      and\n      dup2\n      mstore\n      0x20\n      add\n      swap1\n      dup2\n      mstore\n      0x20\n      add\n      0x00\n      keccak256\n        /* \"LoanManager.sol\":5388:5416  userLoans[msg.sender].amount */\n      0x00\n      add\n        /* \"LoanManager.sol\":5388:5420  userLoans[msg.sender].amount = 0 */\n      dup2\n      swap1\n      sstore\n      pop\n        /* \"LoanManager.sol\":5446:5456  msg.sender */\n      caller\n        /* \"LoanManager.sol\":5435:5487  LoanRepaid(msg.sender, loan.amount, loan.collateral) */\n      0xffffffffffffffffffffffffffffffffffffffff\n      and\n      0xc7ce0a35f17b490de2a317e7fecb2cae86b1abffb03800b2f492823521382698\n        /* \"LoanManager.sol\":5458:5462  loan */\n      dup4\n        /* \"LoanManager.sol\":5458:5469  loan.amount */\n      0x00\n      add\n      sload\n        /* \"LoanManager.sol\":5471:5475  loan */\n      dup5\n        /* \"LoanManager.sol\":5471:5486  loan.collateral */\n      0x03\n      add\n      sload\n        /* \"LoanManager.sol\":5435:5487  LoanRepaid(msg.sender, loan.amount, loan.collateral) */\n      mload(0x40)\n      tag_237\n      swap3\n      swap2\n      swap1\n      tag_197\n      jump\t// in\n    tag_237:\n      mload(0x40)\n      dup1\n      swap2\n      sub\n      swap1\n      log2\n        /* \"LoanManager.sol\":4612:5494  {... */\n      pop\n      pop\n        /* \"@openzeppelin/contracts/utils/ReentrancyGuard.sol\":2398:2418  _nonReentrantAfter() */\n      tag_238\n        /* \"@openzeppelin/contracts/utils/ReentrancyGuard.sol\":2398:2416  _nonReentrantAfter */\n      tag_144\n        /* \"@openzeppelin/contracts/utils/ReentrancyGuard.sol\":2398:2418  _nonReentrantAfter() */\n      jump\t// in\n    tag_238:\n        /* \"LoanManager.sol\":4549:5494  function repayLoan(uint256 _repayAmount) external nonReentrant {... */\n      pop\n      jump\t// out\n        /* \"LoanManager.sol\":7569:7774  function getLoanBalancewithInterest(address _user) external view returns (uint256) {... */\n    tag_83:\n        /* \"LoanManager.sol\":7643:7650  uint256 */\n      0x00\n        /* \"LoanManager.sol\":7662:7678  Loan memory loan */\n      dup1\n        /* \"LoanManager.sol\":7681:7690  userLoans */\n      0x0a\n        /* \"LoanManager.sol\":7681:7697  userLoans[_user] */\n      0x00\n        /* \"LoanManager.sol\":7691:7696  _user */\n      dup5\n        /* \"LoanManager.sol\":7681:7697  userLoans[_user] */\n      0xffffffffffffffffffffffffffffffffffffffff\n      and\n      0xffffffffffffffffffffffffffffffffffffffff\n      and\n      dup2\n      mstore\n      0x20\n      add\n      swap1\n      dup2\n      mstore\n      0x20\n      add\n      0x00\n      keccak256\n        /* \"LoanManager.sol\":7662:7697  Loan memory loan = userLoans[_user] */\n      mload(0x40)\n      dup1\n      0xc0\n      add\n      0x40\n      mstore\n      swap1\n      dup2\n      0x00\n      dup3\n      add\n      sload\n      dup2\n      mstore\n      0x20\n      add\n      0x01\n      dup3\n      add\n      sload\n      dup2\n      mstore\n      0x20\n      add\n      0x02\n      dup3\n      add\n      sload\n      dup2\n      mstore\n      0x20\n      add\n      0x03\n      dup3\n      add\n      sload\n      dup2\n      mstore\n      0x20\n      add\n      0x04\n      dup3\n      add\n      0x00\n      swap1\n      sload\n      swap1\n      0x0100\n      exp\n      swap1\n      div\n      0xff\n      and\n      iszero\n      iszero\n      iszero\n      iszero\n      dup2\n      mstore\n      0x20\n      add\n      0x04\n      dup3\n      add\n      0x01\n      swap1\n      sload\n      swap1\n      0x0100\n      exp\n      swap1\n      div\n      0xff\n      and\n      iszero\n      iszero\n      iszero\n      iszero\n      dup2\n      mstore\n      pop\n      pop\n      swap1\n      pop\n        /* \"LoanManager.sol\":7763:7766  100 */\n      0x64\n        /* \"LoanManager.sol\":7743:7747  loan */\n      dup2\n        /* \"LoanManager.sol\":7743:7760  loan.interestRate */\n      0x20\n      add\n      mload\n        /* \"LoanManager.sol\":7729:7733  loan */\n      dup3\n        /* \"LoanManager.sol\":7729:7740  loan.amount */\n      0x00\n      add\n      mload\n        /* \"LoanManager.sol\":7729:7760  loan.amount * loan.interestRate */\n      tag_240\n      swap2\n      swap1\n      tag_117\n      jump\t// in\n    tag_240:\n        /* \"LoanManager.sol\":7729:7766  loan.amount * loan.interestRate / 100 */\n      tag_241\n      swap2\n      swap1\n      tag_119\n      jump\t// in\n    tag_241:\n        /* \"LoanManager.sol\":7714:7718  loan */\n      dup2\n        /* \"LoanManager.sol\":7714:7725  loan.amount */\n      0x00\n      add\n      mload\n        /* \"LoanManager.sol\":7714:7767  loan.amount + (loan.amount * loan.interestRate / 100) */\n      tag_242\n      swap2\n      swap1\n      tag_123\n      jump\t// in\n    tag_242:\n        /* \"LoanManager.sol\":7707:7767  return loan.amount + (loan.amount * loan.interestRate / 100) */\n      swap2\n      pop\n      pop\n        /* \"LoanManager.sol\":7569:7774  function getLoanBalancewithInterest(address _user) external view returns (uint256) {... */\n      swap2\n      swap1\n      pop\n      jump\t// out\n        /* \"LoanManager.sol\":6974:7155  function updateLoanDuration(uint256 _newDuration) external onlyOwner {... */\n    tag_87:\n        /* \"@openzeppelin/contracts/access/Ownable.sol\":1531:1544  _checkOwner() */\n      tag_244\n        /* \"@openzeppelin/contracts/access/Ownable.sol\":1531:1542  _checkOwner */\n      tag_163\n        /* \"@openzeppelin/contracts/access/Ownable.sol\":1531:1544  _checkOwner() */\n      jump\t// in\n    tag_244:\n        /* \"LoanManager.sol\":7076:7077  0 */\n      0x00\n        /* \"LoanManager.sol\":7061:7073  _newDuration */\n      dup2\n        /* \"LoanManager.sol\":7061:7077  _newDuration > 0 */\n      gt\n        /* \"LoanManager.sol\":7053:7111  require(_newDuration > 0, \"LoanManager: Invalid duration\") */\n      tag_246\n      jumpi\n      mload(0x40)\n      0x08c379a000000000000000000000000000000000000000000000000000000000\n      dup2\n      mstore\n      0x04\n      add\n      tag_247\n      swap1\n      tag_248\n      jump\t// in\n    tag_247:\n      mload(0x40)\n      dup1\n      swap2\n      sub\n      swap1\n      revert\n    tag_246:\n        /* \"LoanManager.sol\":7136:7148  _newDuration */\n      dup1\n        /* \"LoanManager.sol\":7121:7133  loanDuration */\n      0x06\n        /* \"LoanManager.sol\":7121:7148  loanDuration = _newDuration */\n      dup2\n      swap1\n      sstore\n      pop\n        /* \"LoanManager.sol\":6974:7155  function updateLoanDuration(uint256 _newDuration) external onlyOwner {... */\n      pop\n      jump\t// out\n        /* \"LoanManager.sol\":7161:7348  function updateDefaultDuration(uint256 _newDuration) external onlyOwner {... */\n    tag_90:\n        /* \"@openzeppelin/contracts/access/Ownable.sol\":1531:1544  _checkOwner() */\n      tag_250\n        /* \"@openzeppelin/contracts/access/Ownable.sol\":1531:1542  _checkOwner */\n      tag_163\n        /* \"@openzeppelin/contracts/access/Ownable.sol\":1531:1544  _checkOwner() */\n      jump\t// in\n    tag_250:\n        /* \"LoanManager.sol\":7266:7267  0 */\n      0x00\n        /* \"LoanManager.sol\":7251:7263  _newDuration */\n      dup2\n        /* \"LoanManager.sol\":7251:7267  _newDuration > 0 */\n      gt\n        /* \"LoanManager.sol\":7243:7301  require(_newDuration > 0, \"LoanManager: Invalid duration\") */\n      tag_252\n      jumpi\n      mload(0x40)\n      0x08c379a000000000000000000000000000000000000000000000000000000000\n      dup2\n      mstore\n      0x04\n      add\n      tag_253\n      swap1\n      tag_248\n      jump\t// in\n    tag_253:\n      mload(0x40)\n      dup1\n      swap2\n      sub\n      swap1\n      revert\n    tag_252:\n        /* \"LoanManager.sol\":7329:7341  _newDuration */\n      dup1\n        /* \"LoanManager.sol\":7311:7326  defaultDuration */\n      0x07\n        /* \"LoanManager.sol\":7311:7341  defaultDuration = _newDuration */\n      dup2\n      swap1\n      sstore\n      pop\n        /* \"LoanManager.sol\":7161:7348  function updateDefaultDuration(uint256 _newDuration) external onlyOwner {... */\n      pop\n      jump\t// out\n        /* \"LoanManager.sol\":1292:1333  mapping(address => Loan) public userLoans */\n    tag_93:\n      mstore(0x20, 0x0a)\n      dup1\n      0x00\n      mstore\n      keccak256(0x00, 0x40)\n      0x00\n      swap2\n      pop\n      swap1\n      pop\n      dup1\n      0x00\n      add\n      sload\n      swap1\n      dup1\n      0x01\n      add\n      sload\n      swap1\n      dup1\n      0x02\n      add\n      sload\n      swap1\n      dup1\n      0x03\n      add\n      sload\n      swap1\n      dup1\n      0x04\n      add\n      0x00\n      swap1\n      sload\n      swap1\n      0x0100\n      exp\n      swap1\n      div\n      0xff\n      and\n      swap1\n      dup1\n      0x04\n      add\n      0x01\n      swap1\n      sload\n      swap1\n      0x0100\n      exp\n      swap1\n      div\n      0xff\n      and\n      swap1\n      pop\n      dup7\n      jump\t// out\n        /* \"LoanManager.sol\":5562:6224  function checkDefault(address _user) external nonReentrant {... */\n    tag_98:\n        /* \"@openzeppelin/contracts/utils/ReentrancyGuard.sol\":2356:2377  _nonReentrantBefore() */\n      tag_255\n        /* \"@openzeppelin/contracts/utils/ReentrancyGuard.sol\":2356:2375  _nonReentrantBefore */\n      tag_131\n        /* \"@openzeppelin/contracts/utils/ReentrancyGuard.sol\":2356:2377  _nonReentrantBefore() */\n      jump\t// in\n    tag_255:\n        /* \"LoanManager.sol\":5631:5648  Loan storage loan */\n      0x00\n        /* \"LoanManager.sol\":5651:5660  userLoans */\n      0x0a\n        /* \"LoanManager.sol\":5651:5667  userLoans[_user] */\n      0x00\n        /* \"LoanManager.sol\":5661:5666  _user */\n      dup4\n        /* \"LoanManager.sol\":5651:5667  userLoans[_user] */\n      0xffffffffffffffffffffffffffffffffffffffff\n      and\n      0xffffffffffffffffffffffffffffffffffffffff\n      and\n      dup2\n      mstore\n      0x20\n      add\n      swap1\n      dup2\n      mstore\n      0x20\n      add\n      0x00\n      keccak256\n        /* \"LoanManager.sol\":5631:5667  Loan storage loan = userLoans[_user] */\n      swap1\n      pop\n        /* \"LoanManager.sol\":5699:5700  0 */\n      0x00\n        /* \"LoanManager.sol\":5685:5689  loan */\n      dup2\n        /* \"LoanManager.sol\":5685:5696  loan.amount */\n      0x00\n      add\n      sload\n        /* \"LoanManager.sol\":5685:5700  loan.amount > 0 */\n      gt\n        /* \"LoanManager.sol\":5677:5732  require(loan.amount > 0, \"LoanManager: No active loan\") */\n      tag_257\n      jumpi\n      mload(0x40)\n      0x08c379a000000000000000000000000000000000000000000000000000000000\n      dup2\n      mstore\n      0x04\n      add\n      tag_258\n      swap1\n      tag_135\n      jump\t// in\n    tag_258:\n      mload(0x40)\n      dup1\n      swap2\n      sub\n      swap1\n      revert\n    tag_257:\n        /* \"LoanManager.sol\":5751:5755  loan */\n      dup1\n        /* \"LoanManager.sol\":5751:5767  loan.isDefaulted */\n      0x04\n      add\n      0x01\n      swap1\n      sload\n      swap1\n      0x0100\n      exp\n      swap1\n      div\n      0xff\n      and\n        /* \"LoanManager.sol\":5750:5767  !loan.isDefaulted */\n      iszero\n        /* \"LoanManager.sol\":5742:5807  require(!loan.isDefaulted, \"LoanManager: Loan already defaulted\") */\n      tag_259\n      jumpi\n      mload(0x40)\n      0x08c379a000000000000000000000000000000000000000000000000000000000\n      dup2\n      mstore\n      0x04\n      add\n      tag_260\n      swap1\n      tag_261\n      jump\t// in\n    tag_260:\n      mload(0x40)\n      dup1\n      swap2\n      sub\n      swap1\n      revert\n    tag_259:\n        /* \"LoanManager.sol\":5875:5890  defaultDuration */\n      sload(0x07)\n        /* \"LoanManager.sol\":5860:5872  loanDuration */\n      sload(0x06)\n        /* \"LoanManager.sol\":5843:5847  loan */\n      dup3\n        /* \"LoanManager.sol\":5843:5857  loan.startTime */\n      0x02\n      add\n      sload\n        /* \"LoanManager.sol\":5843:5872  loan.startTime + loanDuration */\n      tag_262\n      swap2\n      swap1\n      tag_123\n      jump\t// in\n    tag_262:\n        /* \"LoanManager.sol\":5843:5890  loan.startTime + loanDuration + defaultDuration */\n      tag_263\n      swap2\n      swap1\n      tag_123\n      jump\t// in\n    tag_263:\n        /* \"LoanManager.sol\":5825:5840  block.timestamp */\n      timestamp\n        /* \"LoanManager.sol\":5825:5890  block.timestamp > loan.startTime + loanDuration + defaultDuration */\n      gt\n        /* \"LoanManager.sol\":5817:5930  require(block.timestamp > loan.startTime + loanDuration + defaultDuration, \"LoanManager: Loan not defaulted yet\") */\n      tag_264\n      jumpi\n      mload(0x40)\n      0x08c379a000000000000000000000000000000000000000000000000000000000\n      dup2\n      mstore\n      0x04\n      add\n      tag_265\n      swap1\n      tag_266\n      jump\t// in\n    tag_265:\n      mload(0x40)\n      dup1\n      swap2\n      sub\n      swap1\n      revert\n    tag_264:\n        /* \"LoanManager.sol\":5994:5998  true */\n      0x01\n        /* \"LoanManager.sol\":5975:5979  loan */\n      dup2\n        /* \"LoanManager.sol\":5975:5991  loan.isDefaulted */\n      0x04\n      add\n      0x01\n        /* \"LoanManager.sol\":5975:5998  loan.isDefaulted = true */\n      0x0100\n      exp\n      dup2\n      sload\n      dup2\n      0xff\n      mul\n      not\n      and\n      swap1\n      dup4\n      iszero\n      iszero\n      mul\n      or\n      swap1\n      sstore\n      pop\n        /* \"LoanManager.sol\":6041:6058  collateralManager */\n      0x03\n      0x00\n      swap1\n      sload\n      swap1\n      0x0100\n      exp\n      swap1\n      div\n      0xffffffffffffffffffffffffffffffffffffffff\n      and\n        /* \"LoanManager.sol\":6041:6083  collateralManager.withdrawNativeCollateral */\n      0xffffffffffffffffffffffffffffffffffffffff\n      and\n      0xf6da3c90\n        /* \"LoanManager.sol\":6084:6088  loan */\n      dup3\n        /* \"LoanManager.sol\":6084:6099  loan.collateral */\n      0x03\n      add\n      sload\n        /* \"LoanManager.sol\":6041:6100  collateralManager.withdrawNativeCollateral(loan.collateral) */\n      mload(0x40)\n      dup3\n      0xffffffff\n      and\n      0xe0\n      shl\n      dup2\n      mstore\n      0x04\n      add\n      tag_267\n      swap2\n      swap1\n      tag_34\n      jump\t// in\n    tag_267:\n      0x00\n      mload(0x40)\n      dup1\n      dup4\n      sub\n      dup2\n      0x00\n      dup8\n      dup1\n      extcodesize\n      iszero\n      dup1\n      iszero\n      tag_268\n      jumpi\n      0x00\n      dup1\n      revert\n    tag_268:\n      pop\n      gas\n      call\n      iszero\n      dup1\n      iszero\n      tag_270\n      jumpi\n      returndatasize\n      0x00\n      dup1\n      returndatacopy\n      revert(0x00, returndatasize)\n    tag_270:\n      pop\n      pop\n      pop\n      pop\n        /* \"LoanManager.sol\":6194:6199  _user */\n      dup2\n        /* \"LoanManager.sol\":6180:6217  LoanDefaulted(_user, loan.collateral) */\n      0xffffffffffffffffffffffffffffffffffffffff\n      and\n      0x0be253503c49f8fb02046da3ef57bc2f5f881eb14ba5c2c26b54bf2fb4e7db07\n        /* \"LoanManager.sol\":6201:6205  loan */\n      dup3\n        /* \"LoanManager.sol\":6201:6216  loan.collateral */\n      0x03\n      add\n      sload\n        /* \"LoanManager.sol\":6180:6217  LoanDefaulted(_user, loan.collateral) */\n      mload(0x40)\n      tag_271\n      swap2\n      swap1\n      tag_34\n      jump\t// in\n    tag_271:\n      mload(0x40)\n      dup1\n      swap2\n      sub\n      swap1\n      log2\n        /* \"LoanManager.sol\":5621:6224  {... */\n      pop\n        /* \"@openzeppelin/contracts/utils/ReentrancyGuard.sol\":2398:2418  _nonReentrantAfter() */\n      tag_272\n        /* \"@openzeppelin/contracts/utils/ReentrancyGuard.sol\":2398:2416  _nonReentrantAfter */\n      tag_144\n        /* \"@openzeppelin/contracts/utils/ReentrancyGuard.sol\":2398:2418  _nonReentrantAfter() */\n      jump\t// in\n    tag_272:\n        /* \"LoanManager.sol\":5562:6224  function checkDefault(address _user) external nonReentrant {... */\n      pop\n      jump\t// out\n        /* \"LoanManager.sol\":2281:2462  function getStablePrice() public view returns (int) {... */\n    tag_100:\n        /* \"LoanManager.sol\":2328:2331  int */\n      0x00\n        /* \"LoanManager.sol\":2346:2355  int price */\n      dup1\n        /* \"LoanManager.sol\":2362:2377  stablePriceFeed */\n      0x09\n      0x00\n      swap1\n      sload\n      swap1\n      0x0100\n      exp\n      swap1\n      div\n      0xffffffffffffffffffffffffffffffffffffffff\n      and\n        /* \"LoanManager.sol\":2362:2393  stablePriceFeed.latestRoundData */\n      0xffffffffffffffffffffffffffffffffffffffff\n      and\n      0xfeaf968c\n        /* \"LoanManager.sol\":2362:2395  stablePriceFeed.latestRoundData() */\n      mload(0x40)\n      dup2\n      0xffffffff\n      and\n      0xe0\n      shl\n      dup2\n      mstore\n      0x04\n      add\n      0xa0\n      mload(0x40)\n      dup1\n      dup4\n      sub\n      dup2\n      dup7\n      gas\n      staticcall\n      iszero\n      dup1\n      iszero\n      tag_275\n      jumpi\n      returndatasize\n      0x00\n      dup1\n      returndatacopy\n      revert(0x00, returndatasize)\n    tag_275:\n      pop\n      pop\n      pop\n      pop\n      mload(0x40)\n      returndatasize\n      not(0x1f)\n      0x1f\n      dup3\n      add\n      and\n      dup3\n      add\n      dup1\n      0x40\n      mstore\n      pop\n      dup2\n      add\n      swap1\n      tag_276\n      swap2\n      swap1\n      tag_128\n      jump\t// in\n    tag_276:\n        /* \"LoanManager.sol\":2343:2395  (, int price,,,) = stablePriceFeed.latestRoundData() */\n      pop\n      pop\n      pop\n      swap2\n      pop\n      pop\n        /* \"LoanManager.sol\":2412:2417  price */\n      dup1\n        /* \"LoanManager.sol\":2405:2417  return price */\n      swap2\n      pop\n      pop\n        /* \"LoanManager.sol\":2281:2462  function getStablePrice() public view returns (int) {... */\n      swap1\n      jump\t// out\n        /* \"@openzeppelin/contracts/access/Ownable.sol\":2543:2758  function transferOwnership(address newOwner) public virtual onlyOwner {... */\n    tag_104:\n        /* \"@openzeppelin/contracts/access/Ownable.sol\":1531:1544  _checkOwner() */\n      tag_278\n        /* \"@openzeppelin/contracts/access/Ownable.sol\":1531:1542  _checkOwner */\n      tag_163\n        /* \"@openzeppelin/contracts/access/Ownable.sol\":1531:1544  _checkOwner() */\n      jump\t// in\n    tag_278:\n        /* \"@openzeppelin/contracts/access/Ownable.sol\":2647:2648  0 */\n      0x00\n        /* \"@openzeppelin/contracts/access/Ownable.sol\":2627:2649  newOwner == address(0) */\n      0xffffffffffffffffffffffffffffffffffffffff\n      and\n        /* \"@openzeppelin/contracts/access/Ownable.sol\":2627:2635  newOwner */\n      dup2\n        /* \"@openzeppelin/contracts/access/Ownable.sol\":2627:2649  newOwner == address(0) */\n      0xffffffffffffffffffffffffffffffffffffffff\n      and\n      sub\n        /* \"@openzeppelin/contracts/access/Ownable.sol\":2623:2714  if (newOwner == address(0)) {... */\n      tag_280\n      jumpi\n        /* \"@openzeppelin/contracts/access/Ownable.sol\":2700:2701  0 */\n      0x00\n        /* \"@openzeppelin/contracts/access/Ownable.sol\":2672:2703  OwnableInvalidOwner(address(0)) */\n      mload(0x40)\n      0x1e4fbdf700000000000000000000000000000000000000000000000000000000\n      dup2\n      mstore\n      0x04\n      add\n      tag_281\n      swap2\n      swap1\n      tag_74\n      jump\t// in\n    tag_281:\n      mload(0x40)\n      dup1\n      swap2\n      sub\n      swap1\n      revert\n        /* \"@openzeppelin/contracts/access/Ownable.sol\":2623:2714  if (newOwner == address(0)) {... */\n    tag_280:\n        /* \"@openzeppelin/contracts/access/Ownable.sol\":2723:2751  _transferOwnership(newOwner) */\n      tag_282\n        /* \"@openzeppelin/contracts/access/Ownable.sol\":2742:2750  newOwner */\n      dup2\n        /* \"@openzeppelin/contracts/access/Ownable.sol\":2723:2741  _transferOwnership */\n      tag_166\n        /* \"@openzeppelin/contracts/access/Ownable.sol\":2723:2751  _transferOwnership(newOwner) */\n      jump\t// in\n    tag_282:\n        /* \"@openzeppelin/contracts/access/Ownable.sol\":2543:2758  function transferOwnership(address newOwner) public virtual onlyOwner {... */\n      pop\n      jump\t// out\n        /* \"LoanManager.sol\":861:898  uint256 public loanDuration = 30 days */\n    tag_106:\n      sload(0x06)\n      dup2\n      jump\t// out\n        /* \"@openzeppelin/contracts/utils/ReentrancyGuard.sol\":2431:2738  function _nonReentrantBefore() private {... */\n    tag_131:\n        /* \"@openzeppelin/contracts/utils/ReentrancyGuard.sol\":1755:1756  2 */\n      0x02\n        /* \"@openzeppelin/contracts/utils/ReentrancyGuard.sol\":2558:2565  _status */\n      sload(0x00)\n        /* \"@openzeppelin/contracts/utils/ReentrancyGuard.sol\":2558:2576  _status == ENTERED */\n      sub\n        /* \"@openzeppelin/contracts/utils/ReentrancyGuard.sol\":2554:2640  if (_status == ENTERED) {... */\n      tag_284\n      jumpi\n        /* \"@openzeppelin/contracts/utils/ReentrancyGuard.sol\":2599:2629  ReentrancyGuardReentrantCall() */\n      mload(0x40)\n      0x3ee5aeb500000000000000000000000000000000000000000000000000000000\n      dup2\n      mstore\n      0x04\n      add\n      mload(0x40)\n      dup1\n      swap2\n      sub\n      swap1\n      revert\n        /* \"@openzeppelin/contracts/utils/ReentrancyGuard.sol\":2554:2640  if (_status == ENTERED) {... */\n    tag_284:\n        /* \"@openzeppelin/contracts/utils/ReentrancyGuard.sol\":1755:1756  2 */\n      0x02\n        /* \"@openzeppelin/contracts/utils/ReentrancyGuard.sol\":2714:2721  _status */\n      0x00\n        /* \"@openzeppelin/contracts/utils/ReentrancyGuard.sol\":2714:2731  _status = ENTERED */\n      dup2\n      swap1\n      sstore\n      pop\n        /* \"@openzeppelin/contracts/utils/ReentrancyGuard.sol\":2431:2738  function _nonReentrantBefore() private {... */\n      jump\t// out\n        /* \"@openzeppelin/contracts/utils/ReentrancyGuard.sol\":2744:2952  function _nonReentrantAfter() private {... */\n    tag_144:\n        /* \"@openzeppelin/contracts/utils/ReentrancyGuard.sol\":1713:1714  1 */\n      0x01\n        /* \"@openzeppelin/contracts/utils/ReentrancyGuard.sol\":2924:2931  _status */\n      0x00\n        /* \"@openzeppelin/contracts/utils/ReentrancyGuard.sol\":2924:2945  _status = NOT_ENTERED */\n      dup2\n      swap1\n      sstore\n      pop\n        /* \"@openzeppelin/contracts/utils/ReentrancyGuard.sol\":2744:2952  function _nonReentrantAfter() private {... */\n      jump\t// out\n        /* \"@openzeppelin/contracts/access/Ownable.sol\":1796:1958  function _checkOwner() internal view virtual {... */\n    tag_163:\n        /* \"@openzeppelin/contracts/access/Ownable.sol\":1866:1878  _msgSender() */\n      tag_287\n        /* \"@openzeppelin/contracts/access/Ownable.sol\":1866:1876  _msgSender */\n      tag_288\n        /* \"@openzeppelin/contracts/access/Ownable.sol\":1866:1878  _msgSender() */\n      jump\t// in\n    tag_287:\n        /* \"@openzeppelin/contracts/access/Ownable.sol\":1855:1878  owner() != _msgSender() */\n      0xffffffffffffffffffffffffffffffffffffffff\n      and\n        /* \"@openzeppelin/contracts/access/Ownable.sol\":1855:1862  owner() */\n      tag_289\n        /* \"@openzeppelin/contracts/access/Ownable.sol\":1855:1860  owner */\n      tag_72\n        /* \"@openzeppelin/contracts/access/Ownable.sol\":1855:1862  owner() */\n      jump\t// in\n    tag_289:\n        /* \"@openzeppelin/contracts/access/Ownable.sol\":1855:1878  owner() != _msgSender() */\n      0xffffffffffffffffffffffffffffffffffffffff\n      and\n      eq\n        /* \"@openzeppelin/contracts/access/Ownable.sol\":1851:1952  if (owner() != _msgSender()) {... */\n      tag_290\n      jumpi\n        /* \"@openzeppelin/contracts/access/Ownable.sol\":1928:1940  _msgSender() */\n      tag_291\n        /* \"@openzeppelin/contracts/access/Ownable.sol\":1928:1938  _msgSender */\n      tag_288\n        /* \"@openzeppelin/contracts/access/Ownable.sol\":1928:1940  _msgSender() */\n      jump\t// in\n    tag_291:\n        /* \"@openzeppelin/contracts/access/Ownable.sol\":1901:1941  OwnableUnauthorizedAccount(_msgSender()) */\n      mload(0x40)\n      0x118cdaa700000000000000000000000000000000000000000000000000000000\n      dup2\n      mstore\n      0x04\n      add\n      tag_292\n      swap2\n      swap1\n      tag_74\n      jump\t// in\n    tag_292:\n      mload(0x40)\n      dup1\n      swap2\n      sub\n      swap1\n      revert\n        /* \"@openzeppelin/contracts/access/Ownable.sol\":1851:1952  if (owner() != _msgSender()) {... */\n    tag_290:\n        /* \"@openzeppelin/contracts/access/Ownable.sol\":1796:1958  function _checkOwner() internal view virtual {... */\n      jump\t// out\n        /* \"@openzeppelin/contracts/access/Ownable.sol\":2912:3099  function _transferOwnership(address newOwner) internal virtual {... */\n    tag_166:\n        /* \"@openzeppelin/contracts/access/Ownable.sol\":2985:3001  address oldOwner */\n      0x00\n        /* \"@openzeppelin/contracts/access/Ownable.sol\":3004:3010  _owner */\n      0x01\n      0x00\n      swap1\n      sload\n      swap1\n      0x0100\n      exp\n      swap1\n      div\n      0xffffffffffffffffffffffffffffffffffffffff\n      and\n        /* \"@openzeppelin/contracts/access/Ownable.sol\":2985:3010  address oldOwner = _owner */\n      swap1\n      pop\n        /* \"@openzeppelin/contracts/access/Ownable.sol\":3029:3037  newOwner */\n      dup2\n        /* \"@openzeppelin/contracts/access/Ownable.sol\":3020:3026  _owner */\n      0x01\n      0x00\n        /* \"@openzeppelin/contracts/access/Ownable.sol\":3020:3037  _owner = newOwner */\n      0x0100\n      exp\n      dup2\n      sload\n      dup2\n      0xffffffffffffffffffffffffffffffffffffffff\n      mul\n      not\n      and\n      swap1\n      dup4\n      0xffffffffffffffffffffffffffffffffffffffff\n      and\n      mul\n      or\n      swap1\n      sstore\n      pop\n        /* \"@openzeppelin/contracts/access/Ownable.sol\":3083:3091  newOwner */\n      dup2\n        /* \"@openzeppelin/contracts/access/Ownable.sol\":3052:3092  OwnershipTransferred(oldOwner, newOwner) */\n      0xffffffffffffffffffffffffffffffffffffffff\n      and\n        /* \"@openzeppelin/contracts/access/Ownable.sol\":3073:3081  oldOwner */\n      dup2\n        /* \"@openzeppelin/contracts/access/Ownable.sol\":3052:3092  OwnershipTransferred(oldOwner, newOwner) */\n      0xffffffffffffffffffffffffffffffffffffffff\n      and\n      0x8be0079c531659141344cd1fd0a4f28419497f9722a3daafe3b4186f6b6457e0\n      mload(0x40)\n      mload(0x40)\n      dup1\n      swap2\n      sub\n      swap1\n      log3\n        /* \"@openzeppelin/contracts/access/Ownable.sol\":2975:3099  {... */\n      pop\n        /* \"@openzeppelin/contracts/access/Ownable.sol\":2912:3099  function _transferOwnership(address newOwner) internal virtual {... */\n      pop\n      jump\t// out\n        /* \"@openzeppelin/contracts/utils/Context.sol\":656:752  function _msgSender() internal view virtual returns (address) {... */\n    tag_288:\n        /* \"@openzeppelin/contracts/utils/Context.sol\":709:716  address */\n      0x00\n        /* \"@openzeppelin/contracts/utils/Context.sol\":735:745  msg.sender */\n      caller\n        /* \"@openzeppelin/contracts/utils/Context.sol\":728:745  return msg.sender */\n      swap1\n      pop\n        /* \"@openzeppelin/contracts/utils/Context.sol\":656:752  function _msgSender() internal view virtual returns (address) {... */\n      swap1\n      jump\t// out\n        /* \"#utility.yul\":88:205   */\n    tag_296:\n        /* \"#utility.yul\":197:198   */\n      0x00\n        /* \"#utility.yul\":194:195   */\n      dup1\n        /* \"#utility.yul\":187:199   */\n      revert\n        /* \"#utility.yul\":334:460   */\n    tag_298:\n        /* \"#utility.yul\":371:378   */\n      0x00\n        /* \"#utility.yul\":411:453   */\n      0xffffffffffffffffffffffffffffffffffffffff\n        /* \"#utility.yul\":404:409   */\n      dup3\n        /* \"#utility.yul\":400:454   */\n      and\n        /* \"#utility.yul\":389:454   */\n      swap1\n      pop\n        /* \"#utility.yul\":334:460   */\n      swap2\n      swap1\n      pop\n      jump\t// out\n        /* \"#utility.yul\":466:562   */\n    tag_299:\n        /* \"#utility.yul\":503:510   */\n      0x00\n        /* \"#utility.yul\":532:556   */\n      tag_361\n        /* \"#utility.yul\":550:555   */\n      dup3\n        /* \"#utility.yul\":532:556   */\n      tag_298\n      jump\t// in\n    tag_361:\n        /* \"#utility.yul\":521:556   */\n      swap1\n      pop\n        /* \"#utility.yul\":466:562   */\n      swap2\n      swap1\n      pop\n      jump\t// out\n        /* \"#utility.yul\":568:690   */\n    tag_300:\n        /* \"#utility.yul\":641:665   */\n      tag_363\n        /* \"#utility.yul\":659:664   */\n      dup2\n        /* \"#utility.yul\":641:665   */\n      tag_299\n      jump\t// in\n    tag_363:\n        /* \"#utility.yul\":634:639   */\n      dup2\n        /* \"#utility.yul\":631:666   */\n      eq\n        /* \"#utility.yul\":621:684   */\n      tag_364\n      jumpi\n        /* \"#utility.yul\":680:681   */\n      0x00\n        /* \"#utility.yul\":677:678   */\n      dup1\n        /* \"#utility.yul\":670:682   */\n      revert\n        /* \"#utility.yul\":621:684   */\n    tag_364:\n        /* \"#utility.yul\":568:690   */\n      pop\n      jump\t// out\n        /* \"#utility.yul\":696:835   */\n    tag_301:\n        /* \"#utility.yul\":742:747   */\n      0x00\n        /* \"#utility.yul\":780:786   */\n      dup2\n        /* \"#utility.yul\":767:787   */\n      calldataload\n        /* \"#utility.yul\":758:787   */\n      swap1\n      pop\n        /* \"#utility.yul\":796:829   */\n      tag_366\n        /* \"#utility.yul\":823:828   */\n      dup2\n        /* \"#utility.yul\":796:829   */\n      tag_300\n      jump\t// in\n    tag_366:\n        /* \"#utility.yul\":696:835   */\n      swap3\n      swap2\n      pop\n      pop\n      jump\t// out\n        /* \"#utility.yul\":841:1170   */\n    tag_31:\n        /* \"#utility.yul\":900:906   */\n      0x00\n        /* \"#utility.yul\":949:951   */\n      0x20\n        /* \"#utility.yul\":937:946   */\n      dup3\n        /* \"#utility.yul\":928:935   */\n      dup5\n        /* \"#utility.yul\":924:947   */\n      sub\n        /* \"#utility.yul\":920:952   */\n      slt\n        /* \"#utility.yul\":917:1036   */\n      iszero\n      tag_368\n      jumpi\n        /* \"#utility.yul\":955:1034   */\n      tag_369\n      tag_296\n      jump\t// in\n    tag_369:\n        /* \"#utility.yul\":917:1036   */\n    tag_368:\n        /* \"#utility.yul\":1075:1076   */\n      0x00\n        /* \"#utility.yul\":1100:1153   */\n      tag_370\n        /* \"#utility.yul\":1145:1152   */\n      dup5\n        /* \"#utility.yul\":1136:1142   */\n      dup3\n        /* \"#utility.yul\":1125:1134   */\n      dup6\n        /* \"#utility.yul\":1121:1143   */\n      add\n        /* \"#utility.yul\":1100:1153   */\n      tag_301\n      jump\t// in\n    tag_370:\n        /* \"#utility.yul\":1090:1153   */\n      swap2\n      pop\n        /* \"#utility.yul\":1046:1163   */\n      pop\n        /* \"#utility.yul\":841:1170   */\n      swap3\n      swap2\n      pop\n      pop\n      jump\t// out\n        /* \"#utility.yul\":1176:1253   */\n    tag_302:\n        /* \"#utility.yul\":1213:1220   */\n      0x00\n        /* \"#utility.yul\":1242:1247   */\n      dup2\n        /* \"#utility.yul\":1231:1247   */\n      swap1\n      pop\n        /* \"#utility.yul\":1176:1253   */\n      swap2\n      swap1\n      pop\n      jump\t// out\n        /* \"#utility.yul\":1259:1377   */\n    tag_303:\n        /* \"#utility.yul\":1346:1370   */\n      tag_373\n        /* \"#utility.yul\":1364:1369   */\n      dup2\n        /* \"#utility.yul\":1346:1370   */\n      tag_302\n      jump\t// in\n    tag_373:\n        /* \"#utility.yul\":1341:1344   */\n      dup3\n        /* \"#utility.yul\":1334:1371   */\n      mstore\n        /* \"#utility.yul\":1259:1377   */\n      pop\n      pop\n      jump\t// out\n        /* \"#utility.yul\":1383:1605   */\n    tag_34:\n        /* \"#utility.yul\":1476:1480   */\n      0x00\n        /* \"#utility.yul\":1514:1516   */\n      0x20\n        /* \"#utility.yul\":1503:1512   */\n      dup3\n        /* \"#utility.yul\":1499:1517   */\n      add\n        /* \"#utility.yul\":1491:1517   */\n      swap1\n      pop\n        /* \"#utility.yul\":1527:1598   */\n      tag_375\n        /* \"#utility.yul\":1595:1596   */\n      0x00\n        /* \"#utility.yul\":1584:1593   */\n      dup4\n        /* \"#utility.yul\":1580:1597   */\n      add\n        /* \"#utility.yul\":1571:1577   */\n      dup5\n        /* \"#utility.yul\":1527:1598   */\n      tag_303\n      jump\t// in\n    tag_375:\n        /* \"#utility.yul\":1383:1605   */\n      swap3\n      swap2\n      pop\n      pop\n      jump\t// out\n        /* \"#utility.yul\":1611:1671   */\n    tag_304:\n        /* \"#utility.yul\":1639:1642   */\n      0x00\n        /* \"#utility.yul\":1660:1665   */\n      dup2\n        /* \"#utility.yul\":1653:1665   */\n      swap1\n      pop\n        /* \"#utility.yul\":1611:1671   */\n      swap2\n      swap1\n      pop\n      jump\t// out\n        /* \"#utility.yul\":1677:1819   */\n    tag_305:\n        /* \"#utility.yul\":1727:1736   */\n      0x00\n        /* \"#utility.yul\":1760:1813   */\n      tag_378\n        /* \"#utility.yul\":1778:1812   */\n      tag_379\n        /* \"#utility.yul\":1787:1811   */\n      tag_380\n        /* \"#utility.yul\":1805:1810   */\n      dup5\n        /* \"#utility.yul\":1787:1811   */\n      tag_298\n      jump\t// in\n    tag_380:\n        /* \"#utility.yul\":1778:1812   */\n      tag_304\n      jump\t// in\n    tag_379:\n        /* \"#utility.yul\":1760:1813   */\n      tag_298\n      jump\t// in\n    tag_378:\n        /* \"#utility.yul\":1747:1813   */\n      swap1\n      pop\n        /* \"#utility.yul\":1677:1819   */\n      swap2\n      swap1\n      pop\n      jump\t// out\n        /* \"#utility.yul\":1825:1951   */\n    tag_306:\n        /* \"#utility.yul\":1875:1884   */\n      0x00\n        /* \"#utility.yul\":1908:1945   */\n      tag_382\n        /* \"#utility.yul\":1939:1944   */\n      dup3\n        /* \"#utility.yul\":1908:1945   */\n      tag_305\n      jump\t// in\n    tag_382:\n        /* \"#utility.yul\":1895:1945   */\n      swap1\n      pop\n        /* \"#utility.yul\":1825:1951   */\n      swap2\n      swap1\n      pop\n      jump\t// out\n        /* \"#utility.yul\":1957:2096   */\n    tag_307:\n        /* \"#utility.yul\":2020:2029   */\n      0x00\n        /* \"#utility.yul\":2053:2090   */\n      tag_384\n        /* \"#utility.yul\":2084:2089   */\n      dup3\n        /* \"#utility.yul\":2053:2090   */\n      tag_306\n      jump\t// in\n    tag_384:\n        /* \"#utility.yul\":2040:2090   */\n      swap1\n      pop\n        /* \"#utility.yul\":1957:2096   */\n      swap2\n      swap1\n      pop\n      jump\t// out\n        /* \"#utility.yul\":2102:2259   */\n    tag_308:\n        /* \"#utility.yul\":2202:2252   */\n      tag_386\n        /* \"#utility.yul\":2246:2251   */\n      dup2\n        /* \"#utility.yul\":2202:2252   */\n      tag_307\n      jump\t// in\n    tag_386:\n        /* \"#utility.yul\":2197:2200   */\n      dup3\n        /* \"#utility.yul\":2190:2253   */\n      mstore\n        /* \"#utility.yul\":2102:2259   */\n      pop\n      pop\n      jump\t// out\n        /* \"#utility.yul\":2265:2513   */\n    tag_38:\n        /* \"#utility.yul\":2371:2375   */\n      0x00\n        /* \"#utility.yul\":2409:2411   */\n      0x20\n        /* \"#utility.yul\":2398:2407   */\n      dup3\n        /* \"#utility.yul\":2394:2412   */\n      add\n        /* \"#utility.yul\":2386:2412   */\n      swap1\n      pop\n        /* \"#utility.yul\":2422:2506   */\n      tag_388\n        /* \"#utility.yul\":2503:2504   */\n      0x00\n        /* \"#utility.yul\":2492:2501   */\n      dup4\n        /* \"#utility.yul\":2488:2505   */\n      add\n        /* \"#utility.yul\":2479:2485   */\n      dup5\n        /* \"#utility.yul\":2422:2506   */\n      tag_308\n      jump\t// in\n    tag_388:\n        /* \"#utility.yul\":2265:2513   */\n      swap3\n      swap2\n      pop\n      pop\n      jump\t// out\n        /* \"#utility.yul\":2519:2595   */\n    tag_309:\n        /* \"#utility.yul\":2555:2562   */\n      0x00\n        /* \"#utility.yul\":2584:2589   */\n      dup2\n        /* \"#utility.yul\":2573:2589   */\n      swap1\n      pop\n        /* \"#utility.yul\":2519:2595   */\n      swap2\n      swap1\n      pop\n      jump\t// out\n        /* \"#utility.yul\":2601:2716   */\n    tag_310:\n        /* \"#utility.yul\":2686:2709   */\n      tag_391\n        /* \"#utility.yul\":2703:2708   */\n      dup2\n        /* \"#utility.yul\":2686:2709   */\n      tag_309\n      jump\t// in\n    tag_391:\n        /* \"#utility.yul\":2681:2684   */\n      dup3\n        /* \"#utility.yul\":2674:2710   */\n      mstore\n        /* \"#utility.yul\":2601:2716   */\n      pop\n      pop\n      jump\t// out\n        /* \"#utility.yul\":2722:2940   */\n    tag_42:\n        /* \"#utility.yul\":2813:2817   */\n      0x00\n        /* \"#utility.yul\":2851:2853   */\n      0x20\n        /* \"#utility.yul\":2840:2849   */\n      dup3\n        /* \"#utility.yul\":2836:2854   */\n      add\n        /* \"#utility.yul\":2828:2854   */\n      swap1\n      pop\n        /* \"#utility.yul\":2864:2933   */\n      tag_393\n        /* \"#utility.yul\":2930:2931   */\n      0x00\n        /* \"#utility.yul\":2919:2928   */\n      dup4\n        /* \"#utility.yul\":2915:2932   */\n      add\n        /* \"#utility.yul\":2906:2912   */\n      dup5\n        /* \"#utility.yul\":2864:2933   */\n      tag_310\n      jump\t// in\n    tag_393:\n        /* \"#utility.yul\":2722:2940   */\n      swap3\n      swap2\n      pop\n      pop\n      jump\t// out\n        /* \"#utility.yul\":2946:3098   */\n    tag_311:\n        /* \"#utility.yul\":3022:3031   */\n      0x00\n        /* \"#utility.yul\":3055:3092   */\n      tag_395\n        /* \"#utility.yul\":3086:3091   */\n      dup3\n        /* \"#utility.yul\":3055:3092   */\n      tag_306\n      jump\t// in\n    tag_395:\n        /* \"#utility.yul\":3042:3092   */\n      swap1\n      pop\n        /* \"#utility.yul\":2946:3098   */\n      swap2\n      swap1\n      pop\n      jump\t// out\n        /* \"#utility.yul\":3104:3287   */\n    tag_312:\n        /* \"#utility.yul\":3217:3280   */\n      tag_397\n        /* \"#utility.yul\":3274:3279   */\n      dup2\n        /* \"#utility.yul\":3217:3280   */\n      tag_311\n      jump\t// in\n    tag_397:\n        /* \"#utility.yul\":3212:3215   */\n      dup3\n        /* \"#utility.yul\":3205:3281   */\n      mstore\n        /* \"#utility.yul\":3104:3287   */\n      pop\n      pop\n      jump\t// out\n        /* \"#utility.yul\":3293:3567   */\n    tag_49:\n        /* \"#utility.yul\":3412:3416   */\n      0x00\n        /* \"#utility.yul\":3450:3452   */\n      0x20\n        /* \"#utility.yul\":3439:3448   */\n      dup3\n        /* \"#utility.yul\":3435:3453   */\n      add\n        /* \"#utility.yul\":3427:3453   */\n      swap1\n      pop\n        /* \"#utility.yul\":3463:3560   */\n      tag_399\n        /* \"#utility.yul\":3557:3558   */\n      0x00\n        /* \"#utility.yul\":3546:3555   */\n      dup4\n        /* \"#utility.yul\":3542:3559   */\n      add\n        /* \"#utility.yul\":3533:3539   */\n      dup5\n        /* \"#utility.yul\":3463:3560   */\n      tag_312\n      jump\t// in\n    tag_399:\n        /* \"#utility.yul\":3293:3567   */\n      swap3\n      swap2\n      pop\n      pop\n      jump\t// out\n        /* \"#utility.yul\":3573:3695   */\n    tag_313:\n        /* \"#utility.yul\":3646:3670   */\n      tag_401\n        /* \"#utility.yul\":3664:3669   */\n      dup2\n        /* \"#utility.yul\":3646:3670   */\n      tag_302\n      jump\t// in\n    tag_401:\n        /* \"#utility.yul\":3639:3644   */\n      dup2\n        /* \"#utility.yul\":3636:3671   */\n      eq\n        /* \"#utility.yul\":3626:3689   */\n      tag_402\n      jumpi\n        /* \"#utility.yul\":3685:3686   */\n      0x00\n        /* \"#utility.yul\":3682:3683   */\n      dup1\n        /* \"#utility.yul\":3675:3687   */\n      revert\n        /* \"#utility.yul\":3626:3689   */\n    tag_402:\n        /* \"#utility.yul\":3573:3695   */\n      pop\n      jump\t// out\n        /* \"#utility.yul\":3701:3840   */\n    tag_314:\n        /* \"#utility.yul\":3747:3752   */\n      0x00\n        /* \"#utility.yul\":3785:3791   */\n      dup2\n        /* \"#utility.yul\":3772:3792   */\n      calldataload\n        /* \"#utility.yul\":3763:3792   */\n      swap1\n      pop\n        /* \"#utility.yul\":3801:3834   */\n      tag_404\n        /* \"#utility.yul\":3828:3833   */\n      dup2\n        /* \"#utility.yul\":3801:3834   */\n      tag_313\n      jump\t// in\n    tag_404:\n        /* \"#utility.yul\":3701:3840   */\n      swap3\n      swap2\n      pop\n      pop\n      jump\t// out\n        /* \"#utility.yul\":3846:4175   */\n    tag_55:\n        /* \"#utility.yul\":3905:3911   */\n      0x00\n        /* \"#utility.yul\":3954:3956   */\n      0x20\n        /* \"#utility.yul\":3942:3951   */\n      dup3\n        /* \"#utility.yul\":3933:3940   */\n      dup5\n        /* \"#utility.yul\":3929:3952   */\n      sub\n        /* \"#utility.yul\":3925:3957   */\n      slt\n        /* \"#utility.yul\":3922:4041   */\n      iszero\n      tag_406\n      jumpi\n        /* \"#utility.yul\":3960:4039   */\n      tag_407\n      tag_296\n      jump\t// in\n    tag_407:\n        /* \"#utility.yul\":3922:4041   */\n    tag_406:\n        /* \"#utility.yul\":4080:4081   */\n      0x00\n        /* \"#utility.yul\":4105:4158   */\n      tag_408\n        /* \"#utility.yul\":4150:4157   */\n      dup5\n        /* \"#utility.yul\":4141:4147   */\n      dup3\n        /* \"#utility.yul\":4130:4139   */\n      dup6\n        /* \"#utility.yul\":4126:4148   */\n      add\n        /* \"#utility.yul\":4105:4158   */\n      tag_314\n      jump\t// in\n    tag_408:\n        /* \"#utility.yul\":4095:4158   */\n      swap2\n      pop\n        /* \"#utility.yul\":4051:4168   */\n      pop\n        /* \"#utility.yul\":3846:4175   */\n      swap3\n      swap2\n      pop\n      pop\n      jump\t// out\n        /* \"#utility.yul\":4181:4299   */\n    tag_315:\n        /* \"#utility.yul\":4268:4292   */\n      tag_410\n        /* \"#utility.yul\":4286:4291   */\n      dup2\n        /* \"#utility.yul\":4268:4292   */\n      tag_299\n      jump\t// in\n    tag_410:\n        /* \"#utility.yul\":4263:4266   */\n      dup3\n        /* \"#utility.yul\":4256:4293   */\n      mstore\n        /* \"#utility.yul\":4181:4299   */\n      pop\n      pop\n      jump\t// out\n        /* \"#utility.yul\":4305:4527   */\n    tag_74:\n        /* \"#utility.yul\":4398:4402   */\n      0x00\n        /* \"#utility.yul\":4436:4438   */\n      0x20\n        /* \"#utility.yul\":4425:4434   */\n      dup3\n        /* \"#utility.yul\":4421:4439   */\n      add\n        /* \"#utility.yul\":4413:4439   */\n      swap1\n      pop\n        /* \"#utility.yul\":4449:4520   */\n      tag_412\n        /* \"#utility.yul\":4517:4518   */\n      0x00\n        /* \"#utility.yul\":4506:4515   */\n      dup4\n        /* \"#utility.yul\":4502:4519   */\n      add\n        /* \"#utility.yul\":4493:4499   */\n      dup5\n        /* \"#utility.yul\":4449:4520   */\n      tag_315\n      jump\t// in\n    tag_412:\n        /* \"#utility.yul\":4305:4527   */\n      swap3\n      swap2\n      pop\n      pop\n      jump\t// out\n        /* \"#utility.yul\":4533:4623   */\n    tag_316:\n        /* \"#utility.yul\":4567:4574   */\n      0x00\n        /* \"#utility.yul\":4610:4615   */\n      dup2\n        /* \"#utility.yul\":4603:4616   */\n      iszero\n        /* \"#utility.yul\":4596:4617   */\n      iszero\n        /* \"#utility.yul\":4585:4617   */\n      swap1\n      pop\n        /* \"#utility.yul\":4533:4623   */\n      swap2\n      swap1\n      pop\n      jump\t// out\n        /* \"#utility.yul\":4629:4738   */\n    tag_317:\n        /* \"#utility.yul\":4710:4731   */\n      tag_415\n        /* \"#utility.yul\":4725:4730   */\n      dup2\n        /* \"#utility.yul\":4710:4731   */\n      tag_316\n      jump\t// in\n    tag_415:\n        /* \"#utility.yul\":4705:4708   */\n      dup3\n        /* \"#utility.yul\":4698:4732   */\n      mstore\n        /* \"#utility.yul\":4629:4738   */\n      pop\n      pop\n      jump\t// out\n        /* \"#utility.yul\":4744:5495   */\n    tag_95:\n        /* \"#utility.yul\":4965:4969   */\n      0x00\n        /* \"#utility.yul\":5003:5006   */\n      0xc0\n        /* \"#utility.yul\":4992:5001   */\n      dup3\n        /* \"#utility.yul\":4988:5007   */\n      add\n        /* \"#utility.yul\":4980:5007   */\n      swap1\n      pop\n        /* \"#utility.yul\":5017:5088   */\n      tag_417\n        /* \"#utility.yul\":5085:5086   */\n      0x00\n        /* \"#utility.yul\":5074:5083   */\n      dup4\n        /* \"#utility.yul\":5070:5087   */\n      add\n        /* \"#utility.yul\":5061:5067   */\n      dup10\n        /* \"#utility.yul\":5017:5088   */\n      tag_303\n      jump\t// in\n    tag_417:\n        /* \"#utility.yul\":5098:5170   */\n      tag_418\n        /* \"#utility.yul\":5166:5168   */\n      0x20\n        /* \"#utility.yul\":5155:5164   */\n      dup4\n        /* \"#utility.yul\":5151:5169   */\n      add\n        /* \"#utility.yul\":5142:5148   */\n      dup9\n        /* \"#utility.yul\":5098:5170   */\n      tag_303\n      jump\t// in\n    tag_418:\n        /* \"#utility.yul\":5180:5252   */\n      tag_419\n        /* \"#utility.yul\":5248:5250   */\n      0x40\n        /* \"#utility.yul\":5237:5246   */\n      dup4\n        /* \"#utility.yul\":5233:5251   */\n      add\n        /* \"#utility.yul\":5224:5230   */\n      dup8\n        /* \"#utility.yul\":5180:5252   */\n      tag_303\n      jump\t// in\n    tag_419:\n        /* \"#utility.yul\":5262:5334   */\n      tag_420\n        /* \"#utility.yul\":5330:5332   */\n      0x60\n        /* \"#utility.yul\":5319:5328   */\n      dup4\n        /* \"#utility.yul\":5315:5333   */\n      add\n        /* \"#utility.yul\":5306:5312   */\n      dup7\n        /* \"#utility.yul\":5262:5334   */\n      tag_303\n      jump\t// in\n    tag_420:\n        /* \"#utility.yul\":5344:5411   */\n      tag_421\n        /* \"#utility.yul\":5406:5409   */\n      0x80\n        /* \"#utility.yul\":5395:5404   */\n      dup4\n        /* \"#utility.yul\":5391:5410   */\n      add\n        /* \"#utility.yul\":5382:5388   */\n      dup6\n        /* \"#utility.yul\":5344:5411   */\n      tag_317\n      jump\t// in\n    tag_421:\n        /* \"#utility.yul\":5421:5488   */\n      tag_422\n        /* \"#utility.yul\":5483:5486   */\n      0xa0\n        /* \"#utility.yul\":5472:5481   */\n      dup4\n        /* \"#utility.yul\":5468:5487   */\n      add\n        /* \"#utility.yul\":5459:5465   */\n      dup5\n        /* \"#utility.yul\":5421:5488   */\n      tag_317\n      jump\t// in\n    tag_422:\n        /* \"#utility.yul\":4744:5495   */\n      swap8\n      swap7\n      pop\n      pop\n      pop\n      pop\n      pop\n      pop\n      pop\n      jump\t// out\n        /* \"#utility.yul\":5501:5644   */\n    tag_318:\n        /* \"#utility.yul\":5558:5563   */\n      0x00\n        /* \"#utility.yul\":5589:5595   */\n      dup2\n        /* \"#utility.yul\":5583:5596   */\n      mload\n        /* \"#utility.yul\":5574:5596   */\n      swap1\n      pop\n        /* \"#utility.yul\":5605:5638   */\n      tag_424\n        /* \"#utility.yul\":5632:5637   */\n      dup2\n        /* \"#utility.yul\":5605:5638   */\n      tag_313\n      jump\t// in\n    tag_424:\n        /* \"#utility.yul\":5501:5644   */\n      swap3\n      swap2\n      pop\n      pop\n      jump\t// out\n        /* \"#utility.yul\":5650:6157   */\n    tag_113:\n        /* \"#utility.yul\":5729:5735   */\n      0x00\n        /* \"#utility.yul\":5737:5743   */\n      dup1\n        /* \"#utility.yul\":5786:5788   */\n      0x40\n        /* \"#utility.yul\":5774:5783   */\n      dup4\n        /* \"#utility.yul\":5765:5772   */\n      dup6\n        /* \"#utility.yul\":5761:5784   */\n      sub\n        /* \"#utility.yul\":5757:5789   */\n      slt\n        /* \"#utility.yul\":5754:5873   */\n      iszero\n      tag_426\n      jumpi\n        /* \"#utility.yul\":5792:5871   */\n      tag_427\n      tag_296\n      jump\t// in\n    tag_427:\n        /* \"#utility.yul\":5754:5873   */\n    tag_426:\n        /* \"#utility.yul\":5912:5913   */\n      0x00\n        /* \"#utility.yul\":5937:6001   */\n      tag_428\n        /* \"#utility.yul\":5993:6000   */\n      dup6\n        /* \"#utility.yul\":5984:5990   */\n      dup3\n        /* \"#utility.yul\":5973:5982   */\n      dup7\n        /* \"#utility.yul\":5969:5991   */\n      add\n        /* \"#utility.yul\":5937:6001   */\n      tag_318\n      jump\t// in\n    tag_428:\n        /* \"#utility.yul\":5927:6001   */\n      swap3\n      pop\n        /* \"#utility.yul\":5883:6011   */\n      pop\n        /* \"#utility.yul\":6050:6052   */\n      0x20\n        /* \"#utility.yul\":6076:6140   */\n      tag_429\n        /* \"#utility.yul\":6132:6139   */\n      dup6\n        /* \"#utility.yul\":6123:6129   */\n      dup3\n        /* \"#utility.yul\":6112:6121   */\n      dup7\n        /* \"#utility.yul\":6108:6130   */\n      add\n        /* \"#utility.yul\":6076:6140   */\n      tag_318\n      jump\t// in\n    tag_429:\n        /* \"#utility.yul\":6066:6140   */\n      swap2\n      pop\n        /* \"#utility.yul\":6021:6150   */\n      pop\n        /* \"#utility.yul\":5650:6157   */\n      swap3\n      pop\n      swap3\n      swap1\n      pop\n      jump\t// out\n        /* \"#utility.yul\":6163:6343   */\n    tag_319:\n        /* \"#utility.yul\":6211:6288   */\n      0x4e487b7100000000000000000000000000000000000000000000000000000000\n        /* \"#utility.yul\":6208:6209   */\n      0x00\n        /* \"#utility.yul\":6201:6289   */\n      mstore\n        /* \"#utility.yul\":6308:6312   */\n      0x11\n        /* \"#utility.yul\":6305:6306   */\n      0x04\n        /* \"#utility.yul\":6298:6313   */\n      mstore\n        /* \"#utility.yul\":6332:6336   */\n      0x24\n        /* \"#utility.yul\":6329:6330   */\n      0x00\n        /* \"#utility.yul\":6322:6337   */\n      revert\n        /* \"#utility.yul\":6349:6759   */\n    tag_117:\n        /* \"#utility.yul\":6389:6396   */\n      0x00\n        /* \"#utility.yul\":6412:6432   */\n      tag_432\n        /* \"#utility.yul\":6430:6431   */\n      dup3\n        /* \"#utility.yul\":6412:6432   */\n      tag_302\n      jump\t// in\n    tag_432:\n        /* \"#utility.yul\":6407:6432   */\n      swap2\n      pop\n        /* \"#utility.yul\":6446:6466   */\n      tag_433\n        /* \"#utility.yul\":6464:6465   */\n      dup4\n        /* \"#utility.yul\":6446:6466   */\n      tag_302\n      jump\t// in\n    tag_433:\n        /* \"#utility.yul\":6441:6466   */\n      swap3\n      pop\n        /* \"#utility.yul\":6501:6502   */\n      dup3\n        /* \"#utility.yul\":6498:6499   */\n      dup3\n        /* \"#utility.yul\":6494:6503   */\n      mul\n        /* \"#utility.yul\":6523:6553   */\n      tag_434\n        /* \"#utility.yul\":6541:6552   */\n      dup2\n        /* \"#utility.yul\":6523:6553   */\n      tag_302\n      jump\t// in\n    tag_434:\n        /* \"#utility.yul\":6512:6553   */\n      swap2\n      pop\n        /* \"#utility.yul\":6702:6703   */\n      dup3\n        /* \"#utility.yul\":6693:6700   */\n      dup3\n        /* \"#utility.yul\":6689:6704   */\n      div\n        /* \"#utility.yul\":6686:6687   */\n      dup5\n        /* \"#utility.yul\":6683:6705   */\n      eq\n        /* \"#utility.yul\":6663:6664   */\n      dup4\n        /* \"#utility.yul\":6656:6665   */\n      iszero\n        /* \"#utility.yul\":6636:6719   */\n      or\n        /* \"#utility.yul\":6613:6752   */\n      tag_435\n      jumpi\n        /* \"#utility.yul\":6732:6750   */\n      tag_436\n      tag_319\n      jump\t// in\n    tag_436:\n        /* \"#utility.yul\":6613:6752   */\n    tag_435:\n        /* \"#utility.yul\":6397:6759   */\n      pop\n        /* \"#utility.yul\":6349:6759   */\n      swap3\n      swap2\n      pop\n      pop\n      jump\t// out\n        /* \"#utility.yul\":6765:6945   */\n    tag_320:\n        /* \"#utility.yul\":6813:6890   */\n      0x4e487b7100000000000000000000000000000000000000000000000000000000\n        /* \"#utility.yul\":6810:6811   */\n      0x00\n        /* \"#utility.yul\":6803:6891   */\n      mstore\n        /* \"#utility.yul\":6910:6914   */\n      0x12\n        /* \"#utility.yul\":6907:6908   */\n      0x04\n        /* \"#utility.yul\":6900:6915   */\n      mstore\n        /* \"#utility.yul\":6934:6938   */\n      0x24\n        /* \"#utility.yul\":6931:6932   */\n      0x00\n        /* \"#utility.yul\":6924:6939   */\n      revert\n        /* \"#utility.yul\":6951:7136   */\n    tag_119:\n        /* \"#utility.yul\":6991:6992   */\n      0x00\n        /* \"#utility.yul\":7008:7028   */\n      tag_439\n        /* \"#utility.yul\":7026:7027   */\n      dup3\n        /* \"#utility.yul\":7008:7028   */\n      tag_302\n      jump\t// in\n    tag_439:\n        /* \"#utility.yul\":7003:7028   */\n      swap2\n      pop\n        /* \"#utility.yul\":7042:7062   */\n      tag_440\n        /* \"#utility.yul\":7060:7061   */\n      dup4\n        /* \"#utility.yul\":7042:7062   */\n      tag_302\n      jump\t// in\n    tag_440:\n        /* \"#utility.yul\":7037:7062   */\n      swap3\n      pop\n        /* \"#utility.yul\":7081:7082   */\n      dup3\n        /* \"#utility.yul\":7071:7106   */\n      tag_441\n      jumpi\n        /* \"#utility.yul\":7086:7104   */\n      tag_442\n      tag_320\n      jump\t// in\n    tag_442:\n        /* \"#utility.yul\":7071:7106   */\n    tag_441:\n        /* \"#utility.yul\":7128:7129   */\n      dup3\n        /* \"#utility.yul\":7125:7126   */\n      dup3\n        /* \"#utility.yul\":7121:7130   */\n      div\n        /* \"#utility.yul\":7116:7130   */\n      swap1\n      pop\n        /* \"#utility.yul\":6951:7136   */\n      swap3\n      swap2\n      pop\n      pop\n      jump\t// out\n        /* \"#utility.yul\":7142:7333   */\n    tag_123:\n        /* \"#utility.yul\":7182:7185   */\n      0x00\n        /* \"#utility.yul\":7201:7221   */\n      tag_444\n        /* \"#utility.yul\":7219:7220   */\n      dup3\n        /* \"#utility.yul\":7201:7221   */\n      tag_302\n      jump\t// in\n    tag_444:\n        /* \"#utility.yul\":7196:7221   */\n      swap2\n      pop\n        /* \"#utility.yul\":7235:7255   */\n      tag_445\n        /* \"#utility.yul\":7253:7254   */\n      dup4\n        /* \"#utility.yul\":7235:7255   */\n      tag_302\n      jump\t// in\n    tag_445:\n        /* \"#utility.yul\":7230:7255   */\n      swap3\n      pop\n        /* \"#utility.yul\":7278:7279   */\n      dup3\n        /* \"#utility.yul\":7275:7276   */\n      dup3\n        /* \"#utility.yul\":7271:7280   */\n      add\n        /* \"#utility.yul\":7264:7280   */\n      swap1\n      pop\n        /* \"#utility.yul\":7299:7302   */\n      dup1\n        /* \"#utility.yul\":7296:7297   */\n      dup3\n        /* \"#utility.yul\":7293:7303   */\n      gt\n        /* \"#utility.yul\":7290:7326   */\n      iszero\n      tag_446\n      jumpi\n        /* \"#utility.yul\":7306:7324   */\n      tag_447\n      tag_319\n      jump\t// in\n    tag_447:\n        /* \"#utility.yul\":7290:7326   */\n    tag_446:\n        /* \"#utility.yul\":7142:7333   */\n      swap3\n      swap2\n      pop\n      pop\n      jump\t// out\n        /* \"#utility.yul\":7339:7444   */\n    tag_321:\n        /* \"#utility.yul\":7375:7382   */\n      0x00\n        /* \"#utility.yul\":7415:7437   */\n      0xffffffffffffffffffff\n        /* \"#utility.yul\":7408:7413   */\n      dup3\n        /* \"#utility.yul\":7404:7438   */\n      and\n        /* \"#utility.yul\":7393:7438   */\n      swap1\n      pop\n        /* \"#utility.yul\":7339:7444   */\n      swap2\n      swap1\n      pop\n      jump\t// out\n        /* \"#utility.yul\":7450:7570   */\n    tag_322:\n        /* \"#utility.yul\":7522:7545   */\n      tag_450\n        /* \"#utility.yul\":7539:7544   */\n      dup2\n        /* \"#utility.yul\":7522:7545   */\n      tag_321\n      jump\t// in\n    tag_450:\n        /* \"#utility.yul\":7515:7520   */\n      dup2\n        /* \"#utility.yul\":7512:7546   */\n      eq\n        /* \"#utility.yul\":7502:7564   */\n      tag_451\n      jumpi\n        /* \"#utility.yul\":7560:7561   */\n      0x00\n        /* \"#utility.yul\":7557:7558   */\n      dup1\n        /* \"#utility.yul\":7550:7562   */\n      revert\n        /* \"#utility.yul\":7502:7564   */\n    tag_451:\n        /* \"#utility.yul\":7450:7570   */\n      pop\n      jump\t// out\n        /* \"#utility.yul\":7576:7717   */\n    tag_323:\n        /* \"#utility.yul\":7632:7637   */\n      0x00\n        /* \"#utility.yul\":7663:7669   */\n      dup2\n        /* \"#utility.yul\":7657:7670   */\n      mload\n        /* \"#utility.yul\":7648:7670   */\n      swap1\n      pop\n        /* \"#utility.yul\":7679:7711   */\n      tag_453\n        /* \"#utility.yul\":7705:7710   */\n      dup2\n        /* \"#utility.yul\":7679:7711   */\n      tag_322\n      jump\t// in\n    tag_453:\n        /* \"#utility.yul\":7576:7717   */\n      swap3\n      swap2\n      pop\n      pop\n      jump\t// out\n        /* \"#utility.yul\":7723:7843   */\n    tag_324:\n        /* \"#utility.yul\":7795:7818   */\n      tag_455\n        /* \"#utility.yul\":7812:7817   */\n      dup2\n        /* \"#utility.yul\":7795:7818   */\n      tag_309\n      jump\t// in\n    tag_455:\n        /* \"#utility.yul\":7788:7793   */\n      dup2\n        /* \"#utility.yul\":7785:7819   */\n      eq\n        /* \"#utility.yul\":7775:7837   */\n      tag_456\n      jumpi\n        /* \"#utility.yul\":7833:7834   */\n      0x00\n        /* \"#utility.yul\":7830:7831   */\n      dup1\n        /* \"#utility.yul\":7823:7835   */\n      revert\n        /* \"#utility.yul\":7775:7837   */\n    tag_456:\n        /* \"#utility.yul\":7723:7843   */\n      pop\n      jump\t// out\n        /* \"#utility.yul\":7849:7990   */\n    tag_325:\n        /* \"#utility.yul\":7905:7910   */\n      0x00\n        /* \"#utility.yul\":7936:7942   */\n      dup2\n        /* \"#utility.yul\":7930:7943   */\n      mload\n        /* \"#utility.yul\":7921:7943   */\n      swap1\n      pop\n        /* \"#utility.yul\":7952:7984   */\n      tag_458\n        /* \"#utility.yul\":7978:7983   */\n      dup2\n        /* \"#utility.yul\":7952:7984   */\n      tag_324\n      jump\t// in\n    tag_458:\n        /* \"#utility.yul\":7849:7990   */\n      swap3\n      swap2\n      pop\n      pop\n      jump\t// out\n        /* \"#utility.yul\":7996:8967   */\n    tag_128:\n        /* \"#utility.yul\":8099:8105   */\n      0x00\n        /* \"#utility.yul\":8107:8113   */\n      dup1\n        /* \"#utility.yul\":8115:8121   */\n      0x00\n        /* \"#utility.yul\":8123:8129   */\n      dup1\n        /* \"#utility.yul\":8131:8137   */\n      0x00\n        /* \"#utility.yul\":8180:8183   */\n      0xa0\n        /* \"#utility.yul\":8168:8177   */\n      dup7\n        /* \"#utility.yul\":8159:8166   */\n      dup9\n        /* \"#utility.yul\":8155:8178   */\n      sub\n        /* \"#utility.yul\":8151:8184   */\n      slt\n        /* \"#utility.yul\":8148:8268   */\n      iszero\n      tag_460\n      jumpi\n        /* \"#utility.yul\":8187:8266   */\n      tag_461\n      tag_296\n      jump\t// in\n    tag_461:\n        /* \"#utility.yul\":8148:8268   */\n    tag_460:\n        /* \"#utility.yul\":8307:8308   */\n      0x00\n        /* \"#utility.yul\":8332:8395   */\n      tag_462\n        /* \"#utility.yul\":8387:8394   */\n      dup9\n        /* \"#utility.yul\":8378:8384   */\n      dup3\n        /* \"#utility.yul\":8367:8376   */\n      dup10\n        /* \"#utility.yul\":8363:8385   */\n      add\n        /* \"#utility.yul\":8332:8395   */\n      tag_323\n      jump\t// in\n    tag_462:\n        /* \"#utility.yul\":8322:8395   */\n      swap6\n      pop\n        /* \"#utility.yul\":8278:8405   */\n      pop\n        /* \"#utility.yul\":8444:8446   */\n      0x20\n        /* \"#utility.yul\":8470:8533   */\n      tag_463\n        /* \"#utility.yul\":8525:8532   */\n      dup9\n        /* \"#utility.yul\":8516:8522   */\n      dup3\n        /* \"#utility.yul\":8505:8514   */\n      dup10\n        /* \"#utility.yul\":8501:8523   */\n      add\n        /* \"#utility.yul\":8470:8533   */\n      tag_325\n      jump\t// in\n    tag_463:\n        /* \"#utility.yul\":8460:8533   */\n      swap5\n      pop\n        /* \"#utility.yul\":8415:8543   */\n      pop\n        /* \"#utility.yul\":8582:8584   */\n      0x40\n        /* \"#utility.yul\":8608:8672   */\n      tag_464\n        /* \"#utility.yul\":8664:8671   */\n      dup9\n        /* \"#utility.yul\":8655:8661   */\n      dup3\n        /* \"#utility.yul\":8644:8653   */\n      dup10\n        /* \"#utility.yul\":8640:8662   */\n      add\n        /* \"#utility.yul\":8608:8672   */\n      tag_318\n      jump\t// in\n    tag_464:\n        /* \"#utility.yul\":8598:8672   */\n      swap4\n      pop\n        /* \"#utility.yul\":8553:8682   */\n      pop\n        /* \"#utility.yul\":8721:8723   */\n      0x60\n        /* \"#utility.yul\":8747:8811   */\n      tag_465\n        /* \"#utility.yul\":8803:8810   */\n      dup9\n        /* \"#utility.yul\":8794:8800   */\n      dup3\n        /* \"#utility.yul\":8783:8792   */\n      dup10\n        /* \"#utility.yul\":8779:8801   */\n      add\n        /* \"#utility.yul\":8747:8811   */\n      tag_318\n      jump\t// in\n    tag_465:\n        /* \"#utility.yul\":8737:8811   */\n      swap3\n      pop\n        /* \"#utility.yul\":8692:8821   */\n      pop\n        /* \"#utility.yul\":8860:8863   */\n      0x80\n        /* \"#utility.yul\":8887:8950   */\n      tag_466\n        /* \"#utility.yul\":8942:8949   */\n      dup9\n        /* \"#utility.yul\":8933:8939   */\n      dup3\n        /* \"#utility.yul\":8922:8931   */\n      dup10\n        /* \"#utility.yul\":8918:8940   */\n      add\n        /* \"#utility.yul\":8887:8950   */\n      tag_323\n      jump\t// in\n    tag_466:\n        /* \"#utility.yul\":8877:8950   */\n      swap2\n      pop\n        /* \"#utility.yul\":8831:8960   */\n      pop\n        /* \"#utility.yul\":7996:8967   */\n      swap3\n      swap6\n      pop\n      swap3\n      swap6\n      swap1\n      swap4\n      pop\n      jump\t// out\n        /* \"#utility.yul\":8973:9142   */\n    tag_326:\n        /* \"#utility.yul\":9057:9068   */\n      0x00\n        /* \"#utility.yul\":9091:9097   */\n      dup3\n        /* \"#utility.yul\":9086:9089   */\n      dup3\n        /* \"#utility.yul\":9079:9098   */\n      mstore\n        /* \"#utility.yul\":9131:9135   */\n      0x20\n        /* \"#utility.yul\":9126:9129   */\n      dup3\n        /* \"#utility.yul\":9122:9136   */\n      add\n        /* \"#utility.yul\":9107:9136   */\n      swap1\n      pop\n        /* \"#utility.yul\":8973:9142   */\n      swap3\n      swap2\n      pop\n      pop\n      jump\t// out\n        /* \"#utility.yul\":9148:9325   */\n    tag_327:\n        /* \"#utility.yul\":9288:9317   */\n      0x4c6f616e4d616e616765723a204e6f20616374697665206c6f616e0000000000\n        /* \"#utility.yul\":9284:9285   */\n      0x00\n        /* \"#utility.yul\":9276:9282   */\n      dup3\n        /* \"#utility.yul\":9272:9286   */\n      add\n        /* \"#utility.yul\":9265:9318   */\n      mstore\n        /* \"#utility.yul\":9148:9325   */\n      pop\n      jump\t// out\n        /* \"#utility.yul\":9331:9697   */\n    tag_328:\n        /* \"#utility.yul\":9473:9476   */\n      0x00\n        /* \"#utility.yul\":9494:9561   */\n      tag_470\n        /* \"#utility.yul\":9558:9560   */\n      0x1b\n        /* \"#utility.yul\":9553:9556   */\n      dup4\n        /* \"#utility.yul\":9494:9561   */\n      tag_326\n      jump\t// in\n    tag_470:\n        /* \"#utility.yul\":9487:9561   */\n      swap2\n      pop\n        /* \"#utility.yul\":9570:9663   */\n      tag_471\n        /* \"#utility.yul\":9659:9662   */\n      dup3\n        /* \"#utility.yul\":9570:9663   */\n      tag_327\n      jump\t// in\n    tag_471:\n        /* \"#utility.yul\":9688:9690   */\n      0x20\n        /* \"#utility.yul\":9683:9686   */\n      dup3\n        /* \"#utility.yul\":9679:9691   */\n      add\n        /* \"#utility.yul\":9672:9691   */\n      swap1\n      pop\n        /* \"#utility.yul\":9331:9697   */\n      swap2\n      swap1\n      pop\n      jump\t// out\n        /* \"#utility.yul\":9703:10122   */\n    tag_135:\n        /* \"#utility.yul\":9869:9873   */\n      0x00\n        /* \"#utility.yul\":9907:9909   */\n      0x20\n        /* \"#utility.yul\":9896:9905   */\n      dup3\n        /* \"#utility.yul\":9892:9910   */\n      add\n        /* \"#utility.yul\":9884:9910   */\n      swap1\n      pop\n        /* \"#utility.yul\":9956:9965   */\n      dup2\n        /* \"#utility.yul\":9950:9954   */\n      dup2\n        /* \"#utility.yul\":9946:9966   */\n      sub\n        /* \"#utility.yul\":9942:9943   */\n      0x00\n        /* \"#utility.yul\":9931:9940   */\n      dup4\n        /* \"#utility.yul\":9927:9944   */\n      add\n        /* \"#utility.yul\":9920:9967   */\n      mstore\n        /* \"#utility.yul\":9984:10115   */\n      tag_473\n        /* \"#utility.yul\":10110:10114   */\n      dup2\n        /* \"#utility.yul\":9984:10115   */\n      tag_328\n      jump\t// in\n    tag_473:\n        /* \"#utility.yul\":9976:10115   */\n      swap1\n      pop\n        /* \"#utility.yul\":9703:10122   */\n      swap2\n      swap1\n      pop\n      jump\t// out\n        /* \"#utility.yul\":10128:10309   */\n    tag_329:\n        /* \"#utility.yul\":10268:10301   */\n      0x4c6f616e4d616e616765723a204c6f616e206e6f742064656661756c74656400\n        /* \"#utility.yul\":10264:10265   */\n      0x00\n        /* \"#utility.yul\":10256:10262   */\n      dup3\n        /* \"#utility.yul\":10252:10266   */\n      add\n        /* \"#utility.yul\":10245:10302   */\n      mstore\n        /* \"#utility.yul\":10128:10309   */\n      pop\n      jump\t// out\n        /* \"#utility.yul\":10315:10681   */\n    tag_330:\n        /* \"#utility.yul\":10457:10460   */\n      0x00\n        /* \"#utility.yul\":10478:10545   */\n      tag_476\n        /* \"#utility.yul\":10542:10544   */\n      0x1f\n        /* \"#utility.yul\":10537:10540   */\n      dup4\n        /* \"#utility.yul\":10478:10545   */\n      tag_326\n      jump\t// in\n    tag_476:\n        /* \"#utility.yul\":10471:10545   */\n      swap2\n      pop\n        /* \"#utility.yul\":10554:10647   */\n      tag_477\n        /* \"#utility.yul\":10643:10646   */\n      dup3\n        /* \"#utility.yul\":10554:10647   */\n      tag_329\n      jump\t// in\n    tag_477:\n        /* \"#utility.yul\":10672:10674   */\n      0x20\n        /* \"#utility.yul\":10667:10670   */\n      dup3\n        /* \"#utility.yul\":10663:10675   */\n      add\n        /* \"#utility.yul\":10656:10675   */\n      swap1\n      pop\n        /* \"#utility.yul\":10315:10681   */\n      swap2\n      swap1\n      pop\n      jump\t// out\n        /* \"#utility.yul\":10687:11106   */\n    tag_138:\n        /* \"#utility.yul\":10853:10857   */\n      0x00\n        /* \"#utility.yul\":10891:10893   */\n      0x20\n        /* \"#utility.yul\":10880:10889   */\n      dup3\n        /* \"#utility.yul\":10876:10894   */\n      add\n        /* \"#utility.yul\":10868:10894   */\n      swap1\n      pop\n        /* \"#utility.yul\":10940:10949   */\n      dup2\n        /* \"#utility.yul\":10934:10938   */\n      dup2\n        /* \"#utility.yul\":10930:10950   */\n      sub\n        /* \"#utility.yul\":10926:10927   */\n      0x00\n        /* \"#utility.yul\":10915:10924   */\n      dup4\n        /* \"#utility.yul\":10911:10928   */\n      add\n        /* \"#utility.yul\":10904:10951   */\n      mstore\n        /* \"#utility.yul\":10968:11099   */\n      tag_479\n        /* \"#utility.yul\":11094:11098   */\n      dup2\n        /* \"#utility.yul\":10968:11099   */\n      tag_330\n      jump\t// in\n    tag_479:\n        /* \"#utility.yul\":10960:11099   */\n      swap1\n      pop\n        /* \"#utility.yul\":10687:11106   */\n      swap2\n      swap1\n      pop\n      jump\t// out\n        /* \"#utility.yul\":11112:11288   */\n    tag_331:\n        /* \"#utility.yul\":11252:11280   */\n      0x4c6f616e4d616e616765723a20496e76616c696420726174696f000000000000\n        /* \"#utility.yul\":11248:11249   */\n      0x00\n        /* \"#utility.yul\":11240:11246   */\n      dup3\n        /* \"#utility.yul\":11236:11250   */\n      add\n        /* \"#utility.yul\":11229:11281   */\n      mstore\n        /* \"#utility.yul\":11112:11288   */\n      pop\n      jump\t// out\n        /* \"#utility.yul\":11294:11660   */\n    tag_332:\n        /* \"#utility.yul\":11436:11439   */\n      0x00\n        /* \"#utility.yul\":11457:11524   */\n      tag_482\n        /* \"#utility.yul\":11521:11523   */\n      0x1a\n        /* \"#utility.yul\":11516:11519   */\n      dup4\n        /* \"#utility.yul\":11457:11524   */\n      tag_326\n      jump\t// in\n    tag_482:\n        /* \"#utility.yul\":11450:11524   */\n      swap2\n      pop\n        /* \"#utility.yul\":11533:11626   */\n      tag_483\n        /* \"#utility.yul\":11622:11625   */\n      dup3\n        /* \"#utility.yul\":11533:11626   */\n      tag_331\n      jump\t// in\n    tag_483:\n        /* \"#utility.yul\":11651:11653   */\n      0x20\n        /* \"#utility.yul\":11646:11649   */\n      dup3\n        /* \"#utility.yul\":11642:11654   */\n      add\n        /* \"#utility.yul\":11635:11654   */\n      swap1\n      pop\n        /* \"#utility.yul\":11294:11660   */\n      swap2\n      swap1\n      pop\n      jump\t// out\n        /* \"#utility.yul\":11666:12085   */\n    tag_148:\n        /* \"#utility.yul\":11832:11836   */\n      0x00\n        /* \"#utility.yul\":11870:11872   */\n      0x20\n        /* \"#utility.yul\":11859:11868   */\n      dup3\n        /* \"#utility.yul\":11855:11873   */\n      add\n        /* \"#utility.yul\":11847:11873   */\n      swap1\n      pop\n        /* \"#utility.yul\":11919:11928   */\n      dup2\n        /* \"#utility.yul\":11913:11917   */\n      dup2\n        /* \"#utility.yul\":11909:11929   */\n      sub\n        /* \"#utility.yul\":11905:11906   */\n      0x00\n        /* \"#utility.yul\":11894:11903   */\n      dup4\n        /* \"#utility.yul\":11890:11907   */\n      add\n        /* \"#utility.yul\":11883:11930   */\n      mstore\n        /* \"#utility.yul\":11947:12078   */\n      tag_485\n        /* \"#utility.yul\":12073:12077   */\n      dup2\n        /* \"#utility.yul\":11947:12078   */\n      tag_332\n      jump\t// in\n    tag_485:\n        /* \"#utility.yul\":11939:12078   */\n      swap1\n      pop\n        /* \"#utility.yul\":11666:12085   */\n      swap2\n      swap1\n      pop\n      jump\t// out\n        /* \"#utility.yul\":12091:12325   */\n    tag_333:\n        /* \"#utility.yul\":12231:12265   */\n      0x4c6f616e4d616e616765723a204c6f616e20616d6f756e74206d757374206265\n        /* \"#utility.yul\":12227:12228   */\n      0x00\n        /* \"#utility.yul\":12219:12225   */\n      dup3\n        /* \"#utility.yul\":12215:12229   */\n      add\n        /* \"#utility.yul\":12208:12266   */\n      mstore\n        /* \"#utility.yul\":12300:12317   */\n      0x2067726561746572207468616e20300000000000000000000000000000000000\n        /* \"#utility.yul\":12295:12297   */\n      0x20\n        /* \"#utility.yul\":12287:12293   */\n      dup3\n        /* \"#utility.yul\":12283:12298   */\n      add\n        /* \"#utility.yul\":12276:12318   */\n      mstore\n        /* \"#utility.yul\":12091:12325   */\n      pop\n      jump\t// out\n        /* \"#utility.yul\":12331:12697   */\n    tag_334:\n        /* \"#utility.yul\":12473:12476   */\n      0x00\n        /* \"#utility.yul\":12494:12561   */\n      tag_488\n        /* \"#utility.yul\":12558:12560   */\n      0x2f\n        /* \"#utility.yul\":12553:12556   */\n      dup4\n        /* \"#utility.yul\":12494:12561   */\n      tag_326\n      jump\t// in\n    tag_488:\n        /* \"#utility.yul\":12487:12561   */\n      swap2\n      pop\n        /* \"#utility.yul\":12570:12663   */\n      tag_489\n        /* \"#utility.yul\":12659:12662   */\n      dup3\n        /* \"#utility.yul\":12570:12663   */\n      tag_333\n      jump\t// in\n    tag_489:\n        /* \"#utility.yul\":12688:12690   */\n      0x40\n        /* \"#utility.yul\":12683:12686   */\n      dup3\n        /* \"#utility.yul\":12679:12691   */\n      add\n        /* \"#utility.yul\":12672:12691   */\n      swap1\n      pop\n        /* \"#utility.yul\":12331:12697   */\n      swap2\n      swap1\n      pop\n      jump\t// out\n        /* \"#utility.yul\":12703:13122   */\n    tag_172:\n        /* \"#utility.yul\":12869:12873   */\n      0x00\n        /* \"#utility.yul\":12907:12909   */\n      0x20\n        /* \"#utility.yul\":12896:12905   */\n      dup3\n        /* \"#utility.yul\":12892:12910   */\n      add\n        /* \"#utility.yul\":12884:12910   */\n      swap1\n      pop\n        /* \"#utility.yul\":12956:12965   */\n      dup2\n        /* \"#utility.yul\":12950:12954   */\n      dup2\n        /* \"#utility.yul\":12946:12966   */\n      sub\n        /* \"#utility.yul\":12942:12943   */\n      0x00\n        /* \"#utility.yul\":12931:12940   */\n      dup4\n        /* \"#utility.yul\":12927:12944   */\n      add\n        /* \"#utility.yul\":12920:12967   */\n      mstore\n        /* \"#utility.yul\":12984:13115   */\n      tag_491\n        /* \"#utility.yul\":13110:13114   */\n      dup2\n        /* \"#utility.yul\":12984:13115   */\n      tag_334\n      jump\t// in\n    tag_491:\n        /* \"#utility.yul\":12976:13115   */\n      swap1\n      pop\n        /* \"#utility.yul\":12703:13122   */\n      swap2\n      swap1\n      pop\n      jump\t// out\n        /* \"#utility.yul\":13128:13362   */\n    tag_335:\n        /* \"#utility.yul\":13268:13302   */\n      0x4c6f616e4d616e616765723a204578697374696e67206c6f616e206d75737420\n        /* \"#utility.yul\":13264:13265   */\n      0x00\n        /* \"#utility.yul\":13256:13262   */\n      dup3\n        /* \"#utility.yul\":13252:13266   */\n      add\n        /* \"#utility.yul\":13245:13303   */\n      mstore\n        /* \"#utility.yul\":13337:13354   */\n      0x6265207265706169642066697273740000000000000000000000000000000000\n        /* \"#utility.yul\":13332:13334   */\n      0x20\n        /* \"#utility.yul\":13324:13330   */\n      dup3\n        /* \"#utility.yul\":13320:13335   */\n      add\n        /* \"#utility.yul\":13313:13355   */\n      mstore\n        /* \"#utility.yul\":13128:13362   */\n      pop\n      jump\t// out\n        /* \"#utility.yul\":13368:13734   */\n    tag_336:\n        /* \"#utility.yul\":13510:13513   */\n      0x00\n        /* \"#utility.yul\":13531:13598   */\n      tag_494\n        /* \"#utility.yul\":13595:13597   */\n      0x2f\n        /* \"#utility.yul\":13590:13593   */\n      dup4\n        /* \"#utility.yul\":13531:13598   */\n      tag_326\n      jump\t// in\n    tag_494:\n        /* \"#utility.yul\":13524:13598   */\n      swap2\n      pop\n        /* \"#utility.yul\":13607:13700   */\n      tag_495\n        /* \"#utility.yul\":13696:13699   */\n      dup3\n        /* \"#utility.yul\":13607:13700   */\n      tag_335\n      jump\t// in\n    tag_495:\n        /* \"#utility.yul\":13725:13727   */\n      0x40\n        /* \"#utility.yul\":13720:13723   */\n      dup3\n        /* \"#utility.yul\":13716:13728   */\n      add\n        /* \"#utility.yul\":13709:13728   */\n      swap1\n      pop\n        /* \"#utility.yul\":13368:13734   */\n      swap2\n      swap1\n      pop\n      jump\t// out\n        /* \"#utility.yul\":13740:14159   */\n    tag_175:\n        /* \"#utility.yul\":13906:13910   */\n      0x00\n        /* \"#utility.yul\":13944:13946   */\n      0x20\n        /* \"#utility.yul\":13933:13942   */\n      dup3\n        /* \"#utility.yul\":13929:13947   */\n      add\n        /* \"#utility.yul\":13921:13947   */\n      swap1\n      pop\n        /* \"#utility.yul\":13993:14002   */\n      dup2\n        /* \"#utility.yul\":13987:13991   */\n      dup2\n        /* \"#utility.yul\":13983:14003   */\n      sub\n        /* \"#utility.yul\":13979:13980   */\n      0x00\n        /* \"#utility.yul\":13968:13977   */\n      dup4\n        /* \"#utility.yul\":13964:13981   */\n      add\n        /* \"#utility.yul\":13957:14004   */\n      mstore\n        /* \"#utility.yul\":14021:14152   */\n      tag_497\n        /* \"#utility.yul\":14147:14151   */\n      dup2\n        /* \"#utility.yul\":14021:14152   */\n      tag_336\n      jump\t// in\n    tag_497:\n        /* \"#utility.yul\":14013:14152   */\n      swap1\n      pop\n        /* \"#utility.yul\":13740:14159   */\n      swap2\n      swap1\n      pop\n      jump\t// out\n        /* \"#utility.yul\":14165:14497   */\n    tag_188:\n        /* \"#utility.yul\":14286:14290   */\n      0x00\n        /* \"#utility.yul\":14324:14326   */\n      0x40\n        /* \"#utility.yul\":14313:14322   */\n      dup3\n        /* \"#utility.yul\":14309:14327   */\n      add\n        /* \"#utility.yul\":14301:14327   */\n      swap1\n      pop\n        /* \"#utility.yul\":14337:14408   */\n      tag_499\n        /* \"#utility.yul\":14405:14406   */\n      0x00\n        /* \"#utility.yul\":14394:14403   */\n      dup4\n        /* \"#utility.yul\":14390:14407   */\n      add\n        /* \"#utility.yul\":14381:14387   */\n      dup6\n        /* \"#utility.yul\":14337:14408   */\n      tag_315\n      jump\t// in\n    tag_499:\n        /* \"#utility.yul\":14418:14490   */\n      tag_500\n        /* \"#utility.yul\":14486:14488   */\n      0x20\n        /* \"#utility.yul\":14475:14484   */\n      dup4\n        /* \"#utility.yul\":14471:14489   */\n      add\n        /* \"#utility.yul\":14462:14468   */\n      dup5\n        /* \"#utility.yul\":14418:14490   */\n      tag_303\n      jump\t// in\n    tag_500:\n        /* \"#utility.yul\":14165:14497   */\n      swap4\n      swap3\n      pop\n      pop\n      pop\n      jump\t// out\n        /* \"#utility.yul\":14503:14619   */\n    tag_337:\n        /* \"#utility.yul\":14573:14594   */\n      tag_502\n        /* \"#utility.yul\":14588:14593   */\n      dup2\n        /* \"#utility.yul\":14573:14594   */\n      tag_316\n      jump\t// in\n    tag_502:\n        /* \"#utility.yul\":14566:14571   */\n      dup2\n        /* \"#utility.yul\":14563:14595   */\n      eq\n        /* \"#utility.yul\":14553:14613   */\n      tag_503\n      jumpi\n        /* \"#utility.yul\":14609:14610   */\n      0x00\n        /* \"#utility.yul\":14606:14607   */\n      dup1\n        /* \"#utility.yul\":14599:14611   */\n      revert\n        /* \"#utility.yul\":14553:14613   */\n    tag_503:\n        /* \"#utility.yul\":14503:14619   */\n      pop\n      jump\t// out\n        /* \"#utility.yul\":14625:14762   */\n    tag_338:\n        /* \"#utility.yul\":14679:14684   */\n      0x00\n        /* \"#utility.yul\":14710:14716   */\n      dup2\n        /* \"#utility.yul\":14704:14717   */\n      mload\n        /* \"#utility.yul\":14695:14717   */\n      swap1\n      pop\n        /* \"#utility.yul\":14726:14756   */\n      tag_505\n        /* \"#utility.yul\":14750:14755   */\n      dup2\n        /* \"#utility.yul\":14726:14756   */\n      tag_337\n      jump\t// in\n    tag_505:\n        /* \"#utility.yul\":14625:14762   */\n      swap3\n      swap2\n      pop\n      pop\n      jump\t// out\n        /* \"#utility.yul\":14768:15113   */\n    tag_192:\n        /* \"#utility.yul\":14835:14841   */\n      0x00\n        /* \"#utility.yul\":14884:14886   */\n      0x20\n        /* \"#utility.yul\":14872:14881   */\n      dup3\n        /* \"#utility.yul\":14863:14870   */\n      dup5\n        /* \"#utility.yul\":14859:14882   */\n      sub\n        /* \"#utility.yul\":14855:14887   */\n      slt\n        /* \"#utility.yul\":14852:14971   */\n      iszero\n      tag_507\n      jumpi\n        /* \"#utility.yul\":14890:14969   */\n      tag_508\n      tag_296\n      jump\t// in\n    tag_508:\n        /* \"#utility.yul\":14852:14971   */\n    tag_507:\n        /* \"#utility.yul\":15010:15011   */\n      0x00\n        /* \"#utility.yul\":15035:15096   */\n      tag_509\n        /* \"#utility.yul\":15088:15095   */\n      dup5\n        /* \"#utility.yul\":15079:15085   */\n      dup3\n        /* \"#utility.yul\":15068:15077   */\n      dup6\n        /* \"#utility.yul\":15064:15086   */\n      add\n        /* \"#utility.yul\":15035:15096   */\n      tag_338\n      jump\t// in\n    tag_509:\n        /* \"#utility.yul\":15025:15096   */\n      swap2\n      pop\n        /* \"#utility.yul\":14981:15106   */\n      pop\n        /* \"#utility.yul\":14768:15113   */\n      swap3\n      swap2\n      pop\n      pop\n      jump\t// out\n        /* \"#utility.yul\":15119:15339   */\n    tag_339:\n        /* \"#utility.yul\":15259:15293   */\n      0x4c6f616e4d616e616765723a204c6f616e207472616e73666572206661696c65\n        /* \"#utility.yul\":15255:15256   */\n      0x00\n        /* \"#utility.yul\":15247:15253   */\n      dup3\n        /* \"#utility.yul\":15243:15257   */\n      add\n        /* \"#utility.yul\":15236:15294   */\n      mstore\n        /* \"#utility.yul\":15328:15331   */\n      0x6400000000000000000000000000000000000000000000000000000000000000\n        /* \"#utility.yul\":15323:15325   */\n      0x20\n        /* \"#utility.yul\":15315:15321   */\n      dup3\n        /* \"#utility.yul\":15311:15326   */\n      add\n        /* \"#utility.yul\":15304:15332   */\n      mstore\n        /* \"#utility.yul\":15119:15339   */\n      pop\n      jump\t// out\n        /* \"#utility.yul\":15345:15711   */\n    tag_340:\n        /* \"#utility.yul\":15487:15490   */\n      0x00\n        /* \"#utility.yul\":15508:15575   */\n      tag_512\n        /* \"#utility.yul\":15572:15574   */\n      0x21\n        /* \"#utility.yul\":15567:15570   */\n      dup4\n        /* \"#utility.yul\":15508:15575   */\n      tag_326\n      jump\t// in\n    tag_512:\n        /* \"#utility.yul\":15501:15575   */\n      swap2\n      pop\n        /* \"#utility.yul\":15584:15677   */\n      tag_513\n        /* \"#utility.yul\":15673:15676   */\n      dup3\n        /* \"#utility.yul\":15584:15677   */\n      tag_339\n      jump\t// in\n    tag_513:\n        /* \"#utility.yul\":15702:15704   */\n      0x40\n        /* \"#utility.yul\":15697:15700   */\n      dup3\n        /* \"#utility.yul\":15693:15705   */\n      add\n        /* \"#utility.yul\":15686:15705   */\n      swap1\n      pop\n        /* \"#utility.yul\":15345:15711   */\n      swap2\n      swap1\n      pop\n      jump\t// out\n        /* \"#utility.yul\":15717:16136   */\n    tag_195:\n        /* \"#utility.yul\":15883:15887   */\n      0x00\n        /* \"#utility.yul\":15921:15923   */\n      0x20\n        /* \"#utility.yul\":15910:15919   */\n      dup3\n        /* \"#utility.yul\":15906:15924   */\n      add\n        /* \"#utility.yul\":15898:15924   */\n      swap1\n      pop\n        /* \"#utility.yul\":15970:15979   */\n      dup2\n        /* \"#utility.yul\":15964:15968   */\n      dup2\n        /* \"#utility.yul\":15960:15980   */\n      sub\n        /* \"#utility.yul\":15956:15957   */\n      0x00\n        /* \"#utility.yul\":15945:15954   */\n      dup4\n        /* \"#utility.yul\":15941:15958   */\n      add\n        /* \"#utility.yul\":15934:15981   */\n      mstore\n        /* \"#utility.yul\":15998:16129   */\n      tag_515\n        /* \"#utility.yul\":16124:16128   */\n      dup2\n        /* \"#utility.yul\":15998:16129   */\n      tag_340\n      jump\t// in\n    tag_515:\n        /* \"#utility.yul\":15990:16129   */\n      swap1\n      pop\n        /* \"#utility.yul\":15717:16136   */\n      swap2\n      swap1\n      pop\n      jump\t// out\n        /* \"#utility.yul\":16142:16474   */\n    tag_197:\n        /* \"#utility.yul\":16263:16267   */\n      0x00\n        /* \"#utility.yul\":16301:16303   */\n      0x40\n        /* \"#utility.yul\":16290:16299   */\n      dup3\n        /* \"#utility.yul\":16286:16304   */\n      add\n        /* \"#utility.yul\":16278:16304   */\n      swap1\n      pop\n        /* \"#utility.yul\":16314:16385   */\n      tag_517\n        /* \"#utility.yul\":16382:16383   */\n      0x00\n        /* \"#utility.yul\":16371:16380   */\n      dup4\n        /* \"#utility.yul\":16367:16384   */\n      add\n        /* \"#utility.yul\":16358:16364   */\n      dup6\n        /* \"#utility.yul\":16314:16385   */\n      tag_303\n      jump\t// in\n    tag_517:\n        /* \"#utility.yul\":16395:16467   */\n      tag_518\n        /* \"#utility.yul\":16463:16465   */\n      0x20\n        /* \"#utility.yul\":16452:16461   */\n      dup4\n        /* \"#utility.yul\":16448:16466   */\n      add\n        /* \"#utility.yul\":16439:16445   */\n      dup5\n        /* \"#utility.yul\":16395:16467   */\n      tag_303\n      jump\t// in\n    tag_518:\n        /* \"#utility.yul\":16142:16474   */\n      swap4\n      swap3\n      pop\n      pop\n      pop\n      jump\t// out\n        /* \"#utility.yul\":16480:16922   */\n    tag_204:\n        /* \"#utility.yul\":16629:16633   */\n      0x00\n        /* \"#utility.yul\":16667:16669   */\n      0x60\n        /* \"#utility.yul\":16656:16665   */\n      dup3\n        /* \"#utility.yul\":16652:16670   */\n      add\n        /* \"#utility.yul\":16644:16670   */\n      swap1\n      pop\n        /* \"#utility.yul\":16680:16751   */\n      tag_520\n        /* \"#utility.yul\":16748:16749   */\n      0x00\n        /* \"#utility.yul\":16737:16746   */\n      dup4\n        /* \"#utility.yul\":16733:16750   */\n      add\n        /* \"#utility.yul\":16724:16730   */\n      dup7\n        /* \"#utility.yul\":16680:16751   */\n      tag_315\n      jump\t// in\n    tag_520:\n        /* \"#utility.yul\":16761:16833   */\n      tag_521\n        /* \"#utility.yul\":16829:16831   */\n      0x20\n        /* \"#utility.yul\":16818:16827   */\n      dup4\n        /* \"#utility.yul\":16814:16832   */\n      add\n        /* \"#utility.yul\":16805:16811   */\n      dup6\n        /* \"#utility.yul\":16761:16833   */\n      tag_315\n      jump\t// in\n    tag_521:\n        /* \"#utility.yul\":16843:16915   */\n      tag_522\n        /* \"#utility.yul\":16911:16913   */\n      0x40\n        /* \"#utility.yul\":16900:16909   */\n      dup4\n        /* \"#utility.yul\":16896:16914   */\n      add\n        /* \"#utility.yul\":16887:16893   */\n      dup5\n        /* \"#utility.yul\":16843:16915   */\n      tag_303\n      jump\t// in\n    tag_522:\n        /* \"#utility.yul\":16480:16922   */\n      swap5\n      swap4\n      pop\n      pop\n      pop\n      pop\n      jump\t// out\n        /* \"#utility.yul\":16928:17148   */\n    tag_341:\n        /* \"#utility.yul\":17068:17102   */\n      0x4c6f616e4d616e616765723a2046756e64207472616e73666572206661696c65\n        /* \"#utility.yul\":17064:17065   */\n      0x00\n        /* \"#utility.yul\":17056:17062   */\n      dup3\n        /* \"#utility.yul\":17052:17066   */\n      add\n        /* \"#utility.yul\":17045:17103   */\n      mstore\n        /* \"#utility.yul\":17137:17140   */\n      0x6400000000000000000000000000000000000000000000000000000000000000\n        /* \"#utility.yul\":17132:17134   */\n      0x20\n        /* \"#utility.yul\":17124:17130   */\n      dup3\n        /* \"#utility.yul\":17120:17135   */\n      add\n        /* \"#utility.yul\":17113:17141   */\n      mstore\n        /* \"#utility.yul\":16928:17148   */\n      pop\n      jump\t// out\n        /* \"#utility.yul\":17154:17520   */\n    tag_342:\n        /* \"#utility.yul\":17296:17299   */\n      0x00\n        /* \"#utility.yul\":17317:17384   */\n      tag_525\n        /* \"#utility.yul\":17381:17383   */\n      0x21\n        /* \"#utility.yul\":17376:17379   */\n      dup4\n        /* \"#utility.yul\":17317:17384   */\n      tag_326\n      jump\t// in\n    tag_525:\n        /* \"#utility.yul\":17310:17384   */\n      swap2\n      pop\n        /* \"#utility.yul\":17393:17486   */\n      tag_526\n        /* \"#utility.yul\":17482:17485   */\n      dup3\n        /* \"#utility.yul\":17393:17486   */\n      tag_341\n      jump\t// in\n    tag_526:\n        /* \"#utility.yul\":17511:17513   */\n      0x40\n        /* \"#utility.yul\":17506:17509   */\n      dup3\n        /* \"#utility.yul\":17502:17514   */\n      add\n        /* \"#utility.yul\":17495:17514   */\n      swap1\n      pop\n        /* \"#utility.yul\":17154:17520   */\n      swap2\n      swap1\n      pop\n      jump\t// out\n        /* \"#utility.yul\":17526:17945   */\n    tag_210:\n        /* \"#utility.yul\":17692:17696   */\n      0x00\n        /* \"#utility.yul\":17730:17732   */\n      0x20\n        /* \"#utility.yul\":17719:17728   */\n      dup3\n        /* \"#utility.yul\":17715:17733   */\n      add\n        /* \"#utility.yul\":17707:17733   */\n      swap1\n      pop\n        /* \"#utility.yul\":17779:17788   */\n      dup2\n        /* \"#utility.yul\":17773:17777   */\n      dup2\n        /* \"#utility.yul\":17769:17789   */\n      sub\n        /* \"#utility.yul\":17765:17766   */\n      0x00\n        /* \"#utility.yul\":17754:17763   */\n      dup4\n        /* \"#utility.yul\":17750:17767   */\n      add\n        /* \"#utility.yul\":17743:17790   */\n      mstore\n        /* \"#utility.yul\":17807:17938   */\n      tag_528\n        /* \"#utility.yul\":17933:17937   */\n      dup2\n        /* \"#utility.yul\":17807:17938   */\n      tag_342\n      jump\t// in\n    tag_528:\n        /* \"#utility.yul\":17799:17938   */\n      swap1\n      pop\n        /* \"#utility.yul\":17526:17945   */\n      swap2\n      swap1\n      pop\n      jump\t// out\n        /* \"#utility.yul\":17951:18173   */\n    tag_343:\n        /* \"#utility.yul\":18091:18125   */\n      0x4c6f616e4d616e616765723a204c6f616e20697320616c726561647920726570\n        /* \"#utility.yul\":18087:18088   */\n      0x00\n        /* \"#utility.yul\":18079:18085   */\n      dup3\n        /* \"#utility.yul\":18075:18089   */\n      add\n        /* \"#utility.yul\":18068:18126   */\n      mstore\n        /* \"#utility.yul\":18160:18165   */\n      0x6169640000000000000000000000000000000000000000000000000000000000\n        /* \"#utility.yul\":18155:18157   */\n      0x20\n        /* \"#utility.yul\":18147:18153   */\n      dup3\n        /* \"#utility.yul\":18143:18158   */\n      add\n        /* \"#utility.yul\":18136:18166   */\n      mstore\n        /* \"#utility.yul\":17951:18173   */\n      pop\n      jump\t// out\n        /* \"#utility.yul\":18179:18545   */\n    tag_344:\n        /* \"#utility.yul\":18321:18324   */\n      0x00\n        /* \"#utility.yul\":18342:18409   */\n      tag_531\n        /* \"#utility.yul\":18406:18408   */\n      0x23\n        /* \"#utility.yul\":18401:18404   */\n      dup4\n        /* \"#utility.yul\":18342:18409   */\n      tag_326\n      jump\t// in\n    tag_531:\n        /* \"#utility.yul\":18335:18409   */\n      swap2\n      pop\n        /* \"#utility.yul\":18418:18511   */\n      tag_532\n        /* \"#utility.yul\":18507:18510   */\n      dup3\n        /* \"#utility.yul\":18418:18511   */\n      tag_343\n      jump\t// in\n    tag_532:\n        /* \"#utility.yul\":18536:18538   */\n      0x40\n        /* \"#utility.yul\":18531:18534   */\n      dup3\n        /* \"#utility.yul\":18527:18539   */\n      add\n        /* \"#utility.yul\":18520:18539   */\n      swap1\n      pop\n        /* \"#utility.yul\":18179:18545   */\n      swap2\n      swap1\n      pop\n      jump\t// out\n        /* \"#utility.yul\":18551:18970   */\n    tag_219:\n        /* \"#utility.yul\":18717:18721   */\n      0x00\n        /* \"#utility.yul\":18755:18757   */\n      0x20\n        /* \"#utility.yul\":18744:18753   */\n      dup3\n        /* \"#utility.yul\":18740:18758   */\n      add\n        /* \"#utility.yul\":18732:18758   */\n      swap1\n      pop\n        /* \"#utility.yul\":18804:18813   */\n      dup2\n        /* \"#utility.yul\":18798:18802   */\n      dup2\n        /* \"#utility.yul\":18794:18814   */\n      sub\n        /* \"#utility.yul\":18790:18791   */\n      0x00\n        /* \"#utility.yul\":18779:18788   */\n      dup4\n        /* \"#utility.yul\":18775:18792   */\n      add\n        /* \"#utility.yul\":18768:18815   */\n      mstore\n        /* \"#utility.yul\":18832:18963   */\n      tag_534\n        /* \"#utility.yul\":18958:18962   */\n      dup2\n        /* \"#utility.yul\":18832:18963   */\n      tag_344\n      jump\t// in\n    tag_534:\n        /* \"#utility.yul\":18824:18963   */\n      swap1\n      pop\n        /* \"#utility.yul\":18551:18970   */\n      swap2\n      swap1\n      pop\n      jump\t// out\n        /* \"#utility.yul\":18976:19205   */\n    tag_345:\n        /* \"#utility.yul\":19116:19150   */\n      0x4c6f616e4d616e616765723a20496e73756666696369656e742072657061796d\n        /* \"#utility.yul\":19112:19113   */\n      0x00\n        /* \"#utility.yul\":19104:19110   */\n      dup3\n        /* \"#utility.yul\":19100:19114   */\n      add\n        /* \"#utility.yul\":19093:19151   */\n      mstore\n        /* \"#utility.yul\":19185:19197   */\n      0x656e7420616d6f756e7400000000000000000000000000000000000000000000\n        /* \"#utility.yul\":19180:19182   */\n      0x20\n        /* \"#utility.yul\":19172:19178   */\n      dup3\n        /* \"#utility.yul\":19168:19183   */\n      add\n        /* \"#utility.yul\":19161:19198   */\n      mstore\n        /* \"#utility.yul\":18976:19205   */\n      pop\n      jump\t// out\n        /* \"#utility.yul\":19211:19577   */\n    tag_346:\n        /* \"#utility.yul\":19353:19356   */\n      0x00\n        /* \"#utility.yul\":19374:19441   */\n      tag_537\n        /* \"#utility.yul\":19438:19440   */\n      0x2a\n        /* \"#utility.yul\":19433:19436   */\n      dup4\n        /* \"#utility.yul\":19374:19441   */\n      tag_326\n      jump\t// in\n    tag_537:\n        /* \"#utility.yul\":19367:19441   */\n      swap2\n      pop\n        /* \"#utility.yul\":19450:19543   */\n      tag_538\n        /* \"#utility.yul\":19539:19542   */\n      dup3\n        /* \"#utility.yul\":19450:19543   */\n      tag_345\n      jump\t// in\n    tag_538:\n        /* \"#utility.yul\":19568:19570   */\n      0x40\n        /* \"#utility.yul\":19563:19566   */\n      dup3\n        /* \"#utility.yul\":19559:19571   */\n      add\n        /* \"#utility.yul\":19552:19571   */\n      swap1\n      pop\n        /* \"#utility.yul\":19211:19577   */\n      swap2\n      swap1\n      pop\n      jump\t// out\n        /* \"#utility.yul\":19583:20002   */\n    tag_225:\n        /* \"#utility.yul\":19749:19753   */\n      0x00\n        /* \"#utility.yul\":19787:19789   */\n      0x20\n        /* \"#utility.yul\":19776:19785   */\n      dup3\n        /* \"#utility.yul\":19772:19790   */\n      add\n        /* \"#utility.yul\":19764:19790   */\n      swap1\n      pop\n        /* \"#utility.yul\":19836:19845   */\n      dup2\n        /* \"#utility.yul\":19830:19834   */\n      dup2\n        /* \"#utility.yul\":19826:19846   */\n      sub\n        /* \"#utility.yul\":19822:19823   */\n      0x00\n        /* \"#utility.yul\":19811:19820   */\n      dup4\n        /* \"#utility.yul\":19807:19824   */\n      add\n        /* \"#utility.yul\":19800:19847   */\n      mstore\n        /* \"#utility.yul\":19864:19995   */\n      tag_540\n        /* \"#utility.yul\":19990:19994   */\n      dup2\n        /* \"#utility.yul\":19864:19995   */\n      tag_346\n      jump\t// in\n    tag_540:\n        /* \"#utility.yul\":19856:19995   */\n      swap1\n      pop\n        /* \"#utility.yul\":19583:20002   */\n      swap2\n      swap1\n      pop\n      jump\t// out\n        /* \"#utility.yul\":20008:20233   */\n    tag_347:\n        /* \"#utility.yul\":20148:20182   */\n      0x4c6f616e4d616e616765723a2052657061796d656e74207472616e7366657220\n        /* \"#utility.yul\":20144:20145   */\n      0x00\n        /* \"#utility.yul\":20136:20142   */\n      dup3\n        /* \"#utility.yul\":20132:20146   */\n      add\n        /* \"#utility.yul\":20125:20183   */\n      mstore\n        /* \"#utility.yul\":20217:20225   */\n      0x6661696c65640000000000000000000000000000000000000000000000000000\n        /* \"#utility.yul\":20212:20214   */\n      0x20\n        /* \"#utility.yul\":20204:20210   */\n      dup3\n        /* \"#utility.yul\":20200:20215   */\n      add\n        /* \"#utility.yul\":20193:20226   */\n      mstore\n        /* \"#utility.yul\":20008:20233   */\n      pop\n      jump\t// out\n        /* \"#utility.yul\":20239:20605   */\n    tag_348:\n        /* \"#utility.yul\":20381:20384   */\n      0x00\n        /* \"#utility.yul\":20402:20469   */\n      tag_543\n        /* \"#utility.yul\":20466:20468   */\n      0x26\n        /* \"#utility.yul\":20461:20464   */\n      dup4\n        /* \"#utility.yul\":20402:20469   */\n      tag_326\n      jump\t// in\n    tag_543:\n        /* \"#utility.yul\":20395:20469   */\n      swap2\n      pop\n        /* \"#utility.yul\":20478:20571   */\n      tag_544\n        /* \"#utility.yul\":20567:20570   */\n      dup3\n        /* \"#utility.yul\":20478:20571   */\n      tag_347\n      jump\t// in\n    tag_544:\n        /* \"#utility.yul\":20596:20598   */\n      0x40\n        /* \"#utility.yul\":20591:20594   */\n      dup3\n        /* \"#utility.yul\":20587:20599   */\n      add\n        /* \"#utility.yul\":20580:20599   */\n      swap1\n      pop\n        /* \"#utility.yul\":20239:20605   */\n      swap2\n      swap1\n      pop\n      jump\t// out\n        /* \"#utility.yul\":20611:21030   */\n    tag_232:\n        /* \"#utility.yul\":20777:20781   */\n      0x00\n        /* \"#utility.yul\":20815:20817   */\n      0x20\n        /* \"#utility.yul\":20804:20813   */\n      dup3\n        /* \"#utility.yul\":20800:20818   */\n      add\n        /* \"#utility.yul\":20792:20818   */\n      swap1\n      pop\n        /* \"#utility.yul\":20864:20873   */\n      dup2\n        /* \"#utility.yul\":20858:20862   */\n      dup2\n        /* \"#utility.yul\":20854:20874   */\n      sub\n        /* \"#utility.yul\":20850:20851   */\n      0x00\n        /* \"#utility.yul\":20839:20848   */\n      dup4\n        /* \"#utility.yul\":20835:20852   */\n      add\n        /* \"#utility.yul\":20828:20875   */\n      mstore\n        /* \"#utility.yul\":20892:21023   */\n      tag_546\n        /* \"#utility.yul\":21018:21022   */\n      dup2\n        /* \"#utility.yul\":20892:21023   */\n      tag_348\n      jump\t// in\n    tag_546:\n        /* \"#utility.yul\":20884:21023   */\n      swap1\n      pop\n        /* \"#utility.yul\":20611:21030   */\n      swap2\n      swap1\n      pop\n      jump\t// out\n        /* \"#utility.yul\":21036:21215   */\n    tag_349:\n        /* \"#utility.yul\":21176:21207   */\n      0x4c6f616e4d616e616765723a20496e76616c6964206475726174696f6e000000\n        /* \"#utility.yul\":21172:21173   */\n      0x00\n        /* \"#utility.yul\":21164:21170   */\n      dup3\n        /* \"#utility.yul\":21160:21174   */\n      add\n        /* \"#utility.yul\":21153:21208   */\n      mstore\n        /* \"#utility.yul\":21036:21215   */\n      pop\n      jump\t// out\n        /* \"#utility.yul\":21221:21587   */\n    tag_350:\n        /* \"#utility.yul\":21363:21366   */\n      0x00\n        /* \"#utility.yul\":21384:21451   */\n      tag_549\n        /* \"#utility.yul\":21448:21450   */\n      0x1d\n        /* \"#utility.yul\":21443:21446   */\n      dup4\n        /* \"#utility.yul\":21384:21451   */\n      tag_326\n      jump\t// in\n    tag_549:\n        /* \"#utility.yul\":21377:21451   */\n      swap2\n      pop\n        /* \"#utility.yul\":21460:21553   */\n      tag_550\n        /* \"#utility.yul\":21549:21552   */\n      dup3\n        /* \"#utility.yul\":21460:21553   */\n      tag_349\n      jump\t// in\n    tag_550:\n        /* \"#utility.yul\":21578:21580   */\n      0x20\n        /* \"#utility.yul\":21573:21576   */\n      dup3\n        /* \"#utility.yul\":21569:21581   */\n      add\n        /* \"#utility.yul\":21562:21581   */\n      swap1\n      pop\n        /* \"#utility.yul\":21221:21587   */\n      swap2\n      swap1\n      pop\n      jump\t// out\n        /* \"#utility.yul\":21593:22012   */\n    tag_248:\n        /* \"#utility.yul\":21759:21763   */\n      0x00\n        /* \"#utility.yul\":21797:21799   */\n      0x20\n        /* \"#utility.yul\":21786:21795   */\n      dup3\n        /* \"#utility.yul\":21782:21800   */\n      add\n        /* \"#utility.yul\":21774:21800   */\n      swap1\n      pop\n        /* \"#utility.yul\":21846:21855   */\n      dup2\n        /* \"#utility.yul\":21840:21844   */\n      dup2\n        /* \"#utility.yul\":21836:21856   */\n      sub\n        /* \"#utility.yul\":21832:21833   */\n      0x00\n        /* \"#utility.yul\":21821:21830   */\n      dup4\n        /* \"#utility.yul\":21817:21834   */\n      add\n        /* \"#utility.yul\":21810:21857   */\n      mstore\n        /* \"#utility.yul\":21874:22005   */\n      tag_552\n        /* \"#utility.yul\":22000:22004   */\n      dup2\n        /* \"#utility.yul\":21874:22005   */\n      tag_350\n      jump\t// in\n    tag_552:\n        /* \"#utility.yul\":21866:22005   */\n      swap1\n      pop\n        /* \"#utility.yul\":21593:22012   */\n      swap2\n      swap1\n      pop\n      jump\t// out\n        /* \"#utility.yul\":22018:22240   */\n    tag_351:\n        /* \"#utility.yul\":22158:22192   */\n      0x4c6f616e4d616e616765723a204c6f616e20616c72656164792064656661756c\n        /* \"#utility.yul\":22154:22155   */\n      0x00\n        /* \"#utility.yul\":22146:22152   */\n      dup3\n        /* \"#utility.yul\":22142:22156   */\n      add\n        /* \"#utility.yul\":22135:22193   */\n      mstore\n        /* \"#utility.yul\":22227:22232   */\n      0x7465640000000000000000000000000000000000000000000000000000000000\n        /* \"#utility.yul\":22222:22224   */\n      0x20\n        /* \"#utility.yul\":22214:22220   */\n      dup3\n        /* \"#utility.yul\":22210:22225   */\n      add\n        /* \"#utility.yul\":22203:22233   */\n      mstore\n        /* \"#utility.yul\":22018:22240   */\n      pop\n      jump\t// out\n        /* \"#utility.yul\":22246:22612   */\n    tag_352:\n        /* \"#utility.yul\":22388:22391   */\n      0x00\n        /* \"#utility.yul\":22409:22476   */\n      tag_555\n        /* \"#utility.yul\":22473:22475   */\n      0x23\n        /* \"#utility.yul\":22468:22471   */\n      dup4\n        /* \"#utility.yul\":22409:22476   */\n      tag_326\n      jump\t// in\n    tag_555:\n        /* \"#utility.yul\":22402:22476   */\n      swap2\n      pop\n        /* \"#utility.yul\":22485:22578   */\n      tag_556\n        /* \"#utility.yul\":22574:22577   */\n      dup3\n        /* \"#utility.yul\":22485:22578   */\n      tag_351\n      jump\t// in\n    tag_556:\n        /* \"#utility.yul\":22603:22605   */\n      0x40\n        /* \"#utility.yul\":22598:22601   */\n      dup3\n        /* \"#utility.yul\":22594:22606   */\n      add\n        /* \"#utility.yul\":22587:22606   */\n      swap1\n      pop\n        /* \"#utility.yul\":22246:22612   */\n      swap2\n      swap1\n      pop\n      jump\t// out\n        /* \"#utility.yul\":22618:23037   */\n    tag_261:\n        /* \"#utility.yul\":22784:22788   */\n      0x00\n        /* \"#utility.yul\":22822:22824   */\n      0x20\n        /* \"#utility.yul\":22811:22820   */\n      dup3\n        /* \"#utility.yul\":22807:22825   */\n      add\n        /* \"#utility.yul\":22799:22825   */\n      swap1\n      pop\n        /* \"#utility.yul\":22871:22880   */\n      dup2\n        /* \"#utility.yul\":22865:22869   */\n      dup2\n        /* \"#utility.yul\":22861:22881   */\n      sub\n        /* \"#utility.yul\":22857:22858   */\n      0x00\n        /* \"#utility.yul\":22846:22855   */\n      dup4\n        /* \"#utility.yul\":22842:22859   */\n      add\n        /* \"#utility.yul\":22835:22882   */\n      mstore\n        /* \"#utility.yul\":22899:23030   */\n      tag_558\n        /* \"#utility.yul\":23025:23029   */\n      dup2\n        /* \"#utility.yul\":22899:23030   */\n      tag_352\n      jump\t// in\n    tag_558:\n        /* \"#utility.yul\":22891:23030   */\n      swap1\n      pop\n        /* \"#utility.yul\":22618:23037   */\n      swap2\n      swap1\n      pop\n      jump\t// out\n        /* \"#utility.yul\":23043:23265   */\n    tag_353:\n        /* \"#utility.yul\":23183:23217   */\n      0x4c6f616e4d616e616765723a204c6f616e206e6f742064656661756c74656420\n        /* \"#utility.yul\":23179:23180   */\n      0x00\n        /* \"#utility.yul\":23171:23177   */\n      dup3\n        /* \"#utility.yul\":23167:23181   */\n      add\n        /* \"#utility.yul\":23160:23218   */\n      mstore\n        /* \"#utility.yul\":23252:23257   */\n      0x7965740000000000000000000000000000000000000000000000000000000000\n        /* \"#utility.yul\":23247:23249   */\n      0x20\n        /* \"#utility.yul\":23239:23245   */\n      dup3\n        /* \"#utility.yul\":23235:23250   */\n      add\n        /* \"#utility.yul\":23228:23258   */\n      mstore\n        /* \"#utility.yul\":23043:23265   */\n      pop\n      jump\t// out\n        /* \"#utility.yul\":23271:23637   */\n    tag_354:\n        /* \"#utility.yul\":23413:23416   */\n      0x00\n        /* \"#utility.yul\":23434:23501   */\n      tag_561\n        /* \"#utility.yul\":23498:23500   */\n      0x23\n        /* \"#utility.yul\":23493:23496   */\n      dup4\n        /* \"#utility.yul\":23434:23501   */\n      tag_326\n      jump\t// in\n    tag_561:\n        /* \"#utility.yul\":23427:23501   */\n      swap2\n      pop\n        /* \"#utility.yul\":23510:23603   */\n      tag_562\n        /* \"#utility.yul\":23599:23602   */\n      dup3\n        /* \"#utility.yul\":23510:23603   */\n      tag_353\n      jump\t// in\n    tag_562:\n        /* \"#utility.yul\":23628:23630   */\n      0x40\n        /* \"#utility.yul\":23623:23626   */\n      dup3\n        /* \"#utility.yul\":23619:23631   */\n      add\n        /* \"#utility.yul\":23612:23631   */\n      swap1\n      pop\n        /* \"#utility.yul\":23271:23637   */\n      swap2\n      swap1\n      pop\n      jump\t// out\n        /* \"#utility.yul\":23643:24062   */\n    tag_266:\n        /* \"#utility.yul\":23809:23813   */\n      0x00\n        /* \"#utility.yul\":23847:23849   */\n      0x20\n        /* \"#utility.yul\":23836:23845   */\n      dup3\n        /* \"#utility.yul\":23832:23850   */\n      add\n        /* \"#utility.yul\":23824:23850   */\n      swap1\n      pop\n        /* \"#utility.yul\":23896:23905   */\n      dup2\n        /* \"#utility.yul\":23890:23894   */\n      dup2\n        /* \"#utility.yul\":23886:23906   */\n      sub\n        /* \"#utility.yul\":23882:23883   */\n      0x00\n        /* \"#utility.yul\":23871:23880   */\n      dup4\n        /* \"#utility.yul\":23867:23884   */\n      add\n        /* \"#utility.yul\":23860:23907   */\n      mstore\n        /* \"#utility.yul\":23924:24055   */\n      tag_564\n        /* \"#utility.yul\":24050:24054   */\n      dup2\n        /* \"#utility.yul\":23924:24055   */\n      tag_354\n      jump\t// in\n    tag_564:\n        /* \"#utility.yul\":23916:24055   */\n      swap1\n      pop\n        /* \"#utility.yul\":23643:24062   */\n      swap2\n      swap1\n      pop\n      jump\t// out\n\n    auxdata: 0xa264697066735822122078df643b152a01a3158faae20947675fb47946bf268c25a2d34773c0b87e151e64736f6c634300081a0033\n}\n",
				"bytecode": {
					"linkReferences": {},
					"object": "6080604052609660055562278d006006556213c680600755348015610022575f80fd5b5060405161292b38038061292b83398181016040528101906100449190610357565b3360015f819055505f73ffffffffffffffffffffffffffffffffffffffff168173ffffffffffffffffffffffffffffffffffffffff16036100bc575f6040517f1e4fbdf70000000000000000000000000000000000000000000000000000000081526004016100b391906103a4565b60405180910390fd5b6100cb816101fb60201b60201c565b508160025f6101000a81548173ffffffffffffffffffffffffffffffffffffffff021916908373ffffffffffffffffffffffffffffffffffffffff1602179055508060035f6101000a81548173ffffffffffffffffffffffffffffffffffffffff021916908373ffffffffffffffffffffffffffffffffffffffff160217905550733c65e28d357a37589e1c7c86044a9f44ddc1713460085f6101000a81548173ffffffffffffffffffffffffffffffffffffffff021916908373ffffffffffffffffffffffffffffffffffffffff160217905550733ec8593f930ea45ea58c968260e6e9ff53fc934f60095f6101000a81548173ffffffffffffffffffffffffffffffffffffffff021916908373ffffffffffffffffffffffffffffffffffffffff16021790555050506103bd565b5f60015f9054906101000a900473ffffffffffffffffffffffffffffffffffffffff1690508160015f6101000a81548173ffffffffffffffffffffffffffffffffffffffff021916908373ffffffffffffffffffffffffffffffffffffffff1602179055508173ffffffffffffffffffffffffffffffffffffffff168173ffffffffffffffffffffffffffffffffffffffff167f8be0079c531659141344cd1fd0a4f28419497f9722a3daafe3b4186f6b6457e060405160405180910390a35050565b5f80fd5b5f73ffffffffffffffffffffffffffffffffffffffff82169050919050565b5f6102eb826102c2565b9050919050565b5f6102fc826102e1565b9050919050565b61030c816102f2565b8114610316575f80fd5b50565b5f8151905061032781610303565b92915050565b610336816102e1565b8114610340575f80fd5b50565b5f815190506103518161032d565b92915050565b5f806040838503121561036d5761036c6102be565b5b5f61037a85828601610319565b925050602061038b85828601610343565b9150509250929050565b61039e816102e1565b82525050565b5f6020820190506103b75f830184610395565b92915050565b612561806103ca5f395ff3fe608060405234801561000f575f80fd5b506004361061014b575f3560e01c80638d5d3429116100c1578063c000bc601161007a578063c000bc6014610351578063e9e190a31461036d578063ebbb7de9146103a2578063ec9e0393146103be578063f2fde38b146103dc578063f5521bf1146103f85761014b565b80638d5d3429146102935780638da5cb5b146102af57806397ed71eb146102cd578063ab7b1c89146102e9578063ade8d29e14610305578063ba43a922146103355761014b565b80632af7e2ea116101135780632af7e2ea146101f5578063650dfa1814610213578063656f9ba41461022f578063688aef481461024d57806370f37d271461026b578063715018a6146102895761014b565b806309b8aafd1461014f5780630ea86ad81461017f57806317430c9e1461019d5780631fea5a6b146101bb57806323be345c146101d7575b5f80fd5b61016960048036038101906101649190611945565b610416565b6040516101769190611988565b60405180910390f35b610187610523565b60405161019491906119fc565b60405180910390f35b6101a5610548565b6040516101b29190611a2d565b60405180910390f35b6101d560048036038101906101d09190611945565b6105e5565b005b6101df6107d8565b6040516101ec9190611a66565b60405180910390f35b6101fd6107fd565b60405161020a9190611988565b60405180910390f35b61022d60048036038101906102289190611aa9565b610803565b005b610237610851565b6040516102449190611988565b60405180910390f35b61025561095c565b6040516102629190611988565b60405180910390f35b610273610962565b6040516102809190611988565b60405180910390f35b610291610968565b005b6102ad60048036038101906102a89190611aa9565b61097b565b005b6102b7610d66565b6040516102c49190611ae3565b60405180910390f35b6102e760048036038101906102e29190611aa9565b610d8e565b005b61030360048036038101906102fe9190611aa9565b610e8e565b005b61031f600480360381019061031a9190611945565b611207565b60405161032c9190611988565b60405180910390f35b61034f600480360381019061034a9190611aa9565b6112e4565b005b61036b60048036038101906103669190611aa9565b611338565b005b61038760048036038101906103829190611945565b61138c565b60405161039996959493929190611b16565b60405180910390f35b6103bc60048036038101906103b79190611945565b6113dd565b005b6103c6611622565b6040516103d39190611a2d565b60405180910390f35b6103f660048036038101906103f19190611945565b6116bf565b005b610400611743565b60405161040d9190611988565b60405180910390f35b5f805f60035f9054906101000a900473ffffffffffffffffffffffffffffffffffffffff1673ffffffffffffffffffffffffffffffffffffffff16632703ee85856040518263ffffffff1660e01b81526004016104739190611ae3565b6040805180830381865afa15801561048d573d5f803e3d5ffd5b505050506040513d601f19601f820116820180604052508101906104b19190611b89565b915091505f6104be610548565b90505f6104c9611622565b90505f670de0b6b3a764000082856104e19190611bf4565b6104eb9190611c62565b670de0b6b3a764000084876105009190611bf4565b61050a9190611c62565b6105149190611c92565b90508095505050505050919050565b60025f9054906101000a900473ffffffffffffffffffffffffffffffffffffffff1681565b5f8060085f9054906101000a900473ffffffffffffffffffffffffffffffffffffffff1673ffffffffffffffffffffffffffffffffffffffff1663feaf968c6040518163ffffffff1660e01b815260040160a060405180830381865afa1580156105b4573d5f803e3d5ffd5b505050506040513d601f19601f820116820180604052508101906105d89190611d2e565b5050509150508091505090565b6105ed611749565b5f600a5f8373ffffffffffffffffffffffffffffffffffffffff1673ffffffffffffffffffffffffffffffffffffffff1681526020019081526020015f2090505f815f015411610672576040517f08c379a000000000000000000000000000000000000000000000000000000000815260040161066990611dff565b60405180910390fd5b8060040160019054906101000a900460ff166106c3576040517f08c379a00000000000000000000000000000000000000000000000000000000081526004016106ba90611e67565b60405180910390fd5b60035f9054906101000a900473ffffffffffffffffffffffffffffffffffffffff1673ffffffffffffffffffffffffffffffffffffffff16631fea5a6b836040518263ffffffff1660e01b815260040161071d9190611ae3565b5f604051808303815f87803b158015610734575f80fd5b505af1158015610746573d5f803e3d5ffd5b50505050600a5f8373ffffffffffffffffffffffffffffffffffffffff1673ffffffffffffffffffffffffffffffffffffffff1681526020019081526020015f205f8082015f9055600182015f9055600282015f9055600382015f9055600482015f6101000a81549060ff02191690556004820160016101000a81549060ff02191690555050506107d561178d565b50565b60035f9054906101000a900473ffffffffffffffffffffffffffffffffffffffff1681565b60075481565b6064811015610847576040517f08c379a000000000000000000000000000000000000000000000000000000000815260040161083e90611ecf565b60405180910390fd5b8060058190555050565b5f805f60035f9054906101000a900473ffffffffffffffffffffffffffffffffffffffff1673ffffffffffffffffffffffffffffffffffffffff16632703ee85336040518263ffffffff1660e01b81526004016108ae9190611ae3565b6040805180830381865afa1580156108c8573d5f803e3d5ffd5b505050506040513d601f19601f820116820180604052508101906108ec9190611b89565b915091505f6108f9610548565b90505f610904611622565b90505f670de0b6b3a7640000828561091c9190611bf4565b6109269190611c62565b670de0b6b3a7640000848761093b9190611bf4565b6109459190611c62565b61094f9190611c92565b9050809550505050505090565b60055481565b60045481565b610970611796565b6109795f61181d565b565b610983611749565b5f81116109c5576040517f08c379a00000000000000000000000000000000000000000000000000000000081526004016109bc90611f5d565b60405180910390fd5b5f600a5f3373ffffffffffffffffffffffffffffffffffffffff1673ffffffffffffffffffffffffffffffffffffffff1681526020019081526020015f205f015414610a46576040517f08c379a0000000000000000000000000000000000000000000000000000000008152600401610a3d90611feb565b60405180910390fd5b5f8060035f9054906101000a900473ffffffffffffffffffffffffffffffffffffffff1673ffffffffffffffffffffffffffffffffffffffff16632703ee85336040518263ffffffff1660e01b8152600401610aa29190611ae3565b6040805180830381865afa158015610abc573d5f803e3d5ffd5b505050506040513d601f19601f82011682018060405250810190610ae09190611b89565b915091505f610aed610548565b90505f610af8611622565b90505f670de0b6b3a76400008386610b109190611bf4565b610b1a9190611c62565b90505f670de0b6b3a76400008386610b329190611bf4565b610b3c9190611c62565b90505f8183610b4b9190611c92565b90505f6040518060c001604052808a8152602001600581526020014281526020018381526020015f151581526020015f1515815250905080600a5f3373ffffffffffffffffffffffffffffffffffffffff1673ffffffffffffffffffffffffffffffffffffffff1681526020019081526020015f205f820151815f01556020820151816001015560408201518160020155606082015181600301556080820151816004015f6101000a81548160ff02191690831515021790555060a08201518160040160016101000a81548160ff02191690831515021790555090505060025f9054906101000a900473ffffffffffffffffffffffffffffffffffffffff1673ffffffffffffffffffffffffffffffffffffffff1663a9059cbb338b6040518363ffffffff1660e01b8152600401610c84929190612009565b6020604051808303815f875af1158015610ca0573d5f803e3d5ffd5b505050506040513d601f19601f82011682018060405250810190610cc4919061205a565b610d03576040517f08c379a0000000000000000000000000000000000000000000000000000000008152600401610cfa906120f5565b60405180910390fd5b3373ffffffffffffffffffffffffffffffffffffffff167f1c793c0fda4a6b2b79dd68d91d9f7fde8f7aa0878615c36a4624e6ccdbb1ead18a84604051610d4b929190612113565b60405180910390a25050505050505050610d6361178d565b50565b5f60015f9054906101000a900473ffffffffffffffffffffffffffffffffffffffff16905090565b610d96611796565b60025f9054906101000a900473ffffffffffffffffffffffffffffffffffffffff1673ffffffffffffffffffffffffffffffffffffffff166323b872dd3330846040518463ffffffff1660e01b8152600401610df49392919061213a565b6020604051808303815f875af1158015610e10573d5f803e3d5ffd5b505050506040513d601f19601f82011682018060405250810190610e34919061205a565b610e73576040517f08c379a0000000000000000000000000000000000000000000000000000000008152600401610e6a906121df565b60405180910390fd5b8060045f828254610e849190611c92565b9250508190555050565b610e96611749565b5f600a5f3373ffffffffffffffffffffffffffffffffffffffff1673ffffffffffffffffffffffffffffffffffffffff1681526020019081526020015f2090505f815f015411610f1b576040517f08c379a0000000000000000000000000000000000000000000000000000000008152600401610f1290611dff565b60405180910390fd5b806004015f9054906101000a900460ff1615610f6c576040517f08c379a0000000000000000000000000000000000000000000000000000000008152600401610f639061226d565b60405180910390fd5b5f60648260010154835f0154610f829190611bf4565b610f8c9190611c62565b825f0154610f9a9190611c92565b905080831015610fdf576040517f08c379a0000000000000000000000000000000000000000000000000000000008152600401610fd6906122fb565b60405180910390fd5b60025f9054906101000a900473ffffffffffffffffffffffffffffffffffffffff1673ffffffffffffffffffffffffffffffffffffffff166323b872dd3330866040518463ffffffff1660e01b815260040161103d9392919061213a565b6020604051808303815f875af1158015611059573d5f803e3d5ffd5b505050506040513d601f19601f8201168201806040525081019061107d919061205a565b6110bc576040517f08c379a00000000000000000000000000000000000000000000000000000000081526004016110b390612389565b60405180910390fd5b6001826004015f6101000a81548160ff02191690831515021790555060035f9054906101000a900473ffffffffffffffffffffffffffffffffffffffff1673ffffffffffffffffffffffffffffffffffffffff1663192e7a7b336040518263ffffffff1660e01b81526004016111329190611ae3565b5f604051808303815f87803b158015611149575f80fd5b505af115801561115b573d5f803e3d5ffd5b505050505f600a5f3373ffffffffffffffffffffffffffffffffffffffff1673ffffffffffffffffffffffffffffffffffffffff1681526020019081526020015f205f01819055503373ffffffffffffffffffffffffffffffffffffffff167fc7ce0a35f17b490de2a317e7fecb2cae86b1abffb03800b2f492823521382698835f015484600301546040516111f2929190612113565b60405180910390a2505061120461178d565b50565b5f80600a5f8473ffffffffffffffffffffffffffffffffffffffff1673ffffffffffffffffffffffffffffffffffffffff1681526020019081526020015f206040518060c00160405290815f8201548152602001600182015481526020016002820154815260200160038201548152602001600482015f9054906101000a900460ff161515151581526020016004820160019054906101000a900460ff161515151581525050905060648160200151825f01516112c49190611bf4565b6112ce9190611c62565b815f01516112dc9190611c92565b915050919050565b6112ec611796565b5f811161132e576040517f08c379a0000000000000000000000000000000000000000000000000000000008152600401611325906123f1565b60405180910390fd5b8060068190555050565b611340611796565b5f8111611382576040517f08c379a0000000000000000000000000000000000000000000000000000000008152600401611379906123f1565b60405180910390fd5b8060078190555050565b600a602052805f5260405f205f91509050805f015490806001015490806002015490806003015490806004015f9054906101000a900460ff16908060040160019054906101000a900460ff16905086565b6113e5611749565b5f600a5f8373ffffffffffffffffffffffffffffffffffffffff1673ffffffffffffffffffffffffffffffffffffffff1681526020019081526020015f2090505f815f01541161146a576040517f08c379a000000000000000000000000000000000000000000000000000000000815260040161146190611dff565b60405180910390fd5b8060040160019054906101000a900460ff16156114bc576040517f08c379a00000000000000000000000000000000000000000000000000000000081526004016114b39061247f565b60405180910390fd5b60075460065482600201546114d19190611c92565b6114db9190611c92565b421161151c576040517f08c379a00000000000000000000000000000000000000000000000000000000081526004016115139061250d565b60405180910390fd5b60018160040160016101000a81548160ff02191690831515021790555060035f9054906101000a900473ffffffffffffffffffffffffffffffffffffffff1673ffffffffffffffffffffffffffffffffffffffff1663f6da3c9082600301546040518263ffffffff1660e01b81526004016115979190611988565b5f604051808303815f87803b1580156115ae575f80fd5b505af11580156115c0573d5f803e3d5ffd5b505050508173ffffffffffffffffffffffffffffffffffffffff167f0be253503c49f8fb02046da3ef57bc2f5f881eb14ba5c2c26b54bf2fb4e7db07826003015460405161160e9190611988565b60405180910390a25061161f61178d565b50565b5f8060095f9054906101000a900473ffffffffffffffffffffffffffffffffffffffff1673ffffffffffffffffffffffffffffffffffffffff1663feaf968c6040518163ffffffff1660e01b815260040160a060405180830381865afa15801561168e573d5f803e3d5ffd5b505050506040513d601f19601f820116820180604052508101906116b29190611d2e565b5050509150508091505090565b6116c7611796565b5f73ffffffffffffffffffffffffffffffffffffffff168173ffffffffffffffffffffffffffffffffffffffff1603611737575f6040517f1e4fbdf700000000000000000000000000000000000000000000000000000000815260040161172e9190611ae3565b60405180910390fd5b6117408161181d565b50565b60065481565b60025f5403611784576040517f3ee5aeb500000000000000000000000000000000000000000000000000000000815260040160405180910390fd5b60025f81905550565b60015f81905550565b61179e6118e0565b73ffffffffffffffffffffffffffffffffffffffff166117bc610d66565b73ffffffffffffffffffffffffffffffffffffffff161461181b576117df6118e0565b6040517f118cdaa70000000000000000000000000000000000000000000000000000000081526004016118129190611ae3565b60405180910390fd5b565b5f60015f9054906101000a900473ffffffffffffffffffffffffffffffffffffffff1690508160015f6101000a81548173ffffffffffffffffffffffffffffffffffffffff021916908373ffffffffffffffffffffffffffffffffffffffff1602179055508173ffffffffffffffffffffffffffffffffffffffff168173ffffffffffffffffffffffffffffffffffffffff167f8be0079c531659141344cd1fd0a4f28419497f9722a3daafe3b4186f6b6457e060405160405180910390a35050565b5f33905090565b5f80fd5b5f73ffffffffffffffffffffffffffffffffffffffff82169050919050565b5f611914826118eb565b9050919050565b6119248161190a565b811461192e575f80fd5b50565b5f8135905061193f8161191b565b92915050565b5f6020828403121561195a576119596118e7565b5b5f61196784828501611931565b91505092915050565b5f819050919050565b61198281611970565b82525050565b5f60208201905061199b5f830184611979565b92915050565b5f819050919050565b5f6119c46119bf6119ba846118eb565b6119a1565b6118eb565b9050919050565b5f6119d5826119aa565b9050919050565b5f6119e6826119cb565b9050919050565b6119f6816119dc565b82525050565b5f602082019050611a0f5f8301846119ed565b92915050565b5f819050919050565b611a2781611a15565b82525050565b5f602082019050611a405f830184611a1e565b92915050565b5f611a50826119cb565b9050919050565b611a6081611a46565b82525050565b5f602082019050611a795f830184611a57565b92915050565b611a8881611970565b8114611a92575f80fd5b50565b5f81359050611aa381611a7f565b92915050565b5f60208284031215611abe57611abd6118e7565b5b5f611acb84828501611a95565b91505092915050565b611add8161190a565b82525050565b5f602082019050611af65f830184611ad4565b92915050565b5f8115159050919050565b611b1081611afc565b82525050565b5f60c082019050611b295f830189611979565b611b366020830188611979565b611b436040830187611979565b611b506060830186611979565b611b5d6080830185611b07565b611b6a60a0830184611b07565b979650505050505050565b5f81519050611b8381611a7f565b92915050565b5f8060408385031215611b9f57611b9e6118e7565b5b5f611bac85828601611b75565b9250506020611bbd85828601611b75565b9150509250929050565b7f4e487b71000000000000000000000000000000000000000000000000000000005f52601160045260245ffd5b5f611bfe82611970565b9150611c0983611970565b9250828202611c1781611970565b91508282048414831517611c2e57611c2d611bc7565b5b5092915050565b7f4e487b71000000000000000000000000000000000000000000000000000000005f52601260045260245ffd5b5f611c6c82611970565b9150611c7783611970565b925082611c8757611c86611c35565b5b828204905092915050565b5f611c9c82611970565b9150611ca783611970565b9250828201905080821115611cbf57611cbe611bc7565b5b92915050565b5f69ffffffffffffffffffff82169050919050565b611ce381611cc5565b8114611ced575f80fd5b50565b5f81519050611cfe81611cda565b92915050565b611d0d81611a15565b8114611d17575f80fd5b50565b5f81519050611d2881611d04565b92915050565b5f805f805f60a08688031215611d4757611d466118e7565b5b5f611d5488828901611cf0565b9550506020611d6588828901611d1a565b9450506040611d7688828901611b75565b9350506060611d8788828901611b75565b9250506080611d9888828901611cf0565b9150509295509295909350565b5f82825260208201905092915050565b7f4c6f616e4d616e616765723a204e6f20616374697665206c6f616e00000000005f82015250565b5f611de9601b83611da5565b9150611df482611db5565b602082019050919050565b5f6020820190508181035f830152611e1681611ddd565b9050919050565b7f4c6f616e4d616e616765723a204c6f616e206e6f742064656661756c746564005f82015250565b5f611e51601f83611da5565b9150611e5c82611e1d565b602082019050919050565b5f6020820190508181035f830152611e7e81611e45565b9050919050565b7f4c6f616e4d616e616765723a20496e76616c696420726174696f0000000000005f82015250565b5f611eb9601a83611da5565b9150611ec482611e85565b602082019050919050565b5f6020820190508181035f830152611ee681611ead565b9050919050565b7f4c6f616e4d616e616765723a204c6f616e20616d6f756e74206d7573742062655f8201527f2067726561746572207468616e20300000000000000000000000000000000000602082015250565b5f611f47602f83611da5565b9150611f5282611eed565b604082019050919050565b5f6020820190508181035f830152611f7481611f3b565b9050919050565b7f4c6f616e4d616e616765723a204578697374696e67206c6f616e206d757374205f8201527f6265207265706169642066697273740000000000000000000000000000000000602082015250565b5f611fd5602f83611da5565b9150611fe082611f7b565b604082019050919050565b5f6020820190508181035f83015261200281611fc9565b9050919050565b5f60408201905061201c5f830185611ad4565b6120296020830184611979565b9392505050565b61203981611afc565b8114612043575f80fd5b50565b5f8151905061205481612030565b92915050565b5f6020828403121561206f5761206e6118e7565b5b5f61207c84828501612046565b91505092915050565b7f4c6f616e4d616e616765723a204c6f616e207472616e73666572206661696c655f8201527f6400000000000000000000000000000000000000000000000000000000000000602082015250565b5f6120df602183611da5565b91506120ea82612085565b604082019050919050565b5f6020820190508181035f83015261210c816120d3565b9050919050565b5f6040820190506121265f830185611979565b6121336020830184611979565b9392505050565b5f60608201905061214d5f830186611ad4565b61215a6020830185611ad4565b6121676040830184611979565b949350505050565b7f4c6f616e4d616e616765723a2046756e64207472616e73666572206661696c655f8201527f6400000000000000000000000000000000000000000000000000000000000000602082015250565b5f6121c9602183611da5565b91506121d48261216f565b604082019050919050565b5f6020820190508181035f8301526121f6816121bd565b9050919050565b7f4c6f616e4d616e616765723a204c6f616e20697320616c7265616479207265705f8201527f6169640000000000000000000000000000000000000000000000000000000000602082015250565b5f612257602383611da5565b9150612262826121fd565b604082019050919050565b5f6020820190508181035f8301526122848161224b565b9050919050565b7f4c6f616e4d616e616765723a20496e73756666696369656e742072657061796d5f8201527f656e7420616d6f756e7400000000000000000000000000000000000000000000602082015250565b5f6122e5602a83611da5565b91506122f08261228b565b604082019050919050565b5f6020820190508181035f830152612312816122d9565b9050919050565b7f4c6f616e4d616e616765723a2052657061796d656e74207472616e73666572205f8201527f6661696c65640000000000000000000000000000000000000000000000000000602082015250565b5f612373602683611da5565b915061237e82612319565b604082019050919050565b5f6020820190508181035f8301526123a081612367565b9050919050565b7f4c6f616e4d616e616765723a20496e76616c6964206475726174696f6e0000005f82015250565b5f6123db601d83611da5565b91506123e6826123a7565b602082019050919050565b5f6020820190508181035f830152612408816123cf565b9050919050565b7f4c6f616e4d616e616765723a204c6f616e20616c72656164792064656661756c5f8201527f7465640000000000000000000000000000000000000000000000000000000000602082015250565b5f612469602383611da5565b91506124748261240f565b604082019050919050565b5f6020820190508181035f8301526124968161245d565b9050919050565b7f4c6f616e4d616e616765723a204c6f616e206e6f742064656661756c746564205f8201527f7965740000000000000000000000000000000000000000000000000000000000602082015250565b5f6124f7602383611da5565b91506125028261249d565b604082019050919050565b5f6020820190508181035f830152612524816124eb565b905091905056fea264697066735822122078df643b152a01a3158faae20947675fb47946bf268c25a2d34773c0b87e151e64736f6c634300081a0033",
					"opcodes": "PUSH1 0x80 PUSH1 0x40 MSTORE PUSH1 0x96 PUSH1 0x5 SSTORE PUSH3 0x278D00 PUSH1 0x6 SSTORE PUSH3 0x13C680 PUSH1 0x7 SSTORE CALLVALUE DUP1 ISZERO PUSH2 0x22 JUMPI PUSH0 DUP1 REVERT JUMPDEST POP PUSH1 0x40 MLOAD PUSH2 0x292B CODESIZE SUB DUP1 PUSH2 0x292B DUP4 CODECOPY DUP2 DUP2 ADD PUSH1 0x40 MSTORE DUP2 ADD SWAP1 PUSH2 0x44 SWAP2 SWAP1 PUSH2 0x357 JUMP JUMPDEST CALLER PUSH1 0x1 PUSH0 DUP2 SWAP1 SSTORE POP PUSH0 PUSH20 0xFFFFFFFFFFFFFFFFFFFFFFFFFFFFFFFFFFFFFFFF AND DUP2 PUSH20 0xFFFFFFFFFFFFFFFFFFFFFFFFFFFFFFFFFFFFFFFF AND SUB PUSH2 0xBC JUMPI PUSH0 PUSH1 0x40 MLOAD PUSH32 0x1E4FBDF700000000000000000000000000000000000000000000000000000000 DUP2 MSTORE PUSH1 0x4 ADD PUSH2 0xB3 SWAP2 SWAP1 PUSH2 0x3A4 JUMP JUMPDEST PUSH1 0x40 MLOAD DUP1 SWAP2 SUB SWAP1 REVERT JUMPDEST PUSH2 0xCB DUP2 PUSH2 0x1FB PUSH1 0x20 SHL PUSH1 0x20 SHR JUMP JUMPDEST POP DUP2 PUSH1 0x2 PUSH0 PUSH2 0x100 EXP DUP2 SLOAD DUP2 PUSH20 0xFFFFFFFFFFFFFFFFFFFFFFFFFFFFFFFFFFFFFFFF MUL NOT AND SWAP1 DUP4 PUSH20 0xFFFFFFFFFFFFFFFFFFFFFFFFFFFFFFFFFFFFFFFF AND MUL OR SWAP1 SSTORE POP DUP1 PUSH1 0x3 PUSH0 PUSH2 0x100 EXP DUP2 SLOAD DUP2 PUSH20 0xFFFFFFFFFFFFFFFFFFFFFFFFFFFFFFFFFFFFFFFF MUL NOT AND SWAP1 DUP4 PUSH20 0xFFFFFFFFFFFFFFFFFFFFFFFFFFFFFFFFFFFFFFFF AND MUL OR SWAP1 SSTORE POP PUSH20 0x3C65E28D357A37589E1C7C86044A9F44DDC17134 PUSH1 0x8 PUSH0 PUSH2 0x100 EXP DUP2 SLOAD DUP2 PUSH20 0xFFFFFFFFFFFFFFFFFFFFFFFFFFFFFFFFFFFFFFFF MUL NOT AND SWAP1 DUP4 PUSH20 0xFFFFFFFFFFFFFFFFFFFFFFFFFFFFFFFFFFFFFFFF AND MUL OR SWAP1 SSTORE POP PUSH20 0x3EC8593F930EA45EA58C968260E6E9FF53FC934F PUSH1 0x9 PUSH0 PUSH2 0x100 EXP DUP2 SLOAD DUP2 PUSH20 0xFFFFFFFFFFFFFFFFFFFFFFFFFFFFFFFFFFFFFFFF MUL NOT AND SWAP1 DUP4 PUSH20 0xFFFFFFFFFFFFFFFFFFFFFFFFFFFFFFFFFFFFFFFF AND MUL OR SWAP1 SSTORE POP POP POP PUSH2 0x3BD JUMP JUMPDEST PUSH0 PUSH1 0x1 PUSH0 SWAP1 SLOAD SWAP1 PUSH2 0x100 EXP SWAP1 DIV PUSH20 0xFFFFFFFFFFFFFFFFFFFFFFFFFFFFFFFFFFFFFFFF AND SWAP1 POP DUP2 PUSH1 0x1 PUSH0 PUSH2 0x100 EXP DUP2 SLOAD DUP2 PUSH20 0xFFFFFFFFFFFFFFFFFFFFFFFFFFFFFFFFFFFFFFFF MUL NOT AND SWAP1 DUP4 PUSH20 0xFFFFFFFFFFFFFFFFFFFFFFFFFFFFFFFFFFFFFFFF AND MUL OR SWAP1 SSTORE POP DUP2 PUSH20 0xFFFFFFFFFFFFFFFFFFFFFFFFFFFFFFFFFFFFFFFF AND DUP2 PUSH20 0xFFFFFFFFFFFFFFFFFFFFFFFFFFFFFFFFFFFFFFFF AND PUSH32 0x8BE0079C531659141344CD1FD0A4F28419497F9722A3DAAFE3B4186F6B6457E0 PUSH1 0x40 MLOAD PUSH1 0x40 MLOAD DUP1 SWAP2 SUB SWAP1 LOG3 POP POP JUMP JUMPDEST PUSH0 DUP1 REVERT JUMPDEST PUSH0 PUSH20 0xFFFFFFFFFFFFFFFFFFFFFFFFFFFFFFFFFFFFFFFF DUP3 AND SWAP1 POP SWAP2 SWAP1 POP JUMP JUMPDEST PUSH0 PUSH2 0x2EB DUP3 PUSH2 0x2C2 JUMP JUMPDEST SWAP1 POP SWAP2 SWAP1 POP JUMP JUMPDEST PUSH0 PUSH2 0x2FC DUP3 PUSH2 0x2E1 JUMP JUMPDEST SWAP1 POP SWAP2 SWAP1 POP JUMP JUMPDEST PUSH2 0x30C DUP2 PUSH2 0x2F2 JUMP JUMPDEST DUP2 EQ PUSH2 0x316 JUMPI PUSH0 DUP1 REVERT JUMPDEST POP JUMP JUMPDEST PUSH0 DUP2 MLOAD SWAP1 POP PUSH2 0x327 DUP2 PUSH2 0x303 JUMP JUMPDEST SWAP3 SWAP2 POP POP JUMP JUMPDEST PUSH2 0x336 DUP2 PUSH2 0x2E1 JUMP JUMPDEST DUP2 EQ PUSH2 0x340 JUMPI PUSH0 DUP1 REVERT JUMPDEST POP JUMP JUMPDEST PUSH0 DUP2 MLOAD SWAP1 POP PUSH2 0x351 DUP2 PUSH2 0x32D JUMP JUMPDEST SWAP3 SWAP2 POP POP JUMP JUMPDEST PUSH0 DUP1 PUSH1 0x40 DUP4 DUP6 SUB SLT ISZERO PUSH2 0x36D JUMPI PUSH2 0x36C PUSH2 0x2BE JUMP JUMPDEST JUMPDEST PUSH0 PUSH2 0x37A DUP6 DUP3 DUP7 ADD PUSH2 0x319 JUMP JUMPDEST SWAP3 POP POP PUSH1 0x20 PUSH2 0x38B DUP6 DUP3 DUP7 ADD PUSH2 0x343 JUMP JUMPDEST SWAP2 POP POP SWAP3 POP SWAP3 SWAP1 POP JUMP JUMPDEST PUSH2 0x39E DUP2 PUSH2 0x2E1 JUMP JUMPDEST DUP3 MSTORE POP POP JUMP JUMPDEST PUSH0 PUSH1 0x20 DUP3 ADD SWAP1 POP PUSH2 0x3B7 PUSH0 DUP4 ADD DUP5 PUSH2 0x395 JUMP JUMPDEST SWAP3 SWAP2 POP POP JUMP JUMPDEST PUSH2 0x2561 DUP1 PUSH2 0x3CA PUSH0 CODECOPY PUSH0 RETURN INVALID PUSH1 0x80 PUSH1 0x40 MSTORE CALLVALUE DUP1 ISZERO PUSH2 0xF JUMPI PUSH0 DUP1 REVERT JUMPDEST POP PUSH1 0x4 CALLDATASIZE LT PUSH2 0x14B JUMPI PUSH0 CALLDATALOAD PUSH1 0xE0 SHR DUP1 PUSH4 0x8D5D3429 GT PUSH2 0xC1 JUMPI DUP1 PUSH4 0xC000BC60 GT PUSH2 0x7A JUMPI DUP1 PUSH4 0xC000BC60 EQ PUSH2 0x351 JUMPI DUP1 PUSH4 0xE9E190A3 EQ PUSH2 0x36D JUMPI DUP1 PUSH4 0xEBBB7DE9 EQ PUSH2 0x3A2 JUMPI DUP1 PUSH4 0xEC9E0393 EQ PUSH2 0x3BE JUMPI DUP1 PUSH4 0xF2FDE38B EQ PUSH2 0x3DC JUMPI DUP1 PUSH4 0xF5521BF1 EQ PUSH2 0x3F8 JUMPI PUSH2 0x14B JUMP JUMPDEST DUP1 PUSH4 0x8D5D3429 EQ PUSH2 0x293 JUMPI DUP1 PUSH4 0x8DA5CB5B EQ PUSH2 0x2AF JUMPI DUP1 PUSH4 0x97ED71EB EQ PUSH2 0x2CD JUMPI DUP1 PUSH4 0xAB7B1C89 EQ PUSH2 0x2E9 JUMPI DUP1 PUSH4 0xADE8D29E EQ PUSH2 0x305 JUMPI DUP1 PUSH4 0xBA43A922 EQ PUSH2 0x335 JUMPI PUSH2 0x14B JUMP JUMPDEST DUP1 PUSH4 0x2AF7E2EA GT PUSH2 0x113 JUMPI DUP1 PUSH4 0x2AF7E2EA EQ PUSH2 0x1F5 JUMPI DUP1 PUSH4 0x650DFA18 EQ PUSH2 0x213 JUMPI DUP1 PUSH4 0x656F9BA4 EQ PUSH2 0x22F JUMPI DUP1 PUSH4 0x688AEF48 EQ PUSH2 0x24D JUMPI DUP1 PUSH4 0x70F37D27 EQ PUSH2 0x26B JUMPI DUP1 PUSH4 0x715018A6 EQ PUSH2 0x289 JUMPI PUSH2 0x14B JUMP JUMPDEST DUP1 PUSH4 0x9B8AAFD EQ PUSH2 0x14F JUMPI DUP1 PUSH4 0xEA86AD8 EQ PUSH2 0x17F JUMPI DUP1 PUSH4 0x17430C9E EQ PUSH2 0x19D JUMPI DUP1 PUSH4 0x1FEA5A6B EQ PUSH2 0x1BB JUMPI DUP1 PUSH4 0x23BE345C EQ PUSH2 0x1D7 JUMPI JUMPDEST PUSH0 DUP1 REVERT JUMPDEST PUSH2 0x169 PUSH1 0x4 DUP1 CALLDATASIZE SUB DUP2 ADD SWAP1 PUSH2 0x164 SWAP2 SWAP1 PUSH2 0x1945 JUMP JUMPDEST PUSH2 0x416 JUMP JUMPDEST PUSH1 0x40 MLOAD PUSH2 0x176 SWAP2 SWAP1 PUSH2 0x1988 JUMP JUMPDEST PUSH1 0x40 MLOAD DUP1 SWAP2 SUB SWAP1 RETURN JUMPDEST PUSH2 0x187 PUSH2 0x523 JUMP JUMPDEST PUSH1 0x40 MLOAD PUSH2 0x194 SWAP2 SWAP1 PUSH2 0x19FC JUMP JUMPDEST PUSH1 0x40 MLOAD DUP1 SWAP2 SUB SWAP1 RETURN JUMPDEST PUSH2 0x1A5 PUSH2 0x548 JUMP JUMPDEST PUSH1 0x40 MLOAD PUSH2 0x1B2 SWAP2 SWAP1 PUSH2 0x1A2D JUMP JUMPDEST PUSH1 0x40 MLOAD DUP1 SWAP2 SUB SWAP1 RETURN JUMPDEST PUSH2 0x1D5 PUSH1 0x4 DUP1 CALLDATASIZE SUB DUP2 ADD SWAP1 PUSH2 0x1D0 SWAP2 SWAP1 PUSH2 0x1945 JUMP JUMPDEST PUSH2 0x5E5 JUMP JUMPDEST STOP JUMPDEST PUSH2 0x1DF PUSH2 0x7D8 JUMP JUMPDEST PUSH1 0x40 MLOAD PUSH2 0x1EC SWAP2 SWAP1 PUSH2 0x1A66 JUMP JUMPDEST PUSH1 0x40 MLOAD DUP1 SWAP2 SUB SWAP1 RETURN JUMPDEST PUSH2 0x1FD PUSH2 0x7FD JUMP JUMPDEST PUSH1 0x40 MLOAD PUSH2 0x20A SWAP2 SWAP1 PUSH2 0x1988 JUMP JUMPDEST PUSH1 0x40 MLOAD DUP1 SWAP2 SUB SWAP1 RETURN JUMPDEST PUSH2 0x22D PUSH1 0x4 DUP1 CALLDATASIZE SUB DUP2 ADD SWAP1 PUSH2 0x228 SWAP2 SWAP1 PUSH2 0x1AA9 JUMP JUMPDEST PUSH2 0x803 JUMP JUMPDEST STOP JUMPDEST PUSH2 0x237 PUSH2 0x851 JUMP JUMPDEST PUSH1 0x40 MLOAD PUSH2 0x244 SWAP2 SWAP1 PUSH2 0x1988 JUMP JUMPDEST PUSH1 0x40 MLOAD DUP1 SWAP2 SUB SWAP1 RETURN JUMPDEST PUSH2 0x255 PUSH2 0x95C JUMP JUMPDEST PUSH1 0x40 MLOAD PUSH2 0x262 SWAP2 SWAP1 PUSH2 0x1988 JUMP JUMPDEST PUSH1 0x40 MLOAD DUP1 SWAP2 SUB SWAP1 RETURN JUMPDEST PUSH2 0x273 PUSH2 0x962 JUMP JUMPDEST PUSH1 0x40 MLOAD PUSH2 0x280 SWAP2 SWAP1 PUSH2 0x1988 JUMP JUMPDEST PUSH1 0x40 MLOAD DUP1 SWAP2 SUB SWAP1 RETURN JUMPDEST PUSH2 0x291 PUSH2 0x968 JUMP JUMPDEST STOP JUMPDEST PUSH2 0x2AD PUSH1 0x4 DUP1 CALLDATASIZE SUB DUP2 ADD SWAP1 PUSH2 0x2A8 SWAP2 SWAP1 PUSH2 0x1AA9 JUMP JUMPDEST PUSH2 0x97B JUMP JUMPDEST STOP JUMPDEST PUSH2 0x2B7 PUSH2 0xD66 JUMP JUMPDEST PUSH1 0x40 MLOAD PUSH2 0x2C4 SWAP2 SWAP1 PUSH2 0x1AE3 JUMP JUMPDEST PUSH1 0x40 MLOAD DUP1 SWAP2 SUB SWAP1 RETURN JUMPDEST PUSH2 0x2E7 PUSH1 0x4 DUP1 CALLDATASIZE SUB DUP2 ADD SWAP1 PUSH2 0x2E2 SWAP2 SWAP1 PUSH2 0x1AA9 JUMP JUMPDEST PUSH2 0xD8E JUMP JUMPDEST STOP JUMPDEST PUSH2 0x303 PUSH1 0x4 DUP1 CALLDATASIZE SUB DUP2 ADD SWAP1 PUSH2 0x2FE SWAP2 SWAP1 PUSH2 0x1AA9 JUMP JUMPDEST PUSH2 0xE8E JUMP JUMPDEST STOP JUMPDEST PUSH2 0x31F PUSH1 0x4 DUP1 CALLDATASIZE SUB DUP2 ADD SWAP1 PUSH2 0x31A SWAP2 SWAP1 PUSH2 0x1945 JUMP JUMPDEST PUSH2 0x1207 JUMP JUMPDEST PUSH1 0x40 MLOAD PUSH2 0x32C SWAP2 SWAP1 PUSH2 0x1988 JUMP JUMPDEST PUSH1 0x40 MLOAD DUP1 SWAP2 SUB SWAP1 RETURN JUMPDEST PUSH2 0x34F PUSH1 0x4 DUP1 CALLDATASIZE SUB DUP2 ADD SWAP1 PUSH2 0x34A SWAP2 SWAP1 PUSH2 0x1AA9 JUMP JUMPDEST PUSH2 0x12E4 JUMP JUMPDEST STOP JUMPDEST PUSH2 0x36B PUSH1 0x4 DUP1 CALLDATASIZE SUB DUP2 ADD SWAP1 PUSH2 0x366 SWAP2 SWAP1 PUSH2 0x1AA9 JUMP JUMPDEST PUSH2 0x1338 JUMP JUMPDEST STOP JUMPDEST PUSH2 0x387 PUSH1 0x4 DUP1 CALLDATASIZE SUB DUP2 ADD SWAP1 PUSH2 0x382 SWAP2 SWAP1 PUSH2 0x1945 JUMP JUMPDEST PUSH2 0x138C JUMP JUMPDEST PUSH1 0x40 MLOAD PUSH2 0x399 SWAP7 SWAP6 SWAP5 SWAP4 SWAP3 SWAP2 SWAP1 PUSH2 0x1B16 JUMP JUMPDEST PUSH1 0x40 MLOAD DUP1 SWAP2 SUB SWAP1 RETURN JUMPDEST PUSH2 0x3BC PUSH1 0x4 DUP1 CALLDATASIZE SUB DUP2 ADD SWAP1 PUSH2 0x3B7 SWAP2 SWAP1 PUSH2 0x1945 JUMP JUMPDEST PUSH2 0x13DD JUMP JUMPDEST STOP JUMPDEST PUSH2 0x3C6 PUSH2 0x1622 JUMP JUMPDEST PUSH1 0x40 MLOAD PUSH2 0x3D3 SWAP2 SWAP1 PUSH2 0x1A2D JUMP JUMPDEST PUSH1 0x40 MLOAD DUP1 SWAP2 SUB SWAP1 RETURN JUMPDEST PUSH2 0x3F6 PUSH1 0x4 DUP1 CALLDATASIZE SUB DUP2 ADD SWAP1 PUSH2 0x3F1 SWAP2 SWAP1 PUSH2 0x1945 JUMP JUMPDEST PUSH2 0x16BF JUMP JUMPDEST STOP JUMPDEST PUSH2 0x400 PUSH2 0x1743 JUMP JUMPDEST PUSH1 0x40 MLOAD PUSH2 0x40D SWAP2 SWAP1 PUSH2 0x1988 JUMP JUMPDEST PUSH1 0x40 MLOAD DUP1 SWAP2 SUB SWAP1 RETURN JUMPDEST PUSH0 DUP1 PUSH0 PUSH1 0x3 PUSH0 SWAP1 SLOAD SWAP1 PUSH2 0x100 EXP SWAP1 DIV PUSH20 0xFFFFFFFFFFFFFFFFFFFFFFFFFFFFFFFFFFFFFFFF AND PUSH20 0xFFFFFFFFFFFFFFFFFFFFFFFFFFFFFFFFFFFFFFFF AND PUSH4 0x2703EE85 DUP6 PUSH1 0x40 MLOAD DUP3 PUSH4 0xFFFFFFFF AND PUSH1 0xE0 SHL DUP2 MSTORE PUSH1 0x4 ADD PUSH2 0x473 SWAP2 SWAP1 PUSH2 0x1AE3 JUMP JUMPDEST PUSH1 0x40 DUP1 MLOAD DUP1 DUP4 SUB DUP2 DUP7 GAS STATICCALL ISZERO DUP1 ISZERO PUSH2 0x48D JUMPI RETURNDATASIZE PUSH0 DUP1 RETURNDATACOPY RETURNDATASIZE PUSH0 REVERT JUMPDEST POP POP POP POP PUSH1 0x40 MLOAD RETURNDATASIZE PUSH1 0x1F NOT PUSH1 0x1F DUP3 ADD AND DUP3 ADD DUP1 PUSH1 0x40 MSTORE POP DUP2 ADD SWAP1 PUSH2 0x4B1 SWAP2 SWAP1 PUSH2 0x1B89 JUMP JUMPDEST SWAP2 POP SWAP2 POP PUSH0 PUSH2 0x4BE PUSH2 0x548 JUMP JUMPDEST SWAP1 POP PUSH0 PUSH2 0x4C9 PUSH2 0x1622 JUMP JUMPDEST SWAP1 POP PUSH0 PUSH8 0xDE0B6B3A7640000 DUP3 DUP6 PUSH2 0x4E1 SWAP2 SWAP1 PUSH2 0x1BF4 JUMP JUMPDEST PUSH2 0x4EB SWAP2 SWAP1 PUSH2 0x1C62 JUMP JUMPDEST PUSH8 0xDE0B6B3A7640000 DUP5 DUP8 PUSH2 0x500 SWAP2 SWAP1 PUSH2 0x1BF4 JUMP JUMPDEST PUSH2 0x50A SWAP2 SWAP1 PUSH2 0x1C62 JUMP JUMPDEST PUSH2 0x514 SWAP2 SWAP1 PUSH2 0x1C92 JUMP JUMPDEST SWAP1 POP DUP1 SWAP6 POP POP POP POP POP POP SWAP2 SWAP1 POP JUMP JUMPDEST PUSH1 0x2 PUSH0 SWAP1 SLOAD SWAP1 PUSH2 0x100 EXP SWAP1 DIV PUSH20 0xFFFFFFFFFFFFFFFFFFFFFFFFFFFFFFFFFFFFFFFF AND DUP2 JUMP JUMPDEST PUSH0 DUP1 PUSH1 0x8 PUSH0 SWAP1 SLOAD SWAP1 PUSH2 0x100 EXP SWAP1 DIV PUSH20 0xFFFFFFFFFFFFFFFFFFFFFFFFFFFFFFFFFFFFFFFF AND PUSH20 0xFFFFFFFFFFFFFFFFFFFFFFFFFFFFFFFFFFFFFFFF AND PUSH4 0xFEAF968C PUSH1 0x40 MLOAD DUP2 PUSH4 0xFFFFFFFF AND PUSH1 0xE0 SHL DUP2 MSTORE PUSH1 0x4 ADD PUSH1 0xA0 PUSH1 0x40 MLOAD DUP1 DUP4 SUB DUP2 DUP7 GAS STATICCALL ISZERO DUP1 ISZERO PUSH2 0x5B4 JUMPI RETURNDATASIZE PUSH0 DUP1 RETURNDATACOPY RETURNDATASIZE PUSH0 REVERT JUMPDEST POP POP POP POP PUSH1 0x40 MLOAD RETURNDATASIZE PUSH1 0x1F NOT PUSH1 0x1F DUP3 ADD AND DUP3 ADD DUP1 PUSH1 0x40 MSTORE POP DUP2 ADD SWAP1 PUSH2 0x5D8 SWAP2 SWAP1 PUSH2 0x1D2E JUMP JUMPDEST POP POP POP SWAP2 POP POP DUP1 SWAP2 POP POP SWAP1 JUMP JUMPDEST PUSH2 0x5ED PUSH2 0x1749 JUMP JUMPDEST PUSH0 PUSH1 0xA PUSH0 DUP4 PUSH20 0xFFFFFFFFFFFFFFFFFFFFFFFFFFFFFFFFFFFFFFFF AND PUSH20 0xFFFFFFFFFFFFFFFFFFFFFFFFFFFFFFFFFFFFFFFF AND DUP2 MSTORE PUSH1 0x20 ADD SWAP1 DUP2 MSTORE PUSH1 0x20 ADD PUSH0 KECCAK256 SWAP1 POP PUSH0 DUP2 PUSH0 ADD SLOAD GT PUSH2 0x672 JUMPI PUSH1 0x40 MLOAD PUSH32 0x8C379A000000000000000000000000000000000000000000000000000000000 DUP2 MSTORE PUSH1 0x4 ADD PUSH2 0x669 SWAP1 PUSH2 0x1DFF JUMP JUMPDEST PUSH1 0x40 MLOAD DUP1 SWAP2 SUB SWAP1 REVERT JUMPDEST DUP1 PUSH1 0x4 ADD PUSH1 0x1 SWAP1 SLOAD SWAP1 PUSH2 0x100 EXP SWAP1 DIV PUSH1 0xFF AND PUSH2 0x6C3 JUMPI PUSH1 0x40 MLOAD PUSH32 0x8C379A000000000000000000000000000000000000000000000000000000000 DUP2 MSTORE PUSH1 0x4 ADD PUSH2 0x6BA SWAP1 PUSH2 0x1E67 JUMP JUMPDEST PUSH1 0x40 MLOAD DUP1 SWAP2 SUB SWAP1 REVERT JUMPDEST PUSH1 0x3 PUSH0 SWAP1 SLOAD SWAP1 PUSH2 0x100 EXP SWAP1 DIV PUSH20 0xFFFFFFFFFFFFFFFFFFFFFFFFFFFFFFFFFFFFFFFF AND PUSH20 0xFFFFFFFFFFFFFFFFFFFFFFFFFFFFFFFFFFFFFFFF AND PUSH4 0x1FEA5A6B DUP4 PUSH1 0x40 MLOAD DUP3 PUSH4 0xFFFFFFFF AND PUSH1 0xE0 SHL DUP2 MSTORE PUSH1 0x4 ADD PUSH2 0x71D SWAP2 SWAP1 PUSH2 0x1AE3 JUMP JUMPDEST PUSH0 PUSH1 0x40 MLOAD DUP1 DUP4 SUB DUP2 PUSH0 DUP8 DUP1 EXTCODESIZE ISZERO DUP1 ISZERO PUSH2 0x734 JUMPI PUSH0 DUP1 REVERT JUMPDEST POP GAS CALL ISZERO DUP1 ISZERO PUSH2 0x746 JUMPI RETURNDATASIZE PUSH0 DUP1 RETURNDATACOPY RETURNDATASIZE PUSH0 REVERT JUMPDEST POP POP POP POP PUSH1 0xA PUSH0 DUP4 PUSH20 0xFFFFFFFFFFFFFFFFFFFFFFFFFFFFFFFFFFFFFFFF AND PUSH20 0xFFFFFFFFFFFFFFFFFFFFFFFFFFFFFFFFFFFFFFFF AND DUP2 MSTORE PUSH1 0x20 ADD SWAP1 DUP2 MSTORE PUSH1 0x20 ADD PUSH0 KECCAK256 PUSH0 DUP1 DUP3 ADD PUSH0 SWAP1 SSTORE PUSH1 0x1 DUP3 ADD PUSH0 SWAP1 SSTORE PUSH1 0x2 DUP3 ADD PUSH0 SWAP1 SSTORE PUSH1 0x3 DUP3 ADD PUSH0 SWAP1 SSTORE PUSH1 0x4 DUP3 ADD PUSH0 PUSH2 0x100 EXP DUP2 SLOAD SWAP1 PUSH1 0xFF MUL NOT AND SWAP1 SSTORE PUSH1 0x4 DUP3 ADD PUSH1 0x1 PUSH2 0x100 EXP DUP2 SLOAD SWAP1 PUSH1 0xFF MUL NOT AND SWAP1 SSTORE POP POP POP PUSH2 0x7D5 PUSH2 0x178D JUMP JUMPDEST POP JUMP JUMPDEST PUSH1 0x3 PUSH0 SWAP1 SLOAD SWAP1 PUSH2 0x100 EXP SWAP1 DIV PUSH20 0xFFFFFFFFFFFFFFFFFFFFFFFFFFFFFFFFFFFFFFFF AND DUP2 JUMP JUMPDEST PUSH1 0x7 SLOAD DUP2 JUMP JUMPDEST PUSH1 0x64 DUP2 LT ISZERO PUSH2 0x847 JUMPI PUSH1 0x40 MLOAD PUSH32 0x8C379A000000000000000000000000000000000000000000000000000000000 DUP2 MSTORE PUSH1 0x4 ADD PUSH2 0x83E SWAP1 PUSH2 0x1ECF JUMP JUMPDEST PUSH1 0x40 MLOAD DUP1 SWAP2 SUB SWAP1 REVERT JUMPDEST DUP1 PUSH1 0x5 DUP2 SWAP1 SSTORE POP POP JUMP JUMPDEST PUSH0 DUP1 PUSH0 PUSH1 0x3 PUSH0 SWAP1 SLOAD SWAP1 PUSH2 0x100 EXP SWAP1 DIV PUSH20 0xFFFFFFFFFFFFFFFFFFFFFFFFFFFFFFFFFFFFFFFF AND PUSH20 0xFFFFFFFFFFFFFFFFFFFFFFFFFFFFFFFFFFFFFFFF AND PUSH4 0x2703EE85 CALLER PUSH1 0x40 MLOAD DUP3 PUSH4 0xFFFFFFFF AND PUSH1 0xE0 SHL DUP2 MSTORE PUSH1 0x4 ADD PUSH2 0x8AE SWAP2 SWAP1 PUSH2 0x1AE3 JUMP JUMPDEST PUSH1 0x40 DUP1 MLOAD DUP1 DUP4 SUB DUP2 DUP7 GAS STATICCALL ISZERO DUP1 ISZERO PUSH2 0x8C8 JUMPI RETURNDATASIZE PUSH0 DUP1 RETURNDATACOPY RETURNDATASIZE PUSH0 REVERT JUMPDEST POP POP POP POP PUSH1 0x40 MLOAD RETURNDATASIZE PUSH1 0x1F NOT PUSH1 0x1F DUP3 ADD AND DUP3 ADD DUP1 PUSH1 0x40 MSTORE POP DUP2 ADD SWAP1 PUSH2 0x8EC SWAP2 SWAP1 PUSH2 0x1B89 JUMP JUMPDEST SWAP2 POP SWAP2 POP PUSH0 PUSH2 0x8F9 PUSH2 0x548 JUMP JUMPDEST SWAP1 POP PUSH0 PUSH2 0x904 PUSH2 0x1622 JUMP JUMPDEST SWAP1 POP PUSH0 PUSH8 0xDE0B6B3A7640000 DUP3 DUP6 PUSH2 0x91C SWAP2 SWAP1 PUSH2 0x1BF4 JUMP JUMPDEST PUSH2 0x926 SWAP2 SWAP1 PUSH2 0x1C62 JUMP JUMPDEST PUSH8 0xDE0B6B3A7640000 DUP5 DUP8 PUSH2 0x93B SWAP2 SWAP1 PUSH2 0x1BF4 JUMP JUMPDEST PUSH2 0x945 SWAP2 SWAP1 PUSH2 0x1C62 JUMP JUMPDEST PUSH2 0x94F SWAP2 SWAP1 PUSH2 0x1C92 JUMP JUMPDEST SWAP1 POP DUP1 SWAP6 POP POP POP POP POP POP SWAP1 JUMP JUMPDEST PUSH1 0x5 SLOAD DUP2 JUMP JUMPDEST PUSH1 0x4 SLOAD DUP2 JUMP JUMPDEST PUSH2 0x970 PUSH2 0x1796 JUMP JUMPDEST PUSH2 0x979 PUSH0 PUSH2 0x181D JUMP JUMPDEST JUMP JUMPDEST PUSH2 0x983 PUSH2 0x1749 JUMP JUMPDEST PUSH0 DUP2 GT PUSH2 0x9C5 JUMPI PUSH1 0x40 MLOAD PUSH32 0x8C379A000000000000000000000000000000000000000000000000000000000 DUP2 MSTORE PUSH1 0x4 ADD PUSH2 0x9BC SWAP1 PUSH2 0x1F5D JUMP JUMPDEST PUSH1 0x40 MLOAD DUP1 SWAP2 SUB SWAP1 REVERT JUMPDEST PUSH0 PUSH1 0xA PUSH0 CALLER PUSH20 0xFFFFFFFFFFFFFFFFFFFFFFFFFFFFFFFFFFFFFFFF AND PUSH20 0xFFFFFFFFFFFFFFFFFFFFFFFFFFFFFFFFFFFFFFFF AND DUP2 MSTORE PUSH1 0x20 ADD SWAP1 DUP2 MSTORE PUSH1 0x20 ADD PUSH0 KECCAK256 PUSH0 ADD SLOAD EQ PUSH2 0xA46 JUMPI PUSH1 0x40 MLOAD PUSH32 0x8C379A000000000000000000000000000000000000000000000000000000000 DUP2 MSTORE PUSH1 0x4 ADD PUSH2 0xA3D SWAP1 PUSH2 0x1FEB JUMP JUMPDEST PUSH1 0x40 MLOAD DUP1 SWAP2 SUB SWAP1 REVERT JUMPDEST PUSH0 DUP1 PUSH1 0x3 PUSH0 SWAP1 SLOAD SWAP1 PUSH2 0x100 EXP SWAP1 DIV PUSH20 0xFFFFFFFFFFFFFFFFFFFFFFFFFFFFFFFFFFFFFFFF AND PUSH20 0xFFFFFFFFFFFFFFFFFFFFFFFFFFFFFFFFFFFFFFFF AND PUSH4 0x2703EE85 CALLER PUSH1 0x40 MLOAD DUP3 PUSH4 0xFFFFFFFF AND PUSH1 0xE0 SHL DUP2 MSTORE PUSH1 0x4 ADD PUSH2 0xAA2 SWAP2 SWAP1 PUSH2 0x1AE3 JUMP JUMPDEST PUSH1 0x40 DUP1 MLOAD DUP1 DUP4 SUB DUP2 DUP7 GAS STATICCALL ISZERO DUP1 ISZERO PUSH2 0xABC JUMPI RETURNDATASIZE PUSH0 DUP1 RETURNDATACOPY RETURNDATASIZE PUSH0 REVERT JUMPDEST POP POP POP POP PUSH1 0x40 MLOAD RETURNDATASIZE PUSH1 0x1F NOT PUSH1 0x1F DUP3 ADD AND DUP3 ADD DUP1 PUSH1 0x40 MSTORE POP DUP2 ADD SWAP1 PUSH2 0xAE0 SWAP2 SWAP1 PUSH2 0x1B89 JUMP JUMPDEST SWAP2 POP SWAP2 POP PUSH0 PUSH2 0xAED PUSH2 0x548 JUMP JUMPDEST SWAP1 POP PUSH0 PUSH2 0xAF8 PUSH2 0x1622 JUMP JUMPDEST SWAP1 POP PUSH0 PUSH8 0xDE0B6B3A7640000 DUP4 DUP7 PUSH2 0xB10 SWAP2 SWAP1 PUSH2 0x1BF4 JUMP JUMPDEST PUSH2 0xB1A SWAP2 SWAP1 PUSH2 0x1C62 JUMP JUMPDEST SWAP1 POP PUSH0 PUSH8 0xDE0B6B3A7640000 DUP4 DUP7 PUSH2 0xB32 SWAP2 SWAP1 PUSH2 0x1BF4 JUMP JUMPDEST PUSH2 0xB3C SWAP2 SWAP1 PUSH2 0x1C62 JUMP JUMPDEST SWAP1 POP PUSH0 DUP2 DUP4 PUSH2 0xB4B SWAP2 SWAP1 PUSH2 0x1C92 JUMP JUMPDEST SWAP1 POP PUSH0 PUSH1 0x40 MLOAD DUP1 PUSH1 0xC0 ADD PUSH1 0x40 MSTORE DUP1 DUP11 DUP2 MSTORE PUSH1 0x20 ADD PUSH1 0x5 DUP2 MSTORE PUSH1 0x20 ADD TIMESTAMP DUP2 MSTORE PUSH1 0x20 ADD DUP4 DUP2 MSTORE PUSH1 0x20 ADD PUSH0 ISZERO ISZERO DUP2 MSTORE PUSH1 0x20 ADD PUSH0 ISZERO ISZERO DUP2 MSTORE POP SWAP1 POP DUP1 PUSH1 0xA PUSH0 CALLER PUSH20 0xFFFFFFFFFFFFFFFFFFFFFFFFFFFFFFFFFFFFFFFF AND PUSH20 0xFFFFFFFFFFFFFFFFFFFFFFFFFFFFFFFFFFFFFFFF AND DUP2 MSTORE PUSH1 0x20 ADD SWAP1 DUP2 MSTORE PUSH1 0x20 ADD PUSH0 KECCAK256 PUSH0 DUP3 ADD MLOAD DUP2 PUSH0 ADD SSTORE PUSH1 0x20 DUP3 ADD MLOAD DUP2 PUSH1 0x1 ADD SSTORE PUSH1 0x40 DUP3 ADD MLOAD DUP2 PUSH1 0x2 ADD SSTORE PUSH1 0x60 DUP3 ADD MLOAD DUP2 PUSH1 0x3 ADD SSTORE PUSH1 0x80 DUP3 ADD MLOAD DUP2 PUSH1 0x4 ADD PUSH0 PUSH2 0x100 EXP DUP2 SLOAD DUP2 PUSH1 0xFF MUL NOT AND SWAP1 DUP4 ISZERO ISZERO MUL OR SWAP1 SSTORE POP PUSH1 0xA0 DUP3 ADD MLOAD DUP2 PUSH1 0x4 ADD PUSH1 0x1 PUSH2 0x100 EXP DUP2 SLOAD DUP2 PUSH1 0xFF MUL NOT AND SWAP1 DUP4 ISZERO ISZERO MUL OR SWAP1 SSTORE POP SWAP1 POP POP PUSH1 0x2 PUSH0 SWAP1 SLOAD SWAP1 PUSH2 0x100 EXP SWAP1 DIV PUSH20 0xFFFFFFFFFFFFFFFFFFFFFFFFFFFFFFFFFFFFFFFF AND PUSH20 0xFFFFFFFFFFFFFFFFFFFFFFFFFFFFFFFFFFFFFFFF AND PUSH4 0xA9059CBB CALLER DUP12 PUSH1 0x40 MLOAD DUP4 PUSH4 0xFFFFFFFF AND PUSH1 0xE0 SHL DUP2 MSTORE PUSH1 0x4 ADD PUSH2 0xC84 SWAP3 SWAP2 SWAP1 PUSH2 0x2009 JUMP JUMPDEST PUSH1 0x20 PUSH1 0x40 MLOAD DUP1 DUP4 SUB DUP2 PUSH0 DUP8 GAS CALL ISZERO DUP1 ISZERO PUSH2 0xCA0 JUMPI RETURNDATASIZE PUSH0 DUP1 RETURNDATACOPY RETURNDATASIZE PUSH0 REVERT JUMPDEST POP POP POP POP PUSH1 0x40 MLOAD RETURNDATASIZE PUSH1 0x1F NOT PUSH1 0x1F DUP3 ADD AND DUP3 ADD DUP1 PUSH1 0x40 MSTORE POP DUP2 ADD SWAP1 PUSH2 0xCC4 SWAP2 SWAP1 PUSH2 0x205A JUMP JUMPDEST PUSH2 0xD03 JUMPI PUSH1 0x40 MLOAD PUSH32 0x8C379A000000000000000000000000000000000000000000000000000000000 DUP2 MSTORE PUSH1 0x4 ADD PUSH2 0xCFA SWAP1 PUSH2 0x20F5 JUMP JUMPDEST PUSH1 0x40 MLOAD DUP1 SWAP2 SUB SWAP1 REVERT JUMPDEST CALLER PUSH20 0xFFFFFFFFFFFFFFFFFFFFFFFFFFFFFFFFFFFFFFFF AND PUSH32 0x1C793C0FDA4A6B2B79DD68D91D9F7FDE8F7AA0878615C36A4624E6CCDBB1EAD1 DUP11 DUP5 PUSH1 0x40 MLOAD PUSH2 0xD4B SWAP3 SWAP2 SWAP1 PUSH2 0x2113 JUMP JUMPDEST PUSH1 0x40 MLOAD DUP1 SWAP2 SUB SWAP1 LOG2 POP POP POP POP POP POP POP POP PUSH2 0xD63 PUSH2 0x178D JUMP JUMPDEST POP JUMP JUMPDEST PUSH0 PUSH1 0x1 PUSH0 SWAP1 SLOAD SWAP1 PUSH2 0x100 EXP SWAP1 DIV PUSH20 0xFFFFFFFFFFFFFFFFFFFFFFFFFFFFFFFFFFFFFFFF AND SWAP1 POP SWAP1 JUMP JUMPDEST PUSH2 0xD96 PUSH2 0x1796 JUMP JUMPDEST PUSH1 0x2 PUSH0 SWAP1 SLOAD SWAP1 PUSH2 0x100 EXP SWAP1 DIV PUSH20 0xFFFFFFFFFFFFFFFFFFFFFFFFFFFFFFFFFFFFFFFF AND PUSH20 0xFFFFFFFFFFFFFFFFFFFFFFFFFFFFFFFFFFFFFFFF AND PUSH4 0x23B872DD CALLER ADDRESS DUP5 PUSH1 0x40 MLOAD DUP5 PUSH4 0xFFFFFFFF AND PUSH1 0xE0 SHL DUP2 MSTORE PUSH1 0x4 ADD PUSH2 0xDF4 SWAP4 SWAP3 SWAP2 SWAP1 PUSH2 0x213A JUMP JUMPDEST PUSH1 0x20 PUSH1 0x40 MLOAD DUP1 DUP4 SUB DUP2 PUSH0 DUP8 GAS CALL ISZERO DUP1 ISZERO PUSH2 0xE10 JUMPI RETURNDATASIZE PUSH0 DUP1 RETURNDATACOPY RETURNDATASIZE PUSH0 REVERT JUMPDEST POP POP POP POP PUSH1 0x40 MLOAD RETURNDATASIZE PUSH1 0x1F NOT PUSH1 0x1F DUP3 ADD AND DUP3 ADD DUP1 PUSH1 0x40 MSTORE POP DUP2 ADD SWAP1 PUSH2 0xE34 SWAP2 SWAP1 PUSH2 0x205A JUMP JUMPDEST PUSH2 0xE73 JUMPI PUSH1 0x40 MLOAD PUSH32 0x8C379A000000000000000000000000000000000000000000000000000000000 DUP2 MSTORE PUSH1 0x4 ADD PUSH2 0xE6A SWAP1 PUSH2 0x21DF JUMP JUMPDEST PUSH1 0x40 MLOAD DUP1 SWAP2 SUB SWAP1 REVERT JUMPDEST DUP1 PUSH1 0x4 PUSH0 DUP3 DUP3 SLOAD PUSH2 0xE84 SWAP2 SWAP1 PUSH2 0x1C92 JUMP JUMPDEST SWAP3 POP POP DUP2 SWAP1 SSTORE POP POP JUMP JUMPDEST PUSH2 0xE96 PUSH2 0x1749 JUMP JUMPDEST PUSH0 PUSH1 0xA PUSH0 CALLER PUSH20 0xFFFFFFFFFFFFFFFFFFFFFFFFFFFFFFFFFFFFFFFF AND PUSH20 0xFFFFFFFFFFFFFFFFFFFFFFFFFFFFFFFFFFFFFFFF AND DUP2 MSTORE PUSH1 0x20 ADD SWAP1 DUP2 MSTORE PUSH1 0x20 ADD PUSH0 KECCAK256 SWAP1 POP PUSH0 DUP2 PUSH0 ADD SLOAD GT PUSH2 0xF1B JUMPI PUSH1 0x40 MLOAD PUSH32 0x8C379A000000000000000000000000000000000000000000000000000000000 DUP2 MSTORE PUSH1 0x4 ADD PUSH2 0xF12 SWAP1 PUSH2 0x1DFF JUMP JUMPDEST PUSH1 0x40 MLOAD DUP1 SWAP2 SUB SWAP1 REVERT JUMPDEST DUP1 PUSH1 0x4 ADD PUSH0 SWAP1 SLOAD SWAP1 PUSH2 0x100 EXP SWAP1 DIV PUSH1 0xFF AND ISZERO PUSH2 0xF6C JUMPI PUSH1 0x40 MLOAD PUSH32 0x8C379A000000000000000000000000000000000000000000000000000000000 DUP2 MSTORE PUSH1 0x4 ADD PUSH2 0xF63 SWAP1 PUSH2 0x226D JUMP JUMPDEST PUSH1 0x40 MLOAD DUP1 SWAP2 SUB SWAP1 REVERT JUMPDEST PUSH0 PUSH1 0x64 DUP3 PUSH1 0x1 ADD SLOAD DUP4 PUSH0 ADD SLOAD PUSH2 0xF82 SWAP2 SWAP1 PUSH2 0x1BF4 JUMP JUMPDEST PUSH2 0xF8C SWAP2 SWAP1 PUSH2 0x1C62 JUMP JUMPDEST DUP3 PUSH0 ADD SLOAD PUSH2 0xF9A SWAP2 SWAP1 PUSH2 0x1C92 JUMP JUMPDEST SWAP1 POP DUP1 DUP4 LT ISZERO PUSH2 0xFDF JUMPI PUSH1 0x40 MLOAD PUSH32 0x8C379A000000000000000000000000000000000000000000000000000000000 DUP2 MSTORE PUSH1 0x4 ADD PUSH2 0xFD6 SWAP1 PUSH2 0x22FB JUMP JUMPDEST PUSH1 0x40 MLOAD DUP1 SWAP2 SUB SWAP1 REVERT JUMPDEST PUSH1 0x2 PUSH0 SWAP1 SLOAD SWAP1 PUSH2 0x100 EXP SWAP1 DIV PUSH20 0xFFFFFFFFFFFFFFFFFFFFFFFFFFFFFFFFFFFFFFFF AND PUSH20 0xFFFFFFFFFFFFFFFFFFFFFFFFFFFFFFFFFFFFFFFF AND PUSH4 0x23B872DD CALLER ADDRESS DUP7 PUSH1 0x40 MLOAD DUP5 PUSH4 0xFFFFFFFF AND PUSH1 0xE0 SHL DUP2 MSTORE PUSH1 0x4 ADD PUSH2 0x103D SWAP4 SWAP3 SWAP2 SWAP1 PUSH2 0x213A JUMP JUMPDEST PUSH1 0x20 PUSH1 0x40 MLOAD DUP1 DUP4 SUB DUP2 PUSH0 DUP8 GAS CALL ISZERO DUP1 ISZERO PUSH2 0x1059 JUMPI RETURNDATASIZE PUSH0 DUP1 RETURNDATACOPY RETURNDATASIZE PUSH0 REVERT JUMPDEST POP POP POP POP PUSH1 0x40 MLOAD RETURNDATASIZE PUSH1 0x1F NOT PUSH1 0x1F DUP3 ADD AND DUP3 ADD DUP1 PUSH1 0x40 MSTORE POP DUP2 ADD SWAP1 PUSH2 0x107D SWAP2 SWAP1 PUSH2 0x205A JUMP JUMPDEST PUSH2 0x10BC JUMPI PUSH1 0x40 MLOAD PUSH32 0x8C379A000000000000000000000000000000000000000000000000000000000 DUP2 MSTORE PUSH1 0x4 ADD PUSH2 0x10B3 SWAP1 PUSH2 0x2389 JUMP JUMPDEST PUSH1 0x40 MLOAD DUP1 SWAP2 SUB SWAP1 REVERT JUMPDEST PUSH1 0x1 DUP3 PUSH1 0x4 ADD PUSH0 PUSH2 0x100 EXP DUP2 SLOAD DUP2 PUSH1 0xFF MUL NOT AND SWAP1 DUP4 ISZERO ISZERO MUL OR SWAP1 SSTORE POP PUSH1 0x3 PUSH0 SWAP1 SLOAD SWAP1 PUSH2 0x100 EXP SWAP1 DIV PUSH20 0xFFFFFFFFFFFFFFFFFFFFFFFFFFFFFFFFFFFFFFFF AND PUSH20 0xFFFFFFFFFFFFFFFFFFFFFFFFFFFFFFFFFFFFFFFF AND PUSH4 0x192E7A7B CALLER PUSH1 0x40 MLOAD DUP3 PUSH4 0xFFFFFFFF AND PUSH1 0xE0 SHL DUP2 MSTORE PUSH1 0x4 ADD PUSH2 0x1132 SWAP2 SWAP1 PUSH2 0x1AE3 JUMP JUMPDEST PUSH0 PUSH1 0x40 MLOAD DUP1 DUP4 SUB DUP2 PUSH0 DUP8 DUP1 EXTCODESIZE ISZERO DUP1 ISZERO PUSH2 0x1149 JUMPI PUSH0 DUP1 REVERT JUMPDEST POP GAS CALL ISZERO DUP1 ISZERO PUSH2 0x115B JUMPI RETURNDATASIZE PUSH0 DUP1 RETURNDATACOPY RETURNDATASIZE PUSH0 REVERT JUMPDEST POP POP POP POP PUSH0 PUSH1 0xA PUSH0 CALLER PUSH20 0xFFFFFFFFFFFFFFFFFFFFFFFFFFFFFFFFFFFFFFFF AND PUSH20 0xFFFFFFFFFFFFFFFFFFFFFFFFFFFFFFFFFFFFFFFF AND DUP2 MSTORE PUSH1 0x20 ADD SWAP1 DUP2 MSTORE PUSH1 0x20 ADD PUSH0 KECCAK256 PUSH0 ADD DUP2 SWAP1 SSTORE POP CALLER PUSH20 0xFFFFFFFFFFFFFFFFFFFFFFFFFFFFFFFFFFFFFFFF AND PUSH32 0xC7CE0A35F17B490DE2A317E7FECB2CAE86B1ABFFB03800B2F492823521382698 DUP4 PUSH0 ADD SLOAD DUP5 PUSH1 0x3 ADD SLOAD PUSH1 0x40 MLOAD PUSH2 0x11F2 SWAP3 SWAP2 SWAP1 PUSH2 0x2113 JUMP JUMPDEST PUSH1 0x40 MLOAD DUP1 SWAP2 SUB SWAP1 LOG2 POP POP PUSH2 0x1204 PUSH2 0x178D JUMP JUMPDEST POP JUMP JUMPDEST PUSH0 DUP1 PUSH1 0xA PUSH0 DUP5 PUSH20 0xFFFFFFFFFFFFFFFFFFFFFFFFFFFFFFFFFFFFFFFF AND PUSH20 0xFFFFFFFFFFFFFFFFFFFFFFFFFFFFFFFFFFFFFFFF AND DUP2 MSTORE PUSH1 0x20 ADD SWAP1 DUP2 MSTORE PUSH1 0x20 ADD PUSH0 KECCAK256 PUSH1 0x40 MLOAD DUP1 PUSH1 0xC0 ADD PUSH1 0x40 MSTORE SWAP1 DUP2 PUSH0 DUP3 ADD SLOAD DUP2 MSTORE PUSH1 0x20 ADD PUSH1 0x1 DUP3 ADD SLOAD DUP2 MSTORE PUSH1 0x20 ADD PUSH1 0x2 DUP3 ADD SLOAD DUP2 MSTORE PUSH1 0x20 ADD PUSH1 0x3 DUP3 ADD SLOAD DUP2 MSTORE PUSH1 0x20 ADD PUSH1 0x4 DUP3 ADD PUSH0 SWAP1 SLOAD SWAP1 PUSH2 0x100 EXP SWAP1 DIV PUSH1 0xFF AND ISZERO ISZERO ISZERO ISZERO DUP2 MSTORE PUSH1 0x20 ADD PUSH1 0x4 DUP3 ADD PUSH1 0x1 SWAP1 SLOAD SWAP1 PUSH2 0x100 EXP SWAP1 DIV PUSH1 0xFF AND ISZERO ISZERO ISZERO ISZERO DUP2 MSTORE POP POP SWAP1 POP PUSH1 0x64 DUP2 PUSH1 0x20 ADD MLOAD DUP3 PUSH0 ADD MLOAD PUSH2 0x12C4 SWAP2 SWAP1 PUSH2 0x1BF4 JUMP JUMPDEST PUSH2 0x12CE SWAP2 SWAP1 PUSH2 0x1C62 JUMP JUMPDEST DUP2 PUSH0 ADD MLOAD PUSH2 0x12DC SWAP2 SWAP1 PUSH2 0x1C92 JUMP JUMPDEST SWAP2 POP POP SWAP2 SWAP1 POP JUMP JUMPDEST PUSH2 0x12EC PUSH2 0x1796 JUMP JUMPDEST PUSH0 DUP2 GT PUSH2 0x132E JUMPI PUSH1 0x40 MLOAD PUSH32 0x8C379A000000000000000000000000000000000000000000000000000000000 DUP2 MSTORE PUSH1 0x4 ADD PUSH2 0x1325 SWAP1 PUSH2 0x23F1 JUMP JUMPDEST PUSH1 0x40 MLOAD DUP1 SWAP2 SUB SWAP1 REVERT JUMPDEST DUP1 PUSH1 0x6 DUP2 SWAP1 SSTORE POP POP JUMP JUMPDEST PUSH2 0x1340 PUSH2 0x1796 JUMP JUMPDEST PUSH0 DUP2 GT PUSH2 0x1382 JUMPI PUSH1 0x40 MLOAD PUSH32 0x8C379A000000000000000000000000000000000000000000000000000000000 DUP2 MSTORE PUSH1 0x4 ADD PUSH2 0x1379 SWAP1 PUSH2 0x23F1 JUMP JUMPDEST PUSH1 0x40 MLOAD DUP1 SWAP2 SUB SWAP1 REVERT JUMPDEST DUP1 PUSH1 0x7 DUP2 SWAP1 SSTORE POP POP JUMP JUMPDEST PUSH1 0xA PUSH1 0x20 MSTORE DUP1 PUSH0 MSTORE PUSH1 0x40 PUSH0 KECCAK256 PUSH0 SWAP2 POP SWAP1 POP DUP1 PUSH0 ADD SLOAD SWAP1 DUP1 PUSH1 0x1 ADD SLOAD SWAP1 DUP1 PUSH1 0x2 ADD SLOAD SWAP1 DUP1 PUSH1 0x3 ADD SLOAD SWAP1 DUP1 PUSH1 0x4 ADD PUSH0 SWAP1 SLOAD SWAP1 PUSH2 0x100 EXP SWAP1 DIV PUSH1 0xFF AND SWAP1 DUP1 PUSH1 0x4 ADD PUSH1 0x1 SWAP1 SLOAD SWAP1 PUSH2 0x100 EXP SWAP1 DIV PUSH1 0xFF AND SWAP1 POP DUP7 JUMP JUMPDEST PUSH2 0x13E5 PUSH2 0x1749 JUMP JUMPDEST PUSH0 PUSH1 0xA PUSH0 DUP4 PUSH20 0xFFFFFFFFFFFFFFFFFFFFFFFFFFFFFFFFFFFFFFFF AND PUSH20 0xFFFFFFFFFFFFFFFFFFFFFFFFFFFFFFFFFFFFFFFF AND DUP2 MSTORE PUSH1 0x20 ADD SWAP1 DUP2 MSTORE PUSH1 0x20 ADD PUSH0 KECCAK256 SWAP1 POP PUSH0 DUP2 PUSH0 ADD SLOAD GT PUSH2 0x146A JUMPI PUSH1 0x40 MLOAD PUSH32 0x8C379A000000000000000000000000000000000000000000000000000000000 DUP2 MSTORE PUSH1 0x4 ADD PUSH2 0x1461 SWAP1 PUSH2 0x1DFF JUMP JUMPDEST PUSH1 0x40 MLOAD DUP1 SWAP2 SUB SWAP1 REVERT JUMPDEST DUP1 PUSH1 0x4 ADD PUSH1 0x1 SWAP1 SLOAD SWAP1 PUSH2 0x100 EXP SWAP1 DIV PUSH1 0xFF AND ISZERO PUSH2 0x14BC JUMPI PUSH1 0x40 MLOAD PUSH32 0x8C379A000000000000000000000000000000000000000000000000000000000 DUP2 MSTORE PUSH1 0x4 ADD PUSH2 0x14B3 SWAP1 PUSH2 0x247F JUMP JUMPDEST PUSH1 0x40 MLOAD DUP1 SWAP2 SUB SWAP1 REVERT JUMPDEST PUSH1 0x7 SLOAD PUSH1 0x6 SLOAD DUP3 PUSH1 0x2 ADD SLOAD PUSH2 0x14D1 SWAP2 SWAP1 PUSH2 0x1C92 JUMP JUMPDEST PUSH2 0x14DB SWAP2 SWAP1 PUSH2 0x1C92 JUMP JUMPDEST TIMESTAMP GT PUSH2 0x151C JUMPI PUSH1 0x40 MLOAD PUSH32 0x8C379A000000000000000000000000000000000000000000000000000000000 DUP2 MSTORE PUSH1 0x4 ADD PUSH2 0x1513 SWAP1 PUSH2 0x250D JUMP JUMPDEST PUSH1 0x40 MLOAD DUP1 SWAP2 SUB SWAP1 REVERT JUMPDEST PUSH1 0x1 DUP2 PUSH1 0x4 ADD PUSH1 0x1 PUSH2 0x100 EXP DUP2 SLOAD DUP2 PUSH1 0xFF MUL NOT AND SWAP1 DUP4 ISZERO ISZERO MUL OR SWAP1 SSTORE POP PUSH1 0x3 PUSH0 SWAP1 SLOAD SWAP1 PUSH2 0x100 EXP SWAP1 DIV PUSH20 0xFFFFFFFFFFFFFFFFFFFFFFFFFFFFFFFFFFFFFFFF AND PUSH20 0xFFFFFFFFFFFFFFFFFFFFFFFFFFFFFFFFFFFFFFFF AND PUSH4 0xF6DA3C90 DUP3 PUSH1 0x3 ADD SLOAD PUSH1 0x40 MLOAD DUP3 PUSH4 0xFFFFFFFF AND PUSH1 0xE0 SHL DUP2 MSTORE PUSH1 0x4 ADD PUSH2 0x1597 SWAP2 SWAP1 PUSH2 0x1988 JUMP JUMPDEST PUSH0 PUSH1 0x40 MLOAD DUP1 DUP4 SUB DUP2 PUSH0 DUP8 DUP1 EXTCODESIZE ISZERO DUP1 ISZERO PUSH2 0x15AE JUMPI PUSH0 DUP1 REVERT JUMPDEST POP GAS CALL ISZERO DUP1 ISZERO PUSH2 0x15C0 JUMPI RETURNDATASIZE PUSH0 DUP1 RETURNDATACOPY RETURNDATASIZE PUSH0 REVERT JUMPDEST POP POP POP POP DUP2 PUSH20 0xFFFFFFFFFFFFFFFFFFFFFFFFFFFFFFFFFFFFFFFF AND PUSH32 0xBE253503C49F8FB02046DA3EF57BC2F5F881EB14BA5C2C26B54BF2FB4E7DB07 DUP3 PUSH1 0x3 ADD SLOAD PUSH1 0x40 MLOAD PUSH2 0x160E SWAP2 SWAP1 PUSH2 0x1988 JUMP JUMPDEST PUSH1 0x40 MLOAD DUP1 SWAP2 SUB SWAP1 LOG2 POP PUSH2 0x161F PUSH2 0x178D JUMP JUMPDEST POP JUMP JUMPDEST PUSH0 DUP1 PUSH1 0x9 PUSH0 SWAP1 SLOAD SWAP1 PUSH2 0x100 EXP SWAP1 DIV PUSH20 0xFFFFFFFFFFFFFFFFFFFFFFFFFFFFFFFFFFFFFFFF AND PUSH20 0xFFFFFFFFFFFFFFFFFFFFFFFFFFFFFFFFFFFFFFFF AND PUSH4 0xFEAF968C PUSH1 0x40 MLOAD DUP2 PUSH4 0xFFFFFFFF AND PUSH1 0xE0 SHL DUP2 MSTORE PUSH1 0x4 ADD PUSH1 0xA0 PUSH1 0x40 MLOAD DUP1 DUP4 SUB DUP2 DUP7 GAS STATICCALL ISZERO DUP1 ISZERO PUSH2 0x168E JUMPI RETURNDATASIZE PUSH0 DUP1 RETURNDATACOPY RETURNDATASIZE PUSH0 REVERT JUMPDEST POP POP POP POP PUSH1 0x40 MLOAD RETURNDATASIZE PUSH1 0x1F NOT PUSH1 0x1F DUP3 ADD AND DUP3 ADD DUP1 PUSH1 0x40 MSTORE POP DUP2 ADD SWAP1 PUSH2 0x16B2 SWAP2 SWAP1 PUSH2 0x1D2E JUMP JUMPDEST POP POP POP SWAP2 POP POP DUP1 SWAP2 POP POP SWAP1 JUMP JUMPDEST PUSH2 0x16C7 PUSH2 0x1796 JUMP JUMPDEST PUSH0 PUSH20 0xFFFFFFFFFFFFFFFFFFFFFFFFFFFFFFFFFFFFFFFF AND DUP2 PUSH20 0xFFFFFFFFFFFFFFFFFFFFFFFFFFFFFFFFFFFFFFFF AND SUB PUSH2 0x1737 JUMPI PUSH0 PUSH1 0x40 MLOAD PUSH32 0x1E4FBDF700000000000000000000000000000000000000000000000000000000 DUP2 MSTORE PUSH1 0x4 ADD PUSH2 0x172E SWAP2 SWAP1 PUSH2 0x1AE3 JUMP JUMPDEST PUSH1 0x40 MLOAD DUP1 SWAP2 SUB SWAP1 REVERT JUMPDEST PUSH2 0x1740 DUP2 PUSH2 0x181D JUMP JUMPDEST POP JUMP JUMPDEST PUSH1 0x6 SLOAD DUP2 JUMP JUMPDEST PUSH1 0x2 PUSH0 SLOAD SUB PUSH2 0x1784 JUMPI PUSH1 0x40 MLOAD PUSH32 0x3EE5AEB500000000000000000000000000000000000000000000000000000000 DUP2 MSTORE PUSH1 0x4 ADD PUSH1 0x40 MLOAD DUP1 SWAP2 SUB SWAP1 REVERT JUMPDEST PUSH1 0x2 PUSH0 DUP2 SWAP1 SSTORE POP JUMP JUMPDEST PUSH1 0x1 PUSH0 DUP2 SWAP1 SSTORE POP JUMP JUMPDEST PUSH2 0x179E PUSH2 0x18E0 JUMP JUMPDEST PUSH20 0xFFFFFFFFFFFFFFFFFFFFFFFFFFFFFFFFFFFFFFFF AND PUSH2 0x17BC PUSH2 0xD66 JUMP JUMPDEST PUSH20 0xFFFFFFFFFFFFFFFFFFFFFFFFFFFFFFFFFFFFFFFF AND EQ PUSH2 0x181B JUMPI PUSH2 0x17DF PUSH2 0x18E0 JUMP JUMPDEST PUSH1 0x40 MLOAD PUSH32 0x118CDAA700000000000000000000000000000000000000000000000000000000 DUP2 MSTORE PUSH1 0x4 ADD PUSH2 0x1812 SWAP2 SWAP1 PUSH2 0x1AE3 JUMP JUMPDEST PUSH1 0x40 MLOAD DUP1 SWAP2 SUB SWAP1 REVERT JUMPDEST JUMP JUMPDEST PUSH0 PUSH1 0x1 PUSH0 SWAP1 SLOAD SWAP1 PUSH2 0x100 EXP SWAP1 DIV PUSH20 0xFFFFFFFFFFFFFFFFFFFFFFFFFFFFFFFFFFFFFFFF AND SWAP1 POP DUP2 PUSH1 0x1 PUSH0 PUSH2 0x100 EXP DUP2 SLOAD DUP2 PUSH20 0xFFFFFFFFFFFFFFFFFFFFFFFFFFFFFFFFFFFFFFFF MUL NOT AND SWAP1 DUP4 PUSH20 0xFFFFFFFFFFFFFFFFFFFFFFFFFFFFFFFFFFFFFFFF AND MUL OR SWAP1 SSTORE POP DUP2 PUSH20 0xFFFFFFFFFFFFFFFFFFFFFFFFFFFFFFFFFFFFFFFF AND DUP2 PUSH20 0xFFFFFFFFFFFFFFFFFFFFFFFFFFFFFFFFFFFFFFFF AND PUSH32 0x8BE0079C531659141344CD1FD0A4F28419497F9722A3DAAFE3B4186F6B6457E0 PUSH1 0x40 MLOAD PUSH1 0x40 MLOAD DUP1 SWAP2 SUB SWAP1 LOG3 POP POP JUMP JUMPDEST PUSH0 CALLER SWAP1 POP SWAP1 JUMP JUMPDEST PUSH0 DUP1 REVERT JUMPDEST PUSH0 PUSH20 0xFFFFFFFFFFFFFFFFFFFFFFFFFFFFFFFFFFFFFFFF DUP3 AND SWAP1 POP SWAP2 SWAP1 POP JUMP JUMPDEST PUSH0 PUSH2 0x1914 DUP3 PUSH2 0x18EB JUMP JUMPDEST SWAP1 POP SWAP2 SWAP1 POP JUMP JUMPDEST PUSH2 0x1924 DUP2 PUSH2 0x190A JUMP JUMPDEST DUP2 EQ PUSH2 0x192E JUMPI PUSH0 DUP1 REVERT JUMPDEST POP JUMP JUMPDEST PUSH0 DUP2 CALLDATALOAD SWAP1 POP PUSH2 0x193F DUP2 PUSH2 0x191B JUMP JUMPDEST SWAP3 SWAP2 POP POP JUMP JUMPDEST PUSH0 PUSH1 0x20 DUP3 DUP5 SUB SLT ISZERO PUSH2 0x195A JUMPI PUSH2 0x1959 PUSH2 0x18E7 JUMP JUMPDEST JUMPDEST PUSH0 PUSH2 0x1967 DUP5 DUP3 DUP6 ADD PUSH2 0x1931 JUMP JUMPDEST SWAP2 POP POP SWAP3 SWAP2 POP POP JUMP JUMPDEST PUSH0 DUP2 SWAP1 POP SWAP2 SWAP1 POP JUMP JUMPDEST PUSH2 0x1982 DUP2 PUSH2 0x1970 JUMP JUMPDEST DUP3 MSTORE POP POP JUMP JUMPDEST PUSH0 PUSH1 0x20 DUP3 ADD SWAP1 POP PUSH2 0x199B PUSH0 DUP4 ADD DUP5 PUSH2 0x1979 JUMP JUMPDEST SWAP3 SWAP2 POP POP JUMP JUMPDEST PUSH0 DUP2 SWAP1 POP SWAP2 SWAP1 POP JUMP JUMPDEST PUSH0 PUSH2 0x19C4 PUSH2 0x19BF PUSH2 0x19BA DUP5 PUSH2 0x18EB JUMP JUMPDEST PUSH2 0x19A1 JUMP JUMPDEST PUSH2 0x18EB JUMP JUMPDEST SWAP1 POP SWAP2 SWAP1 POP JUMP JUMPDEST PUSH0 PUSH2 0x19D5 DUP3 PUSH2 0x19AA JUMP JUMPDEST SWAP1 POP SWAP2 SWAP1 POP JUMP JUMPDEST PUSH0 PUSH2 0x19E6 DUP3 PUSH2 0x19CB JUMP JUMPDEST SWAP1 POP SWAP2 SWAP1 POP JUMP JUMPDEST PUSH2 0x19F6 DUP2 PUSH2 0x19DC JUMP JUMPDEST DUP3 MSTORE POP POP JUMP JUMPDEST PUSH0 PUSH1 0x20 DUP3 ADD SWAP1 POP PUSH2 0x1A0F PUSH0 DUP4 ADD DUP5 PUSH2 0x19ED JUMP JUMPDEST SWAP3 SWAP2 POP POP JUMP JUMPDEST PUSH0 DUP2 SWAP1 POP SWAP2 SWAP1 POP JUMP JUMPDEST PUSH2 0x1A27 DUP2 PUSH2 0x1A15 JUMP JUMPDEST DUP3 MSTORE POP POP JUMP JUMPDEST PUSH0 PUSH1 0x20 DUP3 ADD SWAP1 POP PUSH2 0x1A40 PUSH0 DUP4 ADD DUP5 PUSH2 0x1A1E JUMP JUMPDEST SWAP3 SWAP2 POP POP JUMP JUMPDEST PUSH0 PUSH2 0x1A50 DUP3 PUSH2 0x19CB JUMP JUMPDEST SWAP1 POP SWAP2 SWAP1 POP JUMP JUMPDEST PUSH2 0x1A60 DUP2 PUSH2 0x1A46 JUMP JUMPDEST DUP3 MSTORE POP POP JUMP JUMPDEST PUSH0 PUSH1 0x20 DUP3 ADD SWAP1 POP PUSH2 0x1A79 PUSH0 DUP4 ADD DUP5 PUSH2 0x1A57 JUMP JUMPDEST SWAP3 SWAP2 POP POP JUMP JUMPDEST PUSH2 0x1A88 DUP2 PUSH2 0x1970 JUMP JUMPDEST DUP2 EQ PUSH2 0x1A92 JUMPI PUSH0 DUP1 REVERT JUMPDEST POP JUMP JUMPDEST PUSH0 DUP2 CALLDATALOAD SWAP1 POP PUSH2 0x1AA3 DUP2 PUSH2 0x1A7F JUMP JUMPDEST SWAP3 SWAP2 POP POP JUMP JUMPDEST PUSH0 PUSH1 0x20 DUP3 DUP5 SUB SLT ISZERO PUSH2 0x1ABE JUMPI PUSH2 0x1ABD PUSH2 0x18E7 JUMP JUMPDEST JUMPDEST PUSH0 PUSH2 0x1ACB DUP5 DUP3 DUP6 ADD PUSH2 0x1A95 JUMP JUMPDEST SWAP2 POP POP SWAP3 SWAP2 POP POP JUMP JUMPDEST PUSH2 0x1ADD DUP2 PUSH2 0x190A JUMP JUMPDEST DUP3 MSTORE POP POP JUMP JUMPDEST PUSH0 PUSH1 0x20 DUP3 ADD SWAP1 POP PUSH2 0x1AF6 PUSH0 DUP4 ADD DUP5 PUSH2 0x1AD4 JUMP JUMPDEST SWAP3 SWAP2 POP POP JUMP JUMPDEST PUSH0 DUP2 ISZERO ISZERO SWAP1 POP SWAP2 SWAP1 POP JUMP JUMPDEST PUSH2 0x1B10 DUP2 PUSH2 0x1AFC JUMP JUMPDEST DUP3 MSTORE POP POP JUMP JUMPDEST PUSH0 PUSH1 0xC0 DUP3 ADD SWAP1 POP PUSH2 0x1B29 PUSH0 DUP4 ADD DUP10 PUSH2 0x1979 JUMP JUMPDEST PUSH2 0x1B36 PUSH1 0x20 DUP4 ADD DUP9 PUSH2 0x1979 JUMP JUMPDEST PUSH2 0x1B43 PUSH1 0x40 DUP4 ADD DUP8 PUSH2 0x1979 JUMP JUMPDEST PUSH2 0x1B50 PUSH1 0x60 DUP4 ADD DUP7 PUSH2 0x1979 JUMP JUMPDEST PUSH2 0x1B5D PUSH1 0x80 DUP4 ADD DUP6 PUSH2 0x1B07 JUMP JUMPDEST PUSH2 0x1B6A PUSH1 0xA0 DUP4 ADD DUP5 PUSH2 0x1B07 JUMP JUMPDEST SWAP8 SWAP7 POP POP POP POP POP POP POP JUMP JUMPDEST PUSH0 DUP2 MLOAD SWAP1 POP PUSH2 0x1B83 DUP2 PUSH2 0x1A7F JUMP JUMPDEST SWAP3 SWAP2 POP POP JUMP JUMPDEST PUSH0 DUP1 PUSH1 0x40 DUP4 DUP6 SUB SLT ISZERO PUSH2 0x1B9F JUMPI PUSH2 0x1B9E PUSH2 0x18E7 JUMP JUMPDEST JUMPDEST PUSH0 PUSH2 0x1BAC DUP6 DUP3 DUP7 ADD PUSH2 0x1B75 JUMP JUMPDEST SWAP3 POP POP PUSH1 0x20 PUSH2 0x1BBD DUP6 DUP3 DUP7 ADD PUSH2 0x1B75 JUMP JUMPDEST SWAP2 POP POP SWAP3 POP SWAP3 SWAP1 POP JUMP JUMPDEST PUSH32 0x4E487B7100000000000000000000000000000000000000000000000000000000 PUSH0 MSTORE PUSH1 0x11 PUSH1 0x4 MSTORE PUSH1 0x24 PUSH0 REVERT JUMPDEST PUSH0 PUSH2 0x1BFE DUP3 PUSH2 0x1970 JUMP JUMPDEST SWAP2 POP PUSH2 0x1C09 DUP4 PUSH2 0x1970 JUMP JUMPDEST SWAP3 POP DUP3 DUP3 MUL PUSH2 0x1C17 DUP2 PUSH2 0x1970 JUMP JUMPDEST SWAP2 POP DUP3 DUP3 DIV DUP5 EQ DUP4 ISZERO OR PUSH2 0x1C2E JUMPI PUSH2 0x1C2D PUSH2 0x1BC7 JUMP JUMPDEST JUMPDEST POP SWAP3 SWAP2 POP POP JUMP JUMPDEST PUSH32 0x4E487B7100000000000000000000000000000000000000000000000000000000 PUSH0 MSTORE PUSH1 0x12 PUSH1 0x4 MSTORE PUSH1 0x24 PUSH0 REVERT JUMPDEST PUSH0 PUSH2 0x1C6C DUP3 PUSH2 0x1970 JUMP JUMPDEST SWAP2 POP PUSH2 0x1C77 DUP4 PUSH2 0x1970 JUMP JUMPDEST SWAP3 POP DUP3 PUSH2 0x1C87 JUMPI PUSH2 0x1C86 PUSH2 0x1C35 JUMP JUMPDEST JUMPDEST DUP3 DUP3 DIV SWAP1 POP SWAP3 SWAP2 POP POP JUMP JUMPDEST PUSH0 PUSH2 0x1C9C DUP3 PUSH2 0x1970 JUMP JUMPDEST SWAP2 POP PUSH2 0x1CA7 DUP4 PUSH2 0x1970 JUMP JUMPDEST SWAP3 POP DUP3 DUP3 ADD SWAP1 POP DUP1 DUP3 GT ISZERO PUSH2 0x1CBF JUMPI PUSH2 0x1CBE PUSH2 0x1BC7 JUMP JUMPDEST JUMPDEST SWAP3 SWAP2 POP POP JUMP JUMPDEST PUSH0 PUSH10 0xFFFFFFFFFFFFFFFFFFFF DUP3 AND SWAP1 POP SWAP2 SWAP1 POP JUMP JUMPDEST PUSH2 0x1CE3 DUP2 PUSH2 0x1CC5 JUMP JUMPDEST DUP2 EQ PUSH2 0x1CED JUMPI PUSH0 DUP1 REVERT JUMPDEST POP JUMP JUMPDEST PUSH0 DUP2 MLOAD SWAP1 POP PUSH2 0x1CFE DUP2 PUSH2 0x1CDA JUMP JUMPDEST SWAP3 SWAP2 POP POP JUMP JUMPDEST PUSH2 0x1D0D DUP2 PUSH2 0x1A15 JUMP JUMPDEST DUP2 EQ PUSH2 0x1D17 JUMPI PUSH0 DUP1 REVERT JUMPDEST POP JUMP JUMPDEST PUSH0 DUP2 MLOAD SWAP1 POP PUSH2 0x1D28 DUP2 PUSH2 0x1D04 JUMP JUMPDEST SWAP3 SWAP2 POP POP JUMP JUMPDEST PUSH0 DUP1 PUSH0 DUP1 PUSH0 PUSH1 0xA0 DUP7 DUP9 SUB SLT ISZERO PUSH2 0x1D47 JUMPI PUSH2 0x1D46 PUSH2 0x18E7 JUMP JUMPDEST JUMPDEST PUSH0 PUSH2 0x1D54 DUP9 DUP3 DUP10 ADD PUSH2 0x1CF0 JUMP JUMPDEST SWAP6 POP POP PUSH1 0x20 PUSH2 0x1D65 DUP9 DUP3 DUP10 ADD PUSH2 0x1D1A JUMP JUMPDEST SWAP5 POP POP PUSH1 0x40 PUSH2 0x1D76 DUP9 DUP3 DUP10 ADD PUSH2 0x1B75 JUMP JUMPDEST SWAP4 POP POP PUSH1 0x60 PUSH2 0x1D87 DUP9 DUP3 DUP10 ADD PUSH2 0x1B75 JUMP JUMPDEST SWAP3 POP POP PUSH1 0x80 PUSH2 0x1D98 DUP9 DUP3 DUP10 ADD PUSH2 0x1CF0 JUMP JUMPDEST SWAP2 POP POP SWAP3 SWAP6 POP SWAP3 SWAP6 SWAP1 SWAP4 POP JUMP JUMPDEST PUSH0 DUP3 DUP3 MSTORE PUSH1 0x20 DUP3 ADD SWAP1 POP SWAP3 SWAP2 POP POP JUMP JUMPDEST PUSH32 0x4C6F616E4D616E616765723A204E6F20616374697665206C6F616E0000000000 PUSH0 DUP3 ADD MSTORE POP JUMP JUMPDEST PUSH0 PUSH2 0x1DE9 PUSH1 0x1B DUP4 PUSH2 0x1DA5 JUMP JUMPDEST SWAP2 POP PUSH2 0x1DF4 DUP3 PUSH2 0x1DB5 JUMP JUMPDEST PUSH1 0x20 DUP3 ADD SWAP1 POP SWAP2 SWAP1 POP JUMP JUMPDEST PUSH0 PUSH1 0x20 DUP3 ADD SWAP1 POP DUP2 DUP2 SUB PUSH0 DUP4 ADD MSTORE PUSH2 0x1E16 DUP2 PUSH2 0x1DDD JUMP JUMPDEST SWAP1 POP SWAP2 SWAP1 POP JUMP JUMPDEST PUSH32 0x4C6F616E4D616E616765723A204C6F616E206E6F742064656661756C74656400 PUSH0 DUP3 ADD MSTORE POP JUMP JUMPDEST PUSH0 PUSH2 0x1E51 PUSH1 0x1F DUP4 PUSH2 0x1DA5 JUMP JUMPDEST SWAP2 POP PUSH2 0x1E5C DUP3 PUSH2 0x1E1D JUMP JUMPDEST PUSH1 0x20 DUP3 ADD SWAP1 POP SWAP2 SWAP1 POP JUMP JUMPDEST PUSH0 PUSH1 0x20 DUP3 ADD SWAP1 POP DUP2 DUP2 SUB PUSH0 DUP4 ADD MSTORE PUSH2 0x1E7E DUP2 PUSH2 0x1E45 JUMP JUMPDEST SWAP1 POP SWAP2 SWAP1 POP JUMP JUMPDEST PUSH32 0x4C6F616E4D616E616765723A20496E76616C696420726174696F000000000000 PUSH0 DUP3 ADD MSTORE POP JUMP JUMPDEST PUSH0 PUSH2 0x1EB9 PUSH1 0x1A DUP4 PUSH2 0x1DA5 JUMP JUMPDEST SWAP2 POP PUSH2 0x1EC4 DUP3 PUSH2 0x1E85 JUMP JUMPDEST PUSH1 0x20 DUP3 ADD SWAP1 POP SWAP2 SWAP1 POP JUMP JUMPDEST PUSH0 PUSH1 0x20 DUP3 ADD SWAP1 POP DUP2 DUP2 SUB PUSH0 DUP4 ADD MSTORE PUSH2 0x1EE6 DUP2 PUSH2 0x1EAD JUMP JUMPDEST SWAP1 POP SWAP2 SWAP1 POP JUMP JUMPDEST PUSH32 0x4C6F616E4D616E616765723A204C6F616E20616D6F756E74206D757374206265 PUSH0 DUP3 ADD MSTORE PUSH32 0x2067726561746572207468616E20300000000000000000000000000000000000 PUSH1 0x20 DUP3 ADD MSTORE POP JUMP JUMPDEST PUSH0 PUSH2 0x1F47 PUSH1 0x2F DUP4 PUSH2 0x1DA5 JUMP JUMPDEST SWAP2 POP PUSH2 0x1F52 DUP3 PUSH2 0x1EED JUMP JUMPDEST PUSH1 0x40 DUP3 ADD SWAP1 POP SWAP2 SWAP1 POP JUMP JUMPDEST PUSH0 PUSH1 0x20 DUP3 ADD SWAP1 POP DUP2 DUP2 SUB PUSH0 DUP4 ADD MSTORE PUSH2 0x1F74 DUP2 PUSH2 0x1F3B JUMP JUMPDEST SWAP1 POP SWAP2 SWAP1 POP JUMP JUMPDEST PUSH32 0x4C6F616E4D616E616765723A204578697374696E67206C6F616E206D75737420 PUSH0 DUP3 ADD MSTORE PUSH32 0x6265207265706169642066697273740000000000000000000000000000000000 PUSH1 0x20 DUP3 ADD MSTORE POP JUMP JUMPDEST PUSH0 PUSH2 0x1FD5 PUSH1 0x2F DUP4 PUSH2 0x1DA5 JUMP JUMPDEST SWAP2 POP PUSH2 0x1FE0 DUP3 PUSH2 0x1F7B JUMP JUMPDEST PUSH1 0x40 DUP3 ADD SWAP1 POP SWAP2 SWAP1 POP JUMP JUMPDEST PUSH0 PUSH1 0x20 DUP3 ADD SWAP1 POP DUP2 DUP2 SUB PUSH0 DUP4 ADD MSTORE PUSH2 0x2002 DUP2 PUSH2 0x1FC9 JUMP JUMPDEST SWAP1 POP SWAP2 SWAP1 POP JUMP JUMPDEST PUSH0 PUSH1 0x40 DUP3 ADD SWAP1 POP PUSH2 0x201C PUSH0 DUP4 ADD DUP6 PUSH2 0x1AD4 JUMP JUMPDEST PUSH2 0x2029 PUSH1 0x20 DUP4 ADD DUP5 PUSH2 0x1979 JUMP JUMPDEST SWAP4 SWAP3 POP POP POP JUMP JUMPDEST PUSH2 0x2039 DUP2 PUSH2 0x1AFC JUMP JUMPDEST DUP2 EQ PUSH2 0x2043 JUMPI PUSH0 DUP1 REVERT JUMPDEST POP JUMP JUMPDEST PUSH0 DUP2 MLOAD SWAP1 POP PUSH2 0x2054 DUP2 PUSH2 0x2030 JUMP JUMPDEST SWAP3 SWAP2 POP POP JUMP JUMPDEST PUSH0 PUSH1 0x20 DUP3 DUP5 SUB SLT ISZERO PUSH2 0x206F JUMPI PUSH2 0x206E PUSH2 0x18E7 JUMP JUMPDEST JUMPDEST PUSH0 PUSH2 0x207C DUP5 DUP3 DUP6 ADD PUSH2 0x2046 JUMP JUMPDEST SWAP2 POP POP SWAP3 SWAP2 POP POP JUMP JUMPDEST PUSH32 0x4C6F616E4D616E616765723A204C6F616E207472616E73666572206661696C65 PUSH0 DUP3 ADD MSTORE PUSH32 0x6400000000000000000000000000000000000000000000000000000000000000 PUSH1 0x20 DUP3 ADD MSTORE POP JUMP JUMPDEST PUSH0 PUSH2 0x20DF PUSH1 0x21 DUP4 PUSH2 0x1DA5 JUMP JUMPDEST SWAP2 POP PUSH2 0x20EA DUP3 PUSH2 0x2085 JUMP JUMPDEST PUSH1 0x40 DUP3 ADD SWAP1 POP SWAP2 SWAP1 POP JUMP JUMPDEST PUSH0 PUSH1 0x20 DUP3 ADD SWAP1 POP DUP2 DUP2 SUB PUSH0 DUP4 ADD MSTORE PUSH2 0x210C DUP2 PUSH2 0x20D3 JUMP JUMPDEST SWAP1 POP SWAP2 SWAP1 POP JUMP JUMPDEST PUSH0 PUSH1 0x40 DUP3 ADD SWAP1 POP PUSH2 0x2126 PUSH0 DUP4 ADD DUP6 PUSH2 0x1979 JUMP JUMPDEST PUSH2 0x2133 PUSH1 0x20 DUP4 ADD DUP5 PUSH2 0x1979 JUMP JUMPDEST SWAP4 SWAP3 POP POP POP JUMP JUMPDEST PUSH0 PUSH1 0x60 DUP3 ADD SWAP1 POP PUSH2 0x214D PUSH0 DUP4 ADD DUP7 PUSH2 0x1AD4 JUMP JUMPDEST PUSH2 0x215A PUSH1 0x20 DUP4 ADD DUP6 PUSH2 0x1AD4 JUMP JUMPDEST PUSH2 0x2167 PUSH1 0x40 DUP4 ADD DUP5 PUSH2 0x1979 JUMP JUMPDEST SWAP5 SWAP4 POP POP POP POP JUMP JUMPDEST PUSH32 0x4C6F616E4D616E616765723A2046756E64207472616E73666572206661696C65 PUSH0 DUP3 ADD MSTORE PUSH32 0x6400000000000000000000000000000000000000000000000000000000000000 PUSH1 0x20 DUP3 ADD MSTORE POP JUMP JUMPDEST PUSH0 PUSH2 0x21C9 PUSH1 0x21 DUP4 PUSH2 0x1DA5 JUMP JUMPDEST SWAP2 POP PUSH2 0x21D4 DUP3 PUSH2 0x216F JUMP JUMPDEST PUSH1 0x40 DUP3 ADD SWAP1 POP SWAP2 SWAP1 POP JUMP JUMPDEST PUSH0 PUSH1 0x20 DUP3 ADD SWAP1 POP DUP2 DUP2 SUB PUSH0 DUP4 ADD MSTORE PUSH2 0x21F6 DUP2 PUSH2 0x21BD JUMP JUMPDEST SWAP1 POP SWAP2 SWAP1 POP JUMP JUMPDEST PUSH32 0x4C6F616E4D616E616765723A204C6F616E20697320616C726561647920726570 PUSH0 DUP3 ADD MSTORE PUSH32 0x6169640000000000000000000000000000000000000000000000000000000000 PUSH1 0x20 DUP3 ADD MSTORE POP JUMP JUMPDEST PUSH0 PUSH2 0x2257 PUSH1 0x23 DUP4 PUSH2 0x1DA5 JUMP JUMPDEST SWAP2 POP PUSH2 0x2262 DUP3 PUSH2 0x21FD JUMP JUMPDEST PUSH1 0x40 DUP3 ADD SWAP1 POP SWAP2 SWAP1 POP JUMP JUMPDEST PUSH0 PUSH1 0x20 DUP3 ADD SWAP1 POP DUP2 DUP2 SUB PUSH0 DUP4 ADD MSTORE PUSH2 0x2284 DUP2 PUSH2 0x224B JUMP JUMPDEST SWAP1 POP SWAP2 SWAP1 POP JUMP JUMPDEST PUSH32 0x4C6F616E4D616E616765723A20496E73756666696369656E742072657061796D PUSH0 DUP3 ADD MSTORE PUSH32 0x656E7420616D6F756E7400000000000000000000000000000000000000000000 PUSH1 0x20 DUP3 ADD MSTORE POP JUMP JUMPDEST PUSH0 PUSH2 0x22E5 PUSH1 0x2A DUP4 PUSH2 0x1DA5 JUMP JUMPDEST SWAP2 POP PUSH2 0x22F0 DUP3 PUSH2 0x228B JUMP JUMPDEST PUSH1 0x40 DUP3 ADD SWAP1 POP SWAP2 SWAP1 POP JUMP JUMPDEST PUSH0 PUSH1 0x20 DUP3 ADD SWAP1 POP DUP2 DUP2 SUB PUSH0 DUP4 ADD MSTORE PUSH2 0x2312 DUP2 PUSH2 0x22D9 JUMP JUMPDEST SWAP1 POP SWAP2 SWAP1 POP JUMP JUMPDEST PUSH32 0x4C6F616E4D616E616765723A2052657061796D656E74207472616E7366657220 PUSH0 DUP3 ADD MSTORE PUSH32 0x6661696C65640000000000000000000000000000000000000000000000000000 PUSH1 0x20 DUP3 ADD MSTORE POP JUMP JUMPDEST PUSH0 PUSH2 0x2373 PUSH1 0x26 DUP4 PUSH2 0x1DA5 JUMP JUMPDEST SWAP2 POP PUSH2 0x237E DUP3 PUSH2 0x2319 JUMP JUMPDEST PUSH1 0x40 DUP3 ADD SWAP1 POP SWAP2 SWAP1 POP JUMP JUMPDEST PUSH0 PUSH1 0x20 DUP3 ADD SWAP1 POP DUP2 DUP2 SUB PUSH0 DUP4 ADD MSTORE PUSH2 0x23A0 DUP2 PUSH2 0x2367 JUMP JUMPDEST SWAP1 POP SWAP2 SWAP1 POP JUMP JUMPDEST PUSH32 0x4C6F616E4D616E616765723A20496E76616C6964206475726174696F6E000000 PUSH0 DUP3 ADD MSTORE POP JUMP JUMPDEST PUSH0 PUSH2 0x23DB PUSH1 0x1D DUP4 PUSH2 0x1DA5 JUMP JUMPDEST SWAP2 POP PUSH2 0x23E6 DUP3 PUSH2 0x23A7 JUMP JUMPDEST PUSH1 0x20 DUP3 ADD SWAP1 POP SWAP2 SWAP1 POP JUMP JUMPDEST PUSH0 PUSH1 0x20 DUP3 ADD SWAP1 POP DUP2 DUP2 SUB PUSH0 DUP4 ADD MSTORE PUSH2 0x2408 DUP2 PUSH2 0x23CF JUMP JUMPDEST SWAP1 POP SWAP2 SWAP1 POP JUMP JUMPDEST PUSH32 0x4C6F616E4D616E616765723A204C6F616E20616C72656164792064656661756C PUSH0 DUP3 ADD MSTORE PUSH32 0x7465640000000000000000000000000000000000000000000000000000000000 PUSH1 0x20 DUP3 ADD MSTORE POP JUMP JUMPDEST PUSH0 PUSH2 0x2469 PUSH1 0x23 DUP4 PUSH2 0x1DA5 JUMP JUMPDEST SWAP2 POP PUSH2 0x2474 DUP3 PUSH2 0x240F JUMP JUMPDEST PUSH1 0x40 DUP3 ADD SWAP1 POP SWAP2 SWAP1 POP JUMP JUMPDEST PUSH0 PUSH1 0x20 DUP3 ADD SWAP1 POP DUP2 DUP2 SUB PUSH0 DUP4 ADD MSTORE PUSH2 0x2496 DUP2 PUSH2 0x245D JUMP JUMPDEST SWAP1 POP SWAP2 SWAP1 POP JUMP JUMPDEST PUSH32 0x4C6F616E4D616E616765723A204C6F616E206E6F742064656661756C74656420 PUSH0 DUP3 ADD MSTORE PUSH32 0x7965740000000000000000000000000000000000000000000000000000000000 PUSH1 0x20 DUP3 ADD MSTORE POP JUMP JUMPDEST PUSH0 PUSH2 0x24F7 PUSH1 0x23 DUP4 PUSH2 0x1DA5 JUMP JUMPDEST SWAP2 POP PUSH2 0x2502 DUP3 PUSH2 0x249D JUMP JUMPDEST PUSH1 0x40 DUP3 ADD SWAP1 POP SWAP2 SWAP1 POP JUMP JUMPDEST PUSH0 PUSH1 0x20 DUP3 ADD SWAP1 POP DUP2 DUP2 SUB PUSH0 DUP4 ADD MSTORE PUSH2 0x2524 DUP2 PUSH2 0x24EB JUMP JUMPDEST SWAP1 POP SWAP2 SWAP1 POP JUMP INVALID LOG2 PUSH5 0x6970667358 0x22 SLT KECCAK256 PUSH25 0xDF643B152A01A3158FAAE20947675FB47946BF268C25A2D347 PUSH20 0xC0B87E151E64736F6C634300081A003300000000 "
				},
				"gasEstimates": {
					"creation": {
						"codeDepositCost": "1913800",
						"executionCost": "infinite",
						"totalCost": "infinite"
					},
					"external": {
						"addFundToPool(uint256)": "infinite",
						"cUSDToken()": "infinite",
						"checkDefault(address)": "infinite",
						"collateralManager()": "infinite",
						"collateralToLoanRatio()": "2514",
						"defaultDuration()": "2448",
						"fundPool()": "2536",
						"getCollateralBalanceinUSD(address)": "infinite",
						"getLoanBalancewithInterest(address)": "infinite",
						"getMaxLoanAmount()": "infinite",
						"getNativePrice()": "infinite",
						"getStablePrice()": "infinite",
						"liquidateCollateral(address)": "infinite",
						"loanDuration()": "2557",
						"owner()": "2560",
						"renounceOwnership()": "infinite",
						"repayLoan(uint256)": "infinite",
						"requestLoan(uint256)": "infinite",
						"transferOwnership(address)": "infinite",
						"updateCollateralToLoanRatio(uint256)": "22586",
						"updateDefaultDuration(uint256)": "infinite",
						"updateLoanDuration(uint256)": "infinite",
						"userLoans(address)": "infinite"
					}
				},
				"methodIdentifiers": {
					"addFundToPool(uint256)": "97ed71eb",
					"cUSDToken()": "0ea86ad8",
					"checkDefault(address)": "ebbb7de9",
					"collateralManager()": "23be345c",
					"collateralToLoanRatio()": "688aef48",
					"defaultDuration()": "2af7e2ea",
					"fundPool()": "70f37d27",
					"getCollateralBalanceinUSD(address)": "09b8aafd",
					"getLoanBalancewithInterest(address)": "ade8d29e",
					"getMaxLoanAmount()": "656f9ba4",
					"getNativePrice()": "17430c9e",
					"getStablePrice()": "ec9e0393",
					"liquidateCollateral(address)": "1fea5a6b",
					"loanDuration()": "f5521bf1",
					"owner()": "8da5cb5b",
					"renounceOwnership()": "715018a6",
					"repayLoan(uint256)": "ab7b1c89",
					"requestLoan(uint256)": "8d5d3429",
					"transferOwnership(address)": "f2fde38b",
					"updateCollateralToLoanRatio(uint256)": "650dfa18",
					"updateDefaultDuration(uint256)": "c000bc60",
					"updateLoanDuration(uint256)": "ba43a922",
					"userLoans(address)": "e9e190a3"
				}
			},
			"storageLayout": {
				"storage": [
					{
						"astId": 1107,
						"contract": "LoanManager.sol:LoanManager",
						"label": "_status",
						"offset": 0,
						"slot": "0",
						"type": "t_uint256"
					},
					{
						"astId": 54,
						"contract": "LoanManager.sol:LoanManager",
						"label": "_owner",
						"offset": 0,
						"slot": "1",
						"type": "t_address"
					},
					{
						"astId": 1534,
						"contract": "LoanManager.sol:LoanManager",
						"label": "cUSDToken",
						"offset": 0,
						"slot": "2",
						"type": "t_contract(ERC20)845"
					},
					{
						"astId": 1537,
						"contract": "LoanManager.sol:LoanManager",
						"label": "collateralManager",
						"offset": 0,
						"slot": "3",
						"type": "t_contract(CollateralManager)1518"
					},
					{
						"astId": 1539,
						"contract": "LoanManager.sol:LoanManager",
						"label": "fundPool",
						"offset": 0,
						"slot": "4",
						"type": "t_uint256"
					},
					{
						"astId": 1542,
						"contract": "LoanManager.sol:LoanManager",
						"label": "collateralToLoanRatio",
						"offset": 0,
						"slot": "5",
						"type": "t_uint256"
					},
					{
						"astId": 1545,
						"contract": "LoanManager.sol:LoanManager",
						"label": "loanDuration",
						"offset": 0,
						"slot": "6",
						"type": "t_uint256"
					},
					{
						"astId": 1548,
						"contract": "LoanManager.sol:LoanManager",
						"label": "defaultDuration",
						"offset": 0,
						"slot": "7",
						"type": "t_uint256"
					},
					{
						"astId": 1551,
						"contract": "LoanManager.sol:LoanManager",
						"label": "nativePriceFeed",
						"offset": 0,
						"slot": "8",
						"type": "t_contract(AggregatorV3Interface)45"
					},
					{
						"astId": 1554,
						"contract": "LoanManager.sol:LoanManager",
						"label": "stablePriceFeed",
						"offset": 0,
						"slot": "9",
						"type": "t_contract(AggregatorV3Interface)45"
					},
					{
						"astId": 1572,
						"contract": "LoanManager.sol:LoanManager",
						"label": "userLoans",
						"offset": 0,
						"slot": "10",
						"type": "t_mapping(t_address,t_struct(Loan)1567_storage)"
					}
				],
				"types": {
					"t_address": {
						"encoding": "inplace",
						"label": "address",
						"numberOfBytes": "20"
					},
					"t_bool": {
						"encoding": "inplace",
						"label": "bool",
						"numberOfBytes": "1"
					},
					"t_contract(AggregatorV3Interface)45": {
						"encoding": "inplace",
						"label": "contract AggregatorV3Interface",
						"numberOfBytes": "20"
					},
					"t_contract(CollateralManager)1518": {
						"encoding": "inplace",
						"label": "contract CollateralManager",
						"numberOfBytes": "20"
					},
					"t_contract(ERC20)845": {
						"encoding": "inplace",
						"label": "contract ERC20",
						"numberOfBytes": "20"
					},
					"t_mapping(t_address,t_struct(Loan)1567_storage)": {
						"encoding": "mapping",
						"key": "t_address",
						"label": "mapping(address => struct LoanManager.Loan)",
						"numberOfBytes": "32",
						"value": "t_struct(Loan)1567_storage"
					},
					"t_struct(Loan)1567_storage": {
						"encoding": "inplace",
						"label": "struct LoanManager.Loan",
						"members": [
							{
								"astId": 1556,
								"contract": "LoanManager.sol:LoanManager",
								"label": "amount",
								"offset": 0,
								"slot": "0",
								"type": "t_uint256"
							},
							{
								"astId": 1558,
								"contract": "LoanManager.sol:LoanManager",
								"label": "interestRate",
								"offset": 0,
								"slot": "1",
								"type": "t_uint256"
							},
							{
								"astId": 1560,
								"contract": "LoanManager.sol:LoanManager",
								"label": "startTime",
								"offset": 0,
								"slot": "2",
								"type": "t_uint256"
							},
							{
								"astId": 1562,
								"contract": "LoanManager.sol:LoanManager",
								"label": "collateral",
								"offset": 0,
								"slot": "3",
								"type": "t_uint256"
							},
							{
								"astId": 1564,
								"contract": "LoanManager.sol:LoanManager",
								"label": "isRepaid",
								"offset": 0,
								"slot": "4",
								"type": "t_bool"
							},
							{
								"astId": 1566,
								"contract": "LoanManager.sol:LoanManager",
								"label": "isDefaulted",
								"offset": 1,
								"slot": "4",
								"type": "t_bool"
							}
						],
						"numberOfBytes": "160"
					},
					"t_uint256": {
						"encoding": "inplace",
						"label": "uint256",
						"numberOfBytes": "32"
					}
				}
			},
			"userdoc": {
				"kind": "user",
				"methods": {},
				"version": 1
			}
		}
	}
}