{
	"CollateralManager.sol": {
		"CollateralManager": {
			"abi": [
				{
					"inputs": [
						{
							"internalType": "contract ERC20",
							"name": "_collateralToken",
							"type": "address"
						}
					],
					"stateMutability": "nonpayable",
					"type": "constructor"
				},
				{
					"inputs": [],
					"name": "EnforcedPause",
					"type": "error"
				},
				{
					"inputs": [],
					"name": "ExpectedPause",
					"type": "error"
				},
				{
					"inputs": [
						{
							"internalType": "address",
							"name": "owner",
							"type": "address"
						}
					],
					"name": "OwnableInvalidOwner",
					"type": "error"
				},
				{
					"inputs": [
						{
							"internalType": "address",
							"name": "account",
							"type": "address"
						}
					],
					"name": "OwnableUnauthorizedAccount",
					"type": "error"
				},
				{
					"inputs": [],
					"name": "ReentrancyGuardReentrantCall",
					"type": "error"
				},
				{
					"anonymous": false,
					"inputs": [
						{
							"indexed": true,
							"internalType": "address",
							"name": "user",
							"type": "address"
						},
						{
							"indexed": false,
							"internalType": "uint256",
							"name": "amount",
							"type": "uint256"
						}
					],
					"name": "NativeCollateralDeposited",
					"type": "event"
				},
				{
					"anonymous": false,
					"inputs": [
						{
							"indexed": true,
							"internalType": "address",
							"name": "user",
							"type": "address"
						},
						{
							"indexed": false,
							"internalType": "uint256",
							"name": "amount",
							"type": "uint256"
						}
					],
					"name": "NativeCollateralWithdrawn",
					"type": "event"
				},
				{
					"anonymous": false,
					"inputs": [
						{
							"indexed": true,
							"internalType": "address",
							"name": "previousOwner",
							"type": "address"
						},
						{
							"indexed": true,
							"internalType": "address",
							"name": "newOwner",
							"type": "address"
						}
					],
					"name": "OwnershipTransferred",
					"type": "event"
				},
				{
					"anonymous": false,
					"inputs": [
						{
							"indexed": false,
							"internalType": "address",
							"name": "account",
							"type": "address"
						}
					],
					"name": "Paused",
					"type": "event"
				},
				{
					"anonymous": false,
					"inputs": [
						{
							"indexed": true,
							"internalType": "address",
							"name": "user",
							"type": "address"
						},
						{
							"indexed": false,
							"internalType": "uint256",
							"name": "amount",
							"type": "uint256"
						}
					],
					"name": "StableDeposited",
					"type": "event"
				},
				{
					"anonymous": false,
					"inputs": [
						{
							"indexed": true,
							"internalType": "address",
							"name": "user",
							"type": "address"
						},
						{
							"indexed": false,
							"internalType": "uint256",
							"name": "amount",
							"type": "uint256"
						}
					],
					"name": "StableWithdrawn",
					"type": "event"
				},
				{
					"anonymous": false,
					"inputs": [
						{
							"indexed": false,
							"internalType": "address",
							"name": "account",
							"type": "address"
						}
					],
					"name": "Unpaused",
					"type": "event"
				},
				{
					"inputs": [],
					"name": "depositNativeCollateral",
					"outputs": [],
					"stateMutability": "payable",
					"type": "function"
				},
				{
					"inputs": [
						{
							"internalType": "uint256",
							"name": "_amount",
							"type": "uint256"
						}
					],
					"name": "depositStableCollateral",
					"outputs": [],
					"stateMutability": "nonpayable",
					"type": "function"
				},
				{
					"inputs": [
						{
							"internalType": "address",
							"name": "_user",
							"type": "address"
						}
					],
					"name": "getCollateralBalance",
					"outputs": [
						{
							"internalType": "uint256",
							"name": "native_balance",
							"type": "uint256"
						},
						{
							"internalType": "uint256",
							"name": "stable_balance",
							"type": "uint256"
						}
					],
					"stateMutability": "view",
					"type": "function"
				},
				{
					"inputs": [
						{
							"internalType": "address",
							"name": "user",
							"type": "address"
						}
					],
					"name": "liquidateCollateral",
					"outputs": [],
					"stateMutability": "nonpayable",
					"type": "function"
				},
				{
					"inputs": [],
					"name": "owner",
					"outputs": [
						{
							"internalType": "address",
							"name": "",
							"type": "address"
						}
					],
					"stateMutability": "view",
					"type": "function"
				},
				{
					"inputs": [],
					"name": "pause",
					"outputs": [],
					"stateMutability": "nonpayable",
					"type": "function"
				},
				{
					"inputs": [],
					"name": "paused",
					"outputs": [
						{
							"internalType": "bool",
							"name": "",
							"type": "bool"
						}
					],
					"stateMutability": "view",
					"type": "function"
				},
				{
					"inputs": [
						{
							"internalType": "address",
							"name": "user",
							"type": "address"
						}
					],
					"name": "releaseFunds",
					"outputs": [],
					"stateMutability": "nonpayable",
					"type": "function"
				},
				{
					"inputs": [],
					"name": "renounceOwnership",
					"outputs": [],
					"stateMutability": "nonpayable",
					"type": "function"
				},
				{
					"inputs": [],
					"name": "stablecoinDepositToken",
					"outputs": [
						{
							"internalType": "contract ERC20",
							"name": "",
							"type": "address"
						}
					],
					"stateMutability": "view",
					"type": "function"
				},
				{
					"inputs": [],
					"name": "totalCollateralNative",
					"outputs": [
						{
							"internalType": "uint256",
							"name": "",
							"type": "uint256"
						}
					],
					"stateMutability": "view",
					"type": "function"
				},
				{
					"inputs": [],
					"name": "totalCollateralStable",
					"outputs": [
						{
							"internalType": "uint256",
							"name": "",
							"type": "uint256"
						}
					],
					"stateMutability": "view",
					"type": "function"
				},
				{
					"inputs": [
						{
							"internalType": "address",
							"name": "newOwner",
							"type": "address"
						}
					],
					"name": "transferOwnership",
					"outputs": [],
					"stateMutability": "nonpayable",
					"type": "function"
				},
				{
					"inputs": [],
					"name": "unpause",
					"outputs": [],
					"stateMutability": "nonpayable",
					"type": "function"
				},
				{
					"inputs": [
						{
							"internalType": "address",
							"name": "",
							"type": "address"
						}
					],
					"name": "userCollateralNative",
					"outputs": [
						{
							"internalType": "uint256",
							"name": "",
							"type": "uint256"
						}
					],
					"stateMutability": "view",
					"type": "function"
				},
				{
					"inputs": [
						{
							"internalType": "address",
							"name": "",
							"type": "address"
						}
					],
					"name": "userCollateralStable",
					"outputs": [
						{
							"internalType": "uint256",
							"name": "",
							"type": "uint256"
						}
					],
					"stateMutability": "view",
					"type": "function"
				},
				{
					"inputs": [
						{
							"internalType": "uint256",
							"name": "_amount",
							"type": "uint256"
						}
					],
					"name": "withdrawNativeCollateral",
					"outputs": [],
					"stateMutability": "nonpayable",
					"type": "function"
				},
				{
					"inputs": [
						{
							"internalType": "uint256",
							"name": "_amount",
							"type": "uint256"
						}
					],
					"name": "withdrawStableCollateral",
					"outputs": [],
					"stateMutability": "nonpayable",
					"type": "function"
				}
			],
			"devdoc": {
				"errors": {
					"EnforcedPause()": [
						{
							"details": "The operation failed because the contract is paused."
						}
					],
					"ExpectedPause()": [
						{
							"details": "The operation failed because the contract is not paused."
						}
					],
					"OwnableInvalidOwner(address)": [
						{
							"details": "The owner is not a valid owner account. (eg. `address(0)`)"
						}
					],
					"OwnableUnauthorizedAccount(address)": [
						{
							"details": "The caller account is not authorized to perform an operation."
						}
					],
					"ReentrancyGuardReentrantCall()": [
						{
							"details": "Unauthorized reentrant call."
						}
					]
				},
				"events": {
					"Paused(address)": {
						"details": "Emitted when the pause is triggered by `account`."
					},
					"Unpaused(address)": {
						"details": "Emitted when the pause is lifted by `account`."
					}
				},
				"kind": "dev",
				"methods": {
					"owner()": {
						"details": "Returns the address of the current owner."
					},
					"paused()": {
						"details": "Returns true if the contract is paused, and false otherwise."
					},
					"renounceOwnership()": {
						"details": "Leaves the contract without owner. It will not be possible to call `onlyOwner` functions. Can only be called by the current owner. NOTE: Renouncing ownership will leave the contract without an owner, thereby disabling any functionality that is only available to the owner."
					},
					"transferOwnership(address)": {
						"details": "Transfers ownership of the contract to a new account (`newOwner`). Can only be called by the current owner."
					}
				},
				"version": 1
			},
			"evm": {
				"assembly": "    /* \"CollateralManager.sol\":284:4680  contract CollateralManager is ReentrancyGuard, Pausable, Ownable {... */\n  mstore(0x40, 0x80)\n    /* \"CollateralManager.sol\":1160:1361  constructor(ERC20 _collateralToken) Ownable(msg.sender){... */\n  callvalue\n  dup1\n  iszero\n  tag_1\n  jumpi\n  0x00\n  dup1\n  revert\ntag_1:\n  pop\n  mload(0x40)\n  sub(codesize, bytecodeSize)\n  dup1\n  bytecodeSize\n  dup4\n  codecopy\n  dup2\n  dup2\n  add\n  0x40\n  mstore\n  dup2\n  add\n  swap1\n  tag_2\n  swap2\n  swap1\n  tag_3\n  jump\t// in\ntag_2:\n    /* \"CollateralManager.sol\":1204:1214  msg.sender */\n  caller\n    /* \"@openzeppelin/contracts/utils/ReentrancyGuard.sol\":1713:1714  1 */\n  0x01\n    /* \"@openzeppelin/contracts/utils/ReentrancyGuard.sol\":1917:1924  _status */\n  0x00\n    /* \"@openzeppelin/contracts/utils/ReentrancyGuard.sol\":1917:1938  _status = NOT_ENTERED */\n  dup2\n  swap1\n  sstore\n  pop\n    /* \"@openzeppelin/contracts/utils/Pausable.sol\":1241:1246  false */\n  0x00\n    /* \"@openzeppelin/contracts/utils/Pausable.sol\":1231:1238  _paused */\n  0x01\n  0x00\n    /* \"@openzeppelin/contracts/utils/Pausable.sol\":1231:1246  _paused = false */\n  0x0100\n  exp\n  dup2\n  sload\n  dup2\n  0xff\n  mul\n  not\n  and\n  swap1\n  dup4\n  iszero\n  iszero\n  mul\n  or\n  swap1\n  sstore\n  pop\n    /* \"@openzeppelin/contracts/access/Ownable.sol\":1297:1298  0 */\n  0x00\n    /* \"@openzeppelin/contracts/access/Ownable.sol\":1273:1299  initialOwner == address(0) */\n  0xffffffffffffffffffffffffffffffffffffffff\n  and\n    /* \"@openzeppelin/contracts/access/Ownable.sol\":1273:1285  initialOwner */\n  dup2\n    /* \"@openzeppelin/contracts/access/Ownable.sol\":1273:1299  initialOwner == address(0) */\n  0xffffffffffffffffffffffffffffffffffffffff\n  and\n  sub\n    /* \"@openzeppelin/contracts/access/Ownable.sol\":1269:1364  if (initialOwner == address(0)) {... */\n  tag_11\n  jumpi\n    /* \"@openzeppelin/contracts/access/Ownable.sol\":1350:1351  0 */\n  0x00\n    /* \"@openzeppelin/contracts/access/Ownable.sol\":1322:1353  OwnableInvalidOwner(address(0)) */\n  mload(0x40)\n  0x1e4fbdf700000000000000000000000000000000000000000000000000000000\n  dup2\n  mstore\n  0x04\n  add\n  tag_12\n  swap2\n  swap1\n  tag_13\n  jump\t// in\ntag_12:\n  mload(0x40)\n  dup1\n  swap2\n  sub\n  swap1\n  revert\n    /* \"@openzeppelin/contracts/access/Ownable.sol\":1269:1364  if (initialOwner == address(0)) {... */\ntag_11:\n    /* \"@openzeppelin/contracts/access/Ownable.sol\":1373:1405  _transferOwnership(initialOwner) */\n  tag_14\n    /* \"@openzeppelin/contracts/access/Ownable.sol\":1392:1404  initialOwner */\n  dup2\n    /* \"@openzeppelin/contracts/access/Ownable.sol\":1373:1391  _transferOwnership */\n  shl(0x20, tag_15)\n    /* \"@openzeppelin/contracts/access/Ownable.sol\":1373:1405  _transferOwnership(initialOwner) */\n  0x20\n  shr\n  jump\t// in\ntag_14:\n    /* \"@openzeppelin/contracts/access/Ownable.sol\":1225:1412  constructor(address initialOwner) {... */\n  pop\n    /* \"CollateralManager.sol\":1250:1266  _collateralToken */\n  dup1\n    /* \"CollateralManager.sol\":1225:1247  stablecoinDepositToken */\n  0x02\n  0x00\n    /* \"CollateralManager.sol\":1225:1266  stablecoinDepositToken = _collateralToken */\n  0x0100\n  exp\n  dup2\n  sload\n  dup2\n  0xffffffffffffffffffffffffffffffffffffffff\n  mul\n  not\n  and\n  swap1\n  dup4\n  0xffffffffffffffffffffffffffffffffffffffff\n  and\n  mul\n  or\n  swap1\n  sstore\n  pop\n    /* \"CollateralManager.sol\":1160:1361  constructor(ERC20 _collateralToken) Ownable(msg.sender){... */\n  pop\n    /* \"CollateralManager.sol\":284:4680  contract CollateralManager is ReentrancyGuard, Pausable, Ownable {... */\n  jump(tag_17)\n    /* \"@openzeppelin/contracts/access/Ownable.sol\":2912:3099  function _transferOwnership(address newOwner) internal virtual {... */\ntag_15:\n    /* \"@openzeppelin/contracts/access/Ownable.sol\":2985:3001  address oldOwner */\n  0x00\n    /* \"@openzeppelin/contracts/access/Ownable.sol\":3004:3010  _owner */\n  0x01\n  dup1\n  sload\n  swap1\n  0x0100\n  exp\n  swap1\n  div\n  0xffffffffffffffffffffffffffffffffffffffff\n  and\n    /* \"@openzeppelin/contracts/access/Ownable.sol\":2985:3010  address oldOwner = _owner */\n  swap1\n  pop\n    /* \"@openzeppelin/contracts/access/Ownable.sol\":3029:3037  newOwner */\n  dup2\n    /* \"@openzeppelin/contracts/access/Ownable.sol\":3020:3026  _owner */\n  0x01\n  dup1\n    /* \"@openzeppelin/contracts/access/Ownable.sol\":3020:3037  _owner = newOwner */\n  0x0100\n  exp\n  dup2\n  sload\n  dup2\n  0xffffffffffffffffffffffffffffffffffffffff\n  mul\n  not\n  and\n  swap1\n  dup4\n  0xffffffffffffffffffffffffffffffffffffffff\n  and\n  mul\n  or\n  swap1\n  sstore\n  pop\n    /* \"@openzeppelin/contracts/access/Ownable.sol\":3083:3091  newOwner */\n  dup2\n    /* \"@openzeppelin/contracts/access/Ownable.sol\":3052:3092  OwnershipTransferred(oldOwner, newOwner) */\n  0xffffffffffffffffffffffffffffffffffffffff\n  and\n    /* \"@openzeppelin/contracts/access/Ownable.sol\":3073:3081  oldOwner */\n  dup2\n    /* \"@openzeppelin/contracts/access/Ownable.sol\":3052:3092  OwnershipTransferred(oldOwner, newOwner) */\n  0xffffffffffffffffffffffffffffffffffffffff\n  and\n  0x8be0079c531659141344cd1fd0a4f28419497f9722a3daafe3b4186f6b6457e0\n  mload(0x40)\n  mload(0x40)\n  dup1\n  swap2\n  sub\n  swap1\n  log3\n    /* \"@openzeppelin/contracts/access/Ownable.sol\":2975:3099  {... */\n  pop\n    /* \"@openzeppelin/contracts/access/Ownable.sol\":2912:3099  function _transferOwnership(address newOwner) internal virtual {... */\n  pop\n  jump\t// out\n    /* \"#utility.yul\":88:205   */\ntag_20:\n    /* \"#utility.yul\":197:198   */\n  0x00\n    /* \"#utility.yul\":194:195   */\n  dup1\n    /* \"#utility.yul\":187:199   */\n  revert\n    /* \"#utility.yul\":334:460   */\ntag_22:\n    /* \"#utility.yul\":371:378   */\n  0x00\n    /* \"#utility.yul\":411:453   */\n  0xffffffffffffffffffffffffffffffffffffffff\n    /* \"#utility.yul\":404:409   */\n  dup3\n    /* \"#utility.yul\":400:454   */\n  and\n    /* \"#utility.yul\":389:454   */\n  swap1\n  pop\n    /* \"#utility.yul\":334:460   */\n  swap2\n  swap1\n  pop\n  jump\t// out\n    /* \"#utility.yul\":466:562   */\ntag_23:\n    /* \"#utility.yul\":503:510   */\n  0x00\n    /* \"#utility.yul\":532:556   */\n  tag_34\n    /* \"#utility.yul\":550:555   */\n  dup3\n    /* \"#utility.yul\":532:556   */\n  tag_22\n  jump\t// in\ntag_34:\n    /* \"#utility.yul\":521:556   */\n  swap1\n  pop\n    /* \"#utility.yul\":466:562   */\n  swap2\n  swap1\n  pop\n  jump\t// out\n    /* \"#utility.yul\":568:677   */\ntag_24:\n    /* \"#utility.yul\":618:625   */\n  0x00\n    /* \"#utility.yul\":647:671   */\n  tag_36\n    /* \"#utility.yul\":665:670   */\n  dup3\n    /* \"#utility.yul\":647:671   */\n  tag_23\n  jump\t// in\ntag_36:\n    /* \"#utility.yul\":636:671   */\n  swap1\n  pop\n    /* \"#utility.yul\":568:677   */\n  swap2\n  swap1\n  pop\n  jump\t// out\n    /* \"#utility.yul\":683:831   */\ntag_25:\n    /* \"#utility.yul\":769:806   */\n  tag_38\n    /* \"#utility.yul\":800:805   */\n  dup2\n    /* \"#utility.yul\":769:806   */\n  tag_24\n  jump\t// in\ntag_38:\n    /* \"#utility.yul\":762:767   */\n  dup2\n    /* \"#utility.yul\":759:807   */\n  eq\n    /* \"#utility.yul\":749:825   */\n  tag_39\n  jumpi\n    /* \"#utility.yul\":821:822   */\n  0x00\n    /* \"#utility.yul\":818:819   */\n  dup1\n    /* \"#utility.yul\":811:823   */\n  revert\n    /* \"#utility.yul\":749:825   */\ntag_39:\n    /* \"#utility.yul\":683:831   */\n  pop\n  jump\t// out\n    /* \"#utility.yul\":837:1006   */\ntag_26:\n    /* \"#utility.yul\":907:912   */\n  0x00\n    /* \"#utility.yul\":938:944   */\n  dup2\n    /* \"#utility.yul\":932:945   */\n  mload\n    /* \"#utility.yul\":923:945   */\n  swap1\n  pop\n    /* \"#utility.yul\":954:1000   */\n  tag_41\n    /* \"#utility.yul\":994:999   */\n  dup2\n    /* \"#utility.yul\":954:1000   */\n  tag_25\n  jump\t// in\ntag_41:\n    /* \"#utility.yul\":837:1006   */\n  swap3\n  swap2\n  pop\n  pop\n  jump\t// out\n    /* \"#utility.yul\":1012:1389   */\ntag_3:\n    /* \"#utility.yul\":1095:1101   */\n  0x00\n    /* \"#utility.yul\":1144:1146   */\n  0x20\n    /* \"#utility.yul\":1132:1141   */\n  dup3\n    /* \"#utility.yul\":1123:1130   */\n  dup5\n    /* \"#utility.yul\":1119:1142   */\n  sub\n    /* \"#utility.yul\":1115:1147   */\n  slt\n    /* \"#utility.yul\":1112:1231   */\n  iszero\n  tag_43\n  jumpi\n    /* \"#utility.yul\":1150:1229   */\n  tag_44\n  tag_20\n  jump\t// in\ntag_44:\n    /* \"#utility.yul\":1112:1231   */\ntag_43:\n    /* \"#utility.yul\":1270:1271   */\n  0x00\n    /* \"#utility.yul\":1295:1372   */\n  tag_45\n    /* \"#utility.yul\":1364:1371   */\n  dup5\n    /* \"#utility.yul\":1355:1361   */\n  dup3\n    /* \"#utility.yul\":1344:1353   */\n  dup6\n    /* \"#utility.yul\":1340:1362   */\n  add\n    /* \"#utility.yul\":1295:1372   */\n  tag_26\n  jump\t// in\ntag_45:\n    /* \"#utility.yul\":1285:1372   */\n  swap2\n  pop\n    /* \"#utility.yul\":1241:1382   */\n  pop\n    /* \"#utility.yul\":1012:1389   */\n  swap3\n  swap2\n  pop\n  pop\n  jump\t// out\n    /* \"#utility.yul\":1395:1513   */\ntag_27:\n    /* \"#utility.yul\":1482:1506   */\n  tag_47\n    /* \"#utility.yul\":1500:1505   */\n  dup2\n    /* \"#utility.yul\":1482:1506   */\n  tag_23\n  jump\t// in\ntag_47:\n    /* \"#utility.yul\":1477:1480   */\n  dup3\n    /* \"#utility.yul\":1470:1507   */\n  mstore\n    /* \"#utility.yul\":1395:1513   */\n  pop\n  pop\n  jump\t// out\n    /* \"#utility.yul\":1519:1741   */\ntag_13:\n    /* \"#utility.yul\":1612:1616   */\n  0x00\n    /* \"#utility.yul\":1650:1652   */\n  0x20\n    /* \"#utility.yul\":1639:1648   */\n  dup3\n    /* \"#utility.yul\":1635:1653   */\n  add\n    /* \"#utility.yul\":1627:1653   */\n  swap1\n  pop\n    /* \"#utility.yul\":1663:1734   */\n  tag_49\n    /* \"#utility.yul\":1731:1732   */\n  0x00\n    /* \"#utility.yul\":1720:1729   */\n  dup4\n    /* \"#utility.yul\":1716:1733   */\n  add\n    /* \"#utility.yul\":1707:1713   */\n  dup5\n    /* \"#utility.yul\":1663:1734   */\n  tag_27\n  jump\t// in\ntag_49:\n    /* \"#utility.yul\":1519:1741   */\n  swap3\n  swap2\n  pop\n  pop\n  jump\t// out\n    /* \"CollateralManager.sol\":284:4680  contract CollateralManager is ReentrancyGuard, Pausable, Ownable {... */\ntag_17:\n  dataSize(sub_0)\n  dup1\n  dataOffset(sub_0)\n  0x00\n  codecopy\n  0x00\n  return\nstop\n\nsub_0: assembly {\n        /* \"CollateralManager.sol\":284:4680  contract CollateralManager is ReentrancyGuard, Pausable, Ownable {... */\n      mstore(0x40, 0x80)\n      jumpi(tag_1, lt(calldatasize, 0x04))\n      shr(0xe0, calldataload(0x00))\n      dup1\n      0x715018a6\n      gt\n      tag_20\n      jumpi\n      dup1\n      0xda18e610\n      gt\n      tag_21\n      jumpi\n      dup1\n      0xda18e610\n      eq\n      tag_15\n      jumpi\n      dup1\n      0xef4c61bf\n      eq\n      tag_16\n      jumpi\n      dup1\n      0xf2fde38b\n      eq\n      tag_17\n      jumpi\n      dup1\n      0xf6da3c90\n      eq\n      tag_18\n      jumpi\n      dup1\n      0xf813e6ab\n      eq\n      tag_19\n      jumpi\n      jump(tag_1)\n    tag_21:\n      dup1\n      0x715018a6\n      eq\n      tag_11\n      jumpi\n      dup1\n      0x836e35c8\n      eq\n      tag_12\n      jumpi\n      dup1\n      0x8456cb59\n      eq\n      tag_13\n      jumpi\n      dup1\n      0x8da5cb5b\n      eq\n      tag_14\n      jumpi\n      jump(tag_1)\n    tag_20:\n      dup1\n      0x2703ee85\n      gt\n      tag_22\n      jumpi\n      dup1\n      0x2703ee85\n      eq\n      tag_6\n      jumpi\n      dup1\n      0x31be0e0e\n      eq\n      tag_7\n      jumpi\n      dup1\n      0x3f4ba83a\n      eq\n      tag_8\n      jumpi\n      dup1\n      0x5b96a6ec\n      eq\n      tag_9\n      jumpi\n      dup1\n      0x5c975abb\n      eq\n      tag_10\n      jumpi\n      jump(tag_1)\n    tag_22:\n      dup1\n      0x192e7a7b\n      eq\n      tag_2\n      jumpi\n      dup1\n      0x1fea5a6b\n      eq\n      tag_3\n      jumpi\n      dup1\n      0x254eb80b\n      eq\n      tag_4\n      jumpi\n      dup1\n      0x26c62f90\n      eq\n      tag_5\n      jumpi\n    tag_1:\n      0x00\n      dup1\n      revert\n        /* \"CollateralManager.sol\":4071:4350  function releaseFunds(address user) external nonReentrant{... */\n    tag_2:\n      callvalue\n      dup1\n      iszero\n      tag_23\n      jumpi\n      0x00\n      dup1\n      revert\n    tag_23:\n      pop\n      tag_24\n      0x04\n      dup1\n      calldatasize\n      sub\n      dup2\n      add\n      swap1\n      tag_25\n      swap2\n      swap1\n      tag_26\n      jump\t// in\n    tag_25:\n      tag_27\n      jump\t// in\n    tag_24:\n      stop\n        /* \"CollateralManager.sol\":4356:4516  function liquidateCollateral(address user) external nonReentrant{... */\n    tag_3:\n      callvalue\n      dup1\n      iszero\n      tag_28\n      jumpi\n      0x00\n      dup1\n      revert\n    tag_28:\n      pop\n      tag_29\n      0x04\n      dup1\n      calldatasize\n      sub\n      dup2\n      add\n      swap1\n      tag_30\n      swap2\n      swap1\n      tag_26\n      jump\t// in\n    tag_30:\n      tag_31\n      jump\t// in\n    tag_29:\n      stop\n        /* \"CollateralManager.sol\":618:673  mapping(address => uint256) public userCollateralNative */\n    tag_4:\n      callvalue\n      dup1\n      iszero\n      tag_32\n      jumpi\n      0x00\n      dup1\n      revert\n    tag_32:\n      pop\n      tag_33\n      0x04\n      dup1\n      calldatasize\n      sub\n      dup2\n      add\n      swap1\n      tag_34\n      swap2\n      swap1\n      tag_26\n      jump\t// in\n    tag_34:\n      tag_35\n      jump\t// in\n    tag_33:\n      mload(0x40)\n      tag_36\n      swap2\n      swap1\n      tag_37\n      jump\t// in\n    tag_36:\n      mload(0x40)\n      dup1\n      swap2\n      sub\n      swap1\n      return\n        /* \"CollateralManager.sol\":748:803  mapping(address => uint256) public userCollateralStable */\n    tag_5:\n      callvalue\n      dup1\n      iszero\n      tag_38\n      jumpi\n      0x00\n      dup1\n      revert\n    tag_38:\n      pop\n      tag_39\n      0x04\n      dup1\n      calldatasize\n      sub\n      dup2\n      add\n      swap1\n      tag_40\n      swap2\n      swap1\n      tag_26\n      jump\t// in\n    tag_40:\n      tag_41\n      jump\t// in\n    tag_39:\n      mload(0x40)\n      tag_42\n      swap2\n      swap1\n      tag_37\n      jump\t// in\n    tag_42:\n      mload(0x40)\n      dup1\n      swap2\n      sub\n      swap1\n      return\n        /* \"CollateralManager.sol\":3391:3589  function getCollateralBalance(address _user) external view returns (uint256 native_balance, uint256 stable_balance) {... */\n    tag_6:\n      callvalue\n      dup1\n      iszero\n      tag_43\n      jumpi\n      0x00\n      dup1\n      revert\n    tag_43:\n      pop\n      tag_44\n      0x04\n      dup1\n      calldatasize\n      sub\n      dup2\n      add\n      swap1\n      tag_45\n      swap2\n      swap1\n      tag_26\n      jump\t// in\n    tag_45:\n      tag_46\n      jump\t// in\n    tag_44:\n      mload(0x40)\n      tag_47\n      swap3\n      swap2\n      swap1\n      tag_48\n      jump\t// in\n    tag_47:\n      mload(0x40)\n      dup1\n      swap2\n      sub\n      swap1\n      return\n        /* \"CollateralManager.sol\":2365:2799  function depositStableCollateral(uint256 _amount) external nonReentrant whenNotPaused {... */\n    tag_7:\n      callvalue\n      dup1\n      iszero\n      tag_49\n      jumpi\n      0x00\n      dup1\n      revert\n    tag_49:\n      pop\n      tag_50\n      0x04\n      dup1\n      calldatasize\n      sub\n      dup2\n      add\n      swap1\n      tag_51\n      swap2\n      swap1\n      tag_52\n      jump\t// in\n    tag_51:\n      tag_53\n      jump\t// in\n    tag_50:\n      stop\n        /* \"CollateralManager.sol\":4613:4678  function unpause() external onlyOwner {... */\n    tag_8:\n      callvalue\n      dup1\n      iszero\n      tag_54\n      jumpi\n      0x00\n      dup1\n      revert\n    tag_54:\n      pop\n      tag_55\n      tag_56\n      jump\t// in\n    tag_55:\n      stop\n        /* \"CollateralManager.sol\":1367:1815  function depositNativeCollateral() external payable nonReentrant whenNotPaused {... */\n    tag_9:\n      tag_57\n      tag_58\n      jump\t// in\n    tag_57:\n      stop\n        /* \"@openzeppelin/contracts/utils/Pausable.sol\":1850:1934  function paused() public view virtual returns (bool) {... */\n    tag_10:\n      callvalue\n      dup1\n      iszero\n      tag_59\n      jumpi\n      0x00\n      dup1\n      revert\n    tag_59:\n      pop\n      tag_60\n      tag_61\n      jump\t// in\n    tag_60:\n      mload(0x40)\n      tag_62\n      swap2\n      swap1\n      tag_63\n      jump\t// in\n    tag_62:\n      mload(0x40)\n      dup1\n      swap2\n      sub\n      swap1\n      return\n        /* \"@openzeppelin/contracts/access/Ownable.sol\":2293:2394  function renounceOwnership() public virtual onlyOwner {... */\n    tag_11:\n      callvalue\n      dup1\n      iszero\n      tag_64\n      jumpi\n      0x00\n      dup1\n      revert\n    tag_64:\n      pop\n      tag_65\n      tag_66\n      jump\t// in\n    tag_65:\n      stop\n        /* \"CollateralManager.sol\":397:433  uint256 public totalCollateralNative */\n    tag_12:\n      callvalue\n      dup1\n      iszero\n      tag_67\n      jumpi\n      0x00\n      dup1\n      revert\n    tag_67:\n      pop\n      tag_68\n      tag_69\n      jump\t// in\n    tag_68:\n      mload(0x40)\n      tag_70\n      swap2\n      swap1\n      tag_37\n      jump\t// in\n    tag_70:\n      mload(0x40)\n      dup1\n      swap2\n      sub\n      swap1\n      return\n        /* \"CollateralManager.sol\":4546:4607  function pause() external onlyOwner {... */\n    tag_13:\n      callvalue\n      dup1\n      iszero\n      tag_71\n      jumpi\n      0x00\n      dup1\n      revert\n    tag_71:\n      pop\n      tag_72\n      tag_73\n      jump\t// in\n    tag_72:\n      stop\n        /* \"@openzeppelin/contracts/access/Ownable.sol\":1638:1723  function owner() public view virtual returns (address) {... */\n    tag_14:\n      callvalue\n      dup1\n      iszero\n      tag_74\n      jumpi\n      0x00\n      dup1\n      revert\n    tag_74:\n      pop\n      tag_75\n      tag_76\n      jump\t// in\n    tag_75:\n      mload(0x40)\n      tag_77\n      swap2\n      swap1\n      tag_78\n      jump\t// in\n    tag_77:\n      mload(0x40)\n      dup1\n      swap2\n      sub\n      swap1\n      return\n        /* \"CollateralManager.sol\":2805:3385  function withdrawStableCollateral(uint256 _amount) external nonReentrant whenNotPaused {... */\n    tag_15:\n      callvalue\n      dup1\n      iszero\n      tag_79\n      jumpi\n      0x00\n      dup1\n      revert\n    tag_79:\n      pop\n      tag_80\n      0x04\n      dup1\n      calldatasize\n      sub\n      dup2\n      add\n      swap1\n      tag_81\n      swap2\n      swap1\n      tag_52\n      jump\t// in\n    tag_81:\n      tag_82\n      jump\t// in\n    tag_80:\n      stop\n        /* \"CollateralManager.sol\":356:391  ERC20 public stablecoinDepositToken */\n    tag_16:\n      callvalue\n      dup1\n      iszero\n      tag_83\n      jumpi\n      0x00\n      dup1\n      revert\n    tag_83:\n      pop\n      tag_84\n      tag_85\n      jump\t// in\n    tag_84:\n      mload(0x40)\n      tag_86\n      swap2\n      swap1\n      tag_87\n      jump\t// in\n    tag_86:\n      mload(0x40)\n      dup1\n      swap2\n      sub\n      swap1\n      return\n        /* \"@openzeppelin/contracts/access/Ownable.sol\":2543:2758  function transferOwnership(address newOwner) public virtual onlyOwner {... */\n    tag_17:\n      callvalue\n      dup1\n      iszero\n      tag_88\n      jumpi\n      0x00\n      dup1\n      revert\n    tag_88:\n      pop\n      tag_89\n      0x04\n      dup1\n      calldatasize\n      sub\n      dup2\n      add\n      swap1\n      tag_90\n      swap2\n      swap1\n      tag_26\n      jump\t// in\n    tag_90:\n      tag_91\n      jump\t// in\n    tag_89:\n      stop\n        /* \"CollateralManager.sol\":1821:2359  function withdrawNativeCollateral(uint256 _amount) external nonReentrant whenNotPaused {... */\n    tag_18:\n      callvalue\n      dup1\n      iszero\n      tag_92\n      jumpi\n      0x00\n      dup1\n      revert\n    tag_92:\n      pop\n      tag_93\n      0x04\n      dup1\n      calldatasize\n      sub\n      dup2\n      add\n      swap1\n      tag_94\n      swap2\n      swap1\n      tag_52\n      jump\t// in\n    tag_94:\n      tag_95\n      jump\t// in\n    tag_93:\n      stop\n        /* \"CollateralManager.sol\":474:510  uint256 public totalCollateralStable */\n    tag_19:\n      callvalue\n      dup1\n      iszero\n      tag_96\n      jumpi\n      0x00\n      dup1\n      revert\n    tag_96:\n      pop\n      tag_97\n      tag_98\n      jump\t// in\n    tag_97:\n      mload(0x40)\n      tag_99\n      swap2\n      swap1\n      tag_37\n      jump\t// in\n    tag_99:\n      mload(0x40)\n      dup1\n      swap2\n      sub\n      swap1\n      return\n        /* \"CollateralManager.sol\":4071:4350  function releaseFunds(address user) external nonReentrant{... */\n    tag_27:\n        /* \"@openzeppelin/contracts/utils/ReentrancyGuard.sol\":2356:2377  _nonReentrantBefore() */\n      tag_101\n        /* \"@openzeppelin/contracts/utils/ReentrancyGuard.sol\":2356:2375  _nonReentrantBefore */\n      tag_102\n        /* \"@openzeppelin/contracts/utils/ReentrancyGuard.sol\":2356:2377  _nonReentrantBefore() */\n      jump\t// in\n    tag_101:\n        /* \"CollateralManager.sol\":4146:4150  user */\n      dup1\n        /* \"CollateralManager.sol\":4138:4160  payable(user).transfer */\n      0xffffffffffffffffffffffffffffffffffffffff\n      and\n        /* \"CollateralManager.sol\":4138:4188  payable(user).transfer(userCollateralStable[user]) */\n      0x08fc\n        /* \"CollateralManager.sol\":4161:4181  userCollateralStable */\n      0x06\n        /* \"CollateralManager.sol\":4161:4187  userCollateralStable[user] */\n      0x00\n        /* \"CollateralManager.sol\":4182:4186  user */\n      dup5\n        /* \"CollateralManager.sol\":4161:4187  userCollateralStable[user] */\n      0xffffffffffffffffffffffffffffffffffffffff\n      and\n      0xffffffffffffffffffffffffffffffffffffffff\n      and\n      dup2\n      mstore\n      0x20\n      add\n      swap1\n      dup2\n      mstore\n      0x20\n      add\n      0x00\n      keccak256\n      sload\n        /* \"CollateralManager.sol\":4138:4188  payable(user).transfer(userCollateralStable[user]) */\n      swap1\n      dup2\n      iszero\n      mul\n      swap1\n      mload(0x40)\n      0x00\n      mload(0x40)\n      dup1\n      dup4\n      sub\n      dup2\n      dup6\n      dup9\n      dup9\n      call\n      swap4\n      pop\n      pop\n      pop\n      pop\n      iszero\n      dup1\n      iszero\n      tag_105\n      jumpi\n      returndatasize\n      0x00\n      dup1\n      returndatacopy\n      revert(0x00, returndatasize)\n    tag_105:\n      pop\n        /* \"CollateralManager.sol\":4198:4220  stablecoinDepositToken */\n      0x02\n      0x00\n      swap1\n      sload\n      swap1\n      0x0100\n      exp\n      swap1\n      div\n      0xffffffffffffffffffffffffffffffffffffffff\n      and\n        /* \"CollateralManager.sol\":4198:4229  stablecoinDepositToken.transfer */\n      0xffffffffffffffffffffffffffffffffffffffff\n      and\n      0xa9059cbb\n        /* \"CollateralManager.sol\":4230:4234  user */\n      dup3\n        /* \"CollateralManager.sol\":4236:4256  userCollateralStable */\n      0x06\n        /* \"CollateralManager.sol\":4236:4262  userCollateralStable[user] */\n      0x00\n        /* \"CollateralManager.sol\":4257:4261  user */\n      dup6\n        /* \"CollateralManager.sol\":4236:4262  userCollateralStable[user] */\n      0xffffffffffffffffffffffffffffffffffffffff\n      and\n      0xffffffffffffffffffffffffffffffffffffffff\n      and\n      dup2\n      mstore\n      0x20\n      add\n      swap1\n      dup2\n      mstore\n      0x20\n      add\n      0x00\n      keccak256\n      sload\n        /* \"CollateralManager.sol\":4198:4263  stablecoinDepositToken.transfer(user, userCollateralStable[user]) */\n      mload(0x40)\n      dup4\n      0xffffffff\n      and\n      0xe0\n      shl\n      dup2\n      mstore\n      0x04\n      add\n      tag_106\n      swap3\n      swap2\n      swap1\n      tag_107\n      jump\t// in\n    tag_106:\n      0x20\n      mload(0x40)\n      dup1\n      dup4\n      sub\n      dup2\n      0x00\n      dup8\n      gas\n      call\n      iszero\n      dup1\n      iszero\n      tag_109\n      jumpi\n      returndatasize\n      0x00\n      dup1\n      returndatacopy\n      revert(0x00, returndatasize)\n    tag_109:\n      pop\n      pop\n      pop\n      pop\n      mload(0x40)\n      returndatasize\n      not(0x1f)\n      0x1f\n      dup3\n      add\n      and\n      dup3\n      add\n      dup1\n      0x40\n      mstore\n      pop\n      dup2\n      add\n      swap1\n      tag_110\n      swap2\n      swap1\n      tag_111\n      jump\t// in\n    tag_110:\n      pop\n        /* \"CollateralManager.sol\":4302:4303  0 */\n      0x00\n        /* \"CollateralManager.sol\":4273:4293  userCollateralNative */\n      0x05\n        /* \"CollateralManager.sol\":4273:4299  userCollateralNative[user] */\n      0x00\n        /* \"CollateralManager.sol\":4294:4298  user */\n      dup4\n        /* \"CollateralManager.sol\":4273:4299  userCollateralNative[user] */\n      0xffffffffffffffffffffffffffffffffffffffff\n      and\n      0xffffffffffffffffffffffffffffffffffffffff\n      and\n      dup2\n      mstore\n      0x20\n      add\n      swap1\n      dup2\n      mstore\n      0x20\n      add\n      0x00\n      keccak256\n        /* \"CollateralManager.sol\":4273:4303  userCollateralNative[user] = 0 */\n      dup2\n      swap1\n      sstore\n      pop\n        /* \"CollateralManager.sol\":4342:4343  0 */\n      0x00\n        /* \"CollateralManager.sol\":4313:4333  userCollateralStable */\n      0x06\n        /* \"CollateralManager.sol\":4313:4339  userCollateralStable[user] */\n      0x00\n        /* \"CollateralManager.sol\":4334:4338  user */\n      dup4\n        /* \"CollateralManager.sol\":4313:4339  userCollateralStable[user] */\n      0xffffffffffffffffffffffffffffffffffffffff\n      and\n      0xffffffffffffffffffffffffffffffffffffffff\n      and\n      dup2\n      mstore\n      0x20\n      add\n      swap1\n      dup2\n      mstore\n      0x20\n      add\n      0x00\n      keccak256\n        /* \"CollateralManager.sol\":4313:4343  userCollateralStable[user] = 0 */\n      dup2\n      swap1\n      sstore\n      pop\n        /* \"@openzeppelin/contracts/utils/ReentrancyGuard.sol\":2398:2418  _nonReentrantAfter() */\n      tag_112\n        /* \"@openzeppelin/contracts/utils/ReentrancyGuard.sol\":2398:2416  _nonReentrantAfter */\n      tag_113\n        /* \"@openzeppelin/contracts/utils/ReentrancyGuard.sol\":2398:2418  _nonReentrantAfter() */\n      jump\t// in\n    tag_112:\n        /* \"CollateralManager.sol\":4071:4350  function releaseFunds(address user) external nonReentrant{... */\n      pop\n      jump\t// out\n        /* \"CollateralManager.sol\":4356:4516  function liquidateCollateral(address user) external nonReentrant{... */\n    tag_31:\n        /* \"@openzeppelin/contracts/utils/ReentrancyGuard.sol\":2356:2377  _nonReentrantBefore() */\n      tag_115\n        /* \"@openzeppelin/contracts/utils/ReentrancyGuard.sol\":2356:2375  _nonReentrantBefore */\n      tag_102\n        /* \"@openzeppelin/contracts/utils/ReentrancyGuard.sol\":2356:2377  _nonReentrantBefore() */\n      jump\t// in\n    tag_115:\n        /* \"CollateralManager.sol\":4468:4469  0 */\n      0x00\n        /* \"CollateralManager.sol\":4439:4459  userCollateralNative */\n      0x05\n        /* \"CollateralManager.sol\":4439:4465  userCollateralNative[user] */\n      0x00\n        /* \"CollateralManager.sol\":4460:4464  user */\n      dup4\n        /* \"CollateralManager.sol\":4439:4465  userCollateralNative[user] */\n      0xffffffffffffffffffffffffffffffffffffffff\n      and\n      0xffffffffffffffffffffffffffffffffffffffff\n      and\n      dup2\n      mstore\n      0x20\n      add\n      swap1\n      dup2\n      mstore\n      0x20\n      add\n      0x00\n      keccak256\n        /* \"CollateralManager.sol\":4439:4469  userCollateralNative[user] = 0 */\n      dup2\n      swap1\n      sstore\n      pop\n        /* \"CollateralManager.sol\":4508:4509  0 */\n      0x00\n        /* \"CollateralManager.sol\":4479:4499  userCollateralStable */\n      0x06\n        /* \"CollateralManager.sol\":4479:4505  userCollateralStable[user] */\n      0x00\n        /* \"CollateralManager.sol\":4500:4504  user */\n      dup4\n        /* \"CollateralManager.sol\":4479:4505  userCollateralStable[user] */\n      0xffffffffffffffffffffffffffffffffffffffff\n      and\n      0xffffffffffffffffffffffffffffffffffffffff\n      and\n      dup2\n      mstore\n      0x20\n      add\n      swap1\n      dup2\n      mstore\n      0x20\n      add\n      0x00\n      keccak256\n        /* \"CollateralManager.sol\":4479:4509  userCollateralStable[user] = 0 */\n      dup2\n      swap1\n      sstore\n      pop\n        /* \"@openzeppelin/contracts/utils/ReentrancyGuard.sol\":2398:2418  _nonReentrantAfter() */\n      tag_117\n        /* \"@openzeppelin/contracts/utils/ReentrancyGuard.sol\":2398:2416  _nonReentrantAfter */\n      tag_113\n        /* \"@openzeppelin/contracts/utils/ReentrancyGuard.sol\":2398:2418  _nonReentrantAfter() */\n      jump\t// in\n    tag_117:\n        /* \"CollateralManager.sol\":4356:4516  function liquidateCollateral(address user) external nonReentrant{... */\n      pop\n      jump\t// out\n        /* \"CollateralManager.sol\":618:673  mapping(address => uint256) public userCollateralNative */\n    tag_35:\n      mstore(0x20, 0x05)\n      dup1\n      0x00\n      mstore\n      keccak256(0x00, 0x40)\n      0x00\n      swap2\n      pop\n      swap1\n      pop\n      sload\n      dup2\n      jump\t// out\n        /* \"CollateralManager.sol\":748:803  mapping(address => uint256) public userCollateralStable */\n    tag_41:\n      mstore(0x20, 0x06)\n      dup1\n      0x00\n      mstore\n      keccak256(0x00, 0x40)\n      0x00\n      swap2\n      pop\n      swap1\n      pop\n      sload\n      dup2\n      jump\t// out\n        /* \"CollateralManager.sol\":3391:3589  function getCollateralBalance(address _user) external view returns (uint256 native_balance, uint256 stable_balance) {... */\n    tag_46:\n        /* \"CollateralManager.sol\":3459:3481  uint256 native_balance */\n      0x00\n        /* \"CollateralManager.sol\":3483:3505  uint256 stable_balance */\n      dup1\n        /* \"CollateralManager.sol\":3525:3545  userCollateralNative */\n      0x05\n        /* \"CollateralManager.sol\":3525:3552  userCollateralNative[_user] */\n      0x00\n        /* \"CollateralManager.sol\":3546:3551  _user */\n      dup5\n        /* \"CollateralManager.sol\":3525:3552  userCollateralNative[_user] */\n      0xffffffffffffffffffffffffffffffffffffffff\n      and\n      0xffffffffffffffffffffffffffffffffffffffff\n      and\n      dup2\n      mstore\n      0x20\n      add\n      swap1\n      dup2\n      mstore\n      0x20\n      add\n      0x00\n      keccak256\n      sload\n        /* \"CollateralManager.sol\":3554:3574  userCollateralStable */\n      0x06\n        /* \"CollateralManager.sol\":3554:3581  userCollateralStable[_user] */\n      0x00\n        /* \"CollateralManager.sol\":3575:3580  _user */\n      dup6\n        /* \"CollateralManager.sol\":3554:3581  userCollateralStable[_user] */\n      0xffffffffffffffffffffffffffffffffffffffff\n      and\n      0xffffffffffffffffffffffffffffffffffffffff\n      and\n      dup2\n      mstore\n      0x20\n      add\n      swap1\n      dup2\n      mstore\n      0x20\n      add\n      0x00\n      keccak256\n      sload\n        /* \"CollateralManager.sol\":3517:3582  return (userCollateralNative[_user], userCollateralStable[_user]) */\n      swap2\n      pop\n      swap2\n      pop\n        /* \"CollateralManager.sol\":3391:3589  function getCollateralBalance(address _user) external view returns (uint256 native_balance, uint256 stable_balance) {... */\n      swap2\n      pop\n      swap2\n      jump\t// out\n        /* \"CollateralManager.sol\":2365:2799  function depositStableCollateral(uint256 _amount) external nonReentrant whenNotPaused {... */\n    tag_53:\n        /* \"@openzeppelin/contracts/utils/ReentrancyGuard.sol\":2356:2377  _nonReentrantBefore() */\n      tag_120\n        /* \"@openzeppelin/contracts/utils/ReentrancyGuard.sol\":2356:2375  _nonReentrantBefore */\n      tag_102\n        /* \"@openzeppelin/contracts/utils/ReentrancyGuard.sol\":2356:2377  _nonReentrantBefore() */\n      jump\t// in\n    tag_120:\n        /* \"@openzeppelin/contracts/utils/Pausable.sol\":1474:1493  _requireNotPaused() */\n      tag_122\n        /* \"@openzeppelin/contracts/utils/Pausable.sol\":1474:1491  _requireNotPaused */\n      tag_123\n        /* \"@openzeppelin/contracts/utils/Pausable.sol\":1474:1493  _requireNotPaused() */\n      jump\t// in\n    tag_122:\n        /* \"CollateralManager.sol\":2479:2480  0 */\n      0x00\n        /* \"CollateralManager.sol\":2469:2476  _amount */\n      dup2\n        /* \"CollateralManager.sol\":2469:2480  _amount > 0 */\n      gt\n        /* \"CollateralManager.sol\":2461:2518  require(_amount > 0, \"CollateralManager: Invalid amount\") */\n      tag_125\n      jumpi\n      mload(0x40)\n      0x08c379a000000000000000000000000000000000000000000000000000000000\n      dup2\n      mstore\n      0x04\n      add\n      tag_126\n      swap1\n      tag_127\n      jump\t// in\n    tag_126:\n      mload(0x40)\n      dup1\n      swap2\n      sub\n      swap1\n      revert\n    tag_125:\n        /* \"CollateralManager.sol\":2536:2558  stablecoinDepositToken */\n      0x02\n      0x00\n      swap1\n      sload\n      swap1\n      0x0100\n      exp\n      swap1\n      div\n      0xffffffffffffffffffffffffffffffffffffffff\n      and\n        /* \"CollateralManager.sol\":2536:2571  stablecoinDepositToken.transferFrom */\n      0xffffffffffffffffffffffffffffffffffffffff\n      and\n      0x23b872dd\n        /* \"CollateralManager.sol\":2572:2582  msg.sender */\n      caller\n        /* \"CollateralManager.sol\":2592:2596  this */\n      address\n        /* \"CollateralManager.sol\":2599:2606  _amount */\n      dup5\n        /* \"CollateralManager.sol\":2536:2607  stablecoinDepositToken.transferFrom(msg.sender, address(this), _amount) */\n      mload(0x40)\n      dup5\n      0xffffffff\n      and\n      0xe0\n      shl\n      dup2\n      mstore\n      0x04\n      add\n      tag_128\n      swap4\n      swap3\n      swap2\n      swap1\n      tag_129\n      jump\t// in\n    tag_128:\n      0x20\n      mload(0x40)\n      dup1\n      dup4\n      sub\n      dup2\n      0x00\n      dup8\n      gas\n      call\n      iszero\n      dup1\n      iszero\n      tag_131\n      jumpi\n      returndatasize\n      0x00\n      dup1\n      returndatacopy\n      revert(0x00, returndatasize)\n    tag_131:\n      pop\n      pop\n      pop\n      pop\n      mload(0x40)\n      returndatasize\n      not(0x1f)\n      0x1f\n      dup3\n      add\n      and\n      dup3\n      add\n      dup1\n      0x40\n      mstore\n      pop\n      dup2\n      add\n      swap1\n      tag_132\n      swap2\n      swap1\n      tag_111\n      jump\t// in\n    tag_132:\n        /* \"CollateralManager.sol\":2528:2646  require(stablecoinDepositToken.transferFrom(msg.sender, address(this), _amount), \"CollateralManager: Transfer failed\") */\n      tag_133\n      jumpi\n      mload(0x40)\n      0x08c379a000000000000000000000000000000000000000000000000000000000\n      dup2\n      mstore\n      0x04\n      add\n      tag_134\n      swap1\n      tag_135\n      jump\t// in\n    tag_134:\n      mload(0x40)\n      dup1\n      swap2\n      sub\n      swap1\n      revert\n    tag_133:\n        /* \"CollateralManager.sol\":2692:2699  _amount */\n      dup1\n        /* \"CollateralManager.sol\":2656:2676  userCollateralStable */\n      0x06\n        /* \"CollateralManager.sol\":2656:2688  userCollateralStable[msg.sender] */\n      0x00\n        /* \"CollateralManager.sol\":2677:2687  msg.sender */\n      caller\n        /* \"CollateralManager.sol\":2656:2688  userCollateralStable[msg.sender] */\n      0xffffffffffffffffffffffffffffffffffffffff\n      and\n      0xffffffffffffffffffffffffffffffffffffffff\n      and\n      dup2\n      mstore\n      0x20\n      add\n      swap1\n      dup2\n      mstore\n      0x20\n      add\n      0x00\n      keccak256\n      0x00\n        /* \"CollateralManager.sol\":2656:2699  userCollateralStable[msg.sender] += _amount */\n      dup3\n      dup3\n      sload\n      tag_136\n      swap2\n      swap1\n      tag_137\n      jump\t// in\n    tag_136:\n      swap3\n      pop\n      pop\n      dup2\n      swap1\n      sstore\n      pop\n        /* \"CollateralManager.sol\":2734:2741  _amount */\n      dup1\n        /* \"CollateralManager.sol\":2709:2730  totalCollateralStable */\n      0x04\n      0x00\n        /* \"CollateralManager.sol\":2709:2741  totalCollateralStable += _amount */\n      dup3\n      dup3\n      sload\n      tag_138\n      swap2\n      swap1\n      tag_137\n      jump\t// in\n    tag_138:\n      swap3\n      pop\n      pop\n      dup2\n      swap1\n      sstore\n      pop\n        /* \"CollateralManager.sol\":2772:2782  msg.sender */\n      caller\n        /* \"CollateralManager.sol\":2756:2792  StableDeposited(msg.sender, _amount) */\n      0xffffffffffffffffffffffffffffffffffffffff\n      and\n      0x72bcd92218a56686cd2892adc5b472dd4e131f58ba98e7a05a28b34ca44be5d3\n        /* \"CollateralManager.sol\":2784:2791  _amount */\n      dup3\n        /* \"CollateralManager.sol\":2756:2792  StableDeposited(msg.sender, _amount) */\n      mload(0x40)\n      tag_139\n      swap2\n      swap1\n      tag_37\n      jump\t// in\n    tag_139:\n      mload(0x40)\n      dup1\n      swap2\n      sub\n      swap1\n      log2\n        /* \"@openzeppelin/contracts/utils/ReentrancyGuard.sol\":2398:2418  _nonReentrantAfter() */\n      tag_140\n        /* \"@openzeppelin/contracts/utils/ReentrancyGuard.sol\":2398:2416  _nonReentrantAfter */\n      tag_113\n        /* \"@openzeppelin/contracts/utils/ReentrancyGuard.sol\":2398:2418  _nonReentrantAfter() */\n      jump\t// in\n    tag_140:\n        /* \"CollateralManager.sol\":2365:2799  function depositStableCollateral(uint256 _amount) external nonReentrant whenNotPaused {... */\n      pop\n      jump\t// out\n        /* \"CollateralManager.sol\":4613:4678  function unpause() external onlyOwner {... */\n    tag_56:\n        /* \"@openzeppelin/contracts/access/Ownable.sol\":1531:1544  _checkOwner() */\n      tag_142\n        /* \"@openzeppelin/contracts/access/Ownable.sol\":1531:1542  _checkOwner */\n      tag_143\n        /* \"@openzeppelin/contracts/access/Ownable.sol\":1531:1544  _checkOwner() */\n      jump\t// in\n    tag_142:\n        /* \"CollateralManager.sol\":4661:4671  _unpause() */\n      tag_145\n        /* \"CollateralManager.sol\":4661:4669  _unpause */\n      tag_146\n        /* \"CollateralManager.sol\":4661:4671  _unpause() */\n      jump\t// in\n    tag_145:\n        /* \"CollateralManager.sol\":4613:4678  function unpause() external onlyOwner {... */\n      jump\t// out\n        /* \"CollateralManager.sol\":1367:1815  function depositNativeCollateral() external payable nonReentrant whenNotPaused {... */\n    tag_58:\n        /* \"@openzeppelin/contracts/utils/ReentrancyGuard.sol\":2356:2377  _nonReentrantBefore() */\n      tag_148\n        /* \"@openzeppelin/contracts/utils/ReentrancyGuard.sol\":2356:2375  _nonReentrantBefore */\n      tag_102\n        /* \"@openzeppelin/contracts/utils/ReentrancyGuard.sol\":2356:2377  _nonReentrantBefore() */\n      jump\t// in\n    tag_148:\n        /* \"@openzeppelin/contracts/utils/Pausable.sol\":1474:1493  _requireNotPaused() */\n      tag_150\n        /* \"@openzeppelin/contracts/utils/Pausable.sol\":1474:1491  _requireNotPaused */\n      tag_123\n        /* \"@openzeppelin/contracts/utils/Pausable.sol\":1474:1493  _requireNotPaused() */\n      jump\t// in\n    tag_150:\n        /* \"CollateralManager.sol\":1476:1477  0 */\n      0x00\n        /* \"CollateralManager.sol\":1464:1473  msg.value */\n      callvalue\n        /* \"CollateralManager.sol\":1464:1477  msg.value > 0 */\n      gt\n        /* \"CollateralManager.sol\":1456:1515  require(msg.value > 0, \"CollateralManager: Invalid amount\") */\n      tag_152\n      jumpi\n      mload(0x40)\n      0x08c379a000000000000000000000000000000000000000000000000000000000\n      dup2\n      mstore\n      0x04\n      add\n      tag_153\n      swap1\n      tag_127\n      jump\t// in\n    tag_153:\n      mload(0x40)\n      dup1\n      swap2\n      sub\n      swap1\n      revert\n    tag_152:\n        /* \"CollateralManager.sol\":1598:1607  msg.value */\n      callvalue\n        /* \"CollateralManager.sol\":1562:1582  userCollateralNative */\n      0x05\n        /* \"CollateralManager.sol\":1562:1594  userCollateralNative[msg.sender] */\n      0x00\n        /* \"CollateralManager.sol\":1583:1593  msg.sender */\n      caller\n        /* \"CollateralManager.sol\":1562:1594  userCollateralNative[msg.sender] */\n      0xffffffffffffffffffffffffffffffffffffffff\n      and\n      0xffffffffffffffffffffffffffffffffffffffff\n      and\n      dup2\n      mstore\n      0x20\n      add\n      swap1\n      dup2\n      mstore\n      0x20\n      add\n      0x00\n      keccak256\n      0x00\n        /* \"CollateralManager.sol\":1562:1607  userCollateralNative[msg.sender] += msg.value */\n      dup3\n      dup3\n      sload\n      tag_154\n      swap2\n      swap1\n      tag_137\n      jump\t// in\n    tag_154:\n      swap3\n      pop\n      pop\n      dup2\n      swap1\n      sstore\n      pop\n        /* \"CollateralManager.sol\":1681:1690  msg.value */\n      callvalue\n        /* \"CollateralManager.sol\":1656:1677  totalCollateralNative */\n      0x03\n      0x00\n        /* \"CollateralManager.sol\":1656:1690  totalCollateralNative += msg.value */\n      dup3\n      dup3\n      sload\n      tag_155\n      swap2\n      swap1\n      tag_137\n      jump\t// in\n    tag_155:\n      swap3\n      pop\n      pop\n      dup2\n      swap1\n      sstore\n      pop\n        /* \"CollateralManager.sol\":1769:1779  msg.sender */\n      caller\n        /* \"CollateralManager.sol\":1743:1791  NativeCollateralDeposited(msg.sender, msg.value) */\n      0xffffffffffffffffffffffffffffffffffffffff\n      and\n      0x3794d262e1e5b79ac3e163e91538650a7a79c67a2550892fa4b9001797fc075e\n        /* \"CollateralManager.sol\":1781:1790  msg.value */\n      callvalue\n        /* \"CollateralManager.sol\":1743:1791  NativeCollateralDeposited(msg.sender, msg.value) */\n      mload(0x40)\n      tag_156\n      swap2\n      swap1\n      tag_37\n      jump\t// in\n    tag_156:\n      mload(0x40)\n      dup1\n      swap2\n      sub\n      swap1\n      log2\n        /* \"@openzeppelin/contracts/utils/ReentrancyGuard.sol\":2398:2418  _nonReentrantAfter() */\n      tag_157\n        /* \"@openzeppelin/contracts/utils/ReentrancyGuard.sol\":2398:2416  _nonReentrantAfter */\n      tag_113\n        /* \"@openzeppelin/contracts/utils/ReentrancyGuard.sol\":2398:2418  _nonReentrantAfter() */\n      jump\t// in\n    tag_157:\n        /* \"CollateralManager.sol\":1367:1815  function depositNativeCollateral() external payable nonReentrant whenNotPaused {... */\n      jump\t// out\n        /* \"@openzeppelin/contracts/utils/Pausable.sol\":1850:1934  function paused() public view virtual returns (bool) {... */\n    tag_61:\n        /* \"@openzeppelin/contracts/utils/Pausable.sol\":1897:1901  bool */\n      0x00\n        /* \"@openzeppelin/contracts/utils/Pausable.sol\":1920:1927  _paused */\n      0x01\n      0x00\n      swap1\n      sload\n      swap1\n      0x0100\n      exp\n      swap1\n      div\n      0xff\n      and\n        /* \"@openzeppelin/contracts/utils/Pausable.sol\":1913:1927  return _paused */\n      swap1\n      pop\n        /* \"@openzeppelin/contracts/utils/Pausable.sol\":1850:1934  function paused() public view virtual returns (bool) {... */\n      swap1\n      jump\t// out\n        /* \"@openzeppelin/contracts/access/Ownable.sol\":2293:2394  function renounceOwnership() public virtual onlyOwner {... */\n    tag_66:\n        /* \"@openzeppelin/contracts/access/Ownable.sol\":1531:1544  _checkOwner() */\n      tag_160\n        /* \"@openzeppelin/contracts/access/Ownable.sol\":1531:1542  _checkOwner */\n      tag_143\n        /* \"@openzeppelin/contracts/access/Ownable.sol\":1531:1544  _checkOwner() */\n      jump\t// in\n    tag_160:\n        /* \"@openzeppelin/contracts/access/Ownable.sol\":2357:2387  _transferOwnership(address(0)) */\n      tag_162\n        /* \"@openzeppelin/contracts/access/Ownable.sol\":2384:2385  0 */\n      0x00\n        /* \"@openzeppelin/contracts/access/Ownable.sol\":2357:2375  _transferOwnership */\n      tag_163\n        /* \"@openzeppelin/contracts/access/Ownable.sol\":2357:2387  _transferOwnership(address(0)) */\n      jump\t// in\n    tag_162:\n        /* \"@openzeppelin/contracts/access/Ownable.sol\":2293:2394  function renounceOwnership() public virtual onlyOwner {... */\n      jump\t// out\n        /* \"CollateralManager.sol\":397:433  uint256 public totalCollateralNative */\n    tag_69:\n      sload(0x03)\n      dup2\n      jump\t// out\n        /* \"CollateralManager.sol\":4546:4607  function pause() external onlyOwner {... */\n    tag_73:\n        /* \"@openzeppelin/contracts/access/Ownable.sol\":1531:1544  _checkOwner() */\n      tag_165\n        /* \"@openzeppelin/contracts/access/Ownable.sol\":1531:1542  _checkOwner */\n      tag_143\n        /* \"@openzeppelin/contracts/access/Ownable.sol\":1531:1544  _checkOwner() */\n      jump\t// in\n    tag_165:\n        /* \"CollateralManager.sol\":4592:4600  _pause() */\n      tag_167\n        /* \"CollateralManager.sol\":4592:4598  _pause */\n      tag_168\n        /* \"CollateralManager.sol\":4592:4600  _pause() */\n      jump\t// in\n    tag_167:\n        /* \"CollateralManager.sol\":4546:4607  function pause() external onlyOwner {... */\n      jump\t// out\n        /* \"@openzeppelin/contracts/access/Ownable.sol\":1638:1723  function owner() public view virtual returns (address) {... */\n    tag_76:\n        /* \"@openzeppelin/contracts/access/Ownable.sol\":1684:1691  address */\n      0x00\n        /* \"@openzeppelin/contracts/access/Ownable.sol\":1710:1716  _owner */\n      0x01\n      dup1\n      sload\n      swap1\n      0x0100\n      exp\n      swap1\n      div\n      0xffffffffffffffffffffffffffffffffffffffff\n      and\n        /* \"@openzeppelin/contracts/access/Ownable.sol\":1703:1716  return _owner */\n      swap1\n      pop\n        /* \"@openzeppelin/contracts/access/Ownable.sol\":1638:1723  function owner() public view virtual returns (address) {... */\n      swap1\n      jump\t// out\n        /* \"CollateralManager.sol\":2805:3385  function withdrawStableCollateral(uint256 _amount) external nonReentrant whenNotPaused {... */\n    tag_82:\n        /* \"@openzeppelin/contracts/utils/ReentrancyGuard.sol\":2356:2377  _nonReentrantBefore() */\n      tag_171\n        /* \"@openzeppelin/contracts/utils/ReentrancyGuard.sol\":2356:2375  _nonReentrantBefore */\n      tag_102\n        /* \"@openzeppelin/contracts/utils/ReentrancyGuard.sol\":2356:2377  _nonReentrantBefore() */\n      jump\t// in\n    tag_171:\n        /* \"@openzeppelin/contracts/utils/Pausable.sol\":1474:1493  _requireNotPaused() */\n      tag_173\n        /* \"@openzeppelin/contracts/utils/Pausable.sol\":1474:1491  _requireNotPaused */\n      tag_123\n        /* \"@openzeppelin/contracts/utils/Pausable.sol\":1474:1493  _requireNotPaused() */\n      jump\t// in\n    tag_173:\n        /* \"CollateralManager.sol\":2979:2980  0 */\n      0x00\n        /* \"CollateralManager.sol\":2969:2976  _amount */\n      dup2\n        /* \"CollateralManager.sol\":2969:2980  _amount > 0 */\n      gt\n        /* \"CollateralManager.sol\":2961:3018  require(_amount > 0, \"CollateralManager: Invalid amount\") */\n      tag_175\n      jumpi\n      mload(0x40)\n      0x08c379a000000000000000000000000000000000000000000000000000000000\n      dup2\n      mstore\n      0x04\n      add\n      tag_176\n      swap1\n      tag_127\n      jump\t// in\n    tag_176:\n      mload(0x40)\n      dup1\n      swap2\n      sub\n      swap1\n      revert\n    tag_175:\n        /* \"CollateralManager.sol\":3072:3079  _amount */\n      dup1\n        /* \"CollateralManager.sol\":3036:3056  userCollateralStable */\n      0x06\n        /* \"CollateralManager.sol\":3036:3068  userCollateralStable[msg.sender] */\n      0x00\n        /* \"CollateralManager.sol\":3057:3067  msg.sender */\n      caller\n        /* \"CollateralManager.sol\":3036:3068  userCollateralStable[msg.sender] */\n      0xffffffffffffffffffffffffffffffffffffffff\n      and\n      0xffffffffffffffffffffffffffffffffffffffff\n      and\n      dup2\n      mstore\n      0x20\n      add\n      swap1\n      dup2\n      mstore\n      0x20\n      add\n      0x00\n      keccak256\n      sload\n        /* \"CollateralManager.sol\":3036:3079  userCollateralStable[msg.sender] >= _amount */\n      lt\n      iszero\n        /* \"CollateralManager.sol\":3028:3123  require(userCollateralStable[msg.sender] >= _amount, \"CollateralManager: Insufficient balance\") */\n      tag_177\n      jumpi\n      mload(0x40)\n      0x08c379a000000000000000000000000000000000000000000000000000000000\n      dup2\n      mstore\n      0x04\n      add\n      tag_178\n      swap1\n      tag_179\n      jump\t// in\n    tag_178:\n      mload(0x40)\n      dup1\n      swap2\n      sub\n      swap1\n      revert\n    tag_177:\n        /* \"CollateralManager.sol\":3169:3176  _amount */\n      dup1\n        /* \"CollateralManager.sol\":3133:3153  userCollateralStable */\n      0x06\n        /* \"CollateralManager.sol\":3133:3165  userCollateralStable[msg.sender] */\n      0x00\n        /* \"CollateralManager.sol\":3154:3164  msg.sender */\n      caller\n        /* \"CollateralManager.sol\":3133:3165  userCollateralStable[msg.sender] */\n      0xffffffffffffffffffffffffffffffffffffffff\n      and\n      0xffffffffffffffffffffffffffffffffffffffff\n      and\n      dup2\n      mstore\n      0x20\n      add\n      swap1\n      dup2\n      mstore\n      0x20\n      add\n      0x00\n      keccak256\n      0x00\n        /* \"CollateralManager.sol\":3133:3176  userCollateralStable[msg.sender] -= _amount */\n      dup3\n      dup3\n      sload\n      tag_180\n      swap2\n      swap1\n      tag_181\n      jump\t// in\n    tag_180:\n      swap3\n      pop\n      pop\n      dup2\n      swap1\n      sstore\n      pop\n        /* \"CollateralManager.sol\":3211:3218  _amount */\n      dup1\n        /* \"CollateralManager.sol\":3186:3207  totalCollateralStable */\n      0x04\n      0x00\n        /* \"CollateralManager.sol\":3186:3218  totalCollateralStable -= _amount */\n      dup3\n      dup3\n      sload\n      tag_182\n      swap2\n      swap1\n      tag_181\n      jump\t// in\n    tag_182:\n      swap3\n      pop\n      pop\n      dup2\n      swap1\n      sstore\n      pop\n        /* \"CollateralManager.sol\":3236:3258  stablecoinDepositToken */\n      0x02\n      0x00\n      swap1\n      sload\n      swap1\n      0x0100\n      exp\n      swap1\n      div\n      0xffffffffffffffffffffffffffffffffffffffff\n      and\n        /* \"CollateralManager.sol\":3236:3267  stablecoinDepositToken.transfer */\n      0xffffffffffffffffffffffffffffffffffffffff\n      and\n      0xa9059cbb\n        /* \"CollateralManager.sol\":3268:3278  msg.sender */\n      caller\n        /* \"CollateralManager.sol\":3280:3287  _amount */\n      dup4\n        /* \"CollateralManager.sol\":3236:3288  stablecoinDepositToken.transfer(msg.sender, _amount) */\n      mload(0x40)\n      dup4\n      0xffffffff\n      and\n      0xe0\n      shl\n      dup2\n      mstore\n      0x04\n      add\n      tag_183\n      swap3\n      swap2\n      swap1\n      tag_107\n      jump\t// in\n    tag_183:\n      0x20\n      mload(0x40)\n      dup1\n      dup4\n      sub\n      dup2\n      0x00\n      dup8\n      gas\n      call\n      iszero\n      dup1\n      iszero\n      tag_185\n      jumpi\n      returndatasize\n      0x00\n      dup1\n      returndatacopy\n      revert(0x00, returndatasize)\n    tag_185:\n      pop\n      pop\n      pop\n      pop\n      mload(0x40)\n      returndatasize\n      not(0x1f)\n      0x1f\n      dup3\n      add\n      and\n      dup3\n      add\n      dup1\n      0x40\n      mstore\n      pop\n      dup2\n      add\n      swap1\n      tag_186\n      swap2\n      swap1\n      tag_111\n      jump\t// in\n    tag_186:\n        /* \"CollateralManager.sol\":3228:3327  require(stablecoinDepositToken.transfer(msg.sender, _amount), \"CollateralManager: Transfer failed\") */\n      tag_187\n      jumpi\n      mload(0x40)\n      0x08c379a000000000000000000000000000000000000000000000000000000000\n      dup2\n      mstore\n      0x04\n      add\n      tag_188\n      swap1\n      tag_135\n      jump\t// in\n    tag_188:\n      mload(0x40)\n      dup1\n      swap2\n      sub\n      swap1\n      revert\n    tag_187:\n        /* \"CollateralManager.sol\":3358:3368  msg.sender */\n      caller\n        /* \"CollateralManager.sol\":3342:3378  StableWithdrawn(msg.sender, _amount) */\n      0xffffffffffffffffffffffffffffffffffffffff\n      and\n      0xc0c38a768e4dc449a238498e0e4efe579f69439b116d0318f3c81f15da6e713c\n        /* \"CollateralManager.sol\":3370:3377  _amount */\n      dup3\n        /* \"CollateralManager.sol\":3342:3378  StableWithdrawn(msg.sender, _amount) */\n      mload(0x40)\n      tag_189\n      swap2\n      swap1\n      tag_37\n      jump\t// in\n    tag_189:\n      mload(0x40)\n      dup1\n      swap2\n      sub\n      swap1\n      log2\n        /* \"@openzeppelin/contracts/utils/ReentrancyGuard.sol\":2398:2418  _nonReentrantAfter() */\n      tag_190\n        /* \"@openzeppelin/contracts/utils/ReentrancyGuard.sol\":2398:2416  _nonReentrantAfter */\n      tag_113\n        /* \"@openzeppelin/contracts/utils/ReentrancyGuard.sol\":2398:2418  _nonReentrantAfter() */\n      jump\t// in\n    tag_190:\n        /* \"CollateralManager.sol\":2805:3385  function withdrawStableCollateral(uint256 _amount) external nonReentrant whenNotPaused {... */\n      pop\n      jump\t// out\n        /* \"CollateralManager.sol\":356:391  ERC20 public stablecoinDepositToken */\n    tag_85:\n      0x02\n      0x00\n      swap1\n      sload\n      swap1\n      0x0100\n      exp\n      swap1\n      div\n      0xffffffffffffffffffffffffffffffffffffffff\n      and\n      dup2\n      jump\t// out\n        /* \"@openzeppelin/contracts/access/Ownable.sol\":2543:2758  function transferOwnership(address newOwner) public virtual onlyOwner {... */\n    tag_91:\n        /* \"@openzeppelin/contracts/access/Ownable.sol\":1531:1544  _checkOwner() */\n      tag_192\n        /* \"@openzeppelin/contracts/access/Ownable.sol\":1531:1542  _checkOwner */\n      tag_143\n        /* \"@openzeppelin/contracts/access/Ownable.sol\":1531:1544  _checkOwner() */\n      jump\t// in\n    tag_192:\n        /* \"@openzeppelin/contracts/access/Ownable.sol\":2647:2648  0 */\n      0x00\n        /* \"@openzeppelin/contracts/access/Ownable.sol\":2627:2649  newOwner == address(0) */\n      0xffffffffffffffffffffffffffffffffffffffff\n      and\n        /* \"@openzeppelin/contracts/access/Ownable.sol\":2627:2635  newOwner */\n      dup2\n        /* \"@openzeppelin/contracts/access/Ownable.sol\":2627:2649  newOwner == address(0) */\n      0xffffffffffffffffffffffffffffffffffffffff\n      and\n      sub\n        /* \"@openzeppelin/contracts/access/Ownable.sol\":2623:2714  if (newOwner == address(0)) {... */\n      tag_194\n      jumpi\n        /* \"@openzeppelin/contracts/access/Ownable.sol\":2700:2701  0 */\n      0x00\n        /* \"@openzeppelin/contracts/access/Ownable.sol\":2672:2703  OwnableInvalidOwner(address(0)) */\n      mload(0x40)\n      0x1e4fbdf700000000000000000000000000000000000000000000000000000000\n      dup2\n      mstore\n      0x04\n      add\n      tag_195\n      swap2\n      swap1\n      tag_78\n      jump\t// in\n    tag_195:\n      mload(0x40)\n      dup1\n      swap2\n      sub\n      swap1\n      revert\n        /* \"@openzeppelin/contracts/access/Ownable.sol\":2623:2714  if (newOwner == address(0)) {... */\n    tag_194:\n        /* \"@openzeppelin/contracts/access/Ownable.sol\":2723:2751  _transferOwnership(newOwner) */\n      tag_196\n        /* \"@openzeppelin/contracts/access/Ownable.sol\":2742:2750  newOwner */\n      dup2\n        /* \"@openzeppelin/contracts/access/Ownable.sol\":2723:2741  _transferOwnership */\n      tag_163\n        /* \"@openzeppelin/contracts/access/Ownable.sol\":2723:2751  _transferOwnership(newOwner) */\n      jump\t// in\n    tag_196:\n        /* \"@openzeppelin/contracts/access/Ownable.sol\":2543:2758  function transferOwnership(address newOwner) public virtual onlyOwner {... */\n      pop\n      jump\t// out\n        /* \"CollateralManager.sol\":1821:2359  function withdrawNativeCollateral(uint256 _amount) external nonReentrant whenNotPaused {... */\n    tag_95:\n        /* \"@openzeppelin/contracts/utils/ReentrancyGuard.sol\":2356:2377  _nonReentrantBefore() */\n      tag_198\n        /* \"@openzeppelin/contracts/utils/ReentrancyGuard.sol\":2356:2375  _nonReentrantBefore */\n      tag_102\n        /* \"@openzeppelin/contracts/utils/ReentrancyGuard.sol\":2356:2377  _nonReentrantBefore() */\n      jump\t// in\n    tag_198:\n        /* \"@openzeppelin/contracts/utils/Pausable.sol\":1474:1493  _requireNotPaused() */\n      tag_200\n        /* \"@openzeppelin/contracts/utils/Pausable.sol\":1474:1491  _requireNotPaused */\n      tag_123\n        /* \"@openzeppelin/contracts/utils/Pausable.sol\":1474:1493  _requireNotPaused() */\n      jump\t// in\n    tag_200:\n        /* \"CollateralManager.sol\":1995:1996  0 */\n      0x00\n        /* \"CollateralManager.sol\":1985:1992  _amount */\n      dup2\n        /* \"CollateralManager.sol\":1985:1996  _amount > 0 */\n      gt\n        /* \"CollateralManager.sol\":1977:2034  require(_amount > 0, \"CollateralManager: Invalid amount\") */\n      tag_202\n      jumpi\n      mload(0x40)\n      0x08c379a000000000000000000000000000000000000000000000000000000000\n      dup2\n      mstore\n      0x04\n      add\n      tag_203\n      swap1\n      tag_127\n      jump\t// in\n    tag_203:\n      mload(0x40)\n      dup1\n      swap2\n      sub\n      swap1\n      revert\n    tag_202:\n        /* \"CollateralManager.sol\":2088:2095  _amount */\n      dup1\n        /* \"CollateralManager.sol\":2052:2072  userCollateralNative */\n      0x05\n        /* \"CollateralManager.sol\":2052:2084  userCollateralNative[msg.sender] */\n      0x00\n        /* \"CollateralManager.sol\":2073:2083  msg.sender */\n      caller\n        /* \"CollateralManager.sol\":2052:2084  userCollateralNative[msg.sender] */\n      0xffffffffffffffffffffffffffffffffffffffff\n      and\n      0xffffffffffffffffffffffffffffffffffffffff\n      and\n      dup2\n      mstore\n      0x20\n      add\n      swap1\n      dup2\n      mstore\n      0x20\n      add\n      0x00\n      keccak256\n      sload\n        /* \"CollateralManager.sol\":2052:2095  userCollateralNative[msg.sender] >= _amount */\n      lt\n      iszero\n        /* \"CollateralManager.sol\":2044:2139  require(userCollateralNative[msg.sender] >= _amount, \"CollateralManager: Insufficient balance\") */\n      tag_204\n      jumpi\n      mload(0x40)\n      0x08c379a000000000000000000000000000000000000000000000000000000000\n      dup2\n      mstore\n      0x04\n      add\n      tag_205\n      swap1\n      tag_179\n      jump\t// in\n    tag_205:\n      mload(0x40)\n      dup1\n      swap2\n      sub\n      swap1\n      revert\n    tag_204:\n        /* \"CollateralManager.sol\":2185:2192  _amount */\n      dup1\n        /* \"CollateralManager.sol\":2149:2169  userCollateralNative */\n      0x05\n        /* \"CollateralManager.sol\":2149:2181  userCollateralNative[msg.sender] */\n      0x00\n        /* \"CollateralManager.sol\":2170:2180  msg.sender */\n      caller\n        /* \"CollateralManager.sol\":2149:2181  userCollateralNative[msg.sender] */\n      0xffffffffffffffffffffffffffffffffffffffff\n      and\n      0xffffffffffffffffffffffffffffffffffffffff\n      and\n      dup2\n      mstore\n      0x20\n      add\n      swap1\n      dup2\n      mstore\n      0x20\n      add\n      0x00\n      keccak256\n      0x00\n        /* \"CollateralManager.sol\":2149:2192  userCollateralNative[msg.sender] -= _amount */\n      dup3\n      dup3\n      sload\n      tag_206\n      swap2\n      swap1\n      tag_181\n      jump\t// in\n    tag_206:\n      swap3\n      pop\n      pop\n      dup2\n      swap1\n      sstore\n      pop\n        /* \"CollateralManager.sol\":2227:2234  _amount */\n      dup1\n        /* \"CollateralManager.sol\":2202:2223  totalCollateralNative */\n      0x03\n      0x00\n        /* \"CollateralManager.sol\":2202:2234  totalCollateralNative -= _amount */\n      dup3\n      dup3\n      sload\n      tag_207\n      swap2\n      swap1\n      tag_181\n      jump\t// in\n    tag_207:\n      swap3\n      pop\n      pop\n      dup2\n      swap1\n      sstore\n      pop\n        /* \"CollateralManager.sol\":2252:2262  msg.sender */\n      caller\n        /* \"CollateralManager.sol\":2244:2272  payable(msg.sender).transfer */\n      0xffffffffffffffffffffffffffffffffffffffff\n      and\n        /* \"CollateralManager.sol\":2244:2281  payable(msg.sender).transfer(_amount) */\n      0x08fc\n        /* \"CollateralManager.sol\":2273:2280  _amount */\n      dup3\n        /* \"CollateralManager.sol\":2244:2281  payable(msg.sender).transfer(_amount) */\n      swap1\n      dup2\n      iszero\n      mul\n      swap1\n      mload(0x40)\n      0x00\n      mload(0x40)\n      dup1\n      dup4\n      sub\n      dup2\n      dup6\n      dup9\n      dup9\n      call\n      swap4\n      pop\n      pop\n      pop\n      pop\n      iszero\n      dup1\n      iszero\n      tag_209\n      jumpi\n      returndatasize\n      0x00\n      dup1\n      returndatacopy\n      revert(0x00, returndatasize)\n    tag_209:\n      pop\n        /* \"CollateralManager.sol\":2322:2332  msg.sender */\n      caller\n        /* \"CollateralManager.sol\":2296:2342  NativeCollateralWithdrawn(msg.sender, _amount) */\n      0xffffffffffffffffffffffffffffffffffffffff\n      and\n      0xf9634b89b07bf077bf6370d579cb9349c0086163079c1bdd6976c54098f2f903\n        /* \"CollateralManager.sol\":2334:2341  _amount */\n      dup3\n        /* \"CollateralManager.sol\":2296:2342  NativeCollateralWithdrawn(msg.sender, _amount) */\n      mload(0x40)\n      tag_210\n      swap2\n      swap1\n      tag_37\n      jump\t// in\n    tag_210:\n      mload(0x40)\n      dup1\n      swap2\n      sub\n      swap1\n      log2\n        /* \"@openzeppelin/contracts/utils/ReentrancyGuard.sol\":2398:2418  _nonReentrantAfter() */\n      tag_211\n        /* \"@openzeppelin/contracts/utils/ReentrancyGuard.sol\":2398:2416  _nonReentrantAfter */\n      tag_113\n        /* \"@openzeppelin/contracts/utils/ReentrancyGuard.sol\":2398:2418  _nonReentrantAfter() */\n      jump\t// in\n    tag_211:\n        /* \"CollateralManager.sol\":1821:2359  function withdrawNativeCollateral(uint256 _amount) external nonReentrant whenNotPaused {... */\n      pop\n      jump\t// out\n        /* \"CollateralManager.sol\":474:510  uint256 public totalCollateralStable */\n    tag_98:\n      sload(0x04)\n      dup2\n      jump\t// out\n        /* \"@openzeppelin/contracts/utils/ReentrancyGuard.sol\":2431:2738  function _nonReentrantBefore() private {... */\n    tag_102:\n        /* \"@openzeppelin/contracts/utils/ReentrancyGuard.sol\":1755:1756  2 */\n      0x02\n        /* \"@openzeppelin/contracts/utils/ReentrancyGuard.sol\":2558:2565  _status */\n      sload(0x00)\n        /* \"@openzeppelin/contracts/utils/ReentrancyGuard.sol\":2558:2576  _status == ENTERED */\n      sub\n        /* \"@openzeppelin/contracts/utils/ReentrancyGuard.sol\":2554:2640  if (_status == ENTERED) {... */\n      tag_213\n      jumpi\n        /* \"@openzeppelin/contracts/utils/ReentrancyGuard.sol\":2599:2629  ReentrancyGuardReentrantCall() */\n      mload(0x40)\n      0x3ee5aeb500000000000000000000000000000000000000000000000000000000\n      dup2\n      mstore\n      0x04\n      add\n      mload(0x40)\n      dup1\n      swap2\n      sub\n      swap1\n      revert\n        /* \"@openzeppelin/contracts/utils/ReentrancyGuard.sol\":2554:2640  if (_status == ENTERED) {... */\n    tag_213:\n        /* \"@openzeppelin/contracts/utils/ReentrancyGuard.sol\":1755:1756  2 */\n      0x02\n        /* \"@openzeppelin/contracts/utils/ReentrancyGuard.sol\":2714:2721  _status */\n      0x00\n        /* \"@openzeppelin/contracts/utils/ReentrancyGuard.sol\":2714:2731  _status = ENTERED */\n      dup2\n      swap1\n      sstore\n      pop\n        /* \"@openzeppelin/contracts/utils/ReentrancyGuard.sol\":2431:2738  function _nonReentrantBefore() private {... */\n      jump\t// out\n        /* \"@openzeppelin/contracts/utils/ReentrancyGuard.sol\":2744:2952  function _nonReentrantAfter() private {... */\n    tag_113:\n        /* \"@openzeppelin/contracts/utils/ReentrancyGuard.sol\":1713:1714  1 */\n      0x01\n        /* \"@openzeppelin/contracts/utils/ReentrancyGuard.sol\":2924:2931  _status */\n      0x00\n        /* \"@openzeppelin/contracts/utils/ReentrancyGuard.sol\":2924:2945  _status = NOT_ENTERED */\n      dup2\n      swap1\n      sstore\n      pop\n        /* \"@openzeppelin/contracts/utils/ReentrancyGuard.sol\":2744:2952  function _nonReentrantAfter() private {... */\n      jump\t// out\n        /* \"@openzeppelin/contracts/utils/Pausable.sol\":2002:2130  function _requireNotPaused() internal view virtual {... */\n    tag_123:\n        /* \"@openzeppelin/contracts/utils/Pausable.sol\":2067:2075  paused() */\n      tag_216\n        /* \"@openzeppelin/contracts/utils/Pausable.sol\":2067:2073  paused */\n      tag_61\n        /* \"@openzeppelin/contracts/utils/Pausable.sol\":2067:2075  paused() */\n      jump\t// in\n    tag_216:\n        /* \"@openzeppelin/contracts/utils/Pausable.sol\":2063:2124  if (paused()) {... */\n      iszero\n      tag_217\n      jumpi\n        /* \"@openzeppelin/contracts/utils/Pausable.sol\":2098:2113  EnforcedPause() */\n      mload(0x40)\n      0xd93c066500000000000000000000000000000000000000000000000000000000\n      dup2\n      mstore\n      0x04\n      add\n      mload(0x40)\n      dup1\n      swap2\n      sub\n      swap1\n      revert\n        /* \"@openzeppelin/contracts/utils/Pausable.sol\":2063:2124  if (paused()) {... */\n    tag_217:\n        /* \"@openzeppelin/contracts/utils/Pausable.sol\":2002:2130  function _requireNotPaused() internal view virtual {... */\n      jump\t// out\n        /* \"@openzeppelin/contracts/access/Ownable.sol\":1796:1958  function _checkOwner() internal view virtual {... */\n    tag_143:\n        /* \"@openzeppelin/contracts/access/Ownable.sol\":1866:1878  _msgSender() */\n      tag_219\n        /* \"@openzeppelin/contracts/access/Ownable.sol\":1866:1876  _msgSender */\n      tag_220\n        /* \"@openzeppelin/contracts/access/Ownable.sol\":1866:1878  _msgSender() */\n      jump\t// in\n    tag_219:\n        /* \"@openzeppelin/contracts/access/Ownable.sol\":1855:1878  owner() != _msgSender() */\n      0xffffffffffffffffffffffffffffffffffffffff\n      and\n        /* \"@openzeppelin/contracts/access/Ownable.sol\":1855:1862  owner() */\n      tag_221\n        /* \"@openzeppelin/contracts/access/Ownable.sol\":1855:1860  owner */\n      tag_76\n        /* \"@openzeppelin/contracts/access/Ownable.sol\":1855:1862  owner() */\n      jump\t// in\n    tag_221:\n        /* \"@openzeppelin/contracts/access/Ownable.sol\":1855:1878  owner() != _msgSender() */\n      0xffffffffffffffffffffffffffffffffffffffff\n      and\n      eq\n        /* \"@openzeppelin/contracts/access/Ownable.sol\":1851:1952  if (owner() != _msgSender()) {... */\n      tag_222\n      jumpi\n        /* \"@openzeppelin/contracts/access/Ownable.sol\":1928:1940  _msgSender() */\n      tag_223\n        /* \"@openzeppelin/contracts/access/Ownable.sol\":1928:1938  _msgSender */\n      tag_220\n        /* \"@openzeppelin/contracts/access/Ownable.sol\":1928:1940  _msgSender() */\n      jump\t// in\n    tag_223:\n        /* \"@openzeppelin/contracts/access/Ownable.sol\":1901:1941  OwnableUnauthorizedAccount(_msgSender()) */\n      mload(0x40)\n      0x118cdaa700000000000000000000000000000000000000000000000000000000\n      dup2\n      mstore\n      0x04\n      add\n      tag_224\n      swap2\n      swap1\n      tag_78\n      jump\t// in\n    tag_224:\n      mload(0x40)\n      dup1\n      swap2\n      sub\n      swap1\n      revert\n        /* \"@openzeppelin/contracts/access/Ownable.sol\":1851:1952  if (owner() != _msgSender()) {... */\n    tag_222:\n        /* \"@openzeppelin/contracts/access/Ownable.sol\":1796:1958  function _checkOwner() internal view virtual {... */\n      jump\t// out\n        /* \"@openzeppelin/contracts/utils/Pausable.sol\":2710:2827  function _unpause() internal virtual whenPaused {... */\n    tag_146:\n        /* \"@openzeppelin/contracts/utils/Pausable.sol\":1721:1737  _requirePaused() */\n      tag_226\n        /* \"@openzeppelin/contracts/utils/Pausable.sol\":1721:1735  _requirePaused */\n      tag_227\n        /* \"@openzeppelin/contracts/utils/Pausable.sol\":1721:1737  _requirePaused() */\n      jump\t// in\n    tag_226:\n        /* \"@openzeppelin/contracts/utils/Pausable.sol\":2778:2783  false */\n      0x00\n        /* \"@openzeppelin/contracts/utils/Pausable.sol\":2768:2775  _paused */\n      0x01\n      0x00\n        /* \"@openzeppelin/contracts/utils/Pausable.sol\":2768:2783  _paused = false */\n      0x0100\n      exp\n      dup2\n      sload\n      dup2\n      0xff\n      mul\n      not\n      and\n      swap1\n      dup4\n      iszero\n      iszero\n      mul\n      or\n      swap1\n      sstore\n      pop\n        /* \"@openzeppelin/contracts/utils/Pausable.sol\":2798:2820  Unpaused(_msgSender()) */\n      0x5db9ee0a495bf2e6ff9c91a7834c1ba4fdd244a5e8aa4e537bd38aeae4b073aa\n        /* \"@openzeppelin/contracts/utils/Pausable.sol\":2807:2819  _msgSender() */\n      tag_229\n        /* \"@openzeppelin/contracts/utils/Pausable.sol\":2807:2817  _msgSender */\n      tag_220\n        /* \"@openzeppelin/contracts/utils/Pausable.sol\":2807:2819  _msgSender() */\n      jump\t// in\n    tag_229:\n        /* \"@openzeppelin/contracts/utils/Pausable.sol\":2798:2820  Unpaused(_msgSender()) */\n      mload(0x40)\n      tag_230\n      swap2\n      swap1\n      tag_78\n      jump\t// in\n    tag_230:\n      mload(0x40)\n      dup1\n      swap2\n      sub\n      swap1\n      log1\n        /* \"@openzeppelin/contracts/utils/Pausable.sol\":2710:2827  function _unpause() internal virtual whenPaused {... */\n      jump\t// out\n        /* \"@openzeppelin/contracts/access/Ownable.sol\":2912:3099  function _transferOwnership(address newOwner) internal virtual {... */\n    tag_163:\n        /* \"@openzeppelin/contracts/access/Ownable.sol\":2985:3001  address oldOwner */\n      0x00\n        /* \"@openzeppelin/contracts/access/Ownable.sol\":3004:3010  _owner */\n      0x01\n      dup1\n      sload\n      swap1\n      0x0100\n      exp\n      swap1\n      div\n      0xffffffffffffffffffffffffffffffffffffffff\n      and\n        /* \"@openzeppelin/contracts/access/Ownable.sol\":2985:3010  address oldOwner = _owner */\n      swap1\n      pop\n        /* \"@openzeppelin/contracts/access/Ownable.sol\":3029:3037  newOwner */\n      dup2\n        /* \"@openzeppelin/contracts/access/Ownable.sol\":3020:3026  _owner */\n      0x01\n      dup1\n        /* \"@openzeppelin/contracts/access/Ownable.sol\":3020:3037  _owner = newOwner */\n      0x0100\n      exp\n      dup2\n      sload\n      dup2\n      0xffffffffffffffffffffffffffffffffffffffff\n      mul\n      not\n      and\n      swap1\n      dup4\n      0xffffffffffffffffffffffffffffffffffffffff\n      and\n      mul\n      or\n      swap1\n      sstore\n      pop\n        /* \"@openzeppelin/contracts/access/Ownable.sol\":3083:3091  newOwner */\n      dup2\n        /* \"@openzeppelin/contracts/access/Ownable.sol\":3052:3092  OwnershipTransferred(oldOwner, newOwner) */\n      0xffffffffffffffffffffffffffffffffffffffff\n      and\n        /* \"@openzeppelin/contracts/access/Ownable.sol\":3073:3081  oldOwner */\n      dup2\n        /* \"@openzeppelin/contracts/access/Ownable.sol\":3052:3092  OwnershipTransferred(oldOwner, newOwner) */\n      0xffffffffffffffffffffffffffffffffffffffff\n      and\n      0x8be0079c531659141344cd1fd0a4f28419497f9722a3daafe3b4186f6b6457e0\n      mload(0x40)\n      mload(0x40)\n      dup1\n      swap2\n      sub\n      swap1\n      log3\n        /* \"@openzeppelin/contracts/access/Ownable.sol\":2975:3099  {... */\n      pop\n        /* \"@openzeppelin/contracts/access/Ownable.sol\":2912:3099  function _transferOwnership(address newOwner) internal virtual {... */\n      pop\n      jump\t// out\n        /* \"@openzeppelin/contracts/utils/Pausable.sol\":2463:2578  function _pause() internal virtual whenNotPaused {... */\n    tag_168:\n        /* \"@openzeppelin/contracts/utils/Pausable.sol\":1474:1493  _requireNotPaused() */\n      tag_233\n        /* \"@openzeppelin/contracts/utils/Pausable.sol\":1474:1491  _requireNotPaused */\n      tag_123\n        /* \"@openzeppelin/contracts/utils/Pausable.sol\":1474:1493  _requireNotPaused() */\n      jump\t// in\n    tag_233:\n        /* \"@openzeppelin/contracts/utils/Pausable.sol\":2532:2536  true */\n      0x01\n        /* \"@openzeppelin/contracts/utils/Pausable.sol\":2522:2529  _paused */\n      dup1\n      0x00\n        /* \"@openzeppelin/contracts/utils/Pausable.sol\":2522:2536  _paused = true */\n      0x0100\n      exp\n      dup2\n      sload\n      dup2\n      0xff\n      mul\n      not\n      and\n      swap1\n      dup4\n      iszero\n      iszero\n      mul\n      or\n      swap1\n      sstore\n      pop\n        /* \"@openzeppelin/contracts/utils/Pausable.sol\":2551:2571  Paused(_msgSender()) */\n      0x62e78cea01bee320cd4e420270b5ea74000d11b0c9f74754ebdbfc544b05a258\n        /* \"@openzeppelin/contracts/utils/Pausable.sol\":2558:2570  _msgSender() */\n      tag_235\n        /* \"@openzeppelin/contracts/utils/Pausable.sol\":2558:2568  _msgSender */\n      tag_220\n        /* \"@openzeppelin/contracts/utils/Pausable.sol\":2558:2570  _msgSender() */\n      jump\t// in\n    tag_235:\n        /* \"@openzeppelin/contracts/utils/Pausable.sol\":2551:2571  Paused(_msgSender()) */\n      mload(0x40)\n      tag_236\n      swap2\n      swap1\n      tag_78\n      jump\t// in\n    tag_236:\n      mload(0x40)\n      dup1\n      swap2\n      sub\n      swap1\n      log1\n        /* \"@openzeppelin/contracts/utils/Pausable.sol\":2463:2578  function _pause() internal virtual whenNotPaused {... */\n      jump\t// out\n        /* \"@openzeppelin/contracts/utils/Context.sol\":656:752  function _msgSender() internal view virtual returns (address) {... */\n    tag_220:\n        /* \"@openzeppelin/contracts/utils/Context.sol\":709:716  address */\n      0x00\n        /* \"@openzeppelin/contracts/utils/Context.sol\":735:745  msg.sender */\n      caller\n        /* \"@openzeppelin/contracts/utils/Context.sol\":728:745  return msg.sender */\n      swap1\n      pop\n        /* \"@openzeppelin/contracts/utils/Context.sol\":656:752  function _msgSender() internal view virtual returns (address) {... */\n      swap1\n      jump\t// out\n        /* \"@openzeppelin/contracts/utils/Pausable.sol\":2202:2328  function _requirePaused() internal view virtual {... */\n    tag_227:\n        /* \"@openzeppelin/contracts/utils/Pausable.sol\":2265:2273  paused() */\n      tag_239\n        /* \"@openzeppelin/contracts/utils/Pausable.sol\":2265:2271  paused */\n      tag_61\n        /* \"@openzeppelin/contracts/utils/Pausable.sol\":2265:2273  paused() */\n      jump\t// in\n    tag_239:\n        /* \"@openzeppelin/contracts/utils/Pausable.sol\":2260:2322  if (!paused()) {... */\n      tag_240\n      jumpi\n        /* \"@openzeppelin/contracts/utils/Pausable.sol\":2296:2311  ExpectedPause() */\n      mload(0x40)\n      0x8dfc202b00000000000000000000000000000000000000000000000000000000\n      dup2\n      mstore\n      0x04\n      add\n      mload(0x40)\n      dup1\n      swap2\n      sub\n      swap1\n      revert\n        /* \"@openzeppelin/contracts/utils/Pausable.sol\":2260:2322  if (!paused()) {... */\n    tag_240:\n        /* \"@openzeppelin/contracts/utils/Pausable.sol\":2202:2328  function _requirePaused() internal view virtual {... */\n      jump\t// out\n        /* \"#utility.yul\":88:205   */\n    tag_242:\n        /* \"#utility.yul\":197:198   */\n      0x00\n        /* \"#utility.yul\":194:195   */\n      dup1\n        /* \"#utility.yul\":187:199   */\n      revert\n        /* \"#utility.yul\":334:460   */\n    tag_244:\n        /* \"#utility.yul\":371:378   */\n      0x00\n        /* \"#utility.yul\":411:453   */\n      0xffffffffffffffffffffffffffffffffffffffff\n        /* \"#utility.yul\":404:409   */\n      dup3\n        /* \"#utility.yul\":400:454   */\n      and\n        /* \"#utility.yul\":389:454   */\n      swap1\n      pop\n        /* \"#utility.yul\":334:460   */\n      swap2\n      swap1\n      pop\n      jump\t// out\n        /* \"#utility.yul\":466:562   */\n    tag_245:\n        /* \"#utility.yul\":503:510   */\n      0x00\n        /* \"#utility.yul\":532:556   */\n      tag_276\n        /* \"#utility.yul\":550:555   */\n      dup3\n        /* \"#utility.yul\":532:556   */\n      tag_244\n      jump\t// in\n    tag_276:\n        /* \"#utility.yul\":521:556   */\n      swap1\n      pop\n        /* \"#utility.yul\":466:562   */\n      swap2\n      swap1\n      pop\n      jump\t// out\n        /* \"#utility.yul\":568:690   */\n    tag_246:\n        /* \"#utility.yul\":641:665   */\n      tag_278\n        /* \"#utility.yul\":659:664   */\n      dup2\n        /* \"#utility.yul\":641:665   */\n      tag_245\n      jump\t// in\n    tag_278:\n        /* \"#utility.yul\":634:639   */\n      dup2\n        /* \"#utility.yul\":631:666   */\n      eq\n        /* \"#utility.yul\":621:684   */\n      tag_279\n      jumpi\n        /* \"#utility.yul\":680:681   */\n      0x00\n        /* \"#utility.yul\":677:678   */\n      dup1\n        /* \"#utility.yul\":670:682   */\n      revert\n        /* \"#utility.yul\":621:684   */\n    tag_279:\n        /* \"#utility.yul\":568:690   */\n      pop\n      jump\t// out\n        /* \"#utility.yul\":696:835   */\n    tag_247:\n        /* \"#utility.yul\":742:747   */\n      0x00\n        /* \"#utility.yul\":780:786   */\n      dup2\n        /* \"#utility.yul\":767:787   */\n      calldataload\n        /* \"#utility.yul\":758:787   */\n      swap1\n      pop\n        /* \"#utility.yul\":796:829   */\n      tag_281\n        /* \"#utility.yul\":823:828   */\n      dup2\n        /* \"#utility.yul\":796:829   */\n      tag_246\n      jump\t// in\n    tag_281:\n        /* \"#utility.yul\":696:835   */\n      swap3\n      swap2\n      pop\n      pop\n      jump\t// out\n        /* \"#utility.yul\":841:1170   */\n    tag_26:\n        /* \"#utility.yul\":900:906   */\n      0x00\n        /* \"#utility.yul\":949:951   */\n      0x20\n        /* \"#utility.yul\":937:946   */\n      dup3\n        /* \"#utility.yul\":928:935   */\n      dup5\n        /* \"#utility.yul\":924:947   */\n      sub\n        /* \"#utility.yul\":920:952   */\n      slt\n        /* \"#utility.yul\":917:1036   */\n      iszero\n      tag_283\n      jumpi\n        /* \"#utility.yul\":955:1034   */\n      tag_284\n      tag_242\n      jump\t// in\n    tag_284:\n        /* \"#utility.yul\":917:1036   */\n    tag_283:\n        /* \"#utility.yul\":1075:1076   */\n      0x00\n        /* \"#utility.yul\":1100:1153   */\n      tag_285\n        /* \"#utility.yul\":1145:1152   */\n      dup5\n        /* \"#utility.yul\":1136:1142   */\n      dup3\n        /* \"#utility.yul\":1125:1134   */\n      dup6\n        /* \"#utility.yul\":1121:1143   */\n      add\n        /* \"#utility.yul\":1100:1153   */\n      tag_247\n      jump\t// in\n    tag_285:\n        /* \"#utility.yul\":1090:1153   */\n      swap2\n      pop\n        /* \"#utility.yul\":1046:1163   */\n      pop\n        /* \"#utility.yul\":841:1170   */\n      swap3\n      swap2\n      pop\n      pop\n      jump\t// out\n        /* \"#utility.yul\":1176:1253   */\n    tag_248:\n        /* \"#utility.yul\":1213:1220   */\n      0x00\n        /* \"#utility.yul\":1242:1247   */\n      dup2\n        /* \"#utility.yul\":1231:1247   */\n      swap1\n      pop\n        /* \"#utility.yul\":1176:1253   */\n      swap2\n      swap1\n      pop\n      jump\t// out\n        /* \"#utility.yul\":1259:1377   */\n    tag_249:\n        /* \"#utility.yul\":1346:1370   */\n      tag_288\n        /* \"#utility.yul\":1364:1369   */\n      dup2\n        /* \"#utility.yul\":1346:1370   */\n      tag_248\n      jump\t// in\n    tag_288:\n        /* \"#utility.yul\":1341:1344   */\n      dup3\n        /* \"#utility.yul\":1334:1371   */\n      mstore\n        /* \"#utility.yul\":1259:1377   */\n      pop\n      pop\n      jump\t// out\n        /* \"#utility.yul\":1383:1605   */\n    tag_37:\n        /* \"#utility.yul\":1476:1480   */\n      0x00\n        /* \"#utility.yul\":1514:1516   */\n      0x20\n        /* \"#utility.yul\":1503:1512   */\n      dup3\n        /* \"#utility.yul\":1499:1517   */\n      add\n        /* \"#utility.yul\":1491:1517   */\n      swap1\n      pop\n        /* \"#utility.yul\":1527:1598   */\n      tag_290\n        /* \"#utility.yul\":1595:1596   */\n      0x00\n        /* \"#utility.yul\":1584:1593   */\n      dup4\n        /* \"#utility.yul\":1580:1597   */\n      add\n        /* \"#utility.yul\":1571:1577   */\n      dup5\n        /* \"#utility.yul\":1527:1598   */\n      tag_249\n      jump\t// in\n    tag_290:\n        /* \"#utility.yul\":1383:1605   */\n      swap3\n      swap2\n      pop\n      pop\n      jump\t// out\n        /* \"#utility.yul\":1611:1943   */\n    tag_48:\n        /* \"#utility.yul\":1732:1736   */\n      0x00\n        /* \"#utility.yul\":1770:1772   */\n      0x40\n        /* \"#utility.yul\":1759:1768   */\n      dup3\n        /* \"#utility.yul\":1755:1773   */\n      add\n        /* \"#utility.yul\":1747:1773   */\n      swap1\n      pop\n        /* \"#utility.yul\":1783:1854   */\n      tag_292\n        /* \"#utility.yul\":1851:1852   */\n      0x00\n        /* \"#utility.yul\":1840:1849   */\n      dup4\n        /* \"#utility.yul\":1836:1853   */\n      add\n        /* \"#utility.yul\":1827:1833   */\n      dup6\n        /* \"#utility.yul\":1783:1854   */\n      tag_249\n      jump\t// in\n    tag_292:\n        /* \"#utility.yul\":1864:1936   */\n      tag_293\n        /* \"#utility.yul\":1932:1934   */\n      0x20\n        /* \"#utility.yul\":1921:1930   */\n      dup4\n        /* \"#utility.yul\":1917:1935   */\n      add\n        /* \"#utility.yul\":1908:1914   */\n      dup5\n        /* \"#utility.yul\":1864:1936   */\n      tag_249\n      jump\t// in\n    tag_293:\n        /* \"#utility.yul\":1611:1943   */\n      swap4\n      swap3\n      pop\n      pop\n      pop\n      jump\t// out\n        /* \"#utility.yul\":1949:2071   */\n    tag_250:\n        /* \"#utility.yul\":2022:2046   */\n      tag_295\n        /* \"#utility.yul\":2040:2045   */\n      dup2\n        /* \"#utility.yul\":2022:2046   */\n      tag_248\n      jump\t// in\n    tag_295:\n        /* \"#utility.yul\":2015:2020   */\n      dup2\n        /* \"#utility.yul\":2012:2047   */\n      eq\n        /* \"#utility.yul\":2002:2065   */\n      tag_296\n      jumpi\n        /* \"#utility.yul\":2061:2062   */\n      0x00\n        /* \"#utility.yul\":2058:2059   */\n      dup1\n        /* \"#utility.yul\":2051:2063   */\n      revert\n        /* \"#utility.yul\":2002:2065   */\n    tag_296:\n        /* \"#utility.yul\":1949:2071   */\n      pop\n      jump\t// out\n        /* \"#utility.yul\":2077:2216   */\n    tag_251:\n        /* \"#utility.yul\":2123:2128   */\n      0x00\n        /* \"#utility.yul\":2161:2167   */\n      dup2\n        /* \"#utility.yul\":2148:2168   */\n      calldataload\n        /* \"#utility.yul\":2139:2168   */\n      swap1\n      pop\n        /* \"#utility.yul\":2177:2210   */\n      tag_298\n        /* \"#utility.yul\":2204:2209   */\n      dup2\n        /* \"#utility.yul\":2177:2210   */\n      tag_250\n      jump\t// in\n    tag_298:\n        /* \"#utility.yul\":2077:2216   */\n      swap3\n      swap2\n      pop\n      pop\n      jump\t// out\n        /* \"#utility.yul\":2222:2551   */\n    tag_52:\n        /* \"#utility.yul\":2281:2287   */\n      0x00\n        /* \"#utility.yul\":2330:2332   */\n      0x20\n        /* \"#utility.yul\":2318:2327   */\n      dup3\n        /* \"#utility.yul\":2309:2316   */\n      dup5\n        /* \"#utility.yul\":2305:2328   */\n      sub\n        /* \"#utility.yul\":2301:2333   */\n      slt\n        /* \"#utility.yul\":2298:2417   */\n      iszero\n      tag_300\n      jumpi\n        /* \"#utility.yul\":2336:2415   */\n      tag_301\n      tag_242\n      jump\t// in\n    tag_301:\n        /* \"#utility.yul\":2298:2417   */\n    tag_300:\n        /* \"#utility.yul\":2456:2457   */\n      0x00\n        /* \"#utility.yul\":2481:2534   */\n      tag_302\n        /* \"#utility.yul\":2526:2533   */\n      dup5\n        /* \"#utility.yul\":2517:2523   */\n      dup3\n        /* \"#utility.yul\":2506:2515   */\n      dup6\n        /* \"#utility.yul\":2502:2524   */\n      add\n        /* \"#utility.yul\":2481:2534   */\n      tag_251\n      jump\t// in\n    tag_302:\n        /* \"#utility.yul\":2471:2534   */\n      swap2\n      pop\n        /* \"#utility.yul\":2427:2544   */\n      pop\n        /* \"#utility.yul\":2222:2551   */\n      swap3\n      swap2\n      pop\n      pop\n      jump\t// out\n        /* \"#utility.yul\":2557:2647   */\n    tag_252:\n        /* \"#utility.yul\":2591:2598   */\n      0x00\n        /* \"#utility.yul\":2634:2639   */\n      dup2\n        /* \"#utility.yul\":2627:2640   */\n      iszero\n        /* \"#utility.yul\":2620:2641   */\n      iszero\n        /* \"#utility.yul\":2609:2641   */\n      swap1\n      pop\n        /* \"#utility.yul\":2557:2647   */\n      swap2\n      swap1\n      pop\n      jump\t// out\n        /* \"#utility.yul\":2653:2762   */\n    tag_253:\n        /* \"#utility.yul\":2734:2755   */\n      tag_305\n        /* \"#utility.yul\":2749:2754   */\n      dup2\n        /* \"#utility.yul\":2734:2755   */\n      tag_252\n      jump\t// in\n    tag_305:\n        /* \"#utility.yul\":2729:2732   */\n      dup3\n        /* \"#utility.yul\":2722:2756   */\n      mstore\n        /* \"#utility.yul\":2653:2762   */\n      pop\n      pop\n      jump\t// out\n        /* \"#utility.yul\":2768:2978   */\n    tag_63:\n        /* \"#utility.yul\":2855:2859   */\n      0x00\n        /* \"#utility.yul\":2893:2895   */\n      0x20\n        /* \"#utility.yul\":2882:2891   */\n      dup3\n        /* \"#utility.yul\":2878:2896   */\n      add\n        /* \"#utility.yul\":2870:2896   */\n      swap1\n      pop\n        /* \"#utility.yul\":2906:2971   */\n      tag_307\n        /* \"#utility.yul\":2968:2969   */\n      0x00\n        /* \"#utility.yul\":2957:2966   */\n      dup4\n        /* \"#utility.yul\":2953:2970   */\n      add\n        /* \"#utility.yul\":2944:2950   */\n      dup5\n        /* \"#utility.yul\":2906:2971   */\n      tag_253\n      jump\t// in\n    tag_307:\n        /* \"#utility.yul\":2768:2978   */\n      swap3\n      swap2\n      pop\n      pop\n      jump\t// out\n        /* \"#utility.yul\":2984:3102   */\n    tag_254:\n        /* \"#utility.yul\":3071:3095   */\n      tag_309\n        /* \"#utility.yul\":3089:3094   */\n      dup2\n        /* \"#utility.yul\":3071:3095   */\n      tag_245\n      jump\t// in\n    tag_309:\n        /* \"#utility.yul\":3066:3069   */\n      dup3\n        /* \"#utility.yul\":3059:3096   */\n      mstore\n        /* \"#utility.yul\":2984:3102   */\n      pop\n      pop\n      jump\t// out\n        /* \"#utility.yul\":3108:3330   */\n    tag_78:\n        /* \"#utility.yul\":3201:3205   */\n      0x00\n        /* \"#utility.yul\":3239:3241   */\n      0x20\n        /* \"#utility.yul\":3228:3237   */\n      dup3\n        /* \"#utility.yul\":3224:3242   */\n      add\n        /* \"#utility.yul\":3216:3242   */\n      swap1\n      pop\n        /* \"#utility.yul\":3252:3323   */\n      tag_311\n        /* \"#utility.yul\":3320:3321   */\n      0x00\n        /* \"#utility.yul\":3309:3318   */\n      dup4\n        /* \"#utility.yul\":3305:3322   */\n      add\n        /* \"#utility.yul\":3296:3302   */\n      dup5\n        /* \"#utility.yul\":3252:3323   */\n      tag_254\n      jump\t// in\n    tag_311:\n        /* \"#utility.yul\":3108:3330   */\n      swap3\n      swap2\n      pop\n      pop\n      jump\t// out\n        /* \"#utility.yul\":3336:3396   */\n    tag_255:\n        /* \"#utility.yul\":3364:3367   */\n      0x00\n        /* \"#utility.yul\":3385:3390   */\n      dup2\n        /* \"#utility.yul\":3378:3390   */\n      swap1\n      pop\n        /* \"#utility.yul\":3336:3396   */\n      swap2\n      swap1\n      pop\n      jump\t// out\n        /* \"#utility.yul\":3402:3544   */\n    tag_256:\n        /* \"#utility.yul\":3452:3461   */\n      0x00\n        /* \"#utility.yul\":3485:3538   */\n      tag_314\n        /* \"#utility.yul\":3503:3537   */\n      tag_315\n        /* \"#utility.yul\":3512:3536   */\n      tag_316\n        /* \"#utility.yul\":3530:3535   */\n      dup5\n        /* \"#utility.yul\":3512:3536   */\n      tag_244\n      jump\t// in\n    tag_316:\n        /* \"#utility.yul\":3503:3537   */\n      tag_255\n      jump\t// in\n    tag_315:\n        /* \"#utility.yul\":3485:3538   */\n      tag_244\n      jump\t// in\n    tag_314:\n        /* \"#utility.yul\":3472:3538   */\n      swap1\n      pop\n        /* \"#utility.yul\":3402:3544   */\n      swap2\n      swap1\n      pop\n      jump\t// out\n        /* \"#utility.yul\":3550:3676   */\n    tag_257:\n        /* \"#utility.yul\":3600:3609   */\n      0x00\n        /* \"#utility.yul\":3633:3670   */\n      tag_318\n        /* \"#utility.yul\":3664:3669   */\n      dup3\n        /* \"#utility.yul\":3633:3670   */\n      tag_256\n      jump\t// in\n    tag_318:\n        /* \"#utility.yul\":3620:3670   */\n      swap1\n      pop\n        /* \"#utility.yul\":3550:3676   */\n      swap2\n      swap1\n      pop\n      jump\t// out\n        /* \"#utility.yul\":3682:3821   */\n    tag_258:\n        /* \"#utility.yul\":3745:3754   */\n      0x00\n        /* \"#utility.yul\":3778:3815   */\n      tag_320\n        /* \"#utility.yul\":3809:3814   */\n      dup3\n        /* \"#utility.yul\":3778:3815   */\n      tag_257\n      jump\t// in\n    tag_320:\n        /* \"#utility.yul\":3765:3815   */\n      swap1\n      pop\n        /* \"#utility.yul\":3682:3821   */\n      swap2\n      swap1\n      pop\n      jump\t// out\n        /* \"#utility.yul\":3827:3984   */\n    tag_259:\n        /* \"#utility.yul\":3927:3977   */\n      tag_322\n        /* \"#utility.yul\":3971:3976   */\n      dup2\n        /* \"#utility.yul\":3927:3977   */\n      tag_258\n      jump\t// in\n    tag_322:\n        /* \"#utility.yul\":3922:3925   */\n      dup3\n        /* \"#utility.yul\":3915:3978   */\n      mstore\n        /* \"#utility.yul\":3827:3984   */\n      pop\n      pop\n      jump\t// out\n        /* \"#utility.yul\":3990:4238   */\n    tag_87:\n        /* \"#utility.yul\":4096:4100   */\n      0x00\n        /* \"#utility.yul\":4134:4136   */\n      0x20\n        /* \"#utility.yul\":4123:4132   */\n      dup3\n        /* \"#utility.yul\":4119:4137   */\n      add\n        /* \"#utility.yul\":4111:4137   */\n      swap1\n      pop\n        /* \"#utility.yul\":4147:4231   */\n      tag_324\n        /* \"#utility.yul\":4228:4229   */\n      0x00\n        /* \"#utility.yul\":4217:4226   */\n      dup4\n        /* \"#utility.yul\":4213:4230   */\n      add\n        /* \"#utility.yul\":4204:4210   */\n      dup5\n        /* \"#utility.yul\":4147:4231   */\n      tag_259\n      jump\t// in\n    tag_324:\n        /* \"#utility.yul\":3990:4238   */\n      swap3\n      swap2\n      pop\n      pop\n      jump\t// out\n        /* \"#utility.yul\":4244:4576   */\n    tag_107:\n        /* \"#utility.yul\":4365:4369   */\n      0x00\n        /* \"#utility.yul\":4403:4405   */\n      0x40\n        /* \"#utility.yul\":4392:4401   */\n      dup3\n        /* \"#utility.yul\":4388:4406   */\n      add\n        /* \"#utility.yul\":4380:4406   */\n      swap1\n      pop\n        /* \"#utility.yul\":4416:4487   */\n      tag_326\n        /* \"#utility.yul\":4484:4485   */\n      0x00\n        /* \"#utility.yul\":4473:4482   */\n      dup4\n        /* \"#utility.yul\":4469:4486   */\n      add\n        /* \"#utility.yul\":4460:4466   */\n      dup6\n        /* \"#utility.yul\":4416:4487   */\n      tag_254\n      jump\t// in\n    tag_326:\n        /* \"#utility.yul\":4497:4569   */\n      tag_327\n        /* \"#utility.yul\":4565:4567   */\n      0x20\n        /* \"#utility.yul\":4554:4563   */\n      dup4\n        /* \"#utility.yul\":4550:4568   */\n      add\n        /* \"#utility.yul\":4541:4547   */\n      dup5\n        /* \"#utility.yul\":4497:4569   */\n      tag_249\n      jump\t// in\n    tag_327:\n        /* \"#utility.yul\":4244:4576   */\n      swap4\n      swap3\n      pop\n      pop\n      pop\n      jump\t// out\n        /* \"#utility.yul\":4582:4698   */\n    tag_260:\n        /* \"#utility.yul\":4652:4673   */\n      tag_329\n        /* \"#utility.yul\":4667:4672   */\n      dup2\n        /* \"#utility.yul\":4652:4673   */\n      tag_252\n      jump\t// in\n    tag_329:\n        /* \"#utility.yul\":4645:4650   */\n      dup2\n        /* \"#utility.yul\":4642:4674   */\n      eq\n        /* \"#utility.yul\":4632:4692   */\n      tag_330\n      jumpi\n        /* \"#utility.yul\":4688:4689   */\n      0x00\n        /* \"#utility.yul\":4685:4686   */\n      dup1\n        /* \"#utility.yul\":4678:4690   */\n      revert\n        /* \"#utility.yul\":4632:4692   */\n    tag_330:\n        /* \"#utility.yul\":4582:4698   */\n      pop\n      jump\t// out\n        /* \"#utility.yul\":4704:4841   */\n    tag_261:\n        /* \"#utility.yul\":4758:4763   */\n      0x00\n        /* \"#utility.yul\":4789:4795   */\n      dup2\n        /* \"#utility.yul\":4783:4796   */\n      mload\n        /* \"#utility.yul\":4774:4796   */\n      swap1\n      pop\n        /* \"#utility.yul\":4805:4835   */\n      tag_332\n        /* \"#utility.yul\":4829:4834   */\n      dup2\n        /* \"#utility.yul\":4805:4835   */\n      tag_260\n      jump\t// in\n    tag_332:\n        /* \"#utility.yul\":4704:4841   */\n      swap3\n      swap2\n      pop\n      pop\n      jump\t// out\n        /* \"#utility.yul\":4847:5192   */\n    tag_111:\n        /* \"#utility.yul\":4914:4920   */\n      0x00\n        /* \"#utility.yul\":4963:4965   */\n      0x20\n        /* \"#utility.yul\":4951:4960   */\n      dup3\n        /* \"#utility.yul\":4942:4949   */\n      dup5\n        /* \"#utility.yul\":4938:4961   */\n      sub\n        /* \"#utility.yul\":4934:4966   */\n      slt\n        /* \"#utility.yul\":4931:5050   */\n      iszero\n      tag_334\n      jumpi\n        /* \"#utility.yul\":4969:5048   */\n      tag_335\n      tag_242\n      jump\t// in\n    tag_335:\n        /* \"#utility.yul\":4931:5050   */\n    tag_334:\n        /* \"#utility.yul\":5089:5090   */\n      0x00\n        /* \"#utility.yul\":5114:5175   */\n      tag_336\n        /* \"#utility.yul\":5167:5174   */\n      dup5\n        /* \"#utility.yul\":5158:5164   */\n      dup3\n        /* \"#utility.yul\":5147:5156   */\n      dup6\n        /* \"#utility.yul\":5143:5165   */\n      add\n        /* \"#utility.yul\":5114:5175   */\n      tag_261\n      jump\t// in\n    tag_336:\n        /* \"#utility.yul\":5104:5175   */\n      swap2\n      pop\n        /* \"#utility.yul\":5060:5185   */\n      pop\n        /* \"#utility.yul\":4847:5192   */\n      swap3\n      swap2\n      pop\n      pop\n      jump\t// out\n        /* \"#utility.yul\":5198:5367   */\n    tag_262:\n        /* \"#utility.yul\":5282:5293   */\n      0x00\n        /* \"#utility.yul\":5316:5322   */\n      dup3\n        /* \"#utility.yul\":5311:5314   */\n      dup3\n        /* \"#utility.yul\":5304:5323   */\n      mstore\n        /* \"#utility.yul\":5356:5360   */\n      0x20\n        /* \"#utility.yul\":5351:5354   */\n      dup3\n        /* \"#utility.yul\":5347:5361   */\n      add\n        /* \"#utility.yul\":5332:5361   */\n      swap1\n      pop\n        /* \"#utility.yul\":5198:5367   */\n      swap3\n      swap2\n      pop\n      pop\n      jump\t// out\n        /* \"#utility.yul\":5373:5593   */\n    tag_263:\n        /* \"#utility.yul\":5513:5547   */\n      0x436f6c6c61746572616c4d616e616765723a20496e76616c696420616d6f756e\n        /* \"#utility.yul\":5509:5510   */\n      0x00\n        /* \"#utility.yul\":5501:5507   */\n      dup3\n        /* \"#utility.yul\":5497:5511   */\n      add\n        /* \"#utility.yul\":5490:5548   */\n      mstore\n        /* \"#utility.yul\":5582:5585   */\n      0x7400000000000000000000000000000000000000000000000000000000000000\n        /* \"#utility.yul\":5577:5579   */\n      0x20\n        /* \"#utility.yul\":5569:5575   */\n      dup3\n        /* \"#utility.yul\":5565:5580   */\n      add\n        /* \"#utility.yul\":5558:5586   */\n      mstore\n        /* \"#utility.yul\":5373:5593   */\n      pop\n      jump\t// out\n        /* \"#utility.yul\":5599:5965   */\n    tag_264:\n        /* \"#utility.yul\":5741:5744   */\n      0x00\n        /* \"#utility.yul\":5762:5829   */\n      tag_340\n        /* \"#utility.yul\":5826:5828   */\n      0x21\n        /* \"#utility.yul\":5821:5824   */\n      dup4\n        /* \"#utility.yul\":5762:5829   */\n      tag_262\n      jump\t// in\n    tag_340:\n        /* \"#utility.yul\":5755:5829   */\n      swap2\n      pop\n        /* \"#utility.yul\":5838:5931   */\n      tag_341\n        /* \"#utility.yul\":5927:5930   */\n      dup3\n        /* \"#utility.yul\":5838:5931   */\n      tag_263\n      jump\t// in\n    tag_341:\n        /* \"#utility.yul\":5956:5958   */\n      0x40\n        /* \"#utility.yul\":5951:5954   */\n      dup3\n        /* \"#utility.yul\":5947:5959   */\n      add\n        /* \"#utility.yul\":5940:5959   */\n      swap1\n      pop\n        /* \"#utility.yul\":5599:5965   */\n      swap2\n      swap1\n      pop\n      jump\t// out\n        /* \"#utility.yul\":5971:6390   */\n    tag_127:\n        /* \"#utility.yul\":6137:6141   */\n      0x00\n        /* \"#utility.yul\":6175:6177   */\n      0x20\n        /* \"#utility.yul\":6164:6173   */\n      dup3\n        /* \"#utility.yul\":6160:6178   */\n      add\n        /* \"#utility.yul\":6152:6178   */\n      swap1\n      pop\n        /* \"#utility.yul\":6224:6233   */\n      dup2\n        /* \"#utility.yul\":6218:6222   */\n      dup2\n        /* \"#utility.yul\":6214:6234   */\n      sub\n        /* \"#utility.yul\":6210:6211   */\n      0x00\n        /* \"#utility.yul\":6199:6208   */\n      dup4\n        /* \"#utility.yul\":6195:6212   */\n      add\n        /* \"#utility.yul\":6188:6235   */\n      mstore\n        /* \"#utility.yul\":6252:6383   */\n      tag_343\n        /* \"#utility.yul\":6378:6382   */\n      dup2\n        /* \"#utility.yul\":6252:6383   */\n      tag_264\n      jump\t// in\n    tag_343:\n        /* \"#utility.yul\":6244:6383   */\n      swap1\n      pop\n        /* \"#utility.yul\":5971:6390   */\n      swap2\n      swap1\n      pop\n      jump\t// out\n        /* \"#utility.yul\":6396:6838   */\n    tag_129:\n        /* \"#utility.yul\":6545:6549   */\n      0x00\n        /* \"#utility.yul\":6583:6585   */\n      0x60\n        /* \"#utility.yul\":6572:6581   */\n      dup3\n        /* \"#utility.yul\":6568:6586   */\n      add\n        /* \"#utility.yul\":6560:6586   */\n      swap1\n      pop\n        /* \"#utility.yul\":6596:6667   */\n      tag_345\n        /* \"#utility.yul\":6664:6665   */\n      0x00\n        /* \"#utility.yul\":6653:6662   */\n      dup4\n        /* \"#utility.yul\":6649:6666   */\n      add\n        /* \"#utility.yul\":6640:6646   */\n      dup7\n        /* \"#utility.yul\":6596:6667   */\n      tag_254\n      jump\t// in\n    tag_345:\n        /* \"#utility.yul\":6677:6749   */\n      tag_346\n        /* \"#utility.yul\":6745:6747   */\n      0x20\n        /* \"#utility.yul\":6734:6743   */\n      dup4\n        /* \"#utility.yul\":6730:6748   */\n      add\n        /* \"#utility.yul\":6721:6727   */\n      dup6\n        /* \"#utility.yul\":6677:6749   */\n      tag_254\n      jump\t// in\n    tag_346:\n        /* \"#utility.yul\":6759:6831   */\n      tag_347\n        /* \"#utility.yul\":6827:6829   */\n      0x40\n        /* \"#utility.yul\":6816:6825   */\n      dup4\n        /* \"#utility.yul\":6812:6830   */\n      add\n        /* \"#utility.yul\":6803:6809   */\n      dup5\n        /* \"#utility.yul\":6759:6831   */\n      tag_249\n      jump\t// in\n    tag_347:\n        /* \"#utility.yul\":6396:6838   */\n      swap5\n      swap4\n      pop\n      pop\n      pop\n      pop\n      jump\t// out\n        /* \"#utility.yul\":6844:7065   */\n    tag_265:\n        /* \"#utility.yul\":6984:7018   */\n      0x436f6c6c61746572616c4d616e616765723a205472616e73666572206661696c\n        /* \"#utility.yul\":6980:6981   */\n      0x00\n        /* \"#utility.yul\":6972:6978   */\n      dup3\n        /* \"#utility.yul\":6968:6982   */\n      add\n        /* \"#utility.yul\":6961:7019   */\n      mstore\n        /* \"#utility.yul\":7053:7057   */\n      0x6564000000000000000000000000000000000000000000000000000000000000\n        /* \"#utility.yul\":7048:7050   */\n      0x20\n        /* \"#utility.yul\":7040:7046   */\n      dup3\n        /* \"#utility.yul\":7036:7051   */\n      add\n        /* \"#utility.yul\":7029:7058   */\n      mstore\n        /* \"#utility.yul\":6844:7065   */\n      pop\n      jump\t// out\n        /* \"#utility.yul\":7071:7437   */\n    tag_266:\n        /* \"#utility.yul\":7213:7216   */\n      0x00\n        /* \"#utility.yul\":7234:7301   */\n      tag_350\n        /* \"#utility.yul\":7298:7300   */\n      0x22\n        /* \"#utility.yul\":7293:7296   */\n      dup4\n        /* \"#utility.yul\":7234:7301   */\n      tag_262\n      jump\t// in\n    tag_350:\n        /* \"#utility.yul\":7227:7301   */\n      swap2\n      pop\n        /* \"#utility.yul\":7310:7403   */\n      tag_351\n        /* \"#utility.yul\":7399:7402   */\n      dup3\n        /* \"#utility.yul\":7310:7403   */\n      tag_265\n      jump\t// in\n    tag_351:\n        /* \"#utility.yul\":7428:7430   */\n      0x40\n        /* \"#utility.yul\":7423:7426   */\n      dup3\n        /* \"#utility.yul\":7419:7431   */\n      add\n        /* \"#utility.yul\":7412:7431   */\n      swap1\n      pop\n        /* \"#utility.yul\":7071:7437   */\n      swap2\n      swap1\n      pop\n      jump\t// out\n        /* \"#utility.yul\":7443:7862   */\n    tag_135:\n        /* \"#utility.yul\":7609:7613   */\n      0x00\n        /* \"#utility.yul\":7647:7649   */\n      0x20\n        /* \"#utility.yul\":7636:7645   */\n      dup3\n        /* \"#utility.yul\":7632:7650   */\n      add\n        /* \"#utility.yul\":7624:7650   */\n      swap1\n      pop\n        /* \"#utility.yul\":7696:7705   */\n      dup2\n        /* \"#utility.yul\":7690:7694   */\n      dup2\n        /* \"#utility.yul\":7686:7706   */\n      sub\n        /* \"#utility.yul\":7682:7683   */\n      0x00\n        /* \"#utility.yul\":7671:7680   */\n      dup4\n        /* \"#utility.yul\":7667:7684   */\n      add\n        /* \"#utility.yul\":7660:7707   */\n      mstore\n        /* \"#utility.yul\":7724:7855   */\n      tag_353\n        /* \"#utility.yul\":7850:7854   */\n      dup2\n        /* \"#utility.yul\":7724:7855   */\n      tag_266\n      jump\t// in\n    tag_353:\n        /* \"#utility.yul\":7716:7855   */\n      swap1\n      pop\n        /* \"#utility.yul\":7443:7862   */\n      swap2\n      swap1\n      pop\n      jump\t// out\n        /* \"#utility.yul\":7868:8048   */\n    tag_267:\n        /* \"#utility.yul\":7916:7993   */\n      0x4e487b7100000000000000000000000000000000000000000000000000000000\n        /* \"#utility.yul\":7913:7914   */\n      0x00\n        /* \"#utility.yul\":7906:7994   */\n      mstore\n        /* \"#utility.yul\":8013:8017   */\n      0x11\n        /* \"#utility.yul\":8010:8011   */\n      0x04\n        /* \"#utility.yul\":8003:8018   */\n      mstore\n        /* \"#utility.yul\":8037:8041   */\n      0x24\n        /* \"#utility.yul\":8034:8035   */\n      0x00\n        /* \"#utility.yul\":8027:8042   */\n      revert\n        /* \"#utility.yul\":8054:8245   */\n    tag_137:\n        /* \"#utility.yul\":8094:8097   */\n      0x00\n        /* \"#utility.yul\":8113:8133   */\n      tag_356\n        /* \"#utility.yul\":8131:8132   */\n      dup3\n        /* \"#utility.yul\":8113:8133   */\n      tag_248\n      jump\t// in\n    tag_356:\n        /* \"#utility.yul\":8108:8133   */\n      swap2\n      pop\n        /* \"#utility.yul\":8147:8167   */\n      tag_357\n        /* \"#utility.yul\":8165:8166   */\n      dup4\n        /* \"#utility.yul\":8147:8167   */\n      tag_248\n      jump\t// in\n    tag_357:\n        /* \"#utility.yul\":8142:8167   */\n      swap3\n      pop\n        /* \"#utility.yul\":8190:8191   */\n      dup3\n        /* \"#utility.yul\":8187:8188   */\n      dup3\n        /* \"#utility.yul\":8183:8192   */\n      add\n        /* \"#utility.yul\":8176:8192   */\n      swap1\n      pop\n        /* \"#utility.yul\":8211:8214   */\n      dup1\n        /* \"#utility.yul\":8208:8209   */\n      dup3\n        /* \"#utility.yul\":8205:8215   */\n      gt\n        /* \"#utility.yul\":8202:8238   */\n      iszero\n      tag_358\n      jumpi\n        /* \"#utility.yul\":8218:8236   */\n      tag_359\n      tag_267\n      jump\t// in\n    tag_359:\n        /* \"#utility.yul\":8202:8238   */\n    tag_358:\n        /* \"#utility.yul\":8054:8245   */\n      swap3\n      swap2\n      pop\n      pop\n      jump\t// out\n        /* \"#utility.yul\":8251:8477   */\n    tag_268:\n        /* \"#utility.yul\":8391:8425   */\n      0x436f6c6c61746572616c4d616e616765723a20496e73756666696369656e7420\n        /* \"#utility.yul\":8387:8388   */\n      0x00\n        /* \"#utility.yul\":8379:8385   */\n      dup3\n        /* \"#utility.yul\":8375:8389   */\n      add\n        /* \"#utility.yul\":8368:8426   */\n      mstore\n        /* \"#utility.yul\":8460:8469   */\n      0x62616c616e636500000000000000000000000000000000000000000000000000\n        /* \"#utility.yul\":8455:8457   */\n      0x20\n        /* \"#utility.yul\":8447:8453   */\n      dup3\n        /* \"#utility.yul\":8443:8458   */\n      add\n        /* \"#utility.yul\":8436:8470   */\n      mstore\n        /* \"#utility.yul\":8251:8477   */\n      pop\n      jump\t// out\n        /* \"#utility.yul\":8483:8849   */\n    tag_269:\n        /* \"#utility.yul\":8625:8628   */\n      0x00\n        /* \"#utility.yul\":8646:8713   */\n      tag_362\n        /* \"#utility.yul\":8710:8712   */\n      0x27\n        /* \"#utility.yul\":8705:8708   */\n      dup4\n        /* \"#utility.yul\":8646:8713   */\n      tag_262\n      jump\t// in\n    tag_362:\n        /* \"#utility.yul\":8639:8713   */\n      swap2\n      pop\n        /* \"#utility.yul\":8722:8815   */\n      tag_363\n        /* \"#utility.yul\":8811:8814   */\n      dup3\n        /* \"#utility.yul\":8722:8815   */\n      tag_268\n      jump\t// in\n    tag_363:\n        /* \"#utility.yul\":8840:8842   */\n      0x40\n        /* \"#utility.yul\":8835:8838   */\n      dup3\n        /* \"#utility.yul\":8831:8843   */\n      add\n        /* \"#utility.yul\":8824:8843   */\n      swap1\n      pop\n        /* \"#utility.yul\":8483:8849   */\n      swap2\n      swap1\n      pop\n      jump\t// out\n        /* \"#utility.yul\":8855:9274   */\n    tag_179:\n        /* \"#utility.yul\":9021:9025   */\n      0x00\n        /* \"#utility.yul\":9059:9061   */\n      0x20\n        /* \"#utility.yul\":9048:9057   */\n      dup3\n        /* \"#utility.yul\":9044:9062   */\n      add\n        /* \"#utility.yul\":9036:9062   */\n      swap1\n      pop\n        /* \"#utility.yul\":9108:9117   */\n      dup2\n        /* \"#utility.yul\":9102:9106   */\n      dup2\n        /* \"#utility.yul\":9098:9118   */\n      sub\n        /* \"#utility.yul\":9094:9095   */\n      0x00\n        /* \"#utility.yul\":9083:9092   */\n      dup4\n        /* \"#utility.yul\":9079:9096   */\n      add\n        /* \"#utility.yul\":9072:9119   */\n      mstore\n        /* \"#utility.yul\":9136:9267   */\n      tag_365\n        /* \"#utility.yul\":9262:9266   */\n      dup2\n        /* \"#utility.yul\":9136:9267   */\n      tag_269\n      jump\t// in\n    tag_365:\n        /* \"#utility.yul\":9128:9267   */\n      swap1\n      pop\n        /* \"#utility.yul\":8855:9274   */\n      swap2\n      swap1\n      pop\n      jump\t// out\n        /* \"#utility.yul\":9280:9474   */\n    tag_181:\n        /* \"#utility.yul\":9320:9324   */\n      0x00\n        /* \"#utility.yul\":9340:9360   */\n      tag_367\n        /* \"#utility.yul\":9358:9359   */\n      dup3\n        /* \"#utility.yul\":9340:9360   */\n      tag_248\n      jump\t// in\n    tag_367:\n        /* \"#utility.yul\":9335:9360   */\n      swap2\n      pop\n        /* \"#utility.yul\":9374:9394   */\n      tag_368\n        /* \"#utility.yul\":9392:9393   */\n      dup4\n        /* \"#utility.yul\":9374:9394   */\n      tag_248\n      jump\t// in\n    tag_368:\n        /* \"#utility.yul\":9369:9394   */\n      swap3\n      pop\n        /* \"#utility.yul\":9418:9419   */\n      dup3\n        /* \"#utility.yul\":9415:9416   */\n      dup3\n        /* \"#utility.yul\":9411:9420   */\n      sub\n        /* \"#utility.yul\":9403:9420   */\n      swap1\n      pop\n        /* \"#utility.yul\":9442:9443   */\n      dup2\n        /* \"#utility.yul\":9436:9440   */\n      dup2\n        /* \"#utility.yul\":9433:9444   */\n      gt\n        /* \"#utility.yul\":9430:9467   */\n      iszero\n      tag_369\n      jumpi\n        /* \"#utility.yul\":9447:9465   */\n      tag_370\n      tag_267\n      jump\t// in\n    tag_370:\n        /* \"#utility.yul\":9430:9467   */\n    tag_369:\n        /* \"#utility.yul\":9280:9474   */\n      swap3\n      swap2\n      pop\n      pop\n      jump\t// out\n\n    auxdata: 0xa2646970667358221220642d8fd9b18a50b0ede8722971816e063c6e628ca6a25cc29bb63d67848512b864736f6c634300081a0033\n}\n",
				"bytecode": {
					"linkReferences": {},
					"object": "608060405234801561000f575f80fd5b50604051611a46380380611a4683398181016040528101906100319190610249565b3360015f819055505f60015f6101000a81548160ff0219169083151502179055505f73ffffffffffffffffffffffffffffffffffffffff168173ffffffffffffffffffffffffffffffffffffffff16036100c2575f6040517f1e4fbdf70000000000000000000000000000000000000000000000000000000081526004016100b99190610283565b60405180910390fd5b6100d18161011860201b60201c565b508060025f6101000a81548173ffffffffffffffffffffffffffffffffffffffff021916908373ffffffffffffffffffffffffffffffffffffffff1602179055505061029c565b5f60018054906101000a900473ffffffffffffffffffffffffffffffffffffffff169050816001806101000a81548173ffffffffffffffffffffffffffffffffffffffff021916908373ffffffffffffffffffffffffffffffffffffffff1602179055508173ffffffffffffffffffffffffffffffffffffffff168173ffffffffffffffffffffffffffffffffffffffff167f8be0079c531659141344cd1fd0a4f28419497f9722a3daafe3b4186f6b6457e060405160405180910390a35050565b5f80fd5b5f73ffffffffffffffffffffffffffffffffffffffff82169050919050565b5f610207826101de565b9050919050565b5f610218826101fd565b9050919050565b6102288161020e565b8114610232575f80fd5b50565b5f815190506102438161021f565b92915050565b5f6020828403121561025e5761025d6101da565b5b5f61026b84828501610235565b91505092915050565b61027d816101fd565b82525050565b5f6020820190506102965f830184610274565b92915050565b61179d806102a95f395ff3fe608060405260043610610108575f3560e01c8063715018a611610094578063da18e61011610063578063da18e61014610303578063ef4c61bf1461032b578063f2fde38b14610355578063f6da3c901461037d578063f813e6ab146103a557610108565b8063715018a614610283578063836e35c8146102995780638456cb59146102c35780638da5cb5b146102d957610108565b80632703ee85116100db5780632703ee85146101d457806331be0e0e146102115780633f4ba83a146102395780635b96a6ec1461024f5780635c975abb1461025957610108565b8063192e7a7b1461010c5780631fea5a6b14610134578063254eb80b1461015c57806326c62f9014610198575b5f80fd5b348015610117575f80fd5b50610132600480360381019061012d91906112c2565b6103cf565b005b34801561013f575f80fd5b5061015a600480360381019061015591906112c2565b6105c1565b005b348015610167575f80fd5b50610182600480360381019061017d91906112c2565b610658565b60405161018f9190611305565b60405180910390f35b3480156101a3575f80fd5b506101be60048036038101906101b991906112c2565b61066d565b6040516101cb9190611305565b60405180910390f35b3480156101df575f80fd5b506101fa60048036038101906101f591906112c2565b610682565b60405161020892919061131e565b60405180910390f35b34801561021c575f80fd5b506102376004803603810190610232919061136f565b610709565b005b348015610244575f80fd5b5061024d6108fc565b005b61025761090e565b005b348015610264575f80fd5b5061026d610a23565b60405161027a91906113b4565b60405180910390f35b34801561028e575f80fd5b50610297610a38565b005b3480156102a4575f80fd5b506102ad610a4b565b6040516102ba9190611305565b60405180910390f35b3480156102ce575f80fd5b506102d7610a51565b005b3480156102e4575f80fd5b506102ed610a63565b6040516102fa91906113dc565b60405180910390f35b34801561030e575f80fd5b506103296004803603810190610324919061136f565b610a8a565b005b348015610336575f80fd5b5061033f610cfb565b60405161034c9190611450565b60405180910390f35b348015610360575f80fd5b5061037b600480360381019061037691906112c2565b610d20565b005b348015610388575f80fd5b506103a3600480360381019061039e919061136f565b610da4565b005b3480156103b0575f80fd5b506103b9610f7e565b6040516103c69190611305565b60405180910390f35b6103d7610f84565b8073ffffffffffffffffffffffffffffffffffffffff166108fc60065f8473ffffffffffffffffffffffffffffffffffffffff1673ffffffffffffffffffffffffffffffffffffffff1681526020019081526020015f205490811502906040515f60405180830381858888f19350505050158015610457573d5f803e3d5ffd5b5060025f9054906101000a900473ffffffffffffffffffffffffffffffffffffffff1673ffffffffffffffffffffffffffffffffffffffff1663a9059cbb8260065f8573ffffffffffffffffffffffffffffffffffffffff1673ffffffffffffffffffffffffffffffffffffffff1681526020019081526020015f20546040518363ffffffff1660e01b81526004016104f1929190611469565b6020604051808303815f875af115801561050d573d5f803e3d5ffd5b505050506040513d601f19601f8201168201806040525081019061053191906114ba565b505f60055f8373ffffffffffffffffffffffffffffffffffffffff1673ffffffffffffffffffffffffffffffffffffffff1681526020019081526020015f20819055505f60065f8373ffffffffffffffffffffffffffffffffffffffff1673ffffffffffffffffffffffffffffffffffffffff1681526020019081526020015f20819055506105be610fc8565b50565b6105c9610f84565b5f60055f8373ffffffffffffffffffffffffffffffffffffffff1673ffffffffffffffffffffffffffffffffffffffff1681526020019081526020015f20819055505f60065f8373ffffffffffffffffffffffffffffffffffffffff1673ffffffffffffffffffffffffffffffffffffffff1681526020019081526020015f2081905550610655610fc8565b50565b6005602052805f5260405f205f915090505481565b6006602052805f5260405f205f915090505481565b5f8060055f8473ffffffffffffffffffffffffffffffffffffffff1673ffffffffffffffffffffffffffffffffffffffff1681526020019081526020015f205460065f8573ffffffffffffffffffffffffffffffffffffffff1673ffffffffffffffffffffffffffffffffffffffff1681526020019081526020015f205491509150915091565b610711610f84565b610719610fd1565b5f811161075b576040517f08c379a000000000000000000000000000000000000000000000000000000000815260040161075290611565565b60405180910390fd5b60025f9054906101000a900473ffffffffffffffffffffffffffffffffffffffff1673ffffffffffffffffffffffffffffffffffffffff166323b872dd3330846040518463ffffffff1660e01b81526004016107b993929190611583565b6020604051808303815f875af11580156107d5573d5f803e3d5ffd5b505050506040513d601f19601f820116820180604052508101906107f991906114ba565b610838576040517f08c379a000000000000000000000000000000000000000000000000000000000815260040161082f90611628565b60405180910390fd5b8060065f3373ffffffffffffffffffffffffffffffffffffffff1673ffffffffffffffffffffffffffffffffffffffff1681526020019081526020015f205f8282546108849190611673565b925050819055508060045f82825461089c9190611673565b925050819055503373ffffffffffffffffffffffffffffffffffffffff167f72bcd92218a56686cd2892adc5b472dd4e131f58ba98e7a05a28b34ca44be5d3826040516108e99190611305565b60405180910390a26108f9610fc8565b50565b610904611012565b61090c611099565b565b610916610f84565b61091e610fd1565b5f3411610960576040517f08c379a000000000000000000000000000000000000000000000000000000000815260040161095790611565565b60405180910390fd5b3460055f3373ffffffffffffffffffffffffffffffffffffffff1673ffffffffffffffffffffffffffffffffffffffff1681526020019081526020015f205f8282546109ac9190611673565b925050819055503460035f8282546109c49190611673565b925050819055503373ffffffffffffffffffffffffffffffffffffffff167f3794d262e1e5b79ac3e163e91538650a7a79c67a2550892fa4b9001797fc075e34604051610a119190611305565b60405180910390a2610a21610fc8565b565b5f60015f9054906101000a900460ff16905090565b610a40611012565b610a495f6110fa565b565b60035481565b610a59611012565b610a616111bc565b565b5f60018054906101000a900473ffffffffffffffffffffffffffffffffffffffff16905090565b610a92610f84565b610a9a610fd1565b5f8111610adc576040517f08c379a0000000000000000000000000000000000000000000000000000000008152600401610ad390611565565b60405180910390fd5b8060065f3373ffffffffffffffffffffffffffffffffffffffff1673ffffffffffffffffffffffffffffffffffffffff1681526020019081526020015f20541015610b5c576040517f08c379a0000000000000000000000000000000000000000000000000000000008152600401610b5390611716565b60405180910390fd5b8060065f3373ffffffffffffffffffffffffffffffffffffffff1673ffffffffffffffffffffffffffffffffffffffff1681526020019081526020015f205f828254610ba89190611734565b925050819055508060045f828254610bc09190611734565b9250508190555060025f9054906101000a900473ffffffffffffffffffffffffffffffffffffffff1673ffffffffffffffffffffffffffffffffffffffff1663a9059cbb33836040518363ffffffff1660e01b8152600401610c23929190611469565b6020604051808303815f875af1158015610c3f573d5f803e3d5ffd5b505050506040513d601f19601f82011682018060405250810190610c6391906114ba565b610ca2576040517f08c379a0000000000000000000000000000000000000000000000000000000008152600401610c9990611628565b60405180910390fd5b3373ffffffffffffffffffffffffffffffffffffffff167fc0c38a768e4dc449a238498e0e4efe579f69439b116d0318f3c81f15da6e713c82604051610ce89190611305565b60405180910390a2610cf8610fc8565b50565b60025f9054906101000a900473ffffffffffffffffffffffffffffffffffffffff1681565b610d28611012565b5f73ffffffffffffffffffffffffffffffffffffffff168173ffffffffffffffffffffffffffffffffffffffff1603610d98575f6040517f1e4fbdf7000000000000000000000000000000000000000000000000000000008152600401610d8f91906113dc565b60405180910390fd5b610da1816110fa565b50565b610dac610f84565b610db4610fd1565b5f8111610df6576040517f08c379a0000000000000000000000000000000000000000000000000000000008152600401610ded90611565565b60405180910390fd5b8060055f3373ffffffffffffffffffffffffffffffffffffffff1673ffffffffffffffffffffffffffffffffffffffff1681526020019081526020015f20541015610e76576040517f08c379a0000000000000000000000000000000000000000000000000000000008152600401610e6d90611716565b60405180910390fd5b8060055f3373ffffffffffffffffffffffffffffffffffffffff1673ffffffffffffffffffffffffffffffffffffffff1681526020019081526020015f205f828254610ec29190611734565b925050819055508060035f828254610eda9190611734565b925050819055503373ffffffffffffffffffffffffffffffffffffffff166108fc8290811502906040515f60405180830381858888f19350505050158015610f24573d5f803e3d5ffd5b503373ffffffffffffffffffffffffffffffffffffffff167ff9634b89b07bf077bf6370d579cb9349c0086163079c1bdd6976c54098f2f90382604051610f6b9190611305565b60405180910390a2610f7b610fc8565b50565b60045481565b60025f5403610fbf576040517f3ee5aeb500000000000000000000000000000000000000000000000000000000815260040160405180910390fd5b60025f81905550565b60015f81905550565b610fd9610a23565b15611010576040517fd93c066500000000000000000000000000000000000000000000000000000000815260040160405180910390fd5b565b61101a61121d565b73ffffffffffffffffffffffffffffffffffffffff16611038610a63565b73ffffffffffffffffffffffffffffffffffffffff16146110975761105b61121d565b6040517f118cdaa700000000000000000000000000000000000000000000000000000000815260040161108e91906113dc565b60405180910390fd5b565b6110a1611224565b5f60015f6101000a81548160ff0219169083151502179055507f5db9ee0a495bf2e6ff9c91a7834c1ba4fdd244a5e8aa4e537bd38aeae4b073aa6110e361121d565b6040516110f091906113dc565b60405180910390a1565b5f60018054906101000a900473ffffffffffffffffffffffffffffffffffffffff169050816001806101000a81548173ffffffffffffffffffffffffffffffffffffffff021916908373ffffffffffffffffffffffffffffffffffffffff1602179055508173ffffffffffffffffffffffffffffffffffffffff168173ffffffffffffffffffffffffffffffffffffffff167f8be0079c531659141344cd1fd0a4f28419497f9722a3daafe3b4186f6b6457e060405160405180910390a35050565b6111c4610fd1565b6001805f6101000a81548160ff0219169083151502179055507f62e78cea01bee320cd4e420270b5ea74000d11b0c9f74754ebdbfc544b05a25861120661121d565b60405161121391906113dc565b60405180910390a1565b5f33905090565b61122c610a23565b611262576040517f8dfc202b00000000000000000000000000000000000000000000000000000000815260040160405180910390fd5b565b5f80fd5b5f73ffffffffffffffffffffffffffffffffffffffff82169050919050565b5f61129182611268565b9050919050565b6112a181611287565b81146112ab575f80fd5b50565b5f813590506112bc81611298565b92915050565b5f602082840312156112d7576112d6611264565b5b5f6112e4848285016112ae565b91505092915050565b5f819050919050565b6112ff816112ed565b82525050565b5f6020820190506113185f8301846112f6565b92915050565b5f6040820190506113315f8301856112f6565b61133e60208301846112f6565b9392505050565b61134e816112ed565b8114611358575f80fd5b50565b5f8135905061136981611345565b92915050565b5f6020828403121561138457611383611264565b5b5f6113918482850161135b565b91505092915050565b5f8115159050919050565b6113ae8161139a565b82525050565b5f6020820190506113c75f8301846113a5565b92915050565b6113d681611287565b82525050565b5f6020820190506113ef5f8301846113cd565b92915050565b5f819050919050565b5f61141861141361140e84611268565b6113f5565b611268565b9050919050565b5f611429826113fe565b9050919050565b5f61143a8261141f565b9050919050565b61144a81611430565b82525050565b5f6020820190506114635f830184611441565b92915050565b5f60408201905061147c5f8301856113cd565b61148960208301846112f6565b9392505050565b6114998161139a565b81146114a3575f80fd5b50565b5f815190506114b481611490565b92915050565b5f602082840312156114cf576114ce611264565b5b5f6114dc848285016114a6565b91505092915050565b5f82825260208201905092915050565b7f436f6c6c61746572616c4d616e616765723a20496e76616c696420616d6f756e5f8201527f7400000000000000000000000000000000000000000000000000000000000000602082015250565b5f61154f6021836114e5565b915061155a826114f5565b604082019050919050565b5f6020820190508181035f83015261157c81611543565b9050919050565b5f6060820190506115965f8301866113cd565b6115a360208301856113cd565b6115b060408301846112f6565b949350505050565b7f436f6c6c61746572616c4d616e616765723a205472616e73666572206661696c5f8201527f6564000000000000000000000000000000000000000000000000000000000000602082015250565b5f6116126022836114e5565b915061161d826115b8565b604082019050919050565b5f6020820190508181035f83015261163f81611606565b9050919050565b7f4e487b71000000000000000000000000000000000000000000000000000000005f52601160045260245ffd5b5f61167d826112ed565b9150611688836112ed565b92508282019050808211156116a05761169f611646565b5b92915050565b7f436f6c6c61746572616c4d616e616765723a20496e73756666696369656e74205f8201527f62616c616e636500000000000000000000000000000000000000000000000000602082015250565b5f6117006027836114e5565b915061170b826116a6565b604082019050919050565b5f6020820190508181035f83015261172d816116f4565b9050919050565b5f61173e826112ed565b9150611749836112ed565b925082820390508181111561176157611760611646565b5b9291505056fea2646970667358221220642d8fd9b18a50b0ede8722971816e063c6e628ca6a25cc29bb63d67848512b864736f6c634300081a0033",
					"opcodes": "PUSH1 0x80 PUSH1 0x40 MSTORE CALLVALUE DUP1 ISZERO PUSH2 0xF JUMPI PUSH0 DUP1 REVERT JUMPDEST POP PUSH1 0x40 MLOAD PUSH2 0x1A46 CODESIZE SUB DUP1 PUSH2 0x1A46 DUP4 CODECOPY DUP2 DUP2 ADD PUSH1 0x40 MSTORE DUP2 ADD SWAP1 PUSH2 0x31 SWAP2 SWAP1 PUSH2 0x249 JUMP JUMPDEST CALLER PUSH1 0x1 PUSH0 DUP2 SWAP1 SSTORE POP PUSH0 PUSH1 0x1 PUSH0 PUSH2 0x100 EXP DUP2 SLOAD DUP2 PUSH1 0xFF MUL NOT AND SWAP1 DUP4 ISZERO ISZERO MUL OR SWAP1 SSTORE POP PUSH0 PUSH20 0xFFFFFFFFFFFFFFFFFFFFFFFFFFFFFFFFFFFFFFFF AND DUP2 PUSH20 0xFFFFFFFFFFFFFFFFFFFFFFFFFFFFFFFFFFFFFFFF AND SUB PUSH2 0xC2 JUMPI PUSH0 PUSH1 0x40 MLOAD PUSH32 0x1E4FBDF700000000000000000000000000000000000000000000000000000000 DUP2 MSTORE PUSH1 0x4 ADD PUSH2 0xB9 SWAP2 SWAP1 PUSH2 0x283 JUMP JUMPDEST PUSH1 0x40 MLOAD DUP1 SWAP2 SUB SWAP1 REVERT JUMPDEST PUSH2 0xD1 DUP2 PUSH2 0x118 PUSH1 0x20 SHL PUSH1 0x20 SHR JUMP JUMPDEST POP DUP1 PUSH1 0x2 PUSH0 PUSH2 0x100 EXP DUP2 SLOAD DUP2 PUSH20 0xFFFFFFFFFFFFFFFFFFFFFFFFFFFFFFFFFFFFFFFF MUL NOT AND SWAP1 DUP4 PUSH20 0xFFFFFFFFFFFFFFFFFFFFFFFFFFFFFFFFFFFFFFFF AND MUL OR SWAP1 SSTORE POP POP PUSH2 0x29C JUMP JUMPDEST PUSH0 PUSH1 0x1 DUP1 SLOAD SWAP1 PUSH2 0x100 EXP SWAP1 DIV PUSH20 0xFFFFFFFFFFFFFFFFFFFFFFFFFFFFFFFFFFFFFFFF AND SWAP1 POP DUP2 PUSH1 0x1 DUP1 PUSH2 0x100 EXP DUP2 SLOAD DUP2 PUSH20 0xFFFFFFFFFFFFFFFFFFFFFFFFFFFFFFFFFFFFFFFF MUL NOT AND SWAP1 DUP4 PUSH20 0xFFFFFFFFFFFFFFFFFFFFFFFFFFFFFFFFFFFFFFFF AND MUL OR SWAP1 SSTORE POP DUP2 PUSH20 0xFFFFFFFFFFFFFFFFFFFFFFFFFFFFFFFFFFFFFFFF AND DUP2 PUSH20 0xFFFFFFFFFFFFFFFFFFFFFFFFFFFFFFFFFFFFFFFF AND PUSH32 0x8BE0079C531659141344CD1FD0A4F28419497F9722A3DAAFE3B4186F6B6457E0 PUSH1 0x40 MLOAD PUSH1 0x40 MLOAD DUP1 SWAP2 SUB SWAP1 LOG3 POP POP JUMP JUMPDEST PUSH0 DUP1 REVERT JUMPDEST PUSH0 PUSH20 0xFFFFFFFFFFFFFFFFFFFFFFFFFFFFFFFFFFFFFFFF DUP3 AND SWAP1 POP SWAP2 SWAP1 POP JUMP JUMPDEST PUSH0 PUSH2 0x207 DUP3 PUSH2 0x1DE JUMP JUMPDEST SWAP1 POP SWAP2 SWAP1 POP JUMP JUMPDEST PUSH0 PUSH2 0x218 DUP3 PUSH2 0x1FD JUMP JUMPDEST SWAP1 POP SWAP2 SWAP1 POP JUMP JUMPDEST PUSH2 0x228 DUP2 PUSH2 0x20E JUMP JUMPDEST DUP2 EQ PUSH2 0x232 JUMPI PUSH0 DUP1 REVERT JUMPDEST POP JUMP JUMPDEST PUSH0 DUP2 MLOAD SWAP1 POP PUSH2 0x243 DUP2 PUSH2 0x21F JUMP JUMPDEST SWAP3 SWAP2 POP POP JUMP JUMPDEST PUSH0 PUSH1 0x20 DUP3 DUP5 SUB SLT ISZERO PUSH2 0x25E JUMPI PUSH2 0x25D PUSH2 0x1DA JUMP JUMPDEST JUMPDEST PUSH0 PUSH2 0x26B DUP5 DUP3 DUP6 ADD PUSH2 0x235 JUMP JUMPDEST SWAP2 POP POP SWAP3 SWAP2 POP POP JUMP JUMPDEST PUSH2 0x27D DUP2 PUSH2 0x1FD JUMP JUMPDEST DUP3 MSTORE POP POP JUMP JUMPDEST PUSH0 PUSH1 0x20 DUP3 ADD SWAP1 POP PUSH2 0x296 PUSH0 DUP4 ADD DUP5 PUSH2 0x274 JUMP JUMPDEST SWAP3 SWAP2 POP POP JUMP JUMPDEST PUSH2 0x179D DUP1 PUSH2 0x2A9 PUSH0 CODECOPY PUSH0 RETURN INVALID PUSH1 0x80 PUSH1 0x40 MSTORE PUSH1 0x4 CALLDATASIZE LT PUSH2 0x108 JUMPI PUSH0 CALLDATALOAD PUSH1 0xE0 SHR DUP1 PUSH4 0x715018A6 GT PUSH2 0x94 JUMPI DUP1 PUSH4 0xDA18E610 GT PUSH2 0x63 JUMPI DUP1 PUSH4 0xDA18E610 EQ PUSH2 0x303 JUMPI DUP1 PUSH4 0xEF4C61BF EQ PUSH2 0x32B JUMPI DUP1 PUSH4 0xF2FDE38B EQ PUSH2 0x355 JUMPI DUP1 PUSH4 0xF6DA3C90 EQ PUSH2 0x37D JUMPI DUP1 PUSH4 0xF813E6AB EQ PUSH2 0x3A5 JUMPI PUSH2 0x108 JUMP JUMPDEST DUP1 PUSH4 0x715018A6 EQ PUSH2 0x283 JUMPI DUP1 PUSH4 0x836E35C8 EQ PUSH2 0x299 JUMPI DUP1 PUSH4 0x8456CB59 EQ PUSH2 0x2C3 JUMPI DUP1 PUSH4 0x8DA5CB5B EQ PUSH2 0x2D9 JUMPI PUSH2 0x108 JUMP JUMPDEST DUP1 PUSH4 0x2703EE85 GT PUSH2 0xDB JUMPI DUP1 PUSH4 0x2703EE85 EQ PUSH2 0x1D4 JUMPI DUP1 PUSH4 0x31BE0E0E EQ PUSH2 0x211 JUMPI DUP1 PUSH4 0x3F4BA83A EQ PUSH2 0x239 JUMPI DUP1 PUSH4 0x5B96A6EC EQ PUSH2 0x24F JUMPI DUP1 PUSH4 0x5C975ABB EQ PUSH2 0x259 JUMPI PUSH2 0x108 JUMP JUMPDEST DUP1 PUSH4 0x192E7A7B EQ PUSH2 0x10C JUMPI DUP1 PUSH4 0x1FEA5A6B EQ PUSH2 0x134 JUMPI DUP1 PUSH4 0x254EB80B EQ PUSH2 0x15C JUMPI DUP1 PUSH4 0x26C62F90 EQ PUSH2 0x198 JUMPI JUMPDEST PUSH0 DUP1 REVERT JUMPDEST CALLVALUE DUP1 ISZERO PUSH2 0x117 JUMPI PUSH0 DUP1 REVERT JUMPDEST POP PUSH2 0x132 PUSH1 0x4 DUP1 CALLDATASIZE SUB DUP2 ADD SWAP1 PUSH2 0x12D SWAP2 SWAP1 PUSH2 0x12C2 JUMP JUMPDEST PUSH2 0x3CF JUMP JUMPDEST STOP JUMPDEST CALLVALUE DUP1 ISZERO PUSH2 0x13F JUMPI PUSH0 DUP1 REVERT JUMPDEST POP PUSH2 0x15A PUSH1 0x4 DUP1 CALLDATASIZE SUB DUP2 ADD SWAP1 PUSH2 0x155 SWAP2 SWAP1 PUSH2 0x12C2 JUMP JUMPDEST PUSH2 0x5C1 JUMP JUMPDEST STOP JUMPDEST CALLVALUE DUP1 ISZERO PUSH2 0x167 JUMPI PUSH0 DUP1 REVERT JUMPDEST POP PUSH2 0x182 PUSH1 0x4 DUP1 CALLDATASIZE SUB DUP2 ADD SWAP1 PUSH2 0x17D SWAP2 SWAP1 PUSH2 0x12C2 JUMP JUMPDEST PUSH2 0x658 JUMP JUMPDEST PUSH1 0x40 MLOAD PUSH2 0x18F SWAP2 SWAP1 PUSH2 0x1305 JUMP JUMPDEST PUSH1 0x40 MLOAD DUP1 SWAP2 SUB SWAP1 RETURN JUMPDEST CALLVALUE DUP1 ISZERO PUSH2 0x1A3 JUMPI PUSH0 DUP1 REVERT JUMPDEST POP PUSH2 0x1BE PUSH1 0x4 DUP1 CALLDATASIZE SUB DUP2 ADD SWAP1 PUSH2 0x1B9 SWAP2 SWAP1 PUSH2 0x12C2 JUMP JUMPDEST PUSH2 0x66D JUMP JUMPDEST PUSH1 0x40 MLOAD PUSH2 0x1CB SWAP2 SWAP1 PUSH2 0x1305 JUMP JUMPDEST PUSH1 0x40 MLOAD DUP1 SWAP2 SUB SWAP1 RETURN JUMPDEST CALLVALUE DUP1 ISZERO PUSH2 0x1DF JUMPI PUSH0 DUP1 REVERT JUMPDEST POP PUSH2 0x1FA PUSH1 0x4 DUP1 CALLDATASIZE SUB DUP2 ADD SWAP1 PUSH2 0x1F5 SWAP2 SWAP1 PUSH2 0x12C2 JUMP JUMPDEST PUSH2 0x682 JUMP JUMPDEST PUSH1 0x40 MLOAD PUSH2 0x208 SWAP3 SWAP2 SWAP1 PUSH2 0x131E JUMP JUMPDEST PUSH1 0x40 MLOAD DUP1 SWAP2 SUB SWAP1 RETURN JUMPDEST CALLVALUE DUP1 ISZERO PUSH2 0x21C JUMPI PUSH0 DUP1 REVERT JUMPDEST POP PUSH2 0x237 PUSH1 0x4 DUP1 CALLDATASIZE SUB DUP2 ADD SWAP1 PUSH2 0x232 SWAP2 SWAP1 PUSH2 0x136F JUMP JUMPDEST PUSH2 0x709 JUMP JUMPDEST STOP JUMPDEST CALLVALUE DUP1 ISZERO PUSH2 0x244 JUMPI PUSH0 DUP1 REVERT JUMPDEST POP PUSH2 0x24D PUSH2 0x8FC JUMP JUMPDEST STOP JUMPDEST PUSH2 0x257 PUSH2 0x90E JUMP JUMPDEST STOP JUMPDEST CALLVALUE DUP1 ISZERO PUSH2 0x264 JUMPI PUSH0 DUP1 REVERT JUMPDEST POP PUSH2 0x26D PUSH2 0xA23 JUMP JUMPDEST PUSH1 0x40 MLOAD PUSH2 0x27A SWAP2 SWAP1 PUSH2 0x13B4 JUMP JUMPDEST PUSH1 0x40 MLOAD DUP1 SWAP2 SUB SWAP1 RETURN JUMPDEST CALLVALUE DUP1 ISZERO PUSH2 0x28E JUMPI PUSH0 DUP1 REVERT JUMPDEST POP PUSH2 0x297 PUSH2 0xA38 JUMP JUMPDEST STOP JUMPDEST CALLVALUE DUP1 ISZERO PUSH2 0x2A4 JUMPI PUSH0 DUP1 REVERT JUMPDEST POP PUSH2 0x2AD PUSH2 0xA4B JUMP JUMPDEST PUSH1 0x40 MLOAD PUSH2 0x2BA SWAP2 SWAP1 PUSH2 0x1305 JUMP JUMPDEST PUSH1 0x40 MLOAD DUP1 SWAP2 SUB SWAP1 RETURN JUMPDEST CALLVALUE DUP1 ISZERO PUSH2 0x2CE JUMPI PUSH0 DUP1 REVERT JUMPDEST POP PUSH2 0x2D7 PUSH2 0xA51 JUMP JUMPDEST STOP JUMPDEST CALLVALUE DUP1 ISZERO PUSH2 0x2E4 JUMPI PUSH0 DUP1 REVERT JUMPDEST POP PUSH2 0x2ED PUSH2 0xA63 JUMP JUMPDEST PUSH1 0x40 MLOAD PUSH2 0x2FA SWAP2 SWAP1 PUSH2 0x13DC JUMP JUMPDEST PUSH1 0x40 MLOAD DUP1 SWAP2 SUB SWAP1 RETURN JUMPDEST CALLVALUE DUP1 ISZERO PUSH2 0x30E JUMPI PUSH0 DUP1 REVERT JUMPDEST POP PUSH2 0x329 PUSH1 0x4 DUP1 CALLDATASIZE SUB DUP2 ADD SWAP1 PUSH2 0x324 SWAP2 SWAP1 PUSH2 0x136F JUMP JUMPDEST PUSH2 0xA8A JUMP JUMPDEST STOP JUMPDEST CALLVALUE DUP1 ISZERO PUSH2 0x336 JUMPI PUSH0 DUP1 REVERT JUMPDEST POP PUSH2 0x33F PUSH2 0xCFB JUMP JUMPDEST PUSH1 0x40 MLOAD PUSH2 0x34C SWAP2 SWAP1 PUSH2 0x1450 JUMP JUMPDEST PUSH1 0x40 MLOAD DUP1 SWAP2 SUB SWAP1 RETURN JUMPDEST CALLVALUE DUP1 ISZERO PUSH2 0x360 JUMPI PUSH0 DUP1 REVERT JUMPDEST POP PUSH2 0x37B PUSH1 0x4 DUP1 CALLDATASIZE SUB DUP2 ADD SWAP1 PUSH2 0x376 SWAP2 SWAP1 PUSH2 0x12C2 JUMP JUMPDEST PUSH2 0xD20 JUMP JUMPDEST STOP JUMPDEST CALLVALUE DUP1 ISZERO PUSH2 0x388 JUMPI PUSH0 DUP1 REVERT JUMPDEST POP PUSH2 0x3A3 PUSH1 0x4 DUP1 CALLDATASIZE SUB DUP2 ADD SWAP1 PUSH2 0x39E SWAP2 SWAP1 PUSH2 0x136F JUMP JUMPDEST PUSH2 0xDA4 JUMP JUMPDEST STOP JUMPDEST CALLVALUE DUP1 ISZERO PUSH2 0x3B0 JUMPI PUSH0 DUP1 REVERT JUMPDEST POP PUSH2 0x3B9 PUSH2 0xF7E JUMP JUMPDEST PUSH1 0x40 MLOAD PUSH2 0x3C6 SWAP2 SWAP1 PUSH2 0x1305 JUMP JUMPDEST PUSH1 0x40 MLOAD DUP1 SWAP2 SUB SWAP1 RETURN JUMPDEST PUSH2 0x3D7 PUSH2 0xF84 JUMP JUMPDEST DUP1 PUSH20 0xFFFFFFFFFFFFFFFFFFFFFFFFFFFFFFFFFFFFFFFF AND PUSH2 0x8FC PUSH1 0x6 PUSH0 DUP5 PUSH20 0xFFFFFFFFFFFFFFFFFFFFFFFFFFFFFFFFFFFFFFFF AND PUSH20 0xFFFFFFFFFFFFFFFFFFFFFFFFFFFFFFFFFFFFFFFF AND DUP2 MSTORE PUSH1 0x20 ADD SWAP1 DUP2 MSTORE PUSH1 0x20 ADD PUSH0 KECCAK256 SLOAD SWAP1 DUP2 ISZERO MUL SWAP1 PUSH1 0x40 MLOAD PUSH0 PUSH1 0x40 MLOAD DUP1 DUP4 SUB DUP2 DUP6 DUP9 DUP9 CALL SWAP4 POP POP POP POP ISZERO DUP1 ISZERO PUSH2 0x457 JUMPI RETURNDATASIZE PUSH0 DUP1 RETURNDATACOPY RETURNDATASIZE PUSH0 REVERT JUMPDEST POP PUSH1 0x2 PUSH0 SWAP1 SLOAD SWAP1 PUSH2 0x100 EXP SWAP1 DIV PUSH20 0xFFFFFFFFFFFFFFFFFFFFFFFFFFFFFFFFFFFFFFFF AND PUSH20 0xFFFFFFFFFFFFFFFFFFFFFFFFFFFFFFFFFFFFFFFF AND PUSH4 0xA9059CBB DUP3 PUSH1 0x6 PUSH0 DUP6 PUSH20 0xFFFFFFFFFFFFFFFFFFFFFFFFFFFFFFFFFFFFFFFF AND PUSH20 0xFFFFFFFFFFFFFFFFFFFFFFFFFFFFFFFFFFFFFFFF AND DUP2 MSTORE PUSH1 0x20 ADD SWAP1 DUP2 MSTORE PUSH1 0x20 ADD PUSH0 KECCAK256 SLOAD PUSH1 0x40 MLOAD DUP4 PUSH4 0xFFFFFFFF AND PUSH1 0xE0 SHL DUP2 MSTORE PUSH1 0x4 ADD PUSH2 0x4F1 SWAP3 SWAP2 SWAP1 PUSH2 0x1469 JUMP JUMPDEST PUSH1 0x20 PUSH1 0x40 MLOAD DUP1 DUP4 SUB DUP2 PUSH0 DUP8 GAS CALL ISZERO DUP1 ISZERO PUSH2 0x50D JUMPI RETURNDATASIZE PUSH0 DUP1 RETURNDATACOPY RETURNDATASIZE PUSH0 REVERT JUMPDEST POP POP POP POP PUSH1 0x40 MLOAD RETURNDATASIZE PUSH1 0x1F NOT PUSH1 0x1F DUP3 ADD AND DUP3 ADD DUP1 PUSH1 0x40 MSTORE POP DUP2 ADD SWAP1 PUSH2 0x531 SWAP2 SWAP1 PUSH2 0x14BA JUMP JUMPDEST POP PUSH0 PUSH1 0x5 PUSH0 DUP4 PUSH20 0xFFFFFFFFFFFFFFFFFFFFFFFFFFFFFFFFFFFFFFFF AND PUSH20 0xFFFFFFFFFFFFFFFFFFFFFFFFFFFFFFFFFFFFFFFF AND DUP2 MSTORE PUSH1 0x20 ADD SWAP1 DUP2 MSTORE PUSH1 0x20 ADD PUSH0 KECCAK256 DUP2 SWAP1 SSTORE POP PUSH0 PUSH1 0x6 PUSH0 DUP4 PUSH20 0xFFFFFFFFFFFFFFFFFFFFFFFFFFFFFFFFFFFFFFFF AND PUSH20 0xFFFFFFFFFFFFFFFFFFFFFFFFFFFFFFFFFFFFFFFF AND DUP2 MSTORE PUSH1 0x20 ADD SWAP1 DUP2 MSTORE PUSH1 0x20 ADD PUSH0 KECCAK256 DUP2 SWAP1 SSTORE POP PUSH2 0x5BE PUSH2 0xFC8 JUMP JUMPDEST POP JUMP JUMPDEST PUSH2 0x5C9 PUSH2 0xF84 JUMP JUMPDEST PUSH0 PUSH1 0x5 PUSH0 DUP4 PUSH20 0xFFFFFFFFFFFFFFFFFFFFFFFFFFFFFFFFFFFFFFFF AND PUSH20 0xFFFFFFFFFFFFFFFFFFFFFFFFFFFFFFFFFFFFFFFF AND DUP2 MSTORE PUSH1 0x20 ADD SWAP1 DUP2 MSTORE PUSH1 0x20 ADD PUSH0 KECCAK256 DUP2 SWAP1 SSTORE POP PUSH0 PUSH1 0x6 PUSH0 DUP4 PUSH20 0xFFFFFFFFFFFFFFFFFFFFFFFFFFFFFFFFFFFFFFFF AND PUSH20 0xFFFFFFFFFFFFFFFFFFFFFFFFFFFFFFFFFFFFFFFF AND DUP2 MSTORE PUSH1 0x20 ADD SWAP1 DUP2 MSTORE PUSH1 0x20 ADD PUSH0 KECCAK256 DUP2 SWAP1 SSTORE POP PUSH2 0x655 PUSH2 0xFC8 JUMP JUMPDEST POP JUMP JUMPDEST PUSH1 0x5 PUSH1 0x20 MSTORE DUP1 PUSH0 MSTORE PUSH1 0x40 PUSH0 KECCAK256 PUSH0 SWAP2 POP SWAP1 POP SLOAD DUP2 JUMP JUMPDEST PUSH1 0x6 PUSH1 0x20 MSTORE DUP1 PUSH0 MSTORE PUSH1 0x40 PUSH0 KECCAK256 PUSH0 SWAP2 POP SWAP1 POP SLOAD DUP2 JUMP JUMPDEST PUSH0 DUP1 PUSH1 0x5 PUSH0 DUP5 PUSH20 0xFFFFFFFFFFFFFFFFFFFFFFFFFFFFFFFFFFFFFFFF AND PUSH20 0xFFFFFFFFFFFFFFFFFFFFFFFFFFFFFFFFFFFFFFFF AND DUP2 MSTORE PUSH1 0x20 ADD SWAP1 DUP2 MSTORE PUSH1 0x20 ADD PUSH0 KECCAK256 SLOAD PUSH1 0x6 PUSH0 DUP6 PUSH20 0xFFFFFFFFFFFFFFFFFFFFFFFFFFFFFFFFFFFFFFFF AND PUSH20 0xFFFFFFFFFFFFFFFFFFFFFFFFFFFFFFFFFFFFFFFF AND DUP2 MSTORE PUSH1 0x20 ADD SWAP1 DUP2 MSTORE PUSH1 0x20 ADD PUSH0 KECCAK256 SLOAD SWAP2 POP SWAP2 POP SWAP2 POP SWAP2 JUMP JUMPDEST PUSH2 0x711 PUSH2 0xF84 JUMP JUMPDEST PUSH2 0x719 PUSH2 0xFD1 JUMP JUMPDEST PUSH0 DUP2 GT PUSH2 0x75B JUMPI PUSH1 0x40 MLOAD PUSH32 0x8C379A000000000000000000000000000000000000000000000000000000000 DUP2 MSTORE PUSH1 0x4 ADD PUSH2 0x752 SWAP1 PUSH2 0x1565 JUMP JUMPDEST PUSH1 0x40 MLOAD DUP1 SWAP2 SUB SWAP1 REVERT JUMPDEST PUSH1 0x2 PUSH0 SWAP1 SLOAD SWAP1 PUSH2 0x100 EXP SWAP1 DIV PUSH20 0xFFFFFFFFFFFFFFFFFFFFFFFFFFFFFFFFFFFFFFFF AND PUSH20 0xFFFFFFFFFFFFFFFFFFFFFFFFFFFFFFFFFFFFFFFF AND PUSH4 0x23B872DD CALLER ADDRESS DUP5 PUSH1 0x40 MLOAD DUP5 PUSH4 0xFFFFFFFF AND PUSH1 0xE0 SHL DUP2 MSTORE PUSH1 0x4 ADD PUSH2 0x7B9 SWAP4 SWAP3 SWAP2 SWAP1 PUSH2 0x1583 JUMP JUMPDEST PUSH1 0x20 PUSH1 0x40 MLOAD DUP1 DUP4 SUB DUP2 PUSH0 DUP8 GAS CALL ISZERO DUP1 ISZERO PUSH2 0x7D5 JUMPI RETURNDATASIZE PUSH0 DUP1 RETURNDATACOPY RETURNDATASIZE PUSH0 REVERT JUMPDEST POP POP POP POP PUSH1 0x40 MLOAD RETURNDATASIZE PUSH1 0x1F NOT PUSH1 0x1F DUP3 ADD AND DUP3 ADD DUP1 PUSH1 0x40 MSTORE POP DUP2 ADD SWAP1 PUSH2 0x7F9 SWAP2 SWAP1 PUSH2 0x14BA JUMP JUMPDEST PUSH2 0x838 JUMPI PUSH1 0x40 MLOAD PUSH32 0x8C379A000000000000000000000000000000000000000000000000000000000 DUP2 MSTORE PUSH1 0x4 ADD PUSH2 0x82F SWAP1 PUSH2 0x1628 JUMP JUMPDEST PUSH1 0x40 MLOAD DUP1 SWAP2 SUB SWAP1 REVERT JUMPDEST DUP1 PUSH1 0x6 PUSH0 CALLER PUSH20 0xFFFFFFFFFFFFFFFFFFFFFFFFFFFFFFFFFFFFFFFF AND PUSH20 0xFFFFFFFFFFFFFFFFFFFFFFFFFFFFFFFFFFFFFFFF AND DUP2 MSTORE PUSH1 0x20 ADD SWAP1 DUP2 MSTORE PUSH1 0x20 ADD PUSH0 KECCAK256 PUSH0 DUP3 DUP3 SLOAD PUSH2 0x884 SWAP2 SWAP1 PUSH2 0x1673 JUMP JUMPDEST SWAP3 POP POP DUP2 SWAP1 SSTORE POP DUP1 PUSH1 0x4 PUSH0 DUP3 DUP3 SLOAD PUSH2 0x89C SWAP2 SWAP1 PUSH2 0x1673 JUMP JUMPDEST SWAP3 POP POP DUP2 SWAP1 SSTORE POP CALLER PUSH20 0xFFFFFFFFFFFFFFFFFFFFFFFFFFFFFFFFFFFFFFFF AND PUSH32 0x72BCD92218A56686CD2892ADC5B472DD4E131F58BA98E7A05A28B34CA44BE5D3 DUP3 PUSH1 0x40 MLOAD PUSH2 0x8E9 SWAP2 SWAP1 PUSH2 0x1305 JUMP JUMPDEST PUSH1 0x40 MLOAD DUP1 SWAP2 SUB SWAP1 LOG2 PUSH2 0x8F9 PUSH2 0xFC8 JUMP JUMPDEST POP JUMP JUMPDEST PUSH2 0x904 PUSH2 0x1012 JUMP JUMPDEST PUSH2 0x90C PUSH2 0x1099 JUMP JUMPDEST JUMP JUMPDEST PUSH2 0x916 PUSH2 0xF84 JUMP JUMPDEST PUSH2 0x91E PUSH2 0xFD1 JUMP JUMPDEST PUSH0 CALLVALUE GT PUSH2 0x960 JUMPI PUSH1 0x40 MLOAD PUSH32 0x8C379A000000000000000000000000000000000000000000000000000000000 DUP2 MSTORE PUSH1 0x4 ADD PUSH2 0x957 SWAP1 PUSH2 0x1565 JUMP JUMPDEST PUSH1 0x40 MLOAD DUP1 SWAP2 SUB SWAP1 REVERT JUMPDEST CALLVALUE PUSH1 0x5 PUSH0 CALLER PUSH20 0xFFFFFFFFFFFFFFFFFFFFFFFFFFFFFFFFFFFFFFFF AND PUSH20 0xFFFFFFFFFFFFFFFFFFFFFFFFFFFFFFFFFFFFFFFF AND DUP2 MSTORE PUSH1 0x20 ADD SWAP1 DUP2 MSTORE PUSH1 0x20 ADD PUSH0 KECCAK256 PUSH0 DUP3 DUP3 SLOAD PUSH2 0x9AC SWAP2 SWAP1 PUSH2 0x1673 JUMP JUMPDEST SWAP3 POP POP DUP2 SWAP1 SSTORE POP CALLVALUE PUSH1 0x3 PUSH0 DUP3 DUP3 SLOAD PUSH2 0x9C4 SWAP2 SWAP1 PUSH2 0x1673 JUMP JUMPDEST SWAP3 POP POP DUP2 SWAP1 SSTORE POP CALLER PUSH20 0xFFFFFFFFFFFFFFFFFFFFFFFFFFFFFFFFFFFFFFFF AND PUSH32 0x3794D262E1E5B79AC3E163E91538650A7A79C67A2550892FA4B9001797FC075E CALLVALUE PUSH1 0x40 MLOAD PUSH2 0xA11 SWAP2 SWAP1 PUSH2 0x1305 JUMP JUMPDEST PUSH1 0x40 MLOAD DUP1 SWAP2 SUB SWAP1 LOG2 PUSH2 0xA21 PUSH2 0xFC8 JUMP JUMPDEST JUMP JUMPDEST PUSH0 PUSH1 0x1 PUSH0 SWAP1 SLOAD SWAP1 PUSH2 0x100 EXP SWAP1 DIV PUSH1 0xFF AND SWAP1 POP SWAP1 JUMP JUMPDEST PUSH2 0xA40 PUSH2 0x1012 JUMP JUMPDEST PUSH2 0xA49 PUSH0 PUSH2 0x10FA JUMP JUMPDEST JUMP JUMPDEST PUSH1 0x3 SLOAD DUP2 JUMP JUMPDEST PUSH2 0xA59 PUSH2 0x1012 JUMP JUMPDEST PUSH2 0xA61 PUSH2 0x11BC JUMP JUMPDEST JUMP JUMPDEST PUSH0 PUSH1 0x1 DUP1 SLOAD SWAP1 PUSH2 0x100 EXP SWAP1 DIV PUSH20 0xFFFFFFFFFFFFFFFFFFFFFFFFFFFFFFFFFFFFFFFF AND SWAP1 POP SWAP1 JUMP JUMPDEST PUSH2 0xA92 PUSH2 0xF84 JUMP JUMPDEST PUSH2 0xA9A PUSH2 0xFD1 JUMP JUMPDEST PUSH0 DUP2 GT PUSH2 0xADC JUMPI PUSH1 0x40 MLOAD PUSH32 0x8C379A000000000000000000000000000000000000000000000000000000000 DUP2 MSTORE PUSH1 0x4 ADD PUSH2 0xAD3 SWAP1 PUSH2 0x1565 JUMP JUMPDEST PUSH1 0x40 MLOAD DUP1 SWAP2 SUB SWAP1 REVERT JUMPDEST DUP1 PUSH1 0x6 PUSH0 CALLER PUSH20 0xFFFFFFFFFFFFFFFFFFFFFFFFFFFFFFFFFFFFFFFF AND PUSH20 0xFFFFFFFFFFFFFFFFFFFFFFFFFFFFFFFFFFFFFFFF AND DUP2 MSTORE PUSH1 0x20 ADD SWAP1 DUP2 MSTORE PUSH1 0x20 ADD PUSH0 KECCAK256 SLOAD LT ISZERO PUSH2 0xB5C JUMPI PUSH1 0x40 MLOAD PUSH32 0x8C379A000000000000000000000000000000000000000000000000000000000 DUP2 MSTORE PUSH1 0x4 ADD PUSH2 0xB53 SWAP1 PUSH2 0x1716 JUMP JUMPDEST PUSH1 0x40 MLOAD DUP1 SWAP2 SUB SWAP1 REVERT JUMPDEST DUP1 PUSH1 0x6 PUSH0 CALLER PUSH20 0xFFFFFFFFFFFFFFFFFFFFFFFFFFFFFFFFFFFFFFFF AND PUSH20 0xFFFFFFFFFFFFFFFFFFFFFFFFFFFFFFFFFFFFFFFF AND DUP2 MSTORE PUSH1 0x20 ADD SWAP1 DUP2 MSTORE PUSH1 0x20 ADD PUSH0 KECCAK256 PUSH0 DUP3 DUP3 SLOAD PUSH2 0xBA8 SWAP2 SWAP1 PUSH2 0x1734 JUMP JUMPDEST SWAP3 POP POP DUP2 SWAP1 SSTORE POP DUP1 PUSH1 0x4 PUSH0 DUP3 DUP3 SLOAD PUSH2 0xBC0 SWAP2 SWAP1 PUSH2 0x1734 JUMP JUMPDEST SWAP3 POP POP DUP2 SWAP1 SSTORE POP PUSH1 0x2 PUSH0 SWAP1 SLOAD SWAP1 PUSH2 0x100 EXP SWAP1 DIV PUSH20 0xFFFFFFFFFFFFFFFFFFFFFFFFFFFFFFFFFFFFFFFF AND PUSH20 0xFFFFFFFFFFFFFFFFFFFFFFFFFFFFFFFFFFFFFFFF AND PUSH4 0xA9059CBB CALLER DUP4 PUSH1 0x40 MLOAD DUP4 PUSH4 0xFFFFFFFF AND PUSH1 0xE0 SHL DUP2 MSTORE PUSH1 0x4 ADD PUSH2 0xC23 SWAP3 SWAP2 SWAP1 PUSH2 0x1469 JUMP JUMPDEST PUSH1 0x20 PUSH1 0x40 MLOAD DUP1 DUP4 SUB DUP2 PUSH0 DUP8 GAS CALL ISZERO DUP1 ISZERO PUSH2 0xC3F JUMPI RETURNDATASIZE PUSH0 DUP1 RETURNDATACOPY RETURNDATASIZE PUSH0 REVERT JUMPDEST POP POP POP POP PUSH1 0x40 MLOAD RETURNDATASIZE PUSH1 0x1F NOT PUSH1 0x1F DUP3 ADD AND DUP3 ADD DUP1 PUSH1 0x40 MSTORE POP DUP2 ADD SWAP1 PUSH2 0xC63 SWAP2 SWAP1 PUSH2 0x14BA JUMP JUMPDEST PUSH2 0xCA2 JUMPI PUSH1 0x40 MLOAD PUSH32 0x8C379A000000000000000000000000000000000000000000000000000000000 DUP2 MSTORE PUSH1 0x4 ADD PUSH2 0xC99 SWAP1 PUSH2 0x1628 JUMP JUMPDEST PUSH1 0x40 MLOAD DUP1 SWAP2 SUB SWAP1 REVERT JUMPDEST CALLER PUSH20 0xFFFFFFFFFFFFFFFFFFFFFFFFFFFFFFFFFFFFFFFF AND PUSH32 0xC0C38A768E4DC449A238498E0E4EFE579F69439B116D0318F3C81F15DA6E713C DUP3 PUSH1 0x40 MLOAD PUSH2 0xCE8 SWAP2 SWAP1 PUSH2 0x1305 JUMP JUMPDEST PUSH1 0x40 MLOAD DUP1 SWAP2 SUB SWAP1 LOG2 PUSH2 0xCF8 PUSH2 0xFC8 JUMP JUMPDEST POP JUMP JUMPDEST PUSH1 0x2 PUSH0 SWAP1 SLOAD SWAP1 PUSH2 0x100 EXP SWAP1 DIV PUSH20 0xFFFFFFFFFFFFFFFFFFFFFFFFFFFFFFFFFFFFFFFF AND DUP2 JUMP JUMPDEST PUSH2 0xD28 PUSH2 0x1012 JUMP JUMPDEST PUSH0 PUSH20 0xFFFFFFFFFFFFFFFFFFFFFFFFFFFFFFFFFFFFFFFF AND DUP2 PUSH20 0xFFFFFFFFFFFFFFFFFFFFFFFFFFFFFFFFFFFFFFFF AND SUB PUSH2 0xD98 JUMPI PUSH0 PUSH1 0x40 MLOAD PUSH32 0x1E4FBDF700000000000000000000000000000000000000000000000000000000 DUP2 MSTORE PUSH1 0x4 ADD PUSH2 0xD8F SWAP2 SWAP1 PUSH2 0x13DC JUMP JUMPDEST PUSH1 0x40 MLOAD DUP1 SWAP2 SUB SWAP1 REVERT JUMPDEST PUSH2 0xDA1 DUP2 PUSH2 0x10FA JUMP JUMPDEST POP JUMP JUMPDEST PUSH2 0xDAC PUSH2 0xF84 JUMP JUMPDEST PUSH2 0xDB4 PUSH2 0xFD1 JUMP JUMPDEST PUSH0 DUP2 GT PUSH2 0xDF6 JUMPI PUSH1 0x40 MLOAD PUSH32 0x8C379A000000000000000000000000000000000000000000000000000000000 DUP2 MSTORE PUSH1 0x4 ADD PUSH2 0xDED SWAP1 PUSH2 0x1565 JUMP JUMPDEST PUSH1 0x40 MLOAD DUP1 SWAP2 SUB SWAP1 REVERT JUMPDEST DUP1 PUSH1 0x5 PUSH0 CALLER PUSH20 0xFFFFFFFFFFFFFFFFFFFFFFFFFFFFFFFFFFFFFFFF AND PUSH20 0xFFFFFFFFFFFFFFFFFFFFFFFFFFFFFFFFFFFFFFFF AND DUP2 MSTORE PUSH1 0x20 ADD SWAP1 DUP2 MSTORE PUSH1 0x20 ADD PUSH0 KECCAK256 SLOAD LT ISZERO PUSH2 0xE76 JUMPI PUSH1 0x40 MLOAD PUSH32 0x8C379A000000000000000000000000000000000000000000000000000000000 DUP2 MSTORE PUSH1 0x4 ADD PUSH2 0xE6D SWAP1 PUSH2 0x1716 JUMP JUMPDEST PUSH1 0x40 MLOAD DUP1 SWAP2 SUB SWAP1 REVERT JUMPDEST DUP1 PUSH1 0x5 PUSH0 CALLER PUSH20 0xFFFFFFFFFFFFFFFFFFFFFFFFFFFFFFFFFFFFFFFF AND PUSH20 0xFFFFFFFFFFFFFFFFFFFFFFFFFFFFFFFFFFFFFFFF AND DUP2 MSTORE PUSH1 0x20 ADD SWAP1 DUP2 MSTORE PUSH1 0x20 ADD PUSH0 KECCAK256 PUSH0 DUP3 DUP3 SLOAD PUSH2 0xEC2 SWAP2 SWAP1 PUSH2 0x1734 JUMP JUMPDEST SWAP3 POP POP DUP2 SWAP1 SSTORE POP DUP1 PUSH1 0x3 PUSH0 DUP3 DUP3 SLOAD PUSH2 0xEDA SWAP2 SWAP1 PUSH2 0x1734 JUMP JUMPDEST SWAP3 POP POP DUP2 SWAP1 SSTORE POP CALLER PUSH20 0xFFFFFFFFFFFFFFFFFFFFFFFFFFFFFFFFFFFFFFFF AND PUSH2 0x8FC DUP3 SWAP1 DUP2 ISZERO MUL SWAP1 PUSH1 0x40 MLOAD PUSH0 PUSH1 0x40 MLOAD DUP1 DUP4 SUB DUP2 DUP6 DUP9 DUP9 CALL SWAP4 POP POP POP POP ISZERO DUP1 ISZERO PUSH2 0xF24 JUMPI RETURNDATASIZE PUSH0 DUP1 RETURNDATACOPY RETURNDATASIZE PUSH0 REVERT JUMPDEST POP CALLER PUSH20 0xFFFFFFFFFFFFFFFFFFFFFFFFFFFFFFFFFFFFFFFF AND PUSH32 0xF9634B89B07BF077BF6370D579CB9349C0086163079C1BDD6976C54098F2F903 DUP3 PUSH1 0x40 MLOAD PUSH2 0xF6B SWAP2 SWAP1 PUSH2 0x1305 JUMP JUMPDEST PUSH1 0x40 MLOAD DUP1 SWAP2 SUB SWAP1 LOG2 PUSH2 0xF7B PUSH2 0xFC8 JUMP JUMPDEST POP JUMP JUMPDEST PUSH1 0x4 SLOAD DUP2 JUMP JUMPDEST PUSH1 0x2 PUSH0 SLOAD SUB PUSH2 0xFBF JUMPI PUSH1 0x40 MLOAD PUSH32 0x3EE5AEB500000000000000000000000000000000000000000000000000000000 DUP2 MSTORE PUSH1 0x4 ADD PUSH1 0x40 MLOAD DUP1 SWAP2 SUB SWAP1 REVERT JUMPDEST PUSH1 0x2 PUSH0 DUP2 SWAP1 SSTORE POP JUMP JUMPDEST PUSH1 0x1 PUSH0 DUP2 SWAP1 SSTORE POP JUMP JUMPDEST PUSH2 0xFD9 PUSH2 0xA23 JUMP JUMPDEST ISZERO PUSH2 0x1010 JUMPI PUSH1 0x40 MLOAD PUSH32 0xD93C066500000000000000000000000000000000000000000000000000000000 DUP2 MSTORE PUSH1 0x4 ADD PUSH1 0x40 MLOAD DUP1 SWAP2 SUB SWAP1 REVERT JUMPDEST JUMP JUMPDEST PUSH2 0x101A PUSH2 0x121D JUMP JUMPDEST PUSH20 0xFFFFFFFFFFFFFFFFFFFFFFFFFFFFFFFFFFFFFFFF AND PUSH2 0x1038 PUSH2 0xA63 JUMP JUMPDEST PUSH20 0xFFFFFFFFFFFFFFFFFFFFFFFFFFFFFFFFFFFFFFFF AND EQ PUSH2 0x1097 JUMPI PUSH2 0x105B PUSH2 0x121D JUMP JUMPDEST PUSH1 0x40 MLOAD PUSH32 0x118CDAA700000000000000000000000000000000000000000000000000000000 DUP2 MSTORE PUSH1 0x4 ADD PUSH2 0x108E SWAP2 SWAP1 PUSH2 0x13DC JUMP JUMPDEST PUSH1 0x40 MLOAD DUP1 SWAP2 SUB SWAP1 REVERT JUMPDEST JUMP JUMPDEST PUSH2 0x10A1 PUSH2 0x1224 JUMP JUMPDEST PUSH0 PUSH1 0x1 PUSH0 PUSH2 0x100 EXP DUP2 SLOAD DUP2 PUSH1 0xFF MUL NOT AND SWAP1 DUP4 ISZERO ISZERO MUL OR SWAP1 SSTORE POP PUSH32 0x5DB9EE0A495BF2E6FF9C91A7834C1BA4FDD244A5E8AA4E537BD38AEAE4B073AA PUSH2 0x10E3 PUSH2 0x121D JUMP JUMPDEST PUSH1 0x40 MLOAD PUSH2 0x10F0 SWAP2 SWAP1 PUSH2 0x13DC JUMP JUMPDEST PUSH1 0x40 MLOAD DUP1 SWAP2 SUB SWAP1 LOG1 JUMP JUMPDEST PUSH0 PUSH1 0x1 DUP1 SLOAD SWAP1 PUSH2 0x100 EXP SWAP1 DIV PUSH20 0xFFFFFFFFFFFFFFFFFFFFFFFFFFFFFFFFFFFFFFFF AND SWAP1 POP DUP2 PUSH1 0x1 DUP1 PUSH2 0x100 EXP DUP2 SLOAD DUP2 PUSH20 0xFFFFFFFFFFFFFFFFFFFFFFFFFFFFFFFFFFFFFFFF MUL NOT AND SWAP1 DUP4 PUSH20 0xFFFFFFFFFFFFFFFFFFFFFFFFFFFFFFFFFFFFFFFF AND MUL OR SWAP1 SSTORE POP DUP2 PUSH20 0xFFFFFFFFFFFFFFFFFFFFFFFFFFFFFFFFFFFFFFFF AND DUP2 PUSH20 0xFFFFFFFFFFFFFFFFFFFFFFFFFFFFFFFFFFFFFFFF AND PUSH32 0x8BE0079C531659141344CD1FD0A4F28419497F9722A3DAAFE3B4186F6B6457E0 PUSH1 0x40 MLOAD PUSH1 0x40 MLOAD DUP1 SWAP2 SUB SWAP1 LOG3 POP POP JUMP JUMPDEST PUSH2 0x11C4 PUSH2 0xFD1 JUMP JUMPDEST PUSH1 0x1 DUP1 PUSH0 PUSH2 0x100 EXP DUP2 SLOAD DUP2 PUSH1 0xFF MUL NOT AND SWAP1 DUP4 ISZERO ISZERO MUL OR SWAP1 SSTORE POP PUSH32 0x62E78CEA01BEE320CD4E420270B5EA74000D11B0C9F74754EBDBFC544B05A258 PUSH2 0x1206 PUSH2 0x121D JUMP JUMPDEST PUSH1 0x40 MLOAD PUSH2 0x1213 SWAP2 SWAP1 PUSH2 0x13DC JUMP JUMPDEST PUSH1 0x40 MLOAD DUP1 SWAP2 SUB SWAP1 LOG1 JUMP JUMPDEST PUSH0 CALLER SWAP1 POP SWAP1 JUMP JUMPDEST PUSH2 0x122C PUSH2 0xA23 JUMP JUMPDEST PUSH2 0x1262 JUMPI PUSH1 0x40 MLOAD PUSH32 0x8DFC202B00000000000000000000000000000000000000000000000000000000 DUP2 MSTORE PUSH1 0x4 ADD PUSH1 0x40 MLOAD DUP1 SWAP2 SUB SWAP1 REVERT JUMPDEST JUMP JUMPDEST PUSH0 DUP1 REVERT JUMPDEST PUSH0 PUSH20 0xFFFFFFFFFFFFFFFFFFFFFFFFFFFFFFFFFFFFFFFF DUP3 AND SWAP1 POP SWAP2 SWAP1 POP JUMP JUMPDEST PUSH0 PUSH2 0x1291 DUP3 PUSH2 0x1268 JUMP JUMPDEST SWAP1 POP SWAP2 SWAP1 POP JUMP JUMPDEST PUSH2 0x12A1 DUP2 PUSH2 0x1287 JUMP JUMPDEST DUP2 EQ PUSH2 0x12AB JUMPI PUSH0 DUP1 REVERT JUMPDEST POP JUMP JUMPDEST PUSH0 DUP2 CALLDATALOAD SWAP1 POP PUSH2 0x12BC DUP2 PUSH2 0x1298 JUMP JUMPDEST SWAP3 SWAP2 POP POP JUMP JUMPDEST PUSH0 PUSH1 0x20 DUP3 DUP5 SUB SLT ISZERO PUSH2 0x12D7 JUMPI PUSH2 0x12D6 PUSH2 0x1264 JUMP JUMPDEST JUMPDEST PUSH0 PUSH2 0x12E4 DUP5 DUP3 DUP6 ADD PUSH2 0x12AE JUMP JUMPDEST SWAP2 POP POP SWAP3 SWAP2 POP POP JUMP JUMPDEST PUSH0 DUP2 SWAP1 POP SWAP2 SWAP1 POP JUMP JUMPDEST PUSH2 0x12FF DUP2 PUSH2 0x12ED JUMP JUMPDEST DUP3 MSTORE POP POP JUMP JUMPDEST PUSH0 PUSH1 0x20 DUP3 ADD SWAP1 POP PUSH2 0x1318 PUSH0 DUP4 ADD DUP5 PUSH2 0x12F6 JUMP JUMPDEST SWAP3 SWAP2 POP POP JUMP JUMPDEST PUSH0 PUSH1 0x40 DUP3 ADD SWAP1 POP PUSH2 0x1331 PUSH0 DUP4 ADD DUP6 PUSH2 0x12F6 JUMP JUMPDEST PUSH2 0x133E PUSH1 0x20 DUP4 ADD DUP5 PUSH2 0x12F6 JUMP JUMPDEST SWAP4 SWAP3 POP POP POP JUMP JUMPDEST PUSH2 0x134E DUP2 PUSH2 0x12ED JUMP JUMPDEST DUP2 EQ PUSH2 0x1358 JUMPI PUSH0 DUP1 REVERT JUMPDEST POP JUMP JUMPDEST PUSH0 DUP2 CALLDATALOAD SWAP1 POP PUSH2 0x1369 DUP2 PUSH2 0x1345 JUMP JUMPDEST SWAP3 SWAP2 POP POP JUMP JUMPDEST PUSH0 PUSH1 0x20 DUP3 DUP5 SUB SLT ISZERO PUSH2 0x1384 JUMPI PUSH2 0x1383 PUSH2 0x1264 JUMP JUMPDEST JUMPDEST PUSH0 PUSH2 0x1391 DUP5 DUP3 DUP6 ADD PUSH2 0x135B JUMP JUMPDEST SWAP2 POP POP SWAP3 SWAP2 POP POP JUMP JUMPDEST PUSH0 DUP2 ISZERO ISZERO SWAP1 POP SWAP2 SWAP1 POP JUMP JUMPDEST PUSH2 0x13AE DUP2 PUSH2 0x139A JUMP JUMPDEST DUP3 MSTORE POP POP JUMP JUMPDEST PUSH0 PUSH1 0x20 DUP3 ADD SWAP1 POP PUSH2 0x13C7 PUSH0 DUP4 ADD DUP5 PUSH2 0x13A5 JUMP JUMPDEST SWAP3 SWAP2 POP POP JUMP JUMPDEST PUSH2 0x13D6 DUP2 PUSH2 0x1287 JUMP JUMPDEST DUP3 MSTORE POP POP JUMP JUMPDEST PUSH0 PUSH1 0x20 DUP3 ADD SWAP1 POP PUSH2 0x13EF PUSH0 DUP4 ADD DUP5 PUSH2 0x13CD JUMP JUMPDEST SWAP3 SWAP2 POP POP JUMP JUMPDEST PUSH0 DUP2 SWAP1 POP SWAP2 SWAP1 POP JUMP JUMPDEST PUSH0 PUSH2 0x1418 PUSH2 0x1413 PUSH2 0x140E DUP5 PUSH2 0x1268 JUMP JUMPDEST PUSH2 0x13F5 JUMP JUMPDEST PUSH2 0x1268 JUMP JUMPDEST SWAP1 POP SWAP2 SWAP1 POP JUMP JUMPDEST PUSH0 PUSH2 0x1429 DUP3 PUSH2 0x13FE JUMP JUMPDEST SWAP1 POP SWAP2 SWAP1 POP JUMP JUMPDEST PUSH0 PUSH2 0x143A DUP3 PUSH2 0x141F JUMP JUMPDEST SWAP1 POP SWAP2 SWAP1 POP JUMP JUMPDEST PUSH2 0x144A DUP2 PUSH2 0x1430 JUMP JUMPDEST DUP3 MSTORE POP POP JUMP JUMPDEST PUSH0 PUSH1 0x20 DUP3 ADD SWAP1 POP PUSH2 0x1463 PUSH0 DUP4 ADD DUP5 PUSH2 0x1441 JUMP JUMPDEST SWAP3 SWAP2 POP POP JUMP JUMPDEST PUSH0 PUSH1 0x40 DUP3 ADD SWAP1 POP PUSH2 0x147C PUSH0 DUP4 ADD DUP6 PUSH2 0x13CD JUMP JUMPDEST PUSH2 0x1489 PUSH1 0x20 DUP4 ADD DUP5 PUSH2 0x12F6 JUMP JUMPDEST SWAP4 SWAP3 POP POP POP JUMP JUMPDEST PUSH2 0x1499 DUP2 PUSH2 0x139A JUMP JUMPDEST DUP2 EQ PUSH2 0x14A3 JUMPI PUSH0 DUP1 REVERT JUMPDEST POP JUMP JUMPDEST PUSH0 DUP2 MLOAD SWAP1 POP PUSH2 0x14B4 DUP2 PUSH2 0x1490 JUMP JUMPDEST SWAP3 SWAP2 POP POP JUMP JUMPDEST PUSH0 PUSH1 0x20 DUP3 DUP5 SUB SLT ISZERO PUSH2 0x14CF JUMPI PUSH2 0x14CE PUSH2 0x1264 JUMP JUMPDEST JUMPDEST PUSH0 PUSH2 0x14DC DUP5 DUP3 DUP6 ADD PUSH2 0x14A6 JUMP JUMPDEST SWAP2 POP POP SWAP3 SWAP2 POP POP JUMP JUMPDEST PUSH0 DUP3 DUP3 MSTORE PUSH1 0x20 DUP3 ADD SWAP1 POP SWAP3 SWAP2 POP POP JUMP JUMPDEST PUSH32 0x436F6C6C61746572616C4D616E616765723A20496E76616C696420616D6F756E PUSH0 DUP3 ADD MSTORE PUSH32 0x7400000000000000000000000000000000000000000000000000000000000000 PUSH1 0x20 DUP3 ADD MSTORE POP JUMP JUMPDEST PUSH0 PUSH2 0x154F PUSH1 0x21 DUP4 PUSH2 0x14E5 JUMP JUMPDEST SWAP2 POP PUSH2 0x155A DUP3 PUSH2 0x14F5 JUMP JUMPDEST PUSH1 0x40 DUP3 ADD SWAP1 POP SWAP2 SWAP1 POP JUMP JUMPDEST PUSH0 PUSH1 0x20 DUP3 ADD SWAP1 POP DUP2 DUP2 SUB PUSH0 DUP4 ADD MSTORE PUSH2 0x157C DUP2 PUSH2 0x1543 JUMP JUMPDEST SWAP1 POP SWAP2 SWAP1 POP JUMP JUMPDEST PUSH0 PUSH1 0x60 DUP3 ADD SWAP1 POP PUSH2 0x1596 PUSH0 DUP4 ADD DUP7 PUSH2 0x13CD JUMP JUMPDEST PUSH2 0x15A3 PUSH1 0x20 DUP4 ADD DUP6 PUSH2 0x13CD JUMP JUMPDEST PUSH2 0x15B0 PUSH1 0x40 DUP4 ADD DUP5 PUSH2 0x12F6 JUMP JUMPDEST SWAP5 SWAP4 POP POP POP POP JUMP JUMPDEST PUSH32 0x436F6C6C61746572616C4D616E616765723A205472616E73666572206661696C PUSH0 DUP3 ADD MSTORE PUSH32 0x6564000000000000000000000000000000000000000000000000000000000000 PUSH1 0x20 DUP3 ADD MSTORE POP JUMP JUMPDEST PUSH0 PUSH2 0x1612 PUSH1 0x22 DUP4 PUSH2 0x14E5 JUMP JUMPDEST SWAP2 POP PUSH2 0x161D DUP3 PUSH2 0x15B8 JUMP JUMPDEST PUSH1 0x40 DUP3 ADD SWAP1 POP SWAP2 SWAP1 POP JUMP JUMPDEST PUSH0 PUSH1 0x20 DUP3 ADD SWAP1 POP DUP2 DUP2 SUB PUSH0 DUP4 ADD MSTORE PUSH2 0x163F DUP2 PUSH2 0x1606 JUMP JUMPDEST SWAP1 POP SWAP2 SWAP1 POP JUMP JUMPDEST PUSH32 0x4E487B7100000000000000000000000000000000000000000000000000000000 PUSH0 MSTORE PUSH1 0x11 PUSH1 0x4 MSTORE PUSH1 0x24 PUSH0 REVERT JUMPDEST PUSH0 PUSH2 0x167D DUP3 PUSH2 0x12ED JUMP JUMPDEST SWAP2 POP PUSH2 0x1688 DUP4 PUSH2 0x12ED JUMP JUMPDEST SWAP3 POP DUP3 DUP3 ADD SWAP1 POP DUP1 DUP3 GT ISZERO PUSH2 0x16A0 JUMPI PUSH2 0x169F PUSH2 0x1646 JUMP JUMPDEST JUMPDEST SWAP3 SWAP2 POP POP JUMP JUMPDEST PUSH32 0x436F6C6C61746572616C4D616E616765723A20496E73756666696369656E7420 PUSH0 DUP3 ADD MSTORE PUSH32 0x62616C616E636500000000000000000000000000000000000000000000000000 PUSH1 0x20 DUP3 ADD MSTORE POP JUMP JUMPDEST PUSH0 PUSH2 0x1700 PUSH1 0x27 DUP4 PUSH2 0x14E5 JUMP JUMPDEST SWAP2 POP PUSH2 0x170B DUP3 PUSH2 0x16A6 JUMP JUMPDEST PUSH1 0x40 DUP3 ADD SWAP1 POP SWAP2 SWAP1 POP JUMP JUMPDEST PUSH0 PUSH1 0x20 DUP3 ADD SWAP1 POP DUP2 DUP2 SUB PUSH0 DUP4 ADD MSTORE PUSH2 0x172D DUP2 PUSH2 0x16F4 JUMP JUMPDEST SWAP1 POP SWAP2 SWAP1 POP JUMP JUMPDEST PUSH0 PUSH2 0x173E DUP3 PUSH2 0x12ED JUMP JUMPDEST SWAP2 POP PUSH2 0x1749 DUP4 PUSH2 0x12ED JUMP JUMPDEST SWAP3 POP DUP3 DUP3 SUB SWAP1 POP DUP2 DUP2 GT ISZERO PUSH2 0x1761 JUMPI PUSH2 0x1760 PUSH2 0x1646 JUMP JUMPDEST JUMPDEST SWAP3 SWAP2 POP POP JUMP INVALID LOG2 PUSH5 0x6970667358 0x22 SLT KECCAK256 PUSH5 0x2D8FD9B18A POP 0xB0 0xED 0xE8 PUSH19 0x2971816E063C6E628CA6A25CC29BB63D678485 SLT 0xB8 PUSH5 0x736F6C6343 STOP ADDMOD BYTE STOP CALLER "
				},
				"gasEstimates": {
					"creation": {
						"codeDepositCost": "1209000",
						"executionCost": "infinite",
						"totalCost": "infinite"
					},
					"external": {
						"depositNativeCollateral()": "infinite",
						"depositStableCollateral(uint256)": "infinite",
						"getCollateralBalance(address)": "infinite",
						"liquidateCollateral(address)": "57093",
						"owner()": "2652",
						"pause()": "infinite",
						"paused()": "2584",
						"releaseFunds(address)": "infinite",
						"renounceOwnership()": "infinite",
						"stablecoinDepositToken()": "infinite",
						"totalCollateralNative()": "2470",
						"totalCollateralStable()": "2535",
						"transferOwnership(address)": "infinite",
						"unpause()": "infinite",
						"userCollateralNative(address)": "2870",
						"userCollateralStable(address)": "2892",
						"withdrawNativeCollateral(uint256)": "infinite",
						"withdrawStableCollateral(uint256)": "infinite"
					}
				},
				"methodIdentifiers": {
					"depositNativeCollateral()": "5b96a6ec",
					"depositStableCollateral(uint256)": "31be0e0e",
					"getCollateralBalance(address)": "2703ee85",
					"liquidateCollateral(address)": "1fea5a6b",
					"owner()": "8da5cb5b",
					"pause()": "8456cb59",
					"paused()": "5c975abb",
					"releaseFunds(address)": "192e7a7b",
					"renounceOwnership()": "715018a6",
					"stablecoinDepositToken()": "ef4c61bf",
					"totalCollateralNative()": "836e35c8",
					"totalCollateralStable()": "f813e6ab",
					"transferOwnership(address)": "f2fde38b",
					"unpause()": "3f4ba83a",
					"userCollateralNative(address)": "254eb80b",
					"userCollateralStable(address)": "26c62f90",
					"withdrawNativeCollateral(uint256)": "f6da3c90",
					"withdrawStableCollateral(uint256)": "da18e610"
				}
			},
			"storageLayout": {
				"storage": [
					{
						"astId": 1107,
						"contract": "CollateralManager.sol:CollateralManager",
						"label": "_status",
						"offset": 0,
						"slot": "0",
						"type": "t_uint256"
					},
					{
						"astId": 988,
						"contract": "CollateralManager.sol:CollateralManager",
						"label": "_paused",
						"offset": 0,
						"slot": "1",
						"type": "t_bool"
					},
					{
						"astId": 54,
						"contract": "CollateralManager.sol:CollateralManager",
						"label": "_owner",
						"offset": 1,
						"slot": "1",
						"type": "t_address"
					},
					{
						"astId": 1180,
						"contract": "CollateralManager.sol:CollateralManager",
						"label": "stablecoinDepositToken",
						"offset": 0,
						"slot": "2",
						"type": "t_contract(ERC20)845"
					},
					{
						"astId": 1182,
						"contract": "CollateralManager.sol:CollateralManager",
						"label": "totalCollateralNative",
						"offset": 0,
						"slot": "3",
						"type": "t_uint256"
					},
					{
						"astId": 1184,
						"contract": "CollateralManager.sol:CollateralManager",
						"label": "totalCollateralStable",
						"offset": 0,
						"slot": "4",
						"type": "t_uint256"
					},
					{
						"astId": 1188,
						"contract": "CollateralManager.sol:CollateralManager",
						"label": "userCollateralNative",
						"offset": 0,
						"slot": "5",
						"type": "t_mapping(t_address,t_uint256)"
					},
					{
						"astId": 1192,
						"contract": "CollateralManager.sol:CollateralManager",
						"label": "userCollateralStable",
						"offset": 0,
						"slot": "6",
						"type": "t_mapping(t_address,t_uint256)"
					}
				],
				"types": {
					"t_address": {
						"encoding": "inplace",
						"label": "address",
						"numberOfBytes": "20"
					},
					"t_bool": {
						"encoding": "inplace",
						"label": "bool",
						"numberOfBytes": "1"
					},
					"t_contract(ERC20)845": {
						"encoding": "inplace",
						"label": "contract ERC20",
						"numberOfBytes": "20"
					},
					"t_mapping(t_address,t_uint256)": {
						"encoding": "mapping",
						"key": "t_address",
						"label": "mapping(address => uint256)",
						"numberOfBytes": "32",
						"value": "t_uint256"
					},
					"t_uint256": {
						"encoding": "inplace",
						"label": "uint256",
						"numberOfBytes": "32"
					}
				}
			},
			"userdoc": {
				"kind": "user",
				"methods": {},
				"version": 1
			}
		}
	}
}