{
	"contracts/LoanManagerV2.sol": {
		"MellowFinanceLoanManager": {
			"abi": [
				{
					"inputs": [],
					"stateMutability": "nonpayable",
					"type": "constructor"
				},
				{
					"inputs": [],
					"name": "EnforcedPause",
					"type": "error"
				},
				{
					"inputs": [],
					"name": "ExpectedPause",
					"type": "error"
				},
				{
					"inputs": [
						{
							"internalType": "address",
							"name": "owner",
							"type": "address"
						}
					],
					"name": "OwnableInvalidOwner",
					"type": "error"
				},
				{
					"inputs": [
						{
							"internalType": "address",
							"name": "account",
							"type": "address"
						}
					],
					"name": "OwnableUnauthorizedAccount",
					"type": "error"
				},
				{
					"inputs": [],
					"name": "ReentrancyGuardReentrantCall",
					"type": "error"
				},
				{
					"anonymous": false,
					"inputs": [],
					"name": "EmergencyPaused",
					"type": "event"
				},
				{
					"anonymous": false,
					"inputs": [],
					"name": "EmergencyUnpaused",
					"type": "event"
				},
				{
					"anonymous": false,
					"inputs": [
						{
							"indexed": false,
							"internalType": "uint256",
							"name": "amount",
							"type": "uint256"
						}
					],
					"name": "FundAdded",
					"type": "event"
				},
				{
					"anonymous": false,
					"inputs": [
						{
							"indexed": true,
							"internalType": "address",
							"name": "user",
							"type": "address"
						},
						{
							"indexed": false,
							"internalType": "uint256",
							"name": "collateralLiquidated",
							"type": "uint256"
						}
					],
					"name": "LoanDefaulted",
					"type": "event"
				},
				{
					"anonymous": false,
					"inputs": [
						{
							"indexed": true,
							"internalType": "address",
							"name": "user",
							"type": "address"
						},
						{
							"indexed": false,
							"internalType": "uint256",
							"name": "amount",
							"type": "uint256"
						},
						{
							"indexed": false,
							"internalType": "uint256",
							"name": "collateral",
							"type": "uint256"
						}
					],
					"name": "LoanIssued",
					"type": "event"
				},
				{
					"anonymous": false,
					"inputs": [
						{
							"indexed": true,
							"internalType": "address",
							"name": "user",
							"type": "address"
						},
						{
							"indexed": false,
							"internalType": "uint256",
							"name": "amount",
							"type": "uint256"
						},
						{
							"indexed": false,
							"internalType": "uint256",
							"name": "collateralReturned",
							"type": "uint256"
						}
					],
					"name": "LoanRepaid",
					"type": "event"
				},
				{
					"anonymous": false,
					"inputs": [
						{
							"indexed": true,
							"internalType": "address",
							"name": "user",
							"type": "address"
						},
						{
							"indexed": false,
							"internalType": "uint256",
							"name": "amount",
							"type": "uint256"
						},
						{
							"indexed": false,
							"internalType": "uint256",
							"name": "collateral",
							"type": "uint256"
						}
					],
					"name": "LoanRequested",
					"type": "event"
				},
				{
					"anonymous": false,
					"inputs": [
						{
							"indexed": true,
							"internalType": "address",
							"name": "previousOwner",
							"type": "address"
						},
						{
							"indexed": true,
							"internalType": "address",
							"name": "newOwner",
							"type": "address"
						}
					],
					"name": "OwnershipTransferred",
					"type": "event"
				},
				{
					"anonymous": false,
					"inputs": [
						{
							"indexed": false,
							"internalType": "address",
							"name": "account",
							"type": "address"
						}
					],
					"name": "Paused",
					"type": "event"
				},
				{
					"anonymous": false,
					"inputs": [
						{
							"indexed": false,
							"internalType": "address",
							"name": "account",
							"type": "address"
						}
					],
					"name": "Unpaused",
					"type": "event"
				},
				{
					"inputs": [
						{
							"internalType": "uint256",
							"name": "_amount",
							"type": "uint256"
						}
					],
					"name": "addFunds",
					"outputs": [],
					"stateMutability": "nonpayable",
					"type": "function"
				},
				{
					"inputs": [],
					"name": "baseInterestRate",
					"outputs": [
						{
							"internalType": "uint256",
							"name": "",
							"type": "uint256"
						}
					],
					"stateMutability": "view",
					"type": "function"
				},
				{
					"inputs": [],
					"name": "cUSDToken",
					"outputs": [
						{
							"internalType": "contract ERC20",
							"name": "",
							"type": "address"
						}
					],
					"stateMutability": "view",
					"type": "function"
				},
				{
					"inputs": [
						{
							"internalType": "address",
							"name": "_user",
							"type": "address"
						}
					],
					"name": "calculateLoanWithInterest",
					"outputs": [
						{
							"internalType": "uint256",
							"name": "",
							"type": "uint256"
						}
					],
					"stateMutability": "view",
					"type": "function"
				},
				{
					"inputs": [],
					"name": "collateralManager",
					"outputs": [
						{
							"internalType": "contract CollateralManager",
							"name": "",
							"type": "address"
						}
					],
					"stateMutability": "view",
					"type": "function"
				},
				{
					"inputs": [],
					"name": "defaultDuration",
					"outputs": [
						{
							"internalType": "uint256",
							"name": "",
							"type": "uint256"
						}
					],
					"stateMutability": "view",
					"type": "function"
				},
				{
					"inputs": [
						{
							"internalType": "address",
							"name": "_user",
							"type": "address"
						},
						{
							"internalType": "uint256",
							"name": "_extraTime",
							"type": "uint256"
						}
					],
					"name": "extendLoanDuration",
					"outputs": [],
					"stateMutability": "nonpayable",
					"type": "function"
				},
				{
					"inputs": [],
					"name": "fundPool",
					"outputs": [
						{
							"internalType": "uint256",
							"name": "",
							"type": "uint256"
						}
					],
					"stateMutability": "view",
					"type": "function"
				},
				{
					"inputs": [],
					"name": "getNativePrice",
					"outputs": [
						{
							"internalType": "int256",
							"name": "",
							"type": "int256"
						}
					],
					"stateMutability": "view",
					"type": "function"
				},
				{
					"inputs": [],
					"name": "getStablePrice",
					"outputs": [
						{
							"internalType": "int256",
							"name": "",
							"type": "int256"
						}
					],
					"stateMutability": "view",
					"type": "function"
				},
				{
					"inputs": [
						{
							"internalType": "address",
							"name": "_user",
							"type": "address"
						}
					],
					"name": "issueLoan",
					"outputs": [],
					"stateMutability": "nonpayable",
					"type": "function"
				},
				{
					"inputs": [
						{
							"internalType": "address",
							"name": "_user",
							"type": "address"
						}
					],
					"name": "liquidateCollateral",
					"outputs": [],
					"stateMutability": "nonpayable",
					"type": "function"
				},
				{
					"inputs": [],
					"name": "owner",
					"outputs": [
						{
							"internalType": "address",
							"name": "",
							"type": "address"
						}
					],
					"stateMutability": "view",
					"type": "function"
				},
				{
					"inputs": [],
					"name": "pause",
					"outputs": [],
					"stateMutability": "nonpayable",
					"type": "function"
				},
				{
					"inputs": [],
					"name": "paused",
					"outputs": [
						{
							"internalType": "bool",
							"name": "",
							"type": "bool"
						}
					],
					"stateMutability": "view",
					"type": "function"
				},
				{
					"inputs": [],
					"name": "renounceOwnership",
					"outputs": [],
					"stateMutability": "nonpayable",
					"type": "function"
				},
				{
					"inputs": [
						{
							"internalType": "uint256",
							"name": "_repayAmount",
							"type": "uint256"
						}
					],
					"name": "repayLoan",
					"outputs": [],
					"stateMutability": "nonpayable",
					"type": "function"
				},
				{
					"inputs": [
						{
							"internalType": "uint256",
							"name": "_loanAmount",
							"type": "uint256"
						},
						{
							"internalType": "uint256",
							"name": "_desiredInterestRate",
							"type": "uint256"
						}
					],
					"name": "requestLoan",
					"outputs": [],
					"stateMutability": "nonpayable",
					"type": "function"
				},
				{
					"inputs": [],
					"name": "returnFunds",
					"outputs": [],
					"stateMutability": "nonpayable",
					"type": "function"
				},
				{
					"inputs": [
						{
							"internalType": "address",
							"name": "newOwner",
							"type": "address"
						}
					],
					"name": "transferOwnership",
					"outputs": [],
					"stateMutability": "nonpayable",
					"type": "function"
				},
				{
					"inputs": [],
					"name": "unpause",
					"outputs": [],
					"stateMutability": "nonpayable",
					"type": "function"
				},
				{
					"inputs": [
						{
							"internalType": "address",
							"name": "",
							"type": "address"
						}
					],
					"name": "userCreditScores",
					"outputs": [
						{
							"internalType": "uint256",
							"name": "totalLoansRepaid",
							"type": "uint256"
						},
						{
							"internalType": "uint256",
							"name": "totalLoansDefaulted",
							"type": "uint256"
						},
						{
							"internalType": "uint256",
							"name": "creditScore",
							"type": "uint256"
						}
					],
					"stateMutability": "view",
					"type": "function"
				},
				{
					"inputs": [
						{
							"internalType": "address",
							"name": "",
							"type": "address"
						}
					],
					"name": "userLoans",
					"outputs": [
						{
							"internalType": "uint256",
							"name": "amount",
							"type": "uint256"
						},
						{
							"internalType": "uint256",
							"name": "interestRate",
							"type": "uint256"
						},
						{
							"internalType": "uint256",
							"name": "startTime",
							"type": "uint256"
						},
						{
							"internalType": "uint256",
							"name": "collateral",
							"type": "uint256"
						},
						{
							"internalType": "uint256",
							"name": "collateralRatio",
							"type": "uint256"
						},
						{
							"internalType": "bool",
							"name": "isRepaid",
							"type": "bool"
						},
						{
							"internalType": "bool",
							"name": "isDefaulted",
							"type": "bool"
						}
					],
					"stateMutability": "view",
					"type": "function"
				}
			],
			"devdoc": {
				"errors": {
					"EnforcedPause()": [
						{
							"details": "The operation failed because the contract is paused."
						}
					],
					"ExpectedPause()": [
						{
							"details": "The operation failed because the contract is not paused."
						}
					],
					"OwnableInvalidOwner(address)": [
						{
							"details": "The owner is not a valid owner account. (eg. `address(0)`)"
						}
					],
					"OwnableUnauthorizedAccount(address)": [
						{
							"details": "The caller account is not authorized to perform an operation."
						}
					],
					"ReentrancyGuardReentrantCall()": [
						{
							"details": "Unauthorized reentrant call."
						}
					]
				},
				"events": {
					"Paused(address)": {
						"details": "Emitted when the pause is triggered by `account`."
					},
					"Unpaused(address)": {
						"details": "Emitted when the pause is lifted by `account`."
					}
				},
				"kind": "dev",
				"methods": {
					"owner()": {
						"details": "Returns the address of the current owner."
					},
					"paused()": {
						"details": "Returns true if the contract is paused, and false otherwise."
					},
					"renounceOwnership()": {
						"details": "Leaves the contract without owner. It will not be possible to call `onlyOwner` functions. Can only be called by the current owner. NOTE: Renouncing ownership will leave the contract without an owner, thereby disabling any functionality that is only available to the owner."
					},
					"transferOwnership(address)": {
						"details": "Transfers ownership of the contract to a new account (`newOwner`). Can only be called by the current owner."
					}
				},
				"version": 1
			},
			"evm": {
				"assembly": "    /* \"contracts/LoanManagerV2.sol\":484:8629  contract MellowFinanceLoanManager is ReentrancyGuard, Ownable, Pausable {... */\n  mstore(0x40, 0x80)\n    /* \"contracts/LoanManagerV2.sol\":703:710  15 days */\n  0x13c680\n    /* \"contracts/LoanManagerV2.sol\":670:710  uint256 public defaultDuration = 15 days */\n  0x05\n  sstore\n    /* \"contracts/LoanManagerV2.sol\":803:804  5 */\n  0x05\n    /* \"contracts/LoanManagerV2.sol\":769:804  uint256 public baseInterestRate = 5 */\n  0x06\n  sstore\n    /* \"contracts/LoanManagerV2.sol\":1848:2386  constructor() Ownable(msg.sender) {... */\n  callvalue\n  dup1\n  iszero\n  tag_1\n  jumpi\n  0x00\n  dup1\n  revert\ntag_1:\n  pop\n    /* \"contracts/LoanManagerV2.sol\":1870:1880  msg.sender */\n  caller\n    /* \"@openzeppelin/contracts/utils/ReentrancyGuard.sol\":1713:1714  1 */\n  0x01\n    /* \"@openzeppelin/contracts/utils/ReentrancyGuard.sol\":1917:1924  _status */\n  0x00\n    /* \"@openzeppelin/contracts/utils/ReentrancyGuard.sol\":1917:1938  _status = NOT_ENTERED */\n  dup2\n  swap1\n  sstore\n  pop\n    /* \"@openzeppelin/contracts/access/Ownable.sol\":1297:1298  0 */\n  0x00\n    /* \"@openzeppelin/contracts/access/Ownable.sol\":1273:1299  initialOwner == address(0) */\n  0xffffffffffffffffffffffffffffffffffffffff\n  and\n    /* \"@openzeppelin/contracts/access/Ownable.sol\":1273:1285  initialOwner */\n  dup2\n    /* \"@openzeppelin/contracts/access/Ownable.sol\":1273:1299  initialOwner == address(0) */\n  0xffffffffffffffffffffffffffffffffffffffff\n  and\n  sub\n    /* \"@openzeppelin/contracts/access/Ownable.sol\":1269:1364  if (initialOwner == address(0)) {... */\n  tag_8\n  jumpi\n    /* \"@openzeppelin/contracts/access/Ownable.sol\":1350:1351  0 */\n  0x00\n    /* \"@openzeppelin/contracts/access/Ownable.sol\":1322:1353  OwnableInvalidOwner(address(0)) */\n  mload(0x40)\n  0x1e4fbdf700000000000000000000000000000000000000000000000000000000\n  dup2\n  mstore\n  0x04\n  add\n  tag_9\n  swap2\n  swap1\n  tag_10\n  jump\t// in\ntag_9:\n  mload(0x40)\n  dup1\n  swap2\n  sub\n  swap1\n  revert\n    /* \"@openzeppelin/contracts/access/Ownable.sol\":1269:1364  if (initialOwner == address(0)) {... */\ntag_8:\n    /* \"@openzeppelin/contracts/access/Ownable.sol\":1373:1405  _transferOwnership(initialOwner) */\n  tag_11\n    /* \"@openzeppelin/contracts/access/Ownable.sol\":1392:1404  initialOwner */\n  dup2\n    /* \"@openzeppelin/contracts/access/Ownable.sol\":1373:1391  _transferOwnership */\n  shl(0x20, tag_12)\n    /* \"@openzeppelin/contracts/access/Ownable.sol\":1373:1405  _transferOwnership(initialOwner) */\n  0x20\n  shr\n  jump\t// in\ntag_11:\n    /* \"@openzeppelin/contracts/access/Ownable.sol\":1225:1412  constructor(address initialOwner) {... */\n  pop\n    /* \"@openzeppelin/contracts/utils/Pausable.sol\":1241:1246  false */\n  0x00\n    /* \"@openzeppelin/contracts/utils/Pausable.sol\":1231:1238  _paused */\n  0x01\n  0x14\n    /* \"@openzeppelin/contracts/utils/Pausable.sol\":1231:1246  _paused = false */\n  0x0100\n  exp\n  dup2\n  sload\n  dup2\n  0xff\n  mul\n  not\n  and\n  swap1\n  dup4\n  iszero\n  iszero\n  mul\n  or\n  swap1\n  sstore\n  pop\n    /* \"contracts/LoanManagerV2.sol\":1910:1952  0x036CbD53842c5426634e7929541eC2318f3dCF7e */\n  0x036cbd53842c5426634e7929541ec2318f3dcf7e\n    /* \"contracts/LoanManagerV2.sol\":1892:1901  cUSDToken */\n  0x02\n  0x00\n    /* \"contracts/LoanManagerV2.sol\":1892:1954  cUSDToken = ERC20(0x036CbD53842c5426634e7929541eC2318f3dCF7e ) */\n  0x0100\n  exp\n  dup2\n  sload\n  dup2\n  0xffffffffffffffffffffffffffffffffffffffff\n  mul\n  not\n  and\n  swap1\n  dup4\n  0xffffffffffffffffffffffffffffffffffffffff\n  and\n  mul\n  or\n  swap1\n  sstore\n  pop\n    /* \"contracts/LoanManagerV2.sol\":2026:2068  0x7629C8b277f46B9B60cFC5e7EeFaE59c5D9a060C */\n  0x7629c8b277f46b9b60cfc5e7eefae59c5d9a060c\n    /* \"contracts/LoanManagerV2.sol\":1988:2005  collateralManager */\n  0x03\n  0x00\n    /* \"contracts/LoanManagerV2.sol\":1988:2069  collateralManager = CollateralManager(0x7629C8b277f46B9B60cFC5e7EeFaE59c5D9a060C) */\n  0x0100\n  exp\n  dup2\n  sload\n  dup2\n  0xffffffffffffffffffffffffffffffffffffffff\n  mul\n  not\n  and\n  swap1\n  dup4\n  0xffffffffffffffffffffffffffffffffffffffff\n  and\n  mul\n  or\n  swap1\n  sstore\n  pop\n    /* \"contracts/LoanManagerV2.sol\":2157:2199  0x3c65e28D357a37589e1C7C86044a9f44dDC17134 */\n  0x3c65e28d357a37589e1c7c86044a9f44ddc17134\n    /* \"contracts/LoanManagerV2.sol\":2117:2132  nativePriceFeed */\n  0x07\n  0x00\n    /* \"contracts/LoanManagerV2.sol\":2117:2200  nativePriceFeed = AggregatorV3Interface(0x3c65e28D357a37589e1C7C86044a9f44dDC17134) */\n  0x0100\n  exp\n  dup2\n  sload\n  dup2\n  0xffffffffffffffffffffffffffffffffffffffff\n  mul\n  not\n  and\n  swap1\n  dup4\n  0xffffffffffffffffffffffffffffffffffffffff\n  and\n  mul\n  or\n  swap1\n  sstore\n  pop\n    /* \"contracts/LoanManagerV2.sol\":2295:2337  0x3ec8593F930EA45ea58c968260e6e9FF53FC934f */\n  0x3ec8593f930ea45ea58c968260e6e9ff53fc934f\n    /* \"contracts/LoanManagerV2.sol\":2255:2270  stablePriceFeed */\n  0x08\n  0x00\n    /* \"contracts/LoanManagerV2.sol\":2255:2338  stablePriceFeed = AggregatorV3Interface(0x3ec8593F930EA45ea58c968260e6e9FF53FC934f) */\n  0x0100\n  exp\n  dup2\n  sload\n  dup2\n  0xffffffffffffffffffffffffffffffffffffffff\n  mul\n  not\n  and\n  swap1\n  dup4\n  0xffffffffffffffffffffffffffffffffffffffff\n  and\n  mul\n  or\n  swap1\n  sstore\n  pop\n    /* \"contracts/LoanManagerV2.sol\":484:8629  contract MellowFinanceLoanManager is ReentrancyGuard, Ownable, Pausable {... */\n  jump(tag_15)\n    /* \"@openzeppelin/contracts/access/Ownable.sol\":2912:3099  function _transferOwnership(address newOwner) internal virtual {... */\ntag_12:\n    /* \"@openzeppelin/contracts/access/Ownable.sol\":2985:3001  address oldOwner */\n  0x00\n    /* \"@openzeppelin/contracts/access/Ownable.sol\":3004:3010  _owner */\n  0x01\n  0x00\n  swap1\n  sload\n  swap1\n  0x0100\n  exp\n  swap1\n  div\n  0xffffffffffffffffffffffffffffffffffffffff\n  and\n    /* \"@openzeppelin/contracts/access/Ownable.sol\":2985:3010  address oldOwner = _owner */\n  swap1\n  pop\n    /* \"@openzeppelin/contracts/access/Ownable.sol\":3029:3037  newOwner */\n  dup2\n    /* \"@openzeppelin/contracts/access/Ownable.sol\":3020:3026  _owner */\n  0x01\n  0x00\n    /* \"@openzeppelin/contracts/access/Ownable.sol\":3020:3037  _owner = newOwner */\n  0x0100\n  exp\n  dup2\n  sload\n  dup2\n  0xffffffffffffffffffffffffffffffffffffffff\n  mul\n  not\n  and\n  swap1\n  dup4\n  0xffffffffffffffffffffffffffffffffffffffff\n  and\n  mul\n  or\n  swap1\n  sstore\n  pop\n    /* \"@openzeppelin/contracts/access/Ownable.sol\":3083:3091  newOwner */\n  dup2\n    /* \"@openzeppelin/contracts/access/Ownable.sol\":3052:3092  OwnershipTransferred(oldOwner, newOwner) */\n  0xffffffffffffffffffffffffffffffffffffffff\n  and\n    /* \"@openzeppelin/contracts/access/Ownable.sol\":3073:3081  oldOwner */\n  dup2\n    /* \"@openzeppelin/contracts/access/Ownable.sol\":3052:3092  OwnershipTransferred(oldOwner, newOwner) */\n  0xffffffffffffffffffffffffffffffffffffffff\n  and\n  0x8be0079c531659141344cd1fd0a4f28419497f9722a3daafe3b4186f6b6457e0\n  mload(0x40)\n  mload(0x40)\n  dup1\n  swap2\n  sub\n  swap1\n  log3\n    /* \"@openzeppelin/contracts/access/Ownable.sol\":2975:3099  {... */\n  pop\n    /* \"@openzeppelin/contracts/access/Ownable.sol\":2912:3099  function _transferOwnership(address newOwner) internal virtual {... */\n  pop\n  jump\t// out\n    /* \"#utility.yul\":7:133   */\ntag_17:\n    /* \"#utility.yul\":44:51   */\n  0x00\n    /* \"#utility.yul\":84:126   */\n  0xffffffffffffffffffffffffffffffffffffffff\n    /* \"#utility.yul\":77:82   */\n  dup3\n    /* \"#utility.yul\":73:127   */\n  and\n    /* \"#utility.yul\":62:127   */\n  swap1\n  pop\n    /* \"#utility.yul\":7:133   */\n  swap2\n  swap1\n  pop\n  jump\t// out\n    /* \"#utility.yul\":139:235   */\ntag_18:\n    /* \"#utility.yul\":176:183   */\n  0x00\n    /* \"#utility.yul\":205:229   */\n  tag_23\n    /* \"#utility.yul\":223:228   */\n  dup3\n    /* \"#utility.yul\":205:229   */\n  tag_17\n  jump\t// in\ntag_23:\n    /* \"#utility.yul\":194:229   */\n  swap1\n  pop\n    /* \"#utility.yul\":139:235   */\n  swap2\n  swap1\n  pop\n  jump\t// out\n    /* \"#utility.yul\":241:359   */\ntag_19:\n    /* \"#utility.yul\":328:352   */\n  tag_25\n    /* \"#utility.yul\":346:351   */\n  dup2\n    /* \"#utility.yul\":328:352   */\n  tag_18\n  jump\t// in\ntag_25:\n    /* \"#utility.yul\":323:326   */\n  dup3\n    /* \"#utility.yul\":316:353   */\n  mstore\n    /* \"#utility.yul\":241:359   */\n  pop\n  pop\n  jump\t// out\n    /* \"#utility.yul\":365:587   */\ntag_10:\n    /* \"#utility.yul\":458:462   */\n  0x00\n    /* \"#utility.yul\":496:498   */\n  0x20\n    /* \"#utility.yul\":485:494   */\n  dup3\n    /* \"#utility.yul\":481:499   */\n  add\n    /* \"#utility.yul\":473:499   */\n  swap1\n  pop\n    /* \"#utility.yul\":509:580   */\n  tag_27\n    /* \"#utility.yul\":577:578   */\n  0x00\n    /* \"#utility.yul\":566:575   */\n  dup4\n    /* \"#utility.yul\":562:579   */\n  add\n    /* \"#utility.yul\":553:559   */\n  dup5\n    /* \"#utility.yul\":509:580   */\n  tag_19\n  jump\t// in\ntag_27:\n    /* \"#utility.yul\":365:587   */\n  swap3\n  swap2\n  pop\n  pop\n  jump\t// out\n    /* \"contracts/LoanManagerV2.sol\":484:8629  contract MellowFinanceLoanManager is ReentrancyGuard, Ownable, Pausable {... */\ntag_15:\n  dataSize(sub_0)\n  dup1\n  dataOffset(sub_0)\n  0x00\n  codecopy\n  0x00\n  return\nstop\n\nsub_0: assembly {\n        /* \"contracts/LoanManagerV2.sol\":484:8629  contract MellowFinanceLoanManager is ReentrancyGuard, Ownable, Pausable {... */\n      mstore(0x40, 0x80)\n      callvalue\n      dup1\n      iszero\n      tag_1\n      jumpi\n      0x00\n      dup1\n      revert\n    tag_1:\n      pop\n      jumpi(tag_2, lt(calldatasize, 0x04))\n      shr(0xe0, calldataload(0x00))\n      dup1\n      0x70f37d27\n      gt\n      tag_26\n      jumpi\n      dup1\n      0xab7b1c89\n      gt\n      tag_27\n      jumpi\n      dup1\n      0xab7b1c89\n      eq\n      tag_20\n      jumpi\n      dup1\n      0xafd92762\n      eq\n      tag_21\n      jumpi\n      dup1\n      0xbe999705\n      eq\n      tag_22\n      jumpi\n      dup1\n      0xe9e190a3\n      eq\n      tag_23\n      jumpi\n      dup1\n      0xec9e0393\n      eq\n      tag_24\n      jumpi\n      dup1\n      0xf2fde38b\n      eq\n      tag_25\n      jumpi\n      jump(tag_2)\n    tag_27:\n      dup1\n      0x70f37d27\n      eq\n      tag_14\n      jumpi\n      dup1\n      0x715018a6\n      eq\n      tag_15\n      jumpi\n      dup1\n      0x8456cb59\n      eq\n      tag_16\n      jumpi\n      dup1\n      0x8da5cb5b\n      eq\n      tag_17\n      jumpi\n      dup1\n      0x900629e3\n      eq\n      tag_18\n      jumpi\n      dup1\n      0xaa452fa6\n      eq\n      tag_19\n      jumpi\n      jump(tag_2)\n    tag_26:\n      dup1\n      0x23be345c\n      gt\n      tag_28\n      jumpi\n      dup1\n      0x23be345c\n      eq\n      tag_8\n      jumpi\n      dup1\n      0x2af7e2ea\n      eq\n      tag_9\n      jumpi\n      dup1\n      0x3f4ba83a\n      eq\n      tag_10\n      jumpi\n      dup1\n      0x449d31bb\n      eq\n      tag_11\n      jumpi\n      dup1\n      0x5c975abb\n      eq\n      tag_12\n      jumpi\n      dup1\n      0x61cb6afd\n      eq\n      tag_13\n      jumpi\n      jump(tag_2)\n    tag_28:\n      dup1\n      0x0ea86ad8\n      eq\n      tag_3\n      jumpi\n      dup1\n      0x17430c9e\n      eq\n      tag_4\n      jumpi\n      dup1\n      0x1eb5ea2e\n      eq\n      tag_5\n      jumpi\n      dup1\n      0x1fea5a6b\n      eq\n      tag_6\n      jumpi\n      dup1\n      0x22f9913e\n      eq\n      tag_7\n      jumpi\n    tag_2:\n      0x00\n      dup1\n      revert\n        /* \"contracts/LoanManagerV2.sol\":563:585  ERC20 public cUSDToken */\n    tag_3:\n      tag_29\n      tag_30\n      jump\t// in\n    tag_29:\n      mload(0x40)\n      tag_31\n      swap2\n      swap1\n      tag_32\n      jump\t// in\n    tag_31:\n      mload(0x40)\n      dup1\n      swap2\n      sub\n      swap1\n      return\n        /* \"contracts/LoanManagerV2.sol\":2999:3142  function getNativePrice() public view returns (int) {... */\n    tag_4:\n      tag_33\n      tag_34\n      jump\t// in\n    tag_33:\n      mload(0x40)\n      tag_35\n      swap2\n      swap1\n      tag_36\n      jump\t// in\n    tag_35:\n      mload(0x40)\n      dup1\n      swap2\n      sub\n      swap1\n      return\n        /* \"contracts/LoanManagerV2.sol\":8511:8627  function returnFunds() public onlyOwner {... */\n    tag_5:\n      tag_37\n      tag_38\n      jump\t// in\n    tag_37:\n      stop\n        /* \"contracts/LoanManagerV2.sol\":7923:8435  function liquidateCollateral(address _user) external onlyOwner nonReentrant {... */\n    tag_6:\n      tag_39\n      0x04\n      dup1\n      calldatasize\n      sub\n      dup2\n      add\n      swap1\n      tag_40\n      swap2\n      swap1\n      tag_41\n      jump\t// in\n    tag_40:\n      tag_42\n      jump\t// in\n    tag_39:\n      stop\n        /* \"contracts/LoanManagerV2.sol\":6763:7001  function extendLoanDuration(address _user, uint256 _extraTime) external onlyOwner {... */\n    tag_7:\n      tag_43\n      0x04\n      dup1\n      calldatasize\n      sub\n      dup2\n      add\n      swap1\n      tag_44\n      swap2\n      swap1\n      tag_45\n      jump\t// in\n    tag_44:\n      tag_46\n      jump\t// in\n    tag_43:\n      stop\n        /* \"contracts/LoanManagerV2.sol\":592:634  CollateralManager public collateralManager */\n    tag_8:\n      tag_47\n      tag_48\n      jump\t// in\n    tag_47:\n      mload(0x40)\n      tag_49\n      swap2\n      swap1\n      tag_50\n      jump\t// in\n    tag_49:\n      mload(0x40)\n      dup1\n      swap2\n      sub\n      swap1\n      return\n        /* \"contracts/LoanManagerV2.sol\":670:710  uint256 public defaultDuration = 15 days */\n    tag_9:\n      tag_51\n      tag_52\n      jump\t// in\n    tag_51:\n      mload(0x40)\n      tag_53\n      swap2\n      swap1\n      tag_54\n      jump\t// in\n    tag_53:\n      mload(0x40)\n      dup1\n      swap2\n      sub\n      swap1\n      return\n        /* \"contracts/LoanManagerV2.sol\":2815:2914  function unpause() external onlyOwner {... */\n    tag_10:\n      tag_55\n      tag_56\n      jump\t// in\n    tag_55:\n      stop\n        /* \"contracts/LoanManagerV2.sol\":1361:1415  mapping(address => UserCredit) public userCreditScores */\n    tag_11:\n      tag_57\n      0x04\n      dup1\n      calldatasize\n      sub\n      dup2\n      add\n      swap1\n      tag_58\n      swap2\n      swap1\n      tag_41\n      jump\t// in\n    tag_58:\n      tag_59\n      jump\t// in\n    tag_57:\n      mload(0x40)\n      tag_60\n      swap4\n      swap3\n      swap2\n      swap1\n      tag_61\n      jump\t// in\n    tag_60:\n      mload(0x40)\n      dup1\n      swap2\n      sub\n      swap1\n      return\n        /* \"@openzeppelin/contracts/utils/Pausable.sol\":1850:1934  function paused() public view virtual returns (bool) {... */\n    tag_12:\n      tag_62\n      tag_63\n      jump\t// in\n    tag_62:\n      mload(0x40)\n      tag_64\n      swap2\n      swap1\n      tag_65\n      jump\t// in\n    tag_64:\n      mload(0x40)\n      dup1\n      swap2\n      sub\n      swap1\n      return\n        /* \"contracts/LoanManagerV2.sol\":6343:6713  function calculateLoanWithInterest(address _user) public view returns (uint256) {... */\n    tag_13:\n      tag_66\n      0x04\n      dup1\n      calldatasize\n      sub\n      dup2\n      add\n      swap1\n      tag_67\n      swap2\n      swap1\n      tag_41\n      jump\t// in\n    tag_67:\n      tag_68\n      jump\t// in\n    tag_66:\n      mload(0x40)\n      tag_69\n      swap2\n      swap1\n      tag_54\n      jump\t// in\n    tag_69:\n      mload(0x40)\n      dup1\n      swap2\n      sub\n      swap1\n      return\n        /* \"contracts/LoanManagerV2.sol\":640:663  uint256 public fundPool */\n    tag_14:\n      tag_70\n      tag_71\n      jump\t// in\n    tag_70:\n      mload(0x40)\n      tag_72\n      swap2\n      swap1\n      tag_54\n      jump\t// in\n    tag_72:\n      mload(0x40)\n      dup1\n      swap2\n      sub\n      swap1\n      return\n        /* \"@openzeppelin/contracts/access/Ownable.sol\":2293:2394  function renounceOwnership() public virtual onlyOwner {... */\n    tag_15:\n      tag_73\n      tag_74\n      jump\t// in\n    tag_73:\n      stop\n        /* \"contracts/LoanManagerV2.sol\":2716:2809  function pause() external onlyOwner {... */\n    tag_16:\n      tag_75\n      tag_76\n      jump\t// in\n    tag_75:\n      stop\n        /* \"@openzeppelin/contracts/access/Ownable.sol\":1638:1723  function owner() public view virtual returns (address) {... */\n    tag_17:\n      tag_77\n      tag_78\n      jump\t// in\n    tag_77:\n      mload(0x40)\n      tag_79\n      swap2\n      swap1\n      tag_80\n      jump\t// in\n    tag_79:\n      mload(0x40)\n      dup1\n      swap2\n      sub\n      swap1\n      return\n        /* \"contracts/LoanManagerV2.sol\":5160:5517  function issueLoan(address _user) external onlyOwner whenNotPaused {... */\n    tag_18:\n      tag_81\n      0x04\n      dup1\n      calldatasize\n      sub\n      dup2\n      add\n      swap1\n      tag_82\n      swap2\n      swap1\n      tag_41\n      jump\t// in\n    tag_82:\n      tag_83\n      jump\t// in\n    tag_81:\n      stop\n        /* \"contracts/LoanManagerV2.sol\":3416:5102  function requestLoan(uint256 _loanAmount, uint256 _desiredInterestRate) external nonReentrant whenNotPaused {... */\n    tag_19:\n      tag_84\n      0x04\n      dup1\n      calldatasize\n      sub\n      dup2\n      add\n      swap1\n      tag_85\n      swap2\n      swap1\n      tag_86\n      jump\t// in\n    tag_85:\n      tag_87\n      jump\t// in\n    tag_84:\n      stop\n        /* \"contracts/LoanManagerV2.sol\":5575:6337  function repayLoan(uint256 _repayAmount) external nonReentrant whenNotPaused {... */\n    tag_20:\n      tag_88\n      0x04\n      dup1\n      calldatasize\n      sub\n      dup2\n      add\n      swap1\n      tag_89\n      swap2\n      swap1\n      tag_90\n      jump\t// in\n    tag_89:\n      tag_91\n      jump\t// in\n    tag_88:\n      stop\n        /* \"contracts/LoanManagerV2.sol\":769:804  uint256 public baseInterestRate = 5 */\n    tag_21:\n      tag_92\n      tag_93\n      jump\t// in\n    tag_92:\n      mload(0x40)\n      tag_94\n      swap2\n      swap1\n      tag_54\n      jump\t// in\n    tag_94:\n      mload(0x40)\n      dup1\n      swap2\n      sub\n      swap1\n      return\n        /* \"contracts/LoanManagerV2.sol\":7629:7866  function addFunds(uint256 _amount) external onlyOwner {... */\n    tag_22:\n      tag_95\n      0x04\n      dup1\n      calldatasize\n      sub\n      dup2\n      add\n      swap1\n      tag_96\n      swap2\n      swap1\n      tag_90\n      jump\t// in\n    tag_96:\n      tag_97\n      jump\t// in\n    tag_95:\n      stop\n        /* \"contracts/LoanManagerV2.sol\":1314:1355  mapping(address => Loan) public userLoans */\n    tag_23:\n      tag_98\n      0x04\n      dup1\n      calldatasize\n      sub\n      dup2\n      add\n      swap1\n      tag_99\n      swap2\n      swap1\n      tag_41\n      jump\t// in\n    tag_99:\n      tag_100\n      jump\t// in\n    tag_98:\n      mload(0x40)\n      tag_101\n      swap8\n      swap7\n      swap6\n      swap5\n      swap4\n      swap3\n      swap2\n      swap1\n      tag_102\n      jump\t// in\n    tag_101:\n      mload(0x40)\n      dup1\n      swap2\n      sub\n      swap1\n      return\n        /* \"contracts/LoanManagerV2.sol\":3214:3357  function getStablePrice() public view returns (int) {... */\n    tag_24:\n      tag_103\n      tag_104\n      jump\t// in\n    tag_103:\n      mload(0x40)\n      tag_105\n      swap2\n      swap1\n      tag_36\n      jump\t// in\n    tag_105:\n      mload(0x40)\n      dup1\n      swap2\n      sub\n      swap1\n      return\n        /* \"@openzeppelin/contracts/access/Ownable.sol\":2543:2758  function transferOwnership(address newOwner) public virtual onlyOwner {... */\n    tag_25:\n      tag_106\n      0x04\n      dup1\n      calldatasize\n      sub\n      dup2\n      add\n      swap1\n      tag_107\n      swap2\n      swap1\n      tag_41\n      jump\t// in\n    tag_107:\n      tag_108\n      jump\t// in\n    tag_106:\n      stop\n        /* \"contracts/LoanManagerV2.sol\":563:585  ERC20 public cUSDToken */\n    tag_30:\n      0x02\n      0x00\n      swap1\n      sload\n      swap1\n      0x0100\n      exp\n      swap1\n      div\n      0xffffffffffffffffffffffffffffffffffffffff\n      and\n      dup2\n      jump\t// out\n        /* \"contracts/LoanManagerV2.sol\":2999:3142  function getNativePrice() public view returns (int) {... */\n    tag_34:\n        /* \"contracts/LoanManagerV2.sol\":3046:3049  int */\n      0x00\n        /* \"contracts/LoanManagerV2.sol\":3064:3073  int price */\n      dup1\n        /* \"contracts/LoanManagerV2.sol\":3080:3095  nativePriceFeed */\n      0x07\n      0x00\n      swap1\n      sload\n      swap1\n      0x0100\n      exp\n      swap1\n      div\n      0xffffffffffffffffffffffffffffffffffffffff\n      and\n        /* \"contracts/LoanManagerV2.sol\":3080:3111  nativePriceFeed.latestRoundData */\n      0xffffffffffffffffffffffffffffffffffffffff\n      and\n      0xfeaf968c\n        /* \"contracts/LoanManagerV2.sol\":3080:3113  nativePriceFeed.latestRoundData() */\n      mload(0x40)\n      dup2\n      0xffffffff\n      and\n      0xe0\n      shl\n      dup2\n      mstore\n      0x04\n      add\n      0xa0\n      mload(0x40)\n      dup1\n      dup4\n      sub\n      dup2\n      dup7\n      gas\n      staticcall\n      iszero\n      dup1\n      iszero\n      tag_111\n      jumpi\n      returndatasize\n      0x00\n      dup1\n      returndatacopy\n      revert(0x00, returndatasize)\n    tag_111:\n      pop\n      pop\n      pop\n      pop\n      mload(0x40)\n      returndatasize\n      not(0x1f)\n      0x1f\n      dup3\n      add\n      and\n      dup3\n      add\n      dup1\n      0x40\n      mstore\n      pop\n      dup2\n      add\n      swap1\n      tag_112\n      swap2\n      swap1\n      tag_113\n      jump\t// in\n    tag_112:\n        /* \"contracts/LoanManagerV2.sol\":3061:3113  (, int price,,,) = nativePriceFeed.latestRoundData() */\n      pop\n      pop\n      pop\n      swap2\n      pop\n      pop\n        /* \"contracts/LoanManagerV2.sol\":3130:3135  price */\n      dup1\n        /* \"contracts/LoanManagerV2.sol\":3123:3135  return price */\n      swap2\n      pop\n      pop\n        /* \"contracts/LoanManagerV2.sol\":2999:3142  function getNativePrice() public view returns (int) {... */\n      swap1\n      jump\t// out\n        /* \"contracts/LoanManagerV2.sol\":8511:8627  function returnFunds() public onlyOwner {... */\n    tag_38:\n        /* \"@openzeppelin/contracts/access/Ownable.sol\":1531:1544  _checkOwner() */\n      tag_115\n        /* \"@openzeppelin/contracts/access/Ownable.sol\":1531:1542  _checkOwner */\n      tag_116\n        /* \"@openzeppelin/contracts/access/Ownable.sol\":1531:1544  _checkOwner() */\n      jump\t// in\n    tag_115:\n        /* \"contracts/LoanManagerV2.sol\":8561:8570  cUSDToken */\n      0x02\n      0x00\n      swap1\n      sload\n      swap1\n      0x0100\n      exp\n      swap1\n      div\n      0xffffffffffffffffffffffffffffffffffffffff\n      and\n        /* \"contracts/LoanManagerV2.sol\":8561:8579  cUSDToken.transfer */\n      0xffffffffffffffffffffffffffffffffffffffff\n      and\n      0xa9059cbb\n        /* \"contracts/LoanManagerV2.sol\":8580:8587  owner() */\n      tag_118\n        /* \"contracts/LoanManagerV2.sol\":8580:8585  owner */\n      tag_78\n        /* \"contracts/LoanManagerV2.sol\":8580:8587  owner() */\n      jump\t// in\n    tag_118:\n        /* \"contracts/LoanManagerV2.sol\":8589:8597  fundPool */\n      sload(0x04)\n        /* \"contracts/LoanManagerV2.sol\":8561:8598  cUSDToken.transfer(owner(), fundPool) */\n      mload(0x40)\n      dup4\n      0xffffffff\n      and\n      0xe0\n      shl\n      dup2\n      mstore\n      0x04\n      add\n      tag_119\n      swap3\n      swap2\n      swap1\n      tag_120\n      jump\t// in\n    tag_119:\n      0x20\n      mload(0x40)\n      dup1\n      dup4\n      sub\n      dup2\n      0x00\n      dup8\n      gas\n      call\n      iszero\n      dup1\n      iszero\n      tag_122\n      jumpi\n      returndatasize\n      0x00\n      dup1\n      returndatacopy\n      revert(0x00, returndatasize)\n    tag_122:\n      pop\n      pop\n      pop\n      pop\n      mload(0x40)\n      returndatasize\n      not(0x1f)\n      0x1f\n      dup3\n      add\n      and\n      dup3\n      add\n      dup1\n      0x40\n      mstore\n      pop\n      dup2\n      add\n      swap1\n      tag_123\n      swap2\n      swap1\n      tag_124\n      jump\t// in\n    tag_123:\n      pop\n        /* \"contracts/LoanManagerV2.sol\":8619:8620  0 */\n      0x00\n        /* \"contracts/LoanManagerV2.sol\":8608:8616  fundPool */\n      0x04\n        /* \"contracts/LoanManagerV2.sol\":8608:8620  fundPool = 0 */\n      dup2\n      swap1\n      sstore\n      pop\n        /* \"contracts/LoanManagerV2.sol\":8511:8627  function returnFunds() public onlyOwner {... */\n      jump\t// out\n        /* \"contracts/LoanManagerV2.sol\":7923:8435  function liquidateCollateral(address _user) external onlyOwner nonReentrant {... */\n    tag_42:\n        /* \"@openzeppelin/contracts/access/Ownable.sol\":1531:1544  _checkOwner() */\n      tag_126\n        /* \"@openzeppelin/contracts/access/Ownable.sol\":1531:1542  _checkOwner */\n      tag_116\n        /* \"@openzeppelin/contracts/access/Ownable.sol\":1531:1544  _checkOwner() */\n      jump\t// in\n    tag_126:\n        /* \"@openzeppelin/contracts/utils/ReentrancyGuard.sol\":2356:2377  _nonReentrantBefore() */\n      tag_128\n        /* \"@openzeppelin/contracts/utils/ReentrancyGuard.sol\":2356:2375  _nonReentrantBefore */\n      tag_129\n        /* \"@openzeppelin/contracts/utils/ReentrancyGuard.sol\":2356:2377  _nonReentrantBefore() */\n      jump\t// in\n    tag_128:\n        /* \"contracts/LoanManagerV2.sol\":8009:8026  Loan storage loan */\n      0x00\n        /* \"contracts/LoanManagerV2.sol\":8029:8038  userLoans */\n      0x09\n        /* \"contracts/LoanManagerV2.sol\":8029:8045  userLoans[_user] */\n      0x00\n        /* \"contracts/LoanManagerV2.sol\":8039:8044  _user */\n      dup4\n        /* \"contracts/LoanManagerV2.sol\":8029:8045  userLoans[_user] */\n      0xffffffffffffffffffffffffffffffffffffffff\n      and\n      0xffffffffffffffffffffffffffffffffffffffff\n      and\n      dup2\n      mstore\n      0x20\n      add\n      swap1\n      dup2\n      mstore\n      0x20\n      add\n      0x00\n      keccak256\n        /* \"contracts/LoanManagerV2.sol\":8009:8045  Loan storage loan = userLoans[_user] */\n      swap1\n      pop\n        /* \"contracts/LoanManagerV2.sol\":8077:8078  0 */\n      0x00\n        /* \"contracts/LoanManagerV2.sol\":8063:8067  loan */\n      dup2\n        /* \"contracts/LoanManagerV2.sol\":8063:8074  loan.amount */\n      0x00\n      add\n      sload\n        /* \"contracts/LoanManagerV2.sol\":8063:8078  loan.amount > 0 */\n      gt\n        /* \"contracts/LoanManagerV2.sol\":8055:8110  require(loan.amount > 0, \"LoanManager: No active loan\") */\n      tag_131\n      jumpi\n      mload(0x40)\n      0x08c379a000000000000000000000000000000000000000000000000000000000\n      dup2\n      mstore\n      0x04\n      add\n      tag_132\n      swap1\n      tag_133\n      jump\t// in\n    tag_132:\n      mload(0x40)\n      dup1\n      swap2\n      sub\n      swap1\n      revert\n    tag_131:\n        /* \"contracts/LoanManagerV2.sol\":8186:8201  defaultDuration */\n      sload(0x05)\n        /* \"contracts/LoanManagerV2.sol\":8163:8167  loan */\n      dup2\n        /* \"contracts/LoanManagerV2.sol\":8163:8183  loan.collateralRatio */\n      0x04\n      add\n      sload\n        /* \"contracts/LoanManagerV2.sol\":8146:8150  loan */\n      dup3\n        /* \"contracts/LoanManagerV2.sol\":8146:8160  loan.startTime */\n      0x02\n      add\n      sload\n        /* \"contracts/LoanManagerV2.sol\":8146:8183  loan.startTime + loan.collateralRatio */\n      tag_134\n      swap2\n      swap1\n      tag_135\n      jump\t// in\n    tag_134:\n        /* \"contracts/LoanManagerV2.sol\":8146:8201  loan.startTime + loan.collateralRatio + defaultDuration */\n      tag_136\n      swap2\n      swap1\n      tag_135\n      jump\t// in\n    tag_136:\n        /* \"contracts/LoanManagerV2.sol\":8128:8143  block.timestamp */\n      timestamp\n        /* \"contracts/LoanManagerV2.sol\":8128:8201  block.timestamp > loan.startTime + loan.collateralRatio + defaultDuration */\n      gt\n        /* \"contracts/LoanManagerV2.sol\":8120:8241  require(block.timestamp > loan.startTime + loan.collateralRatio + defaultDuration, \"LoanManager: Loan not defaulted yet\") */\n      tag_137\n      jumpi\n      mload(0x40)\n      0x08c379a000000000000000000000000000000000000000000000000000000000\n      dup2\n      mstore\n      0x04\n      add\n      tag_138\n      swap1\n      tag_139\n      jump\t// in\n    tag_138:\n      mload(0x40)\n      dup1\n      swap2\n      sub\n      swap1\n      revert\n    tag_137:\n        /* \"contracts/LoanManagerV2.sol\":8271:8275  true */\n      0x01\n        /* \"contracts/LoanManagerV2.sol\":8252:8256  loan */\n      dup2\n        /* \"contracts/LoanManagerV2.sol\":8252:8268  loan.isDefaulted */\n      0x05\n      add\n      0x01\n        /* \"contracts/LoanManagerV2.sol\":8252:8275  loan.isDefaulted = true */\n      0x0100\n      exp\n      dup2\n      sload\n      dup2\n      0xff\n      mul\n      not\n      and\n      swap1\n      dup4\n      iszero\n      iszero\n      mul\n      or\n      swap1\n      sstore\n      pop\n        /* \"contracts/LoanManagerV2.sol\":8285:8320  updateUserCreditScore(_user, false) */\n      tag_140\n        /* \"contracts/LoanManagerV2.sol\":8307:8312  _user */\n      dup3\n        /* \"contracts/LoanManagerV2.sol\":8314:8319  false */\n      0x00\n        /* \"contracts/LoanManagerV2.sol\":8285:8306  updateUserCreditScore */\n      tag_141\n        /* \"contracts/LoanManagerV2.sol\":8285:8320  updateUserCreditScore(_user, false) */\n      jump\t// in\n    tag_140:\n        /* \"contracts/LoanManagerV2.sol\":8331:8348  collateralManager */\n      0x03\n      0x00\n      swap1\n      sload\n      swap1\n      0x0100\n      exp\n      swap1\n      div\n      0xffffffffffffffffffffffffffffffffffffffff\n      and\n        /* \"contracts/LoanManagerV2.sol\":8331:8368  collateralManager.liquidateCollateral */\n      0xffffffffffffffffffffffffffffffffffffffff\n      and\n      0x1fea5a6b\n        /* \"contracts/LoanManagerV2.sol\":8369:8374  _user */\n      dup4\n        /* \"contracts/LoanManagerV2.sol\":8331:8375  collateralManager.liquidateCollateral(_user) */\n      mload(0x40)\n      dup3\n      0xffffffff\n      and\n      0xe0\n      shl\n      dup2\n      mstore\n      0x04\n      add\n      tag_142\n      swap2\n      swap1\n      tag_80\n      jump\t// in\n    tag_142:\n      0x00\n      mload(0x40)\n      dup1\n      dup4\n      sub\n      dup2\n      0x00\n      dup8\n      dup1\n      extcodesize\n      iszero\n      dup1\n      iszero\n      tag_143\n      jumpi\n      0x00\n      dup1\n      revert\n    tag_143:\n      pop\n      gas\n      call\n      iszero\n      dup1\n      iszero\n      tag_145\n      jumpi\n      returndatasize\n      0x00\n      dup1\n      returndatacopy\n      revert(0x00, returndatasize)\n    tag_145:\n      pop\n      pop\n      pop\n      pop\n        /* \"contracts/LoanManagerV2.sol\":8405:8410  _user */\n      dup2\n        /* \"contracts/LoanManagerV2.sol\":8391:8428  LoanDefaulted(_user, loan.collateral) */\n      0xffffffffffffffffffffffffffffffffffffffff\n      and\n      0x0be253503c49f8fb02046da3ef57bc2f5f881eb14ba5c2c26b54bf2fb4e7db07\n        /* \"contracts/LoanManagerV2.sol\":8412:8416  loan */\n      dup3\n        /* \"contracts/LoanManagerV2.sol\":8412:8427  loan.collateral */\n      0x03\n      add\n      sload\n        /* \"contracts/LoanManagerV2.sol\":8391:8428  LoanDefaulted(_user, loan.collateral) */\n      mload(0x40)\n      tag_146\n      swap2\n      swap1\n      tag_54\n      jump\t// in\n    tag_146:\n      mload(0x40)\n      dup1\n      swap2\n      sub\n      swap1\n      log2\n        /* \"contracts/LoanManagerV2.sol\":7999:8435  {... */\n      pop\n        /* \"@openzeppelin/contracts/utils/ReentrancyGuard.sol\":2398:2418  _nonReentrantAfter() */\n      tag_147\n        /* \"@openzeppelin/contracts/utils/ReentrancyGuard.sol\":2398:2416  _nonReentrantAfter */\n      tag_148\n        /* \"@openzeppelin/contracts/utils/ReentrancyGuard.sol\":2398:2418  _nonReentrantAfter() */\n      jump\t// in\n    tag_147:\n        /* \"contracts/LoanManagerV2.sol\":7923:8435  function liquidateCollateral(address _user) external onlyOwner nonReentrant {... */\n      pop\n      jump\t// out\n        /* \"contracts/LoanManagerV2.sol\":6763:7001  function extendLoanDuration(address _user, uint256 _extraTime) external onlyOwner {... */\n    tag_46:\n        /* \"@openzeppelin/contracts/access/Ownable.sol\":1531:1544  _checkOwner() */\n      tag_150\n        /* \"@openzeppelin/contracts/access/Ownable.sol\":1531:1542  _checkOwner */\n      tag_116\n        /* \"@openzeppelin/contracts/access/Ownable.sol\":1531:1544  _checkOwner() */\n      jump\t// in\n    tag_150:\n        /* \"contracts/LoanManagerV2.sol\":6855:6872  Loan storage loan */\n      0x00\n        /* \"contracts/LoanManagerV2.sol\":6875:6884  userLoans */\n      0x09\n        /* \"contracts/LoanManagerV2.sol\":6875:6891  userLoans[_user] */\n      0x00\n        /* \"contracts/LoanManagerV2.sol\":6885:6890  _user */\n      dup5\n        /* \"contracts/LoanManagerV2.sol\":6875:6891  userLoans[_user] */\n      0xffffffffffffffffffffffffffffffffffffffff\n      and\n      0xffffffffffffffffffffffffffffffffffffffff\n      and\n      dup2\n      mstore\n      0x20\n      add\n      swap1\n      dup2\n      mstore\n      0x20\n      add\n      0x00\n      keccak256\n        /* \"contracts/LoanManagerV2.sol\":6855:6891  Loan storage loan = userLoans[_user] */\n      swap1\n      pop\n        /* \"contracts/LoanManagerV2.sol\":6923:6924  0 */\n      0x00\n        /* \"contracts/LoanManagerV2.sol\":6909:6913  loan */\n      dup2\n        /* \"contracts/LoanManagerV2.sol\":6909:6920  loan.amount */\n      0x00\n      add\n      sload\n        /* \"contracts/LoanManagerV2.sol\":6909:6924  loan.amount > 0 */\n      gt\n        /* \"contracts/LoanManagerV2.sol\":6901:6956  require(loan.amount > 0, \"LoanManager: No active loan\") */\n      tag_152\n      jumpi\n      mload(0x40)\n      0x08c379a000000000000000000000000000000000000000000000000000000000\n      dup2\n      mstore\n      0x04\n      add\n      tag_153\n      swap1\n      tag_133\n      jump\t// in\n    tag_153:\n      mload(0x40)\n      dup1\n      swap2\n      sub\n      swap1\n      revert\n    tag_152:\n        /* \"contracts/LoanManagerV2.sol\":6984:6994  _extraTime */\n      dup2\n        /* \"contracts/LoanManagerV2.sol\":6966:6970  loan */\n      dup2\n        /* \"contracts/LoanManagerV2.sol\":6966:6980  loan.startTime */\n      0x02\n      add\n      0x00\n        /* \"contracts/LoanManagerV2.sol\":6966:6994  loan.startTime += _extraTime */\n      dup3\n      dup3\n      sload\n      tag_154\n      swap2\n      swap1\n      tag_135\n      jump\t// in\n    tag_154:\n      swap3\n      pop\n      pop\n      dup2\n      swap1\n      sstore\n      pop\n        /* \"contracts/LoanManagerV2.sol\":6845:7001  {... */\n      pop\n        /* \"contracts/LoanManagerV2.sol\":6763:7001  function extendLoanDuration(address _user, uint256 _extraTime) external onlyOwner {... */\n      pop\n      pop\n      jump\t// out\n        /* \"contracts/LoanManagerV2.sol\":592:634  CollateralManager public collateralManager */\n    tag_48:\n      0x03\n      0x00\n      swap1\n      sload\n      swap1\n      0x0100\n      exp\n      swap1\n      div\n      0xffffffffffffffffffffffffffffffffffffffff\n      and\n      dup2\n      jump\t// out\n        /* \"contracts/LoanManagerV2.sol\":670:710  uint256 public defaultDuration = 15 days */\n    tag_52:\n      sload(0x05)\n      dup2\n      jump\t// out\n        /* \"contracts/LoanManagerV2.sol\":2815:2914  function unpause() external onlyOwner {... */\n    tag_56:\n        /* \"@openzeppelin/contracts/access/Ownable.sol\":1531:1544  _checkOwner() */\n      tag_156\n        /* \"@openzeppelin/contracts/access/Ownable.sol\":1531:1542  _checkOwner */\n      tag_116\n        /* \"@openzeppelin/contracts/access/Ownable.sol\":1531:1544  _checkOwner() */\n      jump\t// in\n    tag_156:\n        /* \"contracts/LoanManagerV2.sol\":2863:2873  _unpause() */\n      tag_158\n        /* \"contracts/LoanManagerV2.sol\":2863:2871  _unpause */\n      tag_159\n        /* \"contracts/LoanManagerV2.sol\":2863:2873  _unpause() */\n      jump\t// in\n    tag_158:\n        /* \"contracts/LoanManagerV2.sol\":2888:2907  EmergencyUnpaused() */\n      0x15de7ad89d29fd1c6d2e6b1e878453569b4080edf34e0105faaa3bd52f018530\n      mload(0x40)\n      mload(0x40)\n      dup1\n      swap2\n      sub\n      swap1\n      log1\n        /* \"contracts/LoanManagerV2.sol\":2815:2914  function unpause() external onlyOwner {... */\n      jump\t// out\n        /* \"contracts/LoanManagerV2.sol\":1361:1415  mapping(address => UserCredit) public userCreditScores */\n    tag_59:\n      mstore(0x20, 0x0a)\n      dup1\n      0x00\n      mstore\n      keccak256(0x00, 0x40)\n      0x00\n      swap2\n      pop\n      swap1\n      pop\n      dup1\n      0x00\n      add\n      sload\n      swap1\n      dup1\n      0x01\n      add\n      sload\n      swap1\n      dup1\n      0x02\n      add\n      sload\n      swap1\n      pop\n      dup4\n      jump\t// out\n        /* \"@openzeppelin/contracts/utils/Pausable.sol\":1850:1934  function paused() public view virtual returns (bool) {... */\n    tag_63:\n        /* \"@openzeppelin/contracts/utils/Pausable.sol\":1897:1901  bool */\n      0x00\n        /* \"@openzeppelin/contracts/utils/Pausable.sol\":1920:1927  _paused */\n      0x01\n      0x14\n      swap1\n      sload\n      swap1\n      0x0100\n      exp\n      swap1\n      div\n      0xff\n      and\n        /* \"@openzeppelin/contracts/utils/Pausable.sol\":1913:1927  return _paused */\n      swap1\n      pop\n        /* \"@openzeppelin/contracts/utils/Pausable.sol\":1850:1934  function paused() public view virtual returns (bool) {... */\n      swap1\n      jump\t// out\n        /* \"contracts/LoanManagerV2.sol\":6343:6713  function calculateLoanWithInterest(address _user) public view returns (uint256) {... */\n    tag_68:\n        /* \"contracts/LoanManagerV2.sol\":6414:6421  uint256 */\n      0x00\n        /* \"contracts/LoanManagerV2.sol\":6433:6449  Loan memory loan */\n      dup1\n        /* \"contracts/LoanManagerV2.sol\":6452:6461  userLoans */\n      0x09\n        /* \"contracts/LoanManagerV2.sol\":6452:6468  userLoans[_user] */\n      0x00\n        /* \"contracts/LoanManagerV2.sol\":6462:6467  _user */\n      dup5\n        /* \"contracts/LoanManagerV2.sol\":6452:6468  userLoans[_user] */\n      0xffffffffffffffffffffffffffffffffffffffff\n      and\n      0xffffffffffffffffffffffffffffffffffffffff\n      and\n      dup2\n      mstore\n      0x20\n      add\n      swap1\n      dup2\n      mstore\n      0x20\n      add\n      0x00\n      keccak256\n        /* \"contracts/LoanManagerV2.sol\":6433:6468  Loan memory loan = userLoans[_user] */\n      mload(0x40)\n      dup1\n      0xe0\n      add\n      0x40\n      mstore\n      swap1\n      dup2\n      0x00\n      dup3\n      add\n      sload\n      dup2\n      mstore\n      0x20\n      add\n      0x01\n      dup3\n      add\n      sload\n      dup2\n      mstore\n      0x20\n      add\n      0x02\n      dup3\n      add\n      sload\n      dup2\n      mstore\n      0x20\n      add\n      0x03\n      dup3\n      add\n      sload\n      dup2\n      mstore\n      0x20\n      add\n      0x04\n      dup3\n      add\n      sload\n      dup2\n      mstore\n      0x20\n      add\n      0x05\n      dup3\n      add\n      0x00\n      swap1\n      sload\n      swap1\n      0x0100\n      exp\n      swap1\n      div\n      0xff\n      and\n      iszero\n      iszero\n      iszero\n      iszero\n      dup2\n      mstore\n      0x20\n      add\n      0x05\n      dup3\n      add\n      0x01\n      swap1\n      sload\n      swap1\n      0x0100\n      exp\n      swap1\n      div\n      0xff\n      and\n      iszero\n      iszero\n      iszero\n      iszero\n      dup2\n      mstore\n      pop\n      pop\n      swap1\n      pop\n        /* \"contracts/LoanManagerV2.sol\":6478:6497  uint256 timeElapsed */\n      0x00\n        /* \"contracts/LoanManagerV2.sol\":6518:6522  loan */\n      dup2\n        /* \"contracts/LoanManagerV2.sol\":6518:6532  loan.startTime */\n      0x40\n      add\n      mload\n        /* \"contracts/LoanManagerV2.sol\":6500:6515  block.timestamp */\n      timestamp\n        /* \"contracts/LoanManagerV2.sol\":6500:6532  block.timestamp - loan.startTime */\n      tag_162\n      swap2\n      swap1\n      tag_163\n      jump\t// in\n    tag_162:\n        /* \"contracts/LoanManagerV2.sol\":6478:6532  uint256 timeElapsed = block.timestamp - loan.startTime */\n      swap1\n      pop\n        /* \"contracts/LoanManagerV2.sol\":6542:6565  uint256 accruedInterest */\n      0x00\n        /* \"contracts/LoanManagerV2.sol\":6619:6633  365 days * 100 */\n      0xbbf81e00\n        /* \"contracts/LoanManagerV2.sol\":6603:6614  timeElapsed */\n      dup3\n        /* \"contracts/LoanManagerV2.sol\":6583:6587  loan */\n      dup5\n        /* \"contracts/LoanManagerV2.sol\":6583:6600  loan.interestRate */\n      0x20\n      add\n      mload\n        /* \"contracts/LoanManagerV2.sol\":6569:6573  loan */\n      dup6\n        /* \"contracts/LoanManagerV2.sol\":6569:6580  loan.amount */\n      0x00\n      add\n      mload\n        /* \"contracts/LoanManagerV2.sol\":6569:6600  loan.amount * loan.interestRate */\n      tag_164\n      swap2\n      swap1\n      tag_165\n      jump\t// in\n    tag_164:\n        /* \"contracts/LoanManagerV2.sol\":6569:6614  loan.amount * loan.interestRate * timeElapsed */\n      tag_166\n      swap2\n      swap1\n      tag_165\n      jump\t// in\n    tag_166:\n        /* \"contracts/LoanManagerV2.sol\":6568:6634  (loan.amount * loan.interestRate * timeElapsed) / (365 days * 100) */\n      tag_167\n      swap2\n      swap1\n      tag_168\n      jump\t// in\n    tag_167:\n        /* \"contracts/LoanManagerV2.sol\":6542:6634  uint256 accruedInterest = (loan.amount * loan.interestRate * timeElapsed) / (365 days * 100) */\n      swap1\n      pop\n        /* \"contracts/LoanManagerV2.sol\":6691:6706  accruedInterest */\n      dup1\n        /* \"contracts/LoanManagerV2.sol\":6677:6681  loan */\n      dup4\n        /* \"contracts/LoanManagerV2.sol\":6677:6688  loan.amount */\n      0x00\n      add\n      mload\n        /* \"contracts/LoanManagerV2.sol\":6677:6706  loan.amount + accruedInterest */\n      tag_169\n      swap2\n      swap1\n      tag_135\n      jump\t// in\n    tag_169:\n        /* \"contracts/LoanManagerV2.sol\":6670:6706  return loan.amount + accruedInterest */\n      swap4\n      pop\n      pop\n      pop\n      pop\n        /* \"contracts/LoanManagerV2.sol\":6343:6713  function calculateLoanWithInterest(address _user) public view returns (uint256) {... */\n      swap2\n      swap1\n      pop\n      jump\t// out\n        /* \"contracts/LoanManagerV2.sol\":640:663  uint256 public fundPool */\n    tag_71:\n      sload(0x04)\n      dup2\n      jump\t// out\n        /* \"@openzeppelin/contracts/access/Ownable.sol\":2293:2394  function renounceOwnership() public virtual onlyOwner {... */\n    tag_74:\n        /* \"@openzeppelin/contracts/access/Ownable.sol\":1531:1544  _checkOwner() */\n      tag_171\n        /* \"@openzeppelin/contracts/access/Ownable.sol\":1531:1542  _checkOwner */\n      tag_116\n        /* \"@openzeppelin/contracts/access/Ownable.sol\":1531:1544  _checkOwner() */\n      jump\t// in\n    tag_171:\n        /* \"@openzeppelin/contracts/access/Ownable.sol\":2357:2387  _transferOwnership(address(0)) */\n      tag_173\n        /* \"@openzeppelin/contracts/access/Ownable.sol\":2384:2385  0 */\n      0x00\n        /* \"@openzeppelin/contracts/access/Ownable.sol\":2357:2375  _transferOwnership */\n      tag_174\n        /* \"@openzeppelin/contracts/access/Ownable.sol\":2357:2387  _transferOwnership(address(0)) */\n      jump\t// in\n    tag_173:\n        /* \"@openzeppelin/contracts/access/Ownable.sol\":2293:2394  function renounceOwnership() public virtual onlyOwner {... */\n      jump\t// out\n        /* \"contracts/LoanManagerV2.sol\":2716:2809  function pause() external onlyOwner {... */\n    tag_76:\n        /* \"@openzeppelin/contracts/access/Ownable.sol\":1531:1544  _checkOwner() */\n      tag_176\n        /* \"@openzeppelin/contracts/access/Ownable.sol\":1531:1542  _checkOwner */\n      tag_116\n        /* \"@openzeppelin/contracts/access/Ownable.sol\":1531:1544  _checkOwner() */\n      jump\t// in\n    tag_176:\n        /* \"contracts/LoanManagerV2.sol\":2762:2770  _pause() */\n      tag_178\n        /* \"contracts/LoanManagerV2.sol\":2762:2768  _pause */\n      tag_179\n        /* \"contracts/LoanManagerV2.sol\":2762:2770  _pause() */\n      jump\t// in\n    tag_178:\n        /* \"contracts/LoanManagerV2.sol\":2785:2802  EmergencyPaused() */\n      0x4cb3183d0bf66f9634b15cfc3539fdddc96c2c9324848af89b56586a6739fec4\n      mload(0x40)\n      mload(0x40)\n      dup1\n      swap2\n      sub\n      swap1\n      log1\n        /* \"contracts/LoanManagerV2.sol\":2716:2809  function pause() external onlyOwner {... */\n      jump\t// out\n        /* \"@openzeppelin/contracts/access/Ownable.sol\":1638:1723  function owner() public view virtual returns (address) {... */\n    tag_78:\n        /* \"@openzeppelin/contracts/access/Ownable.sol\":1684:1691  address */\n      0x00\n        /* \"@openzeppelin/contracts/access/Ownable.sol\":1710:1716  _owner */\n      0x01\n      0x00\n      swap1\n      sload\n      swap1\n      0x0100\n      exp\n      swap1\n      div\n      0xffffffffffffffffffffffffffffffffffffffff\n      and\n        /* \"@openzeppelin/contracts/access/Ownable.sol\":1703:1716  return _owner */\n      swap1\n      pop\n        /* \"@openzeppelin/contracts/access/Ownable.sol\":1638:1723  function owner() public view virtual returns (address) {... */\n      swap1\n      jump\t// out\n        /* \"contracts/LoanManagerV2.sol\":5160:5517  function issueLoan(address _user) external onlyOwner whenNotPaused {... */\n    tag_83:\n        /* \"@openzeppelin/contracts/access/Ownable.sol\":1531:1544  _checkOwner() */\n      tag_182\n        /* \"@openzeppelin/contracts/access/Ownable.sol\":1531:1542  _checkOwner */\n      tag_116\n        /* \"@openzeppelin/contracts/access/Ownable.sol\":1531:1544  _checkOwner() */\n      jump\t// in\n    tag_182:\n        /* \"@openzeppelin/contracts/utils/Pausable.sol\":1474:1493  _requireNotPaused() */\n      tag_184\n        /* \"@openzeppelin/contracts/utils/Pausable.sol\":1474:1491  _requireNotPaused */\n      tag_185\n        /* \"@openzeppelin/contracts/utils/Pausable.sol\":1474:1493  _requireNotPaused() */\n      jump\t// in\n    tag_184:\n        /* \"contracts/LoanManagerV2.sol\":5237:5254  Loan storage loan */\n      0x00\n        /* \"contracts/LoanManagerV2.sol\":5257:5266  userLoans */\n      0x09\n        /* \"contracts/LoanManagerV2.sol\":5257:5273  userLoans[_user] */\n      0x00\n        /* \"contracts/LoanManagerV2.sol\":5267:5272  _user */\n      dup4\n        /* \"contracts/LoanManagerV2.sol\":5257:5273  userLoans[_user] */\n      0xffffffffffffffffffffffffffffffffffffffff\n      and\n      0xffffffffffffffffffffffffffffffffffffffff\n      and\n      dup2\n      mstore\n      0x20\n      add\n      swap1\n      dup2\n      mstore\n      0x20\n      add\n      0x00\n      keccak256\n        /* \"contracts/LoanManagerV2.sol\":5237:5273  Loan storage loan = userLoans[_user] */\n      swap1\n      pop\n        /* \"contracts/LoanManagerV2.sol\":5305:5306  0 */\n      0x00\n        /* \"contracts/LoanManagerV2.sol\":5291:5295  loan */\n      dup2\n        /* \"contracts/LoanManagerV2.sol\":5291:5302  loan.amount */\n      0x00\n      add\n      sload\n        /* \"contracts/LoanManagerV2.sol\":5291:5306  loan.amount > 0 */\n      gt\n        /* \"contracts/LoanManagerV2.sol\":5283:5345  require(loan.amount > 0, \"LoanManager: No loan request found\") */\n      tag_187\n      jumpi\n      mload(0x40)\n      0x08c379a000000000000000000000000000000000000000000000000000000000\n      dup2\n      mstore\n      0x04\n      add\n      tag_188\n      swap1\n      tag_189\n      jump\t// in\n    tag_188:\n      mload(0x40)\n      dup1\n      swap2\n      sub\n      swap1\n      revert\n    tag_187:\n        /* \"contracts/LoanManagerV2.sol\":5363:5372  cUSDToken */\n      0x02\n      0x00\n      swap1\n      sload\n      swap1\n      0x0100\n      exp\n      swap1\n      div\n      0xffffffffffffffffffffffffffffffffffffffff\n      and\n        /* \"contracts/LoanManagerV2.sol\":5363:5381  cUSDToken.transfer */\n      0xffffffffffffffffffffffffffffffffffffffff\n      and\n      0xa9059cbb\n        /* \"contracts/LoanManagerV2.sol\":5382:5387  _user */\n      dup4\n        /* \"contracts/LoanManagerV2.sol\":5389:5393  loan */\n      dup4\n        /* \"contracts/LoanManagerV2.sol\":5389:5400  loan.amount */\n      0x00\n      add\n      sload\n        /* \"contracts/LoanManagerV2.sol\":5363:5401  cUSDToken.transfer(_user, loan.amount) */\n      mload(0x40)\n      dup4\n      0xffffffff\n      and\n      0xe0\n      shl\n      dup2\n      mstore\n      0x04\n      add\n      tag_190\n      swap3\n      swap2\n      swap1\n      tag_120\n      jump\t// in\n    tag_190:\n      0x20\n      mload(0x40)\n      dup1\n      dup4\n      sub\n      dup2\n      0x00\n      dup8\n      gas\n      call\n      iszero\n      dup1\n      iszero\n      tag_192\n      jumpi\n      returndatasize\n      0x00\n      dup1\n      returndatacopy\n      revert(0x00, returndatasize)\n    tag_192:\n      pop\n      pop\n      pop\n      pop\n      mload(0x40)\n      returndatasize\n      not(0x1f)\n      0x1f\n      dup3\n      add\n      and\n      dup3\n      add\n      dup1\n      0x40\n      mstore\n      pop\n      dup2\n      add\n      swap1\n      tag_193\n      swap2\n      swap1\n      tag_124\n      jump\t// in\n    tag_193:\n        /* \"contracts/LoanManagerV2.sol\":5355:5439  require(cUSDToken.transfer(_user, loan.amount), \"LoanManager: Loan transfer failed\") */\n      tag_194\n      jumpi\n      mload(0x40)\n      0x08c379a000000000000000000000000000000000000000000000000000000000\n      dup2\n      mstore\n      0x04\n      add\n      tag_195\n      swap1\n      tag_196\n      jump\t// in\n    tag_195:\n      mload(0x40)\n      dup1\n      swap2\n      sub\n      swap1\n      revert\n    tag_194:\n        /* \"contracts/LoanManagerV2.sol\":5474:5479  _user */\n      dup2\n        /* \"contracts/LoanManagerV2.sol\":5463:5510  LoanIssued(_user, loan.amount, loan.collateral) */\n      0xffffffffffffffffffffffffffffffffffffffff\n      and\n      0x1c793c0fda4a6b2b79dd68d91d9f7fde8f7aa0878615c36a4624e6ccdbb1ead1\n        /* \"contracts/LoanManagerV2.sol\":5481:5485  loan */\n      dup3\n        /* \"contracts/LoanManagerV2.sol\":5481:5492  loan.amount */\n      0x00\n      add\n      sload\n        /* \"contracts/LoanManagerV2.sol\":5494:5498  loan */\n      dup4\n        /* \"contracts/LoanManagerV2.sol\":5494:5509  loan.collateral */\n      0x03\n      add\n      sload\n        /* \"contracts/LoanManagerV2.sol\":5463:5510  LoanIssued(_user, loan.amount, loan.collateral) */\n      mload(0x40)\n      tag_197\n      swap3\n      swap2\n      swap1\n      tag_198\n      jump\t// in\n    tag_197:\n      mload(0x40)\n      dup1\n      swap2\n      sub\n      swap1\n      log2\n        /* \"contracts/LoanManagerV2.sol\":5227:5517  {... */\n      pop\n        /* \"contracts/LoanManagerV2.sol\":5160:5517  function issueLoan(address _user) external onlyOwner whenNotPaused {... */\n      pop\n      jump\t// out\n        /* \"contracts/LoanManagerV2.sol\":3416:5102  function requestLoan(uint256 _loanAmount, uint256 _desiredInterestRate) external nonReentrant whenNotPaused {... */\n    tag_87:\n        /* \"@openzeppelin/contracts/utils/ReentrancyGuard.sol\":2356:2377  _nonReentrantBefore() */\n      tag_200\n        /* \"@openzeppelin/contracts/utils/ReentrancyGuard.sol\":2356:2375  _nonReentrantBefore */\n      tag_129\n        /* \"@openzeppelin/contracts/utils/ReentrancyGuard.sol\":2356:2377  _nonReentrantBefore() */\n      jump\t// in\n    tag_200:\n        /* \"@openzeppelin/contracts/utils/Pausable.sol\":1474:1493  _requireNotPaused() */\n      tag_202\n        /* \"@openzeppelin/contracts/utils/Pausable.sol\":1474:1491  _requireNotPaused */\n      tag_185\n        /* \"@openzeppelin/contracts/utils/Pausable.sol\":1474:1493  _requireNotPaused() */\n      jump\t// in\n    tag_202:\n        /* \"contracts/LoanManagerV2.sol\":3556:3557  0 */\n      0x00\n        /* \"contracts/LoanManagerV2.sol\":3542:3553  _loanAmount */\n      dup3\n        /* \"contracts/LoanManagerV2.sol\":3542:3557  _loanAmount > 0 */\n      gt\n        /* \"contracts/LoanManagerV2.sol\":3534:3609  require(_loanAmount > 0, \"LoanManager: Loan amount must be greater than 0\") */\n      tag_204\n      jumpi\n      mload(0x40)\n      0x08c379a000000000000000000000000000000000000000000000000000000000\n      dup2\n      mstore\n      0x04\n      add\n      tag_205\n      swap1\n      tag_206\n      jump\t// in\n    tag_205:\n      mload(0x40)\n      dup1\n      swap2\n      sub\n      swap1\n      revert\n    tag_204:\n        /* \"contracts/LoanManagerV2.sol\":3659:3660  0 */\n      0x00\n        /* \"contracts/LoanManagerV2.sol\":3627:3636  userLoans */\n      0x09\n        /* \"contracts/LoanManagerV2.sol\":3627:3648  userLoans[msg.sender] */\n      0x00\n        /* \"contracts/LoanManagerV2.sol\":3637:3647  msg.sender */\n      caller\n        /* \"contracts/LoanManagerV2.sol\":3627:3648  userLoans[msg.sender] */\n      0xffffffffffffffffffffffffffffffffffffffff\n      and\n      0xffffffffffffffffffffffffffffffffffffffff\n      and\n      dup2\n      mstore\n      0x20\n      add\n      swap1\n      dup2\n      mstore\n      0x20\n      add\n      0x00\n      keccak256\n        /* \"contracts/LoanManagerV2.sol\":3627:3655  userLoans[msg.sender].amount */\n      0x00\n      add\n      sload\n        /* \"contracts/LoanManagerV2.sol\":3627:3660  userLoans[msg.sender].amount == 0 */\n      eq\n        /* \"contracts/LoanManagerV2.sol\":3619:3712  require(userLoans[msg.sender].amount == 0, \"LoanManager: Existing loan must be repaid first\") */\n      tag_207\n      jumpi\n      mload(0x40)\n      0x08c379a000000000000000000000000000000000000000000000000000000000\n      dup2\n      mstore\n      0x04\n      add\n      tag_208\n      swap1\n      tag_209\n      jump\t// in\n    tag_208:\n      mload(0x40)\n      dup1\n      swap2\n      sub\n      swap1\n      revert\n    tag_207:\n        /* \"contracts/LoanManagerV2.sol\":3780:3801  uint256 userColNative */\n      0x00\n        /* \"contracts/LoanManagerV2.sol\":3803:3824  uint256 userColStable */\n      dup1\n        /* \"contracts/LoanManagerV2.sol\":3828:3845  collateralManager */\n      0x03\n      0x00\n      swap1\n      sload\n      swap1\n      0x0100\n      exp\n      swap1\n      div\n      0xffffffffffffffffffffffffffffffffffffffff\n      and\n        /* \"contracts/LoanManagerV2.sol\":3828:3866  collateralManager.getCollateralBalance */\n      0xffffffffffffffffffffffffffffffffffffffff\n      and\n      0x2703ee85\n        /* \"contracts/LoanManagerV2.sol\":3867:3877  msg.sender */\n      caller\n        /* \"contracts/LoanManagerV2.sol\":3828:3878  collateralManager.getCollateralBalance(msg.sender) */\n      mload(0x40)\n      dup3\n      0xffffffff\n      and\n      0xe0\n      shl\n      dup2\n      mstore\n      0x04\n      add\n      tag_210\n      swap2\n      swap1\n      tag_80\n      jump\t// in\n    tag_210:\n      0x40\n      dup1\n      mload\n      dup1\n      dup4\n      sub\n      dup2\n      dup7\n      gas\n      staticcall\n      iszero\n      dup1\n      iszero\n      tag_212\n      jumpi\n      returndatasize\n      0x00\n      dup1\n      returndatacopy\n      revert(0x00, returndatasize)\n    tag_212:\n      pop\n      pop\n      pop\n      pop\n      mload(0x40)\n      returndatasize\n      not(0x1f)\n      0x1f\n      dup3\n      add\n      and\n      dup3\n      add\n      dup1\n      0x40\n      mstore\n      pop\n      dup2\n      add\n      swap1\n      tag_213\n      swap2\n      swap1\n      tag_214\n      jump\t// in\n    tag_213:\n        /* \"contracts/LoanManagerV2.sol\":3779:3878  (uint256 userColNative, uint256 userColStable) = collateralManager.getCollateralBalance(msg.sender) */\n      swap2\n      pop\n      swap2\n      pop\n        /* \"contracts/LoanManagerV2.sol\":3888:3912  uint256 nativePriceInUSD */\n      0x00\n        /* \"contracts/LoanManagerV2.sol\":3923:3939  getNativePrice() */\n      tag_215\n        /* \"contracts/LoanManagerV2.sol\":3923:3937  getNativePrice */\n      tag_34\n        /* \"contracts/LoanManagerV2.sol\":3923:3939  getNativePrice() */\n      jump\t// in\n    tag_215:\n        /* \"contracts/LoanManagerV2.sol\":3888:3940  uint256 nativePriceInUSD = uint256(getNativePrice()) */\n      swap1\n      pop\n        /* \"contracts/LoanManagerV2.sol\":3950:3974  uint256 stablePriceInUSD */\n      0x00\n        /* \"contracts/LoanManagerV2.sol\":3985:4001  getStablePrice() */\n      tag_216\n        /* \"contracts/LoanManagerV2.sol\":3985:3999  getStablePrice */\n      tag_104\n        /* \"contracts/LoanManagerV2.sol\":3985:4001  getStablePrice() */\n      jump\t// in\n    tag_216:\n        /* \"contracts/LoanManagerV2.sol\":3950:4002  uint256 stablePriceInUSD = uint256(getStablePrice()) */\n      swap1\n      pop\n        /* \"contracts/LoanManagerV2.sol\":4012:4041  uint256 nativeCollateralInUSD */\n      0x00\n        /* \"contracts/LoanManagerV2.sol\":4081:4085  1e18 */\n      0x0de0b6b3a7640000\n        /* \"contracts/LoanManagerV2.sol\":4061:4077  nativePriceInUSD */\n      dup4\n        /* \"contracts/LoanManagerV2.sol\":4045:4058  userColNative */\n      dup7\n        /* \"contracts/LoanManagerV2.sol\":4045:4077  userColNative * nativePriceInUSD */\n      tag_217\n      swap2\n      swap1\n      tag_165\n      jump\t// in\n    tag_217:\n        /* \"contracts/LoanManagerV2.sol\":4044:4085  (userColNative * nativePriceInUSD) / 1e18 */\n      tag_218\n      swap2\n      swap1\n      tag_168\n      jump\t// in\n    tag_218:\n        /* \"contracts/LoanManagerV2.sol\":4012:4085  uint256 nativeCollateralInUSD = (userColNative * nativePriceInUSD) / 1e18 */\n      swap1\n      pop\n        /* \"contracts/LoanManagerV2.sol\":4095:4124  uint256 stableCollateralInUSD */\n      0x00\n        /* \"contracts/LoanManagerV2.sol\":4164:4168  1e18 */\n      0x0de0b6b3a7640000\n        /* \"contracts/LoanManagerV2.sol\":4144:4160  stablePriceInUSD */\n      dup4\n        /* \"contracts/LoanManagerV2.sol\":4128:4141  userColStable */\n      dup7\n        /* \"contracts/LoanManagerV2.sol\":4128:4160  userColStable * stablePriceInUSD */\n      tag_219\n      swap2\n      swap1\n      tag_165\n      jump\t// in\n    tag_219:\n        /* \"contracts/LoanManagerV2.sol\":4127:4168  (userColStable * stablePriceInUSD) / 1e18 */\n      tag_220\n      swap2\n      swap1\n      tag_168\n      jump\t// in\n    tag_220:\n        /* \"contracts/LoanManagerV2.sol\":4095:4168  uint256 stableCollateralInUSD = (userColStable * stablePriceInUSD) / 1e18 */\n      swap1\n      pop\n        /* \"contracts/LoanManagerV2.sol\":4178:4203  uint256 userTotalColinUSD */\n      0x00\n        /* \"contracts/LoanManagerV2.sol\":4230:4251  stableCollateralInUSD */\n      dup2\n        /* \"contracts/LoanManagerV2.sol\":4206:4227  nativeCollateralInUSD */\n      dup4\n        /* \"contracts/LoanManagerV2.sol\":4206:4251  nativeCollateralInUSD + stableCollateralInUSD */\n      tag_221\n      swap2\n      swap1\n      tag_135\n      jump\t// in\n    tag_221:\n        /* \"contracts/LoanManagerV2.sol\":4178:4251  uint256 userTotalColinUSD = nativeCollateralInUSD + stableCollateralInUSD */\n      swap1\n      pop\n        /* \"contracts/LoanManagerV2.sol\":4262:4285  uint256 collateralRatio */\n      0x00\n        /* \"contracts/LoanManagerV2.sol\":4288:4291  150 */\n      0x96\n        /* \"contracts/LoanManagerV2.sol\":4262:4291  uint256 collateralRatio = 150 */\n      swap1\n      pop\n        /* \"contracts/LoanManagerV2.sol\":4362:4383  uint256 maxLoanAmount */\n      0x00\n        /* \"contracts/LoanManagerV2.sol\":4415:4430  collateralRatio */\n      dup2\n        /* \"contracts/LoanManagerV2.sol\":4407:4411  1e18 */\n      0x0de0b6b3a7640000\n        /* \"contracts/LoanManagerV2.sol\":4387:4404  userTotalColinUSD */\n      dup5\n        /* \"contracts/LoanManagerV2.sol\":4387:4411  userTotalColinUSD * 1e18 */\n      tag_222\n      swap2\n      swap1\n      tag_165\n      jump\t// in\n    tag_222:\n        /* \"contracts/LoanManagerV2.sol\":4386:4430  (userTotalColinUSD * 1e18) / collateralRatio */\n      tag_223\n      swap2\n      swap1\n      tag_168\n      jump\t// in\n    tag_223:\n        /* \"contracts/LoanManagerV2.sol\":4362:4430  uint256 maxLoanAmount = (userTotalColinUSD * 1e18) / collateralRatio */\n      swap1\n      pop\n        /* \"contracts/LoanManagerV2.sol\":4499:4502  100 */\n      0x64\n        /* \"contracts/LoanManagerV2.sol\":4481:4496  collateralRatio */\n      dup3\n        /* \"contracts/LoanManagerV2.sol\":4467:4478  _loanAmount */\n      dup13\n        /* \"contracts/LoanManagerV2.sol\":4467:4496  _loanAmount * collateralRatio */\n      tag_224\n      swap2\n      swap1\n      tag_165\n      jump\t// in\n    tag_224:\n        /* \"contracts/LoanManagerV2.sol\":4467:4502  _loanAmount * collateralRatio / 100 */\n      tag_225\n      swap2\n      swap1\n      tag_168\n      jump\t// in\n    tag_225:\n        /* \"contracts/LoanManagerV2.sol\":4449:4462  maxLoanAmount */\n      dup2\n        /* \"contracts/LoanManagerV2.sol\":4449:4503  maxLoanAmount >= (_loanAmount * collateralRatio / 100) */\n      lt\n      iszero\n        /* \"contracts/LoanManagerV2.sol\":4441:4544  require(maxLoanAmount >= (_loanAmount * collateralRatio / 100), \"LoanManager: Insufficient collateral\") */\n      tag_226\n      jumpi\n      mload(0x40)\n      0x08c379a000000000000000000000000000000000000000000000000000000000\n      dup2\n      mstore\n      0x04\n      add\n      tag_227\n      swap1\n      tag_228\n      jump\t// in\n    tag_227:\n      mload(0x40)\n      dup1\n      swap2\n      sub\n      swap1\n      revert\n    tag_226:\n        /* \"contracts/LoanManagerV2.sol\":4589:4608  Loan memory newLoan */\n      0x00\n        /* \"contracts/LoanManagerV2.sol\":4611:4944  Loan({... */\n      mload(0x40)\n      dup1\n      0xe0\n      add\n      0x40\n      mstore\n      dup1\n        /* \"contracts/LoanManagerV2.sol\":4638:4649  _loanAmount */\n      dup14\n        /* \"contracts/LoanManagerV2.sol\":4611:4944  Loan({... */\n      dup2\n      mstore\n      0x20\n      add\n        /* \"contracts/LoanManagerV2.sol\":4700:4701  0 */\n      0x00\n        /* \"contracts/LoanManagerV2.sol\":4677:4697  _desiredInterestRate */\n      dup14\n        /* \"contracts/LoanManagerV2.sol\":4677:4701  _desiredInterestRate > 0 */\n      gt\n        /* \"contracts/LoanManagerV2.sol\":4677:4743  _desiredInterestRate > 0 ? _desiredInterestRate : baseInterestRate */\n      tag_229\n      jumpi\n        /* \"contracts/LoanManagerV2.sol\":4727:4743  baseInterestRate */\n      sload(0x06)\n        /* \"contracts/LoanManagerV2.sol\":4677:4743  _desiredInterestRate > 0 ? _desiredInterestRate : baseInterestRate */\n      jump(tag_230)\n    tag_229:\n        /* \"contracts/LoanManagerV2.sol\":4704:4724  _desiredInterestRate */\n      dup13\n        /* \"contracts/LoanManagerV2.sol\":4677:4743  _desiredInterestRate > 0 ? _desiredInterestRate : baseInterestRate */\n    tag_230:\n        /* \"contracts/LoanManagerV2.sol\":4611:4944  Loan({... */\n      dup2\n      mstore\n      0x20\n      add\n        /* \"contracts/LoanManagerV2.sol\":4768:4783  block.timestamp */\n      timestamp\n        /* \"contracts/LoanManagerV2.sol\":4611:4944  Loan({... */\n      dup2\n      mstore\n      0x20\n      add\n        /* \"contracts/LoanManagerV2.sol\":4809:4826  userTotalColinUSD */\n      dup6\n        /* \"contracts/LoanManagerV2.sol\":4611:4944  Loan({... */\n      dup2\n      mstore\n      0x20\n      add\n        /* \"contracts/LoanManagerV2.sol\":4857:4872  collateralRatio */\n      dup5\n        /* \"contracts/LoanManagerV2.sol\":4611:4944  Loan({... */\n      dup2\n      mstore\n      0x20\n      add\n        /* \"contracts/LoanManagerV2.sol\":4896:4901  false */\n      0x00\n        /* \"contracts/LoanManagerV2.sol\":4611:4944  Loan({... */\n      iszero\n      iszero\n      dup2\n      mstore\n      0x20\n      add\n        /* \"contracts/LoanManagerV2.sol\":4928:4933  false */\n      0x00\n        /* \"contracts/LoanManagerV2.sol\":4611:4944  Loan({... */\n      iszero\n      iszero\n      dup2\n      mstore\n      pop\n        /* \"contracts/LoanManagerV2.sol\":4589:4944  Loan memory newLoan = Loan({... */\n      swap1\n      pop\n        /* \"contracts/LoanManagerV2.sol\":4978:4985  newLoan */\n      dup1\n        /* \"contracts/LoanManagerV2.sol\":4954:4963  userLoans */\n      0x09\n        /* \"contracts/LoanManagerV2.sol\":4954:4975  userLoans[msg.sender] */\n      0x00\n        /* \"contracts/LoanManagerV2.sol\":4964:4974  msg.sender */\n      caller\n        /* \"contracts/LoanManagerV2.sol\":4954:4975  userLoans[msg.sender] */\n      0xffffffffffffffffffffffffffffffffffffffff\n      and\n      0xffffffffffffffffffffffffffffffffffffffff\n      and\n      dup2\n      mstore\n      0x20\n      add\n      swap1\n      dup2\n      mstore\n      0x20\n      add\n      0x00\n      keccak256\n        /* \"contracts/LoanManagerV2.sol\":4954:4985  userLoans[msg.sender] = newLoan */\n      0x00\n      dup3\n      add\n      mload\n      dup2\n      0x00\n      add\n      sstore\n      0x20\n      dup3\n      add\n      mload\n      dup2\n      0x01\n      add\n      sstore\n      0x40\n      dup3\n      add\n      mload\n      dup2\n      0x02\n      add\n      sstore\n      0x60\n      dup3\n      add\n      mload\n      dup2\n      0x03\n      add\n      sstore\n      0x80\n      dup3\n      add\n      mload\n      dup2\n      0x04\n      add\n      sstore\n      0xa0\n      dup3\n      add\n      mload\n      dup2\n      0x05\n      add\n      exp(0x0100, 0x00)\n      dup2\n      sload\n      dup2\n      0xff\n      mul\n      not\n      and\n      swap1\n      dup4\n      iszero\n      iszero\n      mul\n      or\n      swap1\n      sstore\n      pop\n      0xc0\n      dup3\n      add\n      mload\n      dup2\n      0x05\n      add\n      exp(0x0100, 0x01)\n      dup2\n      sload\n      dup2\n      0xff\n      mul\n      not\n      and\n      swap1\n      dup4\n      iszero\n      iszero\n      mul\n      or\n      swap1\n      sstore\n      pop\n      swap1\n      pop\n      pop\n        /* \"contracts/LoanManagerV2.sol\":5052:5062  msg.sender */\n      caller\n        /* \"contracts/LoanManagerV2.sol\":5038:5095  LoanRequested(msg.sender, _loanAmount, userTotalColinUSD) */\n      0xffffffffffffffffffffffffffffffffffffffff\n      and\n      0x7468760830aff5679376e50470c0493d21c88c599388e89b08c9512b3f3fbc7d\n        /* \"contracts/LoanManagerV2.sol\":5064:5075  _loanAmount */\n      dup14\n        /* \"contracts/LoanManagerV2.sol\":5077:5094  userTotalColinUSD */\n      dup7\n        /* \"contracts/LoanManagerV2.sol\":5038:5095  LoanRequested(msg.sender, _loanAmount, userTotalColinUSD) */\n      mload(0x40)\n      tag_231\n      swap3\n      swap2\n      swap1\n      tag_198\n      jump\t// in\n    tag_231:\n      mload(0x40)\n      dup1\n      swap2\n      sub\n      swap1\n      log2\n        /* \"contracts/LoanManagerV2.sol\":3524:5102  {... */\n      pop\n      pop\n      pop\n      pop\n      pop\n      pop\n      pop\n      pop\n      pop\n      pop\n        /* \"@openzeppelin/contracts/utils/ReentrancyGuard.sol\":2398:2418  _nonReentrantAfter() */\n      tag_232\n        /* \"@openzeppelin/contracts/utils/ReentrancyGuard.sol\":2398:2416  _nonReentrantAfter */\n      tag_148\n        /* \"@openzeppelin/contracts/utils/ReentrancyGuard.sol\":2398:2418  _nonReentrantAfter() */\n      jump\t// in\n    tag_232:\n        /* \"contracts/LoanManagerV2.sol\":3416:5102  function requestLoan(uint256 _loanAmount, uint256 _desiredInterestRate) external nonReentrant whenNotPaused {... */\n      pop\n      pop\n      jump\t// out\n        /* \"contracts/LoanManagerV2.sol\":5575:6337  function repayLoan(uint256 _repayAmount) external nonReentrant whenNotPaused {... */\n    tag_91:\n        /* \"@openzeppelin/contracts/utils/ReentrancyGuard.sol\":2356:2377  _nonReentrantBefore() */\n      tag_234\n        /* \"@openzeppelin/contracts/utils/ReentrancyGuard.sol\":2356:2375  _nonReentrantBefore */\n      tag_129\n        /* \"@openzeppelin/contracts/utils/ReentrancyGuard.sol\":2356:2377  _nonReentrantBefore() */\n      jump\t// in\n    tag_234:\n        /* \"@openzeppelin/contracts/utils/Pausable.sol\":1474:1493  _requireNotPaused() */\n      tag_236\n        /* \"@openzeppelin/contracts/utils/Pausable.sol\":1474:1491  _requireNotPaused */\n      tag_185\n        /* \"@openzeppelin/contracts/utils/Pausable.sol\":1474:1493  _requireNotPaused() */\n      jump\t// in\n    tag_236:\n        /* \"contracts/LoanManagerV2.sol\":5662:5679  Loan storage loan */\n      0x00\n        /* \"contracts/LoanManagerV2.sol\":5682:5691  userLoans */\n      0x09\n        /* \"contracts/LoanManagerV2.sol\":5682:5703  userLoans[msg.sender] */\n      0x00\n        /* \"contracts/LoanManagerV2.sol\":5692:5702  msg.sender */\n      caller\n        /* \"contracts/LoanManagerV2.sol\":5682:5703  userLoans[msg.sender] */\n      0xffffffffffffffffffffffffffffffffffffffff\n      and\n      0xffffffffffffffffffffffffffffffffffffffff\n      and\n      dup2\n      mstore\n      0x20\n      add\n      swap1\n      dup2\n      mstore\n      0x20\n      add\n      0x00\n      keccak256\n        /* \"contracts/LoanManagerV2.sol\":5662:5703  Loan storage loan = userLoans[msg.sender] */\n      swap1\n      pop\n        /* \"contracts/LoanManagerV2.sol\":5735:5736  0 */\n      0x00\n        /* \"contracts/LoanManagerV2.sol\":5721:5725  loan */\n      dup2\n        /* \"contracts/LoanManagerV2.sol\":5721:5732  loan.amount */\n      0x00\n      add\n      sload\n        /* \"contracts/LoanManagerV2.sol\":5721:5736  loan.amount > 0 */\n      gt\n        /* \"contracts/LoanManagerV2.sol\":5713:5768  require(loan.amount > 0, \"LoanManager: No active loan\") */\n      tag_238\n      jumpi\n      mload(0x40)\n      0x08c379a000000000000000000000000000000000000000000000000000000000\n      dup2\n      mstore\n      0x04\n      add\n      tag_239\n      swap1\n      tag_133\n      jump\t// in\n    tag_239:\n      mload(0x40)\n      dup1\n      swap2\n      sub\n      swap1\n      revert\n    tag_238:\n        /* \"contracts/LoanManagerV2.sol\":5787:5791  loan */\n      dup1\n        /* \"contracts/LoanManagerV2.sol\":5787:5800  loan.isRepaid */\n      0x05\n      add\n      0x00\n      swap1\n      sload\n      swap1\n      0x0100\n      exp\n      swap1\n      div\n      0xff\n      and\n        /* \"contracts/LoanManagerV2.sol\":5786:5800  !loan.isRepaid */\n      iszero\n        /* \"contracts/LoanManagerV2.sol\":5778:5840  require(!loan.isRepaid, \"LoanManager: Loan is already repaid\") */\n      tag_240\n      jumpi\n      mload(0x40)\n      0x08c379a000000000000000000000000000000000000000000000000000000000\n      dup2\n      mstore\n      0x04\n      add\n      tag_241\n      swap1\n      tag_242\n      jump\t// in\n    tag_241:\n      mload(0x40)\n      dup1\n      swap2\n      sub\n      swap1\n      revert\n    tag_240:\n        /* \"contracts/LoanManagerV2.sol\":5851:5875  uint256 loanWithInterest */\n      0x00\n        /* \"contracts/LoanManagerV2.sol\":5878:5915  calculateLoanWithInterest(msg.sender) */\n      tag_243\n        /* \"contracts/LoanManagerV2.sol\":5904:5914  msg.sender */\n      caller\n        /* \"contracts/LoanManagerV2.sol\":5878:5903  calculateLoanWithInterest */\n      tag_68\n        /* \"contracts/LoanManagerV2.sol\":5878:5915  calculateLoanWithInterest(msg.sender) */\n      jump\t// in\n    tag_243:\n        /* \"contracts/LoanManagerV2.sol\":5851:5915  uint256 loanWithInterest = calculateLoanWithInterest(msg.sender) */\n      swap1\n      pop\n        /* \"contracts/LoanManagerV2.sol\":5949:5965  loanWithInterest */\n      dup1\n        /* \"contracts/LoanManagerV2.sol\":5933:5945  _repayAmount */\n      dup4\n        /* \"contracts/LoanManagerV2.sol\":5933:5965  _repayAmount >= loanWithInterest */\n      lt\n      iszero\n        /* \"contracts/LoanManagerV2.sol\":5925:6005  require(_repayAmount >= loanWithInterest, \"LoanManager: Insufficient repayment\") */\n      tag_244\n      jumpi\n      mload(0x40)\n      0x08c379a000000000000000000000000000000000000000000000000000000000\n      dup2\n      mstore\n      0x04\n      add\n      tag_245\n      swap1\n      tag_246\n      jump\t// in\n    tag_245:\n      mload(0x40)\n      dup1\n      swap2\n      sub\n      swap1\n      revert\n    tag_244:\n        /* \"contracts/LoanManagerV2.sol\":6024:6033  cUSDToken */\n      0x02\n      0x00\n      swap1\n      sload\n      swap1\n      0x0100\n      exp\n      swap1\n      div\n      0xffffffffffffffffffffffffffffffffffffffff\n      and\n        /* \"contracts/LoanManagerV2.sol\":6024:6046  cUSDToken.transferFrom */\n      0xffffffffffffffffffffffffffffffffffffffff\n      and\n      0x23b872dd\n        /* \"contracts/LoanManagerV2.sol\":6047:6057  msg.sender */\n      caller\n        /* \"contracts/LoanManagerV2.sol\":6067:6071  this */\n      address\n        /* \"contracts/LoanManagerV2.sol\":6074:6086  _repayAmount */\n      dup7\n        /* \"contracts/LoanManagerV2.sol\":6024:6087  cUSDToken.transferFrom(msg.sender, address(this), _repayAmount) */\n      mload(0x40)\n      dup5\n      0xffffffff\n      and\n      0xe0\n      shl\n      dup2\n      mstore\n      0x04\n      add\n      tag_247\n      swap4\n      swap3\n      swap2\n      swap1\n      tag_248\n      jump\t// in\n    tag_247:\n      0x20\n      mload(0x40)\n      dup1\n      dup4\n      sub\n      dup2\n      0x00\n      dup8\n      gas\n      call\n      iszero\n      dup1\n      iszero\n      tag_250\n      jumpi\n      returndatasize\n      0x00\n      dup1\n      returndatacopy\n      revert(0x00, returndatasize)\n    tag_250:\n      pop\n      pop\n      pop\n      pop\n      mload(0x40)\n      returndatasize\n      not(0x1f)\n      0x1f\n      dup3\n      add\n      and\n      dup3\n      add\n      dup1\n      0x40\n      mstore\n      pop\n      dup2\n      add\n      swap1\n      tag_251\n      swap2\n      swap1\n      tag_124\n      jump\t// in\n    tag_251:\n        /* \"contracts/LoanManagerV2.sol\":6016:6130  require(cUSDToken.transferFrom(msg.sender, address(this), _repayAmount), \"LoanManager: Repayment transfer failed\") */\n      tag_252\n      jumpi\n      mload(0x40)\n      0x08c379a000000000000000000000000000000000000000000000000000000000\n      dup2\n      mstore\n      0x04\n      add\n      tag_253\n      swap1\n      tag_254\n      jump\t// in\n    tag_253:\n      mload(0x40)\n      dup1\n      swap2\n      sub\n      swap1\n      revert\n    tag_252:\n        /* \"contracts/LoanManagerV2.sol\":6157:6161  true */\n      0x01\n        /* \"contracts/LoanManagerV2.sol\":6141:6145  loan */\n      dup3\n        /* \"contracts/LoanManagerV2.sol\":6141:6154  loan.isRepaid */\n      0x05\n      add\n      0x00\n        /* \"contracts/LoanManagerV2.sol\":6141:6161  loan.isRepaid = true */\n      0x0100\n      exp\n      dup2\n      sload\n      dup2\n      0xff\n      mul\n      not\n      and\n      swap1\n      dup4\n      iszero\n      iszero\n      mul\n      or\n      swap1\n      sstore\n      pop\n        /* \"contracts/LoanManagerV2.sol\":6171:6210  updateUserCreditScore(msg.sender, true) */\n      tag_255\n        /* \"contracts/LoanManagerV2.sol\":6193:6203  msg.sender */\n      caller\n        /* \"contracts/LoanManagerV2.sol\":6205:6209  true */\n      0x01\n        /* \"contracts/LoanManagerV2.sol\":6171:6192  updateUserCreditScore */\n      tag_141\n        /* \"contracts/LoanManagerV2.sol\":6171:6210  updateUserCreditScore(msg.sender, true) */\n      jump\t// in\n    tag_255:\n        /* \"contracts/LoanManagerV2.sol\":6221:6238  collateralManager */\n      0x03\n      0x00\n      swap1\n      sload\n      swap1\n      0x0100\n      exp\n      swap1\n      div\n      0xffffffffffffffffffffffffffffffffffffffff\n      and\n        /* \"contracts/LoanManagerV2.sol\":6221:6251  collateralManager.releaseFunds */\n      0xffffffffffffffffffffffffffffffffffffffff\n      and\n      0x192e7a7b\n        /* \"contracts/LoanManagerV2.sol\":6252:6262  msg.sender */\n      caller\n        /* \"contracts/LoanManagerV2.sol\":6221:6263  collateralManager.releaseFunds(msg.sender) */\n      mload(0x40)\n      dup3\n      0xffffffff\n      and\n      0xe0\n      shl\n      dup2\n      mstore\n      0x04\n      add\n      tag_256\n      swap2\n      swap1\n      tag_80\n      jump\t// in\n    tag_256:\n      0x00\n      mload(0x40)\n      dup1\n      dup4\n      sub\n      dup2\n      0x00\n      dup8\n      dup1\n      extcodesize\n      iszero\n      dup1\n      iszero\n      tag_257\n      jumpi\n      0x00\n      dup1\n      revert\n    tag_257:\n      pop\n      gas\n      call\n      iszero\n      dup1\n      iszero\n      tag_259\n      jumpi\n      returndatasize\n      0x00\n      dup1\n      returndatacopy\n      revert(0x00, returndatasize)\n    tag_259:\n      pop\n      pop\n      pop\n      pop\n        /* \"contracts/LoanManagerV2.sol\":6289:6299  msg.sender */\n      caller\n        /* \"contracts/LoanManagerV2.sol\":6278:6330  LoanRepaid(msg.sender, loan.amount, loan.collateral) */\n      0xffffffffffffffffffffffffffffffffffffffff\n      and\n      0xc7ce0a35f17b490de2a317e7fecb2cae86b1abffb03800b2f492823521382698\n        /* \"contracts/LoanManagerV2.sol\":6301:6305  loan */\n      dup4\n        /* \"contracts/LoanManagerV2.sol\":6301:6312  loan.amount */\n      0x00\n      add\n      sload\n        /* \"contracts/LoanManagerV2.sol\":6314:6318  loan */\n      dup5\n        /* \"contracts/LoanManagerV2.sol\":6314:6329  loan.collateral */\n      0x03\n      add\n      sload\n        /* \"contracts/LoanManagerV2.sol\":6278:6330  LoanRepaid(msg.sender, loan.amount, loan.collateral) */\n      mload(0x40)\n      tag_260\n      swap3\n      swap2\n      swap1\n      tag_198\n      jump\t// in\n    tag_260:\n      mload(0x40)\n      dup1\n      swap2\n      sub\n      swap1\n      log2\n        /* \"contracts/LoanManagerV2.sol\":5652:6337  {... */\n      pop\n      pop\n        /* \"@openzeppelin/contracts/utils/ReentrancyGuard.sol\":2398:2418  _nonReentrantAfter() */\n      tag_261\n        /* \"@openzeppelin/contracts/utils/ReentrancyGuard.sol\":2398:2416  _nonReentrantAfter */\n      tag_148\n        /* \"@openzeppelin/contracts/utils/ReentrancyGuard.sol\":2398:2418  _nonReentrantAfter() */\n      jump\t// in\n    tag_261:\n        /* \"contracts/LoanManagerV2.sol\":5575:6337  function repayLoan(uint256 _repayAmount) external nonReentrant whenNotPaused {... */\n      pop\n      jump\t// out\n        /* \"contracts/LoanManagerV2.sol\":769:804  uint256 public baseInterestRate = 5 */\n    tag_93:\n      sload(0x06)\n      dup2\n      jump\t// out\n        /* \"contracts/LoanManagerV2.sol\":7629:7866  function addFunds(uint256 _amount) external onlyOwner {... */\n    tag_97:\n        /* \"@openzeppelin/contracts/access/Ownable.sol\":1531:1544  _checkOwner() */\n      tag_263\n        /* \"@openzeppelin/contracts/access/Ownable.sol\":1531:1542  _checkOwner */\n      tag_116\n        /* \"@openzeppelin/contracts/access/Ownable.sol\":1531:1544  _checkOwner() */\n      jump\t// in\n    tag_263:\n        /* \"contracts/LoanManagerV2.sol\":7701:7710  cUSDToken */\n      0x02\n      0x00\n      swap1\n      sload\n      swap1\n      0x0100\n      exp\n      swap1\n      div\n      0xffffffffffffffffffffffffffffffffffffffff\n      and\n        /* \"contracts/LoanManagerV2.sol\":7701:7723  cUSDToken.transferFrom */\n      0xffffffffffffffffffffffffffffffffffffffff\n      and\n      0x23b872dd\n        /* \"contracts/LoanManagerV2.sol\":7724:7734  msg.sender */\n      caller\n        /* \"contracts/LoanManagerV2.sol\":7744:7748  this */\n      address\n        /* \"contracts/LoanManagerV2.sol\":7751:7758  _amount */\n      dup5\n        /* \"contracts/LoanManagerV2.sol\":7701:7759  cUSDToken.transferFrom(msg.sender, address(this), _amount) */\n      mload(0x40)\n      dup5\n      0xffffffff\n      and\n      0xe0\n      shl\n      dup2\n      mstore\n      0x04\n      add\n      tag_265\n      swap4\n      swap3\n      swap2\n      swap1\n      tag_248\n      jump\t// in\n    tag_265:\n      0x20\n      mload(0x40)\n      dup1\n      dup4\n      sub\n      dup2\n      0x00\n      dup8\n      gas\n      call\n      iszero\n      dup1\n      iszero\n      tag_267\n      jumpi\n      returndatasize\n      0x00\n      dup1\n      returndatacopy\n      revert(0x00, returndatasize)\n    tag_267:\n      pop\n      pop\n      pop\n      pop\n      mload(0x40)\n      returndatasize\n      not(0x1f)\n      0x1f\n      dup3\n      add\n      and\n      dup3\n      add\n      dup1\n      0x40\n      mstore\n      pop\n      dup2\n      add\n      swap1\n      tag_268\n      swap2\n      swap1\n      tag_124\n      jump\t// in\n    tag_268:\n        /* \"contracts/LoanManagerV2.sol\":7693:7797  require(cUSDToken.transferFrom(msg.sender, address(this), _amount), \"LoanManager: Fund transfer failed\") */\n      tag_269\n      jumpi\n      mload(0x40)\n      0x08c379a000000000000000000000000000000000000000000000000000000000\n      dup2\n      mstore\n      0x04\n      add\n      tag_270\n      swap1\n      tag_271\n      jump\t// in\n    tag_270:\n      mload(0x40)\n      dup1\n      swap2\n      sub\n      swap1\n      revert\n    tag_269:\n        /* \"contracts/LoanManagerV2.sol\":7819:7826  _amount */\n      dup1\n        /* \"contracts/LoanManagerV2.sol\":7807:7815  fundPool */\n      0x04\n      0x00\n        /* \"contracts/LoanManagerV2.sol\":7807:7826  fundPool += _amount */\n      dup3\n      dup3\n      sload\n      tag_272\n      swap2\n      swap1\n      tag_135\n      jump\t// in\n    tag_272:\n      swap3\n      pop\n      pop\n      dup2\n      swap1\n      sstore\n      pop\n        /* \"contracts/LoanManagerV2.sol\":7841:7859  FundAdded(_amount) */\n      0xdfa1544d71975f6aad289acdbd6a695a0789ed2f94a3aa775d08d2bbc570af6d\n        /* \"contracts/LoanManagerV2.sol\":7851:7858  _amount */\n      dup2\n        /* \"contracts/LoanManagerV2.sol\":7841:7859  FundAdded(_amount) */\n      mload(0x40)\n      tag_273\n      swap2\n      swap1\n      tag_54\n      jump\t// in\n    tag_273:\n      mload(0x40)\n      dup1\n      swap2\n      sub\n      swap1\n      log1\n        /* \"contracts/LoanManagerV2.sol\":7629:7866  function addFunds(uint256 _amount) external onlyOwner {... */\n      pop\n      jump\t// out\n        /* \"contracts/LoanManagerV2.sol\":1314:1355  mapping(address => Loan) public userLoans */\n    tag_100:\n      mstore(0x20, 0x09)\n      dup1\n      0x00\n      mstore\n      keccak256(0x00, 0x40)\n      0x00\n      swap2\n      pop\n      swap1\n      pop\n      dup1\n      0x00\n      add\n      sload\n      swap1\n      dup1\n      0x01\n      add\n      sload\n      swap1\n      dup1\n      0x02\n      add\n      sload\n      swap1\n      dup1\n      0x03\n      add\n      sload\n      swap1\n      dup1\n      0x04\n      add\n      sload\n      swap1\n      dup1\n      0x05\n      add\n      0x00\n      swap1\n      sload\n      swap1\n      0x0100\n      exp\n      swap1\n      div\n      0xff\n      and\n      swap1\n      dup1\n      0x05\n      add\n      0x01\n      swap1\n      sload\n      swap1\n      0x0100\n      exp\n      swap1\n      div\n      0xff\n      and\n      swap1\n      pop\n      dup8\n      jump\t// out\n        /* \"contracts/LoanManagerV2.sol\":3214:3357  function getStablePrice() public view returns (int) {... */\n    tag_104:\n        /* \"contracts/LoanManagerV2.sol\":3261:3264  int */\n      0x00\n        /* \"contracts/LoanManagerV2.sol\":3279:3288  int price */\n      dup1\n        /* \"contracts/LoanManagerV2.sol\":3295:3310  stablePriceFeed */\n      0x08\n      0x00\n      swap1\n      sload\n      swap1\n      0x0100\n      exp\n      swap1\n      div\n      0xffffffffffffffffffffffffffffffffffffffff\n      and\n        /* \"contracts/LoanManagerV2.sol\":3295:3326  stablePriceFeed.latestRoundData */\n      0xffffffffffffffffffffffffffffffffffffffff\n      and\n      0xfeaf968c\n        /* \"contracts/LoanManagerV2.sol\":3295:3328  stablePriceFeed.latestRoundData() */\n      mload(0x40)\n      dup2\n      0xffffffff\n      and\n      0xe0\n      shl\n      dup2\n      mstore\n      0x04\n      add\n      0xa0\n      mload(0x40)\n      dup1\n      dup4\n      sub\n      dup2\n      dup7\n      gas\n      staticcall\n      iszero\n      dup1\n      iszero\n      tag_276\n      jumpi\n      returndatasize\n      0x00\n      dup1\n      returndatacopy\n      revert(0x00, returndatasize)\n    tag_276:\n      pop\n      pop\n      pop\n      pop\n      mload(0x40)\n      returndatasize\n      not(0x1f)\n      0x1f\n      dup3\n      add\n      and\n      dup3\n      add\n      dup1\n      0x40\n      mstore\n      pop\n      dup2\n      add\n      swap1\n      tag_277\n      swap2\n      swap1\n      tag_113\n      jump\t// in\n    tag_277:\n        /* \"contracts/LoanManagerV2.sol\":3276:3328  (, int price,,,) = stablePriceFeed.latestRoundData() */\n      pop\n      pop\n      pop\n      swap2\n      pop\n      pop\n        /* \"contracts/LoanManagerV2.sol\":3345:3350  price */\n      dup1\n        /* \"contracts/LoanManagerV2.sol\":3338:3350  return price */\n      swap2\n      pop\n      pop\n        /* \"contracts/LoanManagerV2.sol\":3214:3357  function getStablePrice() public view returns (int) {... */\n      swap1\n      jump\t// out\n        /* \"@openzeppelin/contracts/access/Ownable.sol\":2543:2758  function transferOwnership(address newOwner) public virtual onlyOwner {... */\n    tag_108:\n        /* \"@openzeppelin/contracts/access/Ownable.sol\":1531:1544  _checkOwner() */\n      tag_279\n        /* \"@openzeppelin/contracts/access/Ownable.sol\":1531:1542  _checkOwner */\n      tag_116\n        /* \"@openzeppelin/contracts/access/Ownable.sol\":1531:1544  _checkOwner() */\n      jump\t// in\n    tag_279:\n        /* \"@openzeppelin/contracts/access/Ownable.sol\":2647:2648  0 */\n      0x00\n        /* \"@openzeppelin/contracts/access/Ownable.sol\":2627:2649  newOwner == address(0) */\n      0xffffffffffffffffffffffffffffffffffffffff\n      and\n        /* \"@openzeppelin/contracts/access/Ownable.sol\":2627:2635  newOwner */\n      dup2\n        /* \"@openzeppelin/contracts/access/Ownable.sol\":2627:2649  newOwner == address(0) */\n      0xffffffffffffffffffffffffffffffffffffffff\n      and\n      sub\n        /* \"@openzeppelin/contracts/access/Ownable.sol\":2623:2714  if (newOwner == address(0)) {... */\n      tag_281\n      jumpi\n        /* \"@openzeppelin/contracts/access/Ownable.sol\":2700:2701  0 */\n      0x00\n        /* \"@openzeppelin/contracts/access/Ownable.sol\":2672:2703  OwnableInvalidOwner(address(0)) */\n      mload(0x40)\n      0x1e4fbdf700000000000000000000000000000000000000000000000000000000\n      dup2\n      mstore\n      0x04\n      add\n      tag_282\n      swap2\n      swap1\n      tag_80\n      jump\t// in\n    tag_282:\n      mload(0x40)\n      dup1\n      swap2\n      sub\n      swap1\n      revert\n        /* \"@openzeppelin/contracts/access/Ownable.sol\":2623:2714  if (newOwner == address(0)) {... */\n    tag_281:\n        /* \"@openzeppelin/contracts/access/Ownable.sol\":2723:2751  _transferOwnership(newOwner) */\n      tag_283\n        /* \"@openzeppelin/contracts/access/Ownable.sol\":2742:2750  newOwner */\n      dup2\n        /* \"@openzeppelin/contracts/access/Ownable.sol\":2723:2741  _transferOwnership */\n      tag_174\n        /* \"@openzeppelin/contracts/access/Ownable.sol\":2723:2751  _transferOwnership(newOwner) */\n      jump\t// in\n    tag_283:\n        /* \"@openzeppelin/contracts/access/Ownable.sol\":2543:2758  function transferOwnership(address newOwner) public virtual onlyOwner {... */\n      pop\n      jump\t// out\n        /* \"@openzeppelin/contracts/access/Ownable.sol\":1796:1958  function _checkOwner() internal view virtual {... */\n    tag_116:\n        /* \"@openzeppelin/contracts/access/Ownable.sol\":1866:1878  _msgSender() */\n      tag_285\n        /* \"@openzeppelin/contracts/access/Ownable.sol\":1866:1876  _msgSender */\n      tag_286\n        /* \"@openzeppelin/contracts/access/Ownable.sol\":1866:1878  _msgSender() */\n      jump\t// in\n    tag_285:\n        /* \"@openzeppelin/contracts/access/Ownable.sol\":1855:1878  owner() != _msgSender() */\n      0xffffffffffffffffffffffffffffffffffffffff\n      and\n        /* \"@openzeppelin/contracts/access/Ownable.sol\":1855:1862  owner() */\n      tag_287\n        /* \"@openzeppelin/contracts/access/Ownable.sol\":1855:1860  owner */\n      tag_78\n        /* \"@openzeppelin/contracts/access/Ownable.sol\":1855:1862  owner() */\n      jump\t// in\n    tag_287:\n        /* \"@openzeppelin/contracts/access/Ownable.sol\":1855:1878  owner() != _msgSender() */\n      0xffffffffffffffffffffffffffffffffffffffff\n      and\n      eq\n        /* \"@openzeppelin/contracts/access/Ownable.sol\":1851:1952  if (owner() != _msgSender()) {... */\n      tag_288\n      jumpi\n        /* \"@openzeppelin/contracts/access/Ownable.sol\":1928:1940  _msgSender() */\n      tag_289\n        /* \"@openzeppelin/contracts/access/Ownable.sol\":1928:1938  _msgSender */\n      tag_286\n        /* \"@openzeppelin/contracts/access/Ownable.sol\":1928:1940  _msgSender() */\n      jump\t// in\n    tag_289:\n        /* \"@openzeppelin/contracts/access/Ownable.sol\":1901:1941  OwnableUnauthorizedAccount(_msgSender()) */\n      mload(0x40)\n      0x118cdaa700000000000000000000000000000000000000000000000000000000\n      dup2\n      mstore\n      0x04\n      add\n      tag_290\n      swap2\n      swap1\n      tag_80\n      jump\t// in\n    tag_290:\n      mload(0x40)\n      dup1\n      swap2\n      sub\n      swap1\n      revert\n        /* \"@openzeppelin/contracts/access/Ownable.sol\":1851:1952  if (owner() != _msgSender()) {... */\n    tag_288:\n        /* \"@openzeppelin/contracts/access/Ownable.sol\":1796:1958  function _checkOwner() internal view virtual {... */\n      jump\t// out\n        /* \"@openzeppelin/contracts/utils/ReentrancyGuard.sol\":2431:2738  function _nonReentrantBefore() private {... */\n    tag_129:\n        /* \"@openzeppelin/contracts/utils/ReentrancyGuard.sol\":1755:1756  2 */\n      0x02\n        /* \"@openzeppelin/contracts/utils/ReentrancyGuard.sol\":2558:2565  _status */\n      sload(0x00)\n        /* \"@openzeppelin/contracts/utils/ReentrancyGuard.sol\":2558:2576  _status == ENTERED */\n      sub\n        /* \"@openzeppelin/contracts/utils/ReentrancyGuard.sol\":2554:2640  if (_status == ENTERED) {... */\n      tag_292\n      jumpi\n        /* \"@openzeppelin/contracts/utils/ReentrancyGuard.sol\":2599:2629  ReentrancyGuardReentrantCall() */\n      mload(0x40)\n      0x3ee5aeb500000000000000000000000000000000000000000000000000000000\n      dup2\n      mstore\n      0x04\n      add\n      mload(0x40)\n      dup1\n      swap2\n      sub\n      swap1\n      revert\n        /* \"@openzeppelin/contracts/utils/ReentrancyGuard.sol\":2554:2640  if (_status == ENTERED) {... */\n    tag_292:\n        /* \"@openzeppelin/contracts/utils/ReentrancyGuard.sol\":1755:1756  2 */\n      0x02\n        /* \"@openzeppelin/contracts/utils/ReentrancyGuard.sol\":2714:2721  _status */\n      0x00\n        /* \"@openzeppelin/contracts/utils/ReentrancyGuard.sol\":2714:2731  _status = ENTERED */\n      dup2\n      swap1\n      sstore\n      pop\n        /* \"@openzeppelin/contracts/utils/ReentrancyGuard.sol\":2431:2738  function _nonReentrantBefore() private {... */\n      jump\t// out\n        /* \"contracts/LoanManagerV2.sol\":7071:7589  function updateUserCreditScore(address _user, bool isRepaid) internal {... */\n    tag_141:\n        /* \"contracts/LoanManagerV2.sol\":7151:7176  UserCredit storage credit */\n      0x00\n        /* \"contracts/LoanManagerV2.sol\":7179:7195  userCreditScores */\n      0x0a\n        /* \"contracts/LoanManagerV2.sol\":7179:7202  userCreditScores[_user] */\n      0x00\n        /* \"contracts/LoanManagerV2.sol\":7196:7201  _user */\n      dup5\n        /* \"contracts/LoanManagerV2.sol\":7179:7202  userCreditScores[_user] */\n      0xffffffffffffffffffffffffffffffffffffffff\n      and\n      0xffffffffffffffffffffffffffffffffffffffff\n      and\n      dup2\n      mstore\n      0x20\n      add\n      swap1\n      dup2\n      mstore\n      0x20\n      add\n      0x00\n      keccak256\n        /* \"contracts/LoanManagerV2.sol\":7151:7202  UserCredit storage credit = userCreditScores[_user] */\n      swap1\n      pop\n        /* \"contracts/LoanManagerV2.sol\":7216:7224  isRepaid */\n      dup2\n        /* \"contracts/LoanManagerV2.sol\":7212:7335  if (isRepaid) {... */\n      iszero\n      tag_294\n      jumpi\n        /* \"contracts/LoanManagerV2.sol\":7240:7246  credit */\n      dup1\n        /* \"contracts/LoanManagerV2.sol\":7240:7263  credit.totalLoansRepaid */\n      0x00\n      add\n      0x00\n        /* \"contracts/LoanManagerV2.sol\":7240:7265  credit.totalLoansRepaid++ */\n      dup2\n      sload\n      dup1\n      swap3\n      swap2\n      swap1\n      tag_295\n      swap1\n      tag_296\n      jump\t// in\n    tag_295:\n      swap2\n      swap1\n      pop\n      sstore\n      pop\n        /* \"contracts/LoanManagerV2.sol\":7212:7335  if (isRepaid) {... */\n      jump(tag_297)\n    tag_294:\n        /* \"contracts/LoanManagerV2.sol\":7296:7302  credit */\n      dup1\n        /* \"contracts/LoanManagerV2.sol\":7296:7322  credit.totalLoansDefaulted */\n      0x01\n      add\n      0x00\n        /* \"contracts/LoanManagerV2.sol\":7296:7324  credit.totalLoansDefaulted++ */\n      dup2\n      sload\n      dup1\n      swap3\n      swap2\n      swap1\n      tag_298\n      swap1\n      tag_296\n      jump\t// in\n    tag_298:\n      swap2\n      swap1\n      pop\n      sstore\n      pop\n        /* \"contracts/LoanManagerV2.sol\":7212:7335  if (isRepaid) {... */\n    tag_297:\n        /* \"contracts/LoanManagerV2.sol\":7581:7582  5 */\n      0x05\n        /* \"contracts/LoanManagerV2.sol\":7552:7558  credit */\n      dup2\n        /* \"contracts/LoanManagerV2.sol\":7552:7578  credit.totalLoansDefaulted */\n      0x01\n      add\n      sload\n        /* \"contracts/LoanManagerV2.sol\":7552:7582  credit.totalLoansDefaulted * 5 */\n      tag_299\n      swap2\n      swap1\n      tag_165\n      jump\t// in\n    tag_299:\n        /* \"contracts/LoanManagerV2.sol\":7547:7549  10 */\n      0x0a\n        /* \"contracts/LoanManagerV2.sol\":7521:7527  credit */\n      dup3\n        /* \"contracts/LoanManagerV2.sol\":7521:7544  credit.totalLoansRepaid */\n      0x00\n      add\n      sload\n        /* \"contracts/LoanManagerV2.sol\":7521:7549  credit.totalLoansRepaid * 10 */\n      tag_300\n      swap2\n      swap1\n      tag_165\n      jump\t// in\n    tag_300:\n        /* \"contracts/LoanManagerV2.sol\":7521:7582  credit.totalLoansRepaid * 10 - credit.totalLoansDefaulted * 5 */\n      tag_301\n      swap2\n      swap1\n      tag_163\n      jump\t// in\n    tag_301:\n        /* \"contracts/LoanManagerV2.sol\":7500:7506  credit */\n      dup2\n        /* \"contracts/LoanManagerV2.sol\":7500:7518  credit.creditScore */\n      0x02\n      add\n        /* \"contracts/LoanManagerV2.sol\":7500:7582  credit.creditScore = credit.totalLoansRepaid * 10 - credit.totalLoansDefaulted * 5 */\n      dup2\n      swap1\n      sstore\n      pop\n        /* \"contracts/LoanManagerV2.sol\":7141:7589  {... */\n      pop\n        /* \"contracts/LoanManagerV2.sol\":7071:7589  function updateUserCreditScore(address _user, bool isRepaid) internal {... */\n      pop\n      pop\n      jump\t// out\n        /* \"@openzeppelin/contracts/utils/ReentrancyGuard.sol\":2744:2952  function _nonReentrantAfter() private {... */\n    tag_148:\n        /* \"@openzeppelin/contracts/utils/ReentrancyGuard.sol\":1713:1714  1 */\n      0x01\n        /* \"@openzeppelin/contracts/utils/ReentrancyGuard.sol\":2924:2931  _status */\n      0x00\n        /* \"@openzeppelin/contracts/utils/ReentrancyGuard.sol\":2924:2945  _status = NOT_ENTERED */\n      dup2\n      swap1\n      sstore\n      pop\n        /* \"@openzeppelin/contracts/utils/ReentrancyGuard.sol\":2744:2952  function _nonReentrantAfter() private {... */\n      jump\t// out\n        /* \"@openzeppelin/contracts/utils/Pausable.sol\":2710:2827  function _unpause() internal virtual whenPaused {... */\n    tag_159:\n        /* \"@openzeppelin/contracts/utils/Pausable.sol\":1721:1737  _requirePaused() */\n      tag_304\n        /* \"@openzeppelin/contracts/utils/Pausable.sol\":1721:1735  _requirePaused */\n      tag_305\n        /* \"@openzeppelin/contracts/utils/Pausable.sol\":1721:1737  _requirePaused() */\n      jump\t// in\n    tag_304:\n        /* \"@openzeppelin/contracts/utils/Pausable.sol\":2778:2783  false */\n      0x00\n        /* \"@openzeppelin/contracts/utils/Pausable.sol\":2768:2775  _paused */\n      0x01\n      0x14\n        /* \"@openzeppelin/contracts/utils/Pausable.sol\":2768:2783  _paused = false */\n      0x0100\n      exp\n      dup2\n      sload\n      dup2\n      0xff\n      mul\n      not\n      and\n      swap1\n      dup4\n      iszero\n      iszero\n      mul\n      or\n      swap1\n      sstore\n      pop\n        /* \"@openzeppelin/contracts/utils/Pausable.sol\":2798:2820  Unpaused(_msgSender()) */\n      0x5db9ee0a495bf2e6ff9c91a7834c1ba4fdd244a5e8aa4e537bd38aeae4b073aa\n        /* \"@openzeppelin/contracts/utils/Pausable.sol\":2807:2819  _msgSender() */\n      tag_307\n        /* \"@openzeppelin/contracts/utils/Pausable.sol\":2807:2817  _msgSender */\n      tag_286\n        /* \"@openzeppelin/contracts/utils/Pausable.sol\":2807:2819  _msgSender() */\n      jump\t// in\n    tag_307:\n        /* \"@openzeppelin/contracts/utils/Pausable.sol\":2798:2820  Unpaused(_msgSender()) */\n      mload(0x40)\n      tag_308\n      swap2\n      swap1\n      tag_80\n      jump\t// in\n    tag_308:\n      mload(0x40)\n      dup1\n      swap2\n      sub\n      swap1\n      log1\n        /* \"@openzeppelin/contracts/utils/Pausable.sol\":2710:2827  function _unpause() internal virtual whenPaused {... */\n      jump\t// out\n        /* \"@openzeppelin/contracts/access/Ownable.sol\":2912:3099  function _transferOwnership(address newOwner) internal virtual {... */\n    tag_174:\n        /* \"@openzeppelin/contracts/access/Ownable.sol\":2985:3001  address oldOwner */\n      0x00\n        /* \"@openzeppelin/contracts/access/Ownable.sol\":3004:3010  _owner */\n      0x01\n      0x00\n      swap1\n      sload\n      swap1\n      0x0100\n      exp\n      swap1\n      div\n      0xffffffffffffffffffffffffffffffffffffffff\n      and\n        /* \"@openzeppelin/contracts/access/Ownable.sol\":2985:3010  address oldOwner = _owner */\n      swap1\n      pop\n        /* \"@openzeppelin/contracts/access/Ownable.sol\":3029:3037  newOwner */\n      dup2\n        /* \"@openzeppelin/contracts/access/Ownable.sol\":3020:3026  _owner */\n      0x01\n      0x00\n        /* \"@openzeppelin/contracts/access/Ownable.sol\":3020:3037  _owner = newOwner */\n      0x0100\n      exp\n      dup2\n      sload\n      dup2\n      0xffffffffffffffffffffffffffffffffffffffff\n      mul\n      not\n      and\n      swap1\n      dup4\n      0xffffffffffffffffffffffffffffffffffffffff\n      and\n      mul\n      or\n      swap1\n      sstore\n      pop\n        /* \"@openzeppelin/contracts/access/Ownable.sol\":3083:3091  newOwner */\n      dup2\n        /* \"@openzeppelin/contracts/access/Ownable.sol\":3052:3092  OwnershipTransferred(oldOwner, newOwner) */\n      0xffffffffffffffffffffffffffffffffffffffff\n      and\n        /* \"@openzeppelin/contracts/access/Ownable.sol\":3073:3081  oldOwner */\n      dup2\n        /* \"@openzeppelin/contracts/access/Ownable.sol\":3052:3092  OwnershipTransferred(oldOwner, newOwner) */\n      0xffffffffffffffffffffffffffffffffffffffff\n      and\n      0x8be0079c531659141344cd1fd0a4f28419497f9722a3daafe3b4186f6b6457e0\n      mload(0x40)\n      mload(0x40)\n      dup1\n      swap2\n      sub\n      swap1\n      log3\n        /* \"@openzeppelin/contracts/access/Ownable.sol\":2975:3099  {... */\n      pop\n        /* \"@openzeppelin/contracts/access/Ownable.sol\":2912:3099  function _transferOwnership(address newOwner) internal virtual {... */\n      pop\n      jump\t// out\n        /* \"@openzeppelin/contracts/utils/Pausable.sol\":2463:2578  function _pause() internal virtual whenNotPaused {... */\n    tag_179:\n        /* \"@openzeppelin/contracts/utils/Pausable.sol\":1474:1493  _requireNotPaused() */\n      tag_311\n        /* \"@openzeppelin/contracts/utils/Pausable.sol\":1474:1491  _requireNotPaused */\n      tag_185\n        /* \"@openzeppelin/contracts/utils/Pausable.sol\":1474:1493  _requireNotPaused() */\n      jump\t// in\n    tag_311:\n        /* \"@openzeppelin/contracts/utils/Pausable.sol\":2532:2536  true */\n      0x01\n        /* \"@openzeppelin/contracts/utils/Pausable.sol\":2522:2529  _paused */\n      dup1\n      0x14\n        /* \"@openzeppelin/contracts/utils/Pausable.sol\":2522:2536  _paused = true */\n      0x0100\n      exp\n      dup2\n      sload\n      dup2\n      0xff\n      mul\n      not\n      and\n      swap1\n      dup4\n      iszero\n      iszero\n      mul\n      or\n      swap1\n      sstore\n      pop\n        /* \"@openzeppelin/contracts/utils/Pausable.sol\":2551:2571  Paused(_msgSender()) */\n      0x62e78cea01bee320cd4e420270b5ea74000d11b0c9f74754ebdbfc544b05a258\n        /* \"@openzeppelin/contracts/utils/Pausable.sol\":2558:2570  _msgSender() */\n      tag_313\n        /* \"@openzeppelin/contracts/utils/Pausable.sol\":2558:2568  _msgSender */\n      tag_286\n        /* \"@openzeppelin/contracts/utils/Pausable.sol\":2558:2570  _msgSender() */\n      jump\t// in\n    tag_313:\n        /* \"@openzeppelin/contracts/utils/Pausable.sol\":2551:2571  Paused(_msgSender()) */\n      mload(0x40)\n      tag_314\n      swap2\n      swap1\n      tag_80\n      jump\t// in\n    tag_314:\n      mload(0x40)\n      dup1\n      swap2\n      sub\n      swap1\n      log1\n        /* \"@openzeppelin/contracts/utils/Pausable.sol\":2463:2578  function _pause() internal virtual whenNotPaused {... */\n      jump\t// out\n        /* \"@openzeppelin/contracts/utils/Pausable.sol\":2002:2130  function _requireNotPaused() internal view virtual {... */\n    tag_185:\n        /* \"@openzeppelin/contracts/utils/Pausable.sol\":2067:2075  paused() */\n      tag_316\n        /* \"@openzeppelin/contracts/utils/Pausable.sol\":2067:2073  paused */\n      tag_63\n        /* \"@openzeppelin/contracts/utils/Pausable.sol\":2067:2075  paused() */\n      jump\t// in\n    tag_316:\n        /* \"@openzeppelin/contracts/utils/Pausable.sol\":2063:2124  if (paused()) {... */\n      iszero\n      tag_317\n      jumpi\n        /* \"@openzeppelin/contracts/utils/Pausable.sol\":2098:2113  EnforcedPause() */\n      mload(0x40)\n      0xd93c066500000000000000000000000000000000000000000000000000000000\n      dup2\n      mstore\n      0x04\n      add\n      mload(0x40)\n      dup1\n      swap2\n      sub\n      swap1\n      revert\n        /* \"@openzeppelin/contracts/utils/Pausable.sol\":2063:2124  if (paused()) {... */\n    tag_317:\n        /* \"@openzeppelin/contracts/utils/Pausable.sol\":2002:2130  function _requireNotPaused() internal view virtual {... */\n      jump\t// out\n        /* \"@openzeppelin/contracts/utils/Context.sol\":656:752  function _msgSender() internal view virtual returns (address) {... */\n    tag_286:\n        /* \"@openzeppelin/contracts/utils/Context.sol\":709:716  address */\n      0x00\n        /* \"@openzeppelin/contracts/utils/Context.sol\":735:745  msg.sender */\n      caller\n        /* \"@openzeppelin/contracts/utils/Context.sol\":728:745  return msg.sender */\n      swap1\n      pop\n        /* \"@openzeppelin/contracts/utils/Context.sol\":656:752  function _msgSender() internal view virtual returns (address) {... */\n      swap1\n      jump\t// out\n        /* \"@openzeppelin/contracts/utils/Pausable.sol\":2202:2328  function _requirePaused() internal view virtual {... */\n    tag_305:\n        /* \"@openzeppelin/contracts/utils/Pausable.sol\":2265:2273  paused() */\n      tag_320\n        /* \"@openzeppelin/contracts/utils/Pausable.sol\":2265:2271  paused */\n      tag_63\n        /* \"@openzeppelin/contracts/utils/Pausable.sol\":2265:2273  paused() */\n      jump\t// in\n    tag_320:\n        /* \"@openzeppelin/contracts/utils/Pausable.sol\":2260:2322  if (!paused()) {... */\n      tag_321\n      jumpi\n        /* \"@openzeppelin/contracts/utils/Pausable.sol\":2296:2311  ExpectedPause() */\n      mload(0x40)\n      0x8dfc202b00000000000000000000000000000000000000000000000000000000\n      dup2\n      mstore\n      0x04\n      add\n      mload(0x40)\n      dup1\n      swap2\n      sub\n      swap1\n      revert\n        /* \"@openzeppelin/contracts/utils/Pausable.sol\":2260:2322  if (!paused()) {... */\n    tag_321:\n        /* \"@openzeppelin/contracts/utils/Pausable.sol\":2202:2328  function _requirePaused() internal view virtual {... */\n      jump\t// out\n        /* \"#utility.yul\":7:133   */\n    tag_322:\n        /* \"#utility.yul\":44:51   */\n      0x00\n        /* \"#utility.yul\":84:126   */\n      0xffffffffffffffffffffffffffffffffffffffff\n        /* \"#utility.yul\":77:82   */\n      dup3\n        /* \"#utility.yul\":73:127   */\n      and\n        /* \"#utility.yul\":62:127   */\n      swap1\n      pop\n        /* \"#utility.yul\":7:133   */\n      swap2\n      swap1\n      pop\n      jump\t// out\n        /* \"#utility.yul\":139:199   */\n    tag_323:\n        /* \"#utility.yul\":167:170   */\n      0x00\n        /* \"#utility.yul\":188:193   */\n      dup2\n        /* \"#utility.yul\":181:193   */\n      swap1\n      pop\n        /* \"#utility.yul\":139:199   */\n      swap2\n      swap1\n      pop\n      jump\t// out\n        /* \"#utility.yul\":205:347   */\n    tag_324:\n        /* \"#utility.yul\":255:264   */\n      0x00\n        /* \"#utility.yul\":288:341   */\n      tag_382\n        /* \"#utility.yul\":306:340   */\n      tag_383\n        /* \"#utility.yul\":315:339   */\n      tag_384\n        /* \"#utility.yul\":333:338   */\n      dup5\n        /* \"#utility.yul\":315:339   */\n      tag_322\n      jump\t// in\n    tag_384:\n        /* \"#utility.yul\":306:340   */\n      tag_323\n      jump\t// in\n    tag_383:\n        /* \"#utility.yul\":288:341   */\n      tag_322\n      jump\t// in\n    tag_382:\n        /* \"#utility.yul\":275:341   */\n      swap1\n      pop\n        /* \"#utility.yul\":205:347   */\n      swap2\n      swap1\n      pop\n      jump\t// out\n        /* \"#utility.yul\":353:479   */\n    tag_325:\n        /* \"#utility.yul\":403:412   */\n      0x00\n        /* \"#utility.yul\":436:473   */\n      tag_386\n        /* \"#utility.yul\":467:472   */\n      dup3\n        /* \"#utility.yul\":436:473   */\n      tag_324\n      jump\t// in\n    tag_386:\n        /* \"#utility.yul\":423:473   */\n      swap1\n      pop\n        /* \"#utility.yul\":353:479   */\n      swap2\n      swap1\n      pop\n      jump\t// out\n        /* \"#utility.yul\":485:624   */\n    tag_326:\n        /* \"#utility.yul\":548:557   */\n      0x00\n        /* \"#utility.yul\":581:618   */\n      tag_388\n        /* \"#utility.yul\":612:617   */\n      dup3\n        /* \"#utility.yul\":581:618   */\n      tag_325\n      jump\t// in\n    tag_388:\n        /* \"#utility.yul\":568:618   */\n      swap1\n      pop\n        /* \"#utility.yul\":485:624   */\n      swap2\n      swap1\n      pop\n      jump\t// out\n        /* \"#utility.yul\":630:787   */\n    tag_327:\n        /* \"#utility.yul\":730:780   */\n      tag_390\n        /* \"#utility.yul\":774:779   */\n      dup2\n        /* \"#utility.yul\":730:780   */\n      tag_326\n      jump\t// in\n    tag_390:\n        /* \"#utility.yul\":725:728   */\n      dup3\n        /* \"#utility.yul\":718:781   */\n      mstore\n        /* \"#utility.yul\":630:787   */\n      pop\n      pop\n      jump\t// out\n        /* \"#utility.yul\":793:1041   */\n    tag_32:\n        /* \"#utility.yul\":899:903   */\n      0x00\n        /* \"#utility.yul\":937:939   */\n      0x20\n        /* \"#utility.yul\":926:935   */\n      dup3\n        /* \"#utility.yul\":922:940   */\n      add\n        /* \"#utility.yul\":914:940   */\n      swap1\n      pop\n        /* \"#utility.yul\":950:1034   */\n      tag_392\n        /* \"#utility.yul\":1031:1032   */\n      0x00\n        /* \"#utility.yul\":1020:1029   */\n      dup4\n        /* \"#utility.yul\":1016:1033   */\n      add\n        /* \"#utility.yul\":1007:1013   */\n      dup5\n        /* \"#utility.yul\":950:1034   */\n      tag_327\n      jump\t// in\n    tag_392:\n        /* \"#utility.yul\":793:1041   */\n      swap3\n      swap2\n      pop\n      pop\n      jump\t// out\n        /* \"#utility.yul\":1047:1123   */\n    tag_328:\n        /* \"#utility.yul\":1083:1090   */\n      0x00\n        /* \"#utility.yul\":1112:1117   */\n      dup2\n        /* \"#utility.yul\":1101:1117   */\n      swap1\n      pop\n        /* \"#utility.yul\":1047:1123   */\n      swap2\n      swap1\n      pop\n      jump\t// out\n        /* \"#utility.yul\":1129:1244   */\n    tag_329:\n        /* \"#utility.yul\":1214:1237   */\n      tag_395\n        /* \"#utility.yul\":1231:1236   */\n      dup2\n        /* \"#utility.yul\":1214:1237   */\n      tag_328\n      jump\t// in\n    tag_395:\n        /* \"#utility.yul\":1209:1212   */\n      dup3\n        /* \"#utility.yul\":1202:1238   */\n      mstore\n        /* \"#utility.yul\":1129:1244   */\n      pop\n      pop\n      jump\t// out\n        /* \"#utility.yul\":1250:1468   */\n    tag_36:\n        /* \"#utility.yul\":1341:1345   */\n      0x00\n        /* \"#utility.yul\":1379:1381   */\n      0x20\n        /* \"#utility.yul\":1368:1377   */\n      dup3\n        /* \"#utility.yul\":1364:1382   */\n      add\n        /* \"#utility.yul\":1356:1382   */\n      swap1\n      pop\n        /* \"#utility.yul\":1392:1461   */\n      tag_397\n        /* \"#utility.yul\":1458:1459   */\n      0x00\n        /* \"#utility.yul\":1447:1456   */\n      dup4\n        /* \"#utility.yul\":1443:1460   */\n      add\n        /* \"#utility.yul\":1434:1440   */\n      dup5\n        /* \"#utility.yul\":1392:1461   */\n      tag_329\n      jump\t// in\n    tag_397:\n        /* \"#utility.yul\":1250:1468   */\n      swap3\n      swap2\n      pop\n      pop\n      jump\t// out\n        /* \"#utility.yul\":1555:1672   */\n    tag_331:\n        /* \"#utility.yul\":1664:1665   */\n      0x00\n        /* \"#utility.yul\":1661:1662   */\n      dup1\n        /* \"#utility.yul\":1654:1666   */\n      revert\n        /* \"#utility.yul\":1801:1897   */\n    tag_333:\n        /* \"#utility.yul\":1838:1845   */\n      0x00\n        /* \"#utility.yul\":1867:1891   */\n      tag_402\n        /* \"#utility.yul\":1885:1890   */\n      dup3\n        /* \"#utility.yul\":1867:1891   */\n      tag_322\n      jump\t// in\n    tag_402:\n        /* \"#utility.yul\":1856:1891   */\n      swap1\n      pop\n        /* \"#utility.yul\":1801:1897   */\n      swap2\n      swap1\n      pop\n      jump\t// out\n        /* \"#utility.yul\":1903:2025   */\n    tag_334:\n        /* \"#utility.yul\":1976:2000   */\n      tag_404\n        /* \"#utility.yul\":1994:1999   */\n      dup2\n        /* \"#utility.yul\":1976:2000   */\n      tag_333\n      jump\t// in\n    tag_404:\n        /* \"#utility.yul\":1969:1974   */\n      dup2\n        /* \"#utility.yul\":1966:2001   */\n      eq\n        /* \"#utility.yul\":1956:2019   */\n      tag_405\n      jumpi\n        /* \"#utility.yul\":2015:2016   */\n      0x00\n        /* \"#utility.yul\":2012:2013   */\n      dup1\n        /* \"#utility.yul\":2005:2017   */\n      revert\n        /* \"#utility.yul\":1956:2019   */\n    tag_405:\n        /* \"#utility.yul\":1903:2025   */\n      pop\n      jump\t// out\n        /* \"#utility.yul\":2031:2170   */\n    tag_335:\n        /* \"#utility.yul\":2077:2082   */\n      0x00\n        /* \"#utility.yul\":2115:2121   */\n      dup2\n        /* \"#utility.yul\":2102:2122   */\n      calldataload\n        /* \"#utility.yul\":2093:2122   */\n      swap1\n      pop\n        /* \"#utility.yul\":2131:2164   */\n      tag_407\n        /* \"#utility.yul\":2158:2163   */\n      dup2\n        /* \"#utility.yul\":2131:2164   */\n      tag_334\n      jump\t// in\n    tag_407:\n        /* \"#utility.yul\":2031:2170   */\n      swap3\n      swap2\n      pop\n      pop\n      jump\t// out\n        /* \"#utility.yul\":2176:2505   */\n    tag_41:\n        /* \"#utility.yul\":2235:2241   */\n      0x00\n        /* \"#utility.yul\":2284:2286   */\n      0x20\n        /* \"#utility.yul\":2272:2281   */\n      dup3\n        /* \"#utility.yul\":2263:2270   */\n      dup5\n        /* \"#utility.yul\":2259:2282   */\n      sub\n        /* \"#utility.yul\":2255:2287   */\n      slt\n        /* \"#utility.yul\":2252:2371   */\n      iszero\n      tag_409\n      jumpi\n        /* \"#utility.yul\":2290:2369   */\n      tag_410\n      tag_331\n      jump\t// in\n    tag_410:\n        /* \"#utility.yul\":2252:2371   */\n    tag_409:\n        /* \"#utility.yul\":2410:2411   */\n      0x00\n        /* \"#utility.yul\":2435:2488   */\n      tag_411\n        /* \"#utility.yul\":2480:2487   */\n      dup5\n        /* \"#utility.yul\":2471:2477   */\n      dup3\n        /* \"#utility.yul\":2460:2469   */\n      dup6\n        /* \"#utility.yul\":2456:2478   */\n      add\n        /* \"#utility.yul\":2435:2488   */\n      tag_335\n      jump\t// in\n    tag_411:\n        /* \"#utility.yul\":2425:2488   */\n      swap2\n      pop\n        /* \"#utility.yul\":2381:2498   */\n      pop\n        /* \"#utility.yul\":2176:2505   */\n      swap3\n      swap2\n      pop\n      pop\n      jump\t// out\n        /* \"#utility.yul\":2511:2588   */\n    tag_336:\n        /* \"#utility.yul\":2548:2555   */\n      0x00\n        /* \"#utility.yul\":2577:2582   */\n      dup2\n        /* \"#utility.yul\":2566:2582   */\n      swap1\n      pop\n        /* \"#utility.yul\":2511:2588   */\n      swap2\n      swap1\n      pop\n      jump\t// out\n        /* \"#utility.yul\":2594:2716   */\n    tag_337:\n        /* \"#utility.yul\":2667:2691   */\n      tag_414\n        /* \"#utility.yul\":2685:2690   */\n      dup2\n        /* \"#utility.yul\":2667:2691   */\n      tag_336\n      jump\t// in\n    tag_414:\n        /* \"#utility.yul\":2660:2665   */\n      dup2\n        /* \"#utility.yul\":2657:2692   */\n      eq\n        /* \"#utility.yul\":2647:2710   */\n      tag_415\n      jumpi\n        /* \"#utility.yul\":2706:2707   */\n      0x00\n        /* \"#utility.yul\":2703:2704   */\n      dup1\n        /* \"#utility.yul\":2696:2708   */\n      revert\n        /* \"#utility.yul\":2647:2710   */\n    tag_415:\n        /* \"#utility.yul\":2594:2716   */\n      pop\n      jump\t// out\n        /* \"#utility.yul\":2722:2861   */\n    tag_338:\n        /* \"#utility.yul\":2768:2773   */\n      0x00\n        /* \"#utility.yul\":2806:2812   */\n      dup2\n        /* \"#utility.yul\":2793:2813   */\n      calldataload\n        /* \"#utility.yul\":2784:2813   */\n      swap1\n      pop\n        /* \"#utility.yul\":2822:2855   */\n      tag_417\n        /* \"#utility.yul\":2849:2854   */\n      dup2\n        /* \"#utility.yul\":2822:2855   */\n      tag_337\n      jump\t// in\n    tag_417:\n        /* \"#utility.yul\":2722:2861   */\n      swap3\n      swap2\n      pop\n      pop\n      jump\t// out\n        /* \"#utility.yul\":2867:3341   */\n    tag_45:\n        /* \"#utility.yul\":2935:2941   */\n      0x00\n        /* \"#utility.yul\":2943:2949   */\n      dup1\n        /* \"#utility.yul\":2992:2994   */\n      0x40\n        /* \"#utility.yul\":2980:2989   */\n      dup4\n        /* \"#utility.yul\":2971:2978   */\n      dup6\n        /* \"#utility.yul\":2967:2990   */\n      sub\n        /* \"#utility.yul\":2963:2995   */\n      slt\n        /* \"#utility.yul\":2960:3079   */\n      iszero\n      tag_419\n      jumpi\n        /* \"#utility.yul\":2998:3077   */\n      tag_420\n      tag_331\n      jump\t// in\n    tag_420:\n        /* \"#utility.yul\":2960:3079   */\n    tag_419:\n        /* \"#utility.yul\":3118:3119   */\n      0x00\n        /* \"#utility.yul\":3143:3196   */\n      tag_421\n        /* \"#utility.yul\":3188:3195   */\n      dup6\n        /* \"#utility.yul\":3179:3185   */\n      dup3\n        /* \"#utility.yul\":3168:3177   */\n      dup7\n        /* \"#utility.yul\":3164:3186   */\n      add\n        /* \"#utility.yul\":3143:3196   */\n      tag_335\n      jump\t// in\n    tag_421:\n        /* \"#utility.yul\":3133:3196   */\n      swap3\n      pop\n        /* \"#utility.yul\":3089:3206   */\n      pop\n        /* \"#utility.yul\":3245:3247   */\n      0x20\n        /* \"#utility.yul\":3271:3324   */\n      tag_422\n        /* \"#utility.yul\":3316:3323   */\n      dup6\n        /* \"#utility.yul\":3307:3313   */\n      dup3\n        /* \"#utility.yul\":3296:3305   */\n      dup7\n        /* \"#utility.yul\":3292:3314   */\n      add\n        /* \"#utility.yul\":3271:3324   */\n      tag_338\n      jump\t// in\n    tag_422:\n        /* \"#utility.yul\":3261:3324   */\n      swap2\n      pop\n        /* \"#utility.yul\":3216:3334   */\n      pop\n        /* \"#utility.yul\":2867:3341   */\n      swap3\n      pop\n      swap3\n      swap1\n      pop\n      jump\t// out\n        /* \"#utility.yul\":3347:3499   */\n    tag_339:\n        /* \"#utility.yul\":3423:3432   */\n      0x00\n        /* \"#utility.yul\":3456:3493   */\n      tag_424\n        /* \"#utility.yul\":3487:3492   */\n      dup3\n        /* \"#utility.yul\":3456:3493   */\n      tag_325\n      jump\t// in\n    tag_424:\n        /* \"#utility.yul\":3443:3493   */\n      swap1\n      pop\n        /* \"#utility.yul\":3347:3499   */\n      swap2\n      swap1\n      pop\n      jump\t// out\n        /* \"#utility.yul\":3505:3688   */\n    tag_340:\n        /* \"#utility.yul\":3618:3681   */\n      tag_426\n        /* \"#utility.yul\":3675:3680   */\n      dup2\n        /* \"#utility.yul\":3618:3681   */\n      tag_339\n      jump\t// in\n    tag_426:\n        /* \"#utility.yul\":3613:3616   */\n      dup3\n        /* \"#utility.yul\":3606:3682   */\n      mstore\n        /* \"#utility.yul\":3505:3688   */\n      pop\n      pop\n      jump\t// out\n        /* \"#utility.yul\":3694:3968   */\n    tag_50:\n        /* \"#utility.yul\":3813:3817   */\n      0x00\n        /* \"#utility.yul\":3851:3853   */\n      0x20\n        /* \"#utility.yul\":3840:3849   */\n      dup3\n        /* \"#utility.yul\":3836:3854   */\n      add\n        /* \"#utility.yul\":3828:3854   */\n      swap1\n      pop\n        /* \"#utility.yul\":3864:3961   */\n      tag_428\n        /* \"#utility.yul\":3958:3959   */\n      0x00\n        /* \"#utility.yul\":3947:3956   */\n      dup4\n        /* \"#utility.yul\":3943:3960   */\n      add\n        /* \"#utility.yul\":3934:3940   */\n      dup5\n        /* \"#utility.yul\":3864:3961   */\n      tag_340\n      jump\t// in\n    tag_428:\n        /* \"#utility.yul\":3694:3968   */\n      swap3\n      swap2\n      pop\n      pop\n      jump\t// out\n        /* \"#utility.yul\":3974:4092   */\n    tag_341:\n        /* \"#utility.yul\":4061:4085   */\n      tag_430\n        /* \"#utility.yul\":4079:4084   */\n      dup2\n        /* \"#utility.yul\":4061:4085   */\n      tag_336\n      jump\t// in\n    tag_430:\n        /* \"#utility.yul\":4056:4059   */\n      dup3\n        /* \"#utility.yul\":4049:4086   */\n      mstore\n        /* \"#utility.yul\":3974:4092   */\n      pop\n      pop\n      jump\t// out\n        /* \"#utility.yul\":4098:4320   */\n    tag_54:\n        /* \"#utility.yul\":4191:4195   */\n      0x00\n        /* \"#utility.yul\":4229:4231   */\n      0x20\n        /* \"#utility.yul\":4218:4227   */\n      dup3\n        /* \"#utility.yul\":4214:4232   */\n      add\n        /* \"#utility.yul\":4206:4232   */\n      swap1\n      pop\n        /* \"#utility.yul\":4242:4313   */\n      tag_432\n        /* \"#utility.yul\":4310:4311   */\n      0x00\n        /* \"#utility.yul\":4299:4308   */\n      dup4\n        /* \"#utility.yul\":4295:4312   */\n      add\n        /* \"#utility.yul\":4286:4292   */\n      dup5\n        /* \"#utility.yul\":4242:4313   */\n      tag_341\n      jump\t// in\n    tag_432:\n        /* \"#utility.yul\":4098:4320   */\n      swap3\n      swap2\n      pop\n      pop\n      jump\t// out\n        /* \"#utility.yul\":4326:4768   */\n    tag_61:\n        /* \"#utility.yul\":4475:4479   */\n      0x00\n        /* \"#utility.yul\":4513:4515   */\n      0x60\n        /* \"#utility.yul\":4502:4511   */\n      dup3\n        /* \"#utility.yul\":4498:4516   */\n      add\n        /* \"#utility.yul\":4490:4516   */\n      swap1\n      pop\n        /* \"#utility.yul\":4526:4597   */\n      tag_434\n        /* \"#utility.yul\":4594:4595   */\n      0x00\n        /* \"#utility.yul\":4583:4592   */\n      dup4\n        /* \"#utility.yul\":4579:4596   */\n      add\n        /* \"#utility.yul\":4570:4576   */\n      dup7\n        /* \"#utility.yul\":4526:4597   */\n      tag_341\n      jump\t// in\n    tag_434:\n        /* \"#utility.yul\":4607:4679   */\n      tag_435\n        /* \"#utility.yul\":4675:4677   */\n      0x20\n        /* \"#utility.yul\":4664:4673   */\n      dup4\n        /* \"#utility.yul\":4660:4678   */\n      add\n        /* \"#utility.yul\":4651:4657   */\n      dup6\n        /* \"#utility.yul\":4607:4679   */\n      tag_341\n      jump\t// in\n    tag_435:\n        /* \"#utility.yul\":4689:4761   */\n      tag_436\n        /* \"#utility.yul\":4757:4759   */\n      0x40\n        /* \"#utility.yul\":4746:4755   */\n      dup4\n        /* \"#utility.yul\":4742:4760   */\n      add\n        /* \"#utility.yul\":4733:4739   */\n      dup5\n        /* \"#utility.yul\":4689:4761   */\n      tag_341\n      jump\t// in\n    tag_436:\n        /* \"#utility.yul\":4326:4768   */\n      swap5\n      swap4\n      pop\n      pop\n      pop\n      pop\n      jump\t// out\n        /* \"#utility.yul\":4774:4864   */\n    tag_342:\n        /* \"#utility.yul\":4808:4815   */\n      0x00\n        /* \"#utility.yul\":4851:4856   */\n      dup2\n        /* \"#utility.yul\":4844:4857   */\n      iszero\n        /* \"#utility.yul\":4837:4858   */\n      iszero\n        /* \"#utility.yul\":4826:4858   */\n      swap1\n      pop\n        /* \"#utility.yul\":4774:4864   */\n      swap2\n      swap1\n      pop\n      jump\t// out\n        /* \"#utility.yul\":4870:4979   */\n    tag_343:\n        /* \"#utility.yul\":4951:4972   */\n      tag_439\n        /* \"#utility.yul\":4966:4971   */\n      dup2\n        /* \"#utility.yul\":4951:4972   */\n      tag_342\n      jump\t// in\n    tag_439:\n        /* \"#utility.yul\":4946:4949   */\n      dup3\n        /* \"#utility.yul\":4939:4973   */\n      mstore\n        /* \"#utility.yul\":4870:4979   */\n      pop\n      pop\n      jump\t// out\n        /* \"#utility.yul\":4985:5195   */\n    tag_65:\n        /* \"#utility.yul\":5072:5076   */\n      0x00\n        /* \"#utility.yul\":5110:5112   */\n      0x20\n        /* \"#utility.yul\":5099:5108   */\n      dup3\n        /* \"#utility.yul\":5095:5113   */\n      add\n        /* \"#utility.yul\":5087:5113   */\n      swap1\n      pop\n        /* \"#utility.yul\":5123:5188   */\n      tag_441\n        /* \"#utility.yul\":5185:5186   */\n      0x00\n        /* \"#utility.yul\":5174:5183   */\n      dup4\n        /* \"#utility.yul\":5170:5187   */\n      add\n        /* \"#utility.yul\":5161:5167   */\n      dup5\n        /* \"#utility.yul\":5123:5188   */\n      tag_343\n      jump\t// in\n    tag_441:\n        /* \"#utility.yul\":4985:5195   */\n      swap3\n      swap2\n      pop\n      pop\n      jump\t// out\n        /* \"#utility.yul\":5201:5319   */\n    tag_344:\n        /* \"#utility.yul\":5288:5312   */\n      tag_443\n        /* \"#utility.yul\":5306:5311   */\n      dup2\n        /* \"#utility.yul\":5288:5312   */\n      tag_333\n      jump\t// in\n    tag_443:\n        /* \"#utility.yul\":5283:5286   */\n      dup3\n        /* \"#utility.yul\":5276:5313   */\n      mstore\n        /* \"#utility.yul\":5201:5319   */\n      pop\n      pop\n      jump\t// out\n        /* \"#utility.yul\":5325:5547   */\n    tag_80:\n        /* \"#utility.yul\":5418:5422   */\n      0x00\n        /* \"#utility.yul\":5456:5458   */\n      0x20\n        /* \"#utility.yul\":5445:5454   */\n      dup3\n        /* \"#utility.yul\":5441:5459   */\n      add\n        /* \"#utility.yul\":5433:5459   */\n      swap1\n      pop\n        /* \"#utility.yul\":5469:5540   */\n      tag_445\n        /* \"#utility.yul\":5537:5538   */\n      0x00\n        /* \"#utility.yul\":5526:5535   */\n      dup4\n        /* \"#utility.yul\":5522:5539   */\n      add\n        /* \"#utility.yul\":5513:5519   */\n      dup5\n        /* \"#utility.yul\":5469:5540   */\n      tag_344\n      jump\t// in\n    tag_445:\n        /* \"#utility.yul\":5325:5547   */\n      swap3\n      swap2\n      pop\n      pop\n      jump\t// out\n        /* \"#utility.yul\":5553:6027   */\n    tag_86:\n        /* \"#utility.yul\":5621:5627   */\n      0x00\n        /* \"#utility.yul\":5629:5635   */\n      dup1\n        /* \"#utility.yul\":5678:5680   */\n      0x40\n        /* \"#utility.yul\":5666:5675   */\n      dup4\n        /* \"#utility.yul\":5657:5664   */\n      dup6\n        /* \"#utility.yul\":5653:5676   */\n      sub\n        /* \"#utility.yul\":5649:5681   */\n      slt\n        /* \"#utility.yul\":5646:5765   */\n      iszero\n      tag_447\n      jumpi\n        /* \"#utility.yul\":5684:5763   */\n      tag_448\n      tag_331\n      jump\t// in\n    tag_448:\n        /* \"#utility.yul\":5646:5765   */\n    tag_447:\n        /* \"#utility.yul\":5804:5805   */\n      0x00\n        /* \"#utility.yul\":5829:5882   */\n      tag_449\n        /* \"#utility.yul\":5874:5881   */\n      dup6\n        /* \"#utility.yul\":5865:5871   */\n      dup3\n        /* \"#utility.yul\":5854:5863   */\n      dup7\n        /* \"#utility.yul\":5850:5872   */\n      add\n        /* \"#utility.yul\":5829:5882   */\n      tag_338\n      jump\t// in\n    tag_449:\n        /* \"#utility.yul\":5819:5882   */\n      swap3\n      pop\n        /* \"#utility.yul\":5775:5892   */\n      pop\n        /* \"#utility.yul\":5931:5933   */\n      0x20\n        /* \"#utility.yul\":5957:6010   */\n      tag_450\n        /* \"#utility.yul\":6002:6009   */\n      dup6\n        /* \"#utility.yul\":5993:5999   */\n      dup3\n        /* \"#utility.yul\":5982:5991   */\n      dup7\n        /* \"#utility.yul\":5978:6000   */\n      add\n        /* \"#utility.yul\":5957:6010   */\n      tag_338\n      jump\t// in\n    tag_450:\n        /* \"#utility.yul\":5947:6010   */\n      swap2\n      pop\n        /* \"#utility.yul\":5902:6020   */\n      pop\n        /* \"#utility.yul\":5553:6027   */\n      swap3\n      pop\n      swap3\n      swap1\n      pop\n      jump\t// out\n        /* \"#utility.yul\":6033:6362   */\n    tag_90:\n        /* \"#utility.yul\":6092:6098   */\n      0x00\n        /* \"#utility.yul\":6141:6143   */\n      0x20\n        /* \"#utility.yul\":6129:6138   */\n      dup3\n        /* \"#utility.yul\":6120:6127   */\n      dup5\n        /* \"#utility.yul\":6116:6139   */\n      sub\n        /* \"#utility.yul\":6112:6144   */\n      slt\n        /* \"#utility.yul\":6109:6228   */\n      iszero\n      tag_452\n      jumpi\n        /* \"#utility.yul\":6147:6226   */\n      tag_453\n      tag_331\n      jump\t// in\n    tag_453:\n        /* \"#utility.yul\":6109:6228   */\n    tag_452:\n        /* \"#utility.yul\":6267:6268   */\n      0x00\n        /* \"#utility.yul\":6292:6345   */\n      tag_454\n        /* \"#utility.yul\":6337:6344   */\n      dup5\n        /* \"#utility.yul\":6328:6334   */\n      dup3\n        /* \"#utility.yul\":6317:6326   */\n      dup6\n        /* \"#utility.yul\":6313:6335   */\n      add\n        /* \"#utility.yul\":6292:6345   */\n      tag_338\n      jump\t// in\n    tag_454:\n        /* \"#utility.yul\":6282:6345   */\n      swap2\n      pop\n        /* \"#utility.yul\":6238:6355   */\n      pop\n        /* \"#utility.yul\":6033:6362   */\n      swap3\n      swap2\n      pop\n      pop\n      jump\t// out\n        /* \"#utility.yul\":6368:7230   */\n    tag_102:\n        /* \"#utility.yul\":6617:6621   */\n      0x00\n        /* \"#utility.yul\":6655:6658   */\n      0xe0\n        /* \"#utility.yul\":6644:6653   */\n      dup3\n        /* \"#utility.yul\":6640:6659   */\n      add\n        /* \"#utility.yul\":6632:6659   */\n      swap1\n      pop\n        /* \"#utility.yul\":6669:6740   */\n      tag_456\n        /* \"#utility.yul\":6737:6738   */\n      0x00\n        /* \"#utility.yul\":6726:6735   */\n      dup4\n        /* \"#utility.yul\":6722:6739   */\n      add\n        /* \"#utility.yul\":6713:6719   */\n      dup11\n        /* \"#utility.yul\":6669:6740   */\n      tag_341\n      jump\t// in\n    tag_456:\n        /* \"#utility.yul\":6750:6822   */\n      tag_457\n        /* \"#utility.yul\":6818:6820   */\n      0x20\n        /* \"#utility.yul\":6807:6816   */\n      dup4\n        /* \"#utility.yul\":6803:6821   */\n      add\n        /* \"#utility.yul\":6794:6800   */\n      dup10\n        /* \"#utility.yul\":6750:6822   */\n      tag_341\n      jump\t// in\n    tag_457:\n        /* \"#utility.yul\":6832:6904   */\n      tag_458\n        /* \"#utility.yul\":6900:6902   */\n      0x40\n        /* \"#utility.yul\":6889:6898   */\n      dup4\n        /* \"#utility.yul\":6885:6903   */\n      add\n        /* \"#utility.yul\":6876:6882   */\n      dup9\n        /* \"#utility.yul\":6832:6904   */\n      tag_341\n      jump\t// in\n    tag_458:\n        /* \"#utility.yul\":6914:6986   */\n      tag_459\n        /* \"#utility.yul\":6982:6984   */\n      0x60\n        /* \"#utility.yul\":6971:6980   */\n      dup4\n        /* \"#utility.yul\":6967:6985   */\n      add\n        /* \"#utility.yul\":6958:6964   */\n      dup8\n        /* \"#utility.yul\":6914:6986   */\n      tag_341\n      jump\t// in\n    tag_459:\n        /* \"#utility.yul\":6996:7069   */\n      tag_460\n        /* \"#utility.yul\":7064:7067   */\n      0x80\n        /* \"#utility.yul\":7053:7062   */\n      dup4\n        /* \"#utility.yul\":7049:7068   */\n      add\n        /* \"#utility.yul\":7040:7046   */\n      dup7\n        /* \"#utility.yul\":6996:7069   */\n      tag_341\n      jump\t// in\n    tag_460:\n        /* \"#utility.yul\":7079:7146   */\n      tag_461\n        /* \"#utility.yul\":7141:7144   */\n      0xa0\n        /* \"#utility.yul\":7130:7139   */\n      dup4\n        /* \"#utility.yul\":7126:7145   */\n      add\n        /* \"#utility.yul\":7117:7123   */\n      dup6\n        /* \"#utility.yul\":7079:7146   */\n      tag_343\n      jump\t// in\n    tag_461:\n        /* \"#utility.yul\":7156:7223   */\n      tag_462\n        /* \"#utility.yul\":7218:7221   */\n      0xc0\n        /* \"#utility.yul\":7207:7216   */\n      dup4\n        /* \"#utility.yul\":7203:7222   */\n      add\n        /* \"#utility.yul\":7194:7200   */\n      dup5\n        /* \"#utility.yul\":7156:7223   */\n      tag_343\n      jump\t// in\n    tag_462:\n        /* \"#utility.yul\":6368:7230   */\n      swap9\n      swap8\n      pop\n      pop\n      pop\n      pop\n      pop\n      pop\n      pop\n      pop\n      jump\t// out\n        /* \"#utility.yul\":7236:7341   */\n    tag_345:\n        /* \"#utility.yul\":7272:7279   */\n      0x00\n        /* \"#utility.yul\":7312:7334   */\n      0xffffffffffffffffffff\n        /* \"#utility.yul\":7305:7310   */\n      dup3\n        /* \"#utility.yul\":7301:7335   */\n      and\n        /* \"#utility.yul\":7290:7335   */\n      swap1\n      pop\n        /* \"#utility.yul\":7236:7341   */\n      swap2\n      swap1\n      pop\n      jump\t// out\n        /* \"#utility.yul\":7347:7467   */\n    tag_346:\n        /* \"#utility.yul\":7419:7442   */\n      tag_465\n        /* \"#utility.yul\":7436:7441   */\n      dup2\n        /* \"#utility.yul\":7419:7442   */\n      tag_345\n      jump\t// in\n    tag_465:\n        /* \"#utility.yul\":7412:7417   */\n      dup2\n        /* \"#utility.yul\":7409:7443   */\n      eq\n        /* \"#utility.yul\":7399:7461   */\n      tag_466\n      jumpi\n        /* \"#utility.yul\":7457:7458   */\n      0x00\n        /* \"#utility.yul\":7454:7455   */\n      dup1\n        /* \"#utility.yul\":7447:7459   */\n      revert\n        /* \"#utility.yul\":7399:7461   */\n    tag_466:\n        /* \"#utility.yul\":7347:7467   */\n      pop\n      jump\t// out\n        /* \"#utility.yul\":7473:7614   */\n    tag_347:\n        /* \"#utility.yul\":7529:7534   */\n      0x00\n        /* \"#utility.yul\":7560:7566   */\n      dup2\n        /* \"#utility.yul\":7554:7567   */\n      mload\n        /* \"#utility.yul\":7545:7567   */\n      swap1\n      pop\n        /* \"#utility.yul\":7576:7608   */\n      tag_468\n        /* \"#utility.yul\":7602:7607   */\n      dup2\n        /* \"#utility.yul\":7576:7608   */\n      tag_346\n      jump\t// in\n    tag_468:\n        /* \"#utility.yul\":7473:7614   */\n      swap3\n      swap2\n      pop\n      pop\n      jump\t// out\n        /* \"#utility.yul\":7620:7740   */\n    tag_348:\n        /* \"#utility.yul\":7692:7715   */\n      tag_470\n        /* \"#utility.yul\":7709:7714   */\n      dup2\n        /* \"#utility.yul\":7692:7715   */\n      tag_328\n      jump\t// in\n    tag_470:\n        /* \"#utility.yul\":7685:7690   */\n      dup2\n        /* \"#utility.yul\":7682:7716   */\n      eq\n        /* \"#utility.yul\":7672:7734   */\n      tag_471\n      jumpi\n        /* \"#utility.yul\":7730:7731   */\n      0x00\n        /* \"#utility.yul\":7727:7728   */\n      dup1\n        /* \"#utility.yul\":7720:7732   */\n      revert\n        /* \"#utility.yul\":7672:7734   */\n    tag_471:\n        /* \"#utility.yul\":7620:7740   */\n      pop\n      jump\t// out\n        /* \"#utility.yul\":7746:7887   */\n    tag_349:\n        /* \"#utility.yul\":7802:7807   */\n      0x00\n        /* \"#utility.yul\":7833:7839   */\n      dup2\n        /* \"#utility.yul\":7827:7840   */\n      mload\n        /* \"#utility.yul\":7818:7840   */\n      swap1\n      pop\n        /* \"#utility.yul\":7849:7881   */\n      tag_473\n        /* \"#utility.yul\":7875:7880   */\n      dup2\n        /* \"#utility.yul\":7849:7881   */\n      tag_348\n      jump\t// in\n    tag_473:\n        /* \"#utility.yul\":7746:7887   */\n      swap3\n      swap2\n      pop\n      pop\n      jump\t// out\n        /* \"#utility.yul\":7893:8036   */\n    tag_350:\n        /* \"#utility.yul\":7950:7955   */\n      0x00\n        /* \"#utility.yul\":7981:7987   */\n      dup2\n        /* \"#utility.yul\":7975:7988   */\n      mload\n        /* \"#utility.yul\":7966:7988   */\n      swap1\n      pop\n        /* \"#utility.yul\":7997:8030   */\n      tag_475\n        /* \"#utility.yul\":8024:8029   */\n      dup2\n        /* \"#utility.yul\":7997:8030   */\n      tag_337\n      jump\t// in\n    tag_475:\n        /* \"#utility.yul\":7893:8036   */\n      swap3\n      swap2\n      pop\n      pop\n      jump\t// out\n        /* \"#utility.yul\":8042:9013   */\n    tag_113:\n        /* \"#utility.yul\":8145:8151   */\n      0x00\n        /* \"#utility.yul\":8153:8159   */\n      dup1\n        /* \"#utility.yul\":8161:8167   */\n      0x00\n        /* \"#utility.yul\":8169:8175   */\n      dup1\n        /* \"#utility.yul\":8177:8183   */\n      0x00\n        /* \"#utility.yul\":8226:8229   */\n      0xa0\n        /* \"#utility.yul\":8214:8223   */\n      dup7\n        /* \"#utility.yul\":8205:8212   */\n      dup9\n        /* \"#utility.yul\":8201:8224   */\n      sub\n        /* \"#utility.yul\":8197:8230   */\n      slt\n        /* \"#utility.yul\":8194:8314   */\n      iszero\n      tag_477\n      jumpi\n        /* \"#utility.yul\":8233:8312   */\n      tag_478\n      tag_331\n      jump\t// in\n    tag_478:\n        /* \"#utility.yul\":8194:8314   */\n    tag_477:\n        /* \"#utility.yul\":8353:8354   */\n      0x00\n        /* \"#utility.yul\":8378:8441   */\n      tag_479\n        /* \"#utility.yul\":8433:8440   */\n      dup9\n        /* \"#utility.yul\":8424:8430   */\n      dup3\n        /* \"#utility.yul\":8413:8422   */\n      dup10\n        /* \"#utility.yul\":8409:8431   */\n      add\n        /* \"#utility.yul\":8378:8441   */\n      tag_347\n      jump\t// in\n    tag_479:\n        /* \"#utility.yul\":8368:8441   */\n      swap6\n      pop\n        /* \"#utility.yul\":8324:8451   */\n      pop\n        /* \"#utility.yul\":8490:8492   */\n      0x20\n        /* \"#utility.yul\":8516:8579   */\n      tag_480\n        /* \"#utility.yul\":8571:8578   */\n      dup9\n        /* \"#utility.yul\":8562:8568   */\n      dup3\n        /* \"#utility.yul\":8551:8560   */\n      dup10\n        /* \"#utility.yul\":8547:8569   */\n      add\n        /* \"#utility.yul\":8516:8579   */\n      tag_349\n      jump\t// in\n    tag_480:\n        /* \"#utility.yul\":8506:8579   */\n      swap5\n      pop\n        /* \"#utility.yul\":8461:8589   */\n      pop\n        /* \"#utility.yul\":8628:8630   */\n      0x40\n        /* \"#utility.yul\":8654:8718   */\n      tag_481\n        /* \"#utility.yul\":8710:8717   */\n      dup9\n        /* \"#utility.yul\":8701:8707   */\n      dup3\n        /* \"#utility.yul\":8690:8699   */\n      dup10\n        /* \"#utility.yul\":8686:8708   */\n      add\n        /* \"#utility.yul\":8654:8718   */\n      tag_350\n      jump\t// in\n    tag_481:\n        /* \"#utility.yul\":8644:8718   */\n      swap4\n      pop\n        /* \"#utility.yul\":8599:8728   */\n      pop\n        /* \"#utility.yul\":8767:8769   */\n      0x60\n        /* \"#utility.yul\":8793:8857   */\n      tag_482\n        /* \"#utility.yul\":8849:8856   */\n      dup9\n        /* \"#utility.yul\":8840:8846   */\n      dup3\n        /* \"#utility.yul\":8829:8838   */\n      dup10\n        /* \"#utility.yul\":8825:8847   */\n      add\n        /* \"#utility.yul\":8793:8857   */\n      tag_350\n      jump\t// in\n    tag_482:\n        /* \"#utility.yul\":8783:8857   */\n      swap3\n      pop\n        /* \"#utility.yul\":8738:8867   */\n      pop\n        /* \"#utility.yul\":8906:8909   */\n      0x80\n        /* \"#utility.yul\":8933:8996   */\n      tag_483\n        /* \"#utility.yul\":8988:8995   */\n      dup9\n        /* \"#utility.yul\":8979:8985   */\n      dup3\n        /* \"#utility.yul\":8968:8977   */\n      dup10\n        /* \"#utility.yul\":8964:8986   */\n      add\n        /* \"#utility.yul\":8933:8996   */\n      tag_347\n      jump\t// in\n    tag_483:\n        /* \"#utility.yul\":8923:8996   */\n      swap2\n      pop\n        /* \"#utility.yul\":8877:9006   */\n      pop\n        /* \"#utility.yul\":8042:9013   */\n      swap3\n      swap6\n      pop\n      swap3\n      swap6\n      swap1\n      swap4\n      pop\n      jump\t// out\n        /* \"#utility.yul\":9019:9351   */\n    tag_120:\n        /* \"#utility.yul\":9140:9144   */\n      0x00\n        /* \"#utility.yul\":9178:9180   */\n      0x40\n        /* \"#utility.yul\":9167:9176   */\n      dup3\n        /* \"#utility.yul\":9163:9181   */\n      add\n        /* \"#utility.yul\":9155:9181   */\n      swap1\n      pop\n        /* \"#utility.yul\":9191:9262   */\n      tag_485\n        /* \"#utility.yul\":9259:9260   */\n      0x00\n        /* \"#utility.yul\":9248:9257   */\n      dup4\n        /* \"#utility.yul\":9244:9261   */\n      add\n        /* \"#utility.yul\":9235:9241   */\n      dup6\n        /* \"#utility.yul\":9191:9262   */\n      tag_344\n      jump\t// in\n    tag_485:\n        /* \"#utility.yul\":9272:9344   */\n      tag_486\n        /* \"#utility.yul\":9340:9342   */\n      0x20\n        /* \"#utility.yul\":9329:9338   */\n      dup4\n        /* \"#utility.yul\":9325:9343   */\n      add\n        /* \"#utility.yul\":9316:9322   */\n      dup5\n        /* \"#utility.yul\":9272:9344   */\n      tag_341\n      jump\t// in\n    tag_486:\n        /* \"#utility.yul\":9019:9351   */\n      swap4\n      swap3\n      pop\n      pop\n      pop\n      jump\t// out\n        /* \"#utility.yul\":9357:9473   */\n    tag_351:\n        /* \"#utility.yul\":9427:9448   */\n      tag_488\n        /* \"#utility.yul\":9442:9447   */\n      dup2\n        /* \"#utility.yul\":9427:9448   */\n      tag_342\n      jump\t// in\n    tag_488:\n        /* \"#utility.yul\":9420:9425   */\n      dup2\n        /* \"#utility.yul\":9417:9449   */\n      eq\n        /* \"#utility.yul\":9407:9467   */\n      tag_489\n      jumpi\n        /* \"#utility.yul\":9463:9464   */\n      0x00\n        /* \"#utility.yul\":9460:9461   */\n      dup1\n        /* \"#utility.yul\":9453:9465   */\n      revert\n        /* \"#utility.yul\":9407:9467   */\n    tag_489:\n        /* \"#utility.yul\":9357:9473   */\n      pop\n      jump\t// out\n        /* \"#utility.yul\":9479:9616   */\n    tag_352:\n        /* \"#utility.yul\":9533:9538   */\n      0x00\n        /* \"#utility.yul\":9564:9570   */\n      dup2\n        /* \"#utility.yul\":9558:9571   */\n      mload\n        /* \"#utility.yul\":9549:9571   */\n      swap1\n      pop\n        /* \"#utility.yul\":9580:9610   */\n      tag_491\n        /* \"#utility.yul\":9604:9609   */\n      dup2\n        /* \"#utility.yul\":9580:9610   */\n      tag_351\n      jump\t// in\n    tag_491:\n        /* \"#utility.yul\":9479:9616   */\n      swap3\n      swap2\n      pop\n      pop\n      jump\t// out\n        /* \"#utility.yul\":9622:9967   */\n    tag_124:\n        /* \"#utility.yul\":9689:9695   */\n      0x00\n        /* \"#utility.yul\":9738:9740   */\n      0x20\n        /* \"#utility.yul\":9726:9735   */\n      dup3\n        /* \"#utility.yul\":9717:9724   */\n      dup5\n        /* \"#utility.yul\":9713:9736   */\n      sub\n        /* \"#utility.yul\":9709:9741   */\n      slt\n        /* \"#utility.yul\":9706:9825   */\n      iszero\n      tag_493\n      jumpi\n        /* \"#utility.yul\":9744:9823   */\n      tag_494\n      tag_331\n      jump\t// in\n    tag_494:\n        /* \"#utility.yul\":9706:9825   */\n    tag_493:\n        /* \"#utility.yul\":9864:9865   */\n      0x00\n        /* \"#utility.yul\":9889:9950   */\n      tag_495\n        /* \"#utility.yul\":9942:9949   */\n      dup5\n        /* \"#utility.yul\":9933:9939   */\n      dup3\n        /* \"#utility.yul\":9922:9931   */\n      dup6\n        /* \"#utility.yul\":9918:9940   */\n      add\n        /* \"#utility.yul\":9889:9950   */\n      tag_352\n      jump\t// in\n    tag_495:\n        /* \"#utility.yul\":9879:9950   */\n      swap2\n      pop\n        /* \"#utility.yul\":9835:9960   */\n      pop\n        /* \"#utility.yul\":9622:9967   */\n      swap3\n      swap2\n      pop\n      pop\n      jump\t// out\n        /* \"#utility.yul\":9973:10142   */\n    tag_353:\n        /* \"#utility.yul\":10057:10068   */\n      0x00\n        /* \"#utility.yul\":10091:10097   */\n      dup3\n        /* \"#utility.yul\":10086:10089   */\n      dup3\n        /* \"#utility.yul\":10079:10098   */\n      mstore\n        /* \"#utility.yul\":10131:10135   */\n      0x20\n        /* \"#utility.yul\":10126:10129   */\n      dup3\n        /* \"#utility.yul\":10122:10136   */\n      add\n        /* \"#utility.yul\":10107:10136   */\n      swap1\n      pop\n        /* \"#utility.yul\":9973:10142   */\n      swap3\n      swap2\n      pop\n      pop\n      jump\t// out\n        /* \"#utility.yul\":10148:10325   */\n    tag_354:\n        /* \"#utility.yul\":10288:10317   */\n      0x4c6f616e4d616e616765723a204e6f20616374697665206c6f616e0000000000\n        /* \"#utility.yul\":10284:10285   */\n      0x00\n        /* \"#utility.yul\":10276:10282   */\n      dup3\n        /* \"#utility.yul\":10272:10286   */\n      add\n        /* \"#utility.yul\":10265:10318   */\n      mstore\n        /* \"#utility.yul\":10148:10325   */\n      pop\n      jump\t// out\n        /* \"#utility.yul\":10331:10697   */\n    tag_355:\n        /* \"#utility.yul\":10473:10476   */\n      0x00\n        /* \"#utility.yul\":10494:10561   */\n      tag_499\n        /* \"#utility.yul\":10558:10560   */\n      0x1b\n        /* \"#utility.yul\":10553:10556   */\n      dup4\n        /* \"#utility.yul\":10494:10561   */\n      tag_353\n      jump\t// in\n    tag_499:\n        /* \"#utility.yul\":10487:10561   */\n      swap2\n      pop\n        /* \"#utility.yul\":10570:10663   */\n      tag_500\n        /* \"#utility.yul\":10659:10662   */\n      dup3\n        /* \"#utility.yul\":10570:10663   */\n      tag_354\n      jump\t// in\n    tag_500:\n        /* \"#utility.yul\":10688:10690   */\n      0x20\n        /* \"#utility.yul\":10683:10686   */\n      dup3\n        /* \"#utility.yul\":10679:10691   */\n      add\n        /* \"#utility.yul\":10672:10691   */\n      swap1\n      pop\n        /* \"#utility.yul\":10331:10697   */\n      swap2\n      swap1\n      pop\n      jump\t// out\n        /* \"#utility.yul\":10703:11122   */\n    tag_133:\n        /* \"#utility.yul\":10869:10873   */\n      0x00\n        /* \"#utility.yul\":10907:10909   */\n      0x20\n        /* \"#utility.yul\":10896:10905   */\n      dup3\n        /* \"#utility.yul\":10892:10910   */\n      add\n        /* \"#utility.yul\":10884:10910   */\n      swap1\n      pop\n        /* \"#utility.yul\":10956:10965   */\n      dup2\n        /* \"#utility.yul\":10950:10954   */\n      dup2\n        /* \"#utility.yul\":10946:10966   */\n      sub\n        /* \"#utility.yul\":10942:10943   */\n      0x00\n        /* \"#utility.yul\":10931:10940   */\n      dup4\n        /* \"#utility.yul\":10927:10944   */\n      add\n        /* \"#utility.yul\":10920:10967   */\n      mstore\n        /* \"#utility.yul\":10984:11115   */\n      tag_502\n        /* \"#utility.yul\":11110:11114   */\n      dup2\n        /* \"#utility.yul\":10984:11115   */\n      tag_355\n      jump\t// in\n    tag_502:\n        /* \"#utility.yul\":10976:11115   */\n      swap1\n      pop\n        /* \"#utility.yul\":10703:11122   */\n      swap2\n      swap1\n      pop\n      jump\t// out\n        /* \"#utility.yul\":11128:11308   */\n    tag_356:\n        /* \"#utility.yul\":11176:11253   */\n      0x4e487b7100000000000000000000000000000000000000000000000000000000\n        /* \"#utility.yul\":11173:11174   */\n      0x00\n        /* \"#utility.yul\":11166:11254   */\n      mstore\n        /* \"#utility.yul\":11273:11277   */\n      0x11\n        /* \"#utility.yul\":11270:11271   */\n      0x04\n        /* \"#utility.yul\":11263:11278   */\n      mstore\n        /* \"#utility.yul\":11297:11301   */\n      0x24\n        /* \"#utility.yul\":11294:11295   */\n      0x00\n        /* \"#utility.yul\":11287:11302   */\n      revert\n        /* \"#utility.yul\":11314:11505   */\n    tag_135:\n        /* \"#utility.yul\":11354:11357   */\n      0x00\n        /* \"#utility.yul\":11373:11393   */\n      tag_505\n        /* \"#utility.yul\":11391:11392   */\n      dup3\n        /* \"#utility.yul\":11373:11393   */\n      tag_336\n      jump\t// in\n    tag_505:\n        /* \"#utility.yul\":11368:11393   */\n      swap2\n      pop\n        /* \"#utility.yul\":11407:11427   */\n      tag_506\n        /* \"#utility.yul\":11425:11426   */\n      dup4\n        /* \"#utility.yul\":11407:11427   */\n      tag_336\n      jump\t// in\n    tag_506:\n        /* \"#utility.yul\":11402:11427   */\n      swap3\n      pop\n        /* \"#utility.yul\":11450:11451   */\n      dup3\n        /* \"#utility.yul\":11447:11448   */\n      dup3\n        /* \"#utility.yul\":11443:11452   */\n      add\n        /* \"#utility.yul\":11436:11452   */\n      swap1\n      pop\n        /* \"#utility.yul\":11471:11474   */\n      dup1\n        /* \"#utility.yul\":11468:11469   */\n      dup3\n        /* \"#utility.yul\":11465:11475   */\n      gt\n        /* \"#utility.yul\":11462:11498   */\n      iszero\n      tag_507\n      jumpi\n        /* \"#utility.yul\":11478:11496   */\n      tag_508\n      tag_356\n      jump\t// in\n    tag_508:\n        /* \"#utility.yul\":11462:11498   */\n    tag_507:\n        /* \"#utility.yul\":11314:11505   */\n      swap3\n      swap2\n      pop\n      pop\n      jump\t// out\n        /* \"#utility.yul\":11511:11733   */\n    tag_357:\n        /* \"#utility.yul\":11651:11685   */\n      0x4c6f616e4d616e616765723a204c6f616e206e6f742064656661756c74656420\n        /* \"#utility.yul\":11647:11648   */\n      0x00\n        /* \"#utility.yul\":11639:11645   */\n      dup3\n        /* \"#utility.yul\":11635:11649   */\n      add\n        /* \"#utility.yul\":11628:11686   */\n      mstore\n        /* \"#utility.yul\":11720:11725   */\n      0x7965740000000000000000000000000000000000000000000000000000000000\n        /* \"#utility.yul\":11715:11717   */\n      0x20\n        /* \"#utility.yul\":11707:11713   */\n      dup3\n        /* \"#utility.yul\":11703:11718   */\n      add\n        /* \"#utility.yul\":11696:11726   */\n      mstore\n        /* \"#utility.yul\":11511:11733   */\n      pop\n      jump\t// out\n        /* \"#utility.yul\":11739:12105   */\n    tag_358:\n        /* \"#utility.yul\":11881:11884   */\n      0x00\n        /* \"#utility.yul\":11902:11969   */\n      tag_511\n        /* \"#utility.yul\":11966:11968   */\n      0x23\n        /* \"#utility.yul\":11961:11964   */\n      dup4\n        /* \"#utility.yul\":11902:11969   */\n      tag_353\n      jump\t// in\n    tag_511:\n        /* \"#utility.yul\":11895:11969   */\n      swap2\n      pop\n        /* \"#utility.yul\":11978:12071   */\n      tag_512\n        /* \"#utility.yul\":12067:12070   */\n      dup3\n        /* \"#utility.yul\":11978:12071   */\n      tag_357\n      jump\t// in\n    tag_512:\n        /* \"#utility.yul\":12096:12098   */\n      0x40\n        /* \"#utility.yul\":12091:12094   */\n      dup3\n        /* \"#utility.yul\":12087:12099   */\n      add\n        /* \"#utility.yul\":12080:12099   */\n      swap1\n      pop\n        /* \"#utility.yul\":11739:12105   */\n      swap2\n      swap1\n      pop\n      jump\t// out\n        /* \"#utility.yul\":12111:12530   */\n    tag_139:\n        /* \"#utility.yul\":12277:12281   */\n      0x00\n        /* \"#utility.yul\":12315:12317   */\n      0x20\n        /* \"#utility.yul\":12304:12313   */\n      dup3\n        /* \"#utility.yul\":12300:12318   */\n      add\n        /* \"#utility.yul\":12292:12318   */\n      swap1\n      pop\n        /* \"#utility.yul\":12364:12373   */\n      dup2\n        /* \"#utility.yul\":12358:12362   */\n      dup2\n        /* \"#utility.yul\":12354:12374   */\n      sub\n        /* \"#utility.yul\":12350:12351   */\n      0x00\n        /* \"#utility.yul\":12339:12348   */\n      dup4\n        /* \"#utility.yul\":12335:12352   */\n      add\n        /* \"#utility.yul\":12328:12375   */\n      mstore\n        /* \"#utility.yul\":12392:12523   */\n      tag_514\n        /* \"#utility.yul\":12518:12522   */\n      dup2\n        /* \"#utility.yul\":12392:12523   */\n      tag_358\n      jump\t// in\n    tag_514:\n        /* \"#utility.yul\":12384:12523   */\n      swap1\n      pop\n        /* \"#utility.yul\":12111:12530   */\n      swap2\n      swap1\n      pop\n      jump\t// out\n        /* \"#utility.yul\":12536:12730   */\n    tag_163:\n        /* \"#utility.yul\":12576:12580   */\n      0x00\n        /* \"#utility.yul\":12596:12616   */\n      tag_516\n        /* \"#utility.yul\":12614:12615   */\n      dup3\n        /* \"#utility.yul\":12596:12616   */\n      tag_336\n      jump\t// in\n    tag_516:\n        /* \"#utility.yul\":12591:12616   */\n      swap2\n      pop\n        /* \"#utility.yul\":12630:12650   */\n      tag_517\n        /* \"#utility.yul\":12648:12649   */\n      dup4\n        /* \"#utility.yul\":12630:12650   */\n      tag_336\n      jump\t// in\n    tag_517:\n        /* \"#utility.yul\":12625:12650   */\n      swap3\n      pop\n        /* \"#utility.yul\":12674:12675   */\n      dup3\n        /* \"#utility.yul\":12671:12672   */\n      dup3\n        /* \"#utility.yul\":12667:12676   */\n      sub\n        /* \"#utility.yul\":12659:12676   */\n      swap1\n      pop\n        /* \"#utility.yul\":12698:12699   */\n      dup2\n        /* \"#utility.yul\":12692:12696   */\n      dup2\n        /* \"#utility.yul\":12689:12700   */\n      gt\n        /* \"#utility.yul\":12686:12723   */\n      iszero\n      tag_518\n      jumpi\n        /* \"#utility.yul\":12703:12721   */\n      tag_519\n      tag_356\n      jump\t// in\n    tag_519:\n        /* \"#utility.yul\":12686:12723   */\n    tag_518:\n        /* \"#utility.yul\":12536:12730   */\n      swap3\n      swap2\n      pop\n      pop\n      jump\t// out\n        /* \"#utility.yul\":12736:13146   */\n    tag_165:\n        /* \"#utility.yul\":12776:12783   */\n      0x00\n        /* \"#utility.yul\":12799:12819   */\n      tag_521\n        /* \"#utility.yul\":12817:12818   */\n      dup3\n        /* \"#utility.yul\":12799:12819   */\n      tag_336\n      jump\t// in\n    tag_521:\n        /* \"#utility.yul\":12794:12819   */\n      swap2\n      pop\n        /* \"#utility.yul\":12833:12853   */\n      tag_522\n        /* \"#utility.yul\":12851:12852   */\n      dup4\n        /* \"#utility.yul\":12833:12853   */\n      tag_336\n      jump\t// in\n    tag_522:\n        /* \"#utility.yul\":12828:12853   */\n      swap3\n      pop\n        /* \"#utility.yul\":12888:12889   */\n      dup3\n        /* \"#utility.yul\":12885:12886   */\n      dup3\n        /* \"#utility.yul\":12881:12890   */\n      mul\n        /* \"#utility.yul\":12910:12940   */\n      tag_523\n        /* \"#utility.yul\":12928:12939   */\n      dup2\n        /* \"#utility.yul\":12910:12940   */\n      tag_336\n      jump\t// in\n    tag_523:\n        /* \"#utility.yul\":12899:12940   */\n      swap2\n      pop\n        /* \"#utility.yul\":13089:13090   */\n      dup3\n        /* \"#utility.yul\":13080:13087   */\n      dup3\n        /* \"#utility.yul\":13076:13091   */\n      div\n        /* \"#utility.yul\":13073:13074   */\n      dup5\n        /* \"#utility.yul\":13070:13092   */\n      eq\n        /* \"#utility.yul\":13050:13051   */\n      dup4\n        /* \"#utility.yul\":13043:13052   */\n      iszero\n        /* \"#utility.yul\":13023:13106   */\n      or\n        /* \"#utility.yul\":13000:13139   */\n      tag_524\n      jumpi\n        /* \"#utility.yul\":13119:13137   */\n      tag_525\n      tag_356\n      jump\t// in\n    tag_525:\n        /* \"#utility.yul\":13000:13139   */\n    tag_524:\n        /* \"#utility.yul\":12784:13146   */\n      pop\n        /* \"#utility.yul\":12736:13146   */\n      swap3\n      swap2\n      pop\n      pop\n      jump\t// out\n        /* \"#utility.yul\":13152:13332   */\n    tag_359:\n        /* \"#utility.yul\":13200:13277   */\n      0x4e487b7100000000000000000000000000000000000000000000000000000000\n        /* \"#utility.yul\":13197:13198   */\n      0x00\n        /* \"#utility.yul\":13190:13278   */\n      mstore\n        /* \"#utility.yul\":13297:13301   */\n      0x12\n        /* \"#utility.yul\":13294:13295   */\n      0x04\n        /* \"#utility.yul\":13287:13302   */\n      mstore\n        /* \"#utility.yul\":13321:13325   */\n      0x24\n        /* \"#utility.yul\":13318:13319   */\n      0x00\n        /* \"#utility.yul\":13311:13326   */\n      revert\n        /* \"#utility.yul\":13338:13523   */\n    tag_168:\n        /* \"#utility.yul\":13378:13379   */\n      0x00\n        /* \"#utility.yul\":13395:13415   */\n      tag_528\n        /* \"#utility.yul\":13413:13414   */\n      dup3\n        /* \"#utility.yul\":13395:13415   */\n      tag_336\n      jump\t// in\n    tag_528:\n        /* \"#utility.yul\":13390:13415   */\n      swap2\n      pop\n        /* \"#utility.yul\":13429:13449   */\n      tag_529\n        /* \"#utility.yul\":13447:13448   */\n      dup4\n        /* \"#utility.yul\":13429:13449   */\n      tag_336\n      jump\t// in\n    tag_529:\n        /* \"#utility.yul\":13424:13449   */\n      swap3\n      pop\n        /* \"#utility.yul\":13468:13469   */\n      dup3\n        /* \"#utility.yul\":13458:13493   */\n      tag_530\n      jumpi\n        /* \"#utility.yul\":13473:13491   */\n      tag_531\n      tag_359\n      jump\t// in\n    tag_531:\n        /* \"#utility.yul\":13458:13493   */\n    tag_530:\n        /* \"#utility.yul\":13515:13516   */\n      dup3\n        /* \"#utility.yul\":13512:13513   */\n      dup3\n        /* \"#utility.yul\":13508:13517   */\n      div\n        /* \"#utility.yul\":13503:13517   */\n      swap1\n      pop\n        /* \"#utility.yul\":13338:13523   */\n      swap3\n      swap2\n      pop\n      pop\n      jump\t// out\n        /* \"#utility.yul\":13529:13750   */\n    tag_360:\n        /* \"#utility.yul\":13669:13703   */\n      0x4c6f616e4d616e616765723a204e6f206c6f616e207265717565737420666f75\n        /* \"#utility.yul\":13665:13666   */\n      0x00\n        /* \"#utility.yul\":13657:13663   */\n      dup3\n        /* \"#utility.yul\":13653:13667   */\n      add\n        /* \"#utility.yul\":13646:13704   */\n      mstore\n        /* \"#utility.yul\":13738:13742   */\n      0x6e64000000000000000000000000000000000000000000000000000000000000\n        /* \"#utility.yul\":13733:13735   */\n      0x20\n        /* \"#utility.yul\":13725:13731   */\n      dup3\n        /* \"#utility.yul\":13721:13736   */\n      add\n        /* \"#utility.yul\":13714:13743   */\n      mstore\n        /* \"#utility.yul\":13529:13750   */\n      pop\n      jump\t// out\n        /* \"#utility.yul\":13756:14122   */\n    tag_361:\n        /* \"#utility.yul\":13898:13901   */\n      0x00\n        /* \"#utility.yul\":13919:13986   */\n      tag_534\n        /* \"#utility.yul\":13983:13985   */\n      0x22\n        /* \"#utility.yul\":13978:13981   */\n      dup4\n        /* \"#utility.yul\":13919:13986   */\n      tag_353\n      jump\t// in\n    tag_534:\n        /* \"#utility.yul\":13912:13986   */\n      swap2\n      pop\n        /* \"#utility.yul\":13995:14088   */\n      tag_535\n        /* \"#utility.yul\":14084:14087   */\n      dup3\n        /* \"#utility.yul\":13995:14088   */\n      tag_360\n      jump\t// in\n    tag_535:\n        /* \"#utility.yul\":14113:14115   */\n      0x40\n        /* \"#utility.yul\":14108:14111   */\n      dup3\n        /* \"#utility.yul\":14104:14116   */\n      add\n        /* \"#utility.yul\":14097:14116   */\n      swap1\n      pop\n        /* \"#utility.yul\":13756:14122   */\n      swap2\n      swap1\n      pop\n      jump\t// out\n        /* \"#utility.yul\":14128:14547   */\n    tag_189:\n        /* \"#utility.yul\":14294:14298   */\n      0x00\n        /* \"#utility.yul\":14332:14334   */\n      0x20\n        /* \"#utility.yul\":14321:14330   */\n      dup3\n        /* \"#utility.yul\":14317:14335   */\n      add\n        /* \"#utility.yul\":14309:14335   */\n      swap1\n      pop\n        /* \"#utility.yul\":14381:14390   */\n      dup2\n        /* \"#utility.yul\":14375:14379   */\n      dup2\n        /* \"#utility.yul\":14371:14391   */\n      sub\n        /* \"#utility.yul\":14367:14368   */\n      0x00\n        /* \"#utility.yul\":14356:14365   */\n      dup4\n        /* \"#utility.yul\":14352:14369   */\n      add\n        /* \"#utility.yul\":14345:14392   */\n      mstore\n        /* \"#utility.yul\":14409:14540   */\n      tag_537\n        /* \"#utility.yul\":14535:14539   */\n      dup2\n        /* \"#utility.yul\":14409:14540   */\n      tag_361\n      jump\t// in\n    tag_537:\n        /* \"#utility.yul\":14401:14540   */\n      swap1\n      pop\n        /* \"#utility.yul\":14128:14547   */\n      swap2\n      swap1\n      pop\n      jump\t// out\n        /* \"#utility.yul\":14553:14773   */\n    tag_362:\n        /* \"#utility.yul\":14693:14727   */\n      0x4c6f616e4d616e616765723a204c6f616e207472616e73666572206661696c65\n        /* \"#utility.yul\":14689:14690   */\n      0x00\n        /* \"#utility.yul\":14681:14687   */\n      dup3\n        /* \"#utility.yul\":14677:14691   */\n      add\n        /* \"#utility.yul\":14670:14728   */\n      mstore\n        /* \"#utility.yul\":14762:14765   */\n      0x6400000000000000000000000000000000000000000000000000000000000000\n        /* \"#utility.yul\":14757:14759   */\n      0x20\n        /* \"#utility.yul\":14749:14755   */\n      dup3\n        /* \"#utility.yul\":14745:14760   */\n      add\n        /* \"#utility.yul\":14738:14766   */\n      mstore\n        /* \"#utility.yul\":14553:14773   */\n      pop\n      jump\t// out\n        /* \"#utility.yul\":14779:15145   */\n    tag_363:\n        /* \"#utility.yul\":14921:14924   */\n      0x00\n        /* \"#utility.yul\":14942:15009   */\n      tag_540\n        /* \"#utility.yul\":15006:15008   */\n      0x21\n        /* \"#utility.yul\":15001:15004   */\n      dup4\n        /* \"#utility.yul\":14942:15009   */\n      tag_353\n      jump\t// in\n    tag_540:\n        /* \"#utility.yul\":14935:15009   */\n      swap2\n      pop\n        /* \"#utility.yul\":15018:15111   */\n      tag_541\n        /* \"#utility.yul\":15107:15110   */\n      dup3\n        /* \"#utility.yul\":15018:15111   */\n      tag_362\n      jump\t// in\n    tag_541:\n        /* \"#utility.yul\":15136:15138   */\n      0x40\n        /* \"#utility.yul\":15131:15134   */\n      dup3\n        /* \"#utility.yul\":15127:15139   */\n      add\n        /* \"#utility.yul\":15120:15139   */\n      swap1\n      pop\n        /* \"#utility.yul\":14779:15145   */\n      swap2\n      swap1\n      pop\n      jump\t// out\n        /* \"#utility.yul\":15151:15570   */\n    tag_196:\n        /* \"#utility.yul\":15317:15321   */\n      0x00\n        /* \"#utility.yul\":15355:15357   */\n      0x20\n        /* \"#utility.yul\":15344:15353   */\n      dup3\n        /* \"#utility.yul\":15340:15358   */\n      add\n        /* \"#utility.yul\":15332:15358   */\n      swap1\n      pop\n        /* \"#utility.yul\":15404:15413   */\n      dup2\n        /* \"#utility.yul\":15398:15402   */\n      dup2\n        /* \"#utility.yul\":15394:15414   */\n      sub\n        /* \"#utility.yul\":15390:15391   */\n      0x00\n        /* \"#utility.yul\":15379:15388   */\n      dup4\n        /* \"#utility.yul\":15375:15392   */\n      add\n        /* \"#utility.yul\":15368:15415   */\n      mstore\n        /* \"#utility.yul\":15432:15563   */\n      tag_543\n        /* \"#utility.yul\":15558:15562   */\n      dup2\n        /* \"#utility.yul\":15432:15563   */\n      tag_363\n      jump\t// in\n    tag_543:\n        /* \"#utility.yul\":15424:15563   */\n      swap1\n      pop\n        /* \"#utility.yul\":15151:15570   */\n      swap2\n      swap1\n      pop\n      jump\t// out\n        /* \"#utility.yul\":15576:15908   */\n    tag_198:\n        /* \"#utility.yul\":15697:15701   */\n      0x00\n        /* \"#utility.yul\":15735:15737   */\n      0x40\n        /* \"#utility.yul\":15724:15733   */\n      dup3\n        /* \"#utility.yul\":15720:15738   */\n      add\n        /* \"#utility.yul\":15712:15738   */\n      swap1\n      pop\n        /* \"#utility.yul\":15748:15819   */\n      tag_545\n        /* \"#utility.yul\":15816:15817   */\n      0x00\n        /* \"#utility.yul\":15805:15814   */\n      dup4\n        /* \"#utility.yul\":15801:15818   */\n      add\n        /* \"#utility.yul\":15792:15798   */\n      dup6\n        /* \"#utility.yul\":15748:15819   */\n      tag_341\n      jump\t// in\n    tag_545:\n        /* \"#utility.yul\":15829:15901   */\n      tag_546\n        /* \"#utility.yul\":15897:15899   */\n      0x20\n        /* \"#utility.yul\":15886:15895   */\n      dup4\n        /* \"#utility.yul\":15882:15900   */\n      add\n        /* \"#utility.yul\":15873:15879   */\n      dup5\n        /* \"#utility.yul\":15829:15901   */\n      tag_341\n      jump\t// in\n    tag_546:\n        /* \"#utility.yul\":15576:15908   */\n      swap4\n      swap3\n      pop\n      pop\n      pop\n      jump\t// out\n        /* \"#utility.yul\":15914:16148   */\n    tag_364:\n        /* \"#utility.yul\":16054:16088   */\n      0x4c6f616e4d616e616765723a204c6f616e20616d6f756e74206d757374206265\n        /* \"#utility.yul\":16050:16051   */\n      0x00\n        /* \"#utility.yul\":16042:16048   */\n      dup3\n        /* \"#utility.yul\":16038:16052   */\n      add\n        /* \"#utility.yul\":16031:16089   */\n      mstore\n        /* \"#utility.yul\":16123:16140   */\n      0x2067726561746572207468616e20300000000000000000000000000000000000\n        /* \"#utility.yul\":16118:16120   */\n      0x20\n        /* \"#utility.yul\":16110:16116   */\n      dup3\n        /* \"#utility.yul\":16106:16121   */\n      add\n        /* \"#utility.yul\":16099:16141   */\n      mstore\n        /* \"#utility.yul\":15914:16148   */\n      pop\n      jump\t// out\n        /* \"#utility.yul\":16154:16520   */\n    tag_365:\n        /* \"#utility.yul\":16296:16299   */\n      0x00\n        /* \"#utility.yul\":16317:16384   */\n      tag_549\n        /* \"#utility.yul\":16381:16383   */\n      0x2f\n        /* \"#utility.yul\":16376:16379   */\n      dup4\n        /* \"#utility.yul\":16317:16384   */\n      tag_353\n      jump\t// in\n    tag_549:\n        /* \"#utility.yul\":16310:16384   */\n      swap2\n      pop\n        /* \"#utility.yul\":16393:16486   */\n      tag_550\n        /* \"#utility.yul\":16482:16485   */\n      dup3\n        /* \"#utility.yul\":16393:16486   */\n      tag_364\n      jump\t// in\n    tag_550:\n        /* \"#utility.yul\":16511:16513   */\n      0x40\n        /* \"#utility.yul\":16506:16509   */\n      dup3\n        /* \"#utility.yul\":16502:16514   */\n      add\n        /* \"#utility.yul\":16495:16514   */\n      swap1\n      pop\n        /* \"#utility.yul\":16154:16520   */\n      swap2\n      swap1\n      pop\n      jump\t// out\n        /* \"#utility.yul\":16526:16945   */\n    tag_206:\n        /* \"#utility.yul\":16692:16696   */\n      0x00\n        /* \"#utility.yul\":16730:16732   */\n      0x20\n        /* \"#utility.yul\":16719:16728   */\n      dup3\n        /* \"#utility.yul\":16715:16733   */\n      add\n        /* \"#utility.yul\":16707:16733   */\n      swap1\n      pop\n        /* \"#utility.yul\":16779:16788   */\n      dup2\n        /* \"#utility.yul\":16773:16777   */\n      dup2\n        /* \"#utility.yul\":16769:16789   */\n      sub\n        /* \"#utility.yul\":16765:16766   */\n      0x00\n        /* \"#utility.yul\":16754:16763   */\n      dup4\n        /* \"#utility.yul\":16750:16767   */\n      add\n        /* \"#utility.yul\":16743:16790   */\n      mstore\n        /* \"#utility.yul\":16807:16938   */\n      tag_552\n        /* \"#utility.yul\":16933:16937   */\n      dup2\n        /* \"#utility.yul\":16807:16938   */\n      tag_365\n      jump\t// in\n    tag_552:\n        /* \"#utility.yul\":16799:16938   */\n      swap1\n      pop\n        /* \"#utility.yul\":16526:16945   */\n      swap2\n      swap1\n      pop\n      jump\t// out\n        /* \"#utility.yul\":16951:17185   */\n    tag_366:\n        /* \"#utility.yul\":17091:17125   */\n      0x4c6f616e4d616e616765723a204578697374696e67206c6f616e206d75737420\n        /* \"#utility.yul\":17087:17088   */\n      0x00\n        /* \"#utility.yul\":17079:17085   */\n      dup3\n        /* \"#utility.yul\":17075:17089   */\n      add\n        /* \"#utility.yul\":17068:17126   */\n      mstore\n        /* \"#utility.yul\":17160:17177   */\n      0x6265207265706169642066697273740000000000000000000000000000000000\n        /* \"#utility.yul\":17155:17157   */\n      0x20\n        /* \"#utility.yul\":17147:17153   */\n      dup3\n        /* \"#utility.yul\":17143:17158   */\n      add\n        /* \"#utility.yul\":17136:17178   */\n      mstore\n        /* \"#utility.yul\":16951:17185   */\n      pop\n      jump\t// out\n        /* \"#utility.yul\":17191:17557   */\n    tag_367:\n        /* \"#utility.yul\":17333:17336   */\n      0x00\n        /* \"#utility.yul\":17354:17421   */\n      tag_555\n        /* \"#utility.yul\":17418:17420   */\n      0x2f\n        /* \"#utility.yul\":17413:17416   */\n      dup4\n        /* \"#utility.yul\":17354:17421   */\n      tag_353\n      jump\t// in\n    tag_555:\n        /* \"#utility.yul\":17347:17421   */\n      swap2\n      pop\n        /* \"#utility.yul\":17430:17523   */\n      tag_556\n        /* \"#utility.yul\":17519:17522   */\n      dup3\n        /* \"#utility.yul\":17430:17523   */\n      tag_366\n      jump\t// in\n    tag_556:\n        /* \"#utility.yul\":17548:17550   */\n      0x40\n        /* \"#utility.yul\":17543:17546   */\n      dup3\n        /* \"#utility.yul\":17539:17551   */\n      add\n        /* \"#utility.yul\":17532:17551   */\n      swap1\n      pop\n        /* \"#utility.yul\":17191:17557   */\n      swap2\n      swap1\n      pop\n      jump\t// out\n        /* \"#utility.yul\":17563:17982   */\n    tag_209:\n        /* \"#utility.yul\":17729:17733   */\n      0x00\n        /* \"#utility.yul\":17767:17769   */\n      0x20\n        /* \"#utility.yul\":17756:17765   */\n      dup3\n        /* \"#utility.yul\":17752:17770   */\n      add\n        /* \"#utility.yul\":17744:17770   */\n      swap1\n      pop\n        /* \"#utility.yul\":17816:17825   */\n      dup2\n        /* \"#utility.yul\":17810:17814   */\n      dup2\n        /* \"#utility.yul\":17806:17826   */\n      sub\n        /* \"#utility.yul\":17802:17803   */\n      0x00\n        /* \"#utility.yul\":17791:17800   */\n      dup4\n        /* \"#utility.yul\":17787:17804   */\n      add\n        /* \"#utility.yul\":17780:17827   */\n      mstore\n        /* \"#utility.yul\":17844:17975   */\n      tag_558\n        /* \"#utility.yul\":17970:17974   */\n      dup2\n        /* \"#utility.yul\":17844:17975   */\n      tag_367\n      jump\t// in\n    tag_558:\n        /* \"#utility.yul\":17836:17975   */\n      swap1\n      pop\n        /* \"#utility.yul\":17563:17982   */\n      swap2\n      swap1\n      pop\n      jump\t// out\n        /* \"#utility.yul\":17988:18495   */\n    tag_214:\n        /* \"#utility.yul\":18067:18073   */\n      0x00\n        /* \"#utility.yul\":18075:18081   */\n      dup1\n        /* \"#utility.yul\":18124:18126   */\n      0x40\n        /* \"#utility.yul\":18112:18121   */\n      dup4\n        /* \"#utility.yul\":18103:18110   */\n      dup6\n        /* \"#utility.yul\":18099:18122   */\n      sub\n        /* \"#utility.yul\":18095:18127   */\n      slt\n        /* \"#utility.yul\":18092:18211   */\n      iszero\n      tag_560\n      jumpi\n        /* \"#utility.yul\":18130:18209   */\n      tag_561\n      tag_331\n      jump\t// in\n    tag_561:\n        /* \"#utility.yul\":18092:18211   */\n    tag_560:\n        /* \"#utility.yul\":18250:18251   */\n      0x00\n        /* \"#utility.yul\":18275:18339   */\n      tag_562\n        /* \"#utility.yul\":18331:18338   */\n      dup6\n        /* \"#utility.yul\":18322:18328   */\n      dup3\n        /* \"#utility.yul\":18311:18320   */\n      dup7\n        /* \"#utility.yul\":18307:18329   */\n      add\n        /* \"#utility.yul\":18275:18339   */\n      tag_350\n      jump\t// in\n    tag_562:\n        /* \"#utility.yul\":18265:18339   */\n      swap3\n      pop\n        /* \"#utility.yul\":18221:18349   */\n      pop\n        /* \"#utility.yul\":18388:18390   */\n      0x20\n        /* \"#utility.yul\":18414:18478   */\n      tag_563\n        /* \"#utility.yul\":18470:18477   */\n      dup6\n        /* \"#utility.yul\":18461:18467   */\n      dup3\n        /* \"#utility.yul\":18450:18459   */\n      dup7\n        /* \"#utility.yul\":18446:18468   */\n      add\n        /* \"#utility.yul\":18414:18478   */\n      tag_350\n      jump\t// in\n    tag_563:\n        /* \"#utility.yul\":18404:18478   */\n      swap2\n      pop\n        /* \"#utility.yul\":18359:18488   */\n      pop\n        /* \"#utility.yul\":17988:18495   */\n      swap3\n      pop\n      swap3\n      swap1\n      pop\n      jump\t// out\n        /* \"#utility.yul\":18501:18724   */\n    tag_368:\n        /* \"#utility.yul\":18641:18675   */\n      0x4c6f616e4d616e616765723a20496e73756666696369656e7420636f6c6c6174\n        /* \"#utility.yul\":18637:18638   */\n      0x00\n        /* \"#utility.yul\":18629:18635   */\n      dup3\n        /* \"#utility.yul\":18625:18639   */\n      add\n        /* \"#utility.yul\":18618:18676   */\n      mstore\n        /* \"#utility.yul\":18710:18716   */\n      0x6572616c00000000000000000000000000000000000000000000000000000000\n        /* \"#utility.yul\":18705:18707   */\n      0x20\n        /* \"#utility.yul\":18697:18703   */\n      dup3\n        /* \"#utility.yul\":18693:18708   */\n      add\n        /* \"#utility.yul\":18686:18717   */\n      mstore\n        /* \"#utility.yul\":18501:18724   */\n      pop\n      jump\t// out\n        /* \"#utility.yul\":18730:19096   */\n    tag_369:\n        /* \"#utility.yul\":18872:18875   */\n      0x00\n        /* \"#utility.yul\":18893:18960   */\n      tag_566\n        /* \"#utility.yul\":18957:18959   */\n      0x24\n        /* \"#utility.yul\":18952:18955   */\n      dup4\n        /* \"#utility.yul\":18893:18960   */\n      tag_353\n      jump\t// in\n    tag_566:\n        /* \"#utility.yul\":18886:18960   */\n      swap2\n      pop\n        /* \"#utility.yul\":18969:19062   */\n      tag_567\n        /* \"#utility.yul\":19058:19061   */\n      dup3\n        /* \"#utility.yul\":18969:19062   */\n      tag_368\n      jump\t// in\n    tag_567:\n        /* \"#utility.yul\":19087:19089   */\n      0x40\n        /* \"#utility.yul\":19082:19085   */\n      dup3\n        /* \"#utility.yul\":19078:19090   */\n      add\n        /* \"#utility.yul\":19071:19090   */\n      swap1\n      pop\n        /* \"#utility.yul\":18730:19096   */\n      swap2\n      swap1\n      pop\n      jump\t// out\n        /* \"#utility.yul\":19102:19521   */\n    tag_228:\n        /* \"#utility.yul\":19268:19272   */\n      0x00\n        /* \"#utility.yul\":19306:19308   */\n      0x20\n        /* \"#utility.yul\":19295:19304   */\n      dup3\n        /* \"#utility.yul\":19291:19309   */\n      add\n        /* \"#utility.yul\":19283:19309   */\n      swap1\n      pop\n        /* \"#utility.yul\":19355:19364   */\n      dup2\n        /* \"#utility.yul\":19349:19353   */\n      dup2\n        /* \"#utility.yul\":19345:19365   */\n      sub\n        /* \"#utility.yul\":19341:19342   */\n      0x00\n        /* \"#utility.yul\":19330:19339   */\n      dup4\n        /* \"#utility.yul\":19326:19343   */\n      add\n        /* \"#utility.yul\":19319:19366   */\n      mstore\n        /* \"#utility.yul\":19383:19514   */\n      tag_569\n        /* \"#utility.yul\":19509:19513   */\n      dup2\n        /* \"#utility.yul\":19383:19514   */\n      tag_369\n      jump\t// in\n    tag_569:\n        /* \"#utility.yul\":19375:19514   */\n      swap1\n      pop\n        /* \"#utility.yul\":19102:19521   */\n      swap2\n      swap1\n      pop\n      jump\t// out\n        /* \"#utility.yul\":19527:19749   */\n    tag_370:\n        /* \"#utility.yul\":19667:19701   */\n      0x4c6f616e4d616e616765723a204c6f616e20697320616c726561647920726570\n        /* \"#utility.yul\":19663:19664   */\n      0x00\n        /* \"#utility.yul\":19655:19661   */\n      dup3\n        /* \"#utility.yul\":19651:19665   */\n      add\n        /* \"#utility.yul\":19644:19702   */\n      mstore\n        /* \"#utility.yul\":19736:19741   */\n      0x6169640000000000000000000000000000000000000000000000000000000000\n        /* \"#utility.yul\":19731:19733   */\n      0x20\n        /* \"#utility.yul\":19723:19729   */\n      dup3\n        /* \"#utility.yul\":19719:19734   */\n      add\n        /* \"#utility.yul\":19712:19742   */\n      mstore\n        /* \"#utility.yul\":19527:19749   */\n      pop\n      jump\t// out\n        /* \"#utility.yul\":19755:20121   */\n    tag_371:\n        /* \"#utility.yul\":19897:19900   */\n      0x00\n        /* \"#utility.yul\":19918:19985   */\n      tag_572\n        /* \"#utility.yul\":19982:19984   */\n      0x23\n        /* \"#utility.yul\":19977:19980   */\n      dup4\n        /* \"#utility.yul\":19918:19985   */\n      tag_353\n      jump\t// in\n    tag_572:\n        /* \"#utility.yul\":19911:19985   */\n      swap2\n      pop\n        /* \"#utility.yul\":19994:20087   */\n      tag_573\n        /* \"#utility.yul\":20083:20086   */\n      dup3\n        /* \"#utility.yul\":19994:20087   */\n      tag_370\n      jump\t// in\n    tag_573:\n        /* \"#utility.yul\":20112:20114   */\n      0x40\n        /* \"#utility.yul\":20107:20110   */\n      dup3\n        /* \"#utility.yul\":20103:20115   */\n      add\n        /* \"#utility.yul\":20096:20115   */\n      swap1\n      pop\n        /* \"#utility.yul\":19755:20121   */\n      swap2\n      swap1\n      pop\n      jump\t// out\n        /* \"#utility.yul\":20127:20546   */\n    tag_242:\n        /* \"#utility.yul\":20293:20297   */\n      0x00\n        /* \"#utility.yul\":20331:20333   */\n      0x20\n        /* \"#utility.yul\":20320:20329   */\n      dup3\n        /* \"#utility.yul\":20316:20334   */\n      add\n        /* \"#utility.yul\":20308:20334   */\n      swap1\n      pop\n        /* \"#utility.yul\":20380:20389   */\n      dup2\n        /* \"#utility.yul\":20374:20378   */\n      dup2\n        /* \"#utility.yul\":20370:20390   */\n      sub\n        /* \"#utility.yul\":20366:20367   */\n      0x00\n        /* \"#utility.yul\":20355:20364   */\n      dup4\n        /* \"#utility.yul\":20351:20368   */\n      add\n        /* \"#utility.yul\":20344:20391   */\n      mstore\n        /* \"#utility.yul\":20408:20539   */\n      tag_575\n        /* \"#utility.yul\":20534:20538   */\n      dup2\n        /* \"#utility.yul\":20408:20539   */\n      tag_371\n      jump\t// in\n    tag_575:\n        /* \"#utility.yul\":20400:20539   */\n      swap1\n      pop\n        /* \"#utility.yul\":20127:20546   */\n      swap2\n      swap1\n      pop\n      jump\t// out\n        /* \"#utility.yul\":20552:20774   */\n    tag_372:\n        /* \"#utility.yul\":20692:20726   */\n      0x4c6f616e4d616e616765723a20496e73756666696369656e742072657061796d\n        /* \"#utility.yul\":20688:20689   */\n      0x00\n        /* \"#utility.yul\":20680:20686   */\n      dup3\n        /* \"#utility.yul\":20676:20690   */\n      add\n        /* \"#utility.yul\":20669:20727   */\n      mstore\n        /* \"#utility.yul\":20761:20766   */\n      0x656e740000000000000000000000000000000000000000000000000000000000\n        /* \"#utility.yul\":20756:20758   */\n      0x20\n        /* \"#utility.yul\":20748:20754   */\n      dup3\n        /* \"#utility.yul\":20744:20759   */\n      add\n        /* \"#utility.yul\":20737:20767   */\n      mstore\n        /* \"#utility.yul\":20552:20774   */\n      pop\n      jump\t// out\n        /* \"#utility.yul\":20780:21146   */\n    tag_373:\n        /* \"#utility.yul\":20922:20925   */\n      0x00\n        /* \"#utility.yul\":20943:21010   */\n      tag_578\n        /* \"#utility.yul\":21007:21009   */\n      0x23\n        /* \"#utility.yul\":21002:21005   */\n      dup4\n        /* \"#utility.yul\":20943:21010   */\n      tag_353\n      jump\t// in\n    tag_578:\n        /* \"#utility.yul\":20936:21010   */\n      swap2\n      pop\n        /* \"#utility.yul\":21019:21112   */\n      tag_579\n        /* \"#utility.yul\":21108:21111   */\n      dup3\n        /* \"#utility.yul\":21019:21112   */\n      tag_372\n      jump\t// in\n    tag_579:\n        /* \"#utility.yul\":21137:21139   */\n      0x40\n        /* \"#utility.yul\":21132:21135   */\n      dup3\n        /* \"#utility.yul\":21128:21140   */\n      add\n        /* \"#utility.yul\":21121:21140   */\n      swap1\n      pop\n        /* \"#utility.yul\":20780:21146   */\n      swap2\n      swap1\n      pop\n      jump\t// out\n        /* \"#utility.yul\":21152:21571   */\n    tag_246:\n        /* \"#utility.yul\":21318:21322   */\n      0x00\n        /* \"#utility.yul\":21356:21358   */\n      0x20\n        /* \"#utility.yul\":21345:21354   */\n      dup3\n        /* \"#utility.yul\":21341:21359   */\n      add\n        /* \"#utility.yul\":21333:21359   */\n      swap1\n      pop\n        /* \"#utility.yul\":21405:21414   */\n      dup2\n        /* \"#utility.yul\":21399:21403   */\n      dup2\n        /* \"#utility.yul\":21395:21415   */\n      sub\n        /* \"#utility.yul\":21391:21392   */\n      0x00\n        /* \"#utility.yul\":21380:21389   */\n      dup4\n        /* \"#utility.yul\":21376:21393   */\n      add\n        /* \"#utility.yul\":21369:21416   */\n      mstore\n        /* \"#utility.yul\":21433:21564   */\n      tag_581\n        /* \"#utility.yul\":21559:21563   */\n      dup2\n        /* \"#utility.yul\":21433:21564   */\n      tag_373\n      jump\t// in\n    tag_581:\n        /* \"#utility.yul\":21425:21564   */\n      swap1\n      pop\n        /* \"#utility.yul\":21152:21571   */\n      swap2\n      swap1\n      pop\n      jump\t// out\n        /* \"#utility.yul\":21577:22019   */\n    tag_248:\n        /* \"#utility.yul\":21726:21730   */\n      0x00\n        /* \"#utility.yul\":21764:21766   */\n      0x60\n        /* \"#utility.yul\":21753:21762   */\n      dup3\n        /* \"#utility.yul\":21749:21767   */\n      add\n        /* \"#utility.yul\":21741:21767   */\n      swap1\n      pop\n        /* \"#utility.yul\":21777:21848   */\n      tag_583\n        /* \"#utility.yul\":21845:21846   */\n      0x00\n        /* \"#utility.yul\":21834:21843   */\n      dup4\n        /* \"#utility.yul\":21830:21847   */\n      add\n        /* \"#utility.yul\":21821:21827   */\n      dup7\n        /* \"#utility.yul\":21777:21848   */\n      tag_344\n      jump\t// in\n    tag_583:\n        /* \"#utility.yul\":21858:21930   */\n      tag_584\n        /* \"#utility.yul\":21926:21928   */\n      0x20\n        /* \"#utility.yul\":21915:21924   */\n      dup4\n        /* \"#utility.yul\":21911:21929   */\n      add\n        /* \"#utility.yul\":21902:21908   */\n      dup6\n        /* \"#utility.yul\":21858:21930   */\n      tag_344\n      jump\t// in\n    tag_584:\n        /* \"#utility.yul\":21940:22012   */\n      tag_585\n        /* \"#utility.yul\":22008:22010   */\n      0x40\n        /* \"#utility.yul\":21997:22006   */\n      dup4\n        /* \"#utility.yul\":21993:22011   */\n      add\n        /* \"#utility.yul\":21984:21990   */\n      dup5\n        /* \"#utility.yul\":21940:22012   */\n      tag_341\n      jump\t// in\n    tag_585:\n        /* \"#utility.yul\":21577:22019   */\n      swap5\n      swap4\n      pop\n      pop\n      pop\n      pop\n      jump\t// out\n        /* \"#utility.yul\":22025:22250   */\n    tag_374:\n        /* \"#utility.yul\":22165:22199   */\n      0x4c6f616e4d616e616765723a2052657061796d656e74207472616e7366657220\n        /* \"#utility.yul\":22161:22162   */\n      0x00\n        /* \"#utility.yul\":22153:22159   */\n      dup3\n        /* \"#utility.yul\":22149:22163   */\n      add\n        /* \"#utility.yul\":22142:22200   */\n      mstore\n        /* \"#utility.yul\":22234:22242   */\n      0x6661696c65640000000000000000000000000000000000000000000000000000\n        /* \"#utility.yul\":22229:22231   */\n      0x20\n        /* \"#utility.yul\":22221:22227   */\n      dup3\n        /* \"#utility.yul\":22217:22232   */\n      add\n        /* \"#utility.yul\":22210:22243   */\n      mstore\n        /* \"#utility.yul\":22025:22250   */\n      pop\n      jump\t// out\n        /* \"#utility.yul\":22256:22622   */\n    tag_375:\n        /* \"#utility.yul\":22398:22401   */\n      0x00\n        /* \"#utility.yul\":22419:22486   */\n      tag_588\n        /* \"#utility.yul\":22483:22485   */\n      0x26\n        /* \"#utility.yul\":22478:22481   */\n      dup4\n        /* \"#utility.yul\":22419:22486   */\n      tag_353\n      jump\t// in\n    tag_588:\n        /* \"#utility.yul\":22412:22486   */\n      swap2\n      pop\n        /* \"#utility.yul\":22495:22588   */\n      tag_589\n        /* \"#utility.yul\":22584:22587   */\n      dup3\n        /* \"#utility.yul\":22495:22588   */\n      tag_374\n      jump\t// in\n    tag_589:\n        /* \"#utility.yul\":22613:22615   */\n      0x40\n        /* \"#utility.yul\":22608:22611   */\n      dup3\n        /* \"#utility.yul\":22604:22616   */\n      add\n        /* \"#utility.yul\":22597:22616   */\n      swap1\n      pop\n        /* \"#utility.yul\":22256:22622   */\n      swap2\n      swap1\n      pop\n      jump\t// out\n        /* \"#utility.yul\":22628:23047   */\n    tag_254:\n        /* \"#utility.yul\":22794:22798   */\n      0x00\n        /* \"#utility.yul\":22832:22834   */\n      0x20\n        /* \"#utility.yul\":22821:22830   */\n      dup3\n        /* \"#utility.yul\":22817:22835   */\n      add\n        /* \"#utility.yul\":22809:22835   */\n      swap1\n      pop\n        /* \"#utility.yul\":22881:22890   */\n      dup2\n        /* \"#utility.yul\":22875:22879   */\n      dup2\n        /* \"#utility.yul\":22871:22891   */\n      sub\n        /* \"#utility.yul\":22867:22868   */\n      0x00\n        /* \"#utility.yul\":22856:22865   */\n      dup4\n        /* \"#utility.yul\":22852:22869   */\n      add\n        /* \"#utility.yul\":22845:22892   */\n      mstore\n        /* \"#utility.yul\":22909:23040   */\n      tag_591\n        /* \"#utility.yul\":23035:23039   */\n      dup2\n        /* \"#utility.yul\":22909:23040   */\n      tag_375\n      jump\t// in\n    tag_591:\n        /* \"#utility.yul\":22901:23040   */\n      swap1\n      pop\n        /* \"#utility.yul\":22628:23047   */\n      swap2\n      swap1\n      pop\n      jump\t// out\n        /* \"#utility.yul\":23053:23273   */\n    tag_376:\n        /* \"#utility.yul\":23193:23227   */\n      0x4c6f616e4d616e616765723a2046756e64207472616e73666572206661696c65\n        /* \"#utility.yul\":23189:23190   */\n      0x00\n        /* \"#utility.yul\":23181:23187   */\n      dup3\n        /* \"#utility.yul\":23177:23191   */\n      add\n        /* \"#utility.yul\":23170:23228   */\n      mstore\n        /* \"#utility.yul\":23262:23265   */\n      0x6400000000000000000000000000000000000000000000000000000000000000\n        /* \"#utility.yul\":23257:23259   */\n      0x20\n        /* \"#utility.yul\":23249:23255   */\n      dup3\n        /* \"#utility.yul\":23245:23260   */\n      add\n        /* \"#utility.yul\":23238:23266   */\n      mstore\n        /* \"#utility.yul\":23053:23273   */\n      pop\n      jump\t// out\n        /* \"#utility.yul\":23279:23645   */\n    tag_377:\n        /* \"#utility.yul\":23421:23424   */\n      0x00\n        /* \"#utility.yul\":23442:23509   */\n      tag_594\n        /* \"#utility.yul\":23506:23508   */\n      0x21\n        /* \"#utility.yul\":23501:23504   */\n      dup4\n        /* \"#utility.yul\":23442:23509   */\n      tag_353\n      jump\t// in\n    tag_594:\n        /* \"#utility.yul\":23435:23509   */\n      swap2\n      pop\n        /* \"#utility.yul\":23518:23611   */\n      tag_595\n        /* \"#utility.yul\":23607:23610   */\n      dup3\n        /* \"#utility.yul\":23518:23611   */\n      tag_376\n      jump\t// in\n    tag_595:\n        /* \"#utility.yul\":23636:23638   */\n      0x40\n        /* \"#utility.yul\":23631:23634   */\n      dup3\n        /* \"#utility.yul\":23627:23639   */\n      add\n        /* \"#utility.yul\":23620:23639   */\n      swap1\n      pop\n        /* \"#utility.yul\":23279:23645   */\n      swap2\n      swap1\n      pop\n      jump\t// out\n        /* \"#utility.yul\":23651:24070   */\n    tag_271:\n        /* \"#utility.yul\":23817:23821   */\n      0x00\n        /* \"#utility.yul\":23855:23857   */\n      0x20\n        /* \"#utility.yul\":23844:23853   */\n      dup3\n        /* \"#utility.yul\":23840:23858   */\n      add\n        /* \"#utility.yul\":23832:23858   */\n      swap1\n      pop\n        /* \"#utility.yul\":23904:23913   */\n      dup2\n        /* \"#utility.yul\":23898:23902   */\n      dup2\n        /* \"#utility.yul\":23894:23914   */\n      sub\n        /* \"#utility.yul\":23890:23891   */\n      0x00\n        /* \"#utility.yul\":23879:23888   */\n      dup4\n        /* \"#utility.yul\":23875:23892   */\n      add\n        /* \"#utility.yul\":23868:23915   */\n      mstore\n        /* \"#utility.yul\":23932:24063   */\n      tag_597\n        /* \"#utility.yul\":24058:24062   */\n      dup2\n        /* \"#utility.yul\":23932:24063   */\n      tag_377\n      jump\t// in\n    tag_597:\n        /* \"#utility.yul\":23924:24063   */\n      swap1\n      pop\n        /* \"#utility.yul\":23651:24070   */\n      swap2\n      swap1\n      pop\n      jump\t// out\n        /* \"#utility.yul\":24076:24309   */\n    tag_296:\n        /* \"#utility.yul\":24115:24118   */\n      0x00\n        /* \"#utility.yul\":24138:24162   */\n      tag_599\n        /* \"#utility.yul\":24156:24161   */\n      dup3\n        /* \"#utility.yul\":24138:24162   */\n      tag_336\n      jump\t// in\n    tag_599:\n        /* \"#utility.yul\":24129:24162   */\n      swap2\n      pop\n        /* \"#utility.yul\":24184:24250   */\n      0xffffffffffffffffffffffffffffffffffffffffffffffffffffffffffffffff\n        /* \"#utility.yul\":24177:24182   */\n      dup3\n        /* \"#utility.yul\":24174:24251   */\n      sub\n        /* \"#utility.yul\":24171:24274   */\n      tag_600\n      jumpi\n        /* \"#utility.yul\":24254:24272   */\n      tag_601\n      tag_356\n      jump\t// in\n    tag_601:\n        /* \"#utility.yul\":24171:24274   */\n    tag_600:\n        /* \"#utility.yul\":24301:24302   */\n      0x01\n        /* \"#utility.yul\":24294:24299   */\n      dup3\n        /* \"#utility.yul\":24290:24303   */\n      add\n        /* \"#utility.yul\":24283:24303   */\n      swap1\n      pop\n        /* \"#utility.yul\":24076:24309   */\n      swap2\n      swap1\n      pop\n      jump\t// out\n\n    auxdata: 0xa26469706673582212203b7b2c04b6a3bf92fb94eb0fca39275745c3d8490fcab77c7b1b6b01cd262e3064736f6c634300081a0033\n}\n",
				"bytecode": {
					"linkReferences": {},
					"object": "60806040526213c680600555600560065534801561001b575f80fd5b503360015f819055505f73ffffffffffffffffffffffffffffffffffffffff168173ffffffffffffffffffffffffffffffffffffffff1603610094575f6040517f1e4fbdf700000000000000000000000000000000000000000000000000000000815260040161008b9190610315565b60405180910390fd5b6100a38161021360201b60201c565b505f600160146101000a81548160ff02191690831515021790555073036cbd53842c5426634e7929541ec2318f3dcf7e60025f6101000a81548173ffffffffffffffffffffffffffffffffffffffff021916908373ffffffffffffffffffffffffffffffffffffffff160217905550737629c8b277f46b9b60cfc5e7eefae59c5d9a060c60035f6101000a81548173ffffffffffffffffffffffffffffffffffffffff021916908373ffffffffffffffffffffffffffffffffffffffff160217905550733c65e28d357a37589e1c7c86044a9f44ddc1713460075f6101000a81548173ffffffffffffffffffffffffffffffffffffffff021916908373ffffffffffffffffffffffffffffffffffffffff160217905550733ec8593f930ea45ea58c968260e6e9ff53fc934f60085f6101000a81548173ffffffffffffffffffffffffffffffffffffffff021916908373ffffffffffffffffffffffffffffffffffffffff16021790555061032e565b5f60015f9054906101000a900473ffffffffffffffffffffffffffffffffffffffff1690508160015f6101000a81548173ffffffffffffffffffffffffffffffffffffffff021916908373ffffffffffffffffffffffffffffffffffffffff1602179055508173ffffffffffffffffffffffffffffffffffffffff168173ffffffffffffffffffffffffffffffffffffffff167f8be0079c531659141344cd1fd0a4f28419497f9722a3daafe3b4186f6b6457e060405160405180910390a35050565b5f73ffffffffffffffffffffffffffffffffffffffff82169050919050565b5f6102ff826102d6565b9050919050565b61030f816102f5565b82525050565b5f6020820190506103285f830184610306565b92915050565b6126578061033b5f395ff3fe608060405234801561000f575f80fd5b506004361061014b575f3560e01c806370f37d27116100c1578063ab7b1c891161007a578063ab7b1c891461031b578063afd9276214610337578063be99970514610355578063e9e190a314610371578063ec9e0393146103a7578063f2fde38b146103c55761014b565b806370f37d2714610293578063715018a6146102b15780638456cb59146102bb5780638da5cb5b146102c5578063900629e3146102e3578063aa452fa6146102ff5761014b565b806323be345c1161011357806323be345c146101cd5780632af7e2ea146101eb5780633f4ba83a14610209578063449d31bb146102135780635c975abb1461024557806361cb6afd146102635761014b565b80630ea86ad81461014f57806317430c9e1461016d5780631eb5ea2e1461018b5780631fea5a6b1461019557806322f9913e146101b1575b5f80fd5b6101576103e1565b60405161016491906119af565b60405180910390f35b610175610406565b60405161018291906119e0565b60405180910390f35b6101936104a3565b005b6101af60048036038101906101aa9190611a38565b61055a565b005b6101cb60048036038101906101c69190611a96565b61075d565b005b6101d5610809565b6040516101e29190611af4565b60405180910390f35b6101f361082e565b6040516102009190611b1c565b60405180910390f35b610211610834565b005b61022d60048036038101906102289190611a38565b610872565b60405161023c93929190611b35565b60405180910390f35b61024d610898565b60405161025a9190611b84565b60405180910390f35b61027d60048036038101906102789190611a38565b6108ae565b60405161028a9190611b1c565b60405180910390f35b61029b6109bc565b6040516102a89190611b1c565b60405180910390f35b6102b96109c2565b005b6102c36109d5565b005b6102cd610a13565b6040516102da9190611bac565b60405180910390f35b6102fd60048036038101906102f89190611a38565b610a3b565b005b61031960048036038101906103149190611bc5565b610c09565b005b61033560048036038101906103309190611c03565b610fc4565b005b61033f6112e8565b60405161034c9190611b1c565b60405180910390f35b61036f600480360381019061036a9190611c03565b6112ee565b005b61038b60048036038101906103869190611a38565b611425565b60405161039e9796959493929190611c2e565b60405180910390f35b6103af61147c565b6040516103bc91906119e0565b60405180910390f35b6103df60048036038101906103da9190611a38565b611519565b005b60025f9054906101000a900473ffffffffffffffffffffffffffffffffffffffff1681565b5f8060075f9054906101000a900473ffffffffffffffffffffffffffffffffffffffff1673ffffffffffffffffffffffffffffffffffffffff1663feaf968c6040518163ffffffff1660e01b815260040160a060405180830381865afa158015610472573d5f803e3d5ffd5b505050506040513d601f19601f820116820180604052508101906104969190611d18565b5050509150508091505090565b6104ab61159d565b60025f9054906101000a900473ffffffffffffffffffffffffffffffffffffffff1673ffffffffffffffffffffffffffffffffffffffff1663a9059cbb6104f0610a13565b6004546040518363ffffffff1660e01b8152600401610510929190611d8f565b6020604051808303815f875af115801561052c573d5f803e3d5ffd5b505050506040513d601f19601f820116820180604052508101906105509190611de0565b505f600481905550565b61056261159d565b61056a611624565b5f60095f8373ffffffffffffffffffffffffffffffffffffffff1673ffffffffffffffffffffffffffffffffffffffff1681526020019081526020015f2090505f815f0154116105ef576040517f08c379a00000000000000000000000000000000000000000000000000000000081526004016105e690611e65565b60405180910390fd5b600554816004015482600201546106069190611eb0565b6106109190611eb0565b4211610651576040517f08c379a000000000000000000000000000000000000000000000000000000000815260040161064890611f53565b60405180910390fd5b60018160050160016101000a81548160ff021916908315150217905550610678825f611668565b60035f9054906101000a900473ffffffffffffffffffffffffffffffffffffffff1673ffffffffffffffffffffffffffffffffffffffff16631fea5a6b836040518263ffffffff1660e01b81526004016106d29190611bac565b5f604051808303815f87803b1580156106e9575f80fd5b505af11580156106fb573d5f803e3d5ffd5b505050508173ffffffffffffffffffffffffffffffffffffffff167f0be253503c49f8fb02046da3ef57bc2f5f881eb14ba5c2c26b54bf2fb4e7db0782600301546040516107499190611b1c565b60405180910390a25061075a61171d565b50565b61076561159d565b5f60095f8473ffffffffffffffffffffffffffffffffffffffff1673ffffffffffffffffffffffffffffffffffffffff1681526020019081526020015f2090505f815f0154116107ea576040517f08c379a00000000000000000000000000000000000000000000000000000000081526004016107e190611e65565b60405180910390fd5b81816002015f8282546107fd9190611eb0565b92505081905550505050565b60035f9054906101000a900473ffffffffffffffffffffffffffffffffffffffff1681565b60055481565b61083c61159d565b610844611726565b7f15de7ad89d29fd1c6d2e6b1e878453569b4080edf34e0105faaa3bd52f01853060405160405180910390a1565b600a602052805f5260405f205f91509050805f0154908060010154908060020154905083565b5f600160149054906101000a900460ff16905090565b5f8060095f8473ffffffffffffffffffffffffffffffffffffffff1673ffffffffffffffffffffffffffffffffffffffff1681526020019081526020015f206040518060e00160405290815f820154815260200160018201548152602001600282015481526020016003820154815260200160048201548152602001600582015f9054906101000a900460ff161515151581526020016005820160019054906101000a900460ff16151515158152505090505f8160400151426109719190611f71565b90505f63bbf81e00828460200151855f015161098d9190611fa4565b6109979190611fa4565b6109a19190612012565b905080835f01516109b29190611eb0565b9350505050919050565b60045481565b6109ca61159d565b6109d35f611788565b565b6109dd61159d565b6109e561184b565b7f4cb3183d0bf66f9634b15cfc3539fdddc96c2c9324848af89b56586a6739fec460405160405180910390a1565b5f60015f9054906101000a900473ffffffffffffffffffffffffffffffffffffffff16905090565b610a4361159d565b610a4b6118ad565b5f60095f8373ffffffffffffffffffffffffffffffffffffffff1673ffffffffffffffffffffffffffffffffffffffff1681526020019081526020015f2090505f815f015411610ad0576040517f08c379a0000000000000000000000000000000000000000000000000000000008152600401610ac7906120b2565b60405180910390fd5b60025f9054906101000a900473ffffffffffffffffffffffffffffffffffffffff1673ffffffffffffffffffffffffffffffffffffffff1663a9059cbb83835f01546040518363ffffffff1660e01b8152600401610b2f929190611d8f565b6020604051808303815f875af1158015610b4b573d5f803e3d5ffd5b505050506040513d601f19601f82011682018060405250810190610b6f9190611de0565b610bae576040517f08c379a0000000000000000000000000000000000000000000000000000000008152600401610ba590612140565b60405180910390fd5b8173ffffffffffffffffffffffffffffffffffffffff167f1c793c0fda4a6b2b79dd68d91d9f7fde8f7aa0878615c36a4624e6ccdbb1ead1825f01548360030154604051610bfd92919061215e565b60405180910390a25050565b610c11611624565b610c196118ad565b5f8211610c5b576040517f08c379a0000000000000000000000000000000000000000000000000000000008152600401610c52906121f5565b60405180910390fd5b5f60095f3373ffffffffffffffffffffffffffffffffffffffff1673ffffffffffffffffffffffffffffffffffffffff1681526020019081526020015f205f015414610cdc576040517f08c379a0000000000000000000000000000000000000000000000000000000008152600401610cd390612283565b60405180910390fd5b5f8060035f9054906101000a900473ffffffffffffffffffffffffffffffffffffffff1673ffffffffffffffffffffffffffffffffffffffff16632703ee85336040518263ffffffff1660e01b8152600401610d389190611bac565b6040805180830381865afa158015610d52573d5f803e3d5ffd5b505050506040513d601f19601f82011682018060405250810190610d7691906122a1565b915091505f610d83610406565b90505f610d8e61147c565b90505f670de0b6b3a76400008386610da69190611fa4565b610db09190612012565b90505f670de0b6b3a76400008386610dc89190611fa4565b610dd29190612012565b90505f8183610de19190611eb0565b90505f609690505f81670de0b6b3a764000084610dfe9190611fa4565b610e089190612012565b90506064828c610e189190611fa4565b610e229190612012565b811015610e64576040517f08c379a0000000000000000000000000000000000000000000000000000000008152600401610e5b9061234f565b60405180910390fd5b5f6040518060e001604052808d81526020015f8d11610e8557600654610e87565b8c5b81526020014281526020018581526020018481526020015f151581526020015f151581525090508060095f3373ffffffffffffffffffffffffffffffffffffffff1673ffffffffffffffffffffffffffffffffffffffff1681526020019081526020015f205f820151815f01556020820151816001015560408201518160020155606082015181600301556080820151816004015560a0820151816005015f6101000a81548160ff02191690831515021790555060c08201518160050160016101000a81548160ff0219169083151502179055509050503373ffffffffffffffffffffffffffffffffffffffff167f7468760830aff5679376e50470c0493d21c88c599388e89b08c9512b3f3fbc7d8d86604051610fa692919061215e565b60405180910390a250505050505050505050610fc061171d565b5050565b610fcc611624565b610fd46118ad565b5f60095f3373ffffffffffffffffffffffffffffffffffffffff1673ffffffffffffffffffffffffffffffffffffffff1681526020019081526020015f2090505f815f015411611059576040517f08c379a000000000000000000000000000000000000000000000000000000000815260040161105090611e65565b60405180910390fd5b806005015f9054906101000a900460ff16156110aa576040517f08c379a00000000000000000000000000000000000000000000000000000000081526004016110a1906123dd565b60405180910390fd5b5f6110b4336108ae565b9050808310156110f9576040517f08c379a00000000000000000000000000000000000000000000000000000000081526004016110f09061246b565b60405180910390fd5b60025f9054906101000a900473ffffffffffffffffffffffffffffffffffffffff1673ffffffffffffffffffffffffffffffffffffffff166323b872dd3330866040518463ffffffff1660e01b815260040161115793929190612489565b6020604051808303815f875af1158015611173573d5f803e3d5ffd5b505050506040513d601f19601f820116820180604052508101906111979190611de0565b6111d6576040517f08c379a00000000000000000000000000000000000000000000000000000000081526004016111cd9061252e565b60405180910390fd5b6001826005015f6101000a81548160ff0219169083151502179055506111fd336001611668565b60035f9054906101000a900473ffffffffffffffffffffffffffffffffffffffff1673ffffffffffffffffffffffffffffffffffffffff1663192e7a7b336040518263ffffffff1660e01b81526004016112579190611bac565b5f604051808303815f87803b15801561126e575f80fd5b505af1158015611280573d5f803e3d5ffd5b505050503373ffffffffffffffffffffffffffffffffffffffff167fc7ce0a35f17b490de2a317e7fecb2cae86b1abffb03800b2f492823521382698835f015484600301546040516112d392919061215e565b60405180910390a250506112e561171d565b50565b60065481565b6112f661159d565b60025f9054906101000a900473ffffffffffffffffffffffffffffffffffffffff1673ffffffffffffffffffffffffffffffffffffffff166323b872dd3330846040518463ffffffff1660e01b815260040161135493929190612489565b6020604051808303815f875af1158015611370573d5f803e3d5ffd5b505050506040513d601f19601f820116820180604052508101906113949190611de0565b6113d3576040517f08c379a00000000000000000000000000000000000000000000000000000000081526004016113ca906125bc565b60405180910390fd5b8060045f8282546113e49190611eb0565b925050819055507fdfa1544d71975f6aad289acdbd6a695a0789ed2f94a3aa775d08d2bbc570af6d8160405161141a9190611b1c565b60405180910390a150565b6009602052805f5260405f205f91509050805f015490806001015490806002015490806003015490806004015490806005015f9054906101000a900460ff16908060050160019054906101000a900460ff16905087565b5f8060085f9054906101000a900473ffffffffffffffffffffffffffffffffffffffff1673ffffffffffffffffffffffffffffffffffffffff1663feaf968c6040518163ffffffff1660e01b815260040160a060405180830381865afa1580156114e8573d5f803e3d5ffd5b505050506040513d601f19601f8201168201806040525081019061150c9190611d18565b5050509150508091505090565b61152161159d565b5f73ffffffffffffffffffffffffffffffffffffffff168173ffffffffffffffffffffffffffffffffffffffff1603611591575f6040517f1e4fbdf70000000000000000000000000000000000000000000000000000000081526004016115889190611bac565b60405180910390fd5b61159a81611788565b50565b6115a56118ee565b73ffffffffffffffffffffffffffffffffffffffff166115c3610a13565b73ffffffffffffffffffffffffffffffffffffffff1614611622576115e66118ee565b6040517f118cdaa70000000000000000000000000000000000000000000000000000000081526004016116199190611bac565b60405180910390fd5b565b60025f540361165f576040517f3ee5aeb500000000000000000000000000000000000000000000000000000000815260040160405180910390fd5b60025f81905550565b5f600a5f8473ffffffffffffffffffffffffffffffffffffffff1673ffffffffffffffffffffffffffffffffffffffff1681526020019081526020015f20905081156116cb57805f015f8154809291906116c1906125da565b91905055506116e5565b806001015f8154809291906116df906125da565b91905055505b600581600101546116f69190611fa4565b600a825f01546117069190611fa4565b6117109190611f71565b8160020181905550505050565b60015f81905550565b61172e6118f5565b5f600160146101000a81548160ff0219169083151502179055507f5db9ee0a495bf2e6ff9c91a7834c1ba4fdd244a5e8aa4e537bd38aeae4b073aa6117716118ee565b60405161177e9190611bac565b60405180910390a1565b5f60015f9054906101000a900473ffffffffffffffffffffffffffffffffffffffff1690508160015f6101000a81548173ffffffffffffffffffffffffffffffffffffffff021916908373ffffffffffffffffffffffffffffffffffffffff1602179055508173ffffffffffffffffffffffffffffffffffffffff168173ffffffffffffffffffffffffffffffffffffffff167f8be0079c531659141344cd1fd0a4f28419497f9722a3daafe3b4186f6b6457e060405160405180910390a35050565b6118536118ad565b60018060146101000a81548160ff0219169083151502179055507f62e78cea01bee320cd4e420270b5ea74000d11b0c9f74754ebdbfc544b05a2586118966118ee565b6040516118a39190611bac565b60405180910390a1565b6118b5610898565b156118ec576040517fd93c066500000000000000000000000000000000000000000000000000000000815260040160405180910390fd5b565b5f33905090565b6118fd610898565b611933576040517f8dfc202b00000000000000000000000000000000000000000000000000000000815260040160405180910390fd5b565b5f73ffffffffffffffffffffffffffffffffffffffff82169050919050565b5f819050919050565b5f61197761197261196d84611935565b611954565b611935565b9050919050565b5f6119888261195d565b9050919050565b5f6119998261197e565b9050919050565b6119a98161198f565b82525050565b5f6020820190506119c25f8301846119a0565b92915050565b5f819050919050565b6119da816119c8565b82525050565b5f6020820190506119f35f8301846119d1565b92915050565b5f80fd5b5f611a0782611935565b9050919050565b611a17816119fd565b8114611a21575f80fd5b50565b5f81359050611a3281611a0e565b92915050565b5f60208284031215611a4d57611a4c6119f9565b5b5f611a5a84828501611a24565b91505092915050565b5f819050919050565b611a7581611a63565b8114611a7f575f80fd5b50565b5f81359050611a9081611a6c565b92915050565b5f8060408385031215611aac57611aab6119f9565b5b5f611ab985828601611a24565b9250506020611aca85828601611a82565b9150509250929050565b5f611ade8261197e565b9050919050565b611aee81611ad4565b82525050565b5f602082019050611b075f830184611ae5565b92915050565b611b1681611a63565b82525050565b5f602082019050611b2f5f830184611b0d565b92915050565b5f606082019050611b485f830186611b0d565b611b556020830185611b0d565b611b626040830184611b0d565b949350505050565b5f8115159050919050565b611b7e81611b6a565b82525050565b5f602082019050611b975f830184611b75565b92915050565b611ba6816119fd565b82525050565b5f602082019050611bbf5f830184611b9d565b92915050565b5f8060408385031215611bdb57611bda6119f9565b5b5f611be885828601611a82565b9250506020611bf985828601611a82565b9150509250929050565b5f60208284031215611c1857611c176119f9565b5b5f611c2584828501611a82565b91505092915050565b5f60e082019050611c415f83018a611b0d565b611c4e6020830189611b0d565b611c5b6040830188611b0d565b611c686060830187611b0d565b611c756080830186611b0d565b611c8260a0830185611b75565b611c8f60c0830184611b75565b98975050505050505050565b5f69ffffffffffffffffffff82169050919050565b611cb981611c9b565b8114611cc3575f80fd5b50565b5f81519050611cd481611cb0565b92915050565b611ce3816119c8565b8114611ced575f80fd5b50565b5f81519050611cfe81611cda565b92915050565b5f81519050611d1281611a6c565b92915050565b5f805f805f60a08688031215611d3157611d306119f9565b5b5f611d3e88828901611cc6565b9550506020611d4f88828901611cf0565b9450506040611d6088828901611d04565b9350506060611d7188828901611d04565b9250506080611d8288828901611cc6565b9150509295509295909350565b5f604082019050611da25f830185611b9d565b611daf6020830184611b0d565b9392505050565b611dbf81611b6a565b8114611dc9575f80fd5b50565b5f81519050611dda81611db6565b92915050565b5f60208284031215611df557611df46119f9565b5b5f611e0284828501611dcc565b91505092915050565b5f82825260208201905092915050565b7f4c6f616e4d616e616765723a204e6f20616374697665206c6f616e00000000005f82015250565b5f611e4f601b83611e0b565b9150611e5a82611e1b565b602082019050919050565b5f6020820190508181035f830152611e7c81611e43565b9050919050565b7f4e487b71000000000000000000000000000000000000000000000000000000005f52601160045260245ffd5b5f611eba82611a63565b9150611ec583611a63565b9250828201905080821115611edd57611edc611e83565b5b92915050565b7f4c6f616e4d616e616765723a204c6f616e206e6f742064656661756c746564205f8201527f7965740000000000000000000000000000000000000000000000000000000000602082015250565b5f611f3d602383611e0b565b9150611f4882611ee3565b604082019050919050565b5f6020820190508181035f830152611f6a81611f31565b9050919050565b5f611f7b82611a63565b9150611f8683611a63565b9250828203905081811115611f9e57611f9d611e83565b5b92915050565b5f611fae82611a63565b9150611fb983611a63565b9250828202611fc781611a63565b91508282048414831517611fde57611fdd611e83565b5b5092915050565b7f4e487b71000000000000000000000000000000000000000000000000000000005f52601260045260245ffd5b5f61201c82611a63565b915061202783611a63565b92508261203757612036611fe5565b5b828204905092915050565b7f4c6f616e4d616e616765723a204e6f206c6f616e207265717565737420666f755f8201527f6e64000000000000000000000000000000000000000000000000000000000000602082015250565b5f61209c602283611e0b565b91506120a782612042565b604082019050919050565b5f6020820190508181035f8301526120c981612090565b9050919050565b7f4c6f616e4d616e616765723a204c6f616e207472616e73666572206661696c655f8201527f6400000000000000000000000000000000000000000000000000000000000000602082015250565b5f61212a602183611e0b565b9150612135826120d0565b604082019050919050565b5f6020820190508181035f8301526121578161211e565b9050919050565b5f6040820190506121715f830185611b0d565b61217e6020830184611b0d565b9392505050565b7f4c6f616e4d616e616765723a204c6f616e20616d6f756e74206d7573742062655f8201527f2067726561746572207468616e20300000000000000000000000000000000000602082015250565b5f6121df602f83611e0b565b91506121ea82612185565b604082019050919050565b5f6020820190508181035f83015261220c816121d3565b9050919050565b7f4c6f616e4d616e616765723a204578697374696e67206c6f616e206d757374205f8201527f6265207265706169642066697273740000000000000000000000000000000000602082015250565b5f61226d602f83611e0b565b915061227882612213565b604082019050919050565b5f6020820190508181035f83015261229a81612261565b9050919050565b5f80604083850312156122b7576122b66119f9565b5b5f6122c485828601611d04565b92505060206122d585828601611d04565b9150509250929050565b7f4c6f616e4d616e616765723a20496e73756666696369656e7420636f6c6c61745f8201527f6572616c00000000000000000000000000000000000000000000000000000000602082015250565b5f612339602483611e0b565b9150612344826122df565b604082019050919050565b5f6020820190508181035f8301526123668161232d565b9050919050565b7f4c6f616e4d616e616765723a204c6f616e20697320616c7265616479207265705f8201527f6169640000000000000000000000000000000000000000000000000000000000602082015250565b5f6123c7602383611e0b565b91506123d28261236d565b604082019050919050565b5f6020820190508181035f8301526123f4816123bb565b9050919050565b7f4c6f616e4d616e616765723a20496e73756666696369656e742072657061796d5f8201527f656e740000000000000000000000000000000000000000000000000000000000602082015250565b5f612455602383611e0b565b9150612460826123fb565b604082019050919050565b5f6020820190508181035f83015261248281612449565b9050919050565b5f60608201905061249c5f830186611b9d565b6124a96020830185611b9d565b6124b66040830184611b0d565b949350505050565b7f4c6f616e4d616e616765723a2052657061796d656e74207472616e73666572205f8201527f6661696c65640000000000000000000000000000000000000000000000000000602082015250565b5f612518602683611e0b565b9150612523826124be565b604082019050919050565b5f6020820190508181035f8301526125458161250c565b9050919050565b7f4c6f616e4d616e616765723a2046756e64207472616e73666572206661696c655f8201527f6400000000000000000000000000000000000000000000000000000000000000602082015250565b5f6125a6602183611e0b565b91506125b18261254c565b604082019050919050565b5f6020820190508181035f8301526125d38161259a565b9050919050565b5f6125e482611a63565b91507fffffffffffffffffffffffffffffffffffffffffffffffffffffffffffffffff820361261657612615611e83565b5b60018201905091905056fea26469706673582212203b7b2c04b6a3bf92fb94eb0fca39275745c3d8490fcab77c7b1b6b01cd262e3064736f6c634300081a0033",
					"opcodes": "PUSH1 0x80 PUSH1 0x40 MSTORE PUSH3 0x13C680 PUSH1 0x5 SSTORE PUSH1 0x5 PUSH1 0x6 SSTORE CALLVALUE DUP1 ISZERO PUSH2 0x1B JUMPI PUSH0 DUP1 REVERT JUMPDEST POP CALLER PUSH1 0x1 PUSH0 DUP2 SWAP1 SSTORE POP PUSH0 PUSH20 0xFFFFFFFFFFFFFFFFFFFFFFFFFFFFFFFFFFFFFFFF AND DUP2 PUSH20 0xFFFFFFFFFFFFFFFFFFFFFFFFFFFFFFFFFFFFFFFF AND SUB PUSH2 0x94 JUMPI PUSH0 PUSH1 0x40 MLOAD PUSH32 0x1E4FBDF700000000000000000000000000000000000000000000000000000000 DUP2 MSTORE PUSH1 0x4 ADD PUSH2 0x8B SWAP2 SWAP1 PUSH2 0x315 JUMP JUMPDEST PUSH1 0x40 MLOAD DUP1 SWAP2 SUB SWAP1 REVERT JUMPDEST PUSH2 0xA3 DUP2 PUSH2 0x213 PUSH1 0x20 SHL PUSH1 0x20 SHR JUMP JUMPDEST POP PUSH0 PUSH1 0x1 PUSH1 0x14 PUSH2 0x100 EXP DUP2 SLOAD DUP2 PUSH1 0xFF MUL NOT AND SWAP1 DUP4 ISZERO ISZERO MUL OR SWAP1 SSTORE POP PUSH20 0x36CBD53842C5426634E7929541EC2318F3DCF7E PUSH1 0x2 PUSH0 PUSH2 0x100 EXP DUP2 SLOAD DUP2 PUSH20 0xFFFFFFFFFFFFFFFFFFFFFFFFFFFFFFFFFFFFFFFF MUL NOT AND SWAP1 DUP4 PUSH20 0xFFFFFFFFFFFFFFFFFFFFFFFFFFFFFFFFFFFFFFFF AND MUL OR SWAP1 SSTORE POP PUSH20 0x7629C8B277F46B9B60CFC5E7EEFAE59C5D9A060C PUSH1 0x3 PUSH0 PUSH2 0x100 EXP DUP2 SLOAD DUP2 PUSH20 0xFFFFFFFFFFFFFFFFFFFFFFFFFFFFFFFFFFFFFFFF MUL NOT AND SWAP1 DUP4 PUSH20 0xFFFFFFFFFFFFFFFFFFFFFFFFFFFFFFFFFFFFFFFF AND MUL OR SWAP1 SSTORE POP PUSH20 0x3C65E28D357A37589E1C7C86044A9F44DDC17134 PUSH1 0x7 PUSH0 PUSH2 0x100 EXP DUP2 SLOAD DUP2 PUSH20 0xFFFFFFFFFFFFFFFFFFFFFFFFFFFFFFFFFFFFFFFF MUL NOT AND SWAP1 DUP4 PUSH20 0xFFFFFFFFFFFFFFFFFFFFFFFFFFFFFFFFFFFFFFFF AND MUL OR SWAP1 SSTORE POP PUSH20 0x3EC8593F930EA45EA58C968260E6E9FF53FC934F PUSH1 0x8 PUSH0 PUSH2 0x100 EXP DUP2 SLOAD DUP2 PUSH20 0xFFFFFFFFFFFFFFFFFFFFFFFFFFFFFFFFFFFFFFFF MUL NOT AND SWAP1 DUP4 PUSH20 0xFFFFFFFFFFFFFFFFFFFFFFFFFFFFFFFFFFFFFFFF AND MUL OR SWAP1 SSTORE POP PUSH2 0x32E JUMP JUMPDEST PUSH0 PUSH1 0x1 PUSH0 SWAP1 SLOAD SWAP1 PUSH2 0x100 EXP SWAP1 DIV PUSH20 0xFFFFFFFFFFFFFFFFFFFFFFFFFFFFFFFFFFFFFFFF AND SWAP1 POP DUP2 PUSH1 0x1 PUSH0 PUSH2 0x100 EXP DUP2 SLOAD DUP2 PUSH20 0xFFFFFFFFFFFFFFFFFFFFFFFFFFFFFFFFFFFFFFFF MUL NOT AND SWAP1 DUP4 PUSH20 0xFFFFFFFFFFFFFFFFFFFFFFFFFFFFFFFFFFFFFFFF AND MUL OR SWAP1 SSTORE POP DUP2 PUSH20 0xFFFFFFFFFFFFFFFFFFFFFFFFFFFFFFFFFFFFFFFF AND DUP2 PUSH20 0xFFFFFFFFFFFFFFFFFFFFFFFFFFFFFFFFFFFFFFFF AND PUSH32 0x8BE0079C531659141344CD1FD0A4F28419497F9722A3DAAFE3B4186F6B6457E0 PUSH1 0x40 MLOAD PUSH1 0x40 MLOAD DUP1 SWAP2 SUB SWAP1 LOG3 POP POP JUMP JUMPDEST PUSH0 PUSH20 0xFFFFFFFFFFFFFFFFFFFFFFFFFFFFFFFFFFFFFFFF DUP3 AND SWAP1 POP SWAP2 SWAP1 POP JUMP JUMPDEST PUSH0 PUSH2 0x2FF DUP3 PUSH2 0x2D6 JUMP JUMPDEST SWAP1 POP SWAP2 SWAP1 POP JUMP JUMPDEST PUSH2 0x30F DUP2 PUSH2 0x2F5 JUMP JUMPDEST DUP3 MSTORE POP POP JUMP JUMPDEST PUSH0 PUSH1 0x20 DUP3 ADD SWAP1 POP PUSH2 0x328 PUSH0 DUP4 ADD DUP5 PUSH2 0x306 JUMP JUMPDEST SWAP3 SWAP2 POP POP JUMP JUMPDEST PUSH2 0x2657 DUP1 PUSH2 0x33B PUSH0 CODECOPY PUSH0 RETURN INVALID PUSH1 0x80 PUSH1 0x40 MSTORE CALLVALUE DUP1 ISZERO PUSH2 0xF JUMPI PUSH0 DUP1 REVERT JUMPDEST POP PUSH1 0x4 CALLDATASIZE LT PUSH2 0x14B JUMPI PUSH0 CALLDATALOAD PUSH1 0xE0 SHR DUP1 PUSH4 0x70F37D27 GT PUSH2 0xC1 JUMPI DUP1 PUSH4 0xAB7B1C89 GT PUSH2 0x7A JUMPI DUP1 PUSH4 0xAB7B1C89 EQ PUSH2 0x31B JUMPI DUP1 PUSH4 0xAFD92762 EQ PUSH2 0x337 JUMPI DUP1 PUSH4 0xBE999705 EQ PUSH2 0x355 JUMPI DUP1 PUSH4 0xE9E190A3 EQ PUSH2 0x371 JUMPI DUP1 PUSH4 0xEC9E0393 EQ PUSH2 0x3A7 JUMPI DUP1 PUSH4 0xF2FDE38B EQ PUSH2 0x3C5 JUMPI PUSH2 0x14B JUMP JUMPDEST DUP1 PUSH4 0x70F37D27 EQ PUSH2 0x293 JUMPI DUP1 PUSH4 0x715018A6 EQ PUSH2 0x2B1 JUMPI DUP1 PUSH4 0x8456CB59 EQ PUSH2 0x2BB JUMPI DUP1 PUSH4 0x8DA5CB5B EQ PUSH2 0x2C5 JUMPI DUP1 PUSH4 0x900629E3 EQ PUSH2 0x2E3 JUMPI DUP1 PUSH4 0xAA452FA6 EQ PUSH2 0x2FF JUMPI PUSH2 0x14B JUMP JUMPDEST DUP1 PUSH4 0x23BE345C GT PUSH2 0x113 JUMPI DUP1 PUSH4 0x23BE345C EQ PUSH2 0x1CD JUMPI DUP1 PUSH4 0x2AF7E2EA EQ PUSH2 0x1EB JUMPI DUP1 PUSH4 0x3F4BA83A EQ PUSH2 0x209 JUMPI DUP1 PUSH4 0x449D31BB EQ PUSH2 0x213 JUMPI DUP1 PUSH4 0x5C975ABB EQ PUSH2 0x245 JUMPI DUP1 PUSH4 0x61CB6AFD EQ PUSH2 0x263 JUMPI PUSH2 0x14B JUMP JUMPDEST DUP1 PUSH4 0xEA86AD8 EQ PUSH2 0x14F JUMPI DUP1 PUSH4 0x17430C9E EQ PUSH2 0x16D JUMPI DUP1 PUSH4 0x1EB5EA2E EQ PUSH2 0x18B JUMPI DUP1 PUSH4 0x1FEA5A6B EQ PUSH2 0x195 JUMPI DUP1 PUSH4 0x22F9913E EQ PUSH2 0x1B1 JUMPI JUMPDEST PUSH0 DUP1 REVERT JUMPDEST PUSH2 0x157 PUSH2 0x3E1 JUMP JUMPDEST PUSH1 0x40 MLOAD PUSH2 0x164 SWAP2 SWAP1 PUSH2 0x19AF JUMP JUMPDEST PUSH1 0x40 MLOAD DUP1 SWAP2 SUB SWAP1 RETURN JUMPDEST PUSH2 0x175 PUSH2 0x406 JUMP JUMPDEST PUSH1 0x40 MLOAD PUSH2 0x182 SWAP2 SWAP1 PUSH2 0x19E0 JUMP JUMPDEST PUSH1 0x40 MLOAD DUP1 SWAP2 SUB SWAP1 RETURN JUMPDEST PUSH2 0x193 PUSH2 0x4A3 JUMP JUMPDEST STOP JUMPDEST PUSH2 0x1AF PUSH1 0x4 DUP1 CALLDATASIZE SUB DUP2 ADD SWAP1 PUSH2 0x1AA SWAP2 SWAP1 PUSH2 0x1A38 JUMP JUMPDEST PUSH2 0x55A JUMP JUMPDEST STOP JUMPDEST PUSH2 0x1CB PUSH1 0x4 DUP1 CALLDATASIZE SUB DUP2 ADD SWAP1 PUSH2 0x1C6 SWAP2 SWAP1 PUSH2 0x1A96 JUMP JUMPDEST PUSH2 0x75D JUMP JUMPDEST STOP JUMPDEST PUSH2 0x1D5 PUSH2 0x809 JUMP JUMPDEST PUSH1 0x40 MLOAD PUSH2 0x1E2 SWAP2 SWAP1 PUSH2 0x1AF4 JUMP JUMPDEST PUSH1 0x40 MLOAD DUP1 SWAP2 SUB SWAP1 RETURN JUMPDEST PUSH2 0x1F3 PUSH2 0x82E JUMP JUMPDEST PUSH1 0x40 MLOAD PUSH2 0x200 SWAP2 SWAP1 PUSH2 0x1B1C JUMP JUMPDEST PUSH1 0x40 MLOAD DUP1 SWAP2 SUB SWAP1 RETURN JUMPDEST PUSH2 0x211 PUSH2 0x834 JUMP JUMPDEST STOP JUMPDEST PUSH2 0x22D PUSH1 0x4 DUP1 CALLDATASIZE SUB DUP2 ADD SWAP1 PUSH2 0x228 SWAP2 SWAP1 PUSH2 0x1A38 JUMP JUMPDEST PUSH2 0x872 JUMP JUMPDEST PUSH1 0x40 MLOAD PUSH2 0x23C SWAP4 SWAP3 SWAP2 SWAP1 PUSH2 0x1B35 JUMP JUMPDEST PUSH1 0x40 MLOAD DUP1 SWAP2 SUB SWAP1 RETURN JUMPDEST PUSH2 0x24D PUSH2 0x898 JUMP JUMPDEST PUSH1 0x40 MLOAD PUSH2 0x25A SWAP2 SWAP1 PUSH2 0x1B84 JUMP JUMPDEST PUSH1 0x40 MLOAD DUP1 SWAP2 SUB SWAP1 RETURN JUMPDEST PUSH2 0x27D PUSH1 0x4 DUP1 CALLDATASIZE SUB DUP2 ADD SWAP1 PUSH2 0x278 SWAP2 SWAP1 PUSH2 0x1A38 JUMP JUMPDEST PUSH2 0x8AE JUMP JUMPDEST PUSH1 0x40 MLOAD PUSH2 0x28A SWAP2 SWAP1 PUSH2 0x1B1C JUMP JUMPDEST PUSH1 0x40 MLOAD DUP1 SWAP2 SUB SWAP1 RETURN JUMPDEST PUSH2 0x29B PUSH2 0x9BC JUMP JUMPDEST PUSH1 0x40 MLOAD PUSH2 0x2A8 SWAP2 SWAP1 PUSH2 0x1B1C JUMP JUMPDEST PUSH1 0x40 MLOAD DUP1 SWAP2 SUB SWAP1 RETURN JUMPDEST PUSH2 0x2B9 PUSH2 0x9C2 JUMP JUMPDEST STOP JUMPDEST PUSH2 0x2C3 PUSH2 0x9D5 JUMP JUMPDEST STOP JUMPDEST PUSH2 0x2CD PUSH2 0xA13 JUMP JUMPDEST PUSH1 0x40 MLOAD PUSH2 0x2DA SWAP2 SWAP1 PUSH2 0x1BAC JUMP JUMPDEST PUSH1 0x40 MLOAD DUP1 SWAP2 SUB SWAP1 RETURN JUMPDEST PUSH2 0x2FD PUSH1 0x4 DUP1 CALLDATASIZE SUB DUP2 ADD SWAP1 PUSH2 0x2F8 SWAP2 SWAP1 PUSH2 0x1A38 JUMP JUMPDEST PUSH2 0xA3B JUMP JUMPDEST STOP JUMPDEST PUSH2 0x319 PUSH1 0x4 DUP1 CALLDATASIZE SUB DUP2 ADD SWAP1 PUSH2 0x314 SWAP2 SWAP1 PUSH2 0x1BC5 JUMP JUMPDEST PUSH2 0xC09 JUMP JUMPDEST STOP JUMPDEST PUSH2 0x335 PUSH1 0x4 DUP1 CALLDATASIZE SUB DUP2 ADD SWAP1 PUSH2 0x330 SWAP2 SWAP1 PUSH2 0x1C03 JUMP JUMPDEST PUSH2 0xFC4 JUMP JUMPDEST STOP JUMPDEST PUSH2 0x33F PUSH2 0x12E8 JUMP JUMPDEST PUSH1 0x40 MLOAD PUSH2 0x34C SWAP2 SWAP1 PUSH2 0x1B1C JUMP JUMPDEST PUSH1 0x40 MLOAD DUP1 SWAP2 SUB SWAP1 RETURN JUMPDEST PUSH2 0x36F PUSH1 0x4 DUP1 CALLDATASIZE SUB DUP2 ADD SWAP1 PUSH2 0x36A SWAP2 SWAP1 PUSH2 0x1C03 JUMP JUMPDEST PUSH2 0x12EE JUMP JUMPDEST STOP JUMPDEST PUSH2 0x38B PUSH1 0x4 DUP1 CALLDATASIZE SUB DUP2 ADD SWAP1 PUSH2 0x386 SWAP2 SWAP1 PUSH2 0x1A38 JUMP JUMPDEST PUSH2 0x1425 JUMP JUMPDEST PUSH1 0x40 MLOAD PUSH2 0x39E SWAP8 SWAP7 SWAP6 SWAP5 SWAP4 SWAP3 SWAP2 SWAP1 PUSH2 0x1C2E JUMP JUMPDEST PUSH1 0x40 MLOAD DUP1 SWAP2 SUB SWAP1 RETURN JUMPDEST PUSH2 0x3AF PUSH2 0x147C JUMP JUMPDEST PUSH1 0x40 MLOAD PUSH2 0x3BC SWAP2 SWAP1 PUSH2 0x19E0 JUMP JUMPDEST PUSH1 0x40 MLOAD DUP1 SWAP2 SUB SWAP1 RETURN JUMPDEST PUSH2 0x3DF PUSH1 0x4 DUP1 CALLDATASIZE SUB DUP2 ADD SWAP1 PUSH2 0x3DA SWAP2 SWAP1 PUSH2 0x1A38 JUMP JUMPDEST PUSH2 0x1519 JUMP JUMPDEST STOP JUMPDEST PUSH1 0x2 PUSH0 SWAP1 SLOAD SWAP1 PUSH2 0x100 EXP SWAP1 DIV PUSH20 0xFFFFFFFFFFFFFFFFFFFFFFFFFFFFFFFFFFFFFFFF AND DUP2 JUMP JUMPDEST PUSH0 DUP1 PUSH1 0x7 PUSH0 SWAP1 SLOAD SWAP1 PUSH2 0x100 EXP SWAP1 DIV PUSH20 0xFFFFFFFFFFFFFFFFFFFFFFFFFFFFFFFFFFFFFFFF AND PUSH20 0xFFFFFFFFFFFFFFFFFFFFFFFFFFFFFFFFFFFFFFFF AND PUSH4 0xFEAF968C PUSH1 0x40 MLOAD DUP2 PUSH4 0xFFFFFFFF AND PUSH1 0xE0 SHL DUP2 MSTORE PUSH1 0x4 ADD PUSH1 0xA0 PUSH1 0x40 MLOAD DUP1 DUP4 SUB DUP2 DUP7 GAS STATICCALL ISZERO DUP1 ISZERO PUSH2 0x472 JUMPI RETURNDATASIZE PUSH0 DUP1 RETURNDATACOPY RETURNDATASIZE PUSH0 REVERT JUMPDEST POP POP POP POP PUSH1 0x40 MLOAD RETURNDATASIZE PUSH1 0x1F NOT PUSH1 0x1F DUP3 ADD AND DUP3 ADD DUP1 PUSH1 0x40 MSTORE POP DUP2 ADD SWAP1 PUSH2 0x496 SWAP2 SWAP1 PUSH2 0x1D18 JUMP JUMPDEST POP POP POP SWAP2 POP POP DUP1 SWAP2 POP POP SWAP1 JUMP JUMPDEST PUSH2 0x4AB PUSH2 0x159D JUMP JUMPDEST PUSH1 0x2 PUSH0 SWAP1 SLOAD SWAP1 PUSH2 0x100 EXP SWAP1 DIV PUSH20 0xFFFFFFFFFFFFFFFFFFFFFFFFFFFFFFFFFFFFFFFF AND PUSH20 0xFFFFFFFFFFFFFFFFFFFFFFFFFFFFFFFFFFFFFFFF AND PUSH4 0xA9059CBB PUSH2 0x4F0 PUSH2 0xA13 JUMP JUMPDEST PUSH1 0x4 SLOAD PUSH1 0x40 MLOAD DUP4 PUSH4 0xFFFFFFFF AND PUSH1 0xE0 SHL DUP2 MSTORE PUSH1 0x4 ADD PUSH2 0x510 SWAP3 SWAP2 SWAP1 PUSH2 0x1D8F JUMP JUMPDEST PUSH1 0x20 PUSH1 0x40 MLOAD DUP1 DUP4 SUB DUP2 PUSH0 DUP8 GAS CALL ISZERO DUP1 ISZERO PUSH2 0x52C JUMPI RETURNDATASIZE PUSH0 DUP1 RETURNDATACOPY RETURNDATASIZE PUSH0 REVERT JUMPDEST POP POP POP POP PUSH1 0x40 MLOAD RETURNDATASIZE PUSH1 0x1F NOT PUSH1 0x1F DUP3 ADD AND DUP3 ADD DUP1 PUSH1 0x40 MSTORE POP DUP2 ADD SWAP1 PUSH2 0x550 SWAP2 SWAP1 PUSH2 0x1DE0 JUMP JUMPDEST POP PUSH0 PUSH1 0x4 DUP2 SWAP1 SSTORE POP JUMP JUMPDEST PUSH2 0x562 PUSH2 0x159D JUMP JUMPDEST PUSH2 0x56A PUSH2 0x1624 JUMP JUMPDEST PUSH0 PUSH1 0x9 PUSH0 DUP4 PUSH20 0xFFFFFFFFFFFFFFFFFFFFFFFFFFFFFFFFFFFFFFFF AND PUSH20 0xFFFFFFFFFFFFFFFFFFFFFFFFFFFFFFFFFFFFFFFF AND DUP2 MSTORE PUSH1 0x20 ADD SWAP1 DUP2 MSTORE PUSH1 0x20 ADD PUSH0 KECCAK256 SWAP1 POP PUSH0 DUP2 PUSH0 ADD SLOAD GT PUSH2 0x5EF JUMPI PUSH1 0x40 MLOAD PUSH32 0x8C379A000000000000000000000000000000000000000000000000000000000 DUP2 MSTORE PUSH1 0x4 ADD PUSH2 0x5E6 SWAP1 PUSH2 0x1E65 JUMP JUMPDEST PUSH1 0x40 MLOAD DUP1 SWAP2 SUB SWAP1 REVERT JUMPDEST PUSH1 0x5 SLOAD DUP2 PUSH1 0x4 ADD SLOAD DUP3 PUSH1 0x2 ADD SLOAD PUSH2 0x606 SWAP2 SWAP1 PUSH2 0x1EB0 JUMP JUMPDEST PUSH2 0x610 SWAP2 SWAP1 PUSH2 0x1EB0 JUMP JUMPDEST TIMESTAMP GT PUSH2 0x651 JUMPI PUSH1 0x40 MLOAD PUSH32 0x8C379A000000000000000000000000000000000000000000000000000000000 DUP2 MSTORE PUSH1 0x4 ADD PUSH2 0x648 SWAP1 PUSH2 0x1F53 JUMP JUMPDEST PUSH1 0x40 MLOAD DUP1 SWAP2 SUB SWAP1 REVERT JUMPDEST PUSH1 0x1 DUP2 PUSH1 0x5 ADD PUSH1 0x1 PUSH2 0x100 EXP DUP2 SLOAD DUP2 PUSH1 0xFF MUL NOT AND SWAP1 DUP4 ISZERO ISZERO MUL OR SWAP1 SSTORE POP PUSH2 0x678 DUP3 PUSH0 PUSH2 0x1668 JUMP JUMPDEST PUSH1 0x3 PUSH0 SWAP1 SLOAD SWAP1 PUSH2 0x100 EXP SWAP1 DIV PUSH20 0xFFFFFFFFFFFFFFFFFFFFFFFFFFFFFFFFFFFFFFFF AND PUSH20 0xFFFFFFFFFFFFFFFFFFFFFFFFFFFFFFFFFFFFFFFF AND PUSH4 0x1FEA5A6B DUP4 PUSH1 0x40 MLOAD DUP3 PUSH4 0xFFFFFFFF AND PUSH1 0xE0 SHL DUP2 MSTORE PUSH1 0x4 ADD PUSH2 0x6D2 SWAP2 SWAP1 PUSH2 0x1BAC JUMP JUMPDEST PUSH0 PUSH1 0x40 MLOAD DUP1 DUP4 SUB DUP2 PUSH0 DUP8 DUP1 EXTCODESIZE ISZERO DUP1 ISZERO PUSH2 0x6E9 JUMPI PUSH0 DUP1 REVERT JUMPDEST POP GAS CALL ISZERO DUP1 ISZERO PUSH2 0x6FB JUMPI RETURNDATASIZE PUSH0 DUP1 RETURNDATACOPY RETURNDATASIZE PUSH0 REVERT JUMPDEST POP POP POP POP DUP2 PUSH20 0xFFFFFFFFFFFFFFFFFFFFFFFFFFFFFFFFFFFFFFFF AND PUSH32 0xBE253503C49F8FB02046DA3EF57BC2F5F881EB14BA5C2C26B54BF2FB4E7DB07 DUP3 PUSH1 0x3 ADD SLOAD PUSH1 0x40 MLOAD PUSH2 0x749 SWAP2 SWAP1 PUSH2 0x1B1C JUMP JUMPDEST PUSH1 0x40 MLOAD DUP1 SWAP2 SUB SWAP1 LOG2 POP PUSH2 0x75A PUSH2 0x171D JUMP JUMPDEST POP JUMP JUMPDEST PUSH2 0x765 PUSH2 0x159D JUMP JUMPDEST PUSH0 PUSH1 0x9 PUSH0 DUP5 PUSH20 0xFFFFFFFFFFFFFFFFFFFFFFFFFFFFFFFFFFFFFFFF AND PUSH20 0xFFFFFFFFFFFFFFFFFFFFFFFFFFFFFFFFFFFFFFFF AND DUP2 MSTORE PUSH1 0x20 ADD SWAP1 DUP2 MSTORE PUSH1 0x20 ADD PUSH0 KECCAK256 SWAP1 POP PUSH0 DUP2 PUSH0 ADD SLOAD GT PUSH2 0x7EA JUMPI PUSH1 0x40 MLOAD PUSH32 0x8C379A000000000000000000000000000000000000000000000000000000000 DUP2 MSTORE PUSH1 0x4 ADD PUSH2 0x7E1 SWAP1 PUSH2 0x1E65 JUMP JUMPDEST PUSH1 0x40 MLOAD DUP1 SWAP2 SUB SWAP1 REVERT JUMPDEST DUP2 DUP2 PUSH1 0x2 ADD PUSH0 DUP3 DUP3 SLOAD PUSH2 0x7FD SWAP2 SWAP1 PUSH2 0x1EB0 JUMP JUMPDEST SWAP3 POP POP DUP2 SWAP1 SSTORE POP POP POP POP JUMP JUMPDEST PUSH1 0x3 PUSH0 SWAP1 SLOAD SWAP1 PUSH2 0x100 EXP SWAP1 DIV PUSH20 0xFFFFFFFFFFFFFFFFFFFFFFFFFFFFFFFFFFFFFFFF AND DUP2 JUMP JUMPDEST PUSH1 0x5 SLOAD DUP2 JUMP JUMPDEST PUSH2 0x83C PUSH2 0x159D JUMP JUMPDEST PUSH2 0x844 PUSH2 0x1726 JUMP JUMPDEST PUSH32 0x15DE7AD89D29FD1C6D2E6B1E878453569B4080EDF34E0105FAAA3BD52F018530 PUSH1 0x40 MLOAD PUSH1 0x40 MLOAD DUP1 SWAP2 SUB SWAP1 LOG1 JUMP JUMPDEST PUSH1 0xA PUSH1 0x20 MSTORE DUP1 PUSH0 MSTORE PUSH1 0x40 PUSH0 KECCAK256 PUSH0 SWAP2 POP SWAP1 POP DUP1 PUSH0 ADD SLOAD SWAP1 DUP1 PUSH1 0x1 ADD SLOAD SWAP1 DUP1 PUSH1 0x2 ADD SLOAD SWAP1 POP DUP4 JUMP JUMPDEST PUSH0 PUSH1 0x1 PUSH1 0x14 SWAP1 SLOAD SWAP1 PUSH2 0x100 EXP SWAP1 DIV PUSH1 0xFF AND SWAP1 POP SWAP1 JUMP JUMPDEST PUSH0 DUP1 PUSH1 0x9 PUSH0 DUP5 PUSH20 0xFFFFFFFFFFFFFFFFFFFFFFFFFFFFFFFFFFFFFFFF AND PUSH20 0xFFFFFFFFFFFFFFFFFFFFFFFFFFFFFFFFFFFFFFFF AND DUP2 MSTORE PUSH1 0x20 ADD SWAP1 DUP2 MSTORE PUSH1 0x20 ADD PUSH0 KECCAK256 PUSH1 0x40 MLOAD DUP1 PUSH1 0xE0 ADD PUSH1 0x40 MSTORE SWAP1 DUP2 PUSH0 DUP3 ADD SLOAD DUP2 MSTORE PUSH1 0x20 ADD PUSH1 0x1 DUP3 ADD SLOAD DUP2 MSTORE PUSH1 0x20 ADD PUSH1 0x2 DUP3 ADD SLOAD DUP2 MSTORE PUSH1 0x20 ADD PUSH1 0x3 DUP3 ADD SLOAD DUP2 MSTORE PUSH1 0x20 ADD PUSH1 0x4 DUP3 ADD SLOAD DUP2 MSTORE PUSH1 0x20 ADD PUSH1 0x5 DUP3 ADD PUSH0 SWAP1 SLOAD SWAP1 PUSH2 0x100 EXP SWAP1 DIV PUSH1 0xFF AND ISZERO ISZERO ISZERO ISZERO DUP2 MSTORE PUSH1 0x20 ADD PUSH1 0x5 DUP3 ADD PUSH1 0x1 SWAP1 SLOAD SWAP1 PUSH2 0x100 EXP SWAP1 DIV PUSH1 0xFF AND ISZERO ISZERO ISZERO ISZERO DUP2 MSTORE POP POP SWAP1 POP PUSH0 DUP2 PUSH1 0x40 ADD MLOAD TIMESTAMP PUSH2 0x971 SWAP2 SWAP1 PUSH2 0x1F71 JUMP JUMPDEST SWAP1 POP PUSH0 PUSH4 0xBBF81E00 DUP3 DUP5 PUSH1 0x20 ADD MLOAD DUP6 PUSH0 ADD MLOAD PUSH2 0x98D SWAP2 SWAP1 PUSH2 0x1FA4 JUMP JUMPDEST PUSH2 0x997 SWAP2 SWAP1 PUSH2 0x1FA4 JUMP JUMPDEST PUSH2 0x9A1 SWAP2 SWAP1 PUSH2 0x2012 JUMP JUMPDEST SWAP1 POP DUP1 DUP4 PUSH0 ADD MLOAD PUSH2 0x9B2 SWAP2 SWAP1 PUSH2 0x1EB0 JUMP JUMPDEST SWAP4 POP POP POP POP SWAP2 SWAP1 POP JUMP JUMPDEST PUSH1 0x4 SLOAD DUP2 JUMP JUMPDEST PUSH2 0x9CA PUSH2 0x159D JUMP JUMPDEST PUSH2 0x9D3 PUSH0 PUSH2 0x1788 JUMP JUMPDEST JUMP JUMPDEST PUSH2 0x9DD PUSH2 0x159D JUMP JUMPDEST PUSH2 0x9E5 PUSH2 0x184B JUMP JUMPDEST PUSH32 0x4CB3183D0BF66F9634B15CFC3539FDDDC96C2C9324848AF89B56586A6739FEC4 PUSH1 0x40 MLOAD PUSH1 0x40 MLOAD DUP1 SWAP2 SUB SWAP1 LOG1 JUMP JUMPDEST PUSH0 PUSH1 0x1 PUSH0 SWAP1 SLOAD SWAP1 PUSH2 0x100 EXP SWAP1 DIV PUSH20 0xFFFFFFFFFFFFFFFFFFFFFFFFFFFFFFFFFFFFFFFF AND SWAP1 POP SWAP1 JUMP JUMPDEST PUSH2 0xA43 PUSH2 0x159D JUMP JUMPDEST PUSH2 0xA4B PUSH2 0x18AD JUMP JUMPDEST PUSH0 PUSH1 0x9 PUSH0 DUP4 PUSH20 0xFFFFFFFFFFFFFFFFFFFFFFFFFFFFFFFFFFFFFFFF AND PUSH20 0xFFFFFFFFFFFFFFFFFFFFFFFFFFFFFFFFFFFFFFFF AND DUP2 MSTORE PUSH1 0x20 ADD SWAP1 DUP2 MSTORE PUSH1 0x20 ADD PUSH0 KECCAK256 SWAP1 POP PUSH0 DUP2 PUSH0 ADD SLOAD GT PUSH2 0xAD0 JUMPI PUSH1 0x40 MLOAD PUSH32 0x8C379A000000000000000000000000000000000000000000000000000000000 DUP2 MSTORE PUSH1 0x4 ADD PUSH2 0xAC7 SWAP1 PUSH2 0x20B2 JUMP JUMPDEST PUSH1 0x40 MLOAD DUP1 SWAP2 SUB SWAP1 REVERT JUMPDEST PUSH1 0x2 PUSH0 SWAP1 SLOAD SWAP1 PUSH2 0x100 EXP SWAP1 DIV PUSH20 0xFFFFFFFFFFFFFFFFFFFFFFFFFFFFFFFFFFFFFFFF AND PUSH20 0xFFFFFFFFFFFFFFFFFFFFFFFFFFFFFFFFFFFFFFFF AND PUSH4 0xA9059CBB DUP4 DUP4 PUSH0 ADD SLOAD PUSH1 0x40 MLOAD DUP4 PUSH4 0xFFFFFFFF AND PUSH1 0xE0 SHL DUP2 MSTORE PUSH1 0x4 ADD PUSH2 0xB2F SWAP3 SWAP2 SWAP1 PUSH2 0x1D8F JUMP JUMPDEST PUSH1 0x20 PUSH1 0x40 MLOAD DUP1 DUP4 SUB DUP2 PUSH0 DUP8 GAS CALL ISZERO DUP1 ISZERO PUSH2 0xB4B JUMPI RETURNDATASIZE PUSH0 DUP1 RETURNDATACOPY RETURNDATASIZE PUSH0 REVERT JUMPDEST POP POP POP POP PUSH1 0x40 MLOAD RETURNDATASIZE PUSH1 0x1F NOT PUSH1 0x1F DUP3 ADD AND DUP3 ADD DUP1 PUSH1 0x40 MSTORE POP DUP2 ADD SWAP1 PUSH2 0xB6F SWAP2 SWAP1 PUSH2 0x1DE0 JUMP JUMPDEST PUSH2 0xBAE JUMPI PUSH1 0x40 MLOAD PUSH32 0x8C379A000000000000000000000000000000000000000000000000000000000 DUP2 MSTORE PUSH1 0x4 ADD PUSH2 0xBA5 SWAP1 PUSH2 0x2140 JUMP JUMPDEST PUSH1 0x40 MLOAD DUP1 SWAP2 SUB SWAP1 REVERT JUMPDEST DUP2 PUSH20 0xFFFFFFFFFFFFFFFFFFFFFFFFFFFFFFFFFFFFFFFF AND PUSH32 0x1C793C0FDA4A6B2B79DD68D91D9F7FDE8F7AA0878615C36A4624E6CCDBB1EAD1 DUP3 PUSH0 ADD SLOAD DUP4 PUSH1 0x3 ADD SLOAD PUSH1 0x40 MLOAD PUSH2 0xBFD SWAP3 SWAP2 SWAP1 PUSH2 0x215E JUMP JUMPDEST PUSH1 0x40 MLOAD DUP1 SWAP2 SUB SWAP1 LOG2 POP POP JUMP JUMPDEST PUSH2 0xC11 PUSH2 0x1624 JUMP JUMPDEST PUSH2 0xC19 PUSH2 0x18AD JUMP JUMPDEST PUSH0 DUP3 GT PUSH2 0xC5B JUMPI PUSH1 0x40 MLOAD PUSH32 0x8C379A000000000000000000000000000000000000000000000000000000000 DUP2 MSTORE PUSH1 0x4 ADD PUSH2 0xC52 SWAP1 PUSH2 0x21F5 JUMP JUMPDEST PUSH1 0x40 MLOAD DUP1 SWAP2 SUB SWAP1 REVERT JUMPDEST PUSH0 PUSH1 0x9 PUSH0 CALLER PUSH20 0xFFFFFFFFFFFFFFFFFFFFFFFFFFFFFFFFFFFFFFFF AND PUSH20 0xFFFFFFFFFFFFFFFFFFFFFFFFFFFFFFFFFFFFFFFF AND DUP2 MSTORE PUSH1 0x20 ADD SWAP1 DUP2 MSTORE PUSH1 0x20 ADD PUSH0 KECCAK256 PUSH0 ADD SLOAD EQ PUSH2 0xCDC JUMPI PUSH1 0x40 MLOAD PUSH32 0x8C379A000000000000000000000000000000000000000000000000000000000 DUP2 MSTORE PUSH1 0x4 ADD PUSH2 0xCD3 SWAP1 PUSH2 0x2283 JUMP JUMPDEST PUSH1 0x40 MLOAD DUP1 SWAP2 SUB SWAP1 REVERT JUMPDEST PUSH0 DUP1 PUSH1 0x3 PUSH0 SWAP1 SLOAD SWAP1 PUSH2 0x100 EXP SWAP1 DIV PUSH20 0xFFFFFFFFFFFFFFFFFFFFFFFFFFFFFFFFFFFFFFFF AND PUSH20 0xFFFFFFFFFFFFFFFFFFFFFFFFFFFFFFFFFFFFFFFF AND PUSH4 0x2703EE85 CALLER PUSH1 0x40 MLOAD DUP3 PUSH4 0xFFFFFFFF AND PUSH1 0xE0 SHL DUP2 MSTORE PUSH1 0x4 ADD PUSH2 0xD38 SWAP2 SWAP1 PUSH2 0x1BAC JUMP JUMPDEST PUSH1 0x40 DUP1 MLOAD DUP1 DUP4 SUB DUP2 DUP7 GAS STATICCALL ISZERO DUP1 ISZERO PUSH2 0xD52 JUMPI RETURNDATASIZE PUSH0 DUP1 RETURNDATACOPY RETURNDATASIZE PUSH0 REVERT JUMPDEST POP POP POP POP PUSH1 0x40 MLOAD RETURNDATASIZE PUSH1 0x1F NOT PUSH1 0x1F DUP3 ADD AND DUP3 ADD DUP1 PUSH1 0x40 MSTORE POP DUP2 ADD SWAP1 PUSH2 0xD76 SWAP2 SWAP1 PUSH2 0x22A1 JUMP JUMPDEST SWAP2 POP SWAP2 POP PUSH0 PUSH2 0xD83 PUSH2 0x406 JUMP JUMPDEST SWAP1 POP PUSH0 PUSH2 0xD8E PUSH2 0x147C JUMP JUMPDEST SWAP1 POP PUSH0 PUSH8 0xDE0B6B3A7640000 DUP4 DUP7 PUSH2 0xDA6 SWAP2 SWAP1 PUSH2 0x1FA4 JUMP JUMPDEST PUSH2 0xDB0 SWAP2 SWAP1 PUSH2 0x2012 JUMP JUMPDEST SWAP1 POP PUSH0 PUSH8 0xDE0B6B3A7640000 DUP4 DUP7 PUSH2 0xDC8 SWAP2 SWAP1 PUSH2 0x1FA4 JUMP JUMPDEST PUSH2 0xDD2 SWAP2 SWAP1 PUSH2 0x2012 JUMP JUMPDEST SWAP1 POP PUSH0 DUP2 DUP4 PUSH2 0xDE1 SWAP2 SWAP1 PUSH2 0x1EB0 JUMP JUMPDEST SWAP1 POP PUSH0 PUSH1 0x96 SWAP1 POP PUSH0 DUP2 PUSH8 0xDE0B6B3A7640000 DUP5 PUSH2 0xDFE SWAP2 SWAP1 PUSH2 0x1FA4 JUMP JUMPDEST PUSH2 0xE08 SWAP2 SWAP1 PUSH2 0x2012 JUMP JUMPDEST SWAP1 POP PUSH1 0x64 DUP3 DUP13 PUSH2 0xE18 SWAP2 SWAP1 PUSH2 0x1FA4 JUMP JUMPDEST PUSH2 0xE22 SWAP2 SWAP1 PUSH2 0x2012 JUMP JUMPDEST DUP2 LT ISZERO PUSH2 0xE64 JUMPI PUSH1 0x40 MLOAD PUSH32 0x8C379A000000000000000000000000000000000000000000000000000000000 DUP2 MSTORE PUSH1 0x4 ADD PUSH2 0xE5B SWAP1 PUSH2 0x234F JUMP JUMPDEST PUSH1 0x40 MLOAD DUP1 SWAP2 SUB SWAP1 REVERT JUMPDEST PUSH0 PUSH1 0x40 MLOAD DUP1 PUSH1 0xE0 ADD PUSH1 0x40 MSTORE DUP1 DUP14 DUP2 MSTORE PUSH1 0x20 ADD PUSH0 DUP14 GT PUSH2 0xE85 JUMPI PUSH1 0x6 SLOAD PUSH2 0xE87 JUMP JUMPDEST DUP13 JUMPDEST DUP2 MSTORE PUSH1 0x20 ADD TIMESTAMP DUP2 MSTORE PUSH1 0x20 ADD DUP6 DUP2 MSTORE PUSH1 0x20 ADD DUP5 DUP2 MSTORE PUSH1 0x20 ADD PUSH0 ISZERO ISZERO DUP2 MSTORE PUSH1 0x20 ADD PUSH0 ISZERO ISZERO DUP2 MSTORE POP SWAP1 POP DUP1 PUSH1 0x9 PUSH0 CALLER PUSH20 0xFFFFFFFFFFFFFFFFFFFFFFFFFFFFFFFFFFFFFFFF AND PUSH20 0xFFFFFFFFFFFFFFFFFFFFFFFFFFFFFFFFFFFFFFFF AND DUP2 MSTORE PUSH1 0x20 ADD SWAP1 DUP2 MSTORE PUSH1 0x20 ADD PUSH0 KECCAK256 PUSH0 DUP3 ADD MLOAD DUP2 PUSH0 ADD SSTORE PUSH1 0x20 DUP3 ADD MLOAD DUP2 PUSH1 0x1 ADD SSTORE PUSH1 0x40 DUP3 ADD MLOAD DUP2 PUSH1 0x2 ADD SSTORE PUSH1 0x60 DUP3 ADD MLOAD DUP2 PUSH1 0x3 ADD SSTORE PUSH1 0x80 DUP3 ADD MLOAD DUP2 PUSH1 0x4 ADD SSTORE PUSH1 0xA0 DUP3 ADD MLOAD DUP2 PUSH1 0x5 ADD PUSH0 PUSH2 0x100 EXP DUP2 SLOAD DUP2 PUSH1 0xFF MUL NOT AND SWAP1 DUP4 ISZERO ISZERO MUL OR SWAP1 SSTORE POP PUSH1 0xC0 DUP3 ADD MLOAD DUP2 PUSH1 0x5 ADD PUSH1 0x1 PUSH2 0x100 EXP DUP2 SLOAD DUP2 PUSH1 0xFF MUL NOT AND SWAP1 DUP4 ISZERO ISZERO MUL OR SWAP1 SSTORE POP SWAP1 POP POP CALLER PUSH20 0xFFFFFFFFFFFFFFFFFFFFFFFFFFFFFFFFFFFFFFFF AND PUSH32 0x7468760830AFF5679376E50470C0493D21C88C599388E89B08C9512B3F3FBC7D DUP14 DUP7 PUSH1 0x40 MLOAD PUSH2 0xFA6 SWAP3 SWAP2 SWAP1 PUSH2 0x215E JUMP JUMPDEST PUSH1 0x40 MLOAD DUP1 SWAP2 SUB SWAP1 LOG2 POP POP POP POP POP POP POP POP POP POP PUSH2 0xFC0 PUSH2 0x171D JUMP JUMPDEST POP POP JUMP JUMPDEST PUSH2 0xFCC PUSH2 0x1624 JUMP JUMPDEST PUSH2 0xFD4 PUSH2 0x18AD JUMP JUMPDEST PUSH0 PUSH1 0x9 PUSH0 CALLER PUSH20 0xFFFFFFFFFFFFFFFFFFFFFFFFFFFFFFFFFFFFFFFF AND PUSH20 0xFFFFFFFFFFFFFFFFFFFFFFFFFFFFFFFFFFFFFFFF AND DUP2 MSTORE PUSH1 0x20 ADD SWAP1 DUP2 MSTORE PUSH1 0x20 ADD PUSH0 KECCAK256 SWAP1 POP PUSH0 DUP2 PUSH0 ADD SLOAD GT PUSH2 0x1059 JUMPI PUSH1 0x40 MLOAD PUSH32 0x8C379A000000000000000000000000000000000000000000000000000000000 DUP2 MSTORE PUSH1 0x4 ADD PUSH2 0x1050 SWAP1 PUSH2 0x1E65 JUMP JUMPDEST PUSH1 0x40 MLOAD DUP1 SWAP2 SUB SWAP1 REVERT JUMPDEST DUP1 PUSH1 0x5 ADD PUSH0 SWAP1 SLOAD SWAP1 PUSH2 0x100 EXP SWAP1 DIV PUSH1 0xFF AND ISZERO PUSH2 0x10AA JUMPI PUSH1 0x40 MLOAD PUSH32 0x8C379A000000000000000000000000000000000000000000000000000000000 DUP2 MSTORE PUSH1 0x4 ADD PUSH2 0x10A1 SWAP1 PUSH2 0x23DD JUMP JUMPDEST PUSH1 0x40 MLOAD DUP1 SWAP2 SUB SWAP1 REVERT JUMPDEST PUSH0 PUSH2 0x10B4 CALLER PUSH2 0x8AE JUMP JUMPDEST SWAP1 POP DUP1 DUP4 LT ISZERO PUSH2 0x10F9 JUMPI PUSH1 0x40 MLOAD PUSH32 0x8C379A000000000000000000000000000000000000000000000000000000000 DUP2 MSTORE PUSH1 0x4 ADD PUSH2 0x10F0 SWAP1 PUSH2 0x246B JUMP JUMPDEST PUSH1 0x40 MLOAD DUP1 SWAP2 SUB SWAP1 REVERT JUMPDEST PUSH1 0x2 PUSH0 SWAP1 SLOAD SWAP1 PUSH2 0x100 EXP SWAP1 DIV PUSH20 0xFFFFFFFFFFFFFFFFFFFFFFFFFFFFFFFFFFFFFFFF AND PUSH20 0xFFFFFFFFFFFFFFFFFFFFFFFFFFFFFFFFFFFFFFFF AND PUSH4 0x23B872DD CALLER ADDRESS DUP7 PUSH1 0x40 MLOAD DUP5 PUSH4 0xFFFFFFFF AND PUSH1 0xE0 SHL DUP2 MSTORE PUSH1 0x4 ADD PUSH2 0x1157 SWAP4 SWAP3 SWAP2 SWAP1 PUSH2 0x2489 JUMP JUMPDEST PUSH1 0x20 PUSH1 0x40 MLOAD DUP1 DUP4 SUB DUP2 PUSH0 DUP8 GAS CALL ISZERO DUP1 ISZERO PUSH2 0x1173 JUMPI RETURNDATASIZE PUSH0 DUP1 RETURNDATACOPY RETURNDATASIZE PUSH0 REVERT JUMPDEST POP POP POP POP PUSH1 0x40 MLOAD RETURNDATASIZE PUSH1 0x1F NOT PUSH1 0x1F DUP3 ADD AND DUP3 ADD DUP1 PUSH1 0x40 MSTORE POP DUP2 ADD SWAP1 PUSH2 0x1197 SWAP2 SWAP1 PUSH2 0x1DE0 JUMP JUMPDEST PUSH2 0x11D6 JUMPI PUSH1 0x40 MLOAD PUSH32 0x8C379A000000000000000000000000000000000000000000000000000000000 DUP2 MSTORE PUSH1 0x4 ADD PUSH2 0x11CD SWAP1 PUSH2 0x252E JUMP JUMPDEST PUSH1 0x40 MLOAD DUP1 SWAP2 SUB SWAP1 REVERT JUMPDEST PUSH1 0x1 DUP3 PUSH1 0x5 ADD PUSH0 PUSH2 0x100 EXP DUP2 SLOAD DUP2 PUSH1 0xFF MUL NOT AND SWAP1 DUP4 ISZERO ISZERO MUL OR SWAP1 SSTORE POP PUSH2 0x11FD CALLER PUSH1 0x1 PUSH2 0x1668 JUMP JUMPDEST PUSH1 0x3 PUSH0 SWAP1 SLOAD SWAP1 PUSH2 0x100 EXP SWAP1 DIV PUSH20 0xFFFFFFFFFFFFFFFFFFFFFFFFFFFFFFFFFFFFFFFF AND PUSH20 0xFFFFFFFFFFFFFFFFFFFFFFFFFFFFFFFFFFFFFFFF AND PUSH4 0x192E7A7B CALLER PUSH1 0x40 MLOAD DUP3 PUSH4 0xFFFFFFFF AND PUSH1 0xE0 SHL DUP2 MSTORE PUSH1 0x4 ADD PUSH2 0x1257 SWAP2 SWAP1 PUSH2 0x1BAC JUMP JUMPDEST PUSH0 PUSH1 0x40 MLOAD DUP1 DUP4 SUB DUP2 PUSH0 DUP8 DUP1 EXTCODESIZE ISZERO DUP1 ISZERO PUSH2 0x126E JUMPI PUSH0 DUP1 REVERT JUMPDEST POP GAS CALL ISZERO DUP1 ISZERO PUSH2 0x1280 JUMPI RETURNDATASIZE PUSH0 DUP1 RETURNDATACOPY RETURNDATASIZE PUSH0 REVERT JUMPDEST POP POP POP POP CALLER PUSH20 0xFFFFFFFFFFFFFFFFFFFFFFFFFFFFFFFFFFFFFFFF AND PUSH32 0xC7CE0A35F17B490DE2A317E7FECB2CAE86B1ABFFB03800B2F492823521382698 DUP4 PUSH0 ADD SLOAD DUP5 PUSH1 0x3 ADD SLOAD PUSH1 0x40 MLOAD PUSH2 0x12D3 SWAP3 SWAP2 SWAP1 PUSH2 0x215E JUMP JUMPDEST PUSH1 0x40 MLOAD DUP1 SWAP2 SUB SWAP1 LOG2 POP POP PUSH2 0x12E5 PUSH2 0x171D JUMP JUMPDEST POP JUMP JUMPDEST PUSH1 0x6 SLOAD DUP2 JUMP JUMPDEST PUSH2 0x12F6 PUSH2 0x159D JUMP JUMPDEST PUSH1 0x2 PUSH0 SWAP1 SLOAD SWAP1 PUSH2 0x100 EXP SWAP1 DIV PUSH20 0xFFFFFFFFFFFFFFFFFFFFFFFFFFFFFFFFFFFFFFFF AND PUSH20 0xFFFFFFFFFFFFFFFFFFFFFFFFFFFFFFFFFFFFFFFF AND PUSH4 0x23B872DD CALLER ADDRESS DUP5 PUSH1 0x40 MLOAD DUP5 PUSH4 0xFFFFFFFF AND PUSH1 0xE0 SHL DUP2 MSTORE PUSH1 0x4 ADD PUSH2 0x1354 SWAP4 SWAP3 SWAP2 SWAP1 PUSH2 0x2489 JUMP JUMPDEST PUSH1 0x20 PUSH1 0x40 MLOAD DUP1 DUP4 SUB DUP2 PUSH0 DUP8 GAS CALL ISZERO DUP1 ISZERO PUSH2 0x1370 JUMPI RETURNDATASIZE PUSH0 DUP1 RETURNDATACOPY RETURNDATASIZE PUSH0 REVERT JUMPDEST POP POP POP POP PUSH1 0x40 MLOAD RETURNDATASIZE PUSH1 0x1F NOT PUSH1 0x1F DUP3 ADD AND DUP3 ADD DUP1 PUSH1 0x40 MSTORE POP DUP2 ADD SWAP1 PUSH2 0x1394 SWAP2 SWAP1 PUSH2 0x1DE0 JUMP JUMPDEST PUSH2 0x13D3 JUMPI PUSH1 0x40 MLOAD PUSH32 0x8C379A000000000000000000000000000000000000000000000000000000000 DUP2 MSTORE PUSH1 0x4 ADD PUSH2 0x13CA SWAP1 PUSH2 0x25BC JUMP JUMPDEST PUSH1 0x40 MLOAD DUP1 SWAP2 SUB SWAP1 REVERT JUMPDEST DUP1 PUSH1 0x4 PUSH0 DUP3 DUP3 SLOAD PUSH2 0x13E4 SWAP2 SWAP1 PUSH2 0x1EB0 JUMP JUMPDEST SWAP3 POP POP DUP2 SWAP1 SSTORE POP PUSH32 0xDFA1544D71975F6AAD289ACDBD6A695A0789ED2F94A3AA775D08D2BBC570AF6D DUP2 PUSH1 0x40 MLOAD PUSH2 0x141A SWAP2 SWAP1 PUSH2 0x1B1C JUMP JUMPDEST PUSH1 0x40 MLOAD DUP1 SWAP2 SUB SWAP1 LOG1 POP JUMP JUMPDEST PUSH1 0x9 PUSH1 0x20 MSTORE DUP1 PUSH0 MSTORE PUSH1 0x40 PUSH0 KECCAK256 PUSH0 SWAP2 POP SWAP1 POP DUP1 PUSH0 ADD SLOAD SWAP1 DUP1 PUSH1 0x1 ADD SLOAD SWAP1 DUP1 PUSH1 0x2 ADD SLOAD SWAP1 DUP1 PUSH1 0x3 ADD SLOAD SWAP1 DUP1 PUSH1 0x4 ADD SLOAD SWAP1 DUP1 PUSH1 0x5 ADD PUSH0 SWAP1 SLOAD SWAP1 PUSH2 0x100 EXP SWAP1 DIV PUSH1 0xFF AND SWAP1 DUP1 PUSH1 0x5 ADD PUSH1 0x1 SWAP1 SLOAD SWAP1 PUSH2 0x100 EXP SWAP1 DIV PUSH1 0xFF AND SWAP1 POP DUP8 JUMP JUMPDEST PUSH0 DUP1 PUSH1 0x8 PUSH0 SWAP1 SLOAD SWAP1 PUSH2 0x100 EXP SWAP1 DIV PUSH20 0xFFFFFFFFFFFFFFFFFFFFFFFFFFFFFFFFFFFFFFFF AND PUSH20 0xFFFFFFFFFFFFFFFFFFFFFFFFFFFFFFFFFFFFFFFF AND PUSH4 0xFEAF968C PUSH1 0x40 MLOAD DUP2 PUSH4 0xFFFFFFFF AND PUSH1 0xE0 SHL DUP2 MSTORE PUSH1 0x4 ADD PUSH1 0xA0 PUSH1 0x40 MLOAD DUP1 DUP4 SUB DUP2 DUP7 GAS STATICCALL ISZERO DUP1 ISZERO PUSH2 0x14E8 JUMPI RETURNDATASIZE PUSH0 DUP1 RETURNDATACOPY RETURNDATASIZE PUSH0 REVERT JUMPDEST POP POP POP POP PUSH1 0x40 MLOAD RETURNDATASIZE PUSH1 0x1F NOT PUSH1 0x1F DUP3 ADD AND DUP3 ADD DUP1 PUSH1 0x40 MSTORE POP DUP2 ADD SWAP1 PUSH2 0x150C SWAP2 SWAP1 PUSH2 0x1D18 JUMP JUMPDEST POP POP POP SWAP2 POP POP DUP1 SWAP2 POP POP SWAP1 JUMP JUMPDEST PUSH2 0x1521 PUSH2 0x159D JUMP JUMPDEST PUSH0 PUSH20 0xFFFFFFFFFFFFFFFFFFFFFFFFFFFFFFFFFFFFFFFF AND DUP2 PUSH20 0xFFFFFFFFFFFFFFFFFFFFFFFFFFFFFFFFFFFFFFFF AND SUB PUSH2 0x1591 JUMPI PUSH0 PUSH1 0x40 MLOAD PUSH32 0x1E4FBDF700000000000000000000000000000000000000000000000000000000 DUP2 MSTORE PUSH1 0x4 ADD PUSH2 0x1588 SWAP2 SWAP1 PUSH2 0x1BAC JUMP JUMPDEST PUSH1 0x40 MLOAD DUP1 SWAP2 SUB SWAP1 REVERT JUMPDEST PUSH2 0x159A DUP2 PUSH2 0x1788 JUMP JUMPDEST POP JUMP JUMPDEST PUSH2 0x15A5 PUSH2 0x18EE JUMP JUMPDEST PUSH20 0xFFFFFFFFFFFFFFFFFFFFFFFFFFFFFFFFFFFFFFFF AND PUSH2 0x15C3 PUSH2 0xA13 JUMP JUMPDEST PUSH20 0xFFFFFFFFFFFFFFFFFFFFFFFFFFFFFFFFFFFFFFFF AND EQ PUSH2 0x1622 JUMPI PUSH2 0x15E6 PUSH2 0x18EE JUMP JUMPDEST PUSH1 0x40 MLOAD PUSH32 0x118CDAA700000000000000000000000000000000000000000000000000000000 DUP2 MSTORE PUSH1 0x4 ADD PUSH2 0x1619 SWAP2 SWAP1 PUSH2 0x1BAC JUMP JUMPDEST PUSH1 0x40 MLOAD DUP1 SWAP2 SUB SWAP1 REVERT JUMPDEST JUMP JUMPDEST PUSH1 0x2 PUSH0 SLOAD SUB PUSH2 0x165F JUMPI PUSH1 0x40 MLOAD PUSH32 0x3EE5AEB500000000000000000000000000000000000000000000000000000000 DUP2 MSTORE PUSH1 0x4 ADD PUSH1 0x40 MLOAD DUP1 SWAP2 SUB SWAP1 REVERT JUMPDEST PUSH1 0x2 PUSH0 DUP2 SWAP1 SSTORE POP JUMP JUMPDEST PUSH0 PUSH1 0xA PUSH0 DUP5 PUSH20 0xFFFFFFFFFFFFFFFFFFFFFFFFFFFFFFFFFFFFFFFF AND PUSH20 0xFFFFFFFFFFFFFFFFFFFFFFFFFFFFFFFFFFFFFFFF AND DUP2 MSTORE PUSH1 0x20 ADD SWAP1 DUP2 MSTORE PUSH1 0x20 ADD PUSH0 KECCAK256 SWAP1 POP DUP2 ISZERO PUSH2 0x16CB JUMPI DUP1 PUSH0 ADD PUSH0 DUP2 SLOAD DUP1 SWAP3 SWAP2 SWAP1 PUSH2 0x16C1 SWAP1 PUSH2 0x25DA JUMP JUMPDEST SWAP2 SWAP1 POP SSTORE POP PUSH2 0x16E5 JUMP JUMPDEST DUP1 PUSH1 0x1 ADD PUSH0 DUP2 SLOAD DUP1 SWAP3 SWAP2 SWAP1 PUSH2 0x16DF SWAP1 PUSH2 0x25DA JUMP JUMPDEST SWAP2 SWAP1 POP SSTORE POP JUMPDEST PUSH1 0x5 DUP2 PUSH1 0x1 ADD SLOAD PUSH2 0x16F6 SWAP2 SWAP1 PUSH2 0x1FA4 JUMP JUMPDEST PUSH1 0xA DUP3 PUSH0 ADD SLOAD PUSH2 0x1706 SWAP2 SWAP1 PUSH2 0x1FA4 JUMP JUMPDEST PUSH2 0x1710 SWAP2 SWAP1 PUSH2 0x1F71 JUMP JUMPDEST DUP2 PUSH1 0x2 ADD DUP2 SWAP1 SSTORE POP POP POP POP JUMP JUMPDEST PUSH1 0x1 PUSH0 DUP2 SWAP1 SSTORE POP JUMP JUMPDEST PUSH2 0x172E PUSH2 0x18F5 JUMP JUMPDEST PUSH0 PUSH1 0x1 PUSH1 0x14 PUSH2 0x100 EXP DUP2 SLOAD DUP2 PUSH1 0xFF MUL NOT AND SWAP1 DUP4 ISZERO ISZERO MUL OR SWAP1 SSTORE POP PUSH32 0x5DB9EE0A495BF2E6FF9C91A7834C1BA4FDD244A5E8AA4E537BD38AEAE4B073AA PUSH2 0x1771 PUSH2 0x18EE JUMP JUMPDEST PUSH1 0x40 MLOAD PUSH2 0x177E SWAP2 SWAP1 PUSH2 0x1BAC JUMP JUMPDEST PUSH1 0x40 MLOAD DUP1 SWAP2 SUB SWAP1 LOG1 JUMP JUMPDEST PUSH0 PUSH1 0x1 PUSH0 SWAP1 SLOAD SWAP1 PUSH2 0x100 EXP SWAP1 DIV PUSH20 0xFFFFFFFFFFFFFFFFFFFFFFFFFFFFFFFFFFFFFFFF AND SWAP1 POP DUP2 PUSH1 0x1 PUSH0 PUSH2 0x100 EXP DUP2 SLOAD DUP2 PUSH20 0xFFFFFFFFFFFFFFFFFFFFFFFFFFFFFFFFFFFFFFFF MUL NOT AND SWAP1 DUP4 PUSH20 0xFFFFFFFFFFFFFFFFFFFFFFFFFFFFFFFFFFFFFFFF AND MUL OR SWAP1 SSTORE POP DUP2 PUSH20 0xFFFFFFFFFFFFFFFFFFFFFFFFFFFFFFFFFFFFFFFF AND DUP2 PUSH20 0xFFFFFFFFFFFFFFFFFFFFFFFFFFFFFFFFFFFFFFFF AND PUSH32 0x8BE0079C531659141344CD1FD0A4F28419497F9722A3DAAFE3B4186F6B6457E0 PUSH1 0x40 MLOAD PUSH1 0x40 MLOAD DUP1 SWAP2 SUB SWAP1 LOG3 POP POP JUMP JUMPDEST PUSH2 0x1853 PUSH2 0x18AD JUMP JUMPDEST PUSH1 0x1 DUP1 PUSH1 0x14 PUSH2 0x100 EXP DUP2 SLOAD DUP2 PUSH1 0xFF MUL NOT AND SWAP1 DUP4 ISZERO ISZERO MUL OR SWAP1 SSTORE POP PUSH32 0x62E78CEA01BEE320CD4E420270B5EA74000D11B0C9F74754EBDBFC544B05A258 PUSH2 0x1896 PUSH2 0x18EE JUMP JUMPDEST PUSH1 0x40 MLOAD PUSH2 0x18A3 SWAP2 SWAP1 PUSH2 0x1BAC JUMP JUMPDEST PUSH1 0x40 MLOAD DUP1 SWAP2 SUB SWAP1 LOG1 JUMP JUMPDEST PUSH2 0x18B5 PUSH2 0x898 JUMP JUMPDEST ISZERO PUSH2 0x18EC JUMPI PUSH1 0x40 MLOAD PUSH32 0xD93C066500000000000000000000000000000000000000000000000000000000 DUP2 MSTORE PUSH1 0x4 ADD PUSH1 0x40 MLOAD DUP1 SWAP2 SUB SWAP1 REVERT JUMPDEST JUMP JUMPDEST PUSH0 CALLER SWAP1 POP SWAP1 JUMP JUMPDEST PUSH2 0x18FD PUSH2 0x898 JUMP JUMPDEST PUSH2 0x1933 JUMPI PUSH1 0x40 MLOAD PUSH32 0x8DFC202B00000000000000000000000000000000000000000000000000000000 DUP2 MSTORE PUSH1 0x4 ADD PUSH1 0x40 MLOAD DUP1 SWAP2 SUB SWAP1 REVERT JUMPDEST JUMP JUMPDEST PUSH0 PUSH20 0xFFFFFFFFFFFFFFFFFFFFFFFFFFFFFFFFFFFFFFFF DUP3 AND SWAP1 POP SWAP2 SWAP1 POP JUMP JUMPDEST PUSH0 DUP2 SWAP1 POP SWAP2 SWAP1 POP JUMP JUMPDEST PUSH0 PUSH2 0x1977 PUSH2 0x1972 PUSH2 0x196D DUP5 PUSH2 0x1935 JUMP JUMPDEST PUSH2 0x1954 JUMP JUMPDEST PUSH2 0x1935 JUMP JUMPDEST SWAP1 POP SWAP2 SWAP1 POP JUMP JUMPDEST PUSH0 PUSH2 0x1988 DUP3 PUSH2 0x195D JUMP JUMPDEST SWAP1 POP SWAP2 SWAP1 POP JUMP JUMPDEST PUSH0 PUSH2 0x1999 DUP3 PUSH2 0x197E JUMP JUMPDEST SWAP1 POP SWAP2 SWAP1 POP JUMP JUMPDEST PUSH2 0x19A9 DUP2 PUSH2 0x198F JUMP JUMPDEST DUP3 MSTORE POP POP JUMP JUMPDEST PUSH0 PUSH1 0x20 DUP3 ADD SWAP1 POP PUSH2 0x19C2 PUSH0 DUP4 ADD DUP5 PUSH2 0x19A0 JUMP JUMPDEST SWAP3 SWAP2 POP POP JUMP JUMPDEST PUSH0 DUP2 SWAP1 POP SWAP2 SWAP1 POP JUMP JUMPDEST PUSH2 0x19DA DUP2 PUSH2 0x19C8 JUMP JUMPDEST DUP3 MSTORE POP POP JUMP JUMPDEST PUSH0 PUSH1 0x20 DUP3 ADD SWAP1 POP PUSH2 0x19F3 PUSH0 DUP4 ADD DUP5 PUSH2 0x19D1 JUMP JUMPDEST SWAP3 SWAP2 POP POP JUMP JUMPDEST PUSH0 DUP1 REVERT JUMPDEST PUSH0 PUSH2 0x1A07 DUP3 PUSH2 0x1935 JUMP JUMPDEST SWAP1 POP SWAP2 SWAP1 POP JUMP JUMPDEST PUSH2 0x1A17 DUP2 PUSH2 0x19FD JUMP JUMPDEST DUP2 EQ PUSH2 0x1A21 JUMPI PUSH0 DUP1 REVERT JUMPDEST POP JUMP JUMPDEST PUSH0 DUP2 CALLDATALOAD SWAP1 POP PUSH2 0x1A32 DUP2 PUSH2 0x1A0E JUMP JUMPDEST SWAP3 SWAP2 POP POP JUMP JUMPDEST PUSH0 PUSH1 0x20 DUP3 DUP5 SUB SLT ISZERO PUSH2 0x1A4D JUMPI PUSH2 0x1A4C PUSH2 0x19F9 JUMP JUMPDEST JUMPDEST PUSH0 PUSH2 0x1A5A DUP5 DUP3 DUP6 ADD PUSH2 0x1A24 JUMP JUMPDEST SWAP2 POP POP SWAP3 SWAP2 POP POP JUMP JUMPDEST PUSH0 DUP2 SWAP1 POP SWAP2 SWAP1 POP JUMP JUMPDEST PUSH2 0x1A75 DUP2 PUSH2 0x1A63 JUMP JUMPDEST DUP2 EQ PUSH2 0x1A7F JUMPI PUSH0 DUP1 REVERT JUMPDEST POP JUMP JUMPDEST PUSH0 DUP2 CALLDATALOAD SWAP1 POP PUSH2 0x1A90 DUP2 PUSH2 0x1A6C JUMP JUMPDEST SWAP3 SWAP2 POP POP JUMP JUMPDEST PUSH0 DUP1 PUSH1 0x40 DUP4 DUP6 SUB SLT ISZERO PUSH2 0x1AAC JUMPI PUSH2 0x1AAB PUSH2 0x19F9 JUMP JUMPDEST JUMPDEST PUSH0 PUSH2 0x1AB9 DUP6 DUP3 DUP7 ADD PUSH2 0x1A24 JUMP JUMPDEST SWAP3 POP POP PUSH1 0x20 PUSH2 0x1ACA DUP6 DUP3 DUP7 ADD PUSH2 0x1A82 JUMP JUMPDEST SWAP2 POP POP SWAP3 POP SWAP3 SWAP1 POP JUMP JUMPDEST PUSH0 PUSH2 0x1ADE DUP3 PUSH2 0x197E JUMP JUMPDEST SWAP1 POP SWAP2 SWAP1 POP JUMP JUMPDEST PUSH2 0x1AEE DUP2 PUSH2 0x1AD4 JUMP JUMPDEST DUP3 MSTORE POP POP JUMP JUMPDEST PUSH0 PUSH1 0x20 DUP3 ADD SWAP1 POP PUSH2 0x1B07 PUSH0 DUP4 ADD DUP5 PUSH2 0x1AE5 JUMP JUMPDEST SWAP3 SWAP2 POP POP JUMP JUMPDEST PUSH2 0x1B16 DUP2 PUSH2 0x1A63 JUMP JUMPDEST DUP3 MSTORE POP POP JUMP JUMPDEST PUSH0 PUSH1 0x20 DUP3 ADD SWAP1 POP PUSH2 0x1B2F PUSH0 DUP4 ADD DUP5 PUSH2 0x1B0D JUMP JUMPDEST SWAP3 SWAP2 POP POP JUMP JUMPDEST PUSH0 PUSH1 0x60 DUP3 ADD SWAP1 POP PUSH2 0x1B48 PUSH0 DUP4 ADD DUP7 PUSH2 0x1B0D JUMP JUMPDEST PUSH2 0x1B55 PUSH1 0x20 DUP4 ADD DUP6 PUSH2 0x1B0D JUMP JUMPDEST PUSH2 0x1B62 PUSH1 0x40 DUP4 ADD DUP5 PUSH2 0x1B0D JUMP JUMPDEST SWAP5 SWAP4 POP POP POP POP JUMP JUMPDEST PUSH0 DUP2 ISZERO ISZERO SWAP1 POP SWAP2 SWAP1 POP JUMP JUMPDEST PUSH2 0x1B7E DUP2 PUSH2 0x1B6A JUMP JUMPDEST DUP3 MSTORE POP POP JUMP JUMPDEST PUSH0 PUSH1 0x20 DUP3 ADD SWAP1 POP PUSH2 0x1B97 PUSH0 DUP4 ADD DUP5 PUSH2 0x1B75 JUMP JUMPDEST SWAP3 SWAP2 POP POP JUMP JUMPDEST PUSH2 0x1BA6 DUP2 PUSH2 0x19FD JUMP JUMPDEST DUP3 MSTORE POP POP JUMP JUMPDEST PUSH0 PUSH1 0x20 DUP3 ADD SWAP1 POP PUSH2 0x1BBF PUSH0 DUP4 ADD DUP5 PUSH2 0x1B9D JUMP JUMPDEST SWAP3 SWAP2 POP POP JUMP JUMPDEST PUSH0 DUP1 PUSH1 0x40 DUP4 DUP6 SUB SLT ISZERO PUSH2 0x1BDB JUMPI PUSH2 0x1BDA PUSH2 0x19F9 JUMP JUMPDEST JUMPDEST PUSH0 PUSH2 0x1BE8 DUP6 DUP3 DUP7 ADD PUSH2 0x1A82 JUMP JUMPDEST SWAP3 POP POP PUSH1 0x20 PUSH2 0x1BF9 DUP6 DUP3 DUP7 ADD PUSH2 0x1A82 JUMP JUMPDEST SWAP2 POP POP SWAP3 POP SWAP3 SWAP1 POP JUMP JUMPDEST PUSH0 PUSH1 0x20 DUP3 DUP5 SUB SLT ISZERO PUSH2 0x1C18 JUMPI PUSH2 0x1C17 PUSH2 0x19F9 JUMP JUMPDEST JUMPDEST PUSH0 PUSH2 0x1C25 DUP5 DUP3 DUP6 ADD PUSH2 0x1A82 JUMP JUMPDEST SWAP2 POP POP SWAP3 SWAP2 POP POP JUMP JUMPDEST PUSH0 PUSH1 0xE0 DUP3 ADD SWAP1 POP PUSH2 0x1C41 PUSH0 DUP4 ADD DUP11 PUSH2 0x1B0D JUMP JUMPDEST PUSH2 0x1C4E PUSH1 0x20 DUP4 ADD DUP10 PUSH2 0x1B0D JUMP JUMPDEST PUSH2 0x1C5B PUSH1 0x40 DUP4 ADD DUP9 PUSH2 0x1B0D JUMP JUMPDEST PUSH2 0x1C68 PUSH1 0x60 DUP4 ADD DUP8 PUSH2 0x1B0D JUMP JUMPDEST PUSH2 0x1C75 PUSH1 0x80 DUP4 ADD DUP7 PUSH2 0x1B0D JUMP JUMPDEST PUSH2 0x1C82 PUSH1 0xA0 DUP4 ADD DUP6 PUSH2 0x1B75 JUMP JUMPDEST PUSH2 0x1C8F PUSH1 0xC0 DUP4 ADD DUP5 PUSH2 0x1B75 JUMP JUMPDEST SWAP9 SWAP8 POP POP POP POP POP POP POP POP JUMP JUMPDEST PUSH0 PUSH10 0xFFFFFFFFFFFFFFFFFFFF DUP3 AND SWAP1 POP SWAP2 SWAP1 POP JUMP JUMPDEST PUSH2 0x1CB9 DUP2 PUSH2 0x1C9B JUMP JUMPDEST DUP2 EQ PUSH2 0x1CC3 JUMPI PUSH0 DUP1 REVERT JUMPDEST POP JUMP JUMPDEST PUSH0 DUP2 MLOAD SWAP1 POP PUSH2 0x1CD4 DUP2 PUSH2 0x1CB0 JUMP JUMPDEST SWAP3 SWAP2 POP POP JUMP JUMPDEST PUSH2 0x1CE3 DUP2 PUSH2 0x19C8 JUMP JUMPDEST DUP2 EQ PUSH2 0x1CED JUMPI PUSH0 DUP1 REVERT JUMPDEST POP JUMP JUMPDEST PUSH0 DUP2 MLOAD SWAP1 POP PUSH2 0x1CFE DUP2 PUSH2 0x1CDA JUMP JUMPDEST SWAP3 SWAP2 POP POP JUMP JUMPDEST PUSH0 DUP2 MLOAD SWAP1 POP PUSH2 0x1D12 DUP2 PUSH2 0x1A6C JUMP JUMPDEST SWAP3 SWAP2 POP POP JUMP JUMPDEST PUSH0 DUP1 PUSH0 DUP1 PUSH0 PUSH1 0xA0 DUP7 DUP9 SUB SLT ISZERO PUSH2 0x1D31 JUMPI PUSH2 0x1D30 PUSH2 0x19F9 JUMP JUMPDEST JUMPDEST PUSH0 PUSH2 0x1D3E DUP9 DUP3 DUP10 ADD PUSH2 0x1CC6 JUMP JUMPDEST SWAP6 POP POP PUSH1 0x20 PUSH2 0x1D4F DUP9 DUP3 DUP10 ADD PUSH2 0x1CF0 JUMP JUMPDEST SWAP5 POP POP PUSH1 0x40 PUSH2 0x1D60 DUP9 DUP3 DUP10 ADD PUSH2 0x1D04 JUMP JUMPDEST SWAP4 POP POP PUSH1 0x60 PUSH2 0x1D71 DUP9 DUP3 DUP10 ADD PUSH2 0x1D04 JUMP JUMPDEST SWAP3 POP POP PUSH1 0x80 PUSH2 0x1D82 DUP9 DUP3 DUP10 ADD PUSH2 0x1CC6 JUMP JUMPDEST SWAP2 POP POP SWAP3 SWAP6 POP SWAP3 SWAP6 SWAP1 SWAP4 POP JUMP JUMPDEST PUSH0 PUSH1 0x40 DUP3 ADD SWAP1 POP PUSH2 0x1DA2 PUSH0 DUP4 ADD DUP6 PUSH2 0x1B9D JUMP JUMPDEST PUSH2 0x1DAF PUSH1 0x20 DUP4 ADD DUP5 PUSH2 0x1B0D JUMP JUMPDEST SWAP4 SWAP3 POP POP POP JUMP JUMPDEST PUSH2 0x1DBF DUP2 PUSH2 0x1B6A JUMP JUMPDEST DUP2 EQ PUSH2 0x1DC9 JUMPI PUSH0 DUP1 REVERT JUMPDEST POP JUMP JUMPDEST PUSH0 DUP2 MLOAD SWAP1 POP PUSH2 0x1DDA DUP2 PUSH2 0x1DB6 JUMP JUMPDEST SWAP3 SWAP2 POP POP JUMP JUMPDEST PUSH0 PUSH1 0x20 DUP3 DUP5 SUB SLT ISZERO PUSH2 0x1DF5 JUMPI PUSH2 0x1DF4 PUSH2 0x19F9 JUMP JUMPDEST JUMPDEST PUSH0 PUSH2 0x1E02 DUP5 DUP3 DUP6 ADD PUSH2 0x1DCC JUMP JUMPDEST SWAP2 POP POP SWAP3 SWAP2 POP POP JUMP JUMPDEST PUSH0 DUP3 DUP3 MSTORE PUSH1 0x20 DUP3 ADD SWAP1 POP SWAP3 SWAP2 POP POP JUMP JUMPDEST PUSH32 0x4C6F616E4D616E616765723A204E6F20616374697665206C6F616E0000000000 PUSH0 DUP3 ADD MSTORE POP JUMP JUMPDEST PUSH0 PUSH2 0x1E4F PUSH1 0x1B DUP4 PUSH2 0x1E0B JUMP JUMPDEST SWAP2 POP PUSH2 0x1E5A DUP3 PUSH2 0x1E1B JUMP JUMPDEST PUSH1 0x20 DUP3 ADD SWAP1 POP SWAP2 SWAP1 POP JUMP JUMPDEST PUSH0 PUSH1 0x20 DUP3 ADD SWAP1 POP DUP2 DUP2 SUB PUSH0 DUP4 ADD MSTORE PUSH2 0x1E7C DUP2 PUSH2 0x1E43 JUMP JUMPDEST SWAP1 POP SWAP2 SWAP1 POP JUMP JUMPDEST PUSH32 0x4E487B7100000000000000000000000000000000000000000000000000000000 PUSH0 MSTORE PUSH1 0x11 PUSH1 0x4 MSTORE PUSH1 0x24 PUSH0 REVERT JUMPDEST PUSH0 PUSH2 0x1EBA DUP3 PUSH2 0x1A63 JUMP JUMPDEST SWAP2 POP PUSH2 0x1EC5 DUP4 PUSH2 0x1A63 JUMP JUMPDEST SWAP3 POP DUP3 DUP3 ADD SWAP1 POP DUP1 DUP3 GT ISZERO PUSH2 0x1EDD JUMPI PUSH2 0x1EDC PUSH2 0x1E83 JUMP JUMPDEST JUMPDEST SWAP3 SWAP2 POP POP JUMP JUMPDEST PUSH32 0x4C6F616E4D616E616765723A204C6F616E206E6F742064656661756C74656420 PUSH0 DUP3 ADD MSTORE PUSH32 0x7965740000000000000000000000000000000000000000000000000000000000 PUSH1 0x20 DUP3 ADD MSTORE POP JUMP JUMPDEST PUSH0 PUSH2 0x1F3D PUSH1 0x23 DUP4 PUSH2 0x1E0B JUMP JUMPDEST SWAP2 POP PUSH2 0x1F48 DUP3 PUSH2 0x1EE3 JUMP JUMPDEST PUSH1 0x40 DUP3 ADD SWAP1 POP SWAP2 SWAP1 POP JUMP JUMPDEST PUSH0 PUSH1 0x20 DUP3 ADD SWAP1 POP DUP2 DUP2 SUB PUSH0 DUP4 ADD MSTORE PUSH2 0x1F6A DUP2 PUSH2 0x1F31 JUMP JUMPDEST SWAP1 POP SWAP2 SWAP1 POP JUMP JUMPDEST PUSH0 PUSH2 0x1F7B DUP3 PUSH2 0x1A63 JUMP JUMPDEST SWAP2 POP PUSH2 0x1F86 DUP4 PUSH2 0x1A63 JUMP JUMPDEST SWAP3 POP DUP3 DUP3 SUB SWAP1 POP DUP2 DUP2 GT ISZERO PUSH2 0x1F9E JUMPI PUSH2 0x1F9D PUSH2 0x1E83 JUMP JUMPDEST JUMPDEST SWAP3 SWAP2 POP POP JUMP JUMPDEST PUSH0 PUSH2 0x1FAE DUP3 PUSH2 0x1A63 JUMP JUMPDEST SWAP2 POP PUSH2 0x1FB9 DUP4 PUSH2 0x1A63 JUMP JUMPDEST SWAP3 POP DUP3 DUP3 MUL PUSH2 0x1FC7 DUP2 PUSH2 0x1A63 JUMP JUMPDEST SWAP2 POP DUP3 DUP3 DIV DUP5 EQ DUP4 ISZERO OR PUSH2 0x1FDE JUMPI PUSH2 0x1FDD PUSH2 0x1E83 JUMP JUMPDEST JUMPDEST POP SWAP3 SWAP2 POP POP JUMP JUMPDEST PUSH32 0x4E487B7100000000000000000000000000000000000000000000000000000000 PUSH0 MSTORE PUSH1 0x12 PUSH1 0x4 MSTORE PUSH1 0x24 PUSH0 REVERT JUMPDEST PUSH0 PUSH2 0x201C DUP3 PUSH2 0x1A63 JUMP JUMPDEST SWAP2 POP PUSH2 0x2027 DUP4 PUSH2 0x1A63 JUMP JUMPDEST SWAP3 POP DUP3 PUSH2 0x2037 JUMPI PUSH2 0x2036 PUSH2 0x1FE5 JUMP JUMPDEST JUMPDEST DUP3 DUP3 DIV SWAP1 POP SWAP3 SWAP2 POP POP JUMP JUMPDEST PUSH32 0x4C6F616E4D616E616765723A204E6F206C6F616E207265717565737420666F75 PUSH0 DUP3 ADD MSTORE PUSH32 0x6E64000000000000000000000000000000000000000000000000000000000000 PUSH1 0x20 DUP3 ADD MSTORE POP JUMP JUMPDEST PUSH0 PUSH2 0x209C PUSH1 0x22 DUP4 PUSH2 0x1E0B JUMP JUMPDEST SWAP2 POP PUSH2 0x20A7 DUP3 PUSH2 0x2042 JUMP JUMPDEST PUSH1 0x40 DUP3 ADD SWAP1 POP SWAP2 SWAP1 POP JUMP JUMPDEST PUSH0 PUSH1 0x20 DUP3 ADD SWAP1 POP DUP2 DUP2 SUB PUSH0 DUP4 ADD MSTORE PUSH2 0x20C9 DUP2 PUSH2 0x2090 JUMP JUMPDEST SWAP1 POP SWAP2 SWAP1 POP JUMP JUMPDEST PUSH32 0x4C6F616E4D616E616765723A204C6F616E207472616E73666572206661696C65 PUSH0 DUP3 ADD MSTORE PUSH32 0x6400000000000000000000000000000000000000000000000000000000000000 PUSH1 0x20 DUP3 ADD MSTORE POP JUMP JUMPDEST PUSH0 PUSH2 0x212A PUSH1 0x21 DUP4 PUSH2 0x1E0B JUMP JUMPDEST SWAP2 POP PUSH2 0x2135 DUP3 PUSH2 0x20D0 JUMP JUMPDEST PUSH1 0x40 DUP3 ADD SWAP1 POP SWAP2 SWAP1 POP JUMP JUMPDEST PUSH0 PUSH1 0x20 DUP3 ADD SWAP1 POP DUP2 DUP2 SUB PUSH0 DUP4 ADD MSTORE PUSH2 0x2157 DUP2 PUSH2 0x211E JUMP JUMPDEST SWAP1 POP SWAP2 SWAP1 POP JUMP JUMPDEST PUSH0 PUSH1 0x40 DUP3 ADD SWAP1 POP PUSH2 0x2171 PUSH0 DUP4 ADD DUP6 PUSH2 0x1B0D JUMP JUMPDEST PUSH2 0x217E PUSH1 0x20 DUP4 ADD DUP5 PUSH2 0x1B0D JUMP JUMPDEST SWAP4 SWAP3 POP POP POP JUMP JUMPDEST PUSH32 0x4C6F616E4D616E616765723A204C6F616E20616D6F756E74206D757374206265 PUSH0 DUP3 ADD MSTORE PUSH32 0x2067726561746572207468616E20300000000000000000000000000000000000 PUSH1 0x20 DUP3 ADD MSTORE POP JUMP JUMPDEST PUSH0 PUSH2 0x21DF PUSH1 0x2F DUP4 PUSH2 0x1E0B JUMP JUMPDEST SWAP2 POP PUSH2 0x21EA DUP3 PUSH2 0x2185 JUMP JUMPDEST PUSH1 0x40 DUP3 ADD SWAP1 POP SWAP2 SWAP1 POP JUMP JUMPDEST PUSH0 PUSH1 0x20 DUP3 ADD SWAP1 POP DUP2 DUP2 SUB PUSH0 DUP4 ADD MSTORE PUSH2 0x220C DUP2 PUSH2 0x21D3 JUMP JUMPDEST SWAP1 POP SWAP2 SWAP1 POP JUMP JUMPDEST PUSH32 0x4C6F616E4D616E616765723A204578697374696E67206C6F616E206D75737420 PUSH0 DUP3 ADD MSTORE PUSH32 0x6265207265706169642066697273740000000000000000000000000000000000 PUSH1 0x20 DUP3 ADD MSTORE POP JUMP JUMPDEST PUSH0 PUSH2 0x226D PUSH1 0x2F DUP4 PUSH2 0x1E0B JUMP JUMPDEST SWAP2 POP PUSH2 0x2278 DUP3 PUSH2 0x2213 JUMP JUMPDEST PUSH1 0x40 DUP3 ADD SWAP1 POP SWAP2 SWAP1 POP JUMP JUMPDEST PUSH0 PUSH1 0x20 DUP3 ADD SWAP1 POP DUP2 DUP2 SUB PUSH0 DUP4 ADD MSTORE PUSH2 0x229A DUP2 PUSH2 0x2261 JUMP JUMPDEST SWAP1 POP SWAP2 SWAP1 POP JUMP JUMPDEST PUSH0 DUP1 PUSH1 0x40 DUP4 DUP6 SUB SLT ISZERO PUSH2 0x22B7 JUMPI PUSH2 0x22B6 PUSH2 0x19F9 JUMP JUMPDEST JUMPDEST PUSH0 PUSH2 0x22C4 DUP6 DUP3 DUP7 ADD PUSH2 0x1D04 JUMP JUMPDEST SWAP3 POP POP PUSH1 0x20 PUSH2 0x22D5 DUP6 DUP3 DUP7 ADD PUSH2 0x1D04 JUMP JUMPDEST SWAP2 POP POP SWAP3 POP SWAP3 SWAP1 POP JUMP JUMPDEST PUSH32 0x4C6F616E4D616E616765723A20496E73756666696369656E7420636F6C6C6174 PUSH0 DUP3 ADD MSTORE PUSH32 0x6572616C00000000000000000000000000000000000000000000000000000000 PUSH1 0x20 DUP3 ADD MSTORE POP JUMP JUMPDEST PUSH0 PUSH2 0x2339 PUSH1 0x24 DUP4 PUSH2 0x1E0B JUMP JUMPDEST SWAP2 POP PUSH2 0x2344 DUP3 PUSH2 0x22DF JUMP JUMPDEST PUSH1 0x40 DUP3 ADD SWAP1 POP SWAP2 SWAP1 POP JUMP JUMPDEST PUSH0 PUSH1 0x20 DUP3 ADD SWAP1 POP DUP2 DUP2 SUB PUSH0 DUP4 ADD MSTORE PUSH2 0x2366 DUP2 PUSH2 0x232D JUMP JUMPDEST SWAP1 POP SWAP2 SWAP1 POP JUMP JUMPDEST PUSH32 0x4C6F616E4D616E616765723A204C6F616E20697320616C726561647920726570 PUSH0 DUP3 ADD MSTORE PUSH32 0x6169640000000000000000000000000000000000000000000000000000000000 PUSH1 0x20 DUP3 ADD MSTORE POP JUMP JUMPDEST PUSH0 PUSH2 0x23C7 PUSH1 0x23 DUP4 PUSH2 0x1E0B JUMP JUMPDEST SWAP2 POP PUSH2 0x23D2 DUP3 PUSH2 0x236D JUMP JUMPDEST PUSH1 0x40 DUP3 ADD SWAP1 POP SWAP2 SWAP1 POP JUMP JUMPDEST PUSH0 PUSH1 0x20 DUP3 ADD SWAP1 POP DUP2 DUP2 SUB PUSH0 DUP4 ADD MSTORE PUSH2 0x23F4 DUP2 PUSH2 0x23BB JUMP JUMPDEST SWAP1 POP SWAP2 SWAP1 POP JUMP JUMPDEST PUSH32 0x4C6F616E4D616E616765723A20496E73756666696369656E742072657061796D PUSH0 DUP3 ADD MSTORE PUSH32 0x656E740000000000000000000000000000000000000000000000000000000000 PUSH1 0x20 DUP3 ADD MSTORE POP JUMP JUMPDEST PUSH0 PUSH2 0x2455 PUSH1 0x23 DUP4 PUSH2 0x1E0B JUMP JUMPDEST SWAP2 POP PUSH2 0x2460 DUP3 PUSH2 0x23FB JUMP JUMPDEST PUSH1 0x40 DUP3 ADD SWAP1 POP SWAP2 SWAP1 POP JUMP JUMPDEST PUSH0 PUSH1 0x20 DUP3 ADD SWAP1 POP DUP2 DUP2 SUB PUSH0 DUP4 ADD MSTORE PUSH2 0x2482 DUP2 PUSH2 0x2449 JUMP JUMPDEST SWAP1 POP SWAP2 SWAP1 POP JUMP JUMPDEST PUSH0 PUSH1 0x60 DUP3 ADD SWAP1 POP PUSH2 0x249C PUSH0 DUP4 ADD DUP7 PUSH2 0x1B9D JUMP JUMPDEST PUSH2 0x24A9 PUSH1 0x20 DUP4 ADD DUP6 PUSH2 0x1B9D JUMP JUMPDEST PUSH2 0x24B6 PUSH1 0x40 DUP4 ADD DUP5 PUSH2 0x1B0D JUMP JUMPDEST SWAP5 SWAP4 POP POP POP POP JUMP JUMPDEST PUSH32 0x4C6F616E4D616E616765723A2052657061796D656E74207472616E7366657220 PUSH0 DUP3 ADD MSTORE PUSH32 0x6661696C65640000000000000000000000000000000000000000000000000000 PUSH1 0x20 DUP3 ADD MSTORE POP JUMP JUMPDEST PUSH0 PUSH2 0x2518 PUSH1 0x26 DUP4 PUSH2 0x1E0B JUMP JUMPDEST SWAP2 POP PUSH2 0x2523 DUP3 PUSH2 0x24BE JUMP JUMPDEST PUSH1 0x40 DUP3 ADD SWAP1 POP SWAP2 SWAP1 POP JUMP JUMPDEST PUSH0 PUSH1 0x20 DUP3 ADD SWAP1 POP DUP2 DUP2 SUB PUSH0 DUP4 ADD MSTORE PUSH2 0x2545 DUP2 PUSH2 0x250C JUMP JUMPDEST SWAP1 POP SWAP2 SWAP1 POP JUMP JUMPDEST PUSH32 0x4C6F616E4D616E616765723A2046756E64207472616E73666572206661696C65 PUSH0 DUP3 ADD MSTORE PUSH32 0x6400000000000000000000000000000000000000000000000000000000000000 PUSH1 0x20 DUP3 ADD MSTORE POP JUMP JUMPDEST PUSH0 PUSH2 0x25A6 PUSH1 0x21 DUP4 PUSH2 0x1E0B JUMP JUMPDEST SWAP2 POP PUSH2 0x25B1 DUP3 PUSH2 0x254C JUMP JUMPDEST PUSH1 0x40 DUP3 ADD SWAP1 POP SWAP2 SWAP1 POP JUMP JUMPDEST PUSH0 PUSH1 0x20 DUP3 ADD SWAP1 POP DUP2 DUP2 SUB PUSH0 DUP4 ADD MSTORE PUSH2 0x25D3 DUP2 PUSH2 0x259A JUMP JUMPDEST SWAP1 POP SWAP2 SWAP1 POP JUMP JUMPDEST PUSH0 PUSH2 0x25E4 DUP3 PUSH2 0x1A63 JUMP JUMPDEST SWAP2 POP PUSH32 0xFFFFFFFFFFFFFFFFFFFFFFFFFFFFFFFFFFFFFFFFFFFFFFFFFFFFFFFFFFFFFFFF DUP3 SUB PUSH2 0x2616 JUMPI PUSH2 0x2615 PUSH2 0x1E83 JUMP JUMPDEST JUMPDEST PUSH1 0x1 DUP3 ADD SWAP1 POP SWAP2 SWAP1 POP JUMP INVALID LOG2 PUSH5 0x6970667358 0x22 SLT KECCAK256 EXTCODESIZE PUSH28 0x2C04B6A3BF92FB94EB0FCA39275745C3D8490FCAB77C7B1B6B01CD26 0x2E ADDRESS PUSH5 0x736F6C6343 STOP ADDMOD BYTE STOP CALLER "
				},
				"gasEstimates": {
					"creation": {
						"codeDepositCost": "1963000",
						"executionCost": "infinite",
						"totalCost": "infinite"
					},
					"external": {
						"addFunds(uint256)": "infinite",
						"baseInterestRate()": "2469",
						"cUSDToken()": "infinite",
						"calculateLoanWithInterest(address)": "infinite",
						"collateralManager()": "infinite",
						"defaultDuration()": "2470",
						"extendLoanDuration(address,uint256)": "infinite",
						"fundPool()": "2448",
						"getNativePrice()": "infinite",
						"getStablePrice()": "infinite",
						"issueLoan(address)": "infinite",
						"liquidateCollateral(address)": "infinite",
						"owner()": "2604",
						"pause()": "infinite",
						"paused()": "2635",
						"renounceOwnership()": "infinite",
						"repayLoan(uint256)": "infinite",
						"requestLoan(uint256,uint256)": "infinite",
						"returnFunds()": "infinite",
						"transferOwnership(address)": "infinite",
						"unpause()": "infinite",
						"userCreditScores(address)": "infinite",
						"userLoans(address)": "infinite"
					},
					"internal": {
						"updateUserCreditScore(address,bool)": "infinite"
					}
				},
				"methodIdentifiers": {
					"addFunds(uint256)": "be999705",
					"baseInterestRate()": "afd92762",
					"cUSDToken()": "0ea86ad8",
					"calculateLoanWithInterest(address)": "61cb6afd",
					"collateralManager()": "23be345c",
					"defaultDuration()": "2af7e2ea",
					"extendLoanDuration(address,uint256)": "22f9913e",
					"fundPool()": "70f37d27",
					"getNativePrice()": "17430c9e",
					"getStablePrice()": "ec9e0393",
					"issueLoan(address)": "900629e3",
					"liquidateCollateral(address)": "1fea5a6b",
					"owner()": "8da5cb5b",
					"pause()": "8456cb59",
					"paused()": "5c975abb",
					"renounceOwnership()": "715018a6",
					"repayLoan(uint256)": "ab7b1c89",
					"requestLoan(uint256,uint256)": "aa452fa6",
					"returnFunds()": "1eb5ea2e",
					"transferOwnership(address)": "f2fde38b",
					"unpause()": "3f4ba83a",
					"userCreditScores(address)": "449d31bb",
					"userLoans(address)": "e9e190a3"
				}
			},
			"storageLayout": {
				"storage": [
					{
						"astId": 1107,
						"contract": "contracts/LoanManagerV2.sol:MellowFinanceLoanManager",
						"label": "_status",
						"offset": 0,
						"slot": "0",
						"type": "t_uint256"
					},
					{
						"astId": 54,
						"contract": "contracts/LoanManagerV2.sol:MellowFinanceLoanManager",
						"label": "_owner",
						"offset": 0,
						"slot": "1",
						"type": "t_address"
					},
					{
						"astId": 988,
						"contract": "contracts/LoanManagerV2.sol:MellowFinanceLoanManager",
						"label": "_paused",
						"offset": 20,
						"slot": "1",
						"type": "t_bool"
					},
					{
						"astId": 1537,
						"contract": "contracts/LoanManagerV2.sol:MellowFinanceLoanManager",
						"label": "cUSDToken",
						"offset": 0,
						"slot": "2",
						"type": "t_contract(ERC20)845"
					},
					{
						"astId": 1540,
						"contract": "contracts/LoanManagerV2.sol:MellowFinanceLoanManager",
						"label": "collateralManager",
						"offset": 0,
						"slot": "3",
						"type": "t_contract(CollateralManager)1518"
					},
					{
						"astId": 1542,
						"contract": "contracts/LoanManagerV2.sol:MellowFinanceLoanManager",
						"label": "fundPool",
						"offset": 0,
						"slot": "4",
						"type": "t_uint256"
					},
					{
						"astId": 1545,
						"contract": "contracts/LoanManagerV2.sol:MellowFinanceLoanManager",
						"label": "defaultDuration",
						"offset": 0,
						"slot": "5",
						"type": "t_uint256"
					},
					{
						"astId": 1548,
						"contract": "contracts/LoanManagerV2.sol:MellowFinanceLoanManager",
						"label": "baseInterestRate",
						"offset": 0,
						"slot": "6",
						"type": "t_uint256"
					},
					{
						"astId": 1551,
						"contract": "contracts/LoanManagerV2.sol:MellowFinanceLoanManager",
						"label": "nativePriceFeed",
						"offset": 0,
						"slot": "7",
						"type": "t_contract(AggregatorV3Interface)45"
					},
					{
						"astId": 1554,
						"contract": "contracts/LoanManagerV2.sol:MellowFinanceLoanManager",
						"label": "stablePriceFeed",
						"offset": 0,
						"slot": "8",
						"type": "t_contract(AggregatorV3Interface)45"
					},
					{
						"astId": 1581,
						"contract": "contracts/LoanManagerV2.sol:MellowFinanceLoanManager",
						"label": "userLoans",
						"offset": 0,
						"slot": "9",
						"type": "t_mapping(t_address,t_struct(Loan)1569_storage)"
					},
					{
						"astId": 1586,
						"contract": "contracts/LoanManagerV2.sol:MellowFinanceLoanManager",
						"label": "userCreditScores",
						"offset": 0,
						"slot": "10",
						"type": "t_mapping(t_address,t_struct(UserCredit)1576_storage)"
					}
				],
				"types": {
					"t_address": {
						"encoding": "inplace",
						"label": "address",
						"numberOfBytes": "20"
					},
					"t_bool": {
						"encoding": "inplace",
						"label": "bool",
						"numberOfBytes": "1"
					},
					"t_contract(AggregatorV3Interface)45": {
						"encoding": "inplace",
						"label": "contract AggregatorV3Interface",
						"numberOfBytes": "20"
					},
					"t_contract(CollateralManager)1518": {
						"encoding": "inplace",
						"label": "contract CollateralManager",
						"numberOfBytes": "20"
					},
					"t_contract(ERC20)845": {
						"encoding": "inplace",
						"label": "contract ERC20",
						"numberOfBytes": "20"
					},
					"t_mapping(t_address,t_struct(Loan)1569_storage)": {
						"encoding": "mapping",
						"key": "t_address",
						"label": "mapping(address => struct MellowFinanceLoanManager.Loan)",
						"numberOfBytes": "32",
						"value": "t_struct(Loan)1569_storage"
					},
					"t_mapping(t_address,t_struct(UserCredit)1576_storage)": {
						"encoding": "mapping",
						"key": "t_address",
						"label": "mapping(address => struct MellowFinanceLoanManager.UserCredit)",
						"numberOfBytes": "32",
						"value": "t_struct(UserCredit)1576_storage"
					},
					"t_struct(Loan)1569_storage": {
						"encoding": "inplace",
						"label": "struct MellowFinanceLoanManager.Loan",
						"members": [
							{
								"astId": 1556,
								"contract": "contracts/LoanManagerV2.sol:MellowFinanceLoanManager",
								"label": "amount",
								"offset": 0,
								"slot": "0",
								"type": "t_uint256"
							},
							{
								"astId": 1558,
								"contract": "contracts/LoanManagerV2.sol:MellowFinanceLoanManager",
								"label": "interestRate",
								"offset": 0,
								"slot": "1",
								"type": "t_uint256"
							},
							{
								"astId": 1560,
								"contract": "contracts/LoanManagerV2.sol:MellowFinanceLoanManager",
								"label": "startTime",
								"offset": 0,
								"slot": "2",
								"type": "t_uint256"
							},
							{
								"astId": 1562,
								"contract": "contracts/LoanManagerV2.sol:MellowFinanceLoanManager",
								"label": "collateral",
								"offset": 0,
								"slot": "3",
								"type": "t_uint256"
							},
							{
								"astId": 1564,
								"contract": "contracts/LoanManagerV2.sol:MellowFinanceLoanManager",
								"label": "collateralRatio",
								"offset": 0,
								"slot": "4",
								"type": "t_uint256"
							},
							{
								"astId": 1566,
								"contract": "contracts/LoanManagerV2.sol:MellowFinanceLoanManager",
								"label": "isRepaid",
								"offset": 0,
								"slot": "5",
								"type": "t_bool"
							},
							{
								"astId": 1568,
								"contract": "contracts/LoanManagerV2.sol:MellowFinanceLoanManager",
								"label": "isDefaulted",
								"offset": 1,
								"slot": "5",
								"type": "t_bool"
							}
						],
						"numberOfBytes": "192"
					},
					"t_struct(UserCredit)1576_storage": {
						"encoding": "inplace",
						"label": "struct MellowFinanceLoanManager.UserCredit",
						"members": [
							{
								"astId": 1571,
								"contract": "contracts/LoanManagerV2.sol:MellowFinanceLoanManager",
								"label": "totalLoansRepaid",
								"offset": 0,
								"slot": "0",
								"type": "t_uint256"
							},
							{
								"astId": 1573,
								"contract": "contracts/LoanManagerV2.sol:MellowFinanceLoanManager",
								"label": "totalLoansDefaulted",
								"offset": 0,
								"slot": "1",
								"type": "t_uint256"
							},
							{
								"astId": 1575,
								"contract": "contracts/LoanManagerV2.sol:MellowFinanceLoanManager",
								"label": "creditScore",
								"offset": 0,
								"slot": "2",
								"type": "t_uint256"
							}
						],
						"numberOfBytes": "96"
					},
					"t_uint256": {
						"encoding": "inplace",
						"label": "uint256",
						"numberOfBytes": "32"
					}
				}
			},
			"userdoc": {
				"kind": "user",
				"methods": {},
				"version": 1
			}
		}
	}
}