{
  "_format": "hh-sol-artifact-1",
  "contractName": "CollateralManager",
  "sourceName": "contracts/CollateralManager.sol",
  "abi": [
    {
      "inputs": [
        {
          "internalType": "contract ERC20",
          "name": "_collateralToken",
          "type": "address"
        }
      ],
      "stateMutability": "nonpayable",
      "type": "constructor"
    },
    {
      "inputs": [],
      "name": "EnforcedPause",
      "type": "error"
    },
    {
      "inputs": [],
      "name": "ExpectedPause",
      "type": "error"
    },
    {
      "inputs": [
        {
          "internalType": "address",
          "name": "owner",
          "type": "address"
        }
      ],
      "name": "OwnableInvalidOwner",
      "type": "error"
    },
    {
      "inputs": [
        {
          "internalType": "address",
          "name": "account",
          "type": "address"
        }
      ],
      "name": "OwnableUnauthorizedAccount",
      "type": "error"
    },
    {
      "inputs": [],
      "name": "ReentrancyGuardReentrantCall",
      "type": "error"
    },
    {
      "anonymous": false,
      "inputs": [
        {
          "indexed": true,
          "internalType": "address",
          "name": "user",
          "type": "address"
        },
        {
          "indexed": false,
          "internalType": "uint256",
          "name": "amount",
          "type": "uint256"
        }
      ],
      "name": "CeloCollateralDeposited",
      "type": "event"
    },
    {
      "anonymous": false,
      "inputs": [
        {
          "indexed": true,
          "internalType": "address",
          "name": "user",
          "type": "address"
        },
        {
          "indexed": false,
          "internalType": "uint256",
          "name": "amount",
          "type": "uint256"
        }
      ],
      "name": "CeloCollateralWithdrawn",
      "type": "event"
    },
    {
      "anonymous": false,
      "inputs": [
        {
          "indexed": true,
          "internalType": "address",
          "name": "previousOwner",
          "type": "address"
        },
        {
          "indexed": true,
          "internalType": "address",
          "name": "newOwner",
          "type": "address"
        }
      ],
      "name": "OwnershipTransferred",
      "type": "event"
    },
    {
      "anonymous": false,
      "inputs": [
        {
          "indexed": false,
          "internalType": "address",
          "name": "account",
          "type": "address"
        }
      ],
      "name": "Paused",
      "type": "event"
    },
    {
      "anonymous": false,
      "inputs": [
        {
          "indexed": false,
          "internalType": "address",
          "name": "account",
          "type": "address"
        }
      ],
      "name": "Unpaused",
      "type": "event"
    },
    {
      "anonymous": false,
      "inputs": [
        {
          "indexed": true,
          "internalType": "address",
          "name": "user",
          "type": "address"
        },
        {
          "indexed": false,
          "internalType": "uint256",
          "name": "amount",
          "type": "uint256"
        }
      ],
      "name": "UsdtCollateralDeposited",
      "type": "event"
    },
    {
      "anonymous": false,
      "inputs": [
        {
          "indexed": true,
          "internalType": "address",
          "name": "user",
          "type": "address"
        },
        {
          "indexed": false,
          "internalType": "uint256",
          "name": "amount",
          "type": "uint256"
        }
      ],
      "name": "UsdtCollateralWithdrawn",
      "type": "event"
    },
    {
      "inputs": [],
      "name": "depositCeloCollateral",
      "outputs": [],
      "stateMutability": "payable",
      "type": "function"
    },
    {
      "inputs": [
        {
          "internalType": "uint256",
          "name": "_amount",
          "type": "uint256"
        }
      ],
      "name": "depositUsdtCollateral",
      "outputs": [],
      "stateMutability": "nonpayable",
      "type": "function"
    },
    {
      "inputs": [
        {
          "internalType": "address",
          "name": "_user",
          "type": "address"
        }
      ],
      "name": "getCollateralBalance",
      "outputs": [
        {
          "internalType": "uint256",
          "name": "celo",
          "type": "uint256"
        },
        {
          "internalType": "uint256",
          "name": "usdt",
          "type": "uint256"
        }
      ],
      "stateMutability": "view",
      "type": "function"
    },
    {
      "inputs": [
        {
          "internalType": "address",
          "name": "user",
          "type": "address"
        }
      ],
      "name": "liquidateCollateral",
      "outputs": [],
      "stateMutability": "nonpayable",
      "type": "function"
    },
    {
      "inputs": [],
      "name": "owner",
      "outputs": [
        {
          "internalType": "address",
          "name": "",
          "type": "address"
        }
      ],
      "stateMutability": "view",
      "type": "function"
    },
    {
      "inputs": [],
      "name": "pause",
      "outputs": [],
      "stateMutability": "nonpayable",
      "type": "function"
    },
    {
      "inputs": [],
      "name": "paused",
      "outputs": [
        {
          "internalType": "bool",
          "name": "",
          "type": "bool"
        }
      ],
      "stateMutability": "view",
      "type": "function"
    },
    {
      "inputs": [
        {
          "internalType": "address",
          "name": "user",
          "type": "address"
        }
      ],
      "name": "releaseFunds",
      "outputs": [],
      "stateMutability": "nonpayable",
      "type": "function"
    },
    {
      "inputs": [],
      "name": "renounceOwnership",
      "outputs": [],
      "stateMutability": "nonpayable",
      "type": "function"
    },
    {
      "inputs": [],
      "name": "totalCollateralCelo",
      "outputs": [
        {
          "internalType": "uint256",
          "name": "",
          "type": "uint256"
        }
      ],
      "stateMutability": "view",
      "type": "function"
    },
    {
      "inputs": [],
      "name": "totalCollateralUsdt",
      "outputs": [
        {
          "internalType": "uint256",
          "name": "",
          "type": "uint256"
        }
      ],
      "stateMutability": "view",
      "type": "function"
    },
    {
      "inputs": [
        {
          "internalType": "address",
          "name": "newOwner",
          "type": "address"
        }
      ],
      "name": "transferOwnership",
      "outputs": [],
      "stateMutability": "nonpayable",
      "type": "function"
    },
    {
      "inputs": [],
      "name": "unpause",
      "outputs": [],
      "stateMutability": "nonpayable",
      "type": "function"
    },
    {
      "inputs": [],
      "name": "usdtToken",
      "outputs": [
        {
          "internalType": "contract ERC20",
          "name": "",
          "type": "address"
        }
      ],
      "stateMutability": "view",
      "type": "function"
    },
    {
      "inputs": [
        {
          "internalType": "address",
          "name": "",
          "type": "address"
        }
      ],
      "name": "userCollateralCelo",
      "outputs": [
        {
          "internalType": "uint256",
          "name": "",
          "type": "uint256"
        }
      ],
      "stateMutability": "view",
      "type": "function"
    },
    {
      "inputs": [
        {
          "internalType": "address",
          "name": "",
          "type": "address"
        }
      ],
      "name": "userCollateralUsdt",
      "outputs": [
        {
          "internalType": "uint256",
          "name": "",
          "type": "uint256"
        }
      ],
      "stateMutability": "view",
      "type": "function"
    },
    {
      "inputs": [
        {
          "internalType": "uint256",
          "name": "_amount",
          "type": "uint256"
        }
      ],
      "name": "withdrawCeloCollateral",
      "outputs": [],
      "stateMutability": "nonpayable",
      "type": "function"
    },
    {
      "inputs": [
        {
          "internalType": "uint256",
          "name": "_amount",
          "type": "uint256"
        }
      ],
      "name": "withdrawUsdtCollateral",
      "outputs": [],
      "stateMutability": "nonpayable",
      "type": "function"
    }
  ],
  "bytecode": "0x60806040523480156200001157600080fd5b5060405162001b1338038062001b1383398181016040528101906200003791906200026b565b3360016000819055506000600160006101000a81548160ff021916908315150217905550600073ffffffffffffffffffffffffffffffffffffffff168173ffffffffffffffffffffffffffffffffffffffff1603620000d05760006040517f1e4fbdf7000000000000000000000000000000000000000000000000000000008152600401620000c79190620002ae565b60405180910390fd5b620000e1816200012a60201b60201c565b5080600260006101000a81548173ffffffffffffffffffffffffffffffffffffffff021916908373ffffffffffffffffffffffffffffffffffffffff16021790555050620002cb565b600060018054906101000a900473ffffffffffffffffffffffffffffffffffffffff169050816001806101000a81548173ffffffffffffffffffffffffffffffffffffffff021916908373ffffffffffffffffffffffffffffffffffffffff1602179055508173ffffffffffffffffffffffffffffffffffffffff168173ffffffffffffffffffffffffffffffffffffffff167f8be0079c531659141344cd1fd0a4f28419497f9722a3daafe3b4186f6b6457e060405160405180910390a35050565b600080fd5b600073ffffffffffffffffffffffffffffffffffffffff82169050919050565b60006200021f82620001f2565b9050919050565b6000620002338262000212565b9050919050565b620002458162000226565b81146200025157600080fd5b50565b60008151905062000265816200023a565b92915050565b600060208284031215620002845762000283620001ed565b5b6000620002948482850162000254565b91505092915050565b620002a88162000212565b82525050565b6000602082019050620002c560008301846200029d565b92915050565b61183880620002db6000396000f3fe6080604052600436106101095760003560e01c80638456cb59116100955780639e30bce7116100645780639e30bce71461030a578063a98ad46c14610347578063c3b2a4a414610372578063d57ac70d146103af578063f2fde38b146103b957610109565b80638456cb59146102745780638da5cb5b1461028b5780638e817efe146102b65780639083baa6146102df57610109565b80633f4ba83a116100dc5780633f4ba83a146101c757806352ce9714146101de5780635c975abb1461020757806360b3b33814610232578063715018a61461025d57610109565b8063192e7a7b1461010e5780631fea5a6b146101375780632703ee85146101605780632f5723d51461019e575b600080fd5b34801561011a57600080fd5b506101356004803603810190610130919061132e565b6103e2565b005b34801561014357600080fd5b5061015e6004803603810190610159919061132e565b6105e5565b005b34801561016c57600080fd5b506101876004803603810190610182919061132e565b610682565b604051610195929190611374565b60405180910390f35b3480156101aa57600080fd5b506101c560048036038101906101c091906113c9565b61070e565b005b3480156101d357600080fd5b506101dc61090a565b005b3480156101ea57600080fd5b50610205600480360381019061020091906113c9565b61091c565b005b34801561021357600080fd5b5061021c610b98565b6040516102299190611411565b60405180910390f35b34801561023e57600080fd5b50610247610baf565b604051610254919061142c565b60405180910390f35b34801561026957600080fd5b50610272610bb5565b005b34801561028057600080fd5b50610289610bc9565b005b34801561029757600080fd5b506102a0610bdb565b6040516102ad9190611456565b60405180910390f35b3480156102c257600080fd5b506102dd60048036038101906102d891906113c9565b610c03565b005b3480156102eb57600080fd5b506102f4610de7565b604051610301919061142c565b60405180910390f35b34801561031657600080fd5b50610331600480360381019061032c919061132e565b610ded565b60405161033e919061142c565b60405180910390f35b34801561035357600080fd5b5061035c610e05565b60405161036991906114d0565b60405180910390f35b34801561037e57600080fd5b506103996004803603810190610394919061132e565b610e2b565b6040516103a6919061142c565b60405180910390f35b6103b7610e43565b005b3480156103c557600080fd5b506103e060048036038101906103db919061132e565b610f5d565b005b6103ea610fe3565b8073ffffffffffffffffffffffffffffffffffffffff166108fc600560008473ffffffffffffffffffffffffffffffffffffffff1673ffffffffffffffffffffffffffffffffffffffff168152602001908152602001600020549081150290604051600060405180830381858888f1935050505015801561046f573d6000803e3d6000fd5b50600260009054906101000a900473ffffffffffffffffffffffffffffffffffffffff1673ffffffffffffffffffffffffffffffffffffffff1663a9059cbb82600660008573ffffffffffffffffffffffffffffffffffffffff1673ffffffffffffffffffffffffffffffffffffffff168152602001908152602001600020546040518363ffffffff1660e01b815260040161050c9291906114eb565b6020604051808303816000875af115801561052b573d6000803e3d6000fd5b505050506040513d601f19601f8201168201806040525081019061054f9190611540565b506000600560008373ffffffffffffffffffffffffffffffffffffffff1673ffffffffffffffffffffffffffffffffffffffff168152602001908152602001600020819055506000600660008373ffffffffffffffffffffffffffffffffffffffff1673ffffffffffffffffffffffffffffffffffffffff168152602001908152602001600020819055506105e2611029565b50565b6105ed610fe3565b6000600560008373ffffffffffffffffffffffffffffffffffffffff1673ffffffffffffffffffffffffffffffffffffffff168152602001908152602001600020819055506000600660008373ffffffffffffffffffffffffffffffffffffffff1673ffffffffffffffffffffffffffffffffffffffff1681526020019081526020016000208190555061067f611029565b50565b600080600560008473ffffffffffffffffffffffffffffffffffffffff1673ffffffffffffffffffffffffffffffffffffffff16815260200190815260200160002054600660008573ffffffffffffffffffffffffffffffffffffffff1673ffffffffffffffffffffffffffffffffffffffff1681526020019081526020016000205491509150915091565b610716610fe3565b61071e611033565b60008111610761576040517f08c379a0000000000000000000000000000000000000000000000000000000008152600401610758906115f0565b60405180910390fd5b600260009054906101000a900473ffffffffffffffffffffffffffffffffffffffff1673ffffffffffffffffffffffffffffffffffffffff166323b872dd3330846040518463ffffffff1660e01b81526004016107c093929190611610565b6020604051808303816000875af11580156107df573d6000803e3d6000fd5b505050506040513d601f19601f820116820180604052508101906108039190611540565b610842576040517f08c379a0000000000000000000000000000000000000000000000000000000008152600401610839906116b9565b60405180910390fd5b80600660003373ffffffffffffffffffffffffffffffffffffffff1673ffffffffffffffffffffffffffffffffffffffff16815260200190815260200160002060008282546108919190611708565b9250508190555080600460008282546108aa9190611708565b925050819055503373ffffffffffffffffffffffffffffffffffffffff167f9a4c731ff1518c7a820e31d32e673b031b8974967931afb2eec308066090022d826040516108f7919061142c565b60405180910390a2610907611029565b50565b610912611074565b61091a6110fb565b565b610924610fe3565b61092c611033565b6000811161096f576040517f08c379a0000000000000000000000000000000000000000000000000000000008152600401610966906115f0565b60405180910390fd5b80600660003373ffffffffffffffffffffffffffffffffffffffff1673ffffffffffffffffffffffffffffffffffffffff1681526020019081526020016000205410156109f1576040517f08c379a00000000000000000000000000000000000000000000000000000000081526004016109e8906117ae565b60405180910390fd5b80600660003373ffffffffffffffffffffffffffffffffffffffff1673ffffffffffffffffffffffffffffffffffffffff1681526020019081526020016000206000828254610a4091906117ce565b925050819055508060046000828254610a5991906117ce565b92505081905550600260009054906101000a900473ffffffffffffffffffffffffffffffffffffffff1673ffffffffffffffffffffffffffffffffffffffff1663a9059cbb33836040518363ffffffff1660e01b8152600401610abd9291906114eb565b6020604051808303816000875af1158015610adc573d6000803e3d6000fd5b505050506040513d601f19601f82011682018060405250810190610b009190611540565b610b3f576040517f08c379a0000000000000000000000000000000000000000000000000000000008152600401610b36906116b9565b60405180910390fd5b3373ffffffffffffffffffffffffffffffffffffffff167fc01511ac0a76d7dc4d420282166e32ac9366c3f78e450661d140d248b19a400082604051610b85919061142c565b60405180910390a2610b95611029565b50565b6000600160009054906101000a900460ff16905090565b60035481565b610bbd611074565b610bc7600061115e565b565b610bd1611074565b610bd9611221565b565b600060018054906101000a900473ffffffffffffffffffffffffffffffffffffffff16905090565b610c0b610fe3565b610c13611033565b60008111610c56576040517f08c379a0000000000000000000000000000000000000000000000000000000008152600401610c4d906115f0565b60405180910390fd5b80600560003373ffffffffffffffffffffffffffffffffffffffff1673ffffffffffffffffffffffffffffffffffffffff168152602001908152602001600020541015610cd8576040517f08c379a0000000000000000000000000000000000000000000000000000000008152600401610ccf906117ae565b60405180910390fd5b80600560003373ffffffffffffffffffffffffffffffffffffffff1673ffffffffffffffffffffffffffffffffffffffff1681526020019081526020016000206000828254610d2791906117ce565b925050819055508060036000828254610d4091906117ce565b925050819055503373ffffffffffffffffffffffffffffffffffffffff166108fc829081150290604051600060405180830381858888f19350505050158015610d8d573d6000803e3d6000fd5b503373ffffffffffffffffffffffffffffffffffffffff167f0c3d79d31dc82080baf59ab3c3058c3c7c4f88f9969422caa1b42c51577d640b82604051610dd4919061142c565b60405180910390a2610de4611029565b50565b60045481565b60056020528060005260406000206000915090505481565b600260009054906101000a900473ffffffffffffffffffffffffffffffffffffffff1681565b60066020528060005260406000206000915090505481565b610e4b610fe3565b610e53611033565b60003411610e96576040517f08c379a0000000000000000000000000000000000000000000000000000000008152600401610e8d906115f0565b60405180910390fd5b34600560003373ffffffffffffffffffffffffffffffffffffffff1673ffffffffffffffffffffffffffffffffffffffff1681526020019081526020016000206000828254610ee59190611708565b925050819055503460036000828254610efe9190611708565b925050819055503373ffffffffffffffffffffffffffffffffffffffff167ff5bfa8a3f6a61792f266e3e92249facce14edf2b5fceeba5cb6cd0882593a9da34604051610f4b919061142c565b60405180910390a2610f5b611029565b565b610f65611074565b600073ffffffffffffffffffffffffffffffffffffffff168173ffffffffffffffffffffffffffffffffffffffff1603610fd75760006040517f1e4fbdf7000000000000000000000000000000000000000000000000000000008152600401610fce9190611456565b60405180910390fd5b610fe08161115e565b50565b60026000540361101f576040517f3ee5aeb500000000000000000000000000000000000000000000000000000000815260040160405180910390fd5b6002600081905550565b6001600081905550565b61103b610b98565b15611072576040517fd93c066500000000000000000000000000000000000000000000000000000000815260040160405180910390fd5b565b61107c611283565b73ffffffffffffffffffffffffffffffffffffffff1661109a610bdb565b73ffffffffffffffffffffffffffffffffffffffff16146110f9576110bd611283565b6040517f118cdaa70000000000000000000000000000000000000000000000000000000081526004016110f09190611456565b60405180910390fd5b565b61110361128b565b6000600160006101000a81548160ff0219169083151502179055507f5db9ee0a495bf2e6ff9c91a7834c1ba4fdd244a5e8aa4e537bd38aeae4b073aa611147611283565b6040516111549190611456565b60405180910390a1565b600060018054906101000a900473ffffffffffffffffffffffffffffffffffffffff169050816001806101000a81548173ffffffffffffffffffffffffffffffffffffffff021916908373ffffffffffffffffffffffffffffffffffffffff1602179055508173ffffffffffffffffffffffffffffffffffffffff168173ffffffffffffffffffffffffffffffffffffffff167f8be0079c531659141344cd1fd0a4f28419497f9722a3daafe3b4186f6b6457e060405160405180910390a35050565b611229611033565b60018060006101000a81548160ff0219169083151502179055507f62e78cea01bee320cd4e420270b5ea74000d11b0c9f74754ebdbfc544b05a25861126c611283565b6040516112799190611456565b60405180910390a1565b600033905090565b611293610b98565b6112c9576040517f8dfc202b00000000000000000000000000000000000000000000000000000000815260040160405180910390fd5b565b600080fd5b600073ffffffffffffffffffffffffffffffffffffffff82169050919050565b60006112fb826112d0565b9050919050565b61130b816112f0565b811461131657600080fd5b50565b60008135905061132881611302565b92915050565b600060208284031215611344576113436112cb565b5b600061135284828501611319565b91505092915050565b6000819050919050565b61136e8161135b565b82525050565b60006040820190506113896000830185611365565b6113966020830184611365565b9392505050565b6113a68161135b565b81146113b157600080fd5b50565b6000813590506113c38161139d565b92915050565b6000602082840312156113df576113de6112cb565b5b60006113ed848285016113b4565b91505092915050565b60008115159050919050565b61140b816113f6565b82525050565b60006020820190506114266000830184611402565b92915050565b60006020820190506114416000830184611365565b92915050565b611450816112f0565b82525050565b600060208201905061146b6000830184611447565b92915050565b6000819050919050565b600061149661149161148c846112d0565b611471565b6112d0565b9050919050565b60006114a88261147b565b9050919050565b60006114ba8261149d565b9050919050565b6114ca816114af565b82525050565b60006020820190506114e560008301846114c1565b92915050565b60006040820190506115006000830185611447565b61150d6020830184611365565b9392505050565b61151d816113f6565b811461152857600080fd5b50565b60008151905061153a81611514565b92915050565b600060208284031215611556576115556112cb565b5b60006115648482850161152b565b91505092915050565b600082825260208201905092915050565b7f436f6c6c61746572616c4d616e616765723a20496e76616c696420616d6f756e60008201527f7400000000000000000000000000000000000000000000000000000000000000602082015250565b60006115da60218361156d565b91506115e58261157e565b604082019050919050565b60006020820190508181036000830152611609816115cd565b9050919050565b60006060820190506116256000830186611447565b6116326020830185611447565b61163f6040830184611365565b949350505050565b7f436f6c6c61746572616c4d616e616765723a205472616e73666572206661696c60008201527f6564000000000000000000000000000000000000000000000000000000000000602082015250565b60006116a360228361156d565b91506116ae82611647565b604082019050919050565b600060208201905081810360008301526116d281611696565b9050919050565b7f4e487b7100000000000000000000000000000000000000000000000000000000600052601160045260246000fd5b60006117138261135b565b915061171e8361135b565b9250828201905080821115611736576117356116d9565b5b92915050565b7f436f6c6c61746572616c4d616e616765723a20496e73756666696369656e742060008201527f62616c616e636500000000000000000000000000000000000000000000000000602082015250565b600061179860278361156d565b91506117a38261173c565b604082019050919050565b600060208201905081810360008301526117c78161178b565b9050919050565b60006117d98261135b565b91506117e48361135b565b92508282039050818111156117fc576117fb6116d9565b5b9291505056fea264697066735822122041a05a965c84499fc8ce26eb50525d4b4162076710a88fa8e4d8995b7dc30ad664736f6c63430008140033",
  "linkReferences": {},
  "deployedLinkReferences": {}
}