{
  "_format": "hh-sol-artifact-1",
  "contractName": "CollateralManager",
  "sourceName": "contracts/CollateralManager.sol",
  "abi": [
    {
      "inputs": [
        {
          "internalType": "contract ERC20",
          "name": "_collateralToken",
          "type": "address"
        }
      ],
      "stateMutability": "nonpayable",
      "type": "constructor"
    },
    {
      "inputs": [],
      "name": "EnforcedPause",
      "type": "error"
    },
    {
      "inputs": [],
      "name": "ExpectedPause",
      "type": "error"
    },
    {
      "inputs": [
        {
          "internalType": "address",
          "name": "owner",
          "type": "address"
        }
      ],
      "name": "OwnableInvalidOwner",
      "type": "error"
    },
    {
      "inputs": [
        {
          "internalType": "address",
          "name": "account",
          "type": "address"
        }
      ],
      "name": "OwnableUnauthorizedAccount",
      "type": "error"
    },
    {
      "inputs": [],
      "name": "ReentrancyGuardReentrantCall",
      "type": "error"
    },
    {
      "anonymous": false,
      "inputs": [
        {
          "indexed": true,
          "internalType": "address",
          "name": "user",
          "type": "address"
        },
        {
          "indexed": false,
          "internalType": "uint256",
          "name": "amount",
          "type": "uint256"
        }
      ],
      "name": "NativeCollateralDeposited",
      "type": "event"
    },
    {
      "anonymous": false,
      "inputs": [
        {
          "indexed": true,
          "internalType": "address",
          "name": "user",
          "type": "address"
        },
        {
          "indexed": false,
          "internalType": "uint256",
          "name": "amount",
          "type": "uint256"
        }
      ],
      "name": "NativeCollateralWithdrawn",
      "type": "event"
    },
    {
      "anonymous": false,
      "inputs": [
        {
          "indexed": true,
          "internalType": "address",
          "name": "previousOwner",
          "type": "address"
        },
        {
          "indexed": true,
          "internalType": "address",
          "name": "newOwner",
          "type": "address"
        }
      ],
      "name": "OwnershipTransferred",
      "type": "event"
    },
    {
      "anonymous": false,
      "inputs": [
        {
          "indexed": false,
          "internalType": "address",
          "name": "account",
          "type": "address"
        }
      ],
      "name": "Paused",
      "type": "event"
    },
    {
      "anonymous": false,
      "inputs": [
        {
          "indexed": true,
          "internalType": "address",
          "name": "user",
          "type": "address"
        },
        {
          "indexed": false,
          "internalType": "uint256",
          "name": "amount",
          "type": "uint256"
        }
      ],
      "name": "StableDeposited",
      "type": "event"
    },
    {
      "anonymous": false,
      "inputs": [
        {
          "indexed": true,
          "internalType": "address",
          "name": "user",
          "type": "address"
        },
        {
          "indexed": false,
          "internalType": "uint256",
          "name": "amount",
          "type": "uint256"
        }
      ],
      "name": "StableWithdrawn",
      "type": "event"
    },
    {
      "anonymous": false,
      "inputs": [
        {
          "indexed": false,
          "internalType": "address",
          "name": "account",
          "type": "address"
        }
      ],
      "name": "Unpaused",
      "type": "event"
    },
    {
      "inputs": [],
      "name": "depositNativeCollateral",
      "outputs": [],
      "stateMutability": "payable",
      "type": "function"
    },
    {
      "inputs": [
        {
          "internalType": "uint256",
          "name": "_amount",
          "type": "uint256"
        }
      ],
      "name": "depositStableCollateral",
      "outputs": [],
      "stateMutability": "nonpayable",
      "type": "function"
    },
    {
      "inputs": [
        {
          "internalType": "address",
          "name": "_user",
          "type": "address"
        }
      ],
      "name": "getCollateralBalance",
      "outputs": [
        {
          "internalType": "uint256",
          "name": "native_balance",
          "type": "uint256"
        },
        {
          "internalType": "uint256",
          "name": "stable_balance",
          "type": "uint256"
        }
      ],
      "stateMutability": "view",
      "type": "function"
    },
    {
      "inputs": [
        {
          "internalType": "address",
          "name": "user",
          "type": "address"
        }
      ],
      "name": "liquidateCollateral",
      "outputs": [],
      "stateMutability": "nonpayable",
      "type": "function"
    },
    {
      "inputs": [],
      "name": "owner",
      "outputs": [
        {
          "internalType": "address",
          "name": "",
          "type": "address"
        }
      ],
      "stateMutability": "view",
      "type": "function"
    },
    {
      "inputs": [],
      "name": "pause",
      "outputs": [],
      "stateMutability": "nonpayable",
      "type": "function"
    },
    {
      "inputs": [],
      "name": "paused",
      "outputs": [
        {
          "internalType": "bool",
          "name": "",
          "type": "bool"
        }
      ],
      "stateMutability": "view",
      "type": "function"
    },
    {
      "inputs": [
        {
          "internalType": "address",
          "name": "user",
          "type": "address"
        }
      ],
      "name": "releaseFunds",
      "outputs": [],
      "stateMutability": "nonpayable",
      "type": "function"
    },
    {
      "inputs": [],
      "name": "renounceOwnership",
      "outputs": [],
      "stateMutability": "nonpayable",
      "type": "function"
    },
    {
      "inputs": [],
      "name": "stablecoinDepositToken",
      "outputs": [
        {
          "internalType": "contract ERC20",
          "name": "",
          "type": "address"
        }
      ],
      "stateMutability": "view",
      "type": "function"
    },
    {
      "inputs": [],
      "name": "totalCollateralNative",
      "outputs": [
        {
          "internalType": "uint256",
          "name": "",
          "type": "uint256"
        }
      ],
      "stateMutability": "view",
      "type": "function"
    },
    {
      "inputs": [],
      "name": "totalCollateralStable",
      "outputs": [
        {
          "internalType": "uint256",
          "name": "",
          "type": "uint256"
        }
      ],
      "stateMutability": "view",
      "type": "function"
    },
    {
      "inputs": [
        {
          "internalType": "address",
          "name": "newOwner",
          "type": "address"
        }
      ],
      "name": "transferOwnership",
      "outputs": [],
      "stateMutability": "nonpayable",
      "type": "function"
    },
    {
      "inputs": [],
      "name": "unpause",
      "outputs": [],
      "stateMutability": "nonpayable",
      "type": "function"
    },
    {
      "inputs": [
        {
          "internalType": "address",
          "name": "",
          "type": "address"
        }
      ],
      "name": "userCollateralNative",
      "outputs": [
        {
          "internalType": "uint256",
          "name": "",
          "type": "uint256"
        }
      ],
      "stateMutability": "view",
      "type": "function"
    },
    {
      "inputs": [
        {
          "internalType": "address",
          "name": "",
          "type": "address"
        }
      ],
      "name": "userCollateralStable",
      "outputs": [
        {
          "internalType": "uint256",
          "name": "",
          "type": "uint256"
        }
      ],
      "stateMutability": "view",
      "type": "function"
    },
    {
      "inputs": [
        {
          "internalType": "uint256",
          "name": "_amount",
          "type": "uint256"
        }
      ],
      "name": "withdrawNativeCollateral",
      "outputs": [],
      "stateMutability": "nonpayable",
      "type": "function"
    },
    {
      "inputs": [
        {
          "internalType": "uint256",
          "name": "_amount",
          "type": "uint256"
        }
      ],
      "name": "withdrawStableCollateral",
      "outputs": [],
      "stateMutability": "nonpayable",
      "type": "function"
    }
  ],
  "bytecode": "0x60806040523480156200001157600080fd5b5060405162001b1338038062001b1383398181016040528101906200003791906200026b565b3360016000819055506000600160006101000a81548160ff021916908315150217905550600073ffffffffffffffffffffffffffffffffffffffff168173ffffffffffffffffffffffffffffffffffffffff1603620000d05760006040517f1e4fbdf7000000000000000000000000000000000000000000000000000000008152600401620000c79190620002ae565b60405180910390fd5b620000e1816200012a60201b60201c565b5080600260006101000a81548173ffffffffffffffffffffffffffffffffffffffff021916908373ffffffffffffffffffffffffffffffffffffffff16021790555050620002cb565b600060018054906101000a900473ffffffffffffffffffffffffffffffffffffffff169050816001806101000a81548173ffffffffffffffffffffffffffffffffffffffff021916908373ffffffffffffffffffffffffffffffffffffffff1602179055508173ffffffffffffffffffffffffffffffffffffffff168173ffffffffffffffffffffffffffffffffffffffff167f8be0079c531659141344cd1fd0a4f28419497f9722a3daafe3b4186f6b6457e060405160405180910390a35050565b600080fd5b600073ffffffffffffffffffffffffffffffffffffffff82169050919050565b60006200021f82620001f2565b9050919050565b6000620002338262000212565b9050919050565b620002458162000226565b81146200025157600080fd5b50565b60008151905062000265816200023a565b92915050565b600060208284031215620002845762000283620001ed565b5b6000620002948482850162000254565b91505092915050565b620002a88162000212565b82525050565b6000602082019050620002c560008301846200029d565b92915050565b61183880620002db6000396000f3fe6080604052600436106101095760003560e01c8063715018a611610095578063da18e61011610064578063da18e61014610311578063ef4c61bf1461033a578063f2fde38b14610365578063f6da3c901461038e578063f813e6ab146103b757610109565b8063715018a61461028d578063836e35c8146102a45780638456cb59146102cf5780638da5cb5b146102e657610109565b80632703ee85116100dc5780632703ee85146101da57806331be0e0e146102185780633f4ba83a146102415780635b96a6ec146102585780635c975abb1461026257610109565b8063192e7a7b1461010e5780631fea5a6b14610137578063254eb80b1461016057806326c62f901461019d575b600080fd5b34801561011a57600080fd5b506101356004803603810190610130919061132e565b6103e2565b005b34801561014357600080fd5b5061015e6004803603810190610159919061132e565b6105e5565b005b34801561016c57600080fd5b506101876004803603810190610182919061132e565b610682565b6040516101949190611374565b60405180910390f35b3480156101a957600080fd5b506101c460048036038101906101bf919061132e565b61069a565b6040516101d19190611374565b60405180910390f35b3480156101e657600080fd5b5061020160048036038101906101fc919061132e565b6106b2565b60405161020f92919061138f565b60405180910390f35b34801561022457600080fd5b5061023f600480360381019061023a91906113e4565b61073e565b005b34801561024d57600080fd5b5061025661093a565b005b61026061094c565b005b34801561026e57600080fd5b50610277610a66565b604051610284919061142c565b60405180910390f35b34801561029957600080fd5b506102a2610a7d565b005b3480156102b057600080fd5b506102b9610a91565b6040516102c69190611374565b60405180910390f35b3480156102db57600080fd5b506102e4610a97565b005b3480156102f257600080fd5b506102fb610aa9565b6040516103089190611456565b60405180910390f35b34801561031d57600080fd5b50610338600480360381019061033391906113e4565b610ad1565b005b34801561034657600080fd5b5061034f610d4d565b60405161035c91906114d0565b60405180910390f35b34801561037157600080fd5b5061038c6004803603810190610387919061132e565b610d73565b005b34801561039a57600080fd5b506103b560048036038101906103b091906113e4565b610df9565b005b3480156103c357600080fd5b506103cc610fdd565b6040516103d99190611374565b60405180910390f35b6103ea610fe3565b8073ffffffffffffffffffffffffffffffffffffffff166108fc600660008473ffffffffffffffffffffffffffffffffffffffff1673ffffffffffffffffffffffffffffffffffffffff168152602001908152602001600020549081150290604051600060405180830381858888f1935050505015801561046f573d6000803e3d6000fd5b50600260009054906101000a900473ffffffffffffffffffffffffffffffffffffffff1673ffffffffffffffffffffffffffffffffffffffff1663a9059cbb82600660008573ffffffffffffffffffffffffffffffffffffffff1673ffffffffffffffffffffffffffffffffffffffff168152602001908152602001600020546040518363ffffffff1660e01b815260040161050c9291906114eb565b6020604051808303816000875af115801561052b573d6000803e3d6000fd5b505050506040513d601f19601f8201168201806040525081019061054f9190611540565b506000600560008373ffffffffffffffffffffffffffffffffffffffff1673ffffffffffffffffffffffffffffffffffffffff168152602001908152602001600020819055506000600660008373ffffffffffffffffffffffffffffffffffffffff1673ffffffffffffffffffffffffffffffffffffffff168152602001908152602001600020819055506105e2611029565b50565b6105ed610fe3565b6000600560008373ffffffffffffffffffffffffffffffffffffffff1673ffffffffffffffffffffffffffffffffffffffff168152602001908152602001600020819055506000600660008373ffffffffffffffffffffffffffffffffffffffff1673ffffffffffffffffffffffffffffffffffffffff1681526020019081526020016000208190555061067f611029565b50565b60056020528060005260406000206000915090505481565b60066020528060005260406000206000915090505481565b600080600560008473ffffffffffffffffffffffffffffffffffffffff1673ffffffffffffffffffffffffffffffffffffffff16815260200190815260200160002054600660008573ffffffffffffffffffffffffffffffffffffffff1673ffffffffffffffffffffffffffffffffffffffff1681526020019081526020016000205491509150915091565b610746610fe3565b61074e611033565b60008111610791576040517f08c379a0000000000000000000000000000000000000000000000000000000008152600401610788906115f0565b60405180910390fd5b600260009054906101000a900473ffffffffffffffffffffffffffffffffffffffff1673ffffffffffffffffffffffffffffffffffffffff166323b872dd3330846040518463ffffffff1660e01b81526004016107f093929190611610565b6020604051808303816000875af115801561080f573d6000803e3d6000fd5b505050506040513d601f19601f820116820180604052508101906108339190611540565b610872576040517f08c379a0000000000000000000000000000000000000000000000000000000008152600401610869906116b9565b60405180910390fd5b80600660003373ffffffffffffffffffffffffffffffffffffffff1673ffffffffffffffffffffffffffffffffffffffff16815260200190815260200160002060008282546108c19190611708565b9250508190555080600460008282546108da9190611708565b925050819055503373ffffffffffffffffffffffffffffffffffffffff167f72bcd92218a56686cd2892adc5b472dd4e131f58ba98e7a05a28b34ca44be5d3826040516109279190611374565b60405180910390a2610937611029565b50565b610942611074565b61094a6110fb565b565b610954610fe3565b61095c611033565b6000341161099f576040517f08c379a0000000000000000000000000000000000000000000000000000000008152600401610996906115f0565b60405180910390fd5b34600560003373ffffffffffffffffffffffffffffffffffffffff1673ffffffffffffffffffffffffffffffffffffffff16815260200190815260200160002060008282546109ee9190611708565b925050819055503460036000828254610a079190611708565b925050819055503373ffffffffffffffffffffffffffffffffffffffff167f3794d262e1e5b79ac3e163e91538650a7a79c67a2550892fa4b9001797fc075e34604051610a549190611374565b60405180910390a2610a64611029565b565b6000600160009054906101000a900460ff16905090565b610a85611074565b610a8f600061115e565b565b60035481565b610a9f611074565b610aa7611221565b565b600060018054906101000a900473ffffffffffffffffffffffffffffffffffffffff16905090565b610ad9610fe3565b610ae1611033565b60008111610b24576040517f08c379a0000000000000000000000000000000000000000000000000000000008152600401610b1b906115f0565b60405180910390fd5b80600660003373ffffffffffffffffffffffffffffffffffffffff1673ffffffffffffffffffffffffffffffffffffffff168152602001908152602001600020541015610ba6576040517f08c379a0000000000000000000000000000000000000000000000000000000008152600401610b9d906117ae565b60405180910390fd5b80600660003373ffffffffffffffffffffffffffffffffffffffff1673ffffffffffffffffffffffffffffffffffffffff1681526020019081526020016000206000828254610bf591906117ce565b925050819055508060046000828254610c0e91906117ce565b92505081905550600260009054906101000a900473ffffffffffffffffffffffffffffffffffffffff1673ffffffffffffffffffffffffffffffffffffffff1663a9059cbb33836040518363ffffffff1660e01b8152600401610c729291906114eb565b6020604051808303816000875af1158015610c91573d6000803e3d6000fd5b505050506040513d601f19601f82011682018060405250810190610cb59190611540565b610cf4576040517f08c379a0000000000000000000000000000000000000000000000000000000008152600401610ceb906116b9565b60405180910390fd5b3373ffffffffffffffffffffffffffffffffffffffff167fc0c38a768e4dc449a238498e0e4efe579f69439b116d0318f3c81f15da6e713c82604051610d3a9190611374565b60405180910390a2610d4a611029565b50565b600260009054906101000a900473ffffffffffffffffffffffffffffffffffffffff1681565b610d7b611074565b600073ffffffffffffffffffffffffffffffffffffffff168173ffffffffffffffffffffffffffffffffffffffff1603610ded5760006040517f1e4fbdf7000000000000000000000000000000000000000000000000000000008152600401610de49190611456565b60405180910390fd5b610df68161115e565b50565b610e01610fe3565b610e09611033565b60008111610e4c576040517f08c379a0000000000000000000000000000000000000000000000000000000008152600401610e43906115f0565b60405180910390fd5b80600560003373ffffffffffffffffffffffffffffffffffffffff1673ffffffffffffffffffffffffffffffffffffffff168152602001908152602001600020541015610ece576040517f08c379a0000000000000000000000000000000000000000000000000000000008152600401610ec5906117ae565b60405180910390fd5b80600560003373ffffffffffffffffffffffffffffffffffffffff1673ffffffffffffffffffffffffffffffffffffffff1681526020019081526020016000206000828254610f1d91906117ce565b925050819055508060036000828254610f3691906117ce565b925050819055503373ffffffffffffffffffffffffffffffffffffffff166108fc829081150290604051600060405180830381858888f19350505050158015610f83573d6000803e3d6000fd5b503373ffffffffffffffffffffffffffffffffffffffff167ff9634b89b07bf077bf6370d579cb9349c0086163079c1bdd6976c54098f2f90382604051610fca9190611374565b60405180910390a2610fda611029565b50565b60045481565b60026000540361101f576040517f3ee5aeb500000000000000000000000000000000000000000000000000000000815260040160405180910390fd5b6002600081905550565b6001600081905550565b61103b610a66565b15611072576040517fd93c066500000000000000000000000000000000000000000000000000000000815260040160405180910390fd5b565b61107c611283565b73ffffffffffffffffffffffffffffffffffffffff1661109a610aa9565b73ffffffffffffffffffffffffffffffffffffffff16146110f9576110bd611283565b6040517f118cdaa70000000000000000000000000000000000000000000000000000000081526004016110f09190611456565b60405180910390fd5b565b61110361128b565b6000600160006101000a81548160ff0219169083151502179055507f5db9ee0a495bf2e6ff9c91a7834c1ba4fdd244a5e8aa4e537bd38aeae4b073aa611147611283565b6040516111549190611456565b60405180910390a1565b600060018054906101000a900473ffffffffffffffffffffffffffffffffffffffff169050816001806101000a81548173ffffffffffffffffffffffffffffffffffffffff021916908373ffffffffffffffffffffffffffffffffffffffff1602179055508173ffffffffffffffffffffffffffffffffffffffff168173ffffffffffffffffffffffffffffffffffffffff167f8be0079c531659141344cd1fd0a4f28419497f9722a3daafe3b4186f6b6457e060405160405180910390a35050565b611229611033565b60018060006101000a81548160ff0219169083151502179055507f62e78cea01bee320cd4e420270b5ea74000d11b0c9f74754ebdbfc544b05a25861126c611283565b6040516112799190611456565b60405180910390a1565b600033905090565b611293610a66565b6112c9576040517f8dfc202b00000000000000000000000000000000000000000000000000000000815260040160405180910390fd5b565b600080fd5b600073ffffffffffffffffffffffffffffffffffffffff82169050919050565b60006112fb826112d0565b9050919050565b61130b816112f0565b811461131657600080fd5b50565b60008135905061132881611302565b92915050565b600060208284031215611344576113436112cb565b5b600061135284828501611319565b91505092915050565b6000819050919050565b61136e8161135b565b82525050565b60006020820190506113896000830184611365565b92915050565b60006040820190506113a46000830185611365565b6113b16020830184611365565b9392505050565b6113c18161135b565b81146113cc57600080fd5b50565b6000813590506113de816113b8565b92915050565b6000602082840312156113fa576113f96112cb565b5b6000611408848285016113cf565b91505092915050565b60008115159050919050565b61142681611411565b82525050565b6000602082019050611441600083018461141d565b92915050565b611450816112f0565b82525050565b600060208201905061146b6000830184611447565b92915050565b6000819050919050565b600061149661149161148c846112d0565b611471565b6112d0565b9050919050565b60006114a88261147b565b9050919050565b60006114ba8261149d565b9050919050565b6114ca816114af565b82525050565b60006020820190506114e560008301846114c1565b92915050565b60006040820190506115006000830185611447565b61150d6020830184611365565b9392505050565b61151d81611411565b811461152857600080fd5b50565b60008151905061153a81611514565b92915050565b600060208284031215611556576115556112cb565b5b60006115648482850161152b565b91505092915050565b600082825260208201905092915050565b7f436f6c6c61746572616c4d616e616765723a20496e76616c696420616d6f756e60008201527f7400000000000000000000000000000000000000000000000000000000000000602082015250565b60006115da60218361156d565b91506115e58261157e565b604082019050919050565b60006020820190508181036000830152611609816115cd565b9050919050565b60006060820190506116256000830186611447565b6116326020830185611447565b61163f6040830184611365565b949350505050565b7f436f6c6c61746572616c4d616e616765723a205472616e73666572206661696c60008201527f6564000000000000000000000000000000000000000000000000000000000000602082015250565b60006116a360228361156d565b91506116ae82611647565b604082019050919050565b600060208201905081810360008301526116d281611696565b9050919050565b7f4e487b7100000000000000000000000000000000000000000000000000000000600052601160045260246000fd5b60006117138261135b565b915061171e8361135b565b9250828201905080821115611736576117356116d9565b5b92915050565b7f436f6c6c61746572616c4d616e616765723a20496e73756666696369656e742060008201527f62616c616e636500000000000000000000000000000000000000000000000000602082015250565b600061179860278361156d565b91506117a38261173c565b604082019050919050565b600060208201905081810360008301526117c78161178b565b9050919050565b60006117d98261135b565b91506117e48361135b565b92508282039050818111156117fc576117fb6116d9565b5b9291505056fea264697066735822122071f48de1d1502260d58773002239f32764aad9750aa4b9cc341d89b06031467164736f6c63430008140033",
  "linkReferences": {},
  "deployedLinkReferences": {}
}