{
  "_format": "hh-sol-artifact-1",
  "contractName": "LoanManager",
  "sourceName": "contracts/LoanManager.sol",
  "abi": [
    {
      "inputs": [
        {
          "internalType": "contract ERC20",
          "name": "_cusdToken",
          "type": "address"
        },
        {
          "internalType": "address",
          "name": "_collateralManager",
          "type": "address"
        }
      ],
      "stateMutability": "nonpayable",
      "type": "constructor"
    },
    {
      "inputs": [
        {
          "internalType": "address",
          "name": "owner",
          "type": "address"
        }
      ],
      "name": "OwnableInvalidOwner",
      "type": "error"
    },
    {
      "inputs": [
        {
          "internalType": "address",
          "name": "account",
          "type": "address"
        }
      ],
      "name": "OwnableUnauthorizedAccount",
      "type": "error"
    },
    {
      "inputs": [],
      "name": "ReentrancyGuardReentrantCall",
      "type": "error"
    },
    {
      "anonymous": false,
      "inputs": [
        {
          "indexed": true,
          "internalType": "address",
          "name": "user",
          "type": "address"
        },
        {
          "indexed": false,
          "internalType": "uint256",
          "name": "collateralLiquidated",
          "type": "uint256"
        }
      ],
      "name": "LoanDefaulted",
      "type": "event"
    },
    {
      "anonymous": false,
      "inputs": [
        {
          "indexed": true,
          "internalType": "address",
          "name": "user",
          "type": "address"
        },
        {
          "indexed": false,
          "internalType": "uint256",
          "name": "amount",
          "type": "uint256"
        },
        {
          "indexed": false,
          "internalType": "uint256",
          "name": "collateral",
          "type": "uint256"
        }
      ],
      "name": "LoanIssued",
      "type": "event"
    },
    {
      "anonymous": false,
      "inputs": [
        {
          "indexed": true,
          "internalType": "address",
          "name": "user",
          "type": "address"
        },
        {
          "indexed": false,
          "internalType": "uint256",
          "name": "amount",
          "type": "uint256"
        },
        {
          "indexed": false,
          "internalType": "uint256",
          "name": "collateralReturned",
          "type": "uint256"
        }
      ],
      "name": "LoanRepaid",
      "type": "event"
    },
    {
      "anonymous": false,
      "inputs": [
        {
          "indexed": true,
          "internalType": "address",
          "name": "previousOwner",
          "type": "address"
        },
        {
          "indexed": true,
          "internalType": "address",
          "name": "newOwner",
          "type": "address"
        }
      ],
      "name": "OwnershipTransferred",
      "type": "event"
    },
    {
      "inputs": [
        {
          "internalType": "uint256",
          "name": "_amount",
          "type": "uint256"
        }
      ],
      "name": "addFundToPool",
      "outputs": [],
      "stateMutability": "nonpayable",
      "type": "function"
    },
    {
      "inputs": [],
      "name": "cUSDToken",
      "outputs": [
        {
          "internalType": "contract ERC20",
          "name": "",
          "type": "address"
        }
      ],
      "stateMutability": "view",
      "type": "function"
    },
    {
      "inputs": [
        {
          "internalType": "address",
          "name": "_user",
          "type": "address"
        }
      ],
      "name": "checkDefault",
      "outputs": [],
      "stateMutability": "nonpayable",
      "type": "function"
    },
    {
      "inputs": [],
      "name": "collateralManager",
      "outputs": [
        {
          "internalType": "contract CollateralManager",
          "name": "",
          "type": "address"
        }
      ],
      "stateMutability": "view",
      "type": "function"
    },
    {
      "inputs": [],
      "name": "collateralToLoanRatio",
      "outputs": [
        {
          "internalType": "uint256",
          "name": "",
          "type": "uint256"
        }
      ],
      "stateMutability": "view",
      "type": "function"
    },
    {
      "inputs": [],
      "name": "defaultDuration",
      "outputs": [
        {
          "internalType": "uint256",
          "name": "",
          "type": "uint256"
        }
      ],
      "stateMutability": "view",
      "type": "function"
    },
    {
      "inputs": [],
      "name": "fundPool",
      "outputs": [
        {
          "internalType": "uint256",
          "name": "",
          "type": "uint256"
        }
      ],
      "stateMutability": "view",
      "type": "function"
    },
    {
      "inputs": [],
      "name": "getCeloPrice",
      "outputs": [
        {
          "internalType": "int256",
          "name": "",
          "type": "int256"
        }
      ],
      "stateMutability": "view",
      "type": "function"
    },
    {
      "inputs": [
        {
          "internalType": "address",
          "name": "_user",
          "type": "address"
        }
      ],
      "name": "getCollateralBalanceinUSD",
      "outputs": [
        {
          "internalType": "uint256",
          "name": "",
          "type": "uint256"
        }
      ],
      "stateMutability": "view",
      "type": "function"
    },
    {
      "inputs": [
        {
          "internalType": "address",
          "name": "_user",
          "type": "address"
        }
      ],
      "name": "getLoanBalancewithInterest",
      "outputs": [
        {
          "internalType": "uint256",
          "name": "",
          "type": "uint256"
        }
      ],
      "stateMutability": "view",
      "type": "function"
    },
    {
      "inputs": [],
      "name": "getMaxLoanAmount",
      "outputs": [
        {
          "internalType": "uint256",
          "name": "",
          "type": "uint256"
        }
      ],
      "stateMutability": "view",
      "type": "function"
    },
    {
      "inputs": [],
      "name": "getUsdtPrice",
      "outputs": [
        {
          "internalType": "int256",
          "name": "",
          "type": "int256"
        }
      ],
      "stateMutability": "view",
      "type": "function"
    },
    {
      "inputs": [
        {
          "internalType": "address",
          "name": "_user",
          "type": "address"
        }
      ],
      "name": "liquidateCollateral",
      "outputs": [],
      "stateMutability": "nonpayable",
      "type": "function"
    },
    {
      "inputs": [],
      "name": "loanDuration",
      "outputs": [
        {
          "internalType": "uint256",
          "name": "",
          "type": "uint256"
        }
      ],
      "stateMutability": "view",
      "type": "function"
    },
    {
      "inputs": [],
      "name": "owner",
      "outputs": [
        {
          "internalType": "address",
          "name": "",
          "type": "address"
        }
      ],
      "stateMutability": "view",
      "type": "function"
    },
    {
      "inputs": [],
      "name": "renounceOwnership",
      "outputs": [],
      "stateMutability": "nonpayable",
      "type": "function"
    },
    {
      "inputs": [
        {
          "internalType": "uint256",
          "name": "_repayAmount",
          "type": "uint256"
        }
      ],
      "name": "repayLoan",
      "outputs": [],
      "stateMutability": "nonpayable",
      "type": "function"
    },
    {
      "inputs": [
        {
          "internalType": "uint256",
          "name": "_loanAmount",
          "type": "uint256"
        }
      ],
      "name": "requestLoan",
      "outputs": [],
      "stateMutability": "nonpayable",
      "type": "function"
    },
    {
      "inputs": [
        {
          "internalType": "address",
          "name": "newOwner",
          "type": "address"
        }
      ],
      "name": "transferOwnership",
      "outputs": [],
      "stateMutability": "nonpayable",
      "type": "function"
    },
    {
      "inputs": [
        {
          "internalType": "uint256",
          "name": "_newRatio",
          "type": "uint256"
        }
      ],
      "name": "updateCollateralToLoanRatio",
      "outputs": [],
      "stateMutability": "nonpayable",
      "type": "function"
    },
    {
      "inputs": [
        {
          "internalType": "uint256",
          "name": "_newDuration",
          "type": "uint256"
        }
      ],
      "name": "updateDefaultDuration",
      "outputs": [],
      "stateMutability": "nonpayable",
      "type": "function"
    },
    {
      "inputs": [
        {
          "internalType": "uint256",
          "name": "_newDuration",
          "type": "uint256"
        }
      ],
      "name": "updateLoanDuration",
      "outputs": [],
      "stateMutability": "nonpayable",
      "type": "function"
    },
    {
      "inputs": [
        {
          "internalType": "address",
          "name": "",
          "type": "address"
        }
      ],
      "name": "userLoans",
      "outputs": [
        {
          "internalType": "uint256",
          "name": "amount",
          "type": "uint256"
        },
        {
          "internalType": "uint256",
          "name": "interestRate",
          "type": "uint256"
        },
        {
          "internalType": "uint256",
          "name": "startTime",
          "type": "uint256"
        },
        {
          "internalType": "uint256",
          "name": "collateral",
          "type": "uint256"
        },
        {
          "internalType": "bool",
          "name": "isRepaid",
          "type": "bool"
        },
        {
          "internalType": "bool",
          "name": "isDefaulted",
          "type": "bool"
        }
      ],
      "stateMutability": "view",
      "type": "function"
    }
  ],
  "bytecode": "0x6080604052609660055562278d006006556213c6806007553480156200002457600080fd5b5060405162002a5738038062002a5783398181016040528101906200004a919062000383565b336001600081905550600073ffffffffffffffffffffffffffffffffffffffff168173ffffffffffffffffffffffffffffffffffffffff1603620000c85760006040517f1e4fbdf7000000000000000000000000000000000000000000000000000000008152600401620000bf9190620003db565b60405180910390fd5b620000d9816200020e60201b60201c565b5081600260006101000a81548173ffffffffffffffffffffffffffffffffffffffff021916908373ffffffffffffffffffffffffffffffffffffffff16021790555080600360006101000a81548173ffffffffffffffffffffffffffffffffffffffff021916908373ffffffffffffffffffffffffffffffffffffffff16021790555073022f9dcc73c5fb43f2b4ef2ef9ad3edd1d853946600860006101000a81548173ffffffffffffffffffffffffffffffffffffffff021916908373ffffffffffffffffffffffffffffffffffffffff160217905550737bcb65b53d5a7ffd2119449b8cbc370c9058fd52600960006101000a81548173ffffffffffffffffffffffffffffffffffffffff021916908373ffffffffffffffffffffffffffffffffffffffff1602179055505050620003f8565b6000600160009054906101000a900473ffffffffffffffffffffffffffffffffffffffff16905081600160006101000a81548173ffffffffffffffffffffffffffffffffffffffff021916908373ffffffffffffffffffffffffffffffffffffffff1602179055508173ffffffffffffffffffffffffffffffffffffffff168173ffffffffffffffffffffffffffffffffffffffff167f8be0079c531659141344cd1fd0a4f28419497f9722a3daafe3b4186f6b6457e060405160405180910390a35050565b600080fd5b600073ffffffffffffffffffffffffffffffffffffffff82169050919050565b60006200030682620002d9565b9050919050565b60006200031a82620002f9565b9050919050565b6200032c816200030d565b81146200033857600080fd5b50565b6000815190506200034c8162000321565b92915050565b6200035d81620002f9565b81146200036957600080fd5b50565b6000815190506200037d8162000352565b92915050565b600080604083850312156200039d576200039c620002d4565b5b6000620003ad858286016200033b565b9250506020620003c0858286016200036c565b9150509250929050565b620003d581620002f9565b82525050565b6000602082019050620003f26000830184620003ca565b92915050565b61264f80620004086000396000f3fe608060405234801561001057600080fd5b506004361061014d5760003560e01c80638d5d3429116100c3578063ba43a9221161007c578063ba43a92214610356578063c000bc6014610372578063e9e190a31461038e578063ebbb7de9146103c3578063f2fde38b146103df578063f5521bf1146103fb5761014d565b80638d5d3429146102965780638da5cb5b146102b2578063961bdfbf146102d057806397ed71eb146102ee578063ab7b1c891461030a578063ade8d29e146103265761014d565b8063650dfa1811610115578063650dfa18146101f8578063656f9ba414610214578063688aef481461023257806370f37d2714610250578063715018a61461026e57806373544cfd146102785761014d565b806309b8aafd146101525780630ea86ad8146101825780631fea5a6b146101a057806323be345c146101bc5780632af7e2ea146101da575b600080fd5b61016c600480360381019061016791906119c7565b610419565b6040516101799190611a0d565b60405180910390f35b61018a61052e565b6040516101979190611a87565b60405180910390f35b6101ba60048036038101906101b591906119c7565b610554565b005b6101c461075a565b6040516101d19190611ac3565b60405180910390f35b6101e2610780565b6040516101ef9190611a0d565b60405180910390f35b610212600480360381019061020d9190611b0a565b610786565b005b61021c6107d4565b6040516102299190611a0d565b60405180910390f35b61023a6108e7565b6040516102479190611a0d565b60405180910390f35b6102586108ed565b6040516102659190611a0d565b60405180910390f35b6102766108f3565b005b610280610907565b60405161028d9190611b50565b60405180910390f35b6102b060048036038101906102ab9190611b0a565b6109a8565b005b6102ba610dad565b6040516102c79190611b7a565b60405180910390f35b6102d8610dd7565b6040516102e59190611b50565b60405180910390f35b61030860048036038101906103039190611b0a565b610e78565b005b610324600480360381019061031f9190611b0a565b610f7d565b005b610340600480360381019061033b91906119c7565b61130f565b60405161034d9190611a0d565b60405180910390f35b610370600480360381019061036b9190611b0a565b6113f3565b005b61038c60048036038101906103879190611b0a565b611440565b005b6103a860048036038101906103a391906119c7565b61148d565b6040516103ba96959493929190611bb0565b60405180910390f35b6103dd60048036038101906103d891906119c7565b6114e3565b005b6103f960048036038101906103f491906119c7565b611733565b005b6104036117b9565b6040516104109190611a0d565b60405180910390f35b6000806000600360009054906101000a900473ffffffffffffffffffffffffffffffffffffffff1673ffffffffffffffffffffffffffffffffffffffff16632703ee85856040518263ffffffff1660e01b81526004016104799190611b7a565b6040805180830381865afa158015610495573d6000803e3d6000fd5b505050506040513d601f19601f820116820180604052508101906104b99190611c26565b9150915060006104c7610907565b905060006104d3610dd7565b90506000670de0b6b3a764000082856104ec9190611c95565b6104f69190611d06565b670de0b6b3a7640000848761050b9190611c95565b6105159190611d06565b61051f9190611d37565b90508095505050505050919050565b600260009054906101000a900473ffffffffffffffffffffffffffffffffffffffff1681565b61055c6117bf565b6000600a60008373ffffffffffffffffffffffffffffffffffffffff1673ffffffffffffffffffffffffffffffffffffffff168152602001908152602001600020905060008160000154116105e6576040517f08c379a00000000000000000000000000000000000000000000000000000000081526004016105dd90611dc8565b60405180910390fd5b8060040160019054906101000a900460ff16610637576040517f08c379a000000000000000000000000000000000000000000000000000000000815260040161062e90611e34565b60405180910390fd5b600360009054906101000a900473ffffffffffffffffffffffffffffffffffffffff1673ffffffffffffffffffffffffffffffffffffffff16631fea5a6b836040518263ffffffff1660e01b81526004016106929190611b7a565b600060405180830381600087803b1580156106ac57600080fd5b505af11580156106c0573d6000803e3d6000fd5b50505050600a60008373ffffffffffffffffffffffffffffffffffffffff1673ffffffffffffffffffffffffffffffffffffffff1681526020019081526020016000206000808201600090556001820160009055600282016000905560038201600090556004820160006101000a81549060ff02191690556004820160016101000a81549060ff0219169055505050610757611805565b50565b600360009054906101000a900473ffffffffffffffffffffffffffffffffffffffff1681565b60075481565b60648110156107ca576040517f08c379a00000000000000000000000000000000000000000000000000000000081526004016107c190611ea0565b60405180910390fd5b8060058190555050565b6000806000600360009054906101000a900473ffffffffffffffffffffffffffffffffffffffff1673ffffffffffffffffffffffffffffffffffffffff16632703ee85336040518263ffffffff1660e01b81526004016108349190611b7a565b6040805180830381865afa158015610850573d6000803e3d6000fd5b505050506040513d601f19601f820116820180604052508101906108749190611c26565b915091506000610882610907565b9050600061088e610dd7565b90506000670de0b6b3a764000082856108a79190611c95565b6108b19190611d06565b670de0b6b3a764000084876108c69190611c95565b6108d09190611d06565b6108da9190611d37565b9050809550505050505090565b60055481565b60045481565b6108fb61180f565b6109056000611896565b565b600080600860009054906101000a900473ffffffffffffffffffffffffffffffffffffffff1673ffffffffffffffffffffffffffffffffffffffff1663feaf968c6040518163ffffffff1660e01b815260040160a060405180830381865afa158015610977573d6000803e3d6000fd5b505050506040513d601f19601f8201168201806040525081019061099b9190611f2e565b5050509150508091505090565b6109b06117bf565b600081116109f3576040517f08c379a00000000000000000000000000000000000000000000000000000000081526004016109ea9061201b565b60405180910390fd5b6000600a60003373ffffffffffffffffffffffffffffffffffffffff1673ffffffffffffffffffffffffffffffffffffffff1681526020019081526020016000206000015414610a78576040517f08c379a0000000000000000000000000000000000000000000000000000000008152600401610a6f906120ad565b60405180910390fd5b600080600360009054906101000a900473ffffffffffffffffffffffffffffffffffffffff1673ffffffffffffffffffffffffffffffffffffffff16632703ee85336040518263ffffffff1660e01b8152600401610ad69190611b7a565b6040805180830381865afa158015610af2573d6000803e3d6000fd5b505050506040513d601f19601f82011682018060405250810190610b169190611c26565b915091506000610b24610907565b90506000610b30610dd7565b90506000670de0b6b3a76400008386610b499190611c95565b610b539190611d06565b90506000670de0b6b3a76400008386610b6c9190611c95565b610b769190611d06565b905060008183610b869190611d37565b905060006040518060c001604052808a81526020016005815260200142815260200183815260200160001515815260200160001515815250905080600a60003373ffffffffffffffffffffffffffffffffffffffff1673ffffffffffffffffffffffffffffffffffffffff1681526020019081526020016000206000820151816000015560208201518160010155604082015181600201556060820151816003015560808201518160040160006101000a81548160ff02191690831515021790555060a08201518160040160016101000a81548160ff021916908315150217905550905050600260009054906101000a900473ffffffffffffffffffffffffffffffffffffffff1673ffffffffffffffffffffffffffffffffffffffff1663a9059cbb338b6040518363ffffffff1660e01b8152600401610cc89291906120cd565b6020604051808303816000875af1158015610ce7573d6000803e3d6000fd5b505050506040513d601f19601f82011682018060405250810190610d0b9190612122565b610d4a576040517f08c379a0000000000000000000000000000000000000000000000000000000008152600401610d41906121c1565b60405180910390fd5b3373ffffffffffffffffffffffffffffffffffffffff167f1c793c0fda4a6b2b79dd68d91d9f7fde8f7aa0878615c36a4624e6ccdbb1ead18a84604051610d929291906121e1565b60405180910390a25050505050505050610daa611805565b50565b6000600160009054906101000a900473ffffffffffffffffffffffffffffffffffffffff16905090565b600080600960009054906101000a900473ffffffffffffffffffffffffffffffffffffffff1673ffffffffffffffffffffffffffffffffffffffff1663feaf968c6040518163ffffffff1660e01b815260040160a060405180830381865afa158015610e47573d6000803e3d6000fd5b505050506040513d601f19601f82011682018060405250810190610e6b9190611f2e565b5050509150508091505090565b610e8061180f565b600260009054906101000a900473ffffffffffffffffffffffffffffffffffffffff1673ffffffffffffffffffffffffffffffffffffffff166323b872dd3330846040518463ffffffff1660e01b8152600401610edf9392919061220a565b6020604051808303816000875af1158015610efe573d6000803e3d6000fd5b505050506040513d601f19601f82011682018060405250810190610f229190612122565b610f61576040517f08c379a0000000000000000000000000000000000000000000000000000000008152600401610f58906122b3565b60405180910390fd5b8060046000828254610f739190611d37565b9250508190555050565b610f856117bf565b6000600a60003373ffffffffffffffffffffffffffffffffffffffff1673ffffffffffffffffffffffffffffffffffffffff1681526020019081526020016000209050600081600001541161100f576040517f08c379a000000000000000000000000000000000000000000000000000000000815260040161100690611dc8565b60405180910390fd5b8060040160009054906101000a900460ff1615611061576040517f08c379a000000000000000000000000000000000000000000000000000000000815260040161105890612345565b60405180910390fd5b60006064826001015483600001546110799190611c95565b6110839190611d06565b82600001546110929190611d37565b9050808310156110d7576040517f08c379a00000000000000000000000000000000000000000000000000000000081526004016110ce906123d7565b60405180910390fd5b600260009054906101000a900473ffffffffffffffffffffffffffffffffffffffff1673ffffffffffffffffffffffffffffffffffffffff166323b872dd3330866040518463ffffffff1660e01b81526004016111369392919061220a565b6020604051808303816000875af1158015611155573d6000803e3d6000fd5b505050506040513d601f19601f820116820180604052508101906111799190612122565b6111b8576040517f08c379a00000000000000000000000000000000000000000000000000000000081526004016111af90612469565b60405180910390fd5b60018260040160006101000a81548160ff021916908315150217905550600360009054906101000a900473ffffffffffffffffffffffffffffffffffffffff1673ffffffffffffffffffffffffffffffffffffffff1663192e7a7b336040518263ffffffff1660e01b81526004016112309190611b7a565b600060405180830381600087803b15801561124a57600080fd5b505af115801561125e573d6000803e3d6000fd5b505050506000600a60003373ffffffffffffffffffffffffffffffffffffffff1673ffffffffffffffffffffffffffffffffffffffff168152602001908152602001600020600001819055503373ffffffffffffffffffffffffffffffffffffffff167fc7ce0a35f17b490de2a317e7fecb2cae86b1abffb03800b2f492823521382698836000015484600301546040516112fa9291906121e1565b60405180910390a2505061130c611805565b50565b600080600a60008473ffffffffffffffffffffffffffffffffffffffff1673ffffffffffffffffffffffffffffffffffffffff1681526020019081526020016000206040518060c0016040529081600082015481526020016001820154815260200160028201548152602001600382015481526020016004820160009054906101000a900460ff161515151581526020016004820160019054906101000a900460ff16151515158152505090506064816020015182600001516113d29190611c95565b6113dc9190611d06565b81600001516113eb9190611d37565b915050919050565b60008111611436576040517f08c379a000000000000000000000000000000000000000000000000000000000815260040161142d906124d5565b60405180910390fd5b8060068190555050565b60008111611483576040517f08c379a000000000000000000000000000000000000000000000000000000000815260040161147a906124d5565b60405180910390fd5b8060078190555050565b600a6020528060005260406000206000915090508060000154908060010154908060020154908060030154908060040160009054906101000a900460ff16908060040160019054906101000a900460ff16905086565b6114eb6117bf565b6000600a60008373ffffffffffffffffffffffffffffffffffffffff1673ffffffffffffffffffffffffffffffffffffffff16815260200190815260200160002090506000816000015411611575576040517f08c379a000000000000000000000000000000000000000000000000000000000815260040161156c90611dc8565b60405180910390fd5b8060040160019054906101000a900460ff16156115c7576040517f08c379a00000000000000000000000000000000000000000000000000000000081526004016115be90612567565b60405180910390fd5b60075460065482600201546115dc9190611d37565b6115e69190611d37565b4211611627576040517f08c379a000000000000000000000000000000000000000000000000000000000815260040161161e906125f9565b60405180910390fd5b60018160040160016101000a81548160ff021916908315150217905550600360009054906101000a900473ffffffffffffffffffffffffffffffffffffffff1673ffffffffffffffffffffffffffffffffffffffff16638e817efe82600301546040518263ffffffff1660e01b81526004016116a39190611a0d565b600060405180830381600087803b1580156116bd57600080fd5b505af11580156116d1573d6000803e3d6000fd5b505050508173ffffffffffffffffffffffffffffffffffffffff167f0be253503c49f8fb02046da3ef57bc2f5f881eb14ba5c2c26b54bf2fb4e7db07826003015460405161171f9190611a0d565b60405180910390a250611730611805565b50565b61173b61180f565b600073ffffffffffffffffffffffffffffffffffffffff168173ffffffffffffffffffffffffffffffffffffffff16036117ad5760006040517f1e4fbdf70000000000000000000000000000000000000000000000000000000081526004016117a49190611b7a565b60405180910390fd5b6117b681611896565b50565b60065481565b6002600054036117fb576040517f3ee5aeb500000000000000000000000000000000000000000000000000000000815260040160405180910390fd5b6002600081905550565b6001600081905550565b61181761195c565b73ffffffffffffffffffffffffffffffffffffffff16611835610dad565b73ffffffffffffffffffffffffffffffffffffffff16146118945761185861195c565b6040517f118cdaa700000000000000000000000000000000000000000000000000000000815260040161188b9190611b7a565b60405180910390fd5b565b6000600160009054906101000a900473ffffffffffffffffffffffffffffffffffffffff16905081600160006101000a81548173ffffffffffffffffffffffffffffffffffffffff021916908373ffffffffffffffffffffffffffffffffffffffff1602179055508173ffffffffffffffffffffffffffffffffffffffff168173ffffffffffffffffffffffffffffffffffffffff167f8be0079c531659141344cd1fd0a4f28419497f9722a3daafe3b4186f6b6457e060405160405180910390a35050565b600033905090565b600080fd5b600073ffffffffffffffffffffffffffffffffffffffff82169050919050565b600061199482611969565b9050919050565b6119a481611989565b81146119af57600080fd5b50565b6000813590506119c18161199b565b92915050565b6000602082840312156119dd576119dc611964565b5b60006119eb848285016119b2565b91505092915050565b6000819050919050565b611a07816119f4565b82525050565b6000602082019050611a2260008301846119fe565b92915050565b6000819050919050565b6000611a4d611a48611a4384611969565b611a28565b611969565b9050919050565b6000611a5f82611a32565b9050919050565b6000611a7182611a54565b9050919050565b611a8181611a66565b82525050565b6000602082019050611a9c6000830184611a78565b92915050565b6000611aad82611a54565b9050919050565b611abd81611aa2565b82525050565b6000602082019050611ad86000830184611ab4565b92915050565b611ae7816119f4565b8114611af257600080fd5b50565b600081359050611b0481611ade565b92915050565b600060208284031215611b2057611b1f611964565b5b6000611b2e84828501611af5565b91505092915050565b6000819050919050565b611b4a81611b37565b82525050565b6000602082019050611b656000830184611b41565b92915050565b611b7481611989565b82525050565b6000602082019050611b8f6000830184611b6b565b92915050565b60008115159050919050565b611baa81611b95565b82525050565b600060c082019050611bc560008301896119fe565b611bd260208301886119fe565b611bdf60408301876119fe565b611bec60608301866119fe565b611bf96080830185611ba1565b611c0660a0830184611ba1565b979650505050505050565b600081519050611c2081611ade565b92915050565b60008060408385031215611c3d57611c3c611964565b5b6000611c4b85828601611c11565b9250506020611c5c85828601611c11565b9150509250929050565b7f4e487b7100000000000000000000000000000000000000000000000000000000600052601160045260246000fd5b6000611ca0826119f4565b9150611cab836119f4565b9250828202611cb9816119f4565b91508282048414831517611cd057611ccf611c66565b5b5092915050565b7f4e487b7100000000000000000000000000000000000000000000000000000000600052601260045260246000fd5b6000611d11826119f4565b9150611d1c836119f4565b925082611d2c57611d2b611cd7565b5b828204905092915050565b6000611d42826119f4565b9150611d4d836119f4565b9250828201905080821115611d6557611d64611c66565b5b92915050565b600082825260208201905092915050565b7f4c6f616e4d616e616765723a204e6f20616374697665206c6f616e0000000000600082015250565b6000611db2601b83611d6b565b9150611dbd82611d7c565b602082019050919050565b60006020820190508181036000830152611de181611da5565b9050919050565b7f4c6f616e4d616e616765723a204c6f616e206e6f742064656661756c74656400600082015250565b6000611e1e601f83611d6b565b9150611e2982611de8565b602082019050919050565b60006020820190508181036000830152611e4d81611e11565b9050919050565b7f4c6f616e4d616e616765723a20496e76616c696420726174696f000000000000600082015250565b6000611e8a601a83611d6b565b9150611e9582611e54565b602082019050919050565b60006020820190508181036000830152611eb981611e7d565b9050919050565b600069ffffffffffffffffffff82169050919050565b611edf81611ec0565b8114611eea57600080fd5b50565b600081519050611efc81611ed6565b92915050565b611f0b81611b37565b8114611f1657600080fd5b50565b600081519050611f2881611f02565b92915050565b600080600080600060a08688031215611f4a57611f49611964565b5b6000611f5888828901611eed565b9550506020611f6988828901611f19565b9450506040611f7a88828901611c11565b9350506060611f8b88828901611c11565b9250506080611f9c88828901611eed565b9150509295509295909350565b7f4c6f616e4d616e616765723a204c6f616e20616d6f756e74206d75737420626560008201527f2067726561746572207468616e20300000000000000000000000000000000000602082015250565b6000612005602f83611d6b565b915061201082611fa9565b604082019050919050565b6000602082019050818103600083015261203481611ff8565b9050919050565b7f4c6f616e4d616e616765723a204578697374696e67206c6f616e206d7573742060008201527f6265207265706169642066697273740000000000000000000000000000000000602082015250565b6000612097602f83611d6b565b91506120a28261203b565b604082019050919050565b600060208201905081810360008301526120c68161208a565b9050919050565b60006040820190506120e26000830185611b6b565b6120ef60208301846119fe565b9392505050565b6120ff81611b95565b811461210a57600080fd5b50565b60008151905061211c816120f6565b92915050565b60006020828403121561213857612137611964565b5b60006121468482850161210d565b91505092915050565b7f4c6f616e4d616e616765723a204c6f616e207472616e73666572206661696c6560008201527f6400000000000000000000000000000000000000000000000000000000000000602082015250565b60006121ab602183611d6b565b91506121b68261214f565b604082019050919050565b600060208201905081810360008301526121da8161219e565b9050919050565b60006040820190506121f660008301856119fe565b61220360208301846119fe565b9392505050565b600060608201905061221f6000830186611b6b565b61222c6020830185611b6b565b61223960408301846119fe565b949350505050565b7f4c6f616e4d616e616765723a2046756e64207472616e73666572206661696c6560008201527f6400000000000000000000000000000000000000000000000000000000000000602082015250565b600061229d602183611d6b565b91506122a882612241565b604082019050919050565b600060208201905081810360008301526122cc81612290565b9050919050565b7f4c6f616e4d616e616765723a204c6f616e20697320616c72656164792072657060008201527f6169640000000000000000000000000000000000000000000000000000000000602082015250565b600061232f602383611d6b565b915061233a826122d3565b604082019050919050565b6000602082019050818103600083015261235e81612322565b9050919050565b7f4c6f616e4d616e616765723a20496e73756666696369656e742072657061796d60008201527f656e7420616d6f756e7400000000000000000000000000000000000000000000602082015250565b60006123c1602a83611d6b565b91506123cc82612365565b604082019050919050565b600060208201905081810360008301526123f0816123b4565b9050919050565b7f4c6f616e4d616e616765723a2052657061796d656e74207472616e736665722060008201527f6661696c65640000000000000000000000000000000000000000000000000000602082015250565b6000612453602683611d6b565b915061245e826123f7565b604082019050919050565b6000602082019050818103600083015261248281612446565b9050919050565b7f4c6f616e4d616e616765723a20496e76616c6964206475726174696f6e000000600082015250565b60006124bf601d83611d6b565b91506124ca82612489565b602082019050919050565b600060208201905081810360008301526124ee816124b2565b9050919050565b7f4c6f616e4d616e616765723a204c6f616e20616c72656164792064656661756c60008201527f7465640000000000000000000000000000000000000000000000000000000000602082015250565b6000612551602383611d6b565b915061255c826124f5565b604082019050919050565b6000602082019050818103600083015261258081612544565b9050919050565b7f4c6f616e4d616e616765723a204c6f616e206e6f742064656661756c7465642060008201527f7965740000000000000000000000000000000000000000000000000000000000602082015250565b60006125e3602383611d6b565b91506125ee82612587565b604082019050919050565b60006020820190508181036000830152612612816125d6565b905091905056fea264697066735822122067ea5df5ffaf6953e465ee8ec0134cb036c4c9a89bd9158304193613805c096d64736f6c63430008140033",
  "linkReferences": {},
  "deployedLinkReferences": {}
}