{
  "_format": "hh-sol-artifact-1",
  "contractName": "MellowFinanceCollateralManager",
  "sourceName": "contracts/MellowFiCollateralManager.sol",
  "abi": [
    {
      "inputs": [],
      "stateMutability": "nonpayable",
      "type": "constructor"
    },
    {
      "inputs": [],
      "name": "EnforcedPause",
      "type": "error"
    },
    {
      "inputs": [],
      "name": "ExpectedPause",
      "type": "error"
    },
    {
      "inputs": [
        {
          "internalType": "address",
          "name": "owner",
          "type": "address"
        }
      ],
      "name": "OwnableInvalidOwner",
      "type": "error"
    },
    {
      "inputs": [
        {
          "internalType": "address",
          "name": "account",
          "type": "address"
        }
      ],
      "name": "OwnableUnauthorizedAccount",
      "type": "error"
    },
    {
      "inputs": [],
      "name": "ReentrancyGuardReentrantCall",
      "type": "error"
    },
    {
      "anonymous": false,
      "inputs": [
        {
          "indexed": true,
          "internalType": "address",
          "name": "user",
          "type": "address"
        },
        {
          "indexed": false,
          "internalType": "uint256",
          "name": "amount",
          "type": "uint256"
        }
      ],
      "name": "NativeCollateralDeposited",
      "type": "event"
    },
    {
      "anonymous": false,
      "inputs": [
        {
          "indexed": true,
          "internalType": "address",
          "name": "user",
          "type": "address"
        },
        {
          "indexed": false,
          "internalType": "uint256",
          "name": "amount",
          "type": "uint256"
        }
      ],
      "name": "NativeCollateralWithdrawn",
      "type": "event"
    },
    {
      "anonymous": false,
      "inputs": [
        {
          "indexed": true,
          "internalType": "address",
          "name": "previousOwner",
          "type": "address"
        },
        {
          "indexed": true,
          "internalType": "address",
          "name": "newOwner",
          "type": "address"
        }
      ],
      "name": "OwnershipTransferred",
      "type": "event"
    },
    {
      "anonymous": false,
      "inputs": [
        {
          "indexed": false,
          "internalType": "address",
          "name": "account",
          "type": "address"
        }
      ],
      "name": "Paused",
      "type": "event"
    },
    {
      "anonymous": false,
      "inputs": [
        {
          "indexed": true,
          "internalType": "address",
          "name": "user",
          "type": "address"
        },
        {
          "indexed": false,
          "internalType": "uint256",
          "name": "amount",
          "type": "uint256"
        }
      ],
      "name": "StableDeposited",
      "type": "event"
    },
    {
      "anonymous": false,
      "inputs": [
        {
          "indexed": true,
          "internalType": "address",
          "name": "user",
          "type": "address"
        },
        {
          "indexed": false,
          "internalType": "uint256",
          "name": "amount",
          "type": "uint256"
        }
      ],
      "name": "StableWithdrawn",
      "type": "event"
    },
    {
      "anonymous": false,
      "inputs": [
        {
          "indexed": false,
          "internalType": "address",
          "name": "account",
          "type": "address"
        }
      ],
      "name": "Unpaused",
      "type": "event"
    },
    {
      "inputs": [],
      "name": "depositNativeCollateral",
      "outputs": [],
      "stateMutability": "payable",
      "type": "function"
    },
    {
      "inputs": [
        {
          "internalType": "uint256",
          "name": "_amount",
          "type": "uint256"
        }
      ],
      "name": "depositStableCollateral",
      "outputs": [],
      "stateMutability": "nonpayable",
      "type": "function"
    },
    {
      "inputs": [
        {
          "internalType": "address",
          "name": "_user",
          "type": "address"
        }
      ],
      "name": "getCollateralBalance",
      "outputs": [
        {
          "internalType": "uint256",
          "name": "native_balance",
          "type": "uint256"
        },
        {
          "internalType": "uint256",
          "name": "stable_balance",
          "type": "uint256"
        }
      ],
      "stateMutability": "view",
      "type": "function"
    },
    {
      "inputs": [
        {
          "internalType": "address",
          "name": "user",
          "type": "address"
        }
      ],
      "name": "liquidateCollateral",
      "outputs": [],
      "stateMutability": "nonpayable",
      "type": "function"
    },
    {
      "inputs": [],
      "name": "owner",
      "outputs": [
        {
          "internalType": "address",
          "name": "",
          "type": "address"
        }
      ],
      "stateMutability": "view",
      "type": "function"
    },
    {
      "inputs": [],
      "name": "pause",
      "outputs": [],
      "stateMutability": "nonpayable",
      "type": "function"
    },
    {
      "inputs": [],
      "name": "paused",
      "outputs": [
        {
          "internalType": "bool",
          "name": "",
          "type": "bool"
        }
      ],
      "stateMutability": "view",
      "type": "function"
    },
    {
      "inputs": [
        {
          "internalType": "address",
          "name": "user",
          "type": "address"
        }
      ],
      "name": "releaseFunds",
      "outputs": [],
      "stateMutability": "nonpayable",
      "type": "function"
    },
    {
      "inputs": [],
      "name": "renounceOwnership",
      "outputs": [],
      "stateMutability": "nonpayable",
      "type": "function"
    },
    {
      "inputs": [],
      "name": "returnFunds",
      "outputs": [],
      "stateMutability": "nonpayable",
      "type": "function"
    },
    {
      "inputs": [],
      "name": "stablecoinDepositToken",
      "outputs": [
        {
          "internalType": "contract ERC20",
          "name": "",
          "type": "address"
        }
      ],
      "stateMutability": "view",
      "type": "function"
    },
    {
      "inputs": [],
      "name": "totalCollateralNative",
      "outputs": [
        {
          "internalType": "uint256",
          "name": "",
          "type": "uint256"
        }
      ],
      "stateMutability": "view",
      "type": "function"
    },
    {
      "inputs": [],
      "name": "totalCollateralStable",
      "outputs": [
        {
          "internalType": "uint256",
          "name": "",
          "type": "uint256"
        }
      ],
      "stateMutability": "view",
      "type": "function"
    },
    {
      "inputs": [
        {
          "internalType": "address",
          "name": "newOwner",
          "type": "address"
        }
      ],
      "name": "transferOwnership",
      "outputs": [],
      "stateMutability": "nonpayable",
      "type": "function"
    },
    {
      "inputs": [],
      "name": "unpause",
      "outputs": [],
      "stateMutability": "nonpayable",
      "type": "function"
    },
    {
      "inputs": [
        {
          "internalType": "address",
          "name": "",
          "type": "address"
        }
      ],
      "name": "userCollateralNative",
      "outputs": [
        {
          "internalType": "uint256",
          "name": "",
          "type": "uint256"
        }
      ],
      "stateMutability": "view",
      "type": "function"
    },
    {
      "inputs": [
        {
          "internalType": "address",
          "name": "",
          "type": "address"
        }
      ],
      "name": "userCollateralStable",
      "outputs": [
        {
          "internalType": "uint256",
          "name": "",
          "type": "uint256"
        }
      ],
      "stateMutability": "view",
      "type": "function"
    },
    {
      "inputs": [
        {
          "internalType": "uint256",
          "name": "_amount",
          "type": "uint256"
        }
      ],
      "name": "withdrawNativeCollateral",
      "outputs": [],
      "stateMutability": "nonpayable",
      "type": "function"
    },
    {
      "inputs": [
        {
          "internalType": "uint256",
          "name": "_amount",
          "type": "uint256"
        }
      ],
      "name": "withdrawStableCollateral",
      "outputs": [],
      "stateMutability": "nonpayable",
      "type": "function"
    }
  ],
  "bytecode": "0x60806040523480156200001157600080fd5b503360016000819055506000600160006101000a81548160ff021916908315150217905550600073ffffffffffffffffffffffffffffffffffffffff168173ffffffffffffffffffffffffffffffffffffffff1603620000ab5760006040517f1e4fbdf7000000000000000000000000000000000000000000000000000000008152600401620000a2919062000220565b60405180910390fd5b620000bc816200011860201b60201c565b5073036cbd53842c5426634e7929541ec2318f3dcf7e600260006101000a81548173ffffffffffffffffffffffffffffffffffffffff021916908373ffffffffffffffffffffffffffffffffffffffff1602179055506200023d565b600060018054906101000a900473ffffffffffffffffffffffffffffffffffffffff169050816001806101000a81548173ffffffffffffffffffffffffffffffffffffffff021916908373ffffffffffffffffffffffffffffffffffffffff1602179055508173ffffffffffffffffffffffffffffffffffffffff168173ffffffffffffffffffffffffffffffffffffffff167f8be0079c531659141344cd1fd0a4f28419497f9722a3daafe3b4186f6b6457e060405160405180910390a35050565b600073ffffffffffffffffffffffffffffffffffffffff82169050919050565b60006200020882620001db565b9050919050565b6200021a81620001fb565b82525050565b60006020820190506200023760008301846200020f565b92915050565b611a46806200024d6000396000f3fe6080604052600436106101145760003560e01c80635c975abb116100a0578063da18e61011610064578063da18e61014610333578063ef4c61bf1461035c578063f2fde38b14610387578063f6da3c90146103b0578063f813e6ab146103d957610114565b80635c975abb14610284578063715018a6146102af578063836e35c8146102c65780638456cb59146102f15780638da5cb5b1461030857610114565b806326c62f90116100e757806326c62f90146101bf5780632703ee85146101fc57806331be0e0e1461023a5780633f4ba83a146102635780635b96a6ec1461027a57610114565b8063192e7a7b146101195780631eb5ea2e146101425780631fea5a6b14610159578063254eb80b14610182575b600080fd5b34801561012557600080fd5b50610140600480360381019061013b9190611468565b610404565b005b34801561014e57600080fd5b50610157610607565b005b34801561016557600080fd5b50610180600480360381019061017b9190611468565b61079b565b005b34801561018e57600080fd5b506101a960048036038101906101a49190611468565b610838565b6040516101b691906114ae565b60405180910390f35b3480156101cb57600080fd5b506101e660048036038101906101e19190611468565b610850565b6040516101f391906114ae565b60405180910390f35b34801561020857600080fd5b50610223600480360381019061021e9190611468565b610868565b6040516102319291906114c9565b60405180910390f35b34801561024657600080fd5b50610261600480360381019061025c919061151e565b6108f4565b005b34801561026f57600080fd5b50610278610ab2565b005b610282610ac4565b005b34801561029057600080fd5b50610299610bde565b6040516102a69190611566565b60405180910390f35b3480156102bb57600080fd5b506102c4610bf5565b005b3480156102d257600080fd5b506102db610c09565b6040516102e891906114ae565b60405180910390f35b3480156102fd57600080fd5b50610306610c0f565b005b34801561031457600080fd5b5061031d610c21565b60405161032a9190611590565b60405180910390f35b34801561033f57600080fd5b5061035a6004803603810190610355919061151e565b610c49565b005b34801561036857600080fd5b50610371610e87565b60405161037e919061160a565b60405180910390f35b34801561039357600080fd5b506103ae60048036038101906103a99190611468565b610ead565b005b3480156103bc57600080fd5b506103d760048036038101906103d2919061151e565b610f33565b005b3480156103e557600080fd5b506103ee611117565b6040516103fb91906114ae565b60405180910390f35b61040c61111d565b8073ffffffffffffffffffffffffffffffffffffffff166108fc600660008473ffffffffffffffffffffffffffffffffffffffff1673ffffffffffffffffffffffffffffffffffffffff168152602001908152602001600020549081150290604051600060405180830381858888f19350505050158015610491573d6000803e3d6000fd5b50600260009054906101000a900473ffffffffffffffffffffffffffffffffffffffff1673ffffffffffffffffffffffffffffffffffffffff1663a9059cbb82600660008573ffffffffffffffffffffffffffffffffffffffff1673ffffffffffffffffffffffffffffffffffffffff168152602001908152602001600020546040518363ffffffff1660e01b815260040161052e929190611625565b6020604051808303816000875af115801561054d573d6000803e3d6000fd5b505050506040513d601f19601f82011682018060405250810190610571919061167a565b506000600560008373ffffffffffffffffffffffffffffffffffffffff1673ffffffffffffffffffffffffffffffffffffffff168152602001908152602001600020819055506000600660008373ffffffffffffffffffffffffffffffffffffffff1673ffffffffffffffffffffffffffffffffffffffff16815260200190815260200160002081905550610604611163565b50565b61060f61116d565b600260009054906101000a900473ffffffffffffffffffffffffffffffffffffffff1673ffffffffffffffffffffffffffffffffffffffff1663a9059cbb610655610c21565b600260009054906101000a900473ffffffffffffffffffffffffffffffffffffffff1673ffffffffffffffffffffffffffffffffffffffff166370a08231306040518263ffffffff1660e01b81526004016106b09190611590565b602060405180830381865afa1580156106cd573d6000803e3d6000fd5b505050506040513d601f19601f820116820180604052508101906106f191906116bc565b6040518363ffffffff1660e01b815260040161070e929190611625565b6020604051808303816000875af115801561072d573d6000803e3d6000fd5b505050506040513d601f19601f82011682018060405250810190610751919061167a565b503373ffffffffffffffffffffffffffffffffffffffff166108fc479081150290604051600060405180830381858888f19350505050158015610798573d6000803e3d6000fd5b50565b6107a361111d565b6000600560008373ffffffffffffffffffffffffffffffffffffffff1673ffffffffffffffffffffffffffffffffffffffff168152602001908152602001600020819055506000600660008373ffffffffffffffffffffffffffffffffffffffff1673ffffffffffffffffffffffffffffffffffffffff16815260200190815260200160002081905550610835611163565b50565b60056020528060005260406000206000915090505481565b60066020528060005260406000206000915090505481565b600080600560008473ffffffffffffffffffffffffffffffffffffffff1673ffffffffffffffffffffffffffffffffffffffff16815260200190815260200160002054600660008573ffffffffffffffffffffffffffffffffffffffff1673ffffffffffffffffffffffffffffffffffffffff1681526020019081526020016000205491509150915091565b6108fc61111d565b6109046111f4565b60008111610947576040517f08c379a000000000000000000000000000000000000000000000000000000000815260040161093e9061176c565b60405180910390fd5b600260009054906101000a900473ffffffffffffffffffffffffffffffffffffffff1673ffffffffffffffffffffffffffffffffffffffff166323b872dd3330846040518463ffffffff1660e01b81526004016109a69392919061178c565b6020604051808303816000875af11580156109c5573d6000803e3d6000fd5b505050506040513d601f19601f820116820180604052508101906109e9919061167a565b5080600660003373ffffffffffffffffffffffffffffffffffffffff1673ffffffffffffffffffffffffffffffffffffffff1681526020019081526020016000206000828254610a3991906117f2565b925050819055508060046000828254610a5291906117f2565b925050819055503373ffffffffffffffffffffffffffffffffffffffff167f72bcd92218a56686cd2892adc5b472dd4e131f58ba98e7a05a28b34ca44be5d382604051610a9f91906114ae565b60405180910390a2610aaf611163565b50565b610aba61116d565b610ac2611235565b565b610acc61111d565b610ad46111f4565b60003411610b17576040517f08c379a0000000000000000000000000000000000000000000000000000000008152600401610b0e90611898565b60405180910390fd5b34600560003373ffffffffffffffffffffffffffffffffffffffff1673ffffffffffffffffffffffffffffffffffffffff1681526020019081526020016000206000828254610b6691906117f2565b925050819055503460036000828254610b7f91906117f2565b925050819055503373ffffffffffffffffffffffffffffffffffffffff167f3794d262e1e5b79ac3e163e91538650a7a79c67a2550892fa4b9001797fc075e34604051610bcc91906114ae565b60405180910390a2610bdc611163565b565b6000600160009054906101000a900460ff16905090565b610bfd61116d565b610c076000611298565b565b60035481565b610c1761116d565b610c1f61135b565b565b600060018054906101000a900473ffffffffffffffffffffffffffffffffffffffff16905090565b610c5161111d565b610c596111f4565b60008111610c9c576040517f08c379a0000000000000000000000000000000000000000000000000000000008152600401610c939061176c565b60405180910390fd5b80600660003373ffffffffffffffffffffffffffffffffffffffff1673ffffffffffffffffffffffffffffffffffffffff168152602001908152602001600020541015610d1e576040517f08c379a0000000000000000000000000000000000000000000000000000000008152600401610d159061192a565b60405180910390fd5b80600660003373ffffffffffffffffffffffffffffffffffffffff1673ffffffffffffffffffffffffffffffffffffffff1681526020019081526020016000206000828254610d6d919061194a565b925050819055508060046000828254610d86919061194a565b92505081905550600260009054906101000a900473ffffffffffffffffffffffffffffffffffffffff1673ffffffffffffffffffffffffffffffffffffffff1663a9059cbb33836040518363ffffffff1660e01b8152600401610dea929190611625565b6020604051808303816000875af1158015610e09573d6000803e3d6000fd5b505050506040513d601f19601f82011682018060405250810190610e2d919061167a565b503373ffffffffffffffffffffffffffffffffffffffff167fc0c38a768e4dc449a238498e0e4efe579f69439b116d0318f3c81f15da6e713c82604051610e7491906114ae565b60405180910390a2610e84611163565b50565b600260009054906101000a900473ffffffffffffffffffffffffffffffffffffffff1681565b610eb561116d565b600073ffffffffffffffffffffffffffffffffffffffff168173ffffffffffffffffffffffffffffffffffffffff1603610f275760006040517f1e4fbdf7000000000000000000000000000000000000000000000000000000008152600401610f1e9190611590565b60405180910390fd5b610f3081611298565b50565b610f3b61111d565b610f436111f4565b60008111610f86576040517f08c379a0000000000000000000000000000000000000000000000000000000008152600401610f7d906119f0565b60405180910390fd5b80600560003373ffffffffffffffffffffffffffffffffffffffff1673ffffffffffffffffffffffffffffffffffffffff168152602001908152602001600020541015611008576040517f08c379a0000000000000000000000000000000000000000000000000000000008152600401610fff9061192a565b60405180910390fd5b80600560003373ffffffffffffffffffffffffffffffffffffffff1673ffffffffffffffffffffffffffffffffffffffff1681526020019081526020016000206000828254611057919061194a565b925050819055508060036000828254611070919061194a565b925050819055503373ffffffffffffffffffffffffffffffffffffffff166108fc829081150290604051600060405180830381858888f193505050501580156110bd573d6000803e3d6000fd5b503373ffffffffffffffffffffffffffffffffffffffff167ff9634b89b07bf077bf6370d579cb9349c0086163079c1bdd6976c54098f2f9038260405161110491906114ae565b60405180910390a2611114611163565b50565b60045481565b600260005403611159576040517f3ee5aeb500000000000000000000000000000000000000000000000000000000815260040160405180910390fd5b6002600081905550565b6001600081905550565b6111756113bd565b73ffffffffffffffffffffffffffffffffffffffff16611193610c21565b73ffffffffffffffffffffffffffffffffffffffff16146111f2576111b66113bd565b6040517f118cdaa70000000000000000000000000000000000000000000000000000000081526004016111e99190611590565b60405180910390fd5b565b6111fc610bde565b15611233576040517fd93c066500000000000000000000000000000000000000000000000000000000815260040160405180910390fd5b565b61123d6113c5565b6000600160006101000a81548160ff0219169083151502179055507f5db9ee0a495bf2e6ff9c91a7834c1ba4fdd244a5e8aa4e537bd38aeae4b073aa6112816113bd565b60405161128e9190611590565b60405180910390a1565b600060018054906101000a900473ffffffffffffffffffffffffffffffffffffffff169050816001806101000a81548173ffffffffffffffffffffffffffffffffffffffff021916908373ffffffffffffffffffffffffffffffffffffffff1602179055508173ffffffffffffffffffffffffffffffffffffffff168173ffffffffffffffffffffffffffffffffffffffff167f8be0079c531659141344cd1fd0a4f28419497f9722a3daafe3b4186f6b6457e060405160405180910390a35050565b6113636111f4565b60018060006101000a81548160ff0219169083151502179055507f62e78cea01bee320cd4e420270b5ea74000d11b0c9f74754ebdbfc544b05a2586113a66113bd565b6040516113b39190611590565b60405180910390a1565b600033905090565b6113cd610bde565b611403576040517f8dfc202b00000000000000000000000000000000000000000000000000000000815260040160405180910390fd5b565b600080fd5b600073ffffffffffffffffffffffffffffffffffffffff82169050919050565b60006114358261140a565b9050919050565b6114458161142a565b811461145057600080fd5b50565b6000813590506114628161143c565b92915050565b60006020828403121561147e5761147d611405565b5b600061148c84828501611453565b91505092915050565b6000819050919050565b6114a881611495565b82525050565b60006020820190506114c3600083018461149f565b92915050565b60006040820190506114de600083018561149f565b6114eb602083018461149f565b9392505050565b6114fb81611495565b811461150657600080fd5b50565b600081359050611518816114f2565b92915050565b60006020828403121561153457611533611405565b5b600061154284828501611509565b91505092915050565b60008115159050919050565b6115608161154b565b82525050565b600060208201905061157b6000830184611557565b92915050565b61158a8161142a565b82525050565b60006020820190506115a56000830184611581565b92915050565b6000819050919050565b60006115d06115cb6115c68461140a565b6115ab565b61140a565b9050919050565b60006115e2826115b5565b9050919050565b60006115f4826115d7565b9050919050565b611604816115e9565b82525050565b600060208201905061161f60008301846115fb565b92915050565b600060408201905061163a6000830185611581565b611647602083018461149f565b9392505050565b6116578161154b565b811461166257600080fd5b50565b6000815190506116748161164e565b92915050565b6000602082840312156116905761168f611405565b5b600061169e84828501611665565b91505092915050565b6000815190506116b6816114f2565b92915050565b6000602082840312156116d2576116d1611405565b5b60006116e0848285016116a7565b91505092915050565b600082825260208201905092915050565b7f436f6c6c61746572616c4d616e616765723a20496e76616c696420616d6f756e60008201527f7400000000000000000000000000000000000000000000000000000000000000602082015250565b60006117566021836116e9565b9150611761826116fa565b604082019050919050565b6000602082019050818103600083015261178581611749565b9050919050565b60006060820190506117a16000830186611581565b6117ae6020830185611581565b6117bb604083018461149f565b949350505050565b7f4e487b7100000000000000000000000000000000000000000000000000000000600052601160045260246000fd5b60006117fd82611495565b915061180883611495565b92508282019050808211156118205761181f6117c3565b5b92915050565b7f436f6c6c61746572616c4d616e616765723a20506c65617365204465706f736960008201527f7420616e20616d6f756e742067726561746572207468616e2030000000000000602082015250565b6000611882603a836116e9565b915061188d82611826565b604082019050919050565b600060208201905081810360008301526118b181611875565b9050919050565b7f436f6c6c61746572616c4d616e616765723a20496e73756666696369656e742060008201527f62616c616e636500000000000000000000000000000000000000000000000000602082015250565b60006119146027836116e9565b915061191f826118b8565b604082019050919050565b6000602082019050818103600083015261194381611907565b9050919050565b600061195582611495565b915061196083611495565b9250828203905081811115611978576119776117c3565b5b92915050565b7f436f6c6c61746572616c4d616e616765723a20506c656173652077697468647260008201527f617720616e20616d6f756e742067726561746572207468616e20300000000000602082015250565b60006119da603b836116e9565b91506119e58261197e565b604082019050919050565b60006020820190508181036000830152611a09816119cd565b905091905056fea26469706673582212205d11825811950dfa4bcc0154c2b417dee7c787186253441a33ae3156270096b964736f6c63430008140033",
  "linkReferences": {},
  "deployedLinkReferences": {}
}