{
  "_format": "hh-sol-artifact-1",
  "contractName": "MellowFinanceLoanManager",
  "sourceName": "contracts/LoanManagerV2.sol",
  "abi": [
    {
      "inputs": [
        {
          "internalType": "address",
          "name": "_MFCM",
          "type": "address"
        }
      ],
      "stateMutability": "nonpayable",
      "type": "constructor"
    },
    {
      "inputs": [],
      "name": "EnforcedPause",
      "type": "error"
    },
    {
      "inputs": [],
      "name": "ExpectedPause",
      "type": "error"
    },
    {
      "inputs": [
        {
          "internalType": "address",
          "name": "owner",
          "type": "address"
        }
      ],
      "name": "OwnableInvalidOwner",
      "type": "error"
    },
    {
      "inputs": [
        {
          "internalType": "address",
          "name": "account",
          "type": "address"
        }
      ],
      "name": "OwnableUnauthorizedAccount",
      "type": "error"
    },
    {
      "inputs": [],
      "name": "ReentrancyGuardReentrantCall",
      "type": "error"
    },
    {
      "anonymous": false,
      "inputs": [],
      "name": "EmergencyPaused",
      "type": "event"
    },
    {
      "anonymous": false,
      "inputs": [],
      "name": "EmergencyUnpaused",
      "type": "event"
    },
    {
      "anonymous": false,
      "inputs": [
        {
          "indexed": false,
          "internalType": "uint256",
          "name": "amount",
          "type": "uint256"
        }
      ],
      "name": "FundAdded",
      "type": "event"
    },
    {
      "anonymous": false,
      "inputs": [
        {
          "indexed": true,
          "internalType": "address",
          "name": "user",
          "type": "address"
        },
        {
          "indexed": false,
          "internalType": "uint256",
          "name": "collateralLiquidated",
          "type": "uint256"
        }
      ],
      "name": "LoanDefaulted",
      "type": "event"
    },
    {
      "anonymous": false,
      "inputs": [
        {
          "indexed": true,
          "internalType": "address",
          "name": "user",
          "type": "address"
        },
        {
          "indexed": false,
          "internalType": "uint256",
          "name": "amount",
          "type": "uint256"
        },
        {
          "indexed": false,
          "internalType": "uint256",
          "name": "collateral",
          "type": "uint256"
        }
      ],
      "name": "LoanIssued",
      "type": "event"
    },
    {
      "anonymous": false,
      "inputs": [
        {
          "indexed": true,
          "internalType": "address",
          "name": "user",
          "type": "address"
        },
        {
          "indexed": false,
          "internalType": "uint256",
          "name": "amount",
          "type": "uint256"
        },
        {
          "indexed": false,
          "internalType": "uint256",
          "name": "collateralReturned",
          "type": "uint256"
        }
      ],
      "name": "LoanRepaid",
      "type": "event"
    },
    {
      "anonymous": false,
      "inputs": [
        {
          "indexed": true,
          "internalType": "address",
          "name": "user",
          "type": "address"
        },
        {
          "indexed": false,
          "internalType": "uint256",
          "name": "amount",
          "type": "uint256"
        },
        {
          "indexed": false,
          "internalType": "uint256",
          "name": "collateral",
          "type": "uint256"
        }
      ],
      "name": "LoanRequested",
      "type": "event"
    },
    {
      "anonymous": false,
      "inputs": [
        {
          "indexed": true,
          "internalType": "address",
          "name": "previousOwner",
          "type": "address"
        },
        {
          "indexed": true,
          "internalType": "address",
          "name": "newOwner",
          "type": "address"
        }
      ],
      "name": "OwnershipTransferred",
      "type": "event"
    },
    {
      "anonymous": false,
      "inputs": [
        {
          "indexed": false,
          "internalType": "address",
          "name": "account",
          "type": "address"
        }
      ],
      "name": "Paused",
      "type": "event"
    },
    {
      "anonymous": false,
      "inputs": [
        {
          "indexed": false,
          "internalType": "address",
          "name": "account",
          "type": "address"
        }
      ],
      "name": "Unpaused",
      "type": "event"
    },
    {
      "inputs": [],
      "name": "LOAN_SIZE_FACTOR",
      "outputs": [
        {
          "internalType": "uint256",
          "name": "",
          "type": "uint256"
        }
      ],
      "stateMutability": "view",
      "type": "function"
    },
    {
      "inputs": [
        {
          "internalType": "uint256",
          "name": "_amount",
          "type": "uint256"
        }
      ],
      "name": "addFunds",
      "outputs": [],
      "stateMutability": "nonpayable",
      "type": "function"
    },
    {
      "inputs": [],
      "name": "baseInterestRate",
      "outputs": [
        {
          "internalType": "uint256",
          "name": "",
          "type": "uint256"
        }
      ],
      "stateMutability": "view",
      "type": "function"
    },
    {
      "inputs": [],
      "name": "cUSDToken",
      "outputs": [
        {
          "internalType": "contract ERC20",
          "name": "",
          "type": "address"
        }
      ],
      "stateMutability": "view",
      "type": "function"
    },
    {
      "inputs": [
        {
          "internalType": "address",
          "name": "_user",
          "type": "address"
        }
      ],
      "name": "calculateLoanWithInterest",
      "outputs": [
        {
          "internalType": "uint256",
          "name": "",
          "type": "uint256"
        }
      ],
      "stateMutability": "view",
      "type": "function"
    },
    {
      "inputs": [],
      "name": "collateralManager",
      "outputs": [
        {
          "internalType": "contract MellowFinanceCollateralManager",
          "name": "",
          "type": "address"
        }
      ],
      "stateMutability": "view",
      "type": "function"
    },
    {
      "inputs": [],
      "name": "defaultDuration",
      "outputs": [
        {
          "internalType": "uint256",
          "name": "",
          "type": "uint256"
        }
      ],
      "stateMutability": "view",
      "type": "function"
    },
    {
      "inputs": [
        {
          "internalType": "address",
          "name": "_user",
          "type": "address"
        },
        {
          "internalType": "uint256",
          "name": "_extraTime",
          "type": "uint256"
        }
      ],
      "name": "extendLoanDuration",
      "outputs": [],
      "stateMutability": "nonpayable",
      "type": "function"
    },
    {
      "inputs": [],
      "name": "fundPool",
      "outputs": [
        {
          "internalType": "uint256",
          "name": "",
          "type": "uint256"
        }
      ],
      "stateMutability": "view",
      "type": "function"
    },
    {
      "inputs": [],
      "name": "getCollinUSD",
      "outputs": [
        {
          "internalType": "uint256",
          "name": "",
          "type": "uint256"
        }
      ],
      "stateMutability": "view",
      "type": "function"
    },
    {
      "inputs": [],
      "name": "getMaxLoan",
      "outputs": [
        {
          "internalType": "uint256",
          "name": "",
          "type": "uint256"
        }
      ],
      "stateMutability": "view",
      "type": "function"
    },
    {
      "inputs": [],
      "name": "getNativePrice",
      "outputs": [
        {
          "internalType": "int256",
          "name": "",
          "type": "int256"
        }
      ],
      "stateMutability": "view",
      "type": "function"
    },
    {
      "inputs": [],
      "name": "getStablePrice",
      "outputs": [
        {
          "internalType": "int256",
          "name": "",
          "type": "int256"
        }
      ],
      "stateMutability": "view",
      "type": "function"
    },
    {
      "inputs": [
        {
          "internalType": "address",
          "name": "_user",
          "type": "address"
        }
      ],
      "name": "liquidateCollateral",
      "outputs": [],
      "stateMutability": "nonpayable",
      "type": "function"
    },
    {
      "inputs": [],
      "name": "owner",
      "outputs": [
        {
          "internalType": "address",
          "name": "",
          "type": "address"
        }
      ],
      "stateMutability": "view",
      "type": "function"
    },
    {
      "inputs": [],
      "name": "pause",
      "outputs": [],
      "stateMutability": "nonpayable",
      "type": "function"
    },
    {
      "inputs": [],
      "name": "paused",
      "outputs": [
        {
          "internalType": "bool",
          "name": "",
          "type": "bool"
        }
      ],
      "stateMutability": "view",
      "type": "function"
    },
    {
      "inputs": [],
      "name": "renounceOwnership",
      "outputs": [],
      "stateMutability": "nonpayable",
      "type": "function"
    },
    {
      "inputs": [
        {
          "internalType": "uint256",
          "name": "_repayAmount",
          "type": "uint256"
        }
      ],
      "name": "repayLoan",
      "outputs": [],
      "stateMutability": "nonpayable",
      "type": "function"
    },
    {
      "inputs": [
        {
          "internalType": "uint256",
          "name": "_loanAmount",
          "type": "uint256"
        },
        {
          "internalType": "uint256",
          "name": "_desiredInterestRate",
          "type": "uint256"
        }
      ],
      "name": "requestLoan",
      "outputs": [],
      "stateMutability": "nonpayable",
      "type": "function"
    },
    {
      "inputs": [],
      "name": "returnFunds",
      "outputs": [],
      "stateMutability": "nonpayable",
      "type": "function"
    },
    {
      "inputs": [
        {
          "internalType": "address",
          "name": "newOwner",
          "type": "address"
        }
      ],
      "name": "transferOwnership",
      "outputs": [],
      "stateMutability": "nonpayable",
      "type": "function"
    },
    {
      "inputs": [],
      "name": "unpause",
      "outputs": [],
      "stateMutability": "nonpayable",
      "type": "function"
    },
    {
      "inputs": [
        {
          "internalType": "address",
          "name": "",
          "type": "address"
        }
      ],
      "name": "userCreditScores",
      "outputs": [
        {
          "internalType": "uint256",
          "name": "totalLoansRepaid",
          "type": "uint256"
        },
        {
          "internalType": "uint256",
          "name": "totalLoansDefaulted",
          "type": "uint256"
        },
        {
          "internalType": "uint256",
          "name": "creditScore",
          "type": "uint256"
        },
        {
          "internalType": "uint256",
          "name": "lastLoanAmount",
          "type": "uint256"
        }
      ],
      "stateMutability": "view",
      "type": "function"
    },
    {
      "inputs": [
        {
          "internalType": "address",
          "name": "",
          "type": "address"
        }
      ],
      "name": "userLoans",
      "outputs": [
        {
          "internalType": "uint256",
          "name": "amount",
          "type": "uint256"
        },
        {
          "internalType": "uint256",
          "name": "interestRate",
          "type": "uint256"
        },
        {
          "internalType": "uint256",
          "name": "startTime",
          "type": "uint256"
        },
        {
          "internalType": "uint256",
          "name": "collateral",
          "type": "uint256"
        },
        {
          "internalType": "uint256",
          "name": "collateralRatio",
          "type": "uint256"
        },
        {
          "internalType": "bool",
          "name": "isRepaid",
          "type": "bool"
        },
        {
          "internalType": "bool",
          "name": "isDefaulted",
          "type": "bool"
        }
      ],
      "stateMutability": "view",
      "type": "function"
    }
  ],
  "bytecode": "0x60806040526213c68060055560056006553480156200001d57600080fd5b5060405162002c3738038062002c37833981810160405281019062000043919062000365565b336001600081905550600073ffffffffffffffffffffffffffffffffffffffff168173ffffffffffffffffffffffffffffffffffffffff1603620000c15760006040517f1e4fbdf7000000000000000000000000000000000000000000000000000000008152600401620000b89190620003a8565b60405180910390fd5b620000d2816200023560201b60201c565b506000600160146101000a81548160ff02191690831515021790555073036cbd53842c5426634e7929541ec2318f3dcf7e600260006101000a81548173ffffffffffffffffffffffffffffffffffffffff021916908373ffffffffffffffffffffffffffffffffffffffff16021790555080600360006101000a81548173ffffffffffffffffffffffffffffffffffffffff021916908373ffffffffffffffffffffffffffffffffffffffff160217905550733c65e28d357a37589e1c7c86044a9f44ddc17134600760006101000a81548173ffffffffffffffffffffffffffffffffffffffff021916908373ffffffffffffffffffffffffffffffffffffffff160217905550733ec8593f930ea45ea58c968260e6e9ff53fc934f600860006101000a81548173ffffffffffffffffffffffffffffffffffffffff021916908373ffffffffffffffffffffffffffffffffffffffff16021790555050620003c5565b6000600160009054906101000a900473ffffffffffffffffffffffffffffffffffffffff16905081600160006101000a81548173ffffffffffffffffffffffffffffffffffffffff021916908373ffffffffffffffffffffffffffffffffffffffff1602179055508173ffffffffffffffffffffffffffffffffffffffff168173ffffffffffffffffffffffffffffffffffffffff167f8be0079c531659141344cd1fd0a4f28419497f9722a3daafe3b4186f6b6457e060405160405180910390a35050565b600080fd5b600073ffffffffffffffffffffffffffffffffffffffff82169050919050565b60006200032d8262000300565b9050919050565b6200033f8162000320565b81146200034b57600080fd5b50565b6000815190506200035f8162000334565b92915050565b6000602082840312156200037e576200037d620002fb565b5b60006200038e848285016200034e565b91505092915050565b620003a28162000320565b82525050565b6000602082019050620003bf600083018462000397565b92915050565b61286280620003d56000396000f3fe608060405234801561001057600080fd5b50600436106101735760003560e01c806361cb6afd116100de578063ab7b1c8911610097578063be99970511610071578063be999705146103bd578063e9e190a3146103d9578063ec9e03931461040f578063f2fde38b1461042d57610173565b8063ab7b1c8914610365578063afd9276214610381578063bd97d4fe1461039f57610173565b806361cb6afd146102c957806370f37d27146102f9578063715018a6146103175780638456cb59146103215780638da5cb5b1461032b578063aa452fa61461034957610173565b8063237c343a11610130578063237c343a1461021457806323be345c146102325780632af7e2ea146102505780633f4ba83a1461026e578063449d31bb146102785780635c975abb146102ab57610173565b80630ea86ad81461017857806317430c9e146101965780631eb5ea2e146101b45780631fea5a6b146101be578063213d1a9b146101da57806322f9913e146101f8575b600080fd5b610180610449565b60405161018d9190611c35565b60405180910390f35b61019e61046f565b6040516101ab9190611c69565b60405180910390f35b6101bc610510565b005b6101d860048036038101906101d39190611cc7565b610665565b005b6101e2610874565b6040516101ef9190611d0d565b60405180910390f35b610212600480360381019061020d9190611d54565b6108a7565b005b61021c610959565b6040516102299190611d0d565b60405180910390f35b61023a61095e565b6040516102479190611db5565b60405180910390f35b610258610984565b6040516102659190611d0d565b60405180910390f35b61027661098a565b005b610292600480360381019061028d9190611cc7565b6109c8565b6040516102a29493929190611dd0565b60405180910390f35b6102b36109f8565b6040516102c09190611e30565b60405180910390f35b6102e360048036038101906102de9190611cc7565b610a0f565b6040516102f09190611d0d565b60405180910390f35b610301610b26565b60405161030e9190611d0d565b60405180910390f35b61031f610b2c565b005b610329610b40565b005b610333610b7e565b6040516103409190611e5a565b60405180910390f35b610363600480360381019061035e9190611e75565b610ba8565b005b61037f600480360381019061037a9190611eb5565b610f9d565b005b610389611296565b6040516103969190611d0d565b60405180910390f35b6103a761129c565b6040516103b49190611d0d565b60405180910390f35b6103d760048036038101906103d29190611eb5565b611395565b005b6103f360048036038101906103ee9190611cc7565b6114d1565b6040516104069796959493929190611ee2565b60405180910390f35b61041761152d565b6040516104249190611c69565b60405180910390f35b61044760048036038101906104429190611cc7565b6115ce565b005b600260009054906101000a900473ffffffffffffffffffffffffffffffffffffffff1681565b600080600760009054906101000a900473ffffffffffffffffffffffffffffffffffffffff1673ffffffffffffffffffffffffffffffffffffffff1663feaf968c6040518163ffffffff1660e01b815260040160a060405180830381865afa1580156104df573d6000803e3d6000fd5b505050506040513d601f19601f820116820180604052508101906105039190611fd4565b5050509150508091505090565b610518611654565b600260009054906101000a900473ffffffffffffffffffffffffffffffffffffffff1673ffffffffffffffffffffffffffffffffffffffff1663a9059cbb61055e610b7e565b600260009054906101000a900473ffffffffffffffffffffffffffffffffffffffff1673ffffffffffffffffffffffffffffffffffffffff166370a08231306040518263ffffffff1660e01b81526004016105b99190611e5a565b602060405180830381865afa1580156105d6573d6000803e3d6000fd5b505050506040513d601f19601f820116820180604052508101906105fa919061204f565b6040518363ffffffff1660e01b815260040161061792919061207c565b6020604051808303816000875af1158015610636573d6000803e3d6000fd5b505050506040513d601f19601f8201168201806040525081019061065a91906120d1565b506000600481905550565b61066d611654565b6106756116db565b6000600960008373ffffffffffffffffffffffffffffffffffffffff1673ffffffffffffffffffffffffffffffffffffffff168152602001908152602001600020905060008160000154116106ff576040517f08c379a00000000000000000000000000000000000000000000000000000000081526004016106f69061215b565b60405180910390fd5b6005548160040154826002015461071691906121aa565b61072091906121aa565b4211610761576040517f08c379a000000000000000000000000000000000000000000000000000000000815260040161075890612250565b60405180910390fd5b60018160050160016101000a81548160ff021916908315150217905550610789826000611721565b600360009054906101000a900473ffffffffffffffffffffffffffffffffffffffff1673ffffffffffffffffffffffffffffffffffffffff16631fea5a6b836040518263ffffffff1660e01b81526004016107e49190611e5a565b600060405180830381600087803b1580156107fe57600080fd5b505af1158015610812573d6000803e3d6000fd5b505050508173ffffffffffffffffffffffffffffffffffffffff167f0be253503c49f8fb02046da3ef57bc2f5f881eb14ba5c2c26b54bf2fb4e7db0782600301546040516108609190611d0d565b60405180910390a25061087161188e565b50565b60008061088033611898565b9050600060966064836108939190612270565b61089d91906122e1565b9050809250505090565b6108af611654565b6000600960008473ffffffffffffffffffffffffffffffffffffffff1673ffffffffffffffffffffffffffffffffffffffff16815260200190815260200160002090506000816000015411610939576040517f08c379a00000000000000000000000000000000000000000000000000000000081526004016109309061215b565b60405180910390fd5b8181600201600082825461094d91906121aa565b92505081905550505050565b600581565b600360009054906101000a900473ffffffffffffffffffffffffffffffffffffffff1681565b60055481565b610992611654565b61099a6119a2565b7f15de7ad89d29fd1c6d2e6b1e878453569b4080edf34e0105faaa3bd52f01853060405160405180910390a1565b600a6020528060005260406000206000915090508060000154908060010154908060020154908060030154905084565b6000600160149054906101000a900460ff16905090565b600080600960008473ffffffffffffffffffffffffffffffffffffffff1673ffffffffffffffffffffffffffffffffffffffff1681526020019081526020016000206040518060e001604052908160008201548152602001600182015481526020016002820154815260200160038201548152602001600482015481526020016005820160009054906101000a900460ff161515151581526020016005820160019054906101000a900460ff16151515158152505090506000816040015142610ad89190612312565b9050600063bbf81e008284602001518560000151610af69190612270565b610b009190612270565b610b0a91906122e1565b9050808360000151610b1c91906121aa565b9350505050919050565b60045481565b610b34611654565b610b3e6000611a05565b565b610b48611654565b610b50611acb565b7f4cb3183d0bf66f9634b15cfc3539fdddc96c2c9324848af89b56586a6739fec460405160405180910390a1565b6000600160009054906101000a900473ffffffffffffffffffffffffffffffffffffffff16905090565b610bb06116db565b610bb8611b2d565b60008211610bfb576040517f08c379a0000000000000000000000000000000000000000000000000000000008152600401610bf2906123b8565b60405180910390fd5b6000600960003373ffffffffffffffffffffffffffffffffffffffff1673ffffffffffffffffffffffffffffffffffffffff1681526020019081526020016000206000015414610c80576040517f08c379a0000000000000000000000000000000000000000000000000000000008152600401610c779061244a565b60405180910390fd5b6000610c8a61129c565b9050600060969050600081606484610ca29190612270565b610cac91906122e1565b905080851115610cf1576040517f08c379a0000000000000000000000000000000000000000000000000000000008152600401610ce8906124dc565b60405180910390fd5b60006040518060e001604052808781526020016006548711610d1557600654610d17565b865b815260200142815260200185815260200184815260200160001515815260200160001515815250905080600960003373ffffffffffffffffffffffffffffffffffffffff1673ffffffffffffffffffffffffffffffffffffffff168152602001908152602001600020600082015181600001556020820151816001015560408201518160020155606082015181600301556080820151816004015560a08201518160050160006101000a81548160ff02191690831515021790555060c08201518160050160016101000a81548160ff021916908315150217905550905050600260009054906101000a900473ffffffffffffffffffffffffffffffffffffffff1673ffffffffffffffffffffffffffffffffffffffff1663a9059cbb33886040518363ffffffff1660e01b8152600401610e5292919061207c565b6020604051808303816000875af1158015610e71573d6000803e3d6000fd5b505050506040513d601f19601f82011682018060405250810190610e9591906120d1565b610ed4576040517f08c379a0000000000000000000000000000000000000000000000000000000008152600401610ecb9061256e565b60405180910390fd5b8560046000828254610ee69190612312565b925050819055503373ffffffffffffffffffffffffffffffffffffffff167f7468760830aff5679376e50470c0493d21c88c599388e89b08c9512b3f3fbc7d8786604051610f3592919061258e565b60405180910390a23373ffffffffffffffffffffffffffffffffffffffff167f1c793c0fda4a6b2b79dd68d91d9f7fde8f7aa0878615c36a4624e6ccdbb1ead18786604051610f8592919061258e565b60405180910390a250505050610f9961188e565b5050565b610fa56116db565b610fad611b2d565b6000600960003373ffffffffffffffffffffffffffffffffffffffff1673ffffffffffffffffffffffffffffffffffffffff16815260200190815260200160002090506000816000015411611037576040517f08c379a000000000000000000000000000000000000000000000000000000000815260040161102e9061215b565b60405180910390fd5b8060050160009054906101000a900460ff1615611089576040517f08c379a000000000000000000000000000000000000000000000000000000000815260040161108090612629565b60405180910390fd5b600061109433610a0f565b9050808310156110d9576040517f08c379a00000000000000000000000000000000000000000000000000000000081526004016110d0906126bb565b60405180910390fd5b600260009054906101000a900473ffffffffffffffffffffffffffffffffffffffff1673ffffffffffffffffffffffffffffffffffffffff166323b872dd3330866040518463ffffffff1660e01b8152600401611138939291906126db565b6020604051808303816000875af1158015611157573d6000803e3d6000fd5b505050506040513d601f19601f8201168201806040525081019061117b91906120d1565b5060018260050160006101000a81548160ff0219169083151502179055506111a4336001611721565b600360009054906101000a900473ffffffffffffffffffffffffffffffffffffffff1673ffffffffffffffffffffffffffffffffffffffff1663192e7a7b336040518263ffffffff1660e01b81526004016111ff9190611e5a565b600060405180830381600087803b15801561121957600080fd5b505af115801561122d573d6000803e3d6000fd5b505050503373ffffffffffffffffffffffffffffffffffffffff167fc7ce0a35f17b490de2a317e7fecb2cae86b1abffb03800b2f4928235213826988360000154846003015460405161128192919061258e565b60405180910390a2505061129361188e565b50565b60065481565b6000806000600360009054906101000a900473ffffffffffffffffffffffffffffffffffffffff1673ffffffffffffffffffffffffffffffffffffffff16632703ee85336040518263ffffffff1660e01b81526004016112fc9190611e5a565b6040805180830381865afa158015611318573d6000803e3d6000fd5b505050506040513d601f19601f8201168201806040525081019061133c9190612712565b91509150600061134a61046f565b9050600061135661152d565b9050600082856113669190612270565b9050600082856113769190612270565b90506000818361138691906121aa565b90508097505050505050505090565b61139d611654565b600260009054906101000a900473ffffffffffffffffffffffffffffffffffffffff1673ffffffffffffffffffffffffffffffffffffffff166323b872dd3330846040518463ffffffff1660e01b81526004016113fc939291906126db565b6020604051808303816000875af115801561141b573d6000803e3d6000fd5b505050506040513d601f19601f8201168201806040525081019061143f91906120d1565b61147e576040517f08c379a0000000000000000000000000000000000000000000000000000000008152600401611475906127c4565b60405180910390fd5b806004600082825461149091906121aa565b925050819055507fdfa1544d71975f6aad289acdbd6a695a0789ed2f94a3aa775d08d2bbc570af6d816040516114c69190611d0d565b60405180910390a150565b60096020528060005260406000206000915090508060000154908060010154908060020154908060030154908060040154908060050160009054906101000a900460ff16908060050160019054906101000a900460ff16905087565b600080600860009054906101000a900473ffffffffffffffffffffffffffffffffffffffff1673ffffffffffffffffffffffffffffffffffffffff1663feaf968c6040518163ffffffff1660e01b815260040160a060405180830381865afa15801561159d573d6000803e3d6000fd5b505050506040513d601f19601f820116820180604052508101906115c19190611fd4565b5050509150508091505090565b6115d6611654565b600073ffffffffffffffffffffffffffffffffffffffff168173ffffffffffffffffffffffffffffffffffffffff16036116485760006040517f1e4fbdf700000000000000000000000000000000000000000000000000000000815260040161163f9190611e5a565b60405180910390fd5b61165181611a05565b50565b61165c611b6e565b73ffffffffffffffffffffffffffffffffffffffff1661167a610b7e565b73ffffffffffffffffffffffffffffffffffffffff16146116d95761169d611b6e565b6040517f118cdaa70000000000000000000000000000000000000000000000000000000081526004016116d09190611e5a565b60405180910390fd5b565b600260005403611717576040517f3ee5aeb500000000000000000000000000000000000000000000000000000000815260040160405180910390fd5b6002600081905550565b6000600a60008473ffffffffffffffffffffffffffffffffffffffff1673ffffffffffffffffffffffffffffffffffffffff16815260200190815260200160002090506000600960008573ffffffffffffffffffffffffffffffffffffffff1673ffffffffffffffffffffffffffffffffffffffff16815260200190815260200160002060000154905082156117f7578160000160008154809291906117c6906127e4565b91905055506005816117d89190612270565b8260020160008282546117eb91906121aa565b92505081905550611839565b81600101600081548092919061180c906127e4565b919050555060058161181e9190612270565b8260020160008282546118319190612312565b925050819055505b6005826001015461184a9190612270565b600a836000015461185b9190612270565b6118659190612312565b82600201600082825461187891906121aa565b9250508190555080826003018190555050505050565b6001600081905550565b6000806000600360009054906101000a900473ffffffffffffffffffffffffffffffffffffffff1673ffffffffffffffffffffffffffffffffffffffff16632703ee85856040518263ffffffff1660e01b81526004016118f89190611e5a565b6040805180830381865afa158015611914573d6000803e3d6000fd5b505050506040513d601f19601f820116820180604052508101906119389190612712565b91509150600061194661046f565b9050600061195261152d565b9050600082856119629190612270565b9050600082856119729190612270565b90506000818361198291906121aa565b90506305f5e1008161199491906122e1565b975050505050505050919050565b6119aa611b76565b6000600160146101000a81548160ff0219169083151502179055507f5db9ee0a495bf2e6ff9c91a7834c1ba4fdd244a5e8aa4e537bd38aeae4b073aa6119ee611b6e565b6040516119fb9190611e5a565b60405180910390a1565b6000600160009054906101000a900473ffffffffffffffffffffffffffffffffffffffff16905081600160006101000a81548173ffffffffffffffffffffffffffffffffffffffff021916908373ffffffffffffffffffffffffffffffffffffffff1602179055508173ffffffffffffffffffffffffffffffffffffffff168173ffffffffffffffffffffffffffffffffffffffff167f8be0079c531659141344cd1fd0a4f28419497f9722a3daafe3b4186f6b6457e060405160405180910390a35050565b611ad3611b2d565b60018060146101000a81548160ff0219169083151502179055507f62e78cea01bee320cd4e420270b5ea74000d11b0c9f74754ebdbfc544b05a258611b16611b6e565b604051611b239190611e5a565b60405180910390a1565b611b356109f8565b15611b6c576040517fd93c066500000000000000000000000000000000000000000000000000000000815260040160405180910390fd5b565b600033905090565b611b7e6109f8565b611bb4576040517f8dfc202b00000000000000000000000000000000000000000000000000000000815260040160405180910390fd5b565b600073ffffffffffffffffffffffffffffffffffffffff82169050919050565b6000819050919050565b6000611bfb611bf6611bf184611bb6565b611bd6565b611bb6565b9050919050565b6000611c0d82611be0565b9050919050565b6000611c1f82611c02565b9050919050565b611c2f81611c14565b82525050565b6000602082019050611c4a6000830184611c26565b92915050565b6000819050919050565b611c6381611c50565b82525050565b6000602082019050611c7e6000830184611c5a565b92915050565b600080fd5b6000611c9482611bb6565b9050919050565b611ca481611c89565b8114611caf57600080fd5b50565b600081359050611cc181611c9b565b92915050565b600060208284031215611cdd57611cdc611c84565b5b6000611ceb84828501611cb2565b91505092915050565b6000819050919050565b611d0781611cf4565b82525050565b6000602082019050611d226000830184611cfe565b92915050565b611d3181611cf4565b8114611d3c57600080fd5b50565b600081359050611d4e81611d28565b92915050565b60008060408385031215611d6b57611d6a611c84565b5b6000611d7985828601611cb2565b9250506020611d8a85828601611d3f565b9150509250929050565b6000611d9f82611c02565b9050919050565b611daf81611d94565b82525050565b6000602082019050611dca6000830184611da6565b92915050565b6000608082019050611de56000830187611cfe565b611df26020830186611cfe565b611dff6040830185611cfe565b611e0c6060830184611cfe565b95945050505050565b60008115159050919050565b611e2a81611e15565b82525050565b6000602082019050611e456000830184611e21565b92915050565b611e5481611c89565b82525050565b6000602082019050611e6f6000830184611e4b565b92915050565b60008060408385031215611e8c57611e8b611c84565b5b6000611e9a85828601611d3f565b9250506020611eab85828601611d3f565b9150509250929050565b600060208284031215611ecb57611eca611c84565b5b6000611ed984828501611d3f565b91505092915050565b600060e082019050611ef7600083018a611cfe565b611f046020830189611cfe565b611f116040830188611cfe565b611f1e6060830187611cfe565b611f2b6080830186611cfe565b611f3860a0830185611e21565b611f4560c0830184611e21565b98975050505050505050565b600069ffffffffffffffffffff82169050919050565b611f7081611f51565b8114611f7b57600080fd5b50565b600081519050611f8d81611f67565b92915050565b611f9c81611c50565b8114611fa757600080fd5b50565b600081519050611fb981611f93565b92915050565b600081519050611fce81611d28565b92915050565b600080600080600060a08688031215611ff057611fef611c84565b5b6000611ffe88828901611f7e565b955050602061200f88828901611faa565b945050604061202088828901611fbf565b935050606061203188828901611fbf565b925050608061204288828901611f7e565b9150509295509295909350565b60006020828403121561206557612064611c84565b5b600061207384828501611fbf565b91505092915050565b60006040820190506120916000830185611e4b565b61209e6020830184611cfe565b9392505050565b6120ae81611e15565b81146120b957600080fd5b50565b6000815190506120cb816120a5565b92915050565b6000602082840312156120e7576120e6611c84565b5b60006120f5848285016120bc565b91505092915050565b600082825260208201905092915050565b7f4c6f616e4d616e616765723a204e6f20616374697665206c6f616e0000000000600082015250565b6000612145601b836120fe565b91506121508261210f565b602082019050919050565b6000602082019050818103600083015261217481612138565b9050919050565b7f4e487b7100000000000000000000000000000000000000000000000000000000600052601160045260246000fd5b60006121b582611cf4565b91506121c083611cf4565b92508282019050808211156121d8576121d761217b565b5b92915050565b7f4c6f616e4d616e616765723a204c6f616e206e6f742064656661756c7465642060008201527f7965740000000000000000000000000000000000000000000000000000000000602082015250565b600061223a6023836120fe565b9150612245826121de565b604082019050919050565b600060208201905081810360008301526122698161222d565b9050919050565b600061227b82611cf4565b915061228683611cf4565b925082820261229481611cf4565b915082820484148315176122ab576122aa61217b565b5b5092915050565b7f4e487b7100000000000000000000000000000000000000000000000000000000600052601260045260246000fd5b60006122ec82611cf4565b91506122f783611cf4565b925082612307576123066122b2565b5b828204905092915050565b600061231d82611cf4565b915061232883611cf4565b92508282039050818111156123405761233f61217b565b5b92915050565b7f4c6f616e4d616e616765723a204c6f616e20616d6f756e74206d75737420626560008201527f2067726561746572207468616e20300000000000000000000000000000000000602082015250565b60006123a2602f836120fe565b91506123ad82612346565b604082019050919050565b600060208201905081810360008301526123d181612395565b9050919050565b7f4c6f616e4d616e616765723a204578697374696e67206c6f616e206d7573742060008201527f6265207265706169642066697273740000000000000000000000000000000000602082015250565b6000612434602f836120fe565b915061243f826123d8565b604082019050919050565b6000602082019050818103600083015261246381612427565b9050919050565b7f4c6f616e4d616e616765723a20496e73756666696369656e7420636f6c6c617460008201527f6572616c00000000000000000000000000000000000000000000000000000000602082015250565b60006124c66024836120fe565b91506124d18261246a565b604082019050919050565b600060208201905081810360008301526124f5816124b9565b9050919050565b7f4c6f616e4d616e616765723a204c6f616e207472616e73666572206661696c6560008201527f6400000000000000000000000000000000000000000000000000000000000000602082015250565b60006125586021836120fe565b9150612563826124fc565b604082019050919050565b600060208201905081810360008301526125878161254b565b9050919050565b60006040820190506125a36000830185611cfe565b6125b06020830184611cfe565b9392505050565b7f4c6f616e4d616e616765723a204c6f616e20697320616c72656164792072657060008201527f6169640000000000000000000000000000000000000000000000000000000000602082015250565b60006126136023836120fe565b915061261e826125b7565b604082019050919050565b6000602082019050818103600083015261264281612606565b9050919050565b7f4c6f616e4d616e616765723a20496e73756666696369656e742072657061796d60008201527f656e740000000000000000000000000000000000000000000000000000000000602082015250565b60006126a56023836120fe565b91506126b082612649565b604082019050919050565b600060208201905081810360008301526126d481612698565b9050919050565b60006060820190506126f06000830186611e4b565b6126fd6020830185611e4b565b61270a6040830184611cfe565b949350505050565b6000806040838503121561272957612728611c84565b5b600061273785828601611fbf565b925050602061274885828601611fbf565b9150509250929050565b7f4c6f616e4d616e616765723a2046756e64207472616e73666572206661696c6560008201527f6400000000000000000000000000000000000000000000000000000000000000602082015250565b60006127ae6021836120fe565b91506127b982612752565b604082019050919050565b600060208201905081810360008301526127dd816127a1565b9050919050565b60006127ef82611cf4565b91507fffffffffffffffffffffffffffffffffffffffffffffffffffffffffffffffff82036128215761282061217b565b5b60018201905091905056fea2646970667358221220ecb4d3f962987decede6588cedf991f99ec9a76d15cd868bb719569b2e83751d64736f6c63430008140033",
  "linkReferences": {},
  "deployedLinkReferences": {}
}