{
  "_format": "hh-sol-artifact-1",
  "contractName": "MellowFinanceLoanManager",
  "sourceName": "contracts/LoanManagerV2.sol",
  "abi": [
    {
      "inputs": [
        {
          "internalType": "address",
          "name": "_MFCM",
          "type": "address"
        }
      ],
      "stateMutability": "nonpayable",
      "type": "constructor"
    },
    {
      "inputs": [],
      "name": "EnforcedPause",
      "type": "error"
    },
    {
      "inputs": [],
      "name": "ExpectedPause",
      "type": "error"
    },
    {
      "inputs": [
        {
          "internalType": "address",
          "name": "owner",
          "type": "address"
        }
      ],
      "name": "OwnableInvalidOwner",
      "type": "error"
    },
    {
      "inputs": [
        {
          "internalType": "address",
          "name": "account",
          "type": "address"
        }
      ],
      "name": "OwnableUnauthorizedAccount",
      "type": "error"
    },
    {
      "inputs": [],
      "name": "ReentrancyGuardReentrantCall",
      "type": "error"
    },
    {
      "anonymous": false,
      "inputs": [],
      "name": "EmergencyPaused",
      "type": "event"
    },
    {
      "anonymous": false,
      "inputs": [],
      "name": "EmergencyUnpaused",
      "type": "event"
    },
    {
      "anonymous": false,
      "inputs": [
        {
          "indexed": false,
          "internalType": "uint256",
          "name": "amount",
          "type": "uint256"
        }
      ],
      "name": "FundAdded",
      "type": "event"
    },
    {
      "anonymous": false,
      "inputs": [
        {
          "indexed": true,
          "internalType": "address",
          "name": "user",
          "type": "address"
        },
        {
          "indexed": false,
          "internalType": "uint256",
          "name": "collateralLiquidated",
          "type": "uint256"
        }
      ],
      "name": "LoanDefaulted",
      "type": "event"
    },
    {
      "anonymous": false,
      "inputs": [
        {
          "indexed": true,
          "internalType": "address",
          "name": "user",
          "type": "address"
        },
        {
          "indexed": false,
          "internalType": "uint256",
          "name": "amount",
          "type": "uint256"
        },
        {
          "indexed": false,
          "internalType": "uint256",
          "name": "collateral",
          "type": "uint256"
        }
      ],
      "name": "LoanIssued",
      "type": "event"
    },
    {
      "anonymous": false,
      "inputs": [
        {
          "indexed": true,
          "internalType": "address",
          "name": "user",
          "type": "address"
        },
        {
          "indexed": false,
          "internalType": "uint256",
          "name": "amount",
          "type": "uint256"
        },
        {
          "indexed": false,
          "internalType": "uint256",
          "name": "collateralReturned",
          "type": "uint256"
        }
      ],
      "name": "LoanRepaid",
      "type": "event"
    },
    {
      "anonymous": false,
      "inputs": [
        {
          "indexed": true,
          "internalType": "address",
          "name": "user",
          "type": "address"
        },
        {
          "indexed": false,
          "internalType": "uint256",
          "name": "amount",
          "type": "uint256"
        },
        {
          "indexed": false,
          "internalType": "uint256",
          "name": "collateral",
          "type": "uint256"
        }
      ],
      "name": "LoanRequested",
      "type": "event"
    },
    {
      "anonymous": false,
      "inputs": [
        {
          "indexed": true,
          "internalType": "address",
          "name": "previousOwner",
          "type": "address"
        },
        {
          "indexed": true,
          "internalType": "address",
          "name": "newOwner",
          "type": "address"
        }
      ],
      "name": "OwnershipTransferred",
      "type": "event"
    },
    {
      "anonymous": false,
      "inputs": [
        {
          "indexed": false,
          "internalType": "address",
          "name": "account",
          "type": "address"
        }
      ],
      "name": "Paused",
      "type": "event"
    },
    {
      "anonymous": false,
      "inputs": [
        {
          "indexed": false,
          "internalType": "address",
          "name": "account",
          "type": "address"
        }
      ],
      "name": "Unpaused",
      "type": "event"
    },
    {
      "inputs": [],
      "name": "LOAN_SIZE_FACTOR",
      "outputs": [
        {
          "internalType": "uint256",
          "name": "",
          "type": "uint256"
        }
      ],
      "stateMutability": "view",
      "type": "function"
    },
    {
      "inputs": [
        {
          "internalType": "uint256",
          "name": "_amount",
          "type": "uint256"
        }
      ],
      "name": "addFunds",
      "outputs": [],
      "stateMutability": "nonpayable",
      "type": "function"
    },
    {
      "inputs": [],
      "name": "baseInterestRate",
      "outputs": [
        {
          "internalType": "uint256",
          "name": "",
          "type": "uint256"
        }
      ],
      "stateMutability": "view",
      "type": "function"
    },
    {
      "inputs": [],
      "name": "cUSDToken",
      "outputs": [
        {
          "internalType": "contract ERC20",
          "name": "",
          "type": "address"
        }
      ],
      "stateMutability": "view",
      "type": "function"
    },
    {
      "inputs": [
        {
          "internalType": "address",
          "name": "_user",
          "type": "address"
        }
      ],
      "name": "calculateLoanWithInterest",
      "outputs": [
        {
          "internalType": "uint256",
          "name": "",
          "type": "uint256"
        }
      ],
      "stateMutability": "view",
      "type": "function"
    },
    {
      "inputs": [],
      "name": "collateralManager",
      "outputs": [
        {
          "internalType": "contract MellowFinanceCollateralManager",
          "name": "",
          "type": "address"
        }
      ],
      "stateMutability": "view",
      "type": "function"
    },
    {
      "inputs": [],
      "name": "defaultDuration",
      "outputs": [
        {
          "internalType": "uint256",
          "name": "",
          "type": "uint256"
        }
      ],
      "stateMutability": "view",
      "type": "function"
    },
    {
      "inputs": [
        {
          "internalType": "address",
          "name": "_user",
          "type": "address"
        },
        {
          "internalType": "uint256",
          "name": "_extraTime",
          "type": "uint256"
        }
      ],
      "name": "extendLoanDuration",
      "outputs": [],
      "stateMutability": "nonpayable",
      "type": "function"
    },
    {
      "inputs": [],
      "name": "fundPool",
      "outputs": [
        {
          "internalType": "uint256",
          "name": "",
          "type": "uint256"
        }
      ],
      "stateMutability": "view",
      "type": "function"
    },
    {
      "inputs": [
        {
          "internalType": "address",
          "name": "_user",
          "type": "address"
        }
      ],
      "name": "getCollinUSD",
      "outputs": [
        {
          "internalType": "uint256",
          "name": "",
          "type": "uint256"
        }
      ],
      "stateMutability": "view",
      "type": "function"
    },
    {
      "inputs": [],
      "name": "getMaxLoan",
      "outputs": [
        {
          "internalType": "uint256",
          "name": "",
          "type": "uint256"
        }
      ],
      "stateMutability": "view",
      "type": "function"
    },
    {
      "inputs": [],
      "name": "getNativePrice",
      "outputs": [
        {
          "internalType": "int256",
          "name": "",
          "type": "int256"
        }
      ],
      "stateMutability": "view",
      "type": "function"
    },
    {
      "inputs": [],
      "name": "getStablePrice",
      "outputs": [
        {
          "internalType": "int256",
          "name": "",
          "type": "int256"
        }
      ],
      "stateMutability": "view",
      "type": "function"
    },
    {
      "inputs": [
        {
          "internalType": "address",
          "name": "_user",
          "type": "address"
        }
      ],
      "name": "liquidateCollateral",
      "outputs": [],
      "stateMutability": "nonpayable",
      "type": "function"
    },
    {
      "inputs": [],
      "name": "owner",
      "outputs": [
        {
          "internalType": "address",
          "name": "",
          "type": "address"
        }
      ],
      "stateMutability": "view",
      "type": "function"
    },
    {
      "inputs": [],
      "name": "pause",
      "outputs": [],
      "stateMutability": "nonpayable",
      "type": "function"
    },
    {
      "inputs": [],
      "name": "paused",
      "outputs": [
        {
          "internalType": "bool",
          "name": "",
          "type": "bool"
        }
      ],
      "stateMutability": "view",
      "type": "function"
    },
    {
      "inputs": [],
      "name": "renounceOwnership",
      "outputs": [],
      "stateMutability": "nonpayable",
      "type": "function"
    },
    {
      "inputs": [
        {
          "internalType": "uint256",
          "name": "_repayAmount",
          "type": "uint256"
        }
      ],
      "name": "repayLoan",
      "outputs": [],
      "stateMutability": "nonpayable",
      "type": "function"
    },
    {
      "inputs": [
        {
          "internalType": "uint256",
          "name": "_loanAmount",
          "type": "uint256"
        }
      ],
      "name": "requestLoan",
      "outputs": [],
      "stateMutability": "nonpayable",
      "type": "function"
    },
    {
      "inputs": [],
      "name": "returnFunds",
      "outputs": [],
      "stateMutability": "nonpayable",
      "type": "function"
    },
    {
      "inputs": [
        {
          "internalType": "address",
          "name": "newOwner",
          "type": "address"
        }
      ],
      "name": "transferOwnership",
      "outputs": [],
      "stateMutability": "nonpayable",
      "type": "function"
    },
    {
      "inputs": [],
      "name": "unpause",
      "outputs": [],
      "stateMutability": "nonpayable",
      "type": "function"
    },
    {
      "inputs": [
        {
          "internalType": "address",
          "name": "",
          "type": "address"
        }
      ],
      "name": "userCreditScores",
      "outputs": [
        {
          "internalType": "uint256",
          "name": "totalLoansRepaid",
          "type": "uint256"
        },
        {
          "internalType": "uint256",
          "name": "totalLoansDefaulted",
          "type": "uint256"
        },
        {
          "internalType": "uint256",
          "name": "creditScore",
          "type": "uint256"
        },
        {
          "internalType": "uint256",
          "name": "lastLoanAmount",
          "type": "uint256"
        }
      ],
      "stateMutability": "view",
      "type": "function"
    },
    {
      "inputs": [
        {
          "internalType": "address",
          "name": "",
          "type": "address"
        }
      ],
      "name": "userLoans",
      "outputs": [
        {
          "internalType": "uint256",
          "name": "amount",
          "type": "uint256"
        },
        {
          "internalType": "uint256",
          "name": "interestRate",
          "type": "uint256"
        },
        {
          "internalType": "uint256",
          "name": "startTime",
          "type": "uint256"
        },
        {
          "internalType": "uint256",
          "name": "collateral",
          "type": "uint256"
        },
        {
          "internalType": "uint256",
          "name": "collateralRatio",
          "type": "uint256"
        },
        {
          "internalType": "bool",
          "name": "isRepaid",
          "type": "bool"
        },
        {
          "internalType": "bool",
          "name": "isDefaulted",
          "type": "bool"
        }
      ],
      "stateMutability": "view",
      "type": "function"
    }
  ],
  "bytecode": "0x60806040526213c68060055560056006553480156200001d57600080fd5b5060405162002b9f38038062002b9f833981810160405281019062000043919062000365565b336001600081905550600073ffffffffffffffffffffffffffffffffffffffff168173ffffffffffffffffffffffffffffffffffffffff1603620000c15760006040517f1e4fbdf7000000000000000000000000000000000000000000000000000000008152600401620000b89190620003a8565b60405180910390fd5b620000d2816200023560201b60201c565b506000600160146101000a81548160ff02191690831515021790555073036cbd53842c5426634e7929541ec2318f3dcf7e600260006101000a81548173ffffffffffffffffffffffffffffffffffffffff021916908373ffffffffffffffffffffffffffffffffffffffff16021790555080600360006101000a81548173ffffffffffffffffffffffffffffffffffffffff021916908373ffffffffffffffffffffffffffffffffffffffff160217905550733c65e28d357a37589e1c7c86044a9f44ddc17134600760006101000a81548173ffffffffffffffffffffffffffffffffffffffff021916908373ffffffffffffffffffffffffffffffffffffffff160217905550733ec8593f930ea45ea58c968260e6e9ff53fc934f600860006101000a81548173ffffffffffffffffffffffffffffffffffffffff021916908373ffffffffffffffffffffffffffffffffffffffff16021790555050620003c5565b6000600160009054906101000a900473ffffffffffffffffffffffffffffffffffffffff16905081600160006101000a81548173ffffffffffffffffffffffffffffffffffffffff021916908373ffffffffffffffffffffffffffffffffffffffff1602179055508173ffffffffffffffffffffffffffffffffffffffff168173ffffffffffffffffffffffffffffffffffffffff167f8be0079c531659141344cd1fd0a4f28419497f9722a3daafe3b4186f6b6457e060405160405180910390a35050565b600080fd5b600073ffffffffffffffffffffffffffffffffffffffff82169050919050565b60006200032d8262000300565b9050919050565b6200033f8162000320565b81146200034b57600080fd5b50565b6000815190506200035f8162000334565b92915050565b6000602082840312156200037e576200037d620002fb565b5b60006200038e848285016200034e565b91505092915050565b620003a28162000320565b82525050565b6000602082019050620003bf600083018462000397565b92915050565b6127ca80620003d56000396000f3fe608060405234801561001057600080fd5b50600436106101735760003560e01c80635c975abb116100de5780638da5cb5b11610097578063be99970511610071578063be999705146103cf578063e9e190a3146103eb578063ec9e039314610421578063f2fde38b1461043f57610173565b80638da5cb5b14610377578063ab7b1c8914610395578063afd92762146103b157610173565b80635c975abb146102db57806361cb6afd146102f957806370f37d2714610329578063715018a6146103475780638456cb59146103515780638d5d34291461035b57610173565b8063237c343a11610130578063237c343a1461021457806323be345c146102325780632af7e2ea14610250578063399fbc691461026e5780633f4ba83a1461029e578063449d31bb146102a857610173565b80630ea86ad81461017857806317430c9e146101965780631eb5ea2e146101b45780631fea5a6b146101be578063213d1a9b146101da57806322f9913e146101f8575b600080fd5b61018061045b565b60405161018d9190611bdd565b60405180910390f35b61019e610481565b6040516101ab9190611c11565b60405180910390f35b6101bc610522565b005b6101d860048036038101906101d39190611c6f565b610677565b005b6101e2610886565b6040516101ef9190611cb5565b60405180910390f35b610212600480360381019061020d9190611cfc565b6108b9565b005b61021c61096b565b6040516102299190611cb5565b60405180910390f35b61023a610970565b6040516102479190611d5d565b60405180910390f35b610258610996565b6040516102659190611cb5565b60405180910390f35b61028860048036038101906102839190611c6f565b61099c565b6040516102959190611cb5565b60405180910390f35b6102a6610ab4565b005b6102c260048036038101906102bd9190611c6f565b610af2565b6040516102d29493929190611d78565b60405180910390f35b6102e3610b22565b6040516102f09190611dd8565b60405180910390f35b610313600480360381019061030e9190611c6f565b610b39565b6040516103209190611cb5565b60405180910390f35b610331610c50565b60405161033e9190611cb5565b60405180910390f35b61034f610c56565b005b610359610c6a565b005b61037560048036038101906103709190611df3565b610ca8565b005b61037f61108c565b60405161038c9190611e2f565b60405180910390f35b6103af60048036038101906103aa9190611df3565b6110b6565b005b6103b9611441565b6040516103c69190611cb5565b60405180910390f35b6103e960048036038101906103e49190611df3565b611447565b005b61040560048036038101906104009190611c6f565b611583565b6040516104189796959493929190611e4a565b60405180910390f35b6104296115df565b6040516104369190611c11565b60405180910390f35b61045960048036038101906104549190611c6f565b611680565b005b600260009054906101000a900473ffffffffffffffffffffffffffffffffffffffff1681565b600080600760009054906101000a900473ffffffffffffffffffffffffffffffffffffffff1673ffffffffffffffffffffffffffffffffffffffff1663feaf968c6040518163ffffffff1660e01b815260040160a060405180830381865afa1580156104f1573d6000803e3d6000fd5b505050506040513d601f19601f820116820180604052508101906105159190611f3c565b5050509150508091505090565b61052a611706565b6000600481905550600260009054906101000a900473ffffffffffffffffffffffffffffffffffffffff1673ffffffffffffffffffffffffffffffffffffffff1663a9059cbb61057861108c565b600260009054906101000a900473ffffffffffffffffffffffffffffffffffffffff1673ffffffffffffffffffffffffffffffffffffffff166370a08231306040518263ffffffff1660e01b81526004016105d39190611e2f565b602060405180830381865afa1580156105f0573d6000803e3d6000fd5b505050506040513d601f19601f820116820180604052508101906106149190611fb7565b6040518363ffffffff1660e01b8152600401610631929190611fe4565b6020604051808303816000875af1158015610650573d6000803e3d6000fd5b505050506040513d601f19601f820116820180604052508101906106749190612039565b50565b61067f611706565b61068761178d565b6000600960008373ffffffffffffffffffffffffffffffffffffffff1673ffffffffffffffffffffffffffffffffffffffff16815260200190815260200160002090506000816000015411610711576040517f08c379a0000000000000000000000000000000000000000000000000000000008152600401610708906120c3565b60405180910390fd5b600554816004015482600201546107289190612112565b6107329190612112565b4211610773576040517f08c379a000000000000000000000000000000000000000000000000000000000815260040161076a906121b8565b60405180910390fd5b60018160050160016101000a81548160ff02191690831515021790555061079b8260006117d3565b600360009054906101000a900473ffffffffffffffffffffffffffffffffffffffff1673ffffffffffffffffffffffffffffffffffffffff16631fea5a6b836040518263ffffffff1660e01b81526004016107f69190611e2f565b600060405180830381600087803b15801561081057600080fd5b505af1158015610824573d6000803e3d6000fd5b505050508173ffffffffffffffffffffffffffffffffffffffff167f0be253503c49f8fb02046da3ef57bc2f5f881eb14ba5c2c26b54bf2fb4e7db0782600301546040516108729190611cb5565b60405180910390a250610883611940565b50565b6000806108923361099c565b9050600060966064836108a591906121d8565b6108af9190612249565b9050809250505090565b6108c1611706565b6000600960008473ffffffffffffffffffffffffffffffffffffffff1673ffffffffffffffffffffffffffffffffffffffff1681526020019081526020016000209050600081600001541161094b576040517f08c379a0000000000000000000000000000000000000000000000000000000008152600401610942906120c3565b60405180910390fd5b8181600201600082825461095f9190612112565b92505081905550505050565b600581565b600360009054906101000a900473ffffffffffffffffffffffffffffffffffffffff1681565b60055481565b6000806000600360009054906101000a900473ffffffffffffffffffffffffffffffffffffffff1673ffffffffffffffffffffffffffffffffffffffff16632703ee85856040518263ffffffff1660e01b81526004016109fc9190611e2f565b6040805180830381865afa158015610a18573d6000803e3d6000fd5b505050506040513d601f19601f82011682018060405250810190610a3c919061227a565b915091506000610a4a610481565b90506000610a566115df565b905060006305f5e1008386610a6b91906121d8565b610a759190612249565b90506000620f42408386610a8991906121d8565b610a939190612249565b905060008183610aa39190612112565b905080975050505050505050919050565b610abc611706565b610ac461194a565b7f15de7ad89d29fd1c6d2e6b1e878453569b4080edf34e0105faaa3bd52f01853060405160405180910390a1565b600a6020528060005260406000206000915090508060000154908060010154908060020154908060030154905084565b6000600160149054906101000a900460ff16905090565b600080600960008473ffffffffffffffffffffffffffffffffffffffff1673ffffffffffffffffffffffffffffffffffffffff1681526020019081526020016000206040518060e001604052908160008201548152602001600182015481526020016002820154815260200160038201548152602001600482015481526020016005820160009054906101000a900460ff161515151581526020016005820160019054906101000a900460ff16151515158152505090506000816040015142610c0291906122ba565b9050600063bbf81e008284602001518560000151610c2091906121d8565b610c2a91906121d8565b610c349190612249565b9050808360000151610c469190612112565b9350505050919050565b60045481565b610c5e611706565b610c6860006119ad565b565b610c72611706565b610c7a611a73565b7f4cb3183d0bf66f9634b15cfc3539fdddc96c2c9324848af89b56586a6739fec460405160405180910390a1565b610cb061178d565b610cb8611ad5565b60008111610cfb576040517f08c379a0000000000000000000000000000000000000000000000000000000008152600401610cf290612360565b60405180910390fd5b6000600960003373ffffffffffffffffffffffffffffffffffffffff1673ffffffffffffffffffffffffffffffffffffffff1681526020019081526020016000206000015414610d80576040517f08c379a0000000000000000000000000000000000000000000000000000000008152600401610d77906123f2565b60405180910390fd5b6000610d8b3361099c565b9050600060969050600081606484610da391906121d8565b610dad9190612249565b905080841115610df2576040517f08c379a0000000000000000000000000000000000000000000000000000000008152600401610de990612484565b60405180910390fd5b60006040518060e001604052808681526020016005815260200142815260200185815260200184815260200160001515815260200160001515815250905080600960003373ffffffffffffffffffffffffffffffffffffffff1673ffffffffffffffffffffffffffffffffffffffff168152602001908152602001600020600082015181600001556020820151816001015560408201518160020155606082015181600301556080820151816004015560a08201518160050160006101000a81548160ff02191690831515021790555060c08201518160050160016101000a81548160ff021916908315150217905550905050600260009054906101000a900473ffffffffffffffffffffffffffffffffffffffff1673ffffffffffffffffffffffffffffffffffffffff1663a9059cbb33876040518363ffffffff1660e01b8152600401610f42929190611fe4565b6020604051808303816000875af1158015610f61573d6000803e3d6000fd5b505050506040513d601f19601f82011682018060405250810190610f859190612039565b610fc4576040517f08c379a0000000000000000000000000000000000000000000000000000000008152600401610fbb90612516565b60405180910390fd5b8460046000828254610fd691906122ba565b925050819055503373ffffffffffffffffffffffffffffffffffffffff167f7468760830aff5679376e50470c0493d21c88c599388e89b08c9512b3f3fbc7d8686604051611025929190612536565b60405180910390a23373ffffffffffffffffffffffffffffffffffffffff167f1c793c0fda4a6b2b79dd68d91d9f7fde8f7aa0878615c36a4624e6ccdbb1ead18686604051611075929190612536565b60405180910390a250505050611089611940565b50565b6000600160009054906101000a900473ffffffffffffffffffffffffffffffffffffffff16905090565b6110be61178d565b6110c6611ad5565b6000600960003373ffffffffffffffffffffffffffffffffffffffff1673ffffffffffffffffffffffffffffffffffffffff16815260200190815260200160002090506000816000015411611150576040517f08c379a0000000000000000000000000000000000000000000000000000000008152600401611147906120c3565b60405180910390fd5b8060050160009054906101000a900460ff16156111a2576040517f08c379a0000000000000000000000000000000000000000000000000000000008152600401611199906125d1565b60405180910390fd5b60006111ad33610b39565b9050808310156111f2576040517f08c379a00000000000000000000000000000000000000000000000000000000081526004016111e990612663565b60405180910390fd5b600260009054906101000a900473ffffffffffffffffffffffffffffffffffffffff1673ffffffffffffffffffffffffffffffffffffffff166323b872dd3330866040518463ffffffff1660e01b815260040161125193929190612683565b6020604051808303816000875af1158015611270573d6000803e3d6000fd5b505050506040513d601f19601f820116820180604052508101906112949190612039565b5060018260050160006101000a81548160ff0219169083151502179055506112bd3360016117d3565b600360009054906101000a900473ffffffffffffffffffffffffffffffffffffffff1673ffffffffffffffffffffffffffffffffffffffff1663192e7a7b336040518263ffffffff1660e01b81526004016113189190611e2f565b600060405180830381600087803b15801561133257600080fd5b505af1158015611346573d6000803e3d6000fd5b50505050600960003373ffffffffffffffffffffffffffffffffffffffff1673ffffffffffffffffffffffffffffffffffffffff16815260200190815260200160002060008082016000905560018201600090556002820160009055600382016000905560048201600090556005820160006101000a81549060ff02191690556005820160016101000a81549060ff021916905550503373ffffffffffffffffffffffffffffffffffffffff167fc7ce0a35f17b490de2a317e7fecb2cae86b1abffb03800b2f4928235213826988360000154846003015460405161142c929190612536565b60405180910390a2505061143e611940565b50565b60065481565b61144f611706565b600260009054906101000a900473ffffffffffffffffffffffffffffffffffffffff1673ffffffffffffffffffffffffffffffffffffffff166323b872dd3330846040518463ffffffff1660e01b81526004016114ae93929190612683565b6020604051808303816000875af11580156114cd573d6000803e3d6000fd5b505050506040513d601f19601f820116820180604052508101906114f19190612039565b611530576040517f08c379a00000000000000000000000000000000000000000000000000000000081526004016115279061272c565b60405180910390fd5b80600460008282546115429190612112565b925050819055507fdfa1544d71975f6aad289acdbd6a695a0789ed2f94a3aa775d08d2bbc570af6d816040516115789190611cb5565b60405180910390a150565b60096020528060005260406000206000915090508060000154908060010154908060020154908060030154908060040154908060050160009054906101000a900460ff16908060050160019054906101000a900460ff16905087565b600080600860009054906101000a900473ffffffffffffffffffffffffffffffffffffffff1673ffffffffffffffffffffffffffffffffffffffff1663feaf968c6040518163ffffffff1660e01b815260040160a060405180830381865afa15801561164f573d6000803e3d6000fd5b505050506040513d601f19601f820116820180604052508101906116739190611f3c565b5050509150508091505090565b611688611706565b600073ffffffffffffffffffffffffffffffffffffffff168173ffffffffffffffffffffffffffffffffffffffff16036116fa5760006040517f1e4fbdf70000000000000000000000000000000000000000000000000000000081526004016116f19190611e2f565b60405180910390fd5b611703816119ad565b50565b61170e611b16565b73ffffffffffffffffffffffffffffffffffffffff1661172c61108c565b73ffffffffffffffffffffffffffffffffffffffff161461178b5761174f611b16565b6040517f118cdaa70000000000000000000000000000000000000000000000000000000081526004016117829190611e2f565b60405180910390fd5b565b6002600054036117c9576040517f3ee5aeb500000000000000000000000000000000000000000000000000000000815260040160405180910390fd5b6002600081905550565b6000600a60008473ffffffffffffffffffffffffffffffffffffffff1673ffffffffffffffffffffffffffffffffffffffff16815260200190815260200160002090506000600960008573ffffffffffffffffffffffffffffffffffffffff1673ffffffffffffffffffffffffffffffffffffffff16815260200190815260200160002060000154905082156118a9578160000160008154809291906118789061274c565b919050555060058161188a91906121d8565b82600201600082825461189d9190612112565b925050819055506118eb565b8160010160008154809291906118be9061274c565b91905055506005816118d091906121d8565b8260020160008282546118e391906122ba565b925050819055505b600582600101546118fc91906121d8565b600a836000015461190d91906121d8565b61191791906122ba565b82600201600082825461192a9190612112565b9250508190555080826003018190555050505050565b6001600081905550565b611952611b1e565b6000600160146101000a81548160ff0219169083151502179055507f5db9ee0a495bf2e6ff9c91a7834c1ba4fdd244a5e8aa4e537bd38aeae4b073aa611996611b16565b6040516119a39190611e2f565b60405180910390a1565b6000600160009054906101000a900473ffffffffffffffffffffffffffffffffffffffff16905081600160006101000a81548173ffffffffffffffffffffffffffffffffffffffff021916908373ffffffffffffffffffffffffffffffffffffffff1602179055508173ffffffffffffffffffffffffffffffffffffffff168173ffffffffffffffffffffffffffffffffffffffff167f8be0079c531659141344cd1fd0a4f28419497f9722a3daafe3b4186f6b6457e060405160405180910390a35050565b611a7b611ad5565b60018060146101000a81548160ff0219169083151502179055507f62e78cea01bee320cd4e420270b5ea74000d11b0c9f74754ebdbfc544b05a258611abe611b16565b604051611acb9190611e2f565b60405180910390a1565b611add610b22565b15611b14576040517fd93c066500000000000000000000000000000000000000000000000000000000815260040160405180910390fd5b565b600033905090565b611b26610b22565b611b5c576040517f8dfc202b00000000000000000000000000000000000000000000000000000000815260040160405180910390fd5b565b600073ffffffffffffffffffffffffffffffffffffffff82169050919050565b6000819050919050565b6000611ba3611b9e611b9984611b5e565b611b7e565b611b5e565b9050919050565b6000611bb582611b88565b9050919050565b6000611bc782611baa565b9050919050565b611bd781611bbc565b82525050565b6000602082019050611bf26000830184611bce565b92915050565b6000819050919050565b611c0b81611bf8565b82525050565b6000602082019050611c266000830184611c02565b92915050565b600080fd5b6000611c3c82611b5e565b9050919050565b611c4c81611c31565b8114611c5757600080fd5b50565b600081359050611c6981611c43565b92915050565b600060208284031215611c8557611c84611c2c565b5b6000611c9384828501611c5a565b91505092915050565b6000819050919050565b611caf81611c9c565b82525050565b6000602082019050611cca6000830184611ca6565b92915050565b611cd981611c9c565b8114611ce457600080fd5b50565b600081359050611cf681611cd0565b92915050565b60008060408385031215611d1357611d12611c2c565b5b6000611d2185828601611c5a565b9250506020611d3285828601611ce7565b9150509250929050565b6000611d4782611baa565b9050919050565b611d5781611d3c565b82525050565b6000602082019050611d726000830184611d4e565b92915050565b6000608082019050611d8d6000830187611ca6565b611d9a6020830186611ca6565b611da76040830185611ca6565b611db46060830184611ca6565b95945050505050565b60008115159050919050565b611dd281611dbd565b82525050565b6000602082019050611ded6000830184611dc9565b92915050565b600060208284031215611e0957611e08611c2c565b5b6000611e1784828501611ce7565b91505092915050565b611e2981611c31565b82525050565b6000602082019050611e446000830184611e20565b92915050565b600060e082019050611e5f600083018a611ca6565b611e6c6020830189611ca6565b611e796040830188611ca6565b611e866060830187611ca6565b611e936080830186611ca6565b611ea060a0830185611dc9565b611ead60c0830184611dc9565b98975050505050505050565b600069ffffffffffffffffffff82169050919050565b611ed881611eb9565b8114611ee357600080fd5b50565b600081519050611ef581611ecf565b92915050565b611f0481611bf8565b8114611f0f57600080fd5b50565b600081519050611f2181611efb565b92915050565b600081519050611f3681611cd0565b92915050565b600080600080600060a08688031215611f5857611f57611c2c565b5b6000611f6688828901611ee6565b9550506020611f7788828901611f12565b9450506040611f8888828901611f27565b9350506060611f9988828901611f27565b9250506080611faa88828901611ee6565b9150509295509295909350565b600060208284031215611fcd57611fcc611c2c565b5b6000611fdb84828501611f27565b91505092915050565b6000604082019050611ff96000830185611e20565b6120066020830184611ca6565b9392505050565b61201681611dbd565b811461202157600080fd5b50565b6000815190506120338161200d565b92915050565b60006020828403121561204f5761204e611c2c565b5b600061205d84828501612024565b91505092915050565b600082825260208201905092915050565b7f4c6f616e4d616e616765723a204e6f20616374697665206c6f616e0000000000600082015250565b60006120ad601b83612066565b91506120b882612077565b602082019050919050565b600060208201905081810360008301526120dc816120a0565b9050919050565b7f4e487b7100000000000000000000000000000000000000000000000000000000600052601160045260246000fd5b600061211d82611c9c565b915061212883611c9c565b92508282019050808211156121405761213f6120e3565b5b92915050565b7f4c6f616e4d616e616765723a204c6f616e206e6f742064656661756c7465642060008201527f7965740000000000000000000000000000000000000000000000000000000000602082015250565b60006121a2602383612066565b91506121ad82612146565b604082019050919050565b600060208201905081810360008301526121d181612195565b9050919050565b60006121e382611c9c565b91506121ee83611c9c565b92508282026121fc81611c9c565b91508282048414831517612213576122126120e3565b5b5092915050565b7f4e487b7100000000000000000000000000000000000000000000000000000000600052601260045260246000fd5b600061225482611c9c565b915061225f83611c9c565b92508261226f5761226e61221a565b5b828204905092915050565b6000806040838503121561229157612290611c2c565b5b600061229f85828601611f27565b92505060206122b085828601611f27565b9150509250929050565b60006122c582611c9c565b91506122d083611c9c565b92508282039050818111156122e8576122e76120e3565b5b92915050565b7f4c6f616e4d616e616765723a204c6f616e20616d6f756e74206d75737420626560008201527f2067726561746572207468616e20300000000000000000000000000000000000602082015250565b600061234a602f83612066565b9150612355826122ee565b604082019050919050565b600060208201905081810360008301526123798161233d565b9050919050565b7f4c6f616e4d616e616765723a204578697374696e67206c6f616e206d7573742060008201527f6265207265706169642066697273740000000000000000000000000000000000602082015250565b60006123dc602f83612066565b91506123e782612380565b604082019050919050565b6000602082019050818103600083015261240b816123cf565b9050919050565b7f4c6f616e4d616e616765723a20496e73756666696369656e7420636f6c6c617460008201527f6572616c00000000000000000000000000000000000000000000000000000000602082015250565b600061246e602483612066565b915061247982612412565b604082019050919050565b6000602082019050818103600083015261249d81612461565b9050919050565b7f4c6f616e4d616e616765723a204c6f616e207472616e73666572206661696c6560008201527f6400000000000000000000000000000000000000000000000000000000000000602082015250565b6000612500602183612066565b915061250b826124a4565b604082019050919050565b6000602082019050818103600083015261252f816124f3565b9050919050565b600060408201905061254b6000830185611ca6565b6125586020830184611ca6565b9392505050565b7f4c6f616e4d616e616765723a204c6f616e20697320616c72656164792072657060008201527f6169640000000000000000000000000000000000000000000000000000000000602082015250565b60006125bb602383612066565b91506125c68261255f565b604082019050919050565b600060208201905081810360008301526125ea816125ae565b9050919050565b7f4c6f616e4d616e616765723a20496e73756666696369656e742072657061796d60008201527f656e740000000000000000000000000000000000000000000000000000000000602082015250565b600061264d602383612066565b9150612658826125f1565b604082019050919050565b6000602082019050818103600083015261267c81612640565b9050919050565b60006060820190506126986000830186611e20565b6126a56020830185611e20565b6126b26040830184611ca6565b949350505050565b7f4c6f616e4d616e616765723a2046756e64207472616e73666572206661696c6560008201527f6400000000000000000000000000000000000000000000000000000000000000602082015250565b6000612716602183612066565b9150612721826126ba565b604082019050919050565b6000602082019050818103600083015261274581612709565b9050919050565b600061275782611c9c565b91507fffffffffffffffffffffffffffffffffffffffffffffffffffffffffffffffff8203612789576127886120e3565b5b60018201905091905056fea2646970667358221220d383a0c6408c74655bcbc5a0f20078dff1d82deb1d0265926d81ea02e2b33e8064736f6c63430008140033",
  "linkReferences": {},
  "deployedLinkReferences": {}
}