{
  "_format": "hh-sol-artifact-1",
  "contractName": "MellowFinanceLoanManager",
  "sourceName": "contracts/LoanManagerV2.sol",
  "abi": [
    {
      "inputs": [
        {
          "internalType": "address",
          "name": "_MFCM",
          "type": "address"
        }
      ],
      "stateMutability": "nonpayable",
      "type": "constructor"
    },
    {
      "inputs": [],
      "name": "EnforcedPause",
      "type": "error"
    },
    {
      "inputs": [],
      "name": "ExpectedPause",
      "type": "error"
    },
    {
      "inputs": [
        {
          "internalType": "address",
          "name": "owner",
          "type": "address"
        }
      ],
      "name": "OwnableInvalidOwner",
      "type": "error"
    },
    {
      "inputs": [
        {
          "internalType": "address",
          "name": "account",
          "type": "address"
        }
      ],
      "name": "OwnableUnauthorizedAccount",
      "type": "error"
    },
    {
      "inputs": [],
      "name": "ReentrancyGuardReentrantCall",
      "type": "error"
    },
    {
      "anonymous": false,
      "inputs": [],
      "name": "EmergencyPaused",
      "type": "event"
    },
    {
      "anonymous": false,
      "inputs": [],
      "name": "EmergencyUnpaused",
      "type": "event"
    },
    {
      "anonymous": false,
      "inputs": [
        {
          "indexed": false,
          "internalType": "uint256",
          "name": "amount",
          "type": "uint256"
        }
      ],
      "name": "FundAdded",
      "type": "event"
    },
    {
      "anonymous": false,
      "inputs": [
        {
          "indexed": true,
          "internalType": "address",
          "name": "user",
          "type": "address"
        },
        {
          "indexed": false,
          "internalType": "uint256",
          "name": "collateralLiquidated",
          "type": "uint256"
        }
      ],
      "name": "LoanDefaulted",
      "type": "event"
    },
    {
      "anonymous": false,
      "inputs": [
        {
          "indexed": true,
          "internalType": "address",
          "name": "user",
          "type": "address"
        },
        {
          "indexed": false,
          "internalType": "uint256",
          "name": "amount",
          "type": "uint256"
        },
        {
          "indexed": false,
          "internalType": "uint256",
          "name": "collateral",
          "type": "uint256"
        }
      ],
      "name": "LoanIssued",
      "type": "event"
    },
    {
      "anonymous": false,
      "inputs": [
        {
          "indexed": true,
          "internalType": "address",
          "name": "user",
          "type": "address"
        },
        {
          "indexed": false,
          "internalType": "uint256",
          "name": "amount",
          "type": "uint256"
        },
        {
          "indexed": false,
          "internalType": "uint256",
          "name": "collateralReturned",
          "type": "uint256"
        }
      ],
      "name": "LoanRepaid",
      "type": "event"
    },
    {
      "anonymous": false,
      "inputs": [
        {
          "indexed": true,
          "internalType": "address",
          "name": "user",
          "type": "address"
        },
        {
          "indexed": false,
          "internalType": "uint256",
          "name": "amount",
          "type": "uint256"
        },
        {
          "indexed": false,
          "internalType": "uint256",
          "name": "collateral",
          "type": "uint256"
        }
      ],
      "name": "LoanRequested",
      "type": "event"
    },
    {
      "anonymous": false,
      "inputs": [
        {
          "indexed": true,
          "internalType": "address",
          "name": "previousOwner",
          "type": "address"
        },
        {
          "indexed": true,
          "internalType": "address",
          "name": "newOwner",
          "type": "address"
        }
      ],
      "name": "OwnershipTransferred",
      "type": "event"
    },
    {
      "anonymous": false,
      "inputs": [
        {
          "indexed": false,
          "internalType": "address",
          "name": "account",
          "type": "address"
        }
      ],
      "name": "Paused",
      "type": "event"
    },
    {
      "anonymous": false,
      "inputs": [
        {
          "indexed": false,
          "internalType": "address",
          "name": "account",
          "type": "address"
        }
      ],
      "name": "Unpaused",
      "type": "event"
    },
    {
      "inputs": [],
      "name": "LOAN_SIZE_FACTOR",
      "outputs": [
        {
          "internalType": "uint256",
          "name": "",
          "type": "uint256"
        }
      ],
      "stateMutability": "view",
      "type": "function"
    },
    {
      "inputs": [
        {
          "internalType": "uint256",
          "name": "_amount",
          "type": "uint256"
        }
      ],
      "name": "addFunds",
      "outputs": [],
      "stateMutability": "nonpayable",
      "type": "function"
    },
    {
      "inputs": [],
      "name": "baseInterestRate",
      "outputs": [
        {
          "internalType": "uint256",
          "name": "",
          "type": "uint256"
        }
      ],
      "stateMutability": "view",
      "type": "function"
    },
    {
      "inputs": [],
      "name": "cUSDToken",
      "outputs": [
        {
          "internalType": "contract ERC20",
          "name": "",
          "type": "address"
        }
      ],
      "stateMutability": "view",
      "type": "function"
    },
    {
      "inputs": [
        {
          "internalType": "address",
          "name": "_user",
          "type": "address"
        }
      ],
      "name": "calculateLoanWithInterest",
      "outputs": [
        {
          "internalType": "uint256",
          "name": "",
          "type": "uint256"
        }
      ],
      "stateMutability": "view",
      "type": "function"
    },
    {
      "inputs": [],
      "name": "collateralManager",
      "outputs": [
        {
          "internalType": "contract MellowFinanceCollateralManager",
          "name": "",
          "type": "address"
        }
      ],
      "stateMutability": "view",
      "type": "function"
    },
    {
      "inputs": [],
      "name": "defaultDuration",
      "outputs": [
        {
          "internalType": "uint256",
          "name": "",
          "type": "uint256"
        }
      ],
      "stateMutability": "view",
      "type": "function"
    },
    {
      "inputs": [
        {
          "internalType": "address",
          "name": "_user",
          "type": "address"
        },
        {
          "internalType": "uint256",
          "name": "_extraTime",
          "type": "uint256"
        }
      ],
      "name": "extendLoanDuration",
      "outputs": [],
      "stateMutability": "nonpayable",
      "type": "function"
    },
    {
      "inputs": [],
      "name": "fundPool",
      "outputs": [
        {
          "internalType": "uint256",
          "name": "",
          "type": "uint256"
        }
      ],
      "stateMutability": "view",
      "type": "function"
    },
    {
      "inputs": [
        {
          "internalType": "address",
          "name": "_user",
          "type": "address"
        }
      ],
      "name": "getCollinUSD",
      "outputs": [
        {
          "internalType": "uint256",
          "name": "",
          "type": "uint256"
        }
      ],
      "stateMutability": "view",
      "type": "function"
    },
    {
      "inputs": [],
      "name": "getMaxLoan",
      "outputs": [
        {
          "internalType": "uint256",
          "name": "",
          "type": "uint256"
        }
      ],
      "stateMutability": "view",
      "type": "function"
    },
    {
      "inputs": [],
      "name": "getNativePrice",
      "outputs": [
        {
          "internalType": "int256",
          "name": "",
          "type": "int256"
        }
      ],
      "stateMutability": "view",
      "type": "function"
    },
    {
      "inputs": [],
      "name": "getStablePrice",
      "outputs": [
        {
          "internalType": "int256",
          "name": "",
          "type": "int256"
        }
      ],
      "stateMutability": "view",
      "type": "function"
    },
    {
      "inputs": [
        {
          "internalType": "address",
          "name": "_user",
          "type": "address"
        }
      ],
      "name": "liquidateCollateral",
      "outputs": [],
      "stateMutability": "nonpayable",
      "type": "function"
    },
    {
      "inputs": [],
      "name": "owner",
      "outputs": [
        {
          "internalType": "address",
          "name": "",
          "type": "address"
        }
      ],
      "stateMutability": "view",
      "type": "function"
    },
    {
      "inputs": [],
      "name": "pause",
      "outputs": [],
      "stateMutability": "nonpayable",
      "type": "function"
    },
    {
      "inputs": [],
      "name": "paused",
      "outputs": [
        {
          "internalType": "bool",
          "name": "",
          "type": "bool"
        }
      ],
      "stateMutability": "view",
      "type": "function"
    },
    {
      "inputs": [],
      "name": "renounceOwnership",
      "outputs": [],
      "stateMutability": "nonpayable",
      "type": "function"
    },
    {
      "inputs": [
        {
          "internalType": "uint256",
          "name": "_repayAmount",
          "type": "uint256"
        }
      ],
      "name": "repayLoan",
      "outputs": [],
      "stateMutability": "nonpayable",
      "type": "function"
    },
    {
      "inputs": [
        {
          "internalType": "uint256",
          "name": "_loanAmount",
          "type": "uint256"
        },
        {
          "internalType": "uint256",
          "name": "_desiredInterestRate",
          "type": "uint256"
        }
      ],
      "name": "requestLoan",
      "outputs": [],
      "stateMutability": "nonpayable",
      "type": "function"
    },
    {
      "inputs": [],
      "name": "returnFunds",
      "outputs": [],
      "stateMutability": "nonpayable",
      "type": "function"
    },
    {
      "inputs": [
        {
          "internalType": "address",
          "name": "newOwner",
          "type": "address"
        }
      ],
      "name": "transferOwnership",
      "outputs": [],
      "stateMutability": "nonpayable",
      "type": "function"
    },
    {
      "inputs": [],
      "name": "unpause",
      "outputs": [],
      "stateMutability": "nonpayable",
      "type": "function"
    },
    {
      "inputs": [
        {
          "internalType": "address",
          "name": "",
          "type": "address"
        }
      ],
      "name": "userCreditScores",
      "outputs": [
        {
          "internalType": "uint256",
          "name": "totalLoansRepaid",
          "type": "uint256"
        },
        {
          "internalType": "uint256",
          "name": "totalLoansDefaulted",
          "type": "uint256"
        },
        {
          "internalType": "uint256",
          "name": "creditScore",
          "type": "uint256"
        },
        {
          "internalType": "uint256",
          "name": "lastLoanAmount",
          "type": "uint256"
        }
      ],
      "stateMutability": "view",
      "type": "function"
    },
    {
      "inputs": [
        {
          "internalType": "address",
          "name": "",
          "type": "address"
        }
      ],
      "name": "userLoans",
      "outputs": [
        {
          "internalType": "uint256",
          "name": "amount",
          "type": "uint256"
        },
        {
          "internalType": "uint256",
          "name": "interestRate",
          "type": "uint256"
        },
        {
          "internalType": "uint256",
          "name": "startTime",
          "type": "uint256"
        },
        {
          "internalType": "uint256",
          "name": "collateral",
          "type": "uint256"
        },
        {
          "internalType": "uint256",
          "name": "collateralRatio",
          "type": "uint256"
        },
        {
          "internalType": "bool",
          "name": "isRepaid",
          "type": "bool"
        },
        {
          "internalType": "bool",
          "name": "isDefaulted",
          "type": "bool"
        }
      ],
      "stateMutability": "view",
      "type": "function"
    }
  ],
  "bytecode": "0x60806040526213c68060055560056006553480156200001d57600080fd5b5060405162002b5f38038062002b5f833981810160405281019062000043919062000365565b336001600081905550600073ffffffffffffffffffffffffffffffffffffffff168173ffffffffffffffffffffffffffffffffffffffff1603620000c15760006040517f1e4fbdf7000000000000000000000000000000000000000000000000000000008152600401620000b89190620003a8565b60405180910390fd5b620000d2816200023560201b60201c565b506000600160146101000a81548160ff02191690831515021790555073036cbd53842c5426634e7929541ec2318f3dcf7e600260006101000a81548173ffffffffffffffffffffffffffffffffffffffff021916908373ffffffffffffffffffffffffffffffffffffffff16021790555080600360006101000a81548173ffffffffffffffffffffffffffffffffffffffff021916908373ffffffffffffffffffffffffffffffffffffffff160217905550733c65e28d357a37589e1c7c86044a9f44ddc17134600760006101000a81548173ffffffffffffffffffffffffffffffffffffffff021916908373ffffffffffffffffffffffffffffffffffffffff160217905550733ec8593f930ea45ea58c968260e6e9ff53fc934f600860006101000a81548173ffffffffffffffffffffffffffffffffffffffff021916908373ffffffffffffffffffffffffffffffffffffffff16021790555050620003c5565b6000600160009054906101000a900473ffffffffffffffffffffffffffffffffffffffff16905081600160006101000a81548173ffffffffffffffffffffffffffffffffffffffff021916908373ffffffffffffffffffffffffffffffffffffffff1602179055508173ffffffffffffffffffffffffffffffffffffffff168173ffffffffffffffffffffffffffffffffffffffff167f8be0079c531659141344cd1fd0a4f28419497f9722a3daafe3b4186f6b6457e060405160405180910390a35050565b600080fd5b600073ffffffffffffffffffffffffffffffffffffffff82169050919050565b60006200032d8262000300565b9050919050565b6200033f8162000320565b81146200034b57600080fd5b50565b6000815190506200035f8162000334565b92915050565b6000602082840312156200037e576200037d620002fb565b5b60006200038e848285016200034e565b91505092915050565b620003a28162000320565b82525050565b6000602082019050620003bf600083018462000397565b92915050565b61278a80620003d56000396000f3fe608060405234801561001057600080fd5b50600436106101735760003560e01c80635c975abb116100de578063aa452fa611610097578063be99970511610071578063be999705146103cf578063e9e190a3146103eb578063ec9e039314610421578063f2fde38b1461043f57610173565b8063aa452fa614610379578063ab7b1c8914610395578063afd92762146103b157610173565b80635c975abb146102db57806361cb6afd146102f957806370f37d2714610329578063715018a6146103475780638456cb59146103515780638da5cb5b1461035b57610173565b8063237c343a11610130578063237c343a1461021457806323be345c146102325780632af7e2ea14610250578063399fbc691461026e5780633f4ba83a1461029e578063449d31bb146102a857610173565b80630ea86ad81461017857806317430c9e146101965780631eb5ea2e146101b45780631fea5a6b146101be578063213d1a9b146101da57806322f9913e146101f8575b600080fd5b61018061045b565b60405161018d9190611b5d565b60405180910390f35b61019e610481565b6040516101ab9190611b91565b60405180910390f35b6101bc610522565b005b6101d860048036038101906101d39190611bef565b610677565b005b6101e2610886565b6040516101ef9190611c35565b60405180910390f35b610212600480360381019061020d9190611c7c565b6108b9565b005b61021c61096b565b6040516102299190611c35565b60405180910390f35b61023a610970565b6040516102479190611cdd565b60405180910390f35b610258610996565b6040516102659190611c35565b60405180910390f35b61028860048036038101906102839190611bef565b61099c565b6040516102959190611c35565b60405180910390f35b6102a6610ab4565b005b6102c260048036038101906102bd9190611bef565b610af2565b6040516102d29493929190611cf8565b60405180910390f35b6102e3610b22565b6040516102f09190611d58565b60405180910390f35b610313600480360381019061030e9190611bef565b610b39565b6040516103209190611c35565b60405180910390f35b610331610c50565b60405161033e9190611c35565b60405180910390f35b61034f610c56565b005b610359610c6a565b005b610363610ca8565b6040516103709190611d82565b60405180910390f35b610393600480360381019061038e9190611d9d565b610cd2565b005b6103af60048036038101906103aa9190611ddd565b6110c8565b005b6103b96113c1565b6040516103c69190611c35565b60405180910390f35b6103e960048036038101906103e49190611ddd565b6113c7565b005b61040560048036038101906104009190611bef565b611503565b6040516104189796959493929190611e0a565b60405180910390f35b61042961155f565b6040516104369190611b91565b60405180910390f35b61045960048036038101906104549190611bef565b611600565b005b600260009054906101000a900473ffffffffffffffffffffffffffffffffffffffff1681565b600080600760009054906101000a900473ffffffffffffffffffffffffffffffffffffffff1673ffffffffffffffffffffffffffffffffffffffff1663feaf968c6040518163ffffffff1660e01b815260040160a060405180830381865afa1580156104f1573d6000803e3d6000fd5b505050506040513d601f19601f820116820180604052508101906105159190611efc565b5050509150508091505090565b61052a611686565b600260009054906101000a900473ffffffffffffffffffffffffffffffffffffffff1673ffffffffffffffffffffffffffffffffffffffff1663a9059cbb610570610ca8565b600260009054906101000a900473ffffffffffffffffffffffffffffffffffffffff1673ffffffffffffffffffffffffffffffffffffffff166370a08231306040518263ffffffff1660e01b81526004016105cb9190611d82565b602060405180830381865afa1580156105e8573d6000803e3d6000fd5b505050506040513d601f19601f8201168201806040525081019061060c9190611f77565b6040518363ffffffff1660e01b8152600401610629929190611fa4565b6020604051808303816000875af1158015610648573d6000803e3d6000fd5b505050506040513d601f19601f8201168201806040525081019061066c9190611ff9565b506000600481905550565b61067f611686565b61068761170d565b6000600960008373ffffffffffffffffffffffffffffffffffffffff1673ffffffffffffffffffffffffffffffffffffffff16815260200190815260200160002090506000816000015411610711576040517f08c379a000000000000000000000000000000000000000000000000000000000815260040161070890612083565b60405180910390fd5b6005548160040154826002015461072891906120d2565b61073291906120d2565b4211610773576040517f08c379a000000000000000000000000000000000000000000000000000000000815260040161076a90612178565b60405180910390fd5b60018160050160016101000a81548160ff02191690831515021790555061079b826000611753565b600360009054906101000a900473ffffffffffffffffffffffffffffffffffffffff1673ffffffffffffffffffffffffffffffffffffffff16631fea5a6b836040518263ffffffff1660e01b81526004016107f69190611d82565b600060405180830381600087803b15801561081057600080fd5b505af1158015610824573d6000803e3d6000fd5b505050508173ffffffffffffffffffffffffffffffffffffffff167f0be253503c49f8fb02046da3ef57bc2f5f881eb14ba5c2c26b54bf2fb4e7db0782600301546040516108729190611c35565b60405180910390a2506108836118c0565b50565b6000806108923361099c565b9050600060966064836108a59190612198565b6108af9190612209565b9050809250505090565b6108c1611686565b6000600960008473ffffffffffffffffffffffffffffffffffffffff1673ffffffffffffffffffffffffffffffffffffffff1681526020019081526020016000209050600081600001541161094b576040517f08c379a000000000000000000000000000000000000000000000000000000000815260040161094290612083565b60405180910390fd5b8181600201600082825461095f91906120d2565b92505081905550505050565b600581565b600360009054906101000a900473ffffffffffffffffffffffffffffffffffffffff1681565b60055481565b6000806000600360009054906101000a900473ffffffffffffffffffffffffffffffffffffffff1673ffffffffffffffffffffffffffffffffffffffff16632703ee85856040518263ffffffff1660e01b81526004016109fc9190611d82565b6040805180830381865afa158015610a18573d6000803e3d6000fd5b505050506040513d601f19601f82011682018060405250810190610a3c919061223a565b915091506000610a4a610481565b90506000610a5661155f565b905060006305f5e1008386610a6b9190612198565b610a759190612209565b90506000620f42408386610a899190612198565b610a939190612209565b905060008183610aa391906120d2565b905080975050505050505050919050565b610abc611686565b610ac46118ca565b7f15de7ad89d29fd1c6d2e6b1e878453569b4080edf34e0105faaa3bd52f01853060405160405180910390a1565b600a6020528060005260406000206000915090508060000154908060010154908060020154908060030154905084565b6000600160149054906101000a900460ff16905090565b600080600960008473ffffffffffffffffffffffffffffffffffffffff1673ffffffffffffffffffffffffffffffffffffffff1681526020019081526020016000206040518060e001604052908160008201548152602001600182015481526020016002820154815260200160038201548152602001600482015481526020016005820160009054906101000a900460ff161515151581526020016005820160019054906101000a900460ff16151515158152505090506000816040015142610c02919061227a565b9050600063bbf81e008284602001518560000151610c209190612198565b610c2a9190612198565b610c349190612209565b9050808360000151610c4691906120d2565b9350505050919050565b60045481565b610c5e611686565b610c68600061192d565b565b610c72611686565b610c7a6119f3565b7f4cb3183d0bf66f9634b15cfc3539fdddc96c2c9324848af89b56586a6739fec460405160405180910390a1565b6000600160009054906101000a900473ffffffffffffffffffffffffffffffffffffffff16905090565b610cda61170d565b610ce2611a55565b60008211610d25576040517f08c379a0000000000000000000000000000000000000000000000000000000008152600401610d1c90612320565b60405180910390fd5b6000600960003373ffffffffffffffffffffffffffffffffffffffff1673ffffffffffffffffffffffffffffffffffffffff1681526020019081526020016000206000015414610daa576040517f08c379a0000000000000000000000000000000000000000000000000000000008152600401610da1906123b2565b60405180910390fd5b6000610db53361099c565b9050600060969050600081606484610dcd9190612198565b610dd79190612209565b905080851115610e1c576040517f08c379a0000000000000000000000000000000000000000000000000000000008152600401610e1390612444565b60405180910390fd5b60006040518060e001604052808781526020016006548711610e4057600654610e42565b865b815260200142815260200185815260200184815260200160001515815260200160001515815250905080600960003373ffffffffffffffffffffffffffffffffffffffff1673ffffffffffffffffffffffffffffffffffffffff168152602001908152602001600020600082015181600001556020820151816001015560408201518160020155606082015181600301556080820151816004015560a08201518160050160006101000a81548160ff02191690831515021790555060c08201518160050160016101000a81548160ff021916908315150217905550905050600260009054906101000a900473ffffffffffffffffffffffffffffffffffffffff1673ffffffffffffffffffffffffffffffffffffffff1663a9059cbb33886040518363ffffffff1660e01b8152600401610f7d929190611fa4565b6020604051808303816000875af1158015610f9c573d6000803e3d6000fd5b505050506040513d601f19601f82011682018060405250810190610fc09190611ff9565b610fff576040517f08c379a0000000000000000000000000000000000000000000000000000000008152600401610ff6906124d6565b60405180910390fd5b8560046000828254611011919061227a565b925050819055503373ffffffffffffffffffffffffffffffffffffffff167f7468760830aff5679376e50470c0493d21c88c599388e89b08c9512b3f3fbc7d87866040516110609291906124f6565b60405180910390a23373ffffffffffffffffffffffffffffffffffffffff167f1c793c0fda4a6b2b79dd68d91d9f7fde8f7aa0878615c36a4624e6ccdbb1ead187866040516110b09291906124f6565b60405180910390a2505050506110c46118c0565b5050565b6110d061170d565b6110d8611a55565b6000600960003373ffffffffffffffffffffffffffffffffffffffff1673ffffffffffffffffffffffffffffffffffffffff16815260200190815260200160002090506000816000015411611162576040517f08c379a000000000000000000000000000000000000000000000000000000000815260040161115990612083565b60405180910390fd5b8060050160009054906101000a900460ff16156111b4576040517f08c379a00000000000000000000000000000000000000000000000000000000081526004016111ab90612591565b60405180910390fd5b60006111bf33610b39565b905080831015611204576040517f08c379a00000000000000000000000000000000000000000000000000000000081526004016111fb90612623565b60405180910390fd5b600260009054906101000a900473ffffffffffffffffffffffffffffffffffffffff1673ffffffffffffffffffffffffffffffffffffffff166323b872dd3330866040518463ffffffff1660e01b815260040161126393929190612643565b6020604051808303816000875af1158015611282573d6000803e3d6000fd5b505050506040513d601f19601f820116820180604052508101906112a69190611ff9565b5060018260050160006101000a81548160ff0219169083151502179055506112cf336001611753565b600360009054906101000a900473ffffffffffffffffffffffffffffffffffffffff1673ffffffffffffffffffffffffffffffffffffffff1663192e7a7b336040518263ffffffff1660e01b815260040161132a9190611d82565b600060405180830381600087803b15801561134457600080fd5b505af1158015611358573d6000803e3d6000fd5b505050503373ffffffffffffffffffffffffffffffffffffffff167fc7ce0a35f17b490de2a317e7fecb2cae86b1abffb03800b2f492823521382698836000015484600301546040516113ac9291906124f6565b60405180910390a250506113be6118c0565b50565b60065481565b6113cf611686565b600260009054906101000a900473ffffffffffffffffffffffffffffffffffffffff1673ffffffffffffffffffffffffffffffffffffffff166323b872dd3330846040518463ffffffff1660e01b815260040161142e93929190612643565b6020604051808303816000875af115801561144d573d6000803e3d6000fd5b505050506040513d601f19601f820116820180604052508101906114719190611ff9565b6114b0576040517f08c379a00000000000000000000000000000000000000000000000000000000081526004016114a7906126ec565b60405180910390fd5b80600460008282546114c291906120d2565b925050819055507fdfa1544d71975f6aad289acdbd6a695a0789ed2f94a3aa775d08d2bbc570af6d816040516114f89190611c35565b60405180910390a150565b60096020528060005260406000206000915090508060000154908060010154908060020154908060030154908060040154908060050160009054906101000a900460ff16908060050160019054906101000a900460ff16905087565b600080600860009054906101000a900473ffffffffffffffffffffffffffffffffffffffff1673ffffffffffffffffffffffffffffffffffffffff1663feaf968c6040518163ffffffff1660e01b815260040160a060405180830381865afa1580156115cf573d6000803e3d6000fd5b505050506040513d601f19601f820116820180604052508101906115f39190611efc565b5050509150508091505090565b611608611686565b600073ffffffffffffffffffffffffffffffffffffffff168173ffffffffffffffffffffffffffffffffffffffff160361167a5760006040517f1e4fbdf70000000000000000000000000000000000000000000000000000000081526004016116719190611d82565b60405180910390fd5b6116838161192d565b50565b61168e611a96565b73ffffffffffffffffffffffffffffffffffffffff166116ac610ca8565b73ffffffffffffffffffffffffffffffffffffffff161461170b576116cf611a96565b6040517f118cdaa70000000000000000000000000000000000000000000000000000000081526004016117029190611d82565b60405180910390fd5b565b600260005403611749576040517f3ee5aeb500000000000000000000000000000000000000000000000000000000815260040160405180910390fd5b6002600081905550565b6000600a60008473ffffffffffffffffffffffffffffffffffffffff1673ffffffffffffffffffffffffffffffffffffffff16815260200190815260200160002090506000600960008573ffffffffffffffffffffffffffffffffffffffff1673ffffffffffffffffffffffffffffffffffffffff1681526020019081526020016000206000015490508215611829578160000160008154809291906117f89061270c565b919050555060058161180a9190612198565b82600201600082825461181d91906120d2565b9250508190555061186b565b81600101600081548092919061183e9061270c565b91905055506005816118509190612198565b826002016000828254611863919061227a565b925050819055505b6005826001015461187c9190612198565b600a836000015461188d9190612198565b611897919061227a565b8260020160008282546118aa91906120d2565b9250508190555080826003018190555050505050565b6001600081905550565b6118d2611a9e565b6000600160146101000a81548160ff0219169083151502179055507f5db9ee0a495bf2e6ff9c91a7834c1ba4fdd244a5e8aa4e537bd38aeae4b073aa611916611a96565b6040516119239190611d82565b60405180910390a1565b6000600160009054906101000a900473ffffffffffffffffffffffffffffffffffffffff16905081600160006101000a81548173ffffffffffffffffffffffffffffffffffffffff021916908373ffffffffffffffffffffffffffffffffffffffff1602179055508173ffffffffffffffffffffffffffffffffffffffff168173ffffffffffffffffffffffffffffffffffffffff167f8be0079c531659141344cd1fd0a4f28419497f9722a3daafe3b4186f6b6457e060405160405180910390a35050565b6119fb611a55565b60018060146101000a81548160ff0219169083151502179055507f62e78cea01bee320cd4e420270b5ea74000d11b0c9f74754ebdbfc544b05a258611a3e611a96565b604051611a4b9190611d82565b60405180910390a1565b611a5d610b22565b15611a94576040517fd93c066500000000000000000000000000000000000000000000000000000000815260040160405180910390fd5b565b600033905090565b611aa6610b22565b611adc576040517f8dfc202b00000000000000000000000000000000000000000000000000000000815260040160405180910390fd5b565b600073ffffffffffffffffffffffffffffffffffffffff82169050919050565b6000819050919050565b6000611b23611b1e611b1984611ade565b611afe565b611ade565b9050919050565b6000611b3582611b08565b9050919050565b6000611b4782611b2a565b9050919050565b611b5781611b3c565b82525050565b6000602082019050611b726000830184611b4e565b92915050565b6000819050919050565b611b8b81611b78565b82525050565b6000602082019050611ba66000830184611b82565b92915050565b600080fd5b6000611bbc82611ade565b9050919050565b611bcc81611bb1565b8114611bd757600080fd5b50565b600081359050611be981611bc3565b92915050565b600060208284031215611c0557611c04611bac565b5b6000611c1384828501611bda565b91505092915050565b6000819050919050565b611c2f81611c1c565b82525050565b6000602082019050611c4a6000830184611c26565b92915050565b611c5981611c1c565b8114611c6457600080fd5b50565b600081359050611c7681611c50565b92915050565b60008060408385031215611c9357611c92611bac565b5b6000611ca185828601611bda565b9250506020611cb285828601611c67565b9150509250929050565b6000611cc782611b2a565b9050919050565b611cd781611cbc565b82525050565b6000602082019050611cf26000830184611cce565b92915050565b6000608082019050611d0d6000830187611c26565b611d1a6020830186611c26565b611d276040830185611c26565b611d346060830184611c26565b95945050505050565b60008115159050919050565b611d5281611d3d565b82525050565b6000602082019050611d6d6000830184611d49565b92915050565b611d7c81611bb1565b82525050565b6000602082019050611d976000830184611d73565b92915050565b60008060408385031215611db457611db3611bac565b5b6000611dc285828601611c67565b9250506020611dd385828601611c67565b9150509250929050565b600060208284031215611df357611df2611bac565b5b6000611e0184828501611c67565b91505092915050565b600060e082019050611e1f600083018a611c26565b611e2c6020830189611c26565b611e396040830188611c26565b611e466060830187611c26565b611e536080830186611c26565b611e6060a0830185611d49565b611e6d60c0830184611d49565b98975050505050505050565b600069ffffffffffffffffffff82169050919050565b611e9881611e79565b8114611ea357600080fd5b50565b600081519050611eb581611e8f565b92915050565b611ec481611b78565b8114611ecf57600080fd5b50565b600081519050611ee181611ebb565b92915050565b600081519050611ef681611c50565b92915050565b600080600080600060a08688031215611f1857611f17611bac565b5b6000611f2688828901611ea6565b9550506020611f3788828901611ed2565b9450506040611f4888828901611ee7565b9350506060611f5988828901611ee7565b9250506080611f6a88828901611ea6565b9150509295509295909350565b600060208284031215611f8d57611f8c611bac565b5b6000611f9b84828501611ee7565b91505092915050565b6000604082019050611fb96000830185611d73565b611fc66020830184611c26565b9392505050565b611fd681611d3d565b8114611fe157600080fd5b50565b600081519050611ff381611fcd565b92915050565b60006020828403121561200f5761200e611bac565b5b600061201d84828501611fe4565b91505092915050565b600082825260208201905092915050565b7f4c6f616e4d616e616765723a204e6f20616374697665206c6f616e0000000000600082015250565b600061206d601b83612026565b915061207882612037565b602082019050919050565b6000602082019050818103600083015261209c81612060565b9050919050565b7f4e487b7100000000000000000000000000000000000000000000000000000000600052601160045260246000fd5b60006120dd82611c1c565b91506120e883611c1c565b9250828201905080821115612100576120ff6120a3565b5b92915050565b7f4c6f616e4d616e616765723a204c6f616e206e6f742064656661756c7465642060008201527f7965740000000000000000000000000000000000000000000000000000000000602082015250565b6000612162602383612026565b915061216d82612106565b604082019050919050565b6000602082019050818103600083015261219181612155565b9050919050565b60006121a382611c1c565b91506121ae83611c1c565b92508282026121bc81611c1c565b915082820484148315176121d3576121d26120a3565b5b5092915050565b7f4e487b7100000000000000000000000000000000000000000000000000000000600052601260045260246000fd5b600061221482611c1c565b915061221f83611c1c565b92508261222f5761222e6121da565b5b828204905092915050565b6000806040838503121561225157612250611bac565b5b600061225f85828601611ee7565b925050602061227085828601611ee7565b9150509250929050565b600061228582611c1c565b915061229083611c1c565b92508282039050818111156122a8576122a76120a3565b5b92915050565b7f4c6f616e4d616e616765723a204c6f616e20616d6f756e74206d75737420626560008201527f2067726561746572207468616e20300000000000000000000000000000000000602082015250565b600061230a602f83612026565b9150612315826122ae565b604082019050919050565b60006020820190508181036000830152612339816122fd565b9050919050565b7f4c6f616e4d616e616765723a204578697374696e67206c6f616e206d7573742060008201527f6265207265706169642066697273740000000000000000000000000000000000602082015250565b600061239c602f83612026565b91506123a782612340565b604082019050919050565b600060208201905081810360008301526123cb8161238f565b9050919050565b7f4c6f616e4d616e616765723a20496e73756666696369656e7420636f6c6c617460008201527f6572616c00000000000000000000000000000000000000000000000000000000602082015250565b600061242e602483612026565b9150612439826123d2565b604082019050919050565b6000602082019050818103600083015261245d81612421565b9050919050565b7f4c6f616e4d616e616765723a204c6f616e207472616e73666572206661696c6560008201527f6400000000000000000000000000000000000000000000000000000000000000602082015250565b60006124c0602183612026565b91506124cb82612464565b604082019050919050565b600060208201905081810360008301526124ef816124b3565b9050919050565b600060408201905061250b6000830185611c26565b6125186020830184611c26565b9392505050565b7f4c6f616e4d616e616765723a204c6f616e20697320616c72656164792072657060008201527f6169640000000000000000000000000000000000000000000000000000000000602082015250565b600061257b602383612026565b91506125868261251f565b604082019050919050565b600060208201905081810360008301526125aa8161256e565b9050919050565b7f4c6f616e4d616e616765723a20496e73756666696369656e742072657061796d60008201527f656e740000000000000000000000000000000000000000000000000000000000602082015250565b600061260d602383612026565b9150612618826125b1565b604082019050919050565b6000602082019050818103600083015261263c81612600565b9050919050565b60006060820190506126586000830186611d73565b6126656020830185611d73565b6126726040830184611c26565b949350505050565b7f4c6f616e4d616e616765723a2046756e64207472616e73666572206661696c6560008201527f6400000000000000000000000000000000000000000000000000000000000000602082015250565b60006126d6602183612026565b91506126e18261267a565b604082019050919050565b60006020820190508181036000830152612705816126c9565b9050919050565b600061271782611c1c565b91507fffffffffffffffffffffffffffffffffffffffffffffffffffffffffffffffff8203612749576127486120a3565b5b60018201905091905056fea2646970667358221220ecab2da01d94dcbcccfd8b64a36a61fe33ca657d695943bc5b49795f7014dc8864736f6c63430008140033",
  "linkReferences": {},
  "deployedLinkReferences": {}
}