{
  "_format": "hh-sol-artifact-1",
  "contractName": "MellowFinanceLoanManager",
  "sourceName": "contracts/LoanManagerV2.sol",
  "abi": [
    {
      "inputs": [
        {
          "internalType": "address",
          "name": "_MFCM",
          "type": "address"
        }
      ],
      "stateMutability": "nonpayable",
      "type": "constructor"
    },
    {
      "inputs": [],
      "name": "EnforcedPause",
      "type": "error"
    },
    {
      "inputs": [],
      "name": "ExpectedPause",
      "type": "error"
    },
    {
      "inputs": [
        {
          "internalType": "address",
          "name": "owner",
          "type": "address"
        }
      ],
      "name": "OwnableInvalidOwner",
      "type": "error"
    },
    {
      "inputs": [
        {
          "internalType": "address",
          "name": "account",
          "type": "address"
        }
      ],
      "name": "OwnableUnauthorizedAccount",
      "type": "error"
    },
    {
      "inputs": [],
      "name": "ReentrancyGuardReentrantCall",
      "type": "error"
    },
    {
      "anonymous": false,
      "inputs": [],
      "name": "EmergencyPaused",
      "type": "event"
    },
    {
      "anonymous": false,
      "inputs": [],
      "name": "EmergencyUnpaused",
      "type": "event"
    },
    {
      "anonymous": false,
      "inputs": [
        {
          "indexed": false,
          "internalType": "uint256",
          "name": "amount",
          "type": "uint256"
        }
      ],
      "name": "FundAdded",
      "type": "event"
    },
    {
      "anonymous": false,
      "inputs": [
        {
          "indexed": true,
          "internalType": "address",
          "name": "user",
          "type": "address"
        },
        {
          "indexed": false,
          "internalType": "uint256",
          "name": "collateralLiquidated",
          "type": "uint256"
        }
      ],
      "name": "LoanDefaulted",
      "type": "event"
    },
    {
      "anonymous": false,
      "inputs": [
        {
          "indexed": true,
          "internalType": "address",
          "name": "user",
          "type": "address"
        },
        {
          "indexed": false,
          "internalType": "uint256",
          "name": "amount",
          "type": "uint256"
        },
        {
          "indexed": false,
          "internalType": "uint256",
          "name": "collateral",
          "type": "uint256"
        }
      ],
      "name": "LoanIssued",
      "type": "event"
    },
    {
      "anonymous": false,
      "inputs": [
        {
          "indexed": true,
          "internalType": "address",
          "name": "user",
          "type": "address"
        },
        {
          "indexed": false,
          "internalType": "uint256",
          "name": "amount",
          "type": "uint256"
        },
        {
          "indexed": false,
          "internalType": "uint256",
          "name": "collateralReturned",
          "type": "uint256"
        }
      ],
      "name": "LoanRepaid",
      "type": "event"
    },
    {
      "anonymous": false,
      "inputs": [
        {
          "indexed": true,
          "internalType": "address",
          "name": "user",
          "type": "address"
        },
        {
          "indexed": false,
          "internalType": "uint256",
          "name": "amount",
          "type": "uint256"
        },
        {
          "indexed": false,
          "internalType": "uint256",
          "name": "collateral",
          "type": "uint256"
        }
      ],
      "name": "LoanRequested",
      "type": "event"
    },
    {
      "anonymous": false,
      "inputs": [
        {
          "indexed": true,
          "internalType": "address",
          "name": "previousOwner",
          "type": "address"
        },
        {
          "indexed": true,
          "internalType": "address",
          "name": "newOwner",
          "type": "address"
        }
      ],
      "name": "OwnershipTransferred",
      "type": "event"
    },
    {
      "anonymous": false,
      "inputs": [
        {
          "indexed": false,
          "internalType": "address",
          "name": "account",
          "type": "address"
        }
      ],
      "name": "Paused",
      "type": "event"
    },
    {
      "anonymous": false,
      "inputs": [
        {
          "indexed": false,
          "internalType": "address",
          "name": "account",
          "type": "address"
        }
      ],
      "name": "Unpaused",
      "type": "event"
    },
    {
      "inputs": [],
      "name": "LOAN_SIZE_FACTOR",
      "outputs": [
        {
          "internalType": "uint256",
          "name": "",
          "type": "uint256"
        }
      ],
      "stateMutability": "view",
      "type": "function"
    },
    {
      "inputs": [
        {
          "internalType": "uint256",
          "name": "_amount",
          "type": "uint256"
        }
      ],
      "name": "addFunds",
      "outputs": [],
      "stateMutability": "nonpayable",
      "type": "function"
    },
    {
      "inputs": [],
      "name": "baseInterestRate",
      "outputs": [
        {
          "internalType": "uint256",
          "name": "",
          "type": "uint256"
        }
      ],
      "stateMutability": "view",
      "type": "function"
    },
    {
      "inputs": [],
      "name": "cUSDToken",
      "outputs": [
        {
          "internalType": "contract ERC20",
          "name": "",
          "type": "address"
        }
      ],
      "stateMutability": "view",
      "type": "function"
    },
    {
      "inputs": [
        {
          "internalType": "address",
          "name": "_user",
          "type": "address"
        }
      ],
      "name": "calculateLoanWithInterest",
      "outputs": [
        {
          "internalType": "uint256",
          "name": "",
          "type": "uint256"
        }
      ],
      "stateMutability": "view",
      "type": "function"
    },
    {
      "inputs": [],
      "name": "collateralManager",
      "outputs": [
        {
          "internalType": "contract MellowFinanceCollateralManager",
          "name": "",
          "type": "address"
        }
      ],
      "stateMutability": "view",
      "type": "function"
    },
    {
      "inputs": [],
      "name": "defaultDuration",
      "outputs": [
        {
          "internalType": "uint256",
          "name": "",
          "type": "uint256"
        }
      ],
      "stateMutability": "view",
      "type": "function"
    },
    {
      "inputs": [
        {
          "internalType": "address",
          "name": "_user",
          "type": "address"
        },
        {
          "internalType": "uint256",
          "name": "_extraTime",
          "type": "uint256"
        }
      ],
      "name": "extendLoanDuration",
      "outputs": [],
      "stateMutability": "nonpayable",
      "type": "function"
    },
    {
      "inputs": [],
      "name": "fundPool",
      "outputs": [
        {
          "internalType": "uint256",
          "name": "",
          "type": "uint256"
        }
      ],
      "stateMutability": "view",
      "type": "function"
    },
    {
      "inputs": [
        {
          "internalType": "address",
          "name": "_user",
          "type": "address"
        }
      ],
      "name": "getCollinUSD",
      "outputs": [
        {
          "internalType": "uint256",
          "name": "",
          "type": "uint256"
        }
      ],
      "stateMutability": "view",
      "type": "function"
    },
    {
      "inputs": [],
      "name": "getMaxLoan",
      "outputs": [
        {
          "internalType": "uint256",
          "name": "",
          "type": "uint256"
        }
      ],
      "stateMutability": "view",
      "type": "function"
    },
    {
      "inputs": [],
      "name": "getNativePrice",
      "outputs": [
        {
          "internalType": "int256",
          "name": "",
          "type": "int256"
        }
      ],
      "stateMutability": "view",
      "type": "function"
    },
    {
      "inputs": [],
      "name": "getStablePrice",
      "outputs": [
        {
          "internalType": "int256",
          "name": "",
          "type": "int256"
        }
      ],
      "stateMutability": "view",
      "type": "function"
    },
    {
      "inputs": [
        {
          "internalType": "address",
          "name": "_user",
          "type": "address"
        }
      ],
      "name": "liquidateCollateral",
      "outputs": [],
      "stateMutability": "nonpayable",
      "type": "function"
    },
    {
      "inputs": [],
      "name": "owner",
      "outputs": [
        {
          "internalType": "address",
          "name": "",
          "type": "address"
        }
      ],
      "stateMutability": "view",
      "type": "function"
    },
    {
      "inputs": [],
      "name": "pause",
      "outputs": [],
      "stateMutability": "nonpayable",
      "type": "function"
    },
    {
      "inputs": [],
      "name": "paused",
      "outputs": [
        {
          "internalType": "bool",
          "name": "",
          "type": "bool"
        }
      ],
      "stateMutability": "view",
      "type": "function"
    },
    {
      "inputs": [],
      "name": "renounceOwnership",
      "outputs": [],
      "stateMutability": "nonpayable",
      "type": "function"
    },
    {
      "inputs": [
        {
          "internalType": "uint256",
          "name": "_repayAmount",
          "type": "uint256"
        }
      ],
      "name": "repayLoan",
      "outputs": [],
      "stateMutability": "nonpayable",
      "type": "function"
    },
    {
      "inputs": [
        {
          "internalType": "uint256",
          "name": "_loanAmount",
          "type": "uint256"
        },
        {
          "internalType": "uint256",
          "name": "_desiredInterestRate",
          "type": "uint256"
        }
      ],
      "name": "requestLoan",
      "outputs": [],
      "stateMutability": "nonpayable",
      "type": "function"
    },
    {
      "inputs": [],
      "name": "returnFunds",
      "outputs": [],
      "stateMutability": "nonpayable",
      "type": "function"
    },
    {
      "inputs": [
        {
          "internalType": "address",
          "name": "newOwner",
          "type": "address"
        }
      ],
      "name": "transferOwnership",
      "outputs": [],
      "stateMutability": "nonpayable",
      "type": "function"
    },
    {
      "inputs": [],
      "name": "unpause",
      "outputs": [],
      "stateMutability": "nonpayable",
      "type": "function"
    },
    {
      "inputs": [
        {
          "internalType": "address",
          "name": "",
          "type": "address"
        }
      ],
      "name": "userCreditScores",
      "outputs": [
        {
          "internalType": "uint256",
          "name": "totalLoansRepaid",
          "type": "uint256"
        },
        {
          "internalType": "uint256",
          "name": "totalLoansDefaulted",
          "type": "uint256"
        },
        {
          "internalType": "uint256",
          "name": "creditScore",
          "type": "uint256"
        },
        {
          "internalType": "uint256",
          "name": "lastLoanAmount",
          "type": "uint256"
        }
      ],
      "stateMutability": "view",
      "type": "function"
    },
    {
      "inputs": [
        {
          "internalType": "address",
          "name": "",
          "type": "address"
        }
      ],
      "name": "userLoans",
      "outputs": [
        {
          "internalType": "uint256",
          "name": "amount",
          "type": "uint256"
        },
        {
          "internalType": "uint256",
          "name": "interestRate",
          "type": "uint256"
        },
        {
          "internalType": "uint256",
          "name": "startTime",
          "type": "uint256"
        },
        {
          "internalType": "uint256",
          "name": "collateral",
          "type": "uint256"
        },
        {
          "internalType": "uint256",
          "name": "collateralRatio",
          "type": "uint256"
        },
        {
          "internalType": "bool",
          "name": "isRepaid",
          "type": "bool"
        },
        {
          "internalType": "bool",
          "name": "isDefaulted",
          "type": "bool"
        }
      ],
      "stateMutability": "view",
      "type": "function"
    }
  ],
  "bytecode": "0x60806040526213c68060055560056006553480156200001d57600080fd5b5060405162002bf138038062002bf1833981810160405281019062000043919062000365565b336001600081905550600073ffffffffffffffffffffffffffffffffffffffff168173ffffffffffffffffffffffffffffffffffffffff1603620000c15760006040517f1e4fbdf7000000000000000000000000000000000000000000000000000000008152600401620000b89190620003a8565b60405180910390fd5b620000d2816200023560201b60201c565b506000600160146101000a81548160ff02191690831515021790555073036cbd53842c5426634e7929541ec2318f3dcf7e600260006101000a81548173ffffffffffffffffffffffffffffffffffffffff021916908373ffffffffffffffffffffffffffffffffffffffff16021790555080600360006101000a81548173ffffffffffffffffffffffffffffffffffffffff021916908373ffffffffffffffffffffffffffffffffffffffff160217905550733c65e28d357a37589e1c7c86044a9f44ddc17134600760006101000a81548173ffffffffffffffffffffffffffffffffffffffff021916908373ffffffffffffffffffffffffffffffffffffffff160217905550733ec8593f930ea45ea58c968260e6e9ff53fc934f600860006101000a81548173ffffffffffffffffffffffffffffffffffffffff021916908373ffffffffffffffffffffffffffffffffffffffff16021790555050620003c5565b6000600160009054906101000a900473ffffffffffffffffffffffffffffffffffffffff16905081600160006101000a81548173ffffffffffffffffffffffffffffffffffffffff021916908373ffffffffffffffffffffffffffffffffffffffff1602179055508173ffffffffffffffffffffffffffffffffffffffff168173ffffffffffffffffffffffffffffffffffffffff167f8be0079c531659141344cd1fd0a4f28419497f9722a3daafe3b4186f6b6457e060405160405180910390a35050565b600080fd5b600073ffffffffffffffffffffffffffffffffffffffff82169050919050565b60006200032d8262000300565b9050919050565b6200033f8162000320565b81146200034b57600080fd5b50565b6000815190506200035f8162000334565b92915050565b6000602082840312156200037e576200037d620002fb565b5b60006200038e848285016200034e565b91505092915050565b620003a28162000320565b82525050565b6000602082019050620003bf600083018462000397565b92915050565b61281c80620003d56000396000f3fe608060405234801561001057600080fd5b50600436106101735760003560e01c80635c975abb116100de578063aa452fa611610097578063be99970511610071578063be999705146103cf578063e9e190a3146103eb578063ec9e039314610421578063f2fde38b1461043f57610173565b8063aa452fa614610379578063ab7b1c8914610395578063afd92762146103b157610173565b80635c975abb146102db57806361cb6afd146102f957806370f37d2714610329578063715018a6146103475780638456cb59146103515780638da5cb5b1461035b57610173565b8063237c343a11610130578063237c343a1461021457806323be345c146102325780632af7e2ea14610250578063399fbc691461026e5780633f4ba83a1461029e578063449d31bb146102a857610173565b80630ea86ad81461017857806317430c9e146101965780631eb5ea2e146101b45780631fea5a6b146101be578063213d1a9b146101da57806322f9913e146101f8575b600080fd5b61018061045b565b60405161018d9190611bef565b60405180910390f35b61019e610481565b6040516101ab9190611c23565b60405180910390f35b6101bc610522565b005b6101d860048036038101906101d39190611c81565b610677565b005b6101e2610886565b6040516101ef9190611cc7565b60405180910390f35b610212600480360381019061020d9190611d0e565b6108b9565b005b61021c61096b565b6040516102299190611cc7565b60405180910390f35b61023a610970565b6040516102479190611d6f565b60405180910390f35b610258610996565b6040516102659190611cc7565b60405180910390f35b61028860048036038101906102839190611c81565b61099c565b6040516102959190611cc7565b60405180910390f35b6102a6610ab4565b005b6102c260048036038101906102bd9190611c81565b610af2565b6040516102d29493929190611d8a565b60405180910390f35b6102e3610b22565b6040516102f09190611dea565b60405180910390f35b610313600480360381019061030e9190611c81565b610b39565b6040516103209190611cc7565b60405180910390f35b610331610c50565b60405161033e9190611cc7565b60405180910390f35b61034f610c56565b005b610359610c6a565b005b610363610ca8565b6040516103709190611e14565b60405180910390f35b610393600480360381019061038e9190611e2f565b610cd2565b005b6103af60048036038101906103aa9190611e6f565b6110c8565b005b6103b9611453565b6040516103c69190611cc7565b60405180910390f35b6103e960048036038101906103e49190611e6f565b611459565b005b61040560048036038101906104009190611c81565b611595565b6040516104189796959493929190611e9c565b60405180910390f35b6104296115f1565b6040516104369190611c23565b60405180910390f35b61045960048036038101906104549190611c81565b611692565b005b600260009054906101000a900473ffffffffffffffffffffffffffffffffffffffff1681565b600080600760009054906101000a900473ffffffffffffffffffffffffffffffffffffffff1673ffffffffffffffffffffffffffffffffffffffff1663feaf968c6040518163ffffffff1660e01b815260040160a060405180830381865afa1580156104f1573d6000803e3d6000fd5b505050506040513d601f19601f820116820180604052508101906105159190611f8e565b5050509150508091505090565b61052a611718565b600260009054906101000a900473ffffffffffffffffffffffffffffffffffffffff1673ffffffffffffffffffffffffffffffffffffffff1663a9059cbb610570610ca8565b600260009054906101000a900473ffffffffffffffffffffffffffffffffffffffff1673ffffffffffffffffffffffffffffffffffffffff166370a08231306040518263ffffffff1660e01b81526004016105cb9190611e14565b602060405180830381865afa1580156105e8573d6000803e3d6000fd5b505050506040513d601f19601f8201168201806040525081019061060c9190612009565b6040518363ffffffff1660e01b8152600401610629929190612036565b6020604051808303816000875af1158015610648573d6000803e3d6000fd5b505050506040513d601f19601f8201168201806040525081019061066c919061208b565b506000600481905550565b61067f611718565b61068761179f565b6000600960008373ffffffffffffffffffffffffffffffffffffffff1673ffffffffffffffffffffffffffffffffffffffff16815260200190815260200160002090506000816000015411610711576040517f08c379a000000000000000000000000000000000000000000000000000000000815260040161070890612115565b60405180910390fd5b600554816004015482600201546107289190612164565b6107329190612164565b4211610773576040517f08c379a000000000000000000000000000000000000000000000000000000000815260040161076a9061220a565b60405180910390fd5b60018160050160016101000a81548160ff02191690831515021790555061079b8260006117e5565b600360009054906101000a900473ffffffffffffffffffffffffffffffffffffffff1673ffffffffffffffffffffffffffffffffffffffff16631fea5a6b836040518263ffffffff1660e01b81526004016107f69190611e14565b600060405180830381600087803b15801561081057600080fd5b505af1158015610824573d6000803e3d6000fd5b505050508173ffffffffffffffffffffffffffffffffffffffff167f0be253503c49f8fb02046da3ef57bc2f5f881eb14ba5c2c26b54bf2fb4e7db0782600301546040516108729190611cc7565b60405180910390a250610883611952565b50565b6000806108923361099c565b9050600060966064836108a5919061222a565b6108af919061229b565b9050809250505090565b6108c1611718565b6000600960008473ffffffffffffffffffffffffffffffffffffffff1673ffffffffffffffffffffffffffffffffffffffff1681526020019081526020016000209050600081600001541161094b576040517f08c379a000000000000000000000000000000000000000000000000000000000815260040161094290612115565b60405180910390fd5b8181600201600082825461095f9190612164565b92505081905550505050565b600581565b600360009054906101000a900473ffffffffffffffffffffffffffffffffffffffff1681565b60055481565b6000806000600360009054906101000a900473ffffffffffffffffffffffffffffffffffffffff1673ffffffffffffffffffffffffffffffffffffffff16632703ee85856040518263ffffffff1660e01b81526004016109fc9190611e14565b6040805180830381865afa158015610a18573d6000803e3d6000fd5b505050506040513d601f19601f82011682018060405250810190610a3c91906122cc565b915091506000610a4a610481565b90506000610a566115f1565b905060006305f5e1008386610a6b919061222a565b610a75919061229b565b90506000620f42408386610a89919061222a565b610a93919061229b565b905060008183610aa39190612164565b905080975050505050505050919050565b610abc611718565b610ac461195c565b7f15de7ad89d29fd1c6d2e6b1e878453569b4080edf34e0105faaa3bd52f01853060405160405180910390a1565b600a6020528060005260406000206000915090508060000154908060010154908060020154908060030154905084565b6000600160149054906101000a900460ff16905090565b600080600960008473ffffffffffffffffffffffffffffffffffffffff1673ffffffffffffffffffffffffffffffffffffffff1681526020019081526020016000206040518060e001604052908160008201548152602001600182015481526020016002820154815260200160038201548152602001600482015481526020016005820160009054906101000a900460ff161515151581526020016005820160019054906101000a900460ff16151515158152505090506000816040015142610c02919061230c565b9050600063bbf81e008284602001518560000151610c20919061222a565b610c2a919061222a565b610c34919061229b565b9050808360000151610c469190612164565b9350505050919050565b60045481565b610c5e611718565b610c6860006119bf565b565b610c72611718565b610c7a611a85565b7f4cb3183d0bf66f9634b15cfc3539fdddc96c2c9324848af89b56586a6739fec460405160405180910390a1565b6000600160009054906101000a900473ffffffffffffffffffffffffffffffffffffffff16905090565b610cda61179f565b610ce2611ae7565b60008211610d25576040517f08c379a0000000000000000000000000000000000000000000000000000000008152600401610d1c906123b2565b60405180910390fd5b6000600960003373ffffffffffffffffffffffffffffffffffffffff1673ffffffffffffffffffffffffffffffffffffffff1681526020019081526020016000206000015414610daa576040517f08c379a0000000000000000000000000000000000000000000000000000000008152600401610da190612444565b60405180910390fd5b6000610db53361099c565b9050600060969050600081606484610dcd919061222a565b610dd7919061229b565b905080851115610e1c576040517f08c379a0000000000000000000000000000000000000000000000000000000008152600401610e13906124d6565b60405180910390fd5b60006040518060e001604052808781526020016006548711610e4057600654610e42565b865b815260200142815260200185815260200184815260200160001515815260200160001515815250905080600960003373ffffffffffffffffffffffffffffffffffffffff1673ffffffffffffffffffffffffffffffffffffffff168152602001908152602001600020600082015181600001556020820151816001015560408201518160020155606082015181600301556080820151816004015560a08201518160050160006101000a81548160ff02191690831515021790555060c08201518160050160016101000a81548160ff021916908315150217905550905050600260009054906101000a900473ffffffffffffffffffffffffffffffffffffffff1673ffffffffffffffffffffffffffffffffffffffff1663a9059cbb33886040518363ffffffff1660e01b8152600401610f7d929190612036565b6020604051808303816000875af1158015610f9c573d6000803e3d6000fd5b505050506040513d601f19601f82011682018060405250810190610fc0919061208b565b610fff576040517f08c379a0000000000000000000000000000000000000000000000000000000008152600401610ff690612568565b60405180910390fd5b8560046000828254611011919061230c565b925050819055503373ffffffffffffffffffffffffffffffffffffffff167f7468760830aff5679376e50470c0493d21c88c599388e89b08c9512b3f3fbc7d8786604051611060929190612588565b60405180910390a23373ffffffffffffffffffffffffffffffffffffffff167f1c793c0fda4a6b2b79dd68d91d9f7fde8f7aa0878615c36a4624e6ccdbb1ead187866040516110b0929190612588565b60405180910390a2505050506110c4611952565b5050565b6110d061179f565b6110d8611ae7565b6000600960003373ffffffffffffffffffffffffffffffffffffffff1673ffffffffffffffffffffffffffffffffffffffff16815260200190815260200160002090506000816000015411611162576040517f08c379a000000000000000000000000000000000000000000000000000000000815260040161115990612115565b60405180910390fd5b8060050160009054906101000a900460ff16156111b4576040517f08c379a00000000000000000000000000000000000000000000000000000000081526004016111ab90612623565b60405180910390fd5b60006111bf33610b39565b905080831015611204576040517f08c379a00000000000000000000000000000000000000000000000000000000081526004016111fb906126b5565b60405180910390fd5b600260009054906101000a900473ffffffffffffffffffffffffffffffffffffffff1673ffffffffffffffffffffffffffffffffffffffff166323b872dd3330866040518463ffffffff1660e01b8152600401611263939291906126d5565b6020604051808303816000875af1158015611282573d6000803e3d6000fd5b505050506040513d601f19601f820116820180604052508101906112a6919061208b565b5060018260050160006101000a81548160ff0219169083151502179055506112cf3360016117e5565b600360009054906101000a900473ffffffffffffffffffffffffffffffffffffffff1673ffffffffffffffffffffffffffffffffffffffff1663192e7a7b336040518263ffffffff1660e01b815260040161132a9190611e14565b600060405180830381600087803b15801561134457600080fd5b505af1158015611358573d6000803e3d6000fd5b50505050600960003373ffffffffffffffffffffffffffffffffffffffff1673ffffffffffffffffffffffffffffffffffffffff16815260200190815260200160002060008082016000905560018201600090556002820160009055600382016000905560048201600090556005820160006101000a81549060ff02191690556005820160016101000a81549060ff021916905550503373ffffffffffffffffffffffffffffffffffffffff167fc7ce0a35f17b490de2a317e7fecb2cae86b1abffb03800b2f4928235213826988360000154846003015460405161143e929190612588565b60405180910390a25050611450611952565b50565b60065481565b611461611718565b600260009054906101000a900473ffffffffffffffffffffffffffffffffffffffff1673ffffffffffffffffffffffffffffffffffffffff166323b872dd3330846040518463ffffffff1660e01b81526004016114c0939291906126d5565b6020604051808303816000875af11580156114df573d6000803e3d6000fd5b505050506040513d601f19601f82011682018060405250810190611503919061208b565b611542576040517f08c379a00000000000000000000000000000000000000000000000000000000081526004016115399061277e565b60405180910390fd5b80600460008282546115549190612164565b925050819055507fdfa1544d71975f6aad289acdbd6a695a0789ed2f94a3aa775d08d2bbc570af6d8160405161158a9190611cc7565b60405180910390a150565b60096020528060005260406000206000915090508060000154908060010154908060020154908060030154908060040154908060050160009054906101000a900460ff16908060050160019054906101000a900460ff16905087565b600080600860009054906101000a900473ffffffffffffffffffffffffffffffffffffffff1673ffffffffffffffffffffffffffffffffffffffff1663feaf968c6040518163ffffffff1660e01b815260040160a060405180830381865afa158015611661573d6000803e3d6000fd5b505050506040513d601f19601f820116820180604052508101906116859190611f8e565b5050509150508091505090565b61169a611718565b600073ffffffffffffffffffffffffffffffffffffffff168173ffffffffffffffffffffffffffffffffffffffff160361170c5760006040517f1e4fbdf70000000000000000000000000000000000000000000000000000000081526004016117039190611e14565b60405180910390fd5b611715816119bf565b50565b611720611b28565b73ffffffffffffffffffffffffffffffffffffffff1661173e610ca8565b73ffffffffffffffffffffffffffffffffffffffff161461179d57611761611b28565b6040517f118cdaa70000000000000000000000000000000000000000000000000000000081526004016117949190611e14565b60405180910390fd5b565b6002600054036117db576040517f3ee5aeb500000000000000000000000000000000000000000000000000000000815260040160405180910390fd5b6002600081905550565b6000600a60008473ffffffffffffffffffffffffffffffffffffffff1673ffffffffffffffffffffffffffffffffffffffff16815260200190815260200160002090506000600960008573ffffffffffffffffffffffffffffffffffffffff1673ffffffffffffffffffffffffffffffffffffffff16815260200190815260200160002060000154905082156118bb5781600001600081548092919061188a9061279e565b919050555060058161189c919061222a565b8260020160008282546118af9190612164565b925050819055506118fd565b8160010160008154809291906118d09061279e565b91905055506005816118e2919061222a565b8260020160008282546118f5919061230c565b925050819055505b6005826001015461190e919061222a565b600a836000015461191f919061222a565b611929919061230c565b82600201600082825461193c9190612164565b9250508190555080826003018190555050505050565b6001600081905550565b611964611b30565b6000600160146101000a81548160ff0219169083151502179055507f5db9ee0a495bf2e6ff9c91a7834c1ba4fdd244a5e8aa4e537bd38aeae4b073aa6119a8611b28565b6040516119b59190611e14565b60405180910390a1565b6000600160009054906101000a900473ffffffffffffffffffffffffffffffffffffffff16905081600160006101000a81548173ffffffffffffffffffffffffffffffffffffffff021916908373ffffffffffffffffffffffffffffffffffffffff1602179055508173ffffffffffffffffffffffffffffffffffffffff168173ffffffffffffffffffffffffffffffffffffffff167f8be0079c531659141344cd1fd0a4f28419497f9722a3daafe3b4186f6b6457e060405160405180910390a35050565b611a8d611ae7565b60018060146101000a81548160ff0219169083151502179055507f62e78cea01bee320cd4e420270b5ea74000d11b0c9f74754ebdbfc544b05a258611ad0611b28565b604051611add9190611e14565b60405180910390a1565b611aef610b22565b15611b26576040517fd93c066500000000000000000000000000000000000000000000000000000000815260040160405180910390fd5b565b600033905090565b611b38610b22565b611b6e576040517f8dfc202b00000000000000000000000000000000000000000000000000000000815260040160405180910390fd5b565b600073ffffffffffffffffffffffffffffffffffffffff82169050919050565b6000819050919050565b6000611bb5611bb0611bab84611b70565b611b90565b611b70565b9050919050565b6000611bc782611b9a565b9050919050565b6000611bd982611bbc565b9050919050565b611be981611bce565b82525050565b6000602082019050611c046000830184611be0565b92915050565b6000819050919050565b611c1d81611c0a565b82525050565b6000602082019050611c386000830184611c14565b92915050565b600080fd5b6000611c4e82611b70565b9050919050565b611c5e81611c43565b8114611c6957600080fd5b50565b600081359050611c7b81611c55565b92915050565b600060208284031215611c9757611c96611c3e565b5b6000611ca584828501611c6c565b91505092915050565b6000819050919050565b611cc181611cae565b82525050565b6000602082019050611cdc6000830184611cb8565b92915050565b611ceb81611cae565b8114611cf657600080fd5b50565b600081359050611d0881611ce2565b92915050565b60008060408385031215611d2557611d24611c3e565b5b6000611d3385828601611c6c565b9250506020611d4485828601611cf9565b9150509250929050565b6000611d5982611bbc565b9050919050565b611d6981611d4e565b82525050565b6000602082019050611d846000830184611d60565b92915050565b6000608082019050611d9f6000830187611cb8565b611dac6020830186611cb8565b611db96040830185611cb8565b611dc66060830184611cb8565b95945050505050565b60008115159050919050565b611de481611dcf565b82525050565b6000602082019050611dff6000830184611ddb565b92915050565b611e0e81611c43565b82525050565b6000602082019050611e296000830184611e05565b92915050565b60008060408385031215611e4657611e45611c3e565b5b6000611e5485828601611cf9565b9250506020611e6585828601611cf9565b9150509250929050565b600060208284031215611e8557611e84611c3e565b5b6000611e9384828501611cf9565b91505092915050565b600060e082019050611eb1600083018a611cb8565b611ebe6020830189611cb8565b611ecb6040830188611cb8565b611ed86060830187611cb8565b611ee56080830186611cb8565b611ef260a0830185611ddb565b611eff60c0830184611ddb565b98975050505050505050565b600069ffffffffffffffffffff82169050919050565b611f2a81611f0b565b8114611f3557600080fd5b50565b600081519050611f4781611f21565b92915050565b611f5681611c0a565b8114611f6157600080fd5b50565b600081519050611f7381611f4d565b92915050565b600081519050611f8881611ce2565b92915050565b600080600080600060a08688031215611faa57611fa9611c3e565b5b6000611fb888828901611f38565b9550506020611fc988828901611f64565b9450506040611fda88828901611f79565b9350506060611feb88828901611f79565b9250506080611ffc88828901611f38565b9150509295509295909350565b60006020828403121561201f5761201e611c3e565b5b600061202d84828501611f79565b91505092915050565b600060408201905061204b6000830185611e05565b6120586020830184611cb8565b9392505050565b61206881611dcf565b811461207357600080fd5b50565b6000815190506120858161205f565b92915050565b6000602082840312156120a1576120a0611c3e565b5b60006120af84828501612076565b91505092915050565b600082825260208201905092915050565b7f4c6f616e4d616e616765723a204e6f20616374697665206c6f616e0000000000600082015250565b60006120ff601b836120b8565b915061210a826120c9565b602082019050919050565b6000602082019050818103600083015261212e816120f2565b9050919050565b7f4e487b7100000000000000000000000000000000000000000000000000000000600052601160045260246000fd5b600061216f82611cae565b915061217a83611cae565b925082820190508082111561219257612191612135565b5b92915050565b7f4c6f616e4d616e616765723a204c6f616e206e6f742064656661756c7465642060008201527f7965740000000000000000000000000000000000000000000000000000000000602082015250565b60006121f46023836120b8565b91506121ff82612198565b604082019050919050565b60006020820190508181036000830152612223816121e7565b9050919050565b600061223582611cae565b915061224083611cae565b925082820261224e81611cae565b9150828204841483151761226557612264612135565b5b5092915050565b7f4e487b7100000000000000000000000000000000000000000000000000000000600052601260045260246000fd5b60006122a682611cae565b91506122b183611cae565b9250826122c1576122c061226c565b5b828204905092915050565b600080604083850312156122e3576122e2611c3e565b5b60006122f185828601611f79565b925050602061230285828601611f79565b9150509250929050565b600061231782611cae565b915061232283611cae565b925082820390508181111561233a57612339612135565b5b92915050565b7f4c6f616e4d616e616765723a204c6f616e20616d6f756e74206d75737420626560008201527f2067726561746572207468616e20300000000000000000000000000000000000602082015250565b600061239c602f836120b8565b91506123a782612340565b604082019050919050565b600060208201905081810360008301526123cb8161238f565b9050919050565b7f4c6f616e4d616e616765723a204578697374696e67206c6f616e206d7573742060008201527f6265207265706169642066697273740000000000000000000000000000000000602082015250565b600061242e602f836120b8565b9150612439826123d2565b604082019050919050565b6000602082019050818103600083015261245d81612421565b9050919050565b7f4c6f616e4d616e616765723a20496e73756666696369656e7420636f6c6c617460008201527f6572616c00000000000000000000000000000000000000000000000000000000602082015250565b60006124c06024836120b8565b91506124cb82612464565b604082019050919050565b600060208201905081810360008301526124ef816124b3565b9050919050565b7f4c6f616e4d616e616765723a204c6f616e207472616e73666572206661696c6560008201527f6400000000000000000000000000000000000000000000000000000000000000602082015250565b60006125526021836120b8565b915061255d826124f6565b604082019050919050565b6000602082019050818103600083015261258181612545565b9050919050565b600060408201905061259d6000830185611cb8565b6125aa6020830184611cb8565b9392505050565b7f4c6f616e4d616e616765723a204c6f616e20697320616c72656164792072657060008201527f6169640000000000000000000000000000000000000000000000000000000000602082015250565b600061260d6023836120b8565b9150612618826125b1565b604082019050919050565b6000602082019050818103600083015261263c81612600565b9050919050565b7f4c6f616e4d616e616765723a20496e73756666696369656e742072657061796d60008201527f656e740000000000000000000000000000000000000000000000000000000000602082015250565b600061269f6023836120b8565b91506126aa82612643565b604082019050919050565b600060208201905081810360008301526126ce81612692565b9050919050565b60006060820190506126ea6000830186611e05565b6126f76020830185611e05565b6127046040830184611cb8565b949350505050565b7f4c6f616e4d616e616765723a2046756e64207472616e73666572206661696c6560008201527f6400000000000000000000000000000000000000000000000000000000000000602082015250565b60006127686021836120b8565b91506127738261270c565b604082019050919050565b600060208201905081810360008301526127978161275b565b9050919050565b60006127a982611cae565b91507fffffffffffffffffffffffffffffffffffffffffffffffffffffffffffffffff82036127db576127da612135565b5b60018201905091905056fea2646970667358221220dfec11a541e58e90b1d3fccd49dfdfef5d38d11edf67a3badfffe3aabce60dca64736f6c63430008140033",
  "linkReferences": {},
  "deployedLinkReferences": {}
}