{
  "_format": "hh-sol-artifact-1",
  "contractName": "MellowFinanceCollateralManager",
  "sourceName": "contracts/MellowFiCollateralManager.sol",
  "abi": [
    {
      "inputs": [],
      "stateMutability": "nonpayable",
      "type": "constructor"
    },
    {
      "inputs": [],
      "name": "EnforcedPause",
      "type": "error"
    },
    {
      "inputs": [],
      "name": "ExpectedPause",
      "type": "error"
    },
    {
      "inputs": [
        {
          "internalType": "address",
          "name": "owner",
          "type": "address"
        }
      ],
      "name": "OwnableInvalidOwner",
      "type": "error"
    },
    {
      "inputs": [
        {
          "internalType": "address",
          "name": "account",
          "type": "address"
        }
      ],
      "name": "OwnableUnauthorizedAccount",
      "type": "error"
    },
    {
      "inputs": [],
      "name": "ReentrancyGuardReentrantCall",
      "type": "error"
    },
    {
      "anonymous": false,
      "inputs": [
        {
          "indexed": true,
          "internalType": "address",
          "name": "user",
          "type": "address"
        },
        {
          "indexed": false,
          "internalType": "uint256",
          "name": "amount",
          "type": "uint256"
        }
      ],
      "name": "FundsReleased",
      "type": "event"
    },
    {
      "anonymous": false,
      "inputs": [
        {
          "indexed": true,
          "internalType": "address",
          "name": "user",
          "type": "address"
        },
        {
          "indexed": false,
          "internalType": "uint256",
          "name": "amount",
          "type": "uint256"
        }
      ],
      "name": "NativeCollateralDeposited",
      "type": "event"
    },
    {
      "anonymous": false,
      "inputs": [
        {
          "indexed": true,
          "internalType": "address",
          "name": "user",
          "type": "address"
        },
        {
          "indexed": false,
          "internalType": "uint256",
          "name": "amount",
          "type": "uint256"
        }
      ],
      "name": "NativeCollateralWithdrawn",
      "type": "event"
    },
    {
      "anonymous": false,
      "inputs": [
        {
          "indexed": true,
          "internalType": "address",
          "name": "previousOwner",
          "type": "address"
        },
        {
          "indexed": true,
          "internalType": "address",
          "name": "newOwner",
          "type": "address"
        }
      ],
      "name": "OwnershipTransferred",
      "type": "event"
    },
    {
      "anonymous": false,
      "inputs": [
        {
          "indexed": false,
          "internalType": "address",
          "name": "account",
          "type": "address"
        }
      ],
      "name": "Paused",
      "type": "event"
    },
    {
      "anonymous": false,
      "inputs": [
        {
          "indexed": true,
          "internalType": "address",
          "name": "user",
          "type": "address"
        },
        {
          "indexed": false,
          "internalType": "uint256",
          "name": "amount",
          "type": "uint256"
        }
      ],
      "name": "StableDeposited",
      "type": "event"
    },
    {
      "anonymous": false,
      "inputs": [
        {
          "indexed": true,
          "internalType": "address",
          "name": "user",
          "type": "address"
        },
        {
          "indexed": false,
          "internalType": "uint256",
          "name": "amount",
          "type": "uint256"
        }
      ],
      "name": "StableWithdrawn",
      "type": "event"
    },
    {
      "anonymous": false,
      "inputs": [
        {
          "indexed": false,
          "internalType": "address",
          "name": "account",
          "type": "address"
        }
      ],
      "name": "Unpaused",
      "type": "event"
    },
    {
      "inputs": [],
      "name": "depositNativeCollateral",
      "outputs": [],
      "stateMutability": "payable",
      "type": "function"
    },
    {
      "inputs": [
        {
          "internalType": "uint256",
          "name": "_amount",
          "type": "uint256"
        }
      ],
      "name": "depositStableCollateral",
      "outputs": [],
      "stateMutability": "nonpayable",
      "type": "function"
    },
    {
      "inputs": [
        {
          "internalType": "address",
          "name": "_user",
          "type": "address"
        }
      ],
      "name": "getCollateralBalance",
      "outputs": [
        {
          "internalType": "uint256",
          "name": "native_balance",
          "type": "uint256"
        },
        {
          "internalType": "uint256",
          "name": "stable_balance",
          "type": "uint256"
        }
      ],
      "stateMutability": "view",
      "type": "function"
    },
    {
      "inputs": [
        {
          "internalType": "address",
          "name": "user",
          "type": "address"
        }
      ],
      "name": "liquidateCollateral",
      "outputs": [],
      "stateMutability": "nonpayable",
      "type": "function"
    },
    {
      "inputs": [],
      "name": "owner",
      "outputs": [
        {
          "internalType": "address",
          "name": "",
          "type": "address"
        }
      ],
      "stateMutability": "view",
      "type": "function"
    },
    {
      "inputs": [],
      "name": "pause",
      "outputs": [],
      "stateMutability": "nonpayable",
      "type": "function"
    },
    {
      "inputs": [],
      "name": "paused",
      "outputs": [
        {
          "internalType": "bool",
          "name": "",
          "type": "bool"
        }
      ],
      "stateMutability": "view",
      "type": "function"
    },
    {
      "inputs": [
        {
          "internalType": "address",
          "name": "user",
          "type": "address"
        }
      ],
      "name": "releaseFunds",
      "outputs": [],
      "stateMutability": "nonpayable",
      "type": "function"
    },
    {
      "inputs": [],
      "name": "renounceOwnership",
      "outputs": [],
      "stateMutability": "nonpayable",
      "type": "function"
    },
    {
      "inputs": [],
      "name": "returnFunds",
      "outputs": [],
      "stateMutability": "nonpayable",
      "type": "function"
    },
    {
      "inputs": [],
      "name": "stablecoinDepositToken",
      "outputs": [
        {
          "internalType": "contract ERC20",
          "name": "",
          "type": "address"
        }
      ],
      "stateMutability": "view",
      "type": "function"
    },
    {
      "inputs": [],
      "name": "totalCollateralNative",
      "outputs": [
        {
          "internalType": "uint256",
          "name": "",
          "type": "uint256"
        }
      ],
      "stateMutability": "view",
      "type": "function"
    },
    {
      "inputs": [],
      "name": "totalCollateralStable",
      "outputs": [
        {
          "internalType": "uint256",
          "name": "",
          "type": "uint256"
        }
      ],
      "stateMutability": "view",
      "type": "function"
    },
    {
      "inputs": [
        {
          "internalType": "address",
          "name": "newOwner",
          "type": "address"
        }
      ],
      "name": "transferOwnership",
      "outputs": [],
      "stateMutability": "nonpayable",
      "type": "function"
    },
    {
      "inputs": [],
      "name": "unpause",
      "outputs": [],
      "stateMutability": "nonpayable",
      "type": "function"
    },
    {
      "inputs": [
        {
          "internalType": "address",
          "name": "",
          "type": "address"
        }
      ],
      "name": "userCollateralNative",
      "outputs": [
        {
          "internalType": "uint256",
          "name": "",
          "type": "uint256"
        }
      ],
      "stateMutability": "view",
      "type": "function"
    },
    {
      "inputs": [
        {
          "internalType": "address",
          "name": "",
          "type": "address"
        }
      ],
      "name": "userCollateralStable",
      "outputs": [
        {
          "internalType": "uint256",
          "name": "",
          "type": "uint256"
        }
      ],
      "stateMutability": "view",
      "type": "function"
    },
    {
      "inputs": [
        {
          "internalType": "uint256",
          "name": "_amount",
          "type": "uint256"
        }
      ],
      "name": "withdrawNativeCollateral",
      "outputs": [],
      "stateMutability": "nonpayable",
      "type": "function"
    },
    {
      "inputs": [
        {
          "internalType": "uint256",
          "name": "_amount",
          "type": "uint256"
        }
      ],
      "name": "withdrawStableCollateral",
      "outputs": [],
      "stateMutability": "nonpayable",
      "type": "function"
    }
  ],
  "bytecode": "0x60806040523480156200001157600080fd5b503360016000819055506000600160006101000a81548160ff021916908315150217905550600073ffffffffffffffffffffffffffffffffffffffff168173ffffffffffffffffffffffffffffffffffffffff1603620000ab5760006040517f1e4fbdf7000000000000000000000000000000000000000000000000000000008152600401620000a2919062000220565b60405180910390fd5b620000bc816200011860201b60201c565b5073036cbd53842c5426634e7929541ec2318f3dcf7e600260006101000a81548173ffffffffffffffffffffffffffffffffffffffff021916908373ffffffffffffffffffffffffffffffffffffffff1602179055506200023d565b600060018054906101000a900473ffffffffffffffffffffffffffffffffffffffff169050816001806101000a81548173ffffffffffffffffffffffffffffffffffffffff021916908373ffffffffffffffffffffffffffffffffffffffff1602179055508173ffffffffffffffffffffffffffffffffffffffff168173ffffffffffffffffffffffffffffffffffffffff167f8be0079c531659141344cd1fd0a4f28419497f9722a3daafe3b4186f6b6457e060405160405180910390a35050565b600073ffffffffffffffffffffffffffffffffffffffff82169050919050565b60006200020882620001db565b9050919050565b6200021a81620001fb565b82525050565b60006020820190506200023760008301846200020f565b92915050565b611aee806200024d6000396000f3fe6080604052600436106101145760003560e01c80635c975abb116100a0578063da18e61011610064578063da18e61014610333578063ef4c61bf1461035c578063f2fde38b14610387578063f6da3c90146103b0578063f813e6ab146103d957610114565b80635c975abb14610284578063715018a6146102af578063836e35c8146102c65780638456cb59146102f15780638da5cb5b1461030857610114565b806326c62f90116100e757806326c62f90146101bf5780632703ee85146101fc57806331be0e0e1461023a5780633f4ba83a146102635780635b96a6ec1461027a57610114565b8063192e7a7b146101195780631eb5ea2e146101425780631fea5a6b14610159578063254eb80b14610182575b600080fd5b34801561012557600080fd5b50610140600480360381019061013b9190611510565b610404565b005b34801561014e57600080fd5b506101576106af565b005b34801561016557600080fd5b50610180600480360381019061017b9190611510565b610843565b005b34801561018e57600080fd5b506101a960048036038101906101a49190611510565b6108e0565b6040516101b69190611556565b60405180910390f35b3480156101cb57600080fd5b506101e660048036038101906101e19190611510565b6108f8565b6040516101f39190611556565b60405180910390f35b34801561020857600080fd5b50610223600480360381019061021e9190611510565b610910565b604051610231929190611571565b60405180910390f35b34801561024657600080fd5b50610261600480360381019061025c91906115c6565b61099c565b005b34801561026f57600080fd5b50610278610b5a565b005b610282610b6c565b005b34801561029057600080fd5b50610299610c86565b6040516102a6919061160e565b60405180910390f35b3480156102bb57600080fd5b506102c4610c9d565b005b3480156102d257600080fd5b506102db610cb1565b6040516102e89190611556565b60405180910390f35b3480156102fd57600080fd5b50610306610cb7565b005b34801561031457600080fd5b5061031d610cc9565b60405161032a9190611638565b60405180910390f35b34801561033f57600080fd5b5061035a600480360381019061035591906115c6565b610cf1565b005b34801561036857600080fd5b50610371610f2f565b60405161037e91906116b2565b60405180910390f35b34801561039357600080fd5b506103ae60048036038101906103a99190611510565b610f55565b005b3480156103bc57600080fd5b506103d760048036038101906103d291906115c6565b610fdb565b005b3480156103e557600080fd5b506103ee6111bf565b6040516103fb9190611556565b60405180910390f35b61040c6111c5565b6000600560008373ffffffffffffffffffffffffffffffffffffffff1673ffffffffffffffffffffffffffffffffffffffff1681526020019081526020016000205490506000600660008473ffffffffffffffffffffffffffffffffffffffff1673ffffffffffffffffffffffffffffffffffffffff1681526020019081526020016000205490506000600560008573ffffffffffffffffffffffffffffffffffffffff1673ffffffffffffffffffffffffffffffffffffffff168152602001908152602001600020819055506000600660008573ffffffffffffffffffffffffffffffffffffffff1673ffffffffffffffffffffffffffffffffffffffff168152602001908152602001600020819055508273ffffffffffffffffffffffffffffffffffffffff166108fc839081150290604051600060405180830381858888f19350505050158015610564573d6000803e3d6000fd5b50600260009054906101000a900473ffffffffffffffffffffffffffffffffffffffff1673ffffffffffffffffffffffffffffffffffffffff1663a9059cbb84836040518363ffffffff1660e01b81526004016105c29291906116cd565b6020604051808303816000875af11580156105e1573d6000803e3d6000fd5b505050506040513d601f19601f820116820180604052508101906106059190611722565b508273ffffffffffffffffffffffffffffffffffffffff167f221c08a06b07a64803b3787861a3f276212fcccb51c2e6234077a9b8cb13047a8360405161064c9190611556565b60405180910390a28273ffffffffffffffffffffffffffffffffffffffff167f221c08a06b07a64803b3787861a3f276212fcccb51c2e6234077a9b8cb13047a8260405161069a9190611556565b60405180910390a250506106ac61120b565b50565b6106b7611215565b600260009054906101000a900473ffffffffffffffffffffffffffffffffffffffff1673ffffffffffffffffffffffffffffffffffffffff1663a9059cbb6106fd610cc9565b600260009054906101000a900473ffffffffffffffffffffffffffffffffffffffff1673ffffffffffffffffffffffffffffffffffffffff166370a08231306040518263ffffffff1660e01b81526004016107589190611638565b602060405180830381865afa158015610775573d6000803e3d6000fd5b505050506040513d601f19601f820116820180604052508101906107999190611764565b6040518363ffffffff1660e01b81526004016107b69291906116cd565b6020604051808303816000875af11580156107d5573d6000803e3d6000fd5b505050506040513d601f19601f820116820180604052508101906107f99190611722565b503373ffffffffffffffffffffffffffffffffffffffff166108fc479081150290604051600060405180830381858888f19350505050158015610840573d6000803e3d6000fd5b50565b61084b6111c5565b6000600560008373ffffffffffffffffffffffffffffffffffffffff1673ffffffffffffffffffffffffffffffffffffffff168152602001908152602001600020819055506000600660008373ffffffffffffffffffffffffffffffffffffffff1673ffffffffffffffffffffffffffffffffffffffff168152602001908152602001600020819055506108dd61120b565b50565b60056020528060005260406000206000915090505481565b60066020528060005260406000206000915090505481565b600080600560008473ffffffffffffffffffffffffffffffffffffffff1673ffffffffffffffffffffffffffffffffffffffff16815260200190815260200160002054600660008573ffffffffffffffffffffffffffffffffffffffff1673ffffffffffffffffffffffffffffffffffffffff1681526020019081526020016000205491509150915091565b6109a46111c5565b6109ac61129c565b600081116109ef576040517f08c379a00000000000000000000000000000000000000000000000000000000081526004016109e690611814565b60405180910390fd5b600260009054906101000a900473ffffffffffffffffffffffffffffffffffffffff1673ffffffffffffffffffffffffffffffffffffffff166323b872dd3330846040518463ffffffff1660e01b8152600401610a4e93929190611834565b6020604051808303816000875af1158015610a6d573d6000803e3d6000fd5b505050506040513d601f19601f82011682018060405250810190610a919190611722565b5080600660003373ffffffffffffffffffffffffffffffffffffffff1673ffffffffffffffffffffffffffffffffffffffff1681526020019081526020016000206000828254610ae1919061189a565b925050819055508060046000828254610afa919061189a565b925050819055503373ffffffffffffffffffffffffffffffffffffffff167f72bcd92218a56686cd2892adc5b472dd4e131f58ba98e7a05a28b34ca44be5d382604051610b479190611556565b60405180910390a2610b5761120b565b50565b610b62611215565b610b6a6112dd565b565b610b746111c5565b610b7c61129c565b60003411610bbf576040517f08c379a0000000000000000000000000000000000000000000000000000000008152600401610bb690611940565b60405180910390fd5b34600560003373ffffffffffffffffffffffffffffffffffffffff1673ffffffffffffffffffffffffffffffffffffffff1681526020019081526020016000206000828254610c0e919061189a565b925050819055503460036000828254610c27919061189a565b925050819055503373ffffffffffffffffffffffffffffffffffffffff167f3794d262e1e5b79ac3e163e91538650a7a79c67a2550892fa4b9001797fc075e34604051610c749190611556565b60405180910390a2610c8461120b565b565b6000600160009054906101000a900460ff16905090565b610ca5611215565b610caf6000611340565b565b60035481565b610cbf611215565b610cc7611403565b565b600060018054906101000a900473ffffffffffffffffffffffffffffffffffffffff16905090565b610cf96111c5565b610d0161129c565b60008111610d44576040517f08c379a0000000000000000000000000000000000000000000000000000000008152600401610d3b90611814565b60405180910390fd5b80600660003373ffffffffffffffffffffffffffffffffffffffff1673ffffffffffffffffffffffffffffffffffffffff168152602001908152602001600020541015610dc6576040517f08c379a0000000000000000000000000000000000000000000000000000000008152600401610dbd906119d2565b60405180910390fd5b80600660003373ffffffffffffffffffffffffffffffffffffffff1673ffffffffffffffffffffffffffffffffffffffff1681526020019081526020016000206000828254610e1591906119f2565b925050819055508060046000828254610e2e91906119f2565b92505081905550600260009054906101000a900473ffffffffffffffffffffffffffffffffffffffff1673ffffffffffffffffffffffffffffffffffffffff1663a9059cbb33836040518363ffffffff1660e01b8152600401610e929291906116cd565b6020604051808303816000875af1158015610eb1573d6000803e3d6000fd5b505050506040513d601f19601f82011682018060405250810190610ed59190611722565b503373ffffffffffffffffffffffffffffffffffffffff167fc0c38a768e4dc449a238498e0e4efe579f69439b116d0318f3c81f15da6e713c82604051610f1c9190611556565b60405180910390a2610f2c61120b565b50565b600260009054906101000a900473ffffffffffffffffffffffffffffffffffffffff1681565b610f5d611215565b600073ffffffffffffffffffffffffffffffffffffffff168173ffffffffffffffffffffffffffffffffffffffff1603610fcf5760006040517f1e4fbdf7000000000000000000000000000000000000000000000000000000008152600401610fc69190611638565b60405180910390fd5b610fd881611340565b50565b610fe36111c5565b610feb61129c565b6000811161102e576040517f08c379a000000000000000000000000000000000000000000000000000000000815260040161102590611a98565b60405180910390fd5b80600560003373ffffffffffffffffffffffffffffffffffffffff1673ffffffffffffffffffffffffffffffffffffffff1681526020019081526020016000205410156110b0576040517f08c379a00000000000000000000000000000000000000000000000000000000081526004016110a7906119d2565b60405180910390fd5b80600560003373ffffffffffffffffffffffffffffffffffffffff1673ffffffffffffffffffffffffffffffffffffffff16815260200190815260200160002060008282546110ff91906119f2565b92505081905550806003600082825461111891906119f2565b925050819055503373ffffffffffffffffffffffffffffffffffffffff166108fc829081150290604051600060405180830381858888f19350505050158015611165573d6000803e3d6000fd5b503373ffffffffffffffffffffffffffffffffffffffff167ff9634b89b07bf077bf6370d579cb9349c0086163079c1bdd6976c54098f2f903826040516111ac9190611556565b60405180910390a26111bc61120b565b50565b60045481565b600260005403611201576040517f3ee5aeb500000000000000000000000000000000000000000000000000000000815260040160405180910390fd5b6002600081905550565b6001600081905550565b61121d611465565b73ffffffffffffffffffffffffffffffffffffffff1661123b610cc9565b73ffffffffffffffffffffffffffffffffffffffff161461129a5761125e611465565b6040517f118cdaa70000000000000000000000000000000000000000000000000000000081526004016112919190611638565b60405180910390fd5b565b6112a4610c86565b156112db576040517fd93c066500000000000000000000000000000000000000000000000000000000815260040160405180910390fd5b565b6112e561146d565b6000600160006101000a81548160ff0219169083151502179055507f5db9ee0a495bf2e6ff9c91a7834c1ba4fdd244a5e8aa4e537bd38aeae4b073aa611329611465565b6040516113369190611638565b60405180910390a1565b600060018054906101000a900473ffffffffffffffffffffffffffffffffffffffff169050816001806101000a81548173ffffffffffffffffffffffffffffffffffffffff021916908373ffffffffffffffffffffffffffffffffffffffff1602179055508173ffffffffffffffffffffffffffffffffffffffff168173ffffffffffffffffffffffffffffffffffffffff167f8be0079c531659141344cd1fd0a4f28419497f9722a3daafe3b4186f6b6457e060405160405180910390a35050565b61140b61129c565b60018060006101000a81548160ff0219169083151502179055507f62e78cea01bee320cd4e420270b5ea74000d11b0c9f74754ebdbfc544b05a25861144e611465565b60405161145b9190611638565b60405180910390a1565b600033905090565b611475610c86565b6114ab576040517f8dfc202b00000000000000000000000000000000000000000000000000000000815260040160405180910390fd5b565b600080fd5b600073ffffffffffffffffffffffffffffffffffffffff82169050919050565b60006114dd826114b2565b9050919050565b6114ed816114d2565b81146114f857600080fd5b50565b60008135905061150a816114e4565b92915050565b600060208284031215611526576115256114ad565b5b6000611534848285016114fb565b91505092915050565b6000819050919050565b6115508161153d565b82525050565b600060208201905061156b6000830184611547565b92915050565b60006040820190506115866000830185611547565b6115936020830184611547565b9392505050565b6115a38161153d565b81146115ae57600080fd5b50565b6000813590506115c08161159a565b92915050565b6000602082840312156115dc576115db6114ad565b5b60006115ea848285016115b1565b91505092915050565b60008115159050919050565b611608816115f3565b82525050565b600060208201905061162360008301846115ff565b92915050565b611632816114d2565b82525050565b600060208201905061164d6000830184611629565b92915050565b6000819050919050565b600061167861167361166e846114b2565b611653565b6114b2565b9050919050565b600061168a8261165d565b9050919050565b600061169c8261167f565b9050919050565b6116ac81611691565b82525050565b60006020820190506116c760008301846116a3565b92915050565b60006040820190506116e26000830185611629565b6116ef6020830184611547565b9392505050565b6116ff816115f3565b811461170a57600080fd5b50565b60008151905061171c816116f6565b92915050565b600060208284031215611738576117376114ad565b5b60006117468482850161170d565b91505092915050565b60008151905061175e8161159a565b92915050565b60006020828403121561177a576117796114ad565b5b60006117888482850161174f565b91505092915050565b600082825260208201905092915050565b7f436f6c6c61746572616c4d616e616765723a20496e76616c696420616d6f756e60008201527f7400000000000000000000000000000000000000000000000000000000000000602082015250565b60006117fe602183611791565b9150611809826117a2565b604082019050919050565b6000602082019050818103600083015261182d816117f1565b9050919050565b60006060820190506118496000830186611629565b6118566020830185611629565b6118636040830184611547565b949350505050565b7f4e487b7100000000000000000000000000000000000000000000000000000000600052601160045260246000fd5b60006118a58261153d565b91506118b08361153d565b92508282019050808211156118c8576118c761186b565b5b92915050565b7f436f6c6c61746572616c4d616e616765723a20506c65617365204465706f736960008201527f7420616e20616d6f756e742067726561746572207468616e2030000000000000602082015250565b600061192a603a83611791565b9150611935826118ce565b604082019050919050565b600060208201905081810360008301526119598161191d565b9050919050565b7f436f6c6c61746572616c4d616e616765723a20496e73756666696369656e742060008201527f62616c616e636500000000000000000000000000000000000000000000000000602082015250565b60006119bc602783611791565b91506119c782611960565b604082019050919050565b600060208201905081810360008301526119eb816119af565b9050919050565b60006119fd8261153d565b9150611a088361153d565b9250828203905081811115611a2057611a1f61186b565b5b92915050565b7f436f6c6c61746572616c4d616e616765723a20506c656173652077697468647260008201527f617720616e20616d6f756e742067726561746572207468616e20300000000000602082015250565b6000611a82603b83611791565b9150611a8d82611a26565b604082019050919050565b60006020820190508181036000830152611ab181611a75565b905091905056fea26469706673582212203c23e4001a9fea61f122df6354673c74777e3b689145250a37f39815fc4b650d64736f6c63430008140033",
  "linkReferences": {},
  "deployedLinkReferences": {}
}